{
	"contracts/MultiBeneficiary.sol": {
		"MultiBeneficiary": {
			"abi": [
				{
					"inputs": [
						{
							"internalType": "address[]",
							"name": "_beneficiaries",
							"type": "address[]"
						}
					],
					"stateMutability": "nonpayable",
					"type": "constructor"
				},
				{
					"anonymous": false,
					"inputs": [
						{
							"indexed": false,
							"internalType": "address payable[]",
							"name": "beneficiaries",
							"type": "address[]"
						},
						{
							"indexed": false,
							"internalType": "uint256",
							"name": "amount",
							"type": "uint256"
						}
					],
					"name": "FundsDistributed",
					"type": "event"
				},
				{
					"anonymous": false,
					"inputs": [
						{
							"indexed": false,
							"internalType": "address",
							"name": "sender",
							"type": "address"
						},
						{
							"indexed": false,
							"internalType": "uint256",
							"name": "amount",
							"type": "uint256"
						}
					],
					"name": "FundsReceived",
					"type": "event"
				},
				{
					"inputs": [
						{
							"internalType": "uint256",
							"name": "",
							"type": "uint256"
						}
					],
					"name": "beneficiaries",
					"outputs": [
						{
							"internalType": "address payable",
							"name": "",
							"type": "address"
						}
					],
					"stateMutability": "view",
					"type": "function"
				},
				{
					"inputs": [
						{
							"internalType": "uint256",
							"name": "totalAmount",
							"type": "uint256"
						}
					],
					"name": "distributeFunds",
					"outputs": [],
					"stateMutability": "nonpayable",
					"type": "function"
				},
				{
					"inputs": [],
					"name": "getBeneficiaries",
					"outputs": [
						{
							"internalType": "address payable[]",
							"name": "",
							"type": "address[]"
						}
					],
					"stateMutability": "view",
					"type": "function"
				},
				{
					"stateMutability": "payable",
					"type": "receive"
				}
			],
			"devdoc": {
				"kind": "dev",
				"methods": {},
				"version": 1
			},
			"evm": {
				"assembly": "    /* \"contracts/MultiBeneficiary.sol\":57:1168  contract MultiBeneficiary {... */\n  mstore(0x40, 0x80)\n    /* \"contracts/MultiBeneficiary.sol\":213:458  constructor(address[] memory _beneficiaries) {... */\n  callvalue\n  dup1\n  iszero\n  tag_1\n  jumpi\n  0x00\n  dup1\n  revert\ntag_1:\n  pop\n  mload(0x40)\n  sub(codesize, bytecodeSize)\n  dup1\n  bytecodeSize\n  dup4\n  codecopy\n  dup2\n  dup2\n  add\n  0x40\n  mstore\n  dup2\n  add\n  swap1\n  tag_2\n  swap2\n  swap1\n  tag_3\n  jump\t// in\ntag_2:\n    /* \"contracts/MultiBeneficiary.sol\":273:282  uint256 i */\n  0x00\n    /* \"contracts/MultiBeneficiary.sol\":268:452  for (uint256 i = 0; i < _beneficiaries.length; i++) {... */\ntag_6:\n    /* \"contracts/MultiBeneficiary.sol\":292:306  _beneficiaries */\n  dup2\n    /* \"contracts/MultiBeneficiary.sol\":292:313  _beneficiaries.length */\n  mload\n    /* \"contracts/MultiBeneficiary.sol\":288:289  i */\n  dup2\n    /* \"contracts/MultiBeneficiary.sol\":288:313  i < _beneficiaries.length */\n  lt\n    /* \"contracts/MultiBeneficiary.sol\":268:452  for (uint256 i = 0; i < _beneficiaries.length; i++) {... */\n  iszero\n  tag_7\n  jumpi\n    /* \"contracts/MultiBeneficiary.sol\":395:408  beneficiaries */\n  0x00\n    /* \"contracts/MultiBeneficiary.sol\":422:436  _beneficiaries */\n  dup3\n    /* \"contracts/MultiBeneficiary.sol\":437:438  i */\n  dup3\n    /* \"contracts/MultiBeneficiary.sol\":422:439  _beneficiaries[i] */\n  dup2\n  mload\n  dup2\n  lt\n  tag_9\n  jumpi\n  tag_10\n  tag_11\n  jump\t// in\ntag_10:\ntag_9:\n  0x20\n  mul\n  0x20\n  add\n  add\n  mload\n    /* \"contracts/MultiBeneficiary.sol\":395:441  beneficiaries.push(payable(_beneficiaries[i])) */\n  swap1\n  dup1\n  0x01\n  dup2\n  sload\n  add\n  dup1\n  dup3\n  sstore\n  dup1\n  swap2\n  pop\n  pop\n  0x01\n  swap1\n  sub\n  swap1\n  0x00\n  mstore\n  keccak256(0x00, 0x20)\n  add\n  0x00\n  swap1\n  swap2\n  swap1\n  swap2\n  swap1\n  swap2\n  0x0100\n  exp\n  dup2\n  sload\n  dup2\n  0xffffffffffffffffffffffffffffffffffffffff\n  mul\n  not\n  and\n  swap1\n  dup4\n  0xffffffffffffffffffffffffffffffffffffffff\n  and\n  mul\n  or\n  swap1\n  sstore\n  pop\n    /* \"contracts/MultiBeneficiary.sol\":315:318  i++ */\n  dup1\n  dup1\n  0x01\n  add\n  swap2\n  pop\n  pop\n    /* \"contracts/MultiBeneficiary.sol\":268:452  for (uint256 i = 0; i < _beneficiaries.length; i++) {... */\n  jump(tag_6)\ntag_7:\n  pop\n    /* \"contracts/MultiBeneficiary.sol\":213:458  constructor(address[] memory _beneficiaries) {... */\n  pop\n    /* \"contracts/MultiBeneficiary.sol\":57:1168  contract MultiBeneficiary {... */\n  jump(tag_13)\n    /* \"#utility.yul\":7:82   */\ntag_14:\n    /* \"#utility.yul\":40:46   */\n  0x00\n    /* \"#utility.yul\":73:75   */\n  0x40\n    /* \"#utility.yul\":67:76   */\n  mload\n    /* \"#utility.yul\":57:76   */\n  swap1\n  pop\n    /* \"#utility.yul\":7:82   */\n  swap1\n  jump\t// out\n    /* \"#utility.yul\":88:205   */\ntag_15:\n    /* \"#utility.yul\":197:198   */\n  0x00\n    /* \"#utility.yul\":194:195   */\n  dup1\n    /* \"#utility.yul\":187:199   */\n  revert\n    /* \"#utility.yul\":211:328   */\ntag_16:\n    /* \"#utility.yul\":320:321   */\n  0x00\n    /* \"#utility.yul\":317:318   */\n  dup1\n    /* \"#utility.yul\":310:322   */\n  revert\n    /* \"#utility.yul\":334:451   */\ntag_17:\n    /* \"#utility.yul\":443:444   */\n  0x00\n    /* \"#utility.yul\":440:441   */\n  dup1\n    /* \"#utility.yul\":433:445   */\n  revert\n    /* \"#utility.yul\":457:559   */\ntag_18:\n    /* \"#utility.yul\":498:504   */\n  0x00\n    /* \"#utility.yul\":549:551   */\n  0x1f\n    /* \"#utility.yul\":545:552   */\n  not\n    /* \"#utility.yul\":540:542   */\n  0x1f\n    /* \"#utility.yul\":533:538   */\n  dup4\n    /* \"#utility.yul\":529:543   */\n  add\n    /* \"#utility.yul\":525:553   */\n  and\n    /* \"#utility.yul\":515:553   */\n  swap1\n  pop\n    /* \"#utility.yul\":457:559   */\n  swap2\n  swap1\n  pop\n  jump\t// out\n    /* \"#utility.yul\":565:745   */\ntag_19:\n    /* \"#utility.yul\":613:690   */\n  0x4e487b7100000000000000000000000000000000000000000000000000000000\n    /* \"#utility.yul\":610:611   */\n  0x00\n    /* \"#utility.yul\":603:691   */\n  mstore\n    /* \"#utility.yul\":710:714   */\n  0x41\n    /* \"#utility.yul\":707:708   */\n  0x04\n    /* \"#utility.yul\":700:715   */\n  mstore\n    /* \"#utility.yul\":734:738   */\n  0x24\n    /* \"#utility.yul\":731:732   */\n  0x00\n    /* \"#utility.yul\":724:739   */\n  revert\n    /* \"#utility.yul\":751:1032   */\ntag_20:\n    /* \"#utility.yul\":834:861   */\n  tag_38\n    /* \"#utility.yul\":856:860   */\n  dup3\n    /* \"#utility.yul\":834:861   */\n  tag_18\n  jump\t// in\ntag_38:\n    /* \"#utility.yul\":826:832   */\n  dup2\n    /* \"#utility.yul\":822:862   */\n  add\n    /* \"#utility.yul\":964:970   */\n  dup2\n    /* \"#utility.yul\":952:962   */\n  dup2\n    /* \"#utility.yul\":949:971   */\n  lt\n    /* \"#utility.yul\":928:946   */\n  0xffffffffffffffff\n    /* \"#utility.yul\":916:926   */\n  dup3\n    /* \"#utility.yul\":913:947   */\n  gt\n    /* \"#utility.yul\":910:972   */\n  or\n    /* \"#utility.yul\":907:995   */\n  iszero\n  tag_39\n  jumpi\n    /* \"#utility.yul\":975:993   */\n  tag_40\n  tag_19\n  jump\t// in\ntag_40:\n    /* \"#utility.yul\":907:995   */\ntag_39:\n    /* \"#utility.yul\":1015:1025   */\n  dup1\n    /* \"#utility.yul\":1011:1013   */\n  0x40\n    /* \"#utility.yul\":1004:1026   */\n  mstore\n    /* \"#utility.yul\":794:1032   */\n  pop\n    /* \"#utility.yul\":751:1032   */\n  pop\n  pop\n  jump\t// out\n    /* \"#utility.yul\":1038:1167   */\ntag_21:\n    /* \"#utility.yul\":1072:1078   */\n  0x00\n    /* \"#utility.yul\":1099:1119   */\n  tag_42\n  tag_14\n  jump\t// in\ntag_42:\n    /* \"#utility.yul\":1089:1119   */\n  swap1\n  pop\n    /* \"#utility.yul\":1128:1161   */\n  tag_43\n    /* \"#utility.yul\":1156:1160   */\n  dup3\n    /* \"#utility.yul\":1148:1154   */\n  dup3\n    /* \"#utility.yul\":1128:1161   */\n  tag_20\n  jump\t// in\ntag_43:\n    /* \"#utility.yul\":1038:1167   */\n  swap2\n  swap1\n  pop\n  jump\t// out\n    /* \"#utility.yul\":1173:1484   */\ntag_22:\n    /* \"#utility.yul\":1250:1254   */\n  0x00\n    /* \"#utility.yul\":1340:1358   */\n  0xffffffffffffffff\n    /* \"#utility.yul\":1332:1338   */\n  dup3\n    /* \"#utility.yul\":1329:1359   */\n  gt\n    /* \"#utility.yul\":1326:1382   */\n  iszero\n  tag_45\n  jumpi\n    /* \"#utility.yul\":1362:1380   */\n  tag_46\n  tag_19\n  jump\t// in\ntag_46:\n    /* \"#utility.yul\":1326:1382   */\ntag_45:\n    /* \"#utility.yul\":1412:1416   */\n  0x20\n    /* \"#utility.yul\":1404:1410   */\n  dup3\n    /* \"#utility.yul\":1400:1417   */\n  mul\n    /* \"#utility.yul\":1392:1417   */\n  swap1\n  pop\n    /* \"#utility.yul\":1472:1476   */\n  0x20\n    /* \"#utility.yul\":1466:1470   */\n  dup2\n    /* \"#utility.yul\":1462:1477   */\n  add\n    /* \"#utility.yul\":1454:1477   */\n  swap1\n  pop\n    /* \"#utility.yul\":1173:1484   */\n  swap2\n  swap1\n  pop\n  jump\t// out\n    /* \"#utility.yul\":1490:1607   */\ntag_23:\n    /* \"#utility.yul\":1599:1600   */\n  0x00\n    /* \"#utility.yul\":1596:1597   */\n  dup1\n    /* \"#utility.yul\":1589:1601   */\n  revert\n    /* \"#utility.yul\":1613:1739   */\ntag_24:\n    /* \"#utility.yul\":1650:1657   */\n  0x00\n    /* \"#utility.yul\":1690:1732   */\n  0xffffffffffffffffffffffffffffffffffffffff\n    /* \"#utility.yul\":1683:1688   */\n  dup3\n    /* \"#utility.yul\":1679:1733   */\n  and\n    /* \"#utility.yul\":1668:1733   */\n  swap1\n  pop\n    /* \"#utility.yul\":1613:1739   */\n  swap2\n  swap1\n  pop\n  jump\t// out\n    /* \"#utility.yul\":1745:1841   */\ntag_25:\n    /* \"#utility.yul\":1782:1789   */\n  0x00\n    /* \"#utility.yul\":1811:1835   */\n  tag_50\n    /* \"#utility.yul\":1829:1834   */\n  dup3\n    /* \"#utility.yul\":1811:1835   */\n  tag_24\n  jump\t// in\ntag_50:\n    /* \"#utility.yul\":1800:1835   */\n  swap1\n  pop\n    /* \"#utility.yul\":1745:1841   */\n  swap2\n  swap1\n  pop\n  jump\t// out\n    /* \"#utility.yul\":1847:1969   */\ntag_26:\n    /* \"#utility.yul\":1920:1944   */\n  tag_52\n    /* \"#utility.yul\":1938:1943   */\n  dup2\n    /* \"#utility.yul\":1920:1944   */\n  tag_25\n  jump\t// in\ntag_52:\n    /* \"#utility.yul\":1913:1918   */\n  dup2\n    /* \"#utility.yul\":1910:1945   */\n  eq\n    /* \"#utility.yul\":1900:1963   */\n  tag_53\n  jumpi\n    /* \"#utility.yul\":1959:1960   */\n  0x00\n    /* \"#utility.yul\":1956:1957   */\n  dup1\n    /* \"#utility.yul\":1949:1961   */\n  revert\n    /* \"#utility.yul\":1900:1963   */\ntag_53:\n    /* \"#utility.yul\":1847:1969   */\n  pop\n  jump\t// out\n    /* \"#utility.yul\":1975:2118   */\ntag_27:\n    /* \"#utility.yul\":2032:2037   */\n  0x00\n    /* \"#utility.yul\":2063:2069   */\n  dup2\n    /* \"#utility.yul\":2057:2070   */\n  mload\n    /* \"#utility.yul\":2048:2070   */\n  swap1\n  pop\n    /* \"#utility.yul\":2079:2112   */\n  tag_55\n    /* \"#utility.yul\":2106:2111   */\n  dup2\n    /* \"#utility.yul\":2079:2112   */\n  tag_26\n  jump\t// in\ntag_55:\n    /* \"#utility.yul\":1975:2118   */\n  swap3\n  swap2\n  pop\n  pop\n  jump\t// out\n    /* \"#utility.yul\":2141:2873   */\ntag_28:\n    /* \"#utility.yul\":2248:2253   */\n  0x00\n    /* \"#utility.yul\":2273:2354   */\n  tag_57\n    /* \"#utility.yul\":2289:2353   */\n  tag_58\n    /* \"#utility.yul\":2346:2352   */\n  dup5\n    /* \"#utility.yul\":2289:2353   */\n  tag_22\n  jump\t// in\ntag_58:\n    /* \"#utility.yul\":2273:2354   */\n  tag_21\n  jump\t// in\ntag_57:\n    /* \"#utility.yul\":2264:2354   */\n  swap1\n  pop\n    /* \"#utility.yul\":2374:2379   */\n  dup1\n    /* \"#utility.yul\":2403:2409   */\n  dup4\n    /* \"#utility.yul\":2396:2401   */\n  dup3\n    /* \"#utility.yul\":2389:2410   */\n  mstore\n    /* \"#utility.yul\":2437:2441   */\n  0x20\n    /* \"#utility.yul\":2430:2435   */\n  dup3\n    /* \"#utility.yul\":2426:2442   */\n  add\n    /* \"#utility.yul\":2419:2442   */\n  swap1\n  pop\n    /* \"#utility.yul\":2490:2494   */\n  0x20\n    /* \"#utility.yul\":2482:2488   */\n  dup5\n    /* \"#utility.yul\":2478:2495   */\n  mul\n    /* \"#utility.yul\":2470:2476   */\n  dup4\n    /* \"#utility.yul\":2466:2496   */\n  add\n    /* \"#utility.yul\":2519:2522   */\n  dup6\n    /* \"#utility.yul\":2511:2517   */\n  dup2\n    /* \"#utility.yul\":2508:2523   */\n  gt\n    /* \"#utility.yul\":2505:2627   */\n  iszero\n  tag_59\n  jumpi\n    /* \"#utility.yul\":2538:2617   */\n  tag_60\n  tag_23\n  jump\t// in\ntag_60:\n    /* \"#utility.yul\":2505:2627   */\ntag_59:\n    /* \"#utility.yul\":2653:2659   */\n  dup4\n    /* \"#utility.yul\":2636:2867   */\ntag_61:\n    /* \"#utility.yul\":2670:2676   */\n  dup2\n    /* \"#utility.yul\":2665:2668   */\n  dup2\n    /* \"#utility.yul\":2662:2677   */\n  lt\n    /* \"#utility.yul\":2636:2867   */\n  iszero\n  tag_63\n  jumpi\n    /* \"#utility.yul\":2745:2748   */\n  dup1\n    /* \"#utility.yul\":2774:2822   */\n  tag_64\n    /* \"#utility.yul\":2818:2821   */\n  dup9\n    /* \"#utility.yul\":2806:2816   */\n  dup3\n    /* \"#utility.yul\":2774:2822   */\n  tag_27\n  jump\t// in\ntag_64:\n    /* \"#utility.yul\":2769:2772   */\n  dup5\n    /* \"#utility.yul\":2762:2823   */\n  mstore\n    /* \"#utility.yul\":2852:2856   */\n  0x20\n    /* \"#utility.yul\":2847:2850   */\n  dup5\n    /* \"#utility.yul\":2843:2857   */\n  add\n    /* \"#utility.yul\":2836:2857   */\n  swap4\n  pop\n    /* \"#utility.yul\":2712:2867   */\n  pop\n    /* \"#utility.yul\":2696:2700   */\n  0x20\n    /* \"#utility.yul\":2691:2694   */\n  dup2\n    /* \"#utility.yul\":2687:2701   */\n  add\n    /* \"#utility.yul\":2680:2701   */\n  swap1\n  pop\n    /* \"#utility.yul\":2636:2867   */\n  jump(tag_61)\ntag_63:\n    /* \"#utility.yul\":2640:2661   */\n  pop\n    /* \"#utility.yul\":2254:2873   */\n  pop\n  pop\n    /* \"#utility.yul\":2141:2873   */\n  swap4\n  swap3\n  pop\n  pop\n  pop\n  jump\t// out\n    /* \"#utility.yul\":2896:3281   */\ntag_29:\n    /* \"#utility.yul\":2978:2983   */\n  0x00\n    /* \"#utility.yul\":3027:3030   */\n  dup3\n    /* \"#utility.yul\":3020:3024   */\n  0x1f\n    /* \"#utility.yul\":3012:3018   */\n  dup4\n    /* \"#utility.yul\":3008:3025   */\n  add\n    /* \"#utility.yul\":3004:3031   */\n  slt\n    /* \"#utility.yul\":2994:3116   */\n  tag_66\n  jumpi\n    /* \"#utility.yul\":3035:3114   */\n  tag_67\n  tag_17\n  jump\t// in\ntag_67:\n    /* \"#utility.yul\":2994:3116   */\ntag_66:\n    /* \"#utility.yul\":3145:3151   */\n  dup2\n    /* \"#utility.yul\":3139:3152   */\n  mload\n    /* \"#utility.yul\":3170:3275   */\n  tag_68\n    /* \"#utility.yul\":3271:3274   */\n  dup5\n    /* \"#utility.yul\":3263:3269   */\n  dup3\n    /* \"#utility.yul\":3256:3260   */\n  0x20\n    /* \"#utility.yul\":3248:3254   */\n  dup7\n    /* \"#utility.yul\":3244:3261   */\n  add\n    /* \"#utility.yul\":3170:3275   */\n  tag_28\n  jump\t// in\ntag_68:\n    /* \"#utility.yul\":3161:3275   */\n  swap2\n  pop\n    /* \"#utility.yul\":2984:3281   */\n  pop\n    /* \"#utility.yul\":2896:3281   */\n  swap3\n  swap2\n  pop\n  pop\n  jump\t// out\n    /* \"#utility.yul\":3287:3841   */\ntag_3:\n    /* \"#utility.yul\":3382:3388   */\n  0x00\n    /* \"#utility.yul\":3431:3433   */\n  0x20\n    /* \"#utility.yul\":3419:3428   */\n  dup3\n    /* \"#utility.yul\":3410:3417   */\n  dup5\n    /* \"#utility.yul\":3406:3429   */\n  sub\n    /* \"#utility.yul\":3402:3434   */\n  slt\n    /* \"#utility.yul\":3399:3518   */\n  iszero\n  tag_70\n  jumpi\n    /* \"#utility.yul\":3437:3516   */\n  tag_71\n  tag_15\n  jump\t// in\ntag_71:\n    /* \"#utility.yul\":3399:3518   */\ntag_70:\n    /* \"#utility.yul\":3578:3579   */\n  0x00\n    /* \"#utility.yul\":3567:3576   */\n  dup3\n    /* \"#utility.yul\":3563:3580   */\n  add\n    /* \"#utility.yul\":3557:3581   */\n  mload\n    /* \"#utility.yul\":3608:3626   */\n  0xffffffffffffffff\n    /* \"#utility.yul\":3600:3606   */\n  dup2\n    /* \"#utility.yul\":3597:3627   */\n  gt\n    /* \"#utility.yul\":3594:3711   */\n  iszero\n  tag_72\n  jumpi\n    /* \"#utility.yul\":3630:3709   */\n  tag_73\n  tag_16\n  jump\t// in\ntag_73:\n    /* \"#utility.yul\":3594:3711   */\ntag_72:\n    /* \"#utility.yul\":3735:3824   */\n  tag_74\n    /* \"#utility.yul\":3816:3823   */\n  dup5\n    /* \"#utility.yul\":3807:3813   */\n  dup3\n    /* \"#utility.yul\":3796:3805   */\n  dup6\n    /* \"#utility.yul\":3792:3814   */\n  add\n    /* \"#utility.yul\":3735:3824   */\n  tag_29\n  jump\t// in\ntag_74:\n    /* \"#utility.yul\":3725:3824   */\n  swap2\n  pop\n    /* \"#utility.yul\":3528:3834   */\n  pop\n    /* \"#utility.yul\":3287:3841   */\n  swap3\n  swap2\n  pop\n  pop\n  jump\t// out\n    /* \"#utility.yul\":3847:4027   */\ntag_11:\n    /* \"#utility.yul\":3895:3972   */\n  0x4e487b7100000000000000000000000000000000000000000000000000000000\n    /* \"#utility.yul\":3892:3893   */\n  0x00\n    /* \"#utility.yul\":3885:3973   */\n  mstore\n    /* \"#utility.yul\":3992:3996   */\n  0x32\n    /* \"#utility.yul\":3989:3990   */\n  0x04\n    /* \"#utility.yul\":3982:3997   */\n  mstore\n    /* \"#utility.yul\":4016:4020   */\n  0x24\n    /* \"#utility.yul\":4013:4014   */\n  0x00\n    /* \"#utility.yul\":4006:4021   */\n  revert\n    /* \"contracts/MultiBeneficiary.sol\":57:1168  contract MultiBeneficiary {... */\ntag_13:\n  dataSize(sub_0)\n  dup1\n  dataOffset(sub_0)\n  0x00\n  codecopy\n  0x00\n  return\nstop\n\nsub_0: assembly {\n        /* \"contracts/MultiBeneficiary.sol\":57:1168  contract MultiBeneficiary {... */\n      mstore(0x40, 0x80)\n      jumpi(tag_1, lt(calldatasize, 0x04))\n      shr(0xe0, calldataload(0x00))\n      dup1\n      0x913b722c\n      eq\n      tag_3\n      jumpi\n      dup1\n      0xefeb5e58\n      eq\n      tag_4\n      jumpi\n      dup1\n      0xf726f715\n      eq\n      tag_5\n      jumpi\n      jump(tag_2)\n    tag_1:\n      jumpi(tag_2, calldatasize)\n        /* \"contracts/MultiBeneficiary.sol\":1030:1066  FundsReceived(msg.sender, msg.value) */\n      0x8e47b87b0ef542cdfa1659c551d88bad38aa7f452d2bbb349ab7530dfec8be8f\n        /* \"contracts/MultiBeneficiary.sol\":1044:1054  msg.sender */\n      caller\n        /* \"contracts/MultiBeneficiary.sol\":1056:1065  msg.value */\n      callvalue\n        /* \"contracts/MultiBeneficiary.sol\":1030:1066  FundsReceived(msg.sender, msg.value) */\n      mload(0x40)\n      tag_8\n      swap3\n      swap2\n      swap1\n      tag_9\n      jump\t// in\n    tag_8:\n      mload(0x40)\n      dup1\n      swap2\n      sub\n      swap1\n      log1\n        /* \"contracts/MultiBeneficiary.sol\":57:1168  contract MultiBeneficiary {... */\n      stop\n    tag_2:\n      0x00\n      dup1\n      revert\n        /* \"contracts/MultiBeneficiary.sol\":811:924  function getBeneficiaries() public view returns (address payable [] memory) {... */\n    tag_3:\n      callvalue\n      dup1\n      iszero\n      tag_10\n      jumpi\n      0x00\n      dup1\n      revert\n    tag_10:\n      pop\n      tag_11\n      tag_12\n      jump\t// in\n    tag_11:\n      mload(0x40)\n      tag_13\n      swap2\n      swap1\n      tag_14\n      jump\t// in\n    tag_13:\n      mload(0x40)\n      dup1\n      swap2\n      sub\n      swap1\n      return\n        /* \"contracts/MultiBeneficiary.sol\":90:128  address payable[] public beneficiaries */\n    tag_4:\n      callvalue\n      dup1\n      iszero\n      tag_15\n      jumpi\n      0x00\n      dup1\n      revert\n    tag_15:\n      pop\n      tag_16\n      0x04\n      dup1\n      calldatasize\n      sub\n      dup2\n      add\n      swap1\n      tag_17\n      swap2\n      swap1\n      tag_18\n      jump\t// in\n    tag_17:\n      tag_19\n      jump\t// in\n    tag_16:\n      mload(0x40)\n      tag_20\n      swap2\n      swap1\n      tag_21\n      jump\t// in\n    tag_20:\n      mload(0x40)\n      dup1\n      swap2\n      sub\n      swap1\n      return\n        /* \"contracts/MultiBeneficiary.sol\":489:784  function distributeFunds(uint256 totalAmount) public {... */\n    tag_5:\n      callvalue\n      dup1\n      iszero\n      tag_22\n      jumpi\n      0x00\n      dup1\n      revert\n    tag_22:\n      pop\n      tag_23\n      0x04\n      dup1\n      calldatasize\n      sub\n      dup2\n      add\n      swap1\n      tag_24\n      swap2\n      swap1\n      tag_18\n      jump\t// in\n    tag_24:\n      tag_25\n      jump\t// in\n    tag_23:\n      stop\n        /* \"contracts/MultiBeneficiary.sol\":811:924  function getBeneficiaries() public view returns (address payable [] memory) {... */\n    tag_12:\n        /* \"contracts/MultiBeneficiary.sol\":860:885  address payable [] memory */\n      0x60\n        /* \"contracts/MultiBeneficiary.sol\":904:917  beneficiaries */\n      0x00\n        /* \"contracts/MultiBeneficiary.sol\":897:917  return beneficiaries */\n      dup1\n      sload\n      dup1\n      0x20\n      mul\n      0x20\n      add\n      mload(0x40)\n      swap1\n      dup2\n      add\n      0x40\n      mstore\n      dup1\n      swap3\n      swap2\n      swap1\n      dup2\n      dup2\n      mstore\n      0x20\n      add\n      dup3\n      dup1\n      sload\n      dup1\n      iszero\n      tag_27\n      jumpi\n      0x20\n      mul\n      dup3\n      add\n      swap2\n      swap1\n      0x00\n      mstore\n      keccak256(0x00, 0x20)\n      swap1\n    tag_28:\n      dup2\n      0x00\n      swap1\n      sload\n      swap1\n      0x0100\n      exp\n      swap1\n      div\n      0xffffffffffffffffffffffffffffffffffffffff\n      and\n      0xffffffffffffffffffffffffffffffffffffffff\n      and\n      dup2\n      mstore\n      0x20\n      add\n      swap1\n      0x01\n      add\n      swap1\n      dup1\n      dup4\n      gt\n      tag_28\n      jumpi\n    tag_27:\n      pop\n      pop\n      pop\n      pop\n      pop\n      swap1\n      pop\n        /* \"contracts/MultiBeneficiary.sol\":811:924  function getBeneficiaries() public view returns (address payable [] memory) {... */\n      swap1\n      jump\t// out\n        /* \"contracts/MultiBeneficiary.sol\":90:128  address payable[] public beneficiaries */\n    tag_19:\n      0x00\n      dup2\n      dup2\n      sload\n      dup2\n      lt\n      tag_29\n      jumpi\n      0x00\n      dup1\n      revert\n    tag_29:\n      swap1\n      0x00\n      mstore\n      keccak256(0x00, 0x20)\n      add\n      0x00\n      swap2\n      pop\n      sload\n      swap1\n      0x0100\n      exp\n      swap1\n      div\n      0xffffffffffffffffffffffffffffffffffffffff\n      and\n      dup2\n      jump\t// out\n        /* \"contracts/MultiBeneficiary.sol\":489:784  function distributeFunds(uint256 totalAmount) public {... */\n    tag_25:\n        /* \"contracts/MultiBeneficiary.sol\":552:566  uint256 amount */\n      0x00\n        /* \"contracts/MultiBeneficiary.sol\":583:596  beneficiaries */\n      dup1\n        /* \"contracts/MultiBeneficiary.sol\":583:603  beneficiaries.length */\n      dup1\n      sload\n      swap1\n      pop\n        /* \"contracts/MultiBeneficiary.sol\":569:580  totalAmount */\n      dup3\n        /* \"contracts/MultiBeneficiary.sol\":569:603  totalAmount / beneficiaries.length */\n      tag_32\n      swap2\n      swap1\n      tag_33\n      jump\t// in\n    tag_32:\n        /* \"contracts/MultiBeneficiary.sol\":552:603  uint256 amount = totalAmount / beneficiaries.length */\n      swap1\n      pop\n        /* \"contracts/MultiBeneficiary.sol\":619:628  uint256 i */\n      0x00\n        /* \"contracts/MultiBeneficiary.sol\":614:723  for (uint256 i = 0; i < beneficiaries.length; i++) {... */\n    tag_34:\n        /* \"contracts/MultiBeneficiary.sol\":638:651  beneficiaries */\n      0x00\n        /* \"contracts/MultiBeneficiary.sol\":638:658  beneficiaries.length */\n      dup1\n      sload\n      swap1\n      pop\n        /* \"contracts/MultiBeneficiary.sol\":634:635  i */\n      dup2\n        /* \"contracts/MultiBeneficiary.sol\":634:658  i < beneficiaries.length */\n      lt\n        /* \"contracts/MultiBeneficiary.sol\":614:723  for (uint256 i = 0; i < beneficiaries.length; i++) {... */\n      iszero\n      tag_35\n      jumpi\n        /* \"contracts/MultiBeneficiary.sol\":679:692  beneficiaries */\n      0x00\n        /* \"contracts/MultiBeneficiary.sol\":693:694  i */\n      dup2\n        /* \"contracts/MultiBeneficiary.sol\":679:695  beneficiaries[i] */\n      dup2\n      sload\n      dup2\n      lt\n      tag_37\n      jumpi\n      tag_38\n      tag_39\n      jump\t// in\n    tag_38:\n    tag_37:\n      swap1\n      0x00\n      mstore\n      keccak256(0x00, 0x20)\n      add\n      0x00\n      swap1\n      sload\n      swap1\n      0x0100\n      exp\n      swap1\n      div\n      0xffffffffffffffffffffffffffffffffffffffff\n      and\n        /* \"contracts/MultiBeneficiary.sol\":679:704  beneficiaries[i].transfer */\n      0xffffffffffffffffffffffffffffffffffffffff\n      and\n        /* \"contracts/MultiBeneficiary.sol\":679:712  beneficiaries[i].transfer(amount) */\n      0x08fc\n        /* \"contracts/MultiBeneficiary.sol\":705:711  amount */\n      dup4\n        /* \"contracts/MultiBeneficiary.sol\":679:712  beneficiaries[i].transfer(amount) */\n      swap1\n      dup2\n      iszero\n      mul\n      swap1\n      mload(0x40)\n      0x00\n      mload(0x40)\n      dup1\n      dup4\n      sub\n      dup2\n      dup6\n      dup9\n      dup9\n      call\n      swap4\n      pop\n      pop\n      pop\n      pop\n      iszero\n      dup1\n      iszero\n      tag_42\n      jumpi\n      returndatasize\n      0x00\n      dup1\n      returndatacopy\n      revert(0x00, returndatasize)\n    tag_42:\n      pop\n        /* \"contracts/MultiBeneficiary.sol\":660:663  i++ */\n      dup1\n      dup1\n      0x01\n      add\n      swap2\n      pop\n      pop\n        /* \"contracts/MultiBeneficiary.sol\":614:723  for (uint256 i = 0; i < beneficiaries.length; i++) {... */\n      jump(tag_34)\n    tag_35:\n      pop\n        /* \"contracts/MultiBeneficiary.sol\":738:777  FundsDistributed(beneficiaries, amount) */\n      0x05723d08be3077fdb9e2a8cd075cd2eb73ab2d7a325e9702b8d31f7d45d95637\n        /* \"contracts/MultiBeneficiary.sol\":755:768  beneficiaries */\n      0x00\n        /* \"contracts/MultiBeneficiary.sol\":770:776  amount */\n      dup3\n        /* \"contracts/MultiBeneficiary.sol\":738:777  FundsDistributed(beneficiaries, amount) */\n      mload(0x40)\n      tag_43\n      swap3\n      swap2\n      swap1\n      tag_44\n      jump\t// in\n    tag_43:\n      mload(0x40)\n      dup1\n      swap2\n      sub\n      swap1\n      log1\n        /* \"contracts/MultiBeneficiary.sol\":542:784  {... */\n      pop\n        /* \"contracts/MultiBeneficiary.sol\":489:784  function distributeFunds(uint256 totalAmount) public {... */\n      pop\n      jump\t// out\n        /* \"#utility.yul\":7:133   */\n    tag_45:\n        /* \"#utility.yul\":44:51   */\n      0x00\n        /* \"#utility.yul\":84:126   */\n      0xffffffffffffffffffffffffffffffffffffffff\n        /* \"#utility.yul\":77:82   */\n      dup3\n        /* \"#utility.yul\":73:127   */\n      and\n        /* \"#utility.yul\":62:127   */\n      swap1\n      pop\n        /* \"#utility.yul\":7:133   */\n      swap2\n      swap1\n      pop\n      jump\t// out\n        /* \"#utility.yul\":139:235   */\n    tag_46:\n        /* \"#utility.yul\":176:183   */\n      0x00\n        /* \"#utility.yul\":205:229   */\n      tag_77\n        /* \"#utility.yul\":223:228   */\n      dup3\n        /* \"#utility.yul\":205:229   */\n      tag_45\n      jump\t// in\n    tag_77:\n        /* \"#utility.yul\":194:229   */\n      swap1\n      pop\n        /* \"#utility.yul\":139:235   */\n      swap2\n      swap1\n      pop\n      jump\t// out\n        /* \"#utility.yul\":241:359   */\n    tag_47:\n        /* \"#utility.yul\":328:352   */\n      tag_79\n        /* \"#utility.yul\":346:351   */\n      dup2\n        /* \"#utility.yul\":328:352   */\n      tag_46\n      jump\t// in\n    tag_79:\n        /* \"#utility.yul\":323:326   */\n      dup3\n        /* \"#utility.yul\":316:353   */\n      mstore\n        /* \"#utility.yul\":241:359   */\n      pop\n      pop\n      jump\t// out\n        /* \"#utility.yul\":365:442   */\n    tag_48:\n        /* \"#utility.yul\":402:409   */\n      0x00\n        /* \"#utility.yul\":431:436   */\n      dup2\n        /* \"#utility.yul\":420:436   */\n      swap1\n      pop\n        /* \"#utility.yul\":365:442   */\n      swap2\n      swap1\n      pop\n      jump\t// out\n        /* \"#utility.yul\":448:566   */\n    tag_49:\n        /* \"#utility.yul\":535:559   */\n      tag_82\n        /* \"#utility.yul\":553:558   */\n      dup2\n        /* \"#utility.yul\":535:559   */\n      tag_48\n      jump\t// in\n    tag_82:\n        /* \"#utility.yul\":530:533   */\n      dup3\n        /* \"#utility.yul\":523:560   */\n      mstore\n        /* \"#utility.yul\":448:566   */\n      pop\n      pop\n      jump\t// out\n        /* \"#utility.yul\":572:904   */\n    tag_9:\n        /* \"#utility.yul\":693:697   */\n      0x00\n        /* \"#utility.yul\":731:733   */\n      0x40\n        /* \"#utility.yul\":720:729   */\n      dup3\n        /* \"#utility.yul\":716:734   */\n      add\n        /* \"#utility.yul\":708:734   */\n      swap1\n      pop\n        /* \"#utility.yul\":744:815   */\n      tag_84\n        /* \"#utility.yul\":812:813   */\n      0x00\n        /* \"#utility.yul\":801:810   */\n      dup4\n        /* \"#utility.yul\":797:814   */\n      add\n        /* \"#utility.yul\":788:794   */\n      dup6\n        /* \"#utility.yul\":744:815   */\n      tag_47\n      jump\t// in\n    tag_84:\n        /* \"#utility.yul\":825:897   */\n      tag_85\n        /* \"#utility.yul\":893:895   */\n      0x20\n        /* \"#utility.yul\":882:891   */\n      dup4\n        /* \"#utility.yul\":878:896   */\n      add\n        /* \"#utility.yul\":869:875   */\n      dup5\n        /* \"#utility.yul\":825:897   */\n      tag_49\n      jump\t// in\n    tag_85:\n        /* \"#utility.yul\":572:904   */\n      swap4\n      swap3\n      pop\n      pop\n      pop\n      jump\t// out\n        /* \"#utility.yul\":910:1032   */\n    tag_50:\n        /* \"#utility.yul\":985:991   */\n      0x00\n        /* \"#utility.yul\":1019:1024   */\n      dup2\n        /* \"#utility.yul\":1013:1025   */\n      mload\n        /* \"#utility.yul\":1003:1025   */\n      swap1\n      pop\n        /* \"#utility.yul\":910:1032   */\n      swap2\n      swap1\n      pop\n      jump\t// out\n        /* \"#utility.yul\":1038:1230   */\n    tag_51:\n        /* \"#utility.yul\":1145:1156   */\n      0x00\n        /* \"#utility.yul\":1179:1185   */\n      dup3\n        /* \"#utility.yul\":1174:1177   */\n      dup3\n        /* \"#utility.yul\":1167:1186   */\n      mstore\n        /* \"#utility.yul\":1219:1223   */\n      0x20\n        /* \"#utility.yul\":1214:1217   */\n      dup3\n        /* \"#utility.yul\":1210:1224   */\n      add\n        /* \"#utility.yul\":1195:1224   */\n      swap1\n      pop\n        /* \"#utility.yul\":1038:1230   */\n      swap3\n      swap2\n      pop\n      pop\n      jump\t// out\n        /* \"#utility.yul\":1236:1376   */\n    tag_52:\n        /* \"#utility.yul\":1311:1315   */\n      0x00\n        /* \"#utility.yul\":1334:1337   */\n      dup2\n        /* \"#utility.yul\":1326:1337   */\n      swap1\n      pop\n        /* \"#utility.yul\":1364:1368   */\n      0x20\n        /* \"#utility.yul\":1359:1362   */\n      dup3\n        /* \"#utility.yul\":1355:1369   */\n      add\n        /* \"#utility.yul\":1347:1369   */\n      swap1\n      pop\n        /* \"#utility.yul\":1236:1376   */\n      swap2\n      swap1\n      pop\n      jump\t// out\n        /* \"#utility.yul\":1382:1486   */\n    tag_53:\n        /* \"#utility.yul\":1427:1434   */\n      0x00\n        /* \"#utility.yul\":1456:1480   */\n      tag_90\n        /* \"#utility.yul\":1474:1479   */\n      dup3\n        /* \"#utility.yul\":1456:1480   */\n      tag_45\n      jump\t// in\n    tag_90:\n        /* \"#utility.yul\":1445:1480   */\n      swap1\n      pop\n        /* \"#utility.yul\":1382:1486   */\n      swap2\n      swap1\n      pop\n      jump\t// out\n        /* \"#utility.yul\":1492:1624   */\n    tag_54:\n        /* \"#utility.yul\":1585:1617   */\n      tag_92\n        /* \"#utility.yul\":1611:1616   */\n      dup2\n        /* \"#utility.yul\":1585:1617   */\n      tag_53\n      jump\t// in\n    tag_92:\n        /* \"#utility.yul\":1580:1583   */\n      dup3\n        /* \"#utility.yul\":1573:1618   */\n      mstore\n        /* \"#utility.yul\":1492:1624   */\n      pop\n      pop\n      jump\t// out\n        /* \"#utility.yul\":1630:1841   */\n    tag_55:\n        /* \"#utility.yul\":1715:1725   */\n      0x00\n        /* \"#utility.yul\":1736:1798   */\n      tag_94\n        /* \"#utility.yul\":1794:1797   */\n      dup4\n        /* \"#utility.yul\":1786:1792   */\n      dup4\n        /* \"#utility.yul\":1736:1798   */\n      tag_54\n      jump\t// in\n    tag_94:\n        /* \"#utility.yul\":1830:1834   */\n      0x20\n        /* \"#utility.yul\":1825:1828   */\n      dup4\n        /* \"#utility.yul\":1821:1835   */\n      add\n        /* \"#utility.yul\":1807:1835   */\n      swap1\n      pop\n        /* \"#utility.yul\":1630:1841   */\n      swap3\n      swap2\n      pop\n      pop\n      jump\t// out\n        /* \"#utility.yul\":1847:1968   */\n    tag_56:\n        /* \"#utility.yul\":1925:1929   */\n      0x00\n        /* \"#utility.yul\":1957:1961   */\n      0x20\n        /* \"#utility.yul\":1952:1955   */\n      dup3\n        /* \"#utility.yul\":1948:1962   */\n      add\n        /* \"#utility.yul\":1940:1962   */\n      swap1\n      pop\n        /* \"#utility.yul\":1847:1968   */\n      swap2\n      swap1\n      pop\n      jump\t// out\n        /* \"#utility.yul\":2020:2816   */\n    tag_57:\n        /* \"#utility.yul\":2155:2158   */\n      0x00\n        /* \"#utility.yul\":2184:2246   */\n      tag_97\n        /* \"#utility.yul\":2240:2245   */\n      dup3\n        /* \"#utility.yul\":2184:2246   */\n      tag_50\n      jump\t// in\n    tag_97:\n        /* \"#utility.yul\":2262:2356   */\n      tag_98\n        /* \"#utility.yul\":2349:2355   */\n      dup2\n        /* \"#utility.yul\":2344:2347   */\n      dup6\n        /* \"#utility.yul\":2262:2356   */\n      tag_51\n      jump\t// in\n    tag_98:\n        /* \"#utility.yul\":2255:2356   */\n      swap4\n      pop\n        /* \"#utility.yul\":2380:2444   */\n      tag_99\n        /* \"#utility.yul\":2438:2443   */\n      dup4\n        /* \"#utility.yul\":2380:2444   */\n      tag_52\n      jump\t// in\n    tag_99:\n        /* \"#utility.yul\":2467:2474   */\n      dup1\n        /* \"#utility.yul\":2498:2499   */\n      0x00\n        /* \"#utility.yul\":2483:2791   */\n    tag_100:\n        /* \"#utility.yul\":2508:2514   */\n      dup4\n        /* \"#utility.yul\":2505:2506   */\n      dup2\n        /* \"#utility.yul\":2502:2515   */\n      lt\n        /* \"#utility.yul\":2483:2791   */\n      iszero\n      tag_102\n      jumpi\n        /* \"#utility.yul\":2584:2590   */\n      dup2\n        /* \"#utility.yul\":2578:2591   */\n      mload\n        /* \"#utility.yul\":2611:2690   */\n      tag_103\n        /* \"#utility.yul\":2686:2689   */\n      dup9\n        /* \"#utility.yul\":2671:2684   */\n      dup3\n        /* \"#utility.yul\":2611:2690   */\n      tag_55\n      jump\t// in\n    tag_103:\n        /* \"#utility.yul\":2604:2690   */\n      swap8\n      pop\n        /* \"#utility.yul\":2713:2781   */\n      tag_104\n        /* \"#utility.yul\":2774:2780   */\n      dup4\n        /* \"#utility.yul\":2713:2781   */\n      tag_56\n      jump\t// in\n    tag_104:\n        /* \"#utility.yul\":2703:2781   */\n      swap3\n      pop\n        /* \"#utility.yul\":2543:2791   */\n      pop\n        /* \"#utility.yul\":2530:2531   */\n      0x01\n        /* \"#utility.yul\":2527:2528   */\n      dup2\n        /* \"#utility.yul\":2523:2532   */\n      add\n        /* \"#utility.yul\":2518:2532   */\n      swap1\n      pop\n        /* \"#utility.yul\":2483:2791   */\n      jump(tag_100)\n    tag_102:\n        /* \"#utility.yul\":2487:2501   */\n      pop\n        /* \"#utility.yul\":2807:2810   */\n      dup6\n        /* \"#utility.yul\":2800:2810   */\n      swap4\n      pop\n        /* \"#utility.yul\":2160:2816   */\n      pop\n      pop\n      pop\n        /* \"#utility.yul\":2020:2816   */\n      swap3\n      swap2\n      pop\n      pop\n      jump\t// out\n        /* \"#utility.yul\":2822:3227   */\n    tag_14:\n        /* \"#utility.yul\":2981:2985   */\n      0x00\n        /* \"#utility.yul\":3019:3021   */\n      0x20\n        /* \"#utility.yul\":3008:3017   */\n      dup3\n        /* \"#utility.yul\":3004:3022   */\n      add\n        /* \"#utility.yul\":2996:3022   */\n      swap1\n      pop\n        /* \"#utility.yul\":3068:3077   */\n      dup2\n        /* \"#utility.yul\":3062:3066   */\n      dup2\n        /* \"#utility.yul\":3058:3078   */\n      sub\n        /* \"#utility.yul\":3054:3055   */\n      0x00\n        /* \"#utility.yul\":3043:3052   */\n      dup4\n        /* \"#utility.yul\":3039:3056   */\n      add\n        /* \"#utility.yul\":3032:3079   */\n      mstore\n        /* \"#utility.yul\":3096:3220   */\n      tag_106\n        /* \"#utility.yul\":3215:3219   */\n      dup2\n        /* \"#utility.yul\":3206:3212   */\n      dup5\n        /* \"#utility.yul\":3096:3220   */\n      tag_57\n      jump\t// in\n    tag_106:\n        /* \"#utility.yul\":3088:3220   */\n      swap1\n      pop\n        /* \"#utility.yul\":2822:3227   */\n      swap3\n      swap2\n      pop\n      pop\n      jump\t// out\n        /* \"#utility.yul\":3314:3431   */\n    tag_59:\n        /* \"#utility.yul\":3423:3424   */\n      0x00\n        /* \"#utility.yul\":3420:3421   */\n      dup1\n        /* \"#utility.yul\":3413:3425   */\n      revert\n        /* \"#utility.yul\":3560:3682   */\n    tag_61:\n        /* \"#utility.yul\":3633:3657   */\n      tag_111\n        /* \"#utility.yul\":3651:3656   */\n      dup2\n        /* \"#utility.yul\":3633:3657   */\n      tag_48\n      jump\t// in\n    tag_111:\n        /* \"#utility.yul\":3626:3631   */\n      dup2\n        /* \"#utility.yul\":3623:3658   */\n      eq\n        /* \"#utility.yul\":3613:3676   */\n      tag_112\n      jumpi\n        /* \"#utility.yul\":3672:3673   */\n      0x00\n        /* \"#utility.yul\":3669:3670   */\n      dup1\n        /* \"#utility.yul\":3662:3674   */\n      revert\n        /* \"#utility.yul\":3613:3676   */\n    tag_112:\n        /* \"#utility.yul\":3560:3682   */\n      pop\n      jump\t// out\n        /* \"#utility.yul\":3688:3827   */\n    tag_62:\n        /* \"#utility.yul\":3734:3739   */\n      0x00\n        /* \"#utility.yul\":3772:3778   */\n      dup2\n        /* \"#utility.yul\":3759:3779   */\n      calldataload\n        /* \"#utility.yul\":3750:3779   */\n      swap1\n      pop\n        /* \"#utility.yul\":3788:3821   */\n      tag_114\n        /* \"#utility.yul\":3815:3820   */\n      dup2\n        /* \"#utility.yul\":3788:3821   */\n      tag_61\n      jump\t// in\n    tag_114:\n        /* \"#utility.yul\":3688:3827   */\n      swap3\n      swap2\n      pop\n      pop\n      jump\t// out\n        /* \"#utility.yul\":3833:4162   */\n    tag_18:\n        /* \"#utility.yul\":3892:3898   */\n      0x00\n        /* \"#utility.yul\":3941:3943   */\n      0x20\n        /* \"#utility.yul\":3929:3938   */\n      dup3\n        /* \"#utility.yul\":3920:3927   */\n      dup5\n        /* \"#utility.yul\":3916:3939   */\n      sub\n        /* \"#utility.yul\":3912:3944   */\n      slt\n        /* \"#utility.yul\":3909:4028   */\n      iszero\n      tag_116\n      jumpi\n        /* \"#utility.yul\":3947:4026   */\n      tag_117\n      tag_59\n      jump\t// in\n    tag_117:\n        /* \"#utility.yul\":3909:4028   */\n    tag_116:\n        /* \"#utility.yul\":4067:4068   */\n      0x00\n        /* \"#utility.yul\":4092:4145   */\n      tag_118\n        /* \"#utility.yul\":4137:4144   */\n      dup5\n        /* \"#utility.yul\":4128:4134   */\n      dup3\n        /* \"#utility.yul\":4117:4126   */\n      dup6\n        /* \"#utility.yul\":4113:4135   */\n      add\n        /* \"#utility.yul\":4092:4145   */\n      tag_62\n      jump\t// in\n    tag_118:\n        /* \"#utility.yul\":4082:4145   */\n      swap2\n      pop\n        /* \"#utility.yul\":4038:4155   */\n      pop\n        /* \"#utility.yul\":3833:4162   */\n      swap3\n      swap2\n      pop\n      pop\n      jump\t// out\n        /* \"#utility.yul\":4168:4310   */\n    tag_63:\n        /* \"#utility.yul\":4271:4303   */\n      tag_120\n        /* \"#utility.yul\":4297:4302   */\n      dup2\n        /* \"#utility.yul\":4271:4303   */\n      tag_53\n      jump\t// in\n    tag_120:\n        /* \"#utility.yul\":4266:4269   */\n      dup3\n        /* \"#utility.yul\":4259:4304   */\n      mstore\n        /* \"#utility.yul\":4168:4310   */\n      pop\n      pop\n      jump\t// out\n        /* \"#utility.yul\":4316:4570   */\n    tag_21:\n        /* \"#utility.yul\":4425:4429   */\n      0x00\n        /* \"#utility.yul\":4463:4465   */\n      0x20\n        /* \"#utility.yul\":4452:4461   */\n      dup3\n        /* \"#utility.yul\":4448:4466   */\n      add\n        /* \"#utility.yul\":4440:4466   */\n      swap1\n      pop\n        /* \"#utility.yul\":4476:4563   */\n      tag_122\n        /* \"#utility.yul\":4560:4561   */\n      0x00\n        /* \"#utility.yul\":4549:4558   */\n      dup4\n        /* \"#utility.yul\":4545:4562   */\n      add\n        /* \"#utility.yul\":4536:4542   */\n      dup5\n        /* \"#utility.yul\":4476:4563   */\n      tag_63\n      jump\t// in\n    tag_122:\n        /* \"#utility.yul\":4316:4570   */\n      swap3\n      swap2\n      pop\n      pop\n      jump\t// out\n        /* \"#utility.yul\":4576:4756   */\n    tag_64:\n        /* \"#utility.yul\":4624:4701   */\n      0x4e487b7100000000000000000000000000000000000000000000000000000000\n        /* \"#utility.yul\":4621:4622   */\n      0x00\n        /* \"#utility.yul\":4614:4702   */\n      mstore\n        /* \"#utility.yul\":4721:4725   */\n      0x12\n        /* \"#utility.yul\":4718:4719   */\n      0x04\n        /* \"#utility.yul\":4711:4726   */\n      mstore\n        /* \"#utility.yul\":4745:4749   */\n      0x24\n        /* \"#utility.yul\":4742:4743   */\n      0x00\n        /* \"#utility.yul\":4735:4750   */\n      revert\n        /* \"#utility.yul\":4948:5133   */\n    tag_33:\n        /* \"#utility.yul\":4988:4989   */\n      0x00\n        /* \"#utility.yul\":5005:5025   */\n      tag_126\n        /* \"#utility.yul\":5023:5024   */\n      dup3\n        /* \"#utility.yul\":5005:5025   */\n      tag_48\n      jump\t// in\n    tag_126:\n        /* \"#utility.yul\":5000:5025   */\n      swap2\n      pop\n        /* \"#utility.yul\":5039:5059   */\n      tag_127\n        /* \"#utility.yul\":5057:5058   */\n      dup4\n        /* \"#utility.yul\":5039:5059   */\n      tag_48\n      jump\t// in\n    tag_127:\n        /* \"#utility.yul\":5034:5059   */\n      swap3\n      pop\n        /* \"#utility.yul\":5078:5079   */\n      dup3\n        /* \"#utility.yul\":5068:5103   */\n      tag_128\n      jumpi\n        /* \"#utility.yul\":5083:5101   */\n      tag_129\n      tag_64\n      jump\t// in\n    tag_129:\n        /* \"#utility.yul\":5068:5103   */\n    tag_128:\n        /* \"#utility.yul\":5125:5126   */\n      dup3\n        /* \"#utility.yul\":5122:5123   */\n      dup3\n        /* \"#utility.yul\":5118:5127   */\n      div\n        /* \"#utility.yul\":5113:5127   */\n      swap1\n      pop\n        /* \"#utility.yul\":4948:5133   */\n      swap3\n      swap2\n      pop\n      pop\n      jump\t// out\n        /* \"#utility.yul\":5139:5319   */\n    tag_39:\n        /* \"#utility.yul\":5187:5264   */\n      0x4e487b7100000000000000000000000000000000000000000000000000000000\n        /* \"#utility.yul\":5184:5185   */\n      0x00\n        /* \"#utility.yul\":5177:5265   */\n      mstore\n        /* \"#utility.yul\":5284:5288   */\n      0x32\n        /* \"#utility.yul\":5281:5282   */\n      0x04\n        /* \"#utility.yul\":5274:5289   */\n      mstore\n        /* \"#utility.yul\":5308:5312   */\n      0x24\n        /* \"#utility.yul\":5305:5306   */\n      0x00\n        /* \"#utility.yul\":5298:5313   */\n      revert\n        /* \"#utility.yul\":5325:5444   */\n    tag_66:\n        /* \"#utility.yul\":5397:5403   */\n      0x00\n        /* \"#utility.yul\":5431:5436   */\n      dup2\n        /* \"#utility.yul\":5425:5437   */\n      sload\n        /* \"#utility.yul\":5415:5437   */\n      swap1\n      pop\n        /* \"#utility.yul\":5325:5444   */\n      swap2\n      swap1\n      pop\n      jump\t// out\n        /* \"#utility.yul\":5450:5614   */\n    tag_67:\n        /* \"#utility.yul\":5522:5526   */\n      0x00\n        /* \"#utility.yul\":5545:5548   */\n      dup2\n        /* \"#utility.yul\":5537:5548   */\n      swap1\n      pop\n        /* \"#utility.yul\":5568:5571   */\n      dup2\n        /* \"#utility.yul\":5565:5566   */\n      0x00\n        /* \"#utility.yul\":5558:5572   */\n      mstore\n        /* \"#utility.yul\":5602:5606   */\n      0x20\n        /* \"#utility.yul\":5599:5600   */\n      0x00\n        /* \"#utility.yul\":5589:5607   */\n      keccak256\n        /* \"#utility.yul\":5581:5607   */\n      swap1\n      pop\n        /* \"#utility.yul\":5450:5614   */\n      swap2\n      swap1\n      pop\n      jump\t// out\n        /* \"#utility.yul\":5620:5722   */\n    tag_68:\n        /* \"#utility.yul\":5662:5670   */\n      0x00\n        /* \"#utility.yul\":5709:5714   */\n      dup2\n        /* \"#utility.yul\":5706:5707   */\n      0x00\n        /* \"#utility.yul\":5702:5715   */\n      shr\n        /* \"#utility.yul\":5681:5715   */\n      swap1\n      pop\n        /* \"#utility.yul\":5620:5722   */\n      swap2\n      swap1\n      pop\n      jump\t// out\n        /* \"#utility.yul\":5728:5875   */\n    tag_69:\n        /* \"#utility.yul\":5786:5793   */\n      0x00\n        /* \"#utility.yul\":5826:5868   */\n      0xffffffffffffffffffffffffffffffffffffffff\n        /* \"#utility.yul\":5819:5824   */\n      dup3\n        /* \"#utility.yul\":5815:5869   */\n      and\n        /* \"#utility.yul\":5804:5869   */\n      swap1\n      pop\n        /* \"#utility.yul\":5728:5875   */\n      swap2\n      swap1\n      pop\n      jump\t// out\n        /* \"#utility.yul\":5881:6063   */\n    tag_70:\n        /* \"#utility.yul\":5958:5963   */\n      0x00\n        /* \"#utility.yul\":5983:6057   */\n      tag_136\n        /* \"#utility.yul\":6022:6056   */\n      tag_137\n        /* \"#utility.yul\":6045:6055   */\n      dup4\n        /* \"#utility.yul\":6022:6056   */\n      tag_68\n      jump\t// in\n    tag_137:\n        /* \"#utility.yul\":5983:6057   */\n      tag_69\n      jump\t// in\n    tag_136:\n        /* \"#utility.yul\":5974:6057   */\n      swap1\n      pop\n        /* \"#utility.yul\":5881:6063   */\n      swap2\n      swap1\n      pop\n      jump\t// out\n        /* \"#utility.yul\":6069:6229   */\n    tag_71:\n        /* \"#utility.yul\":6132:6137   */\n      0x00\n        /* \"#utility.yul\":6157:6222   */\n      tag_139\n        /* \"#utility.yul\":6216:6220   */\n      dup3\n        /* \"#utility.yul\":6210:6221   */\n      sload\n        /* \"#utility.yul\":6157:6222   */\n      tag_70\n      jump\t// in\n    tag_139:\n        /* \"#utility.yul\":6148:6222   */\n      swap1\n      pop\n        /* \"#utility.yul\":6069:6229   */\n      swap2\n      swap1\n      pop\n      jump\t// out\n        /* \"#utility.yul\":6235:6353   */\n    tag_72:\n        /* \"#utility.yul\":6310:6314   */\n      0x00\n        /* \"#utility.yul\":6342:6346   */\n      0x01\n        /* \"#utility.yul\":6337:6340   */\n      dup3\n        /* \"#utility.yul\":6333:6347   */\n      add\n        /* \"#utility.yul\":6325:6347   */\n      swap1\n      pop\n        /* \"#utility.yul\":6235:6353   */\n      swap2\n      swap1\n      pop\n      jump\t// out\n        /* \"#utility.yul\":6405:7228   */\n    tag_73:\n        /* \"#utility.yul\":6537:6540   */\n      0x00\n        /* \"#utility.yul\":6566:6625   */\n      tag_142\n        /* \"#utility.yul\":6619:6624   */\n      dup3\n        /* \"#utility.yul\":6566:6625   */\n      tag_66\n      jump\t// in\n    tag_142:\n        /* \"#utility.yul\":6641:6735   */\n      tag_143\n        /* \"#utility.yul\":6728:6734   */\n      dup2\n        /* \"#utility.yul\":6723:6726   */\n      dup6\n        /* \"#utility.yul\":6641:6735   */\n      tag_51\n      jump\t// in\n    tag_143:\n        /* \"#utility.yul\":6634:6735   */\n      swap4\n      pop\n        /* \"#utility.yul\":6759:6820   */\n      tag_144\n        /* \"#utility.yul\":6814:6819   */\n      dup4\n        /* \"#utility.yul\":6759:6820   */\n      tag_67\n      jump\t// in\n    tag_144:\n        /* \"#utility.yul\":6843:6850   */\n      dup1\n        /* \"#utility.yul\":6874:6875   */\n      0x00\n        /* \"#utility.yul\":6859:7203   */\n    tag_145:\n        /* \"#utility.yul\":6884:6890   */\n      dup4\n        /* \"#utility.yul\":6881:6882   */\n      dup2\n        /* \"#utility.yul\":6878:6891   */\n      lt\n        /* \"#utility.yul\":6859:7203   */\n      iszero\n      tag_147\n      jumpi\n        /* \"#utility.yul\":6954:7006   */\n      tag_148\n        /* \"#utility.yul\":6999:7005   */\n      dup3\n        /* \"#utility.yul\":6954:7006   */\n      tag_71\n      jump\t// in\n    tag_148:\n        /* \"#utility.yul\":7026:7105   */\n      tag_149\n        /* \"#utility.yul\":7101:7104   */\n      dup9\n        /* \"#utility.yul\":7086:7099   */\n      dup3\n        /* \"#utility.yul\":7026:7105   */\n      tag_55\n      jump\t// in\n    tag_149:\n        /* \"#utility.yul\":7019:7105   */\n      swap8\n      pop\n        /* \"#utility.yul\":7128:7193   */\n      tag_150\n        /* \"#utility.yul\":7186:7192   */\n      dup4\n        /* \"#utility.yul\":7128:7193   */\n      tag_72\n      jump\t// in\n    tag_150:\n        /* \"#utility.yul\":7118:7193   */\n      swap3\n      pop\n        /* \"#utility.yul\":6919:7203   */\n      pop\n        /* \"#utility.yul\":6906:6907   */\n      0x01\n        /* \"#utility.yul\":6903:6904   */\n      dup2\n        /* \"#utility.yul\":6899:6908   */\n      add\n        /* \"#utility.yul\":6894:6908   */\n      swap1\n      pop\n        /* \"#utility.yul\":6859:7203   */\n      jump(tag_145)\n    tag_147:\n        /* \"#utility.yul\":6863:6877   */\n      pop\n        /* \"#utility.yul\":7219:7222   */\n      dup6\n        /* \"#utility.yul\":7212:7222   */\n      swap4\n      pop\n        /* \"#utility.yul\":6542:7228   */\n      pop\n      pop\n      pop\n        /* \"#utility.yul\":6405:7228   */\n      swap3\n      swap2\n      pop\n      pop\n      jump\t// out\n        /* \"#utility.yul\":7234:7743   */\n    tag_44:\n        /* \"#utility.yul\":7418:7422   */\n      0x00\n        /* \"#utility.yul\":7456:7458   */\n      0x40\n        /* \"#utility.yul\":7445:7454   */\n      dup3\n        /* \"#utility.yul\":7441:7459   */\n      add\n        /* \"#utility.yul\":7433:7459   */\n      swap1\n      pop\n        /* \"#utility.yul\":7505:7514   */\n      dup2\n        /* \"#utility.yul\":7499:7503   */\n      dup2\n        /* \"#utility.yul\":7495:7515   */\n      sub\n        /* \"#utility.yul\":7491:7492   */\n      0x00\n        /* \"#utility.yul\":7480:7489   */\n      dup4\n        /* \"#utility.yul\":7476:7493   */\n      add\n        /* \"#utility.yul\":7469:7516   */\n      mstore\n        /* \"#utility.yul\":7533:7654   */\n      tag_152\n        /* \"#utility.yul\":7649:7653   */\n      dup2\n        /* \"#utility.yul\":7640:7646   */\n      dup6\n        /* \"#utility.yul\":7533:7654   */\n      tag_73\n      jump\t// in\n    tag_152:\n        /* \"#utility.yul\":7525:7654   */\n      swap1\n      pop\n        /* \"#utility.yul\":7664:7736   */\n      tag_153\n        /* \"#utility.yul\":7732:7734   */\n      0x20\n        /* \"#utility.yul\":7721:7730   */\n      dup4\n        /* \"#utility.yul\":7717:7735   */\n      add\n        /* \"#utility.yul\":7708:7714   */\n      dup5\n        /* \"#utility.yul\":7664:7736   */\n      tag_49\n      jump\t// in\n    tag_153:\n        /* \"#utility.yul\":7234:7743   */\n      swap4\n      swap3\n      pop\n      pop\n      pop\n      jump\t// out\n\n    auxdata: 0xa264697066735822122068b41302b9046b8be9fd5109f7e09fe1f2898fabbddcd5b66074ff4b3db3ce1e64736f6c63430008190033\n}\n",
				"bytecode": {
					"linkReferences": {},
					"object": "608060405234801561000f575f80fd5b5060405161097138038061097183398181016040528101906100319190610284565b5f5b81518110156100c2575f8282815181106100505761004f6102cb565b5b6020026020010151908060018154018082558091505060019003905f5260205f20015f9091909190916101000a81548173ffffffffffffffffffffffffffffffffffffffff021916908373ffffffffffffffffffffffffffffffffffffffff1602179055508080600101915050610033565b50506102f8565b5f604051905090565b5f80fd5b5f80fd5b5f80fd5b5f601f19601f8301169050919050565b7f4e487b71000000000000000000000000000000000000000000000000000000005f52604160045260245ffd5b610124826100de565b810181811067ffffffffffffffff82111715610143576101426100ee565b5b80604052505050565b5f6101556100c9565b9050610161828261011b565b919050565b5f67ffffffffffffffff8211156101805761017f6100ee565b5b602082029050602081019050919050565b5f80fd5b5f73ffffffffffffffffffffffffffffffffffffffff82169050919050565b5f6101be82610195565b9050919050565b6101ce816101b4565b81146101d8575f80fd5b50565b5f815190506101e9816101c5565b92915050565b5f6102016101fc84610166565b61014c565b9050808382526020820190506020840283018581111561022457610223610191565b5b835b8181101561024d578061023988826101db565b845260208401935050602081019050610226565b5050509392505050565b5f82601f83011261026b5761026a6100da565b5b815161027b8482602086016101ef565b91505092915050565b5f60208284031215610299576102986100d2565b5b5f82015167ffffffffffffffff8111156102b6576102b56100d6565b5b6102c284828501610257565b91505092915050565b7f4e487b71000000000000000000000000000000000000000000000000000000005f52603260045260245ffd5b61066c806103055f395ff3fe608060405260043610610037575f3560e01c8063913b722c1461007b578063efeb5e58146100a5578063f726f715146100e157610077565b36610077577f8e47b87b0ef542cdfa1659c551d88bad38aa7f452d2bbb349ab7530dfec8be8f333460405161006d92919061030e565b60405180910390a1005b5f80fd5b348015610086575f80fd5b5061008f610109565b60405161009c91906103fd565b60405180910390f35b3480156100b0575f80fd5b506100cb60048036038101906100c6919061044b565b610193565b6040516100d89190610485565b60405180910390f35b3480156100ec575f80fd5b506101076004803603810190610102919061044b565b6101cd565b005b60605f80548060200260200160405190810160405280929190818152602001828054801561018957602002820191905f5260205f20905b815f9054906101000a900473ffffffffffffffffffffffffffffffffffffffff1673ffffffffffffffffffffffffffffffffffffffff1681526020019060010190808311610140575b5050505050905090565b5f81815481106101a1575f80fd5b905f5260205f20015f915054906101000a900473ffffffffffffffffffffffffffffffffffffffff1681565b5f8080549050826101de91906104cb565b90505f5b5f80549050811015610279575f8181548110610201576102006104fb565b5b905f5260205f20015f9054906101000a900473ffffffffffffffffffffffffffffffffffffffff1673ffffffffffffffffffffffffffffffffffffffff166108fc8390811502906040515f60405180830381858888f1935050505015801561026b573d5f803e3d5ffd5b5080806001019150506101e2565b507f05723d08be3077fdb9e2a8cd075cd2eb73ab2d7a325e9702b8d31f7d45d956375f826040516102ab929190610608565b60405180910390a15050565b5f73ffffffffffffffffffffffffffffffffffffffff82169050919050565b5f6102e0826102b7565b9050919050565b6102f0816102d6565b82525050565b5f819050919050565b610308816102f6565b82525050565b5f6040820190506103215f8301856102e7565b61032e60208301846102ff565b9392505050565b5f81519050919050565b5f82825260208201905092915050565b5f819050602082019050919050565b5f610368826102b7565b9050919050565b6103788161035e565b82525050565b5f610389838361036f565b60208301905092915050565b5f602082019050919050565b5f6103ab82610335565b6103b5818561033f565b93506103c08361034f565b805f5b838110156103f05781516103d7888261037e565b97506103e283610395565b9250506001810190506103c3565b5085935050505092915050565b5f6020820190508181035f83015261041581846103a1565b905092915050565b5f80fd5b61042a816102f6565b8114610434575f80fd5b50565b5f8135905061044581610421565b92915050565b5f602082840312156104605761045f61041d565b5b5f61046d84828501610437565b91505092915050565b61047f8161035e565b82525050565b5f6020820190506104985f830184610476565b92915050565b7f4e487b71000000000000000000000000000000000000000000000000000000005f52601260045260245ffd5b5f6104d5826102f6565b91506104e0836102f6565b9250826104f0576104ef61049e565b5b828204905092915050565b7f4e487b71000000000000000000000000000000000000000000000000000000005f52603260045260245ffd5b5f81549050919050565b5f819050815f5260205f209050919050565b5f815f1c9050919050565b5f73ffffffffffffffffffffffffffffffffffffffff82169050919050565b5f61058061057b83610544565b61054f565b9050919050565b5f610592825461056e565b9050919050565b5f600182019050919050565b5f6105af82610528565b6105b9818561033f565b93506105c483610532565b805f5b838110156105fb576105d882610587565b6105e2888261037e565b97506105ed83610599565b9250506001810190506105c7565b5085935050505092915050565b5f6040820190508181035f83015261062081856105a5565b905061062f60208301846102ff565b939250505056fea264697066735822122068b41302b9046b8be9fd5109f7e09fe1f2898fabbddcd5b66074ff4b3db3ce1e64736f6c63430008190033",
					"opcodes": "PUSH1 0x80 PUSH1 0x40 MSTORE CALLVALUE DUP1 ISZERO PUSH2 0xF JUMPI PUSH0 DUP1 REVERT JUMPDEST POP PUSH1 0x40 MLOAD PUSH2 0x971 CODESIZE SUB DUP1 PUSH2 0x971 DUP4 CODECOPY DUP2 DUP2 ADD PUSH1 0x40 MSTORE DUP2 ADD SWAP1 PUSH2 0x31 SWAP2 SWAP1 PUSH2 0x284 JUMP JUMPDEST PUSH0 JUMPDEST DUP2 MLOAD DUP2 LT ISZERO PUSH2 0xC2 JUMPI PUSH0 DUP3 DUP3 DUP2 MLOAD DUP2 LT PUSH2 0x50 JUMPI PUSH2 0x4F PUSH2 0x2CB JUMP JUMPDEST JUMPDEST PUSH1 0x20 MUL PUSH1 0x20 ADD ADD MLOAD SWAP1 DUP1 PUSH1 0x1 DUP2 SLOAD ADD DUP1 DUP3 SSTORE DUP1 SWAP2 POP POP PUSH1 0x1 SWAP1 SUB SWAP1 PUSH0 MSTORE PUSH1 0x20 PUSH0 KECCAK256 ADD PUSH0 SWAP1 SWAP2 SWAP1 SWAP2 SWAP1 SWAP2 PUSH2 0x100 EXP DUP2 SLOAD DUP2 PUSH20 0xFFFFFFFFFFFFFFFFFFFFFFFFFFFFFFFFFFFFFFFF MUL NOT AND SWAP1 DUP4 PUSH20 0xFFFFFFFFFFFFFFFFFFFFFFFFFFFFFFFFFFFFFFFF AND MUL OR SWAP1 SSTORE POP DUP1 DUP1 PUSH1 0x1 ADD SWAP2 POP POP PUSH2 0x33 JUMP JUMPDEST POP POP PUSH2 0x2F8 JUMP JUMPDEST PUSH0 PUSH1 0x40 MLOAD SWAP1 POP SWAP1 JUMP JUMPDEST PUSH0 DUP1 REVERT JUMPDEST PUSH0 DUP1 REVERT JUMPDEST PUSH0 DUP1 REVERT JUMPDEST PUSH0 PUSH1 0x1F NOT PUSH1 0x1F DUP4 ADD AND SWAP1 POP SWAP2 SWAP1 POP JUMP JUMPDEST PUSH32 0x4E487B7100000000000000000000000000000000000000000000000000000000 PUSH0 MSTORE PUSH1 0x41 PUSH1 0x4 MSTORE PUSH1 0x24 PUSH0 REVERT JUMPDEST PUSH2 0x124 DUP3 PUSH2 0xDE JUMP JUMPDEST DUP2 ADD DUP2 DUP2 LT PUSH8 0xFFFFFFFFFFFFFFFF DUP3 GT OR ISZERO PUSH2 0x143 JUMPI PUSH2 0x142 PUSH2 0xEE JUMP JUMPDEST JUMPDEST DUP1 PUSH1 0x40 MSTORE POP POP POP JUMP JUMPDEST PUSH0 PUSH2 0x155 PUSH2 0xC9 JUMP JUMPDEST SWAP1 POP PUSH2 0x161 DUP3 DUP3 PUSH2 0x11B JUMP JUMPDEST SWAP2 SWAP1 POP JUMP JUMPDEST PUSH0 PUSH8 0xFFFFFFFFFFFFFFFF DUP3 GT ISZERO PUSH2 0x180 JUMPI PUSH2 0x17F PUSH2 0xEE JUMP JUMPDEST JUMPDEST PUSH1 0x20 DUP3 MUL SWAP1 POP PUSH1 0x20 DUP2 ADD SWAP1 POP SWAP2 SWAP1 POP JUMP JUMPDEST PUSH0 DUP1 REVERT JUMPDEST PUSH0 PUSH20 0xFFFFFFFFFFFFFFFFFFFFFFFFFFFFFFFFFFFFFFFF DUP3 AND SWAP1 POP SWAP2 SWAP1 POP JUMP JUMPDEST PUSH0 PUSH2 0x1BE DUP3 PUSH2 0x195 JUMP JUMPDEST SWAP1 POP SWAP2 SWAP1 POP JUMP JUMPDEST PUSH2 0x1CE DUP2 PUSH2 0x1B4 JUMP JUMPDEST DUP2 EQ PUSH2 0x1D8 JUMPI PUSH0 DUP1 REVERT JUMPDEST POP JUMP JUMPDEST PUSH0 DUP2 MLOAD SWAP1 POP PUSH2 0x1E9 DUP2 PUSH2 0x1C5 JUMP JUMPDEST SWAP3 SWAP2 POP POP JUMP JUMPDEST PUSH0 PUSH2 0x201 PUSH2 0x1FC DUP5 PUSH2 0x166 JUMP JUMPDEST PUSH2 0x14C JUMP JUMPDEST SWAP1 POP DUP1 DUP4 DUP3 MSTORE PUSH1 0x20 DUP3 ADD SWAP1 POP PUSH1 0x20 DUP5 MUL DUP4 ADD DUP6 DUP2 GT ISZERO PUSH2 0x224 JUMPI PUSH2 0x223 PUSH2 0x191 JUMP JUMPDEST JUMPDEST DUP4 JUMPDEST DUP2 DUP2 LT ISZERO PUSH2 0x24D JUMPI DUP1 PUSH2 0x239 DUP9 DUP3 PUSH2 0x1DB JUMP JUMPDEST DUP5 MSTORE PUSH1 0x20 DUP5 ADD SWAP4 POP POP PUSH1 0x20 DUP2 ADD SWAP1 POP PUSH2 0x226 JUMP JUMPDEST POP POP POP SWAP4 SWAP3 POP POP POP JUMP JUMPDEST PUSH0 DUP3 PUSH1 0x1F DUP4 ADD SLT PUSH2 0x26B JUMPI PUSH2 0x26A PUSH2 0xDA JUMP JUMPDEST JUMPDEST DUP2 MLOAD PUSH2 0x27B DUP5 DUP3 PUSH1 0x20 DUP7 ADD PUSH2 0x1EF JUMP JUMPDEST SWAP2 POP POP SWAP3 SWAP2 POP POP JUMP JUMPDEST PUSH0 PUSH1 0x20 DUP3 DUP5 SUB SLT ISZERO PUSH2 0x299 JUMPI PUSH2 0x298 PUSH2 0xD2 JUMP JUMPDEST JUMPDEST PUSH0 DUP3 ADD MLOAD PUSH8 0xFFFFFFFFFFFFFFFF DUP2 GT ISZERO PUSH2 0x2B6 JUMPI PUSH2 0x2B5 PUSH2 0xD6 JUMP JUMPDEST JUMPDEST PUSH2 0x2C2 DUP5 DUP3 DUP6 ADD PUSH2 0x257 JUMP JUMPDEST SWAP2 POP POP SWAP3 SWAP2 POP POP JUMP JUMPDEST PUSH32 0x4E487B7100000000000000000000000000000000000000000000000000000000 PUSH0 MSTORE PUSH1 0x32 PUSH1 0x4 MSTORE PUSH1 0x24 PUSH0 REVERT JUMPDEST PUSH2 0x66C DUP1 PUSH2 0x305 PUSH0 CODECOPY PUSH0 RETURN INVALID PUSH1 0x80 PUSH1 0x40 MSTORE PUSH1 0x4 CALLDATASIZE LT PUSH2 0x37 JUMPI PUSH0 CALLDATALOAD PUSH1 0xE0 SHR DUP1 PUSH4 0x913B722C EQ PUSH2 0x7B JUMPI DUP1 PUSH4 0xEFEB5E58 EQ PUSH2 0xA5 JUMPI DUP1 PUSH4 0xF726F715 EQ PUSH2 0xE1 JUMPI PUSH2 0x77 JUMP JUMPDEST CALLDATASIZE PUSH2 0x77 JUMPI PUSH32 0x8E47B87B0EF542CDFA1659C551D88BAD38AA7F452D2BBB349AB7530DFEC8BE8F CALLER CALLVALUE PUSH1 0x40 MLOAD PUSH2 0x6D SWAP3 SWAP2 SWAP1 PUSH2 0x30E JUMP JUMPDEST PUSH1 0x40 MLOAD DUP1 SWAP2 SUB SWAP1 LOG1 STOP JUMPDEST PUSH0 DUP1 REVERT JUMPDEST CALLVALUE DUP1 ISZERO PUSH2 0x86 JUMPI PUSH0 DUP1 REVERT JUMPDEST POP PUSH2 0x8F PUSH2 0x109 JUMP JUMPDEST PUSH1 0x40 MLOAD PUSH2 0x9C SWAP2 SWAP1 PUSH2 0x3FD JUMP JUMPDEST PUSH1 0x40 MLOAD DUP1 SWAP2 SUB SWAP1 RETURN JUMPDEST CALLVALUE DUP1 ISZERO PUSH2 0xB0 JUMPI PUSH0 DUP1 REVERT JUMPDEST POP PUSH2 0xCB PUSH1 0x4 DUP1 CALLDATASIZE SUB DUP2 ADD SWAP1 PUSH2 0xC6 SWAP2 SWAP1 PUSH2 0x44B JUMP JUMPDEST PUSH2 0x193 JUMP JUMPDEST PUSH1 0x40 MLOAD PUSH2 0xD8 SWAP2 SWAP1 PUSH2 0x485 JUMP JUMPDEST PUSH1 0x40 MLOAD DUP1 SWAP2 SUB SWAP1 RETURN JUMPDEST CALLVALUE DUP1 ISZERO PUSH2 0xEC JUMPI PUSH0 DUP1 REVERT JUMPDEST POP PUSH2 0x107 PUSH1 0x4 DUP1 CALLDATASIZE SUB DUP2 ADD SWAP1 PUSH2 0x102 SWAP2 SWAP1 PUSH2 0x44B JUMP JUMPDEST PUSH2 0x1CD JUMP JUMPDEST STOP JUMPDEST PUSH1 0x60 PUSH0 DUP1 SLOAD DUP1 PUSH1 0x20 MUL PUSH1 0x20 ADD PUSH1 0x40 MLOAD SWAP1 DUP2 ADD PUSH1 0x40 MSTORE DUP1 SWAP3 SWAP2 SWAP1 DUP2 DUP2 MSTORE PUSH1 0x20 ADD DUP3 DUP1 SLOAD DUP1 ISZERO PUSH2 0x189 JUMPI PUSH1 0x20 MUL DUP3 ADD SWAP2 SWAP1 PUSH0 MSTORE PUSH1 0x20 PUSH0 KECCAK256 SWAP1 JUMPDEST DUP2 PUSH0 SWAP1 SLOAD SWAP1 PUSH2 0x100 EXP SWAP1 DIV PUSH20 0xFFFFFFFFFFFFFFFFFFFFFFFFFFFFFFFFFFFFFFFF AND PUSH20 0xFFFFFFFFFFFFFFFFFFFFFFFFFFFFFFFFFFFFFFFF AND DUP2 MSTORE PUSH1 0x20 ADD SWAP1 PUSH1 0x1 ADD SWAP1 DUP1 DUP4 GT PUSH2 0x140 JUMPI JUMPDEST POP POP POP POP POP SWAP1 POP SWAP1 JUMP JUMPDEST PUSH0 DUP2 DUP2 SLOAD DUP2 LT PUSH2 0x1A1 JUMPI PUSH0 DUP1 REVERT JUMPDEST SWAP1 PUSH0 MSTORE PUSH1 0x20 PUSH0 KECCAK256 ADD PUSH0 SWAP2 POP SLOAD SWAP1 PUSH2 0x100 EXP SWAP1 DIV PUSH20 0xFFFFFFFFFFFFFFFFFFFFFFFFFFFFFFFFFFFFFFFF AND DUP2 JUMP JUMPDEST PUSH0 DUP1 DUP1 SLOAD SWAP1 POP DUP3 PUSH2 0x1DE SWAP2 SWAP1 PUSH2 0x4CB JUMP JUMPDEST SWAP1 POP PUSH0 JUMPDEST PUSH0 DUP1 SLOAD SWAP1 POP DUP2 LT ISZERO PUSH2 0x279 JUMPI PUSH0 DUP2 DUP2 SLOAD DUP2 LT PUSH2 0x201 JUMPI PUSH2 0x200 PUSH2 0x4FB JUMP JUMPDEST JUMPDEST SWAP1 PUSH0 MSTORE PUSH1 0x20 PUSH0 KECCAK256 ADD PUSH0 SWAP1 SLOAD SWAP1 PUSH2 0x100 EXP SWAP1 DIV PUSH20 0xFFFFFFFFFFFFFFFFFFFFFFFFFFFFFFFFFFFFFFFF AND PUSH20 0xFFFFFFFFFFFFFFFFFFFFFFFFFFFFFFFFFFFFFFFF AND PUSH2 0x8FC DUP4 SWAP1 DUP2 ISZERO MUL SWAP1 PUSH1 0x40 MLOAD PUSH0 PUSH1 0x40 MLOAD DUP1 DUP4 SUB DUP2 DUP6 DUP9 DUP9 CALL SWAP4 POP POP POP POP ISZERO DUP1 ISZERO PUSH2 0x26B JUMPI RETURNDATASIZE PUSH0 DUP1 RETURNDATACOPY RETURNDATASIZE PUSH0 REVERT JUMPDEST POP DUP1 DUP1 PUSH1 0x1 ADD SWAP2 POP POP PUSH2 0x1E2 JUMP JUMPDEST POP PUSH32 0x5723D08BE3077FDB9E2A8CD075CD2EB73AB2D7A325E9702B8D31F7D45D95637 PUSH0 DUP3 PUSH1 0x40 MLOAD PUSH2 0x2AB SWAP3 SWAP2 SWAP1 PUSH2 0x608 JUMP JUMPDEST PUSH1 0x40 MLOAD DUP1 SWAP2 SUB SWAP1 LOG1 POP POP JUMP JUMPDEST PUSH0 PUSH20 0xFFFFFFFFFFFFFFFFFFFFFFFFFFFFFFFFFFFFFFFF DUP3 AND SWAP1 POP SWAP2 SWAP1 POP JUMP JUMPDEST PUSH0 PUSH2 0x2E0 DUP3 PUSH2 0x2B7 JUMP JUMPDEST SWAP1 POP SWAP2 SWAP1 POP JUMP JUMPDEST PUSH2 0x2F0 DUP2 PUSH2 0x2D6 JUMP JUMPDEST DUP3 MSTORE POP POP JUMP JUMPDEST PUSH0 DUP2 SWAP1 POP SWAP2 SWAP1 POP JUMP JUMPDEST PUSH2 0x308 DUP2 PUSH2 0x2F6 JUMP JUMPDEST DUP3 MSTORE POP POP JUMP JUMPDEST PUSH0 PUSH1 0x40 DUP3 ADD SWAP1 POP PUSH2 0x321 PUSH0 DUP4 ADD DUP6 PUSH2 0x2E7 JUMP JUMPDEST PUSH2 0x32E PUSH1 0x20 DUP4 ADD DUP5 PUSH2 0x2FF JUMP JUMPDEST SWAP4 SWAP3 POP POP POP JUMP JUMPDEST PUSH0 DUP2 MLOAD SWAP1 POP SWAP2 SWAP1 POP JUMP JUMPDEST PUSH0 DUP3 DUP3 MSTORE PUSH1 0x20 DUP3 ADD SWAP1 POP SWAP3 SWAP2 POP POP JUMP JUMPDEST PUSH0 DUP2 SWAP1 POP PUSH1 0x20 DUP3 ADD SWAP1 POP SWAP2 SWAP1 POP JUMP JUMPDEST PUSH0 PUSH2 0x368 DUP3 PUSH2 0x2B7 JUMP JUMPDEST SWAP1 POP SWAP2 SWAP1 POP JUMP JUMPDEST PUSH2 0x378 DUP2 PUSH2 0x35E JUMP JUMPDEST DUP3 MSTORE POP POP JUMP JUMPDEST PUSH0 PUSH2 0x389 DUP4 DUP4 PUSH2 0x36F JUMP JUMPDEST PUSH1 0x20 DUP4 ADD SWAP1 POP SWAP3 SWAP2 POP POP JUMP JUMPDEST PUSH0 PUSH1 0x20 DUP3 ADD SWAP1 POP SWAP2 SWAP1 POP JUMP JUMPDEST PUSH0 PUSH2 0x3AB DUP3 PUSH2 0x335 JUMP JUMPDEST PUSH2 0x3B5 DUP2 DUP6 PUSH2 0x33F JUMP JUMPDEST SWAP4 POP PUSH2 0x3C0 DUP4 PUSH2 0x34F JUMP JUMPDEST DUP1 PUSH0 JUMPDEST DUP4 DUP2 LT ISZERO PUSH2 0x3F0 JUMPI DUP2 MLOAD PUSH2 0x3D7 DUP9 DUP3 PUSH2 0x37E JUMP JUMPDEST SWAP8 POP PUSH2 0x3E2 DUP4 PUSH2 0x395 JUMP JUMPDEST SWAP3 POP POP PUSH1 0x1 DUP2 ADD SWAP1 POP PUSH2 0x3C3 JUMP JUMPDEST POP DUP6 SWAP4 POP POP POP POP SWAP3 SWAP2 POP POP JUMP JUMPDEST PUSH0 PUSH1 0x20 DUP3 ADD SWAP1 POP DUP2 DUP2 SUB PUSH0 DUP4 ADD MSTORE PUSH2 0x415 DUP2 DUP5 PUSH2 0x3A1 JUMP JUMPDEST SWAP1 POP SWAP3 SWAP2 POP POP JUMP JUMPDEST PUSH0 DUP1 REVERT JUMPDEST PUSH2 0x42A DUP2 PUSH2 0x2F6 JUMP JUMPDEST DUP2 EQ PUSH2 0x434 JUMPI PUSH0 DUP1 REVERT JUMPDEST POP JUMP JUMPDEST PUSH0 DUP2 CALLDATALOAD SWAP1 POP PUSH2 0x445 DUP2 PUSH2 0x421 JUMP JUMPDEST SWAP3 SWAP2 POP POP JUMP JUMPDEST PUSH0 PUSH1 0x20 DUP3 DUP5 SUB SLT ISZERO PUSH2 0x460 JUMPI PUSH2 0x45F PUSH2 0x41D JUMP JUMPDEST JUMPDEST PUSH0 PUSH2 0x46D DUP5 DUP3 DUP6 ADD PUSH2 0x437 JUMP JUMPDEST SWAP2 POP POP SWAP3 SWAP2 POP POP JUMP JUMPDEST PUSH2 0x47F DUP2 PUSH2 0x35E JUMP JUMPDEST DUP3 MSTORE POP POP JUMP JUMPDEST PUSH0 PUSH1 0x20 DUP3 ADD SWAP1 POP PUSH2 0x498 PUSH0 DUP4 ADD DUP5 PUSH2 0x476 JUMP JUMPDEST SWAP3 SWAP2 POP POP JUMP JUMPDEST PUSH32 0x4E487B7100000000000000000000000000000000000000000000000000000000 PUSH0 MSTORE PUSH1 0x12 PUSH1 0x4 MSTORE PUSH1 0x24 PUSH0 REVERT JUMPDEST PUSH0 PUSH2 0x4D5 DUP3 PUSH2 0x2F6 JUMP JUMPDEST SWAP2 POP PUSH2 0x4E0 DUP4 PUSH2 0x2F6 JUMP JUMPDEST SWAP3 POP DUP3 PUSH2 0x4F0 JUMPI PUSH2 0x4EF PUSH2 0x49E JUMP JUMPDEST JUMPDEST DUP3 DUP3 DIV SWAP1 POP SWAP3 SWAP2 POP POP JUMP JUMPDEST PUSH32 0x4E487B7100000000000000000000000000000000000000000000000000000000 PUSH0 MSTORE PUSH1 0x32 PUSH1 0x4 MSTORE PUSH1 0x24 PUSH0 REVERT JUMPDEST PUSH0 DUP2 SLOAD SWAP1 POP SWAP2 SWAP1 POP JUMP JUMPDEST PUSH0 DUP2 SWAP1 POP DUP2 PUSH0 MSTORE PUSH1 0x20 PUSH0 KECCAK256 SWAP1 POP SWAP2 SWAP1 POP JUMP JUMPDEST PUSH0 DUP2 PUSH0 SHR SWAP1 POP SWAP2 SWAP1 POP JUMP JUMPDEST PUSH0 PUSH20 0xFFFFFFFFFFFFFFFFFFFFFFFFFFFFFFFFFFFFFFFF DUP3 AND SWAP1 POP SWAP2 SWAP1 POP JUMP JUMPDEST PUSH0 PUSH2 0x580 PUSH2 0x57B DUP4 PUSH2 0x544 JUMP JUMPDEST PUSH2 0x54F JUMP JUMPDEST SWAP1 POP SWAP2 SWAP1 POP JUMP JUMPDEST PUSH0 PUSH2 0x592 DUP3 SLOAD PUSH2 0x56E JUMP JUMPDEST SWAP1 POP SWAP2 SWAP1 POP JUMP JUMPDEST PUSH0 PUSH1 0x1 DUP3 ADD SWAP1 POP SWAP2 SWAP1 POP JUMP JUMPDEST PUSH0 PUSH2 0x5AF DUP3 PUSH2 0x528 JUMP JUMPDEST PUSH2 0x5B9 DUP2 DUP6 PUSH2 0x33F JUMP JUMPDEST SWAP4 POP PUSH2 0x5C4 DUP4 PUSH2 0x532 JUMP JUMPDEST DUP1 PUSH0 JUMPDEST DUP4 DUP2 LT ISZERO PUSH2 0x5FB JUMPI PUSH2 0x5D8 DUP3 PUSH2 0x587 JUMP JUMPDEST PUSH2 0x5E2 DUP9 DUP3 PUSH2 0x37E JUMP JUMPDEST SWAP8 POP PUSH2 0x5ED DUP4 PUSH2 0x599 JUMP JUMPDEST SWAP3 POP POP PUSH1 0x1 DUP2 ADD SWAP1 POP PUSH2 0x5C7 JUMP JUMPDEST POP DUP6 SWAP4 POP POP POP POP SWAP3 SWAP2 POP POP JUMP JUMPDEST PUSH0 PUSH1 0x40 DUP3 ADD SWAP1 POP DUP2 DUP2 SUB PUSH0 DUP4 ADD MSTORE PUSH2 0x620 DUP2 DUP6 PUSH2 0x5A5 JUMP JUMPDEST SWAP1 POP PUSH2 0x62F PUSH1 0x20 DUP4 ADD DUP5 PUSH2 0x2FF JUMP JUMPDEST SWAP4 SWAP3 POP POP POP JUMP INVALID LOG2 PUSH5 0x6970667358 0x22 SLT KECCAK256 PUSH9 0xB41302B9046B8BE9FD MLOAD MULMOD 0xF7 0xE0 SWAP16 0xE1 CALLCODE DUP10 DUP16 0xAB 0xBD 0xDC 0xD5 0xB6 PUSH1 0x74 SELFDESTRUCT 0x4B RETURNDATASIZE 0xB3 0xCE 0x1E PUSH5 0x736F6C6343 STOP ADDMOD NOT STOP CALLER "
				},
				"gasEstimates": {
					"creation": {
						"codeDepositCost": "328800",
						"executionCost": "infinite",
						"totalCost": "infinite"
					},
					"external": {
						"beneficiaries(uint256)": "4943",
						"distributeFunds(uint256)": "infinite",
						"getBeneficiaries()": "infinite"
					}
				},
				"methodIdentifiers": {
					"beneficiaries(uint256)": "efeb5e58",
					"distributeFunds(uint256)": "f726f715",
					"getBeneficiaries()": "913b722c"
				}
			},
			"storageLayout": {
				"storage": [
					{
						"astId": 4,
						"contract": "contracts/MultiBeneficiary.sol:MultiBeneficiary",
						"label": "beneficiaries",
						"offset": 0,
						"slot": "0",
						"type": "t_array(t_address_payable)dyn_storage"
					}
				],
				"types": {
					"t_address_payable": {
						"encoding": "inplace",
						"label": "address payable",
						"numberOfBytes": "20"
					},
					"t_array(t_address_payable)dyn_storage": {
						"base": "t_address_payable",
						"encoding": "dynamic_array",
						"label": "address payable[]",
						"numberOfBytes": "32"
					}
				}
			},
			"userdoc": {
				"kind": "user",
				"methods": {},
				"version": 1
			}
		}
	}
}