{
	"contracts/VotingStart.sol": {
		"Voting": {
			"abi": [
				{
					"inputs": [
						{
							"internalType": "uint256",
							"name": "argNrReqVotes",
							"type": "uint256"
						}
					],
					"stateMutability": "nonpayable",
					"type": "constructor"
				},
				{
					"anonymous": false,
					"inputs": [
						{
							"indexed": true,
							"internalType": "address",
							"name": "voter",
							"type": "address"
						}
					],
					"name": "NewVote",
					"type": "event"
				},
				{
					"anonymous": false,
					"inputs": [
						{
							"indexed": true,
							"internalType": "bytes32",
							"name": "projectName",
							"type": "bytes32"
						},
						{
							"indexed": true,
							"internalType": "string",
							"name": "teamName",
							"type": "string"
						},
						{
							"indexed": true,
							"internalType": "uint256",
							"name": "state",
							"type": "uint256"
						}
					],
					"name": "UpdateProposalState",
					"type": "event"
				},
				{
					"inputs": [],
					"name": "chairperson",
					"outputs": [
						{
							"internalType": "address",
							"name": "",
							"type": "address"
						}
					],
					"stateMutability": "view",
					"type": "function"
				},
				{
					"inputs": [
						{
							"internalType": "uint256",
							"name": "",
							"type": "uint256"
						}
					],
					"name": "proposals",
					"outputs": [
						{
							"internalType": "bytes32",
							"name": "projectName",
							"type": "bytes32"
						},
						{
							"internalType": "string",
							"name": "teamName",
							"type": "string"
						},
						{
							"internalType": "uint256",
							"name": "voteCount",
							"type": "uint256"
						},
						{
							"internalType": "enum Voting.State",
							"name": "state",
							"type": "uint8"
						}
					],
					"stateMutability": "view",
					"type": "function"
				},
				{
					"inputs": [
						{
							"internalType": "bytes32",
							"name": "projectName",
							"type": "bytes32"
						},
						{
							"internalType": "string",
							"name": "teamName",
							"type": "string"
						}
					],
					"name": "registerProposal",
					"outputs": [],
					"stateMutability": "nonpayable",
					"type": "function"
				},
				{
					"inputs": [
						{
							"internalType": "bytes32",
							"name": "givenToken",
							"type": "bytes32"
						}
					],
					"name": "registerVoter",
					"outputs": [
						{
							"internalType": "bytes32",
							"name": "generatedToken",
							"type": "bytes32"
						}
					],
					"stateMutability": "nonpayable",
					"type": "function"
				},
				{
					"inputs": [
						{
							"internalType": "uint256",
							"name": "idx",
							"type": "uint256"
						},
						{
							"internalType": "enum Voting.State",
							"name": "state",
							"type": "uint8"
						}
					],
					"name": "setProposalState",
					"outputs": [],
					"stateMutability": "nonpayable",
					"type": "function"
				},
				{
					"inputs": [
						{
							"internalType": "uint256[]",
							"name": "v",
							"type": "uint256[]"
						}
					],
					"name": "sort",
					"outputs": [
						{
							"internalType": "uint256[]",
							"name": "",
							"type": "uint256[]"
						}
					],
					"stateMutability": "pure",
					"type": "function"
				},
				{
					"inputs": [
						{
							"internalType": "uint256[]",
							"name": "votes",
							"type": "uint256[]"
						},
						{
							"internalType": "bytes32",
							"name": "token",
							"type": "bytes32"
						}
					],
					"name": "vote",
					"outputs": [],
					"stateMutability": "nonpayable",
					"type": "function"
				},
				{
					"inputs": [
						{
							"internalType": "address",
							"name": "",
							"type": "address"
						}
					],
					"name": "voters",
					"outputs": [
						{
							"internalType": "bool",
							"name": "voted",
							"type": "bool"
						},
						{
							"internalType": "bytes32",
							"name": "token",
							"type": "bytes32"
						}
					],
					"stateMutability": "view",
					"type": "function"
				},
				{
					"inputs": [],
					"name": "winningProposal",
					"outputs": [
						{
							"internalType": "uint256",
							"name": "winningProposalId",
							"type": "uint256"
						}
					],
					"stateMutability": "view",
					"type": "function"
				}
			],
			"devdoc": {
				"kind": "dev",
				"methods": {},
				"version": 1
			},
			"evm": {
				"assembly": "    /* \"contracts/VotingStart.sol\":70:4424  contract Voting{... */\n  mstore(0x40, 0x80)\n    /* \"contracts/VotingStart.sol\":2068:2273  constructor(uint argNrReqVotes) {... */\n  callvalue\n  dup1\n  iszero\n  tag_1\n  jumpi\n  0x00\n  dup1\n  revert\ntag_1:\n  pop\n  mload(0x40)\n  sub(codesize, bytecodeSize)\n  dup1\n  bytecodeSize\n  dup4\n  codecopy\n  dup2\n  dup2\n  add\n  0x40\n  mstore\n  dup2\n  add\n  swap1\n  tag_2\n  swap2\n  swap1\n  tag_3\n  jump\t// in\ntag_2:\n    /* \"contracts/VotingStart.sol\":2124:2134  msg.sender */\n  caller\n    /* \"contracts/VotingStart.sol\":2110:2121  chairperson */\n  0x00\n  dup1\n    /* \"contracts/VotingStart.sol\":2110:2134  chairperson = msg.sender */\n  0x0100\n  exp\n  dup2\n  sload\n  dup2\n  0xffffffffffffffffffffffffffffffffffffffff\n  mul\n  not\n  and\n  swap1\n  dup4\n  0xffffffffffffffffffffffffffffffffffffffff\n  and\n  mul\n  or\n  swap1\n  sstore\n  pop\n    /* \"contracts/VotingStart.sol\":2176:2183  10 days */\n  0x0d2f00\n    /* \"contracts/VotingStart.sol\":2158:2173  block.timestamp */\n  timestamp\n    /* \"contracts/VotingStart.sol\":2158:2183  block.timestamp + 10 days */\n  tag_6\n  swap2\n  swap1\n  tag_7\n  jump\t// in\ntag_6:\n    /* \"contracts/VotingStart.sol\":2144:2155  endRegister */\n  0x01\n    /* \"contracts/VotingStart.sol\":2144:2183  endRegister = block.timestamp + 10 days */\n  dup2\n  swap1\n  sstore\n  pop\n    /* \"contracts/VotingStart.sol\":2223:2230  20 days */\n  0x1a5e00\n    /* \"contracts/VotingStart.sol\":2205:2220  block.timestamp */\n  timestamp\n    /* \"contracts/VotingStart.sol\":2205:2230  block.timestamp + 20 days */\n  tag_8\n  swap2\n  swap1\n  tag_7\n  jump\t// in\ntag_8:\n    /* \"contracts/VotingStart.sol\":2193:2202  endVoting */\n  0x02\n    /* \"contracts/VotingStart.sol\":2193:2230  endVoting = block.timestamp + 20 days */\n  dup2\n  swap1\n  sstore\n  pop\n    /* \"contracts/VotingStart.sol\":2253:2266  argNrReqVotes */\n  dup1\n    /* \"contracts/VotingStart.sol\":2240:2250  nrReqVotes */\n  0x07\n    /* \"contracts/VotingStart.sol\":2240:2266  nrReqVotes = argNrReqVotes */\n  dup2\n  swap1\n  sstore\n  pop\n    /* \"contracts/VotingStart.sol\":2068:2273  constructor(uint argNrReqVotes) {... */\n  pop\n    /* \"contracts/VotingStart.sol\":70:4424  contract Voting{... */\n  jump(tag_9)\n    /* \"#utility.yul\":88:205   */\ntag_11:\n    /* \"#utility.yul\":197:198   */\n  0x00\n    /* \"#utility.yul\":194:195   */\n  dup1\n    /* \"#utility.yul\":187:199   */\n  revert\n    /* \"#utility.yul\":334:411   */\ntag_13:\n    /* \"#utility.yul\":371:378   */\n  0x00\n    /* \"#utility.yul\":400:405   */\n  dup2\n    /* \"#utility.yul\":389:405   */\n  swap1\n  pop\n    /* \"#utility.yul\":334:411   */\n  swap2\n  swap1\n  pop\n  jump\t// out\n    /* \"#utility.yul\":417:539   */\ntag_14:\n    /* \"#utility.yul\":490:514   */\n  tag_23\n    /* \"#utility.yul\":508:513   */\n  dup2\n    /* \"#utility.yul\":490:514   */\n  tag_13\n  jump\t// in\ntag_23:\n    /* \"#utility.yul\":483:488   */\n  dup2\n    /* \"#utility.yul\":480:515   */\n  eq\n    /* \"#utility.yul\":470:533   */\n  tag_24\n  jumpi\n    /* \"#utility.yul\":529:530   */\n  0x00\n    /* \"#utility.yul\":526:527   */\n  dup1\n    /* \"#utility.yul\":519:531   */\n  revert\n    /* \"#utility.yul\":470:533   */\ntag_24:\n    /* \"#utility.yul\":417:539   */\n  pop\n  jump\t// out\n    /* \"#utility.yul\":545:688   */\ntag_15:\n    /* \"#utility.yul\":602:607   */\n  0x00\n    /* \"#utility.yul\":633:639   */\n  dup2\n    /* \"#utility.yul\":627:640   */\n  mload\n    /* \"#utility.yul\":618:640   */\n  swap1\n  pop\n    /* \"#utility.yul\":649:682   */\n  tag_26\n    /* \"#utility.yul\":676:681   */\n  dup2\n    /* \"#utility.yul\":649:682   */\n  tag_14\n  jump\t// in\ntag_26:\n    /* \"#utility.yul\":545:688   */\n  swap3\n  swap2\n  pop\n  pop\n  jump\t// out\n    /* \"#utility.yul\":694:1045   */\ntag_3:\n    /* \"#utility.yul\":764:770   */\n  0x00\n    /* \"#utility.yul\":813:815   */\n  0x20\n    /* \"#utility.yul\":801:810   */\n  dup3\n    /* \"#utility.yul\":792:799   */\n  dup5\n    /* \"#utility.yul\":788:811   */\n  sub\n    /* \"#utility.yul\":784:816   */\n  slt\n    /* \"#utility.yul\":781:900   */\n  iszero\n  tag_28\n  jumpi\n    /* \"#utility.yul\":819:898   */\n  tag_29\n  tag_11\n  jump\t// in\ntag_29:\n    /* \"#utility.yul\":781:900   */\ntag_28:\n    /* \"#utility.yul\":939:940   */\n  0x00\n    /* \"#utility.yul\":964:1028   */\n  tag_30\n    /* \"#utility.yul\":1020:1027   */\n  dup5\n    /* \"#utility.yul\":1011:1017   */\n  dup3\n    /* \"#utility.yul\":1000:1009   */\n  dup6\n    /* \"#utility.yul\":996:1018   */\n  add\n    /* \"#utility.yul\":964:1028   */\n  tag_15\n  jump\t// in\ntag_30:\n    /* \"#utility.yul\":954:1028   */\n  swap2\n  pop\n    /* \"#utility.yul\":910:1038   */\n  pop\n    /* \"#utility.yul\":694:1045   */\n  swap3\n  swap2\n  pop\n  pop\n  jump\t// out\n    /* \"#utility.yul\":1051:1231   */\ntag_16:\n    /* \"#utility.yul\":1099:1176   */\n  0x4e487b7100000000000000000000000000000000000000000000000000000000\n    /* \"#utility.yul\":1096:1097   */\n  0x00\n    /* \"#utility.yul\":1089:1177   */\n  mstore\n    /* \"#utility.yul\":1196:1200   */\n  0x11\n    /* \"#utility.yul\":1193:1194   */\n  0x04\n    /* \"#utility.yul\":1186:1201   */\n  mstore\n    /* \"#utility.yul\":1220:1224   */\n  0x24\n    /* \"#utility.yul\":1217:1218   */\n  0x00\n    /* \"#utility.yul\":1210:1225   */\n  revert\n    /* \"#utility.yul\":1237:1428   */\ntag_7:\n    /* \"#utility.yul\":1277:1280   */\n  0x00\n    /* \"#utility.yul\":1296:1316   */\n  tag_33\n    /* \"#utility.yul\":1314:1315   */\n  dup3\n    /* \"#utility.yul\":1296:1316   */\n  tag_13\n  jump\t// in\ntag_33:\n    /* \"#utility.yul\":1291:1316   */\n  swap2\n  pop\n    /* \"#utility.yul\":1330:1350   */\n  tag_34\n    /* \"#utility.yul\":1348:1349   */\n  dup4\n    /* \"#utility.yul\":1330:1350   */\n  tag_13\n  jump\t// in\ntag_34:\n    /* \"#utility.yul\":1325:1350   */\n  swap3\n  pop\n    /* \"#utility.yul\":1373:1374   */\n  dup3\n    /* \"#utility.yul\":1370:1371   */\n  dup3\n    /* \"#utility.yul\":1366:1375   */\n  add\n    /* \"#utility.yul\":1359:1375   */\n  swap1\n  pop\n    /* \"#utility.yul\":1394:1397   */\n  dup1\n    /* \"#utility.yul\":1391:1392   */\n  dup3\n    /* \"#utility.yul\":1388:1398   */\n  gt\n    /* \"#utility.yul\":1385:1421   */\n  iszero\n  tag_35\n  jumpi\n    /* \"#utility.yul\":1401:1419   */\n  tag_36\n  tag_16\n  jump\t// in\ntag_36:\n    /* \"#utility.yul\":1385:1421   */\ntag_35:\n    /* \"#utility.yul\":1237:1428   */\n  swap3\n  swap2\n  pop\n  pop\n  jump\t// out\n    /* \"contracts/VotingStart.sol\":70:4424  contract Voting{... */\ntag_9:\n  dataSize(sub_0)\n  dup1\n  dataOffset(sub_0)\n  0x00\n  codecopy\n  0x00\n  return\nstop\n\nsub_0: assembly {\n        /* \"contracts/VotingStart.sol\":70:4424  contract Voting{... */\n      mstore(0x40, 0x80)\n      callvalue\n      dup1\n      iszero\n      tag_1\n      jumpi\n      0x00\n      dup1\n      revert\n    tag_1:\n      pop\n      jumpi(tag_2, lt(calldatasize, 0x04))\n      shr(0xe0, calldataload(0x00))\n      dup1\n      0x609ff1bd\n      gt\n      tag_12\n      jumpi\n      dup1\n      0x609ff1bd\n      eq\n      tag_7\n      jumpi\n      dup1\n      0x793c5d21\n      eq\n      tag_8\n      jumpi\n      dup1\n      0x9ec8b026\n      eq\n      tag_9\n      jumpi\n      dup1\n      0xa3ec138d\n      eq\n      tag_10\n      jumpi\n      dup1\n      0xddbf695a\n      eq\n      tag_11\n      jumpi\n      jump(tag_2)\n    tag_12:\n      dup1\n      0x013cf08b\n      eq\n      tag_3\n      jumpi\n      dup1\n      0x0fb26697\n      eq\n      tag_4\n      jumpi\n      dup1\n      0x2e4176cf\n      eq\n      tag_5\n      jumpi\n      dup1\n      0x45e53035\n      eq\n      tag_6\n      jumpi\n    tag_2:\n      0x00\n      dup1\n      revert\n        /* \"contracts/VotingStart.sol\":2012:2039  Proposal[] public proposals */\n    tag_3:\n      tag_13\n      0x04\n      dup1\n      calldatasize\n      sub\n      dup2\n      add\n      swap1\n      tag_14\n      swap2\n      swap1\n      tag_15\n      jump\t// in\n    tag_14:\n      tag_16\n      jump\t// in\n    tag_13:\n      mload(0x40)\n      tag_17\n      swap5\n      swap4\n      swap3\n      swap2\n      swap1\n      tag_18\n      jump\t// in\n    tag_17:\n      mload(0x40)\n      dup1\n      swap2\n      sub\n      swap1\n      return\n        /* \"contracts/VotingStart.sol\":2748:3115  function setProposalState(uint idx, State state) external onlyChairPerson votingActive {... */\n    tag_4:\n      tag_19\n      0x04\n      dup1\n      calldatasize\n      sub\n      dup2\n      add\n      swap1\n      tag_20\n      swap2\n      swap1\n      tag_21\n      jump\t// in\n    tag_20:\n      tag_22\n      jump\t// in\n    tag_19:\n      stop\n        /* \"contracts/VotingStart.sol\":1805:1831  address public chairperson */\n    tag_5:\n      tag_23\n      tag_24\n      jump\t// in\n    tag_23:\n      mload(0x40)\n      tag_25\n      swap2\n      swap1\n      tag_26\n      jump\t// in\n    tag_25:\n      mload(0x40)\n      dup1\n      swap2\n      sub\n      swap1\n      return\n        /* \"contracts/VotingStart.sol\":2280:2742  function registerProposal(bytes32 projectName, string memory teamName) external {... */\n    tag_6:\n      tag_27\n      0x04\n      dup1\n      calldatasize\n      sub\n      dup2\n      add\n      swap1\n      tag_28\n      swap2\n      swap1\n      tag_29\n      jump\t// in\n    tag_28:\n      tag_30\n      jump\t// in\n    tag_27:\n      stop\n        /* \"contracts/VotingStart.sol\":4042:4421  function winningProposal() public view votingEnded onlyChairPerson returns (uint winningProposalId) {... */\n    tag_7:\n      tag_31\n      tag_32\n      jump\t// in\n    tag_31:\n      mload(0x40)\n      tag_33\n      swap2\n      swap1\n      tag_34\n      jump\t// in\n    tag_33:\n      mload(0x40)\n      dup1\n      swap2\n      sub\n      swap1\n      return\n        /* \"contracts/VotingStart.sol\":3121:3538  function registerVoter(bytes32 givenToken) external votingActive returns (bytes32 generatedToken) {... */\n    tag_8:\n      tag_35\n      0x04\n      dup1\n      calldatasize\n      sub\n      dup2\n      add\n      swap1\n      tag_36\n      swap2\n      swap1\n      tag_37\n      jump\t// in\n    tag_36:\n      tag_38\n      jump\t// in\n    tag_35:\n      mload(0x40)\n      tag_39\n      swap2\n      swap1\n      tag_40\n      jump\t// in\n    tag_39:\n      mload(0x40)\n      dup1\n      swap2\n      sub\n      swap1\n      return\n        /* \"contracts/VotingStart.sol\":1167:1536  function sort(uint[] memory v) public pure returns (uint[] memory) {... */\n    tag_9:\n      tag_41\n      0x04\n      dup1\n      calldatasize\n      sub\n      dup2\n      add\n      swap1\n      tag_42\n      swap2\n      swap1\n      tag_43\n      jump\t// in\n    tag_42:\n      tag_44\n      jump\t// in\n    tag_41:\n      mload(0x40)\n      tag_45\n      swap2\n      swap1\n      tag_46\n      jump\t// in\n    tag_45:\n      mload(0x40)\n      dup1\n      swap2\n      sub\n      swap1\n      return\n        /* \"contracts/VotingStart.sol\":1881:1920  mapping(address => Voter) public voters */\n    tag_10:\n      tag_47\n      0x04\n      dup1\n      calldatasize\n      sub\n      dup2\n      add\n      swap1\n      tag_48\n      swap2\n      swap1\n      tag_49\n      jump\t// in\n    tag_48:\n      tag_50\n      jump\t// in\n    tag_47:\n      mload(0x40)\n      tag_51\n      swap3\n      swap2\n      swap1\n      tag_52\n      jump\t// in\n    tag_51:\n      mload(0x40)\n      dup1\n      swap2\n      sub\n      swap1\n      return\n        /* \"contracts/VotingStart.sol\":3544:4036  function vote(uint[] memory votes, bytes32 token) external votingActive validVote(votes, nrReqVotes) {... */\n    tag_11:\n      tag_53\n      0x04\n      dup1\n      calldatasize\n      sub\n      dup2\n      add\n      swap1\n      tag_54\n      swap2\n      swap1\n      tag_55\n      jump\t// in\n    tag_54:\n      tag_56\n      jump\t// in\n    tag_53:\n      stop\n        /* \"contracts/VotingStart.sol\":2012:2039  Proposal[] public proposals */\n    tag_16:\n      0x06\n      dup2\n      dup2\n      sload\n      dup2\n      lt\n      tag_57\n      jumpi\n      0x00\n      dup1\n      revert\n    tag_57:\n      swap1\n      0x00\n      mstore\n      keccak256(0x00, 0x20)\n      swap1\n      0x04\n      mul\n      add\n      0x00\n      swap2\n      pop\n      swap1\n      pop\n      dup1\n      0x00\n      add\n      sload\n      swap1\n      dup1\n      0x01\n      add\n      dup1\n      sload\n      tag_59\n      swap1\n      tag_60\n      jump\t// in\n    tag_59:\n      dup1\n      0x1f\n      add\n      0x20\n      dup1\n      swap2\n      div\n      mul\n      0x20\n      add\n      mload(0x40)\n      swap1\n      dup2\n      add\n      0x40\n      mstore\n      dup1\n      swap3\n      swap2\n      swap1\n      dup2\n      dup2\n      mstore\n      0x20\n      add\n      dup3\n      dup1\n      sload\n      tag_61\n      swap1\n      tag_60\n      jump\t// in\n    tag_61:\n      dup1\n      iszero\n      tag_62\n      jumpi\n      dup1\n      0x1f\n      lt\n      tag_63\n      jumpi\n      0x0100\n      dup1\n      dup4\n      sload\n      div\n      mul\n      dup4\n      mstore\n      swap2\n      0x20\n      add\n      swap2\n      jump(tag_62)\n    tag_63:\n      dup3\n      add\n      swap2\n      swap1\n      0x00\n      mstore\n      keccak256(0x00, 0x20)\n      swap1\n    tag_64:\n      dup2\n      sload\n      dup2\n      mstore\n      swap1\n      0x01\n      add\n      swap1\n      0x20\n      add\n      dup1\n      dup4\n      gt\n      tag_64\n      jumpi\n      dup3\n      swap1\n      sub\n      0x1f\n      and\n      dup3\n      add\n      swap2\n    tag_62:\n      pop\n      pop\n      pop\n      pop\n      pop\n      swap1\n      dup1\n      0x02\n      add\n      sload\n      swap1\n      dup1\n      0x03\n      add\n      0x00\n      swap1\n      sload\n      swap1\n      0x0100\n      exp\n      swap1\n      div\n      0xff\n      and\n      swap1\n      pop\n      dup5\n      jump\t// out\n        /* \"contracts/VotingStart.sol\":2748:3115  function setProposalState(uint idx, State state) external onlyChairPerson votingActive {... */\n    tag_22:\n        /* \"contracts/VotingStart.sol\":533:544  chairperson */\n      0x00\n      dup1\n      sload\n      swap1\n      0x0100\n      exp\n      swap1\n      div\n      0xffffffffffffffffffffffffffffffffffffffff\n      and\n        /* \"contracts/VotingStart.sol\":519:544  msg.sender == chairperson */\n      0xffffffffffffffffffffffffffffffffffffffff\n      and\n        /* \"contracts/VotingStart.sol\":519:529  msg.sender */\n      caller\n        /* \"contracts/VotingStart.sol\":519:544  msg.sender == chairperson */\n      0xffffffffffffffffffffffffffffffffffffffff\n      and\n      eq\n        /* \"contracts/VotingStart.sol\":511:589  require(msg.sender == chairperson, \"Only chairperson can perform this action\") */\n      tag_66\n      jumpi\n      mload(0x40)\n      0x08c379a000000000000000000000000000000000000000000000000000000000\n      dup2\n      mstore\n      0x04\n      add\n      tag_67\n      swap1\n      tag_68\n      jump\t// in\n    tag_67:\n      mload(0x40)\n      dup1\n      swap2\n      sub\n      swap1\n      revert\n    tag_66:\n        /* \"contracts/VotingStart.sol\":301:310  endVoting */\n      sload(0x02)\n        /* \"contracts/VotingStart.sol\":282:297  block.timestamp */\n      timestamp\n        /* \"contracts/VotingStart.sol\":282:310  block.timestamp <= endVoting */\n      gt\n      iszero\n        /* \"contracts/VotingStart.sol\":274:331  require(block.timestamp <= endVoting, \"Voting has ended\") */\n      tag_70\n      jumpi\n      mload(0x40)\n      0x08c379a000000000000000000000000000000000000000000000000000000000\n      dup2\n      mstore\n      0x04\n      add\n      tag_71\n      swap1\n      tag_72\n      jump\t// in\n    tag_71:\n      mload(0x40)\n      dup1\n      swap2\n      sub\n      swap1\n      revert\n    tag_70:\n        /* \"contracts/VotingStart.sol\":2877:2882  state */\n      dup1\n        /* \"contracts/VotingStart.sol\":2853:2882  proposals[idx].state != state */\n      0x02\n      dup2\n      gt\n      iszero\n      tag_74\n      jumpi\n      tag_75\n      tag_76\n      jump\t// in\n    tag_75:\n    tag_74:\n        /* \"contracts/VotingStart.sol\":2853:2862  proposals */\n      0x06\n        /* \"contracts/VotingStart.sol\":2863:2866  idx */\n      dup4\n        /* \"contracts/VotingStart.sol\":2853:2867  proposals[idx] */\n      dup2\n      sload\n      dup2\n      lt\n      tag_77\n      jumpi\n      tag_78\n      tag_79\n      jump\t// in\n    tag_78:\n    tag_77:\n      swap1\n      0x00\n      mstore\n      keccak256(0x00, 0x20)\n      swap1\n      0x04\n      mul\n      add\n        /* \"contracts/VotingStart.sol\":2853:2873  proposals[idx].state */\n      0x03\n      add\n      0x00\n      swap1\n      sload\n      swap1\n      0x0100\n      exp\n      swap1\n      div\n      0xff\n      and\n        /* \"contracts/VotingStart.sol\":2853:2882  proposals[idx].state != state */\n      0x02\n      dup2\n      gt\n      iszero\n      tag_81\n      jumpi\n      tag_82\n      tag_76\n      jump\t// in\n    tag_82:\n    tag_81:\n      eq\n      iszero\n        /* \"contracts/VotingStart.sol\":2853:2952  proposals[idx].state != state && !(proposals[idx].state == State.Active && state == State.Inactive) */\n      dup1\n      iszero\n      tag_83\n      jumpi\n      pop\n        /* \"contracts/VotingStart.sol\":2912:2924  State.Active */\n      0x00\n        /* \"contracts/VotingStart.sol\":2888:2924  proposals[idx].state == State.Active */\n      0x02\n      dup2\n      gt\n      iszero\n      tag_84\n      jumpi\n      tag_85\n      tag_76\n      jump\t// in\n    tag_85:\n    tag_84:\n        /* \"contracts/VotingStart.sol\":2888:2897  proposals */\n      0x06\n        /* \"contracts/VotingStart.sol\":2898:2901  idx */\n      dup4\n        /* \"contracts/VotingStart.sol\":2888:2902  proposals[idx] */\n      dup2\n      sload\n      dup2\n      lt\n      tag_86\n      jumpi\n      tag_87\n      tag_79\n      jump\t// in\n    tag_87:\n    tag_86:\n      swap1\n      0x00\n      mstore\n      keccak256(0x00, 0x20)\n      swap1\n      0x04\n      mul\n      add\n        /* \"contracts/VotingStart.sol\":2888:2908  proposals[idx].state */\n      0x03\n      add\n      0x00\n      swap1\n      sload\n      swap1\n      0x0100\n      exp\n      swap1\n      div\n      0xff\n      and\n        /* \"contracts/VotingStart.sol\":2888:2924  proposals[idx].state == State.Active */\n      0x02\n      dup2\n      gt\n      iszero\n      tag_89\n      jumpi\n      tag_90\n      tag_76\n      jump\t// in\n    tag_90:\n    tag_89:\n      eq\n        /* \"contracts/VotingStart.sol\":2888:2951  proposals[idx].state == State.Active && state == State.Inactive */\n      dup1\n      iszero\n      tag_91\n      jumpi\n      pop\n        /* \"contracts/VotingStart.sol\":2937:2951  State.Inactive */\n      0x01\n        /* \"contracts/VotingStart.sol\":2928:2951  state == State.Inactive */\n      0x02\n      dup2\n      gt\n      iszero\n      tag_92\n      jumpi\n      tag_93\n      tag_76\n      jump\t// in\n    tag_93:\n    tag_92:\n        /* \"contracts/VotingStart.sol\":2928:2933  state */\n      dup2\n        /* \"contracts/VotingStart.sol\":2928:2951  state == State.Inactive */\n      0x02\n      dup2\n      gt\n      iszero\n      tag_94\n      jumpi\n      tag_95\n      tag_76\n      jump\t// in\n    tag_95:\n    tag_94:\n      eq\n        /* \"contracts/VotingStart.sol\":2888:2951  proposals[idx].state == State.Active && state == State.Inactive */\n    tag_91:\n        /* \"contracts/VotingStart.sol\":2886:2952  !(proposals[idx].state == State.Active && state == State.Inactive) */\n      iszero\n        /* \"contracts/VotingStart.sol\":2853:2952  proposals[idx].state != state && !(proposals[idx].state == State.Active && state == State.Inactive) */\n    tag_83:\n        /* \"contracts/VotingStart.sol\":2845:2970  require(proposals[idx].state != state && !(proposals[idx].state == State.Active && state == State.Inactive), \"Invalid state\") */\n      tag_96\n      jumpi\n      mload(0x40)\n      0x08c379a000000000000000000000000000000000000000000000000000000000\n      dup2\n      mstore\n      0x04\n      add\n      tag_97\n      swap1\n      tag_98\n      jump\t// in\n    tag_97:\n      mload(0x40)\n      dup1\n      swap2\n      sub\n      swap1\n      revert\n    tag_96:\n        /* \"contracts/VotingStart.sol\":3003:3008  state */\n      dup1\n        /* \"contracts/VotingStart.sol\":2980:2989  proposals */\n      0x06\n        /* \"contracts/VotingStart.sol\":2990:2993  idx */\n      dup4\n        /* \"contracts/VotingStart.sol\":2980:2994  proposals[idx] */\n      dup2\n      sload\n      dup2\n      lt\n      tag_99\n      jumpi\n      tag_100\n      tag_79\n      jump\t// in\n    tag_100:\n    tag_99:\n      swap1\n      0x00\n      mstore\n      keccak256(0x00, 0x20)\n      swap1\n      0x04\n      mul\n      add\n        /* \"contracts/VotingStart.sol\":2980:3000  proposals[idx].state */\n      0x03\n      add\n      0x00\n        /* \"contracts/VotingStart.sol\":2980:3008  proposals[idx].state = state */\n      0x0100\n      exp\n      dup2\n      sload\n      dup2\n      0xff\n      mul\n      not\n      and\n      swap1\n      dup4\n      0x02\n      dup2\n      gt\n      iszero\n      tag_102\n      jumpi\n      tag_103\n      tag_76\n      jump\t// in\n    tag_103:\n    tag_102:\n      mul\n      or\n      swap1\n      sstore\n      pop\n        /* \"contracts/VotingStart.sol\":3101:3106  state */\n      dup1\n        /* \"contracts/VotingStart.sol\":3096:3107  uint(state) */\n      0x02\n      dup2\n      gt\n      iszero\n      tag_104\n      jumpi\n      tag_105\n      tag_76\n      jump\t// in\n    tag_105:\n    tag_104:\n        /* \"contracts/VotingStart.sol\":3071:3080  proposals */\n      0x06\n        /* \"contracts/VotingStart.sol\":3081:3084  idx */\n      dup4\n        /* \"contracts/VotingStart.sol\":3071:3085  proposals[idx] */\n      dup2\n      sload\n      dup2\n      lt\n      tag_106\n      jumpi\n      tag_107\n      tag_79\n      jump\t// in\n    tag_107:\n    tag_106:\n      swap1\n      0x00\n      mstore\n      keccak256(0x00, 0x20)\n      swap1\n      0x04\n      mul\n      add\n        /* \"contracts/VotingStart.sol\":3071:3094  proposals[idx].teamName */\n      0x01\n      add\n        /* \"contracts/VotingStart.sol\":3023:3108  UpdateProposalState(proposals[idx].projectName, proposals[idx].teamName, uint(state)) */\n      mload(0x40)\n      tag_109\n      swap2\n      swap1\n      tag_110\n      jump\t// in\n    tag_109:\n      mload(0x40)\n      dup1\n      swap2\n      sub\n      swap1\n      keccak256\n        /* \"contracts/VotingStart.sol\":3043:3052  proposals */\n      0x06\n        /* \"contracts/VotingStart.sol\":3053:3056  idx */\n      dup5\n        /* \"contracts/VotingStart.sol\":3043:3057  proposals[idx] */\n      dup2\n      sload\n      dup2\n      lt\n      tag_111\n      jumpi\n      tag_112\n      tag_79\n      jump\t// in\n    tag_112:\n    tag_111:\n      swap1\n      0x00\n      mstore\n      keccak256(0x00, 0x20)\n      swap1\n      0x04\n      mul\n      add\n        /* \"contracts/VotingStart.sol\":3043:3069  proposals[idx].projectName */\n      0x00\n      add\n      sload\n        /* \"contracts/VotingStart.sol\":3023:3108  UpdateProposalState(proposals[idx].projectName, proposals[idx].teamName, uint(state)) */\n      0x2ee87f96343b2e2f3333691b4746e840eba35d697fc530be504dc07d848e9783\n      mload(0x40)\n      mload(0x40)\n      dup1\n      swap2\n      sub\n      swap1\n      log4\n        /* \"contracts/VotingStart.sol\":2748:3115  function setProposalState(uint idx, State state) external onlyChairPerson votingActive {... */\n      pop\n      pop\n      jump\t// out\n        /* \"contracts/VotingStart.sol\":1805:1831  address public chairperson */\n    tag_24:\n      0x00\n      dup1\n      sload\n      swap1\n      0x0100\n      exp\n      swap1\n      div\n      0xffffffffffffffffffffffffffffffffffffffff\n      and\n      dup2\n      jump\t// out\n        /* \"contracts/VotingStart.sol\":2280:2742  function registerProposal(bytes32 projectName, string memory teamName) external {... */\n    tag_30:\n        /* \"contracts/VotingStart.sol\":2397:2408  endRegister */\n      sload(0x01)\n        /* \"contracts/VotingStart.sol\":2378:2393  block.timestamp */\n      timestamp\n        /* \"contracts/VotingStart.sol\":2378:2408  block.timestamp <= endRegister */\n      gt\n      iszero\n        /* \"contracts/VotingStart.sol\":2370:2435  require(block.timestamp <= endRegister, \"Registration has ended\") */\n      tag_115\n      jumpi\n      mload(0x40)\n      0x08c379a000000000000000000000000000000000000000000000000000000000\n      dup2\n      mstore\n      0x04\n      add\n      tag_116\n      swap1\n      tag_117\n      jump\t// in\n    tag_116:\n      mload(0x40)\n      dup1\n      swap2\n      sub\n      swap1\n      revert\n    tag_115:\n        /* \"contracts/VotingStart.sol\":2475:2476  0 */\n      0x00\n        /* \"contracts/VotingStart.sol\":2453:2476  projects[teamName] == 0 */\n      dup1\n      shl\n        /* \"contracts/VotingStart.sol\":2453:2461  projects */\n      0x05\n        /* \"contracts/VotingStart.sol\":2462:2470  teamName */\n      dup3\n        /* \"contracts/VotingStart.sol\":2453:2471  projects[teamName] */\n      mload(0x40)\n      tag_118\n      swap2\n      swap1\n      tag_119\n      jump\t// in\n    tag_118:\n      swap1\n      dup2\n      mstore\n      0x20\n      add\n      mload(0x40)\n      dup1\n      swap2\n      sub\n      swap1\n      keccak256\n      sload\n        /* \"contracts/VotingStart.sol\":2453:2476  projects[teamName] == 0 */\n      eq\n        /* \"contracts/VotingStart.sol\":2445:2516  require(projects[teamName] == 0, \"Team has already register a project\") */\n      tag_120\n      jumpi\n      mload(0x40)\n      0x08c379a000000000000000000000000000000000000000000000000000000000\n      dup2\n      mstore\n      0x04\n      add\n      tag_121\n      swap1\n      tag_122\n      jump\t// in\n    tag_121:\n      mload(0x40)\n      dup1\n      swap2\n      sub\n      swap1\n      revert\n    tag_120:\n        /* \"contracts/VotingStart.sol\":2526:2535  proposals */\n      0x06\n        /* \"contracts/VotingStart.sol\":2541:2692  Proposal({... */\n      mload(0x40)\n      dup1\n      0x80\n      add\n      0x40\n      mstore\n      dup1\n        /* \"contracts/VotingStart.sol\":2577:2588  projectName */\n      dup5\n        /* \"contracts/VotingStart.sol\":2541:2692  Proposal({... */\n      dup2\n      mstore\n      0x20\n      add\n        /* \"contracts/VotingStart.sol\":2612:2620  teamName */\n      dup4\n        /* \"contracts/VotingStart.sol\":2541:2692  Proposal({... */\n      dup2\n      mstore\n      0x20\n      add\n        /* \"contracts/VotingStart.sol\":2645:2646  0 */\n      0x00\n        /* \"contracts/VotingStart.sol\":2541:2692  Proposal({... */\n      dup2\n      mstore\n      0x20\n      add\n        /* \"contracts/VotingStart.sol\":2667:2681  State.Inactive */\n      0x01\n        /* \"contracts/VotingStart.sol\":2541:2692  Proposal({... */\n      0x02\n      dup2\n      gt\n      iszero\n      tag_123\n      jumpi\n      tag_124\n      tag_76\n      jump\t// in\n    tag_124:\n    tag_123:\n      dup2\n      mstore\n      pop\n        /* \"contracts/VotingStart.sol\":2526:2693  proposals.push(Proposal({... */\n      swap1\n      dup1\n      0x01\n      dup2\n      sload\n      add\n      dup1\n      dup3\n      sstore\n      dup1\n      swap2\n      pop\n      pop\n      0x01\n      swap1\n      sub\n      swap1\n      0x00\n      mstore\n      keccak256(0x00, 0x20)\n      swap1\n      0x04\n      mul\n      add\n      0x00\n      swap1\n      swap2\n      swap1\n      swap2\n      swap1\n      swap2\n      pop\n      0x00\n      dup3\n      add\n      mload\n      dup2\n      0x00\n      add\n      sstore\n      0x20\n      dup3\n      add\n      mload\n      dup2\n      0x01\n      add\n      swap1\n      dup2\n      tag_126\n      swap2\n      swap1\n      tag_127\n      jump\t// in\n    tag_126:\n      pop\n      0x40\n      dup3\n      add\n      mload\n      dup2\n      0x02\n      add\n      sstore\n      0x60\n      dup3\n      add\n      mload\n      dup2\n      0x03\n      add\n      exp(0x0100, 0x00)\n      dup2\n      sload\n      dup2\n      0xff\n      mul\n      not\n      and\n      swap1\n      dup4\n      0x02\n      dup2\n      gt\n      iszero\n      tag_128\n      jumpi\n      tag_129\n      tag_76\n      jump\t// in\n    tag_129:\n    tag_128:\n      mul\n      or\n      swap1\n      sstore\n      pop\n      pop\n      pop\n        /* \"contracts/VotingStart.sol\":2724:2735  projectName */\n      dup2\n        /* \"contracts/VotingStart.sol\":2703:2711  projects */\n      0x05\n        /* \"contracts/VotingStart.sol\":2712:2720  teamName */\n      dup3\n        /* \"contracts/VotingStart.sol\":2703:2721  projects[teamName] */\n      mload(0x40)\n      tag_130\n      swap2\n      swap1\n      tag_119\n      jump\t// in\n    tag_130:\n      swap1\n      dup2\n      mstore\n      0x20\n      add\n      mload(0x40)\n      dup1\n      swap2\n      sub\n      swap1\n      keccak256\n        /* \"contracts/VotingStart.sol\":2703:2735  projects[teamName] = projectName */\n      dup2\n      swap1\n      sstore\n      pop\n        /* \"contracts/VotingStart.sol\":2280:2742  function registerProposal(bytes32 projectName, string memory teamName) external {... */\n      pop\n      pop\n      jump\t// out\n        /* \"contracts/VotingStart.sol\":4042:4421  function winningProposal() public view votingEnded onlyChairPerson returns (uint winningProposalId) {... */\n    tag_32:\n        /* \"contracts/VotingStart.sol\":4118:4140  uint winningProposalId */\n      0x00\n        /* \"contracts/VotingStart.sol\":414:423  endVoting */\n      sload(0x02)\n        /* \"contracts/VotingStart.sol\":396:411  block.timestamp */\n      timestamp\n        /* \"contracts/VotingStart.sol\":396:423  block.timestamp > endVoting */\n      gt\n        /* \"contracts/VotingStart.sol\":388:450  require(block.timestamp > endVoting, \"Voting is still active\") */\n      tag_132\n      jumpi\n      mload(0x40)\n      0x08c379a000000000000000000000000000000000000000000000000000000000\n      dup2\n      mstore\n      0x04\n      add\n      tag_133\n      swap1\n      tag_134\n      jump\t// in\n    tag_133:\n      mload(0x40)\n      dup1\n      swap2\n      sub\n      swap1\n      revert\n    tag_132:\n        /* \"contracts/VotingStart.sol\":533:544  chairperson */\n      0x00\n      dup1\n      sload\n      swap1\n      0x0100\n      exp\n      swap1\n      div\n      0xffffffffffffffffffffffffffffffffffffffff\n      and\n        /* \"contracts/VotingStart.sol\":519:544  msg.sender == chairperson */\n      0xffffffffffffffffffffffffffffffffffffffff\n      and\n        /* \"contracts/VotingStart.sol\":519:529  msg.sender */\n      caller\n        /* \"contracts/VotingStart.sol\":519:544  msg.sender == chairperson */\n      0xffffffffffffffffffffffffffffffffffffffff\n      and\n      eq\n        /* \"contracts/VotingStart.sol\":511:589  require(msg.sender == chairperson, \"Only chairperson can perform this action\") */\n      tag_136\n      jumpi\n      mload(0x40)\n      0x08c379a000000000000000000000000000000000000000000000000000000000\n      dup2\n      mstore\n      0x04\n      add\n      tag_137\n      swap1\n      tag_68\n      jump\t// in\n    tag_137:\n      mload(0x40)\n      dup1\n      swap2\n      sub\n      swap1\n      revert\n    tag_136:\n        /* \"contracts/VotingStart.sol\":4152:4173  uint winningVoteCount */\n      0x00\n        /* \"contracts/VotingStart.sol\":4192:4198  uint p */\n      dup1\n        /* \"contracts/VotingStart.sol\":4187:4415  for (uint p = 0; p < proposals.length; p++) {... */\n    tag_139:\n        /* \"contracts/VotingStart.sol\":4208:4217  proposals */\n      0x06\n        /* \"contracts/VotingStart.sol\":4208:4224  proposals.length */\n      dup1\n      sload\n      swap1\n      pop\n        /* \"contracts/VotingStart.sol\":4204:4205  p */\n      dup2\n        /* \"contracts/VotingStart.sol\":4204:4224  p < proposals.length */\n      lt\n        /* \"contracts/VotingStart.sol\":4187:4415  for (uint p = 0; p < proposals.length; p++) {... */\n      iszero\n      tag_140\n      jumpi\n        /* \"contracts/VotingStart.sol\":4274:4290  winningVoteCount */\n      dup2\n        /* \"contracts/VotingStart.sol\":4249:4258  proposals */\n      0x06\n        /* \"contracts/VotingStart.sol\":4259:4260  p */\n      dup3\n        /* \"contracts/VotingStart.sol\":4249:4261  proposals[p] */\n      dup2\n      sload\n      dup2\n      lt\n      tag_142\n      jumpi\n      tag_143\n      tag_79\n      jump\t// in\n    tag_143:\n    tag_142:\n      swap1\n      0x00\n      mstore\n      keccak256(0x00, 0x20)\n      swap1\n      0x04\n      mul\n      add\n        /* \"contracts/VotingStart.sol\":4249:4271  proposals[p].voteCount */\n      0x02\n      add\n      sload\n        /* \"contracts/VotingStart.sol\":4249:4290  proposals[p].voteCount > winningVoteCount */\n      gt\n        /* \"contracts/VotingStart.sol\":4245:4405  if (proposals[p].voteCount > winningVoteCount) {... */\n      iszero\n      tag_145\n      jumpi\n        /* \"contracts/VotingStart.sol\":4329:4338  proposals */\n      0x06\n        /* \"contracts/VotingStart.sol\":4339:4340  p */\n      dup2\n        /* \"contracts/VotingStart.sol\":4329:4341  proposals[p] */\n      dup2\n      sload\n      dup2\n      lt\n      tag_146\n      jumpi\n      tag_147\n      tag_79\n      jump\t// in\n    tag_147:\n    tag_146:\n      swap1\n      0x00\n      mstore\n      keccak256(0x00, 0x20)\n      swap1\n      0x04\n      mul\n      add\n        /* \"contracts/VotingStart.sol\":4329:4351  proposals[p].voteCount */\n      0x02\n      add\n      sload\n        /* \"contracts/VotingStart.sol\":4310:4351  winningVoteCount = proposals[p].voteCount */\n      swap2\n      pop\n        /* \"contracts/VotingStart.sol\":4389:4390  p */\n      dup1\n        /* \"contracts/VotingStart.sol\":4369:4390  winningProposalId = p */\n      swap3\n      pop\n        /* \"contracts/VotingStart.sol\":4245:4405  if (proposals[p].voteCount > winningVoteCount) {... */\n    tag_145:\n        /* \"contracts/VotingStart.sol\":4226:4229  p++ */\n      dup1\n      dup1\n      0x01\n      add\n      swap2\n      pop\n      pop\n        /* \"contracts/VotingStart.sol\":4187:4415  for (uint p = 0; p < proposals.length; p++) {... */\n      jump(tag_139)\n    tag_140:\n      pop\n        /* \"contracts/VotingStart.sol\":4142:4421  {... */\n      pop\n        /* \"contracts/VotingStart.sol\":4042:4421  function winningProposal() public view votingEnded onlyChairPerson returns (uint winningProposalId) {... */\n      swap1\n      jump\t// out\n        /* \"contracts/VotingStart.sol\":3121:3538  function registerVoter(bytes32 givenToken) external votingActive returns (bytes32 generatedToken) {... */\n    tag_38:\n        /* \"contracts/VotingStart.sol\":3195:3217  bytes32 generatedToken */\n      0x00\n        /* \"contracts/VotingStart.sol\":301:310  endVoting */\n      sload(0x02)\n        /* \"contracts/VotingStart.sol\":282:297  block.timestamp */\n      timestamp\n        /* \"contracts/VotingStart.sol\":282:310  block.timestamp <= endVoting */\n      gt\n      iszero\n        /* \"contracts/VotingStart.sol\":274:331  require(block.timestamp <= endVoting, \"Voting has ended\") */\n      tag_150\n      jumpi\n      mload(0x40)\n      0x08c379a000000000000000000000000000000000000000000000000000000000\n      dup2\n      mstore\n      0x04\n      add\n      tag_151\n      swap1\n      tag_72\n      jump\t// in\n    tag_151:\n      mload(0x40)\n      dup1\n      swap2\n      sub\n      swap1\n      revert\n    tag_150:\n        /* \"contracts/VotingStart.sol\":3274:3284  givenToken */\n      dup2\n        /* \"contracts/VotingStart.sol\":3286:3296  msg.sender */\n      caller\n        /* \"contracts/VotingStart.sol\":3257:3297  abi.encodePacked(givenToken, msg.sender) */\n      add(0x20, mload(0x40))\n      tag_153\n      swap3\n      swap2\n      swap1\n      tag_154\n      jump\t// in\n    tag_153:\n      mload(0x40)\n      0x20\n      dup2\n      dup4\n      sub\n      sub\n      dup2\n      mstore\n      swap1\n      0x40\n      mstore\n        /* \"contracts/VotingStart.sol\":3247:3298  keccak256(abi.encodePacked(givenToken, msg.sender)) */\n      dup1\n      mload\n      swap1\n      0x20\n      add\n      keccak256\n        /* \"contracts/VotingStart.sol\":3229:3298  generatedToken =  keccak256(abi.encodePacked(givenToken, msg.sender)) */\n      swap1\n      pop\n        /* \"contracts/VotingStart.sol\":3354:3355  0 */\n      0x00\n        /* \"contracts/VotingStart.sol\":3316:3356  voteTokens[generatedToken] == address(0) */\n      0xffffffffffffffffffffffffffffffffffffffff\n      and\n        /* \"contracts/VotingStart.sol\":3316:3326  voteTokens */\n      0x04\n        /* \"contracts/VotingStart.sol\":3316:3342  voteTokens[generatedToken] */\n      0x00\n        /* \"contracts/VotingStart.sol\":3327:3341  generatedToken */\n      dup4\n        /* \"contracts/VotingStart.sol\":3316:3342  voteTokens[generatedToken] */\n      dup2\n      mstore\n      0x20\n      add\n      swap1\n      dup2\n      mstore\n      0x20\n      add\n      0x00\n      keccak256\n      0x00\n      swap1\n      sload\n      swap1\n      0x0100\n      exp\n      swap1\n      div\n      0xffffffffffffffffffffffffffffffffffffffff\n      and\n        /* \"contracts/VotingStart.sol\":3316:3356  voteTokens[generatedToken] == address(0) */\n      0xffffffffffffffffffffffffffffffffffffffff\n      and\n      eq\n        /* \"contracts/VotingStart.sol\":3308:3389  require(voteTokens[generatedToken] == address(0), \"Token has been already used!\") */\n      tag_155\n      jumpi\n      mload(0x40)\n      0x08c379a000000000000000000000000000000000000000000000000000000000\n      dup2\n      mstore\n      0x04\n      add\n      tag_156\n      swap1\n      tag_157\n      jump\t// in\n    tag_156:\n      mload(0x40)\n      dup1\n      swap2\n      sub\n      swap1\n      revert\n    tag_155:\n        /* \"contracts/VotingStart.sol\":3426:3440  generatedToken */\n      dup1\n        /* \"contracts/VotingStart.sol\":3399:3405  voters */\n      0x03\n        /* \"contracts/VotingStart.sol\":3399:3417  voters[msg.sender] */\n      0x00\n        /* \"contracts/VotingStart.sol\":3406:3416  msg.sender */\n      caller\n        /* \"contracts/VotingStart.sol\":3399:3417  voters[msg.sender] */\n      0xffffffffffffffffffffffffffffffffffffffff\n      and\n      0xffffffffffffffffffffffffffffffffffffffff\n      and\n      dup2\n      mstore\n      0x20\n      add\n      swap1\n      dup2\n      mstore\n      0x20\n      add\n      0x00\n      keccak256\n        /* \"contracts/VotingStart.sol\":3399:3423  voters[msg.sender].token */\n      0x01\n      add\n        /* \"contracts/VotingStart.sol\":3399:3440  voters[msg.sender].token = generatedToken */\n      dup2\n      swap1\n      sstore\n      pop\n        /* \"contracts/VotingStart.sol\":3477:3482  false */\n      0x00\n        /* \"contracts/VotingStart.sol\":3450:3456  voters */\n      0x03\n        /* \"contracts/VotingStart.sol\":3450:3468  voters[msg.sender] */\n      0x00\n        /* \"contracts/VotingStart.sol\":3457:3467  msg.sender */\n      caller\n        /* \"contracts/VotingStart.sol\":3450:3468  voters[msg.sender] */\n      0xffffffffffffffffffffffffffffffffffffffff\n      and\n      0xffffffffffffffffffffffffffffffffffffffff\n      and\n      dup2\n      mstore\n      0x20\n      add\n      swap1\n      dup2\n      mstore\n      0x20\n      add\n      0x00\n      keccak256\n        /* \"contracts/VotingStart.sol\":3450:3474  voters[msg.sender].voted */\n      0x00\n      add\n      0x00\n        /* \"contracts/VotingStart.sol\":3450:3482  voters[msg.sender].voted = false */\n      0x0100\n      exp\n      dup2\n      sload\n      dup2\n      0xff\n      mul\n      not\n      and\n      swap1\n      dup4\n      iszero\n      iszero\n      mul\n      or\n      swap1\n      sstore\n      pop\n        /* \"contracts/VotingStart.sol\":3521:3531  msg.sender */\n      caller\n        /* \"contracts/VotingStart.sol\":3492:3502  voteTokens */\n      0x04\n        /* \"contracts/VotingStart.sol\":3492:3518  voteTokens[generatedToken] */\n      0x00\n        /* \"contracts/VotingStart.sol\":3503:3517  generatedToken */\n      dup4\n        /* \"contracts/VotingStart.sol\":3492:3518  voteTokens[generatedToken] */\n      dup2\n      mstore\n      0x20\n      add\n      swap1\n      dup2\n      mstore\n      0x20\n      add\n      0x00\n      keccak256\n      0x00\n        /* \"contracts/VotingStart.sol\":3492:3531  voteTokens[generatedToken] = msg.sender */\n      0x0100\n      exp\n      dup2\n      sload\n      dup2\n      0xffffffffffffffffffffffffffffffffffffffff\n      mul\n      not\n      and\n      swap1\n      dup4\n      0xffffffffffffffffffffffffffffffffffffffff\n      and\n      mul\n      or\n      swap1\n      sstore\n      pop\n        /* \"contracts/VotingStart.sol\":3121:3538  function registerVoter(bytes32 givenToken) external votingActive returns (bytes32 generatedToken) {... */\n      swap2\n      swap1\n      pop\n      jump\t// out\n        /* \"contracts/VotingStart.sol\":1167:1536  function sort(uint[] memory v) public pure returns (uint[] memory) {... */\n    tag_44:\n        /* \"contracts/VotingStart.sol\":1219:1232  uint[] memory */\n      0x60\n        /* \"contracts/VotingStart.sol\":1244:1252  uint len */\n      0x00\n        /* \"contracts/VotingStart.sol\":1255:1256  v */\n      dup3\n        /* \"contracts/VotingStart.sol\":1255:1263  v.length */\n      mload\n        /* \"contracts/VotingStart.sol\":1244:1263  uint len = v.length */\n      swap1\n      pop\n        /* \"contracts/VotingStart.sol\":1278:1284  uint i */\n      0x00\n        /* \"contracts/VotingStart.sol\":1273:1512  for (uint i = 0; i < len - 1; i++) {... */\n    tag_159:\n        /* \"contracts/VotingStart.sol\":1300:1301  1 */\n      0x01\n        /* \"contracts/VotingStart.sol\":1294:1297  len */\n      dup3\n        /* \"contracts/VotingStart.sol\":1294:1301  len - 1 */\n      tag_162\n      swap2\n      swap1\n      tag_163\n      jump\t// in\n    tag_162:\n        /* \"contracts/VotingStart.sol\":1290:1291  i */\n      dup2\n        /* \"contracts/VotingStart.sol\":1290:1301  i < len - 1 */\n      lt\n        /* \"contracts/VotingStart.sol\":1273:1512  for (uint i = 0; i < len - 1; i++) {... */\n      iszero\n      tag_160\n      jumpi\n        /* \"contracts/VotingStart.sol\":1331:1337  uint j */\n      0x00\n        /* \"contracts/VotingStart.sol\":1326:1502  for (uint j = 0; j < len - i - 1; j++) {... */\n    tag_164:\n        /* \"contracts/VotingStart.sol\":1357:1358  1 */\n      0x01\n        /* \"contracts/VotingStart.sol\":1353:1354  i */\n      dup3\n        /* \"contracts/VotingStart.sol\":1347:1350  len */\n      dup5\n        /* \"contracts/VotingStart.sol\":1347:1354  len - i */\n      tag_167\n      swap2\n      swap1\n      tag_163\n      jump\t// in\n    tag_167:\n        /* \"contracts/VotingStart.sol\":1347:1358  len - i - 1 */\n      tag_168\n      swap2\n      swap1\n      tag_163\n      jump\t// in\n    tag_168:\n        /* \"contracts/VotingStart.sol\":1343:1344  j */\n      dup2\n        /* \"contracts/VotingStart.sol\":1343:1358  j < len - i - 1 */\n      lt\n        /* \"contracts/VotingStart.sol\":1326:1502  for (uint j = 0; j < len - i - 1; j++) {... */\n      iszero\n      tag_165\n      jumpi\n        /* \"contracts/VotingStart.sol\":1398:1399  v */\n      dup5\n        /* \"contracts/VotingStart.sol\":1404:1405  1 */\n      0x01\n        /* \"contracts/VotingStart.sol\":1400:1401  j */\n      dup3\n        /* \"contracts/VotingStart.sol\":1400:1405  j + 1 */\n      tag_169\n      swap2\n      swap1\n      tag_170\n      jump\t// in\n    tag_169:\n        /* \"contracts/VotingStart.sol\":1398:1406  v[j + 1] */\n      dup2\n      mload\n      dup2\n      lt\n      tag_171\n      jumpi\n      tag_172\n      tag_79\n      jump\t// in\n    tag_172:\n    tag_171:\n      0x20\n      mul\n      0x20\n      add\n      add\n      mload\n        /* \"contracts/VotingStart.sol\":1391:1392  v */\n      dup6\n        /* \"contracts/VotingStart.sol\":1393:1394  j */\n      dup3\n        /* \"contracts/VotingStart.sol\":1391:1395  v[j] */\n      dup2\n      mload\n      dup2\n      lt\n      tag_173\n      jumpi\n      tag_174\n      tag_79\n      jump\t// in\n    tag_174:\n    tag_173:\n      0x20\n      mul\n      0x20\n      add\n      add\n      mload\n        /* \"contracts/VotingStart.sol\":1391:1406  v[j] > v[j + 1] */\n      gt\n        /* \"contracts/VotingStart.sol\":1387:1488  if (v[j] > v[j + 1]) {... */\n      iszero\n      tag_175\n      jumpi\n        /* \"contracts/VotingStart.sol\":1454:1455  v */\n      dup5\n        /* \"contracts/VotingStart.sol\":1460:1461  1 */\n      0x01\n        /* \"contracts/VotingStart.sol\":1456:1457  j */\n      dup3\n        /* \"contracts/VotingStart.sol\":1456:1461  j + 1 */\n      tag_176\n      swap2\n      swap1\n      tag_170\n      jump\t// in\n    tag_176:\n        /* \"contracts/VotingStart.sol\":1454:1462  v[j + 1] */\n      dup2\n      mload\n      dup2\n      lt\n      tag_177\n      jumpi\n      tag_178\n      tag_79\n      jump\t// in\n    tag_178:\n    tag_177:\n      0x20\n      mul\n      0x20\n      add\n      add\n      mload\n        /* \"contracts/VotingStart.sol\":1464:1465  v */\n      dup6\n        /* \"contracts/VotingStart.sol\":1466:1467  j */\n      dup3\n        /* \"contracts/VotingStart.sol\":1464:1468  v[j] */\n      dup2\n      mload\n      dup2\n      lt\n      tag_179\n      jumpi\n      tag_180\n      tag_79\n      jump\t// in\n    tag_180:\n    tag_179:\n      0x20\n      mul\n      0x20\n      add\n      add\n      mload\n        /* \"contracts/VotingStart.sol\":1435:1436  v */\n      dup7\n        /* \"contracts/VotingStart.sol\":1437:1438  j */\n      dup4\n        /* \"contracts/VotingStart.sol\":1435:1439  v[j] */\n      dup2\n      mload\n      dup2\n      lt\n      tag_181\n      jumpi\n      tag_182\n      tag_79\n      jump\t// in\n    tag_182:\n    tag_181:\n      0x20\n      mul\n      0x20\n      add\n      add\n        /* \"contracts/VotingStart.sol\":1441:1442  v */\n      dup8\n        /* \"contracts/VotingStart.sol\":1447:1448  1 */\n      0x01\n        /* \"contracts/VotingStart.sol\":1443:1444  j */\n      dup6\n        /* \"contracts/VotingStart.sol\":1443:1448  j + 1 */\n      tag_183\n      swap2\n      swap1\n      tag_170\n      jump\t// in\n    tag_183:\n        /* \"contracts/VotingStart.sol\":1441:1449  v[j + 1] */\n      dup2\n      mload\n      dup2\n      lt\n      tag_184\n      jumpi\n      tag_185\n      tag_79\n      jump\t// in\n    tag_185:\n    tag_184:\n      0x20\n      mul\n      0x20\n      add\n      add\n        /* \"contracts/VotingStart.sol\":1434:1469  (v[j], v[j + 1]) = (v[j + 1], v[j]) */\n      dup3\n      dup2\n      mstore\n      pop\n      dup3\n      dup2\n      mstore\n      pop\n      pop\n      pop\n        /* \"contracts/VotingStart.sol\":1387:1488  if (v[j] > v[j + 1]) {... */\n    tag_175:\n        /* \"contracts/VotingStart.sol\":1360:1363  j++ */\n      dup1\n      dup1\n      0x01\n      add\n      swap2\n      pop\n      pop\n        /* \"contracts/VotingStart.sol\":1326:1502  for (uint j = 0; j < len - i - 1; j++) {... */\n      jump(tag_164)\n    tag_165:\n      pop\n        /* \"contracts/VotingStart.sol\":1303:1306  i++ */\n      dup1\n      dup1\n      0x01\n      add\n      swap2\n      pop\n      pop\n        /* \"contracts/VotingStart.sol\":1273:1512  for (uint i = 0; i < len - 1; i++) {... */\n      jump(tag_159)\n    tag_160:\n      pop\n        /* \"contracts/VotingStart.sol\":1528:1529  v */\n      dup3\n        /* \"contracts/VotingStart.sol\":1521:1529  return v */\n      swap2\n      pop\n      pop\n        /* \"contracts/VotingStart.sol\":1167:1536  function sort(uint[] memory v) public pure returns (uint[] memory) {... */\n      swap2\n      swap1\n      pop\n      jump\t// out\n        /* \"contracts/VotingStart.sol\":1881:1920  mapping(address => Voter) public voters */\n    tag_50:\n      mstore(0x20, 0x03)\n      dup1\n      0x00\n      mstore\n      keccak256(0x00, 0x40)\n      0x00\n      swap2\n      pop\n      swap1\n      pop\n      dup1\n      0x00\n      add\n      0x00\n      swap1\n      sload\n      swap1\n      0x0100\n      exp\n      swap1\n      div\n      0xff\n      and\n      swap1\n      dup1\n      0x01\n      add\n      sload\n      swap1\n      pop\n      dup3\n      jump\t// out\n        /* \"contracts/VotingStart.sol\":3544:4036  function vote(uint[] memory votes, bytes32 token) external votingActive validVote(votes, nrReqVotes) {... */\n    tag_56:\n        /* \"contracts/VotingStart.sol\":301:310  endVoting */\n      sload(0x02)\n        /* \"contracts/VotingStart.sol\":282:297  block.timestamp */\n      timestamp\n        /* \"contracts/VotingStart.sol\":282:310  block.timestamp <= endVoting */\n      gt\n      iszero\n        /* \"contracts/VotingStart.sol\":274:331  require(block.timestamp <= endVoting, \"Voting has ended\") */\n      tag_187\n      jumpi\n      mload(0x40)\n      0x08c379a000000000000000000000000000000000000000000000000000000000\n      dup2\n      mstore\n      0x04\n      add\n      tag_188\n      swap1\n      tag_72\n      jump\t// in\n    tag_188:\n      mload(0x40)\n      dup1\n      swap2\n      sub\n      swap1\n      revert\n    tag_187:\n        /* \"contracts/VotingStart.sol\":3626:3631  votes */\n      dup2\n        /* \"contracts/VotingStart.sol\":3633:3643  nrReqVotes */\n      sload(0x07)\n        /* \"contracts/VotingStart.sol\":697:700  len */\n      dup1\n        /* \"contracts/VotingStart.sol\":681:686  votes */\n      dup3\n        /* \"contracts/VotingStart.sol\":681:693  votes.length */\n      mload\n        /* \"contracts/VotingStart.sol\":681:700  votes.length == len */\n      eq\n        /* \"contracts/VotingStart.sol\":673:728  require(votes.length == len, \"Invalid number of votes\") */\n      tag_190\n      jumpi\n      mload(0x40)\n      0x08c379a000000000000000000000000000000000000000000000000000000000\n      dup2\n      mstore\n      0x04\n      add\n      tag_191\n      swap1\n      tag_192\n      jump\t// in\n    tag_191:\n      mload(0x40)\n      dup1\n      swap2\n      sub\n      swap1\n      revert\n    tag_190:\n        /* \"contracts/VotingStart.sol\":770:775  false */\n      0x00\n        /* \"contracts/VotingStart.sol\":746:775  hasDuplicates(votes) == false */\n      iszero\n      iszero\n        /* \"contracts/VotingStart.sol\":746:766  hasDuplicates(votes) */\n      tag_193\n        /* \"contracts/VotingStart.sol\":760:765  votes */\n      dup4\n        /* \"contracts/VotingStart.sol\":746:759  hasDuplicates */\n      tag_194\n        /* \"contracts/VotingStart.sol\":746:766  hasDuplicates(votes) */\n      jump\t// in\n    tag_193:\n        /* \"contracts/VotingStart.sol\":746:775  hasDuplicates(votes) == false */\n      iszero\n      iszero\n      eq\n        /* \"contracts/VotingStart.sol\":738:804  require(hasDuplicates(votes) == false, \"Duplicate votes detected\") */\n      tag_195\n      jumpi\n      mload(0x40)\n      0x08c379a000000000000000000000000000000000000000000000000000000000\n      dup2\n      mstore\n      0x04\n      add\n      tag_196\n      swap1\n      tag_197\n      jump\t// in\n    tag_196:\n      mload(0x40)\n      dup1\n      swap2\n      sub\n      swap1\n      revert\n    tag_195:\n        /* \"contracts/VotingStart.sol\":3684:3694  msg.sender */\n      caller\n        /* \"contracts/VotingStart.sol\":3663:3694  voteTokens[token] == msg.sender */\n      0xffffffffffffffffffffffffffffffffffffffff\n      and\n        /* \"contracts/VotingStart.sol\":3663:3673  voteTokens */\n      0x04\n        /* \"contracts/VotingStart.sol\":3663:3680  voteTokens[token] */\n      0x00\n        /* \"contracts/VotingStart.sol\":3674:3679  token */\n      dup6\n        /* \"contracts/VotingStart.sol\":3663:3680  voteTokens[token] */\n      dup2\n      mstore\n      0x20\n      add\n      swap1\n      dup2\n      mstore\n      0x20\n      add\n      0x00\n      keccak256\n      0x00\n      swap1\n      sload\n      swap1\n      0x0100\n      exp\n      swap1\n      div\n      0xffffffffffffffffffffffffffffffffffffffff\n      and\n        /* \"contracts/VotingStart.sol\":3663:3694  voteTokens[token] == msg.sender */\n      0xffffffffffffffffffffffffffffffffffffffff\n      and\n      eq\n        /* \"contracts/VotingStart.sol\":3655:3712  require(voteTokens[token] == msg.sender, \"Invalid token\") */\n      tag_199\n      jumpi\n      mload(0x40)\n      0x08c379a000000000000000000000000000000000000000000000000000000000\n      dup2\n      mstore\n      0x04\n      add\n      tag_200\n      swap1\n      tag_201\n      jump\t// in\n    tag_200:\n      mload(0x40)\n      dup1\n      swap2\n      sub\n      swap1\n      revert\n    tag_199:\n        /* \"contracts/VotingStart.sol\":3759:3764  false */\n      0x00\n        /* \"contracts/VotingStart.sol\":3731:3764  voters[msg.sender].voted == false */\n      iszero\n      iszero\n        /* \"contracts/VotingStart.sol\":3731:3737  voters */\n      0x03\n        /* \"contracts/VotingStart.sol\":3731:3749  voters[msg.sender] */\n      0x00\n        /* \"contracts/VotingStart.sol\":3738:3748  msg.sender */\n      caller\n        /* \"contracts/VotingStart.sol\":3731:3749  voters[msg.sender] */\n      0xffffffffffffffffffffffffffffffffffffffff\n      and\n      0xffffffffffffffffffffffffffffffffffffffff\n      and\n      dup2\n      mstore\n      0x20\n      add\n      swap1\n      dup2\n      mstore\n      0x20\n      add\n      0x00\n      keccak256\n        /* \"contracts/VotingStart.sol\":3731:3755  voters[msg.sender].voted */\n      0x00\n      add\n      0x00\n      swap1\n      sload\n      swap1\n      0x0100\n      exp\n      swap1\n      div\n      0xff\n      and\n        /* \"contracts/VotingStart.sol\":3731:3764  voters[msg.sender].voted == false */\n      iszero\n      iszero\n      eq\n        /* \"contracts/VotingStart.sol\":3723:3793  require(voters[msg.sender].voted == false, \"Voter has already voted!\") */\n      tag_202\n      jumpi\n      mload(0x40)\n      0x08c379a000000000000000000000000000000000000000000000000000000000\n      dup2\n      mstore\n      0x04\n      add\n      tag_203\n      swap1\n      tag_204\n      jump\t// in\n    tag_203:\n      mload(0x40)\n      dup1\n      swap2\n      sub\n      swap1\n      revert\n    tag_202:\n        /* \"contracts/VotingStart.sol\":3807:3813  uint i */\n      0x00\n        /* \"contracts/VotingStart.sol\":3803:3953  for(uint i = 0; i < votes.length; i++){... */\n    tag_205:\n        /* \"contracts/VotingStart.sol\":3823:3828  votes */\n      dup5\n        /* \"contracts/VotingStart.sol\":3823:3835  votes.length */\n      mload\n        /* \"contracts/VotingStart.sol\":3819:3820  i */\n      dup2\n        /* \"contracts/VotingStart.sol\":3819:3835  i < votes.length */\n      lt\n        /* \"contracts/VotingStart.sol\":3803:3953  for(uint i = 0; i < votes.length; i++){... */\n      iszero\n      tag_206\n      jumpi\n        /* \"contracts/VotingStart.sol\":3888:3889  1 */\n      0x01\n        /* \"contracts/VotingStart.sol\":3855:3864  proposals */\n      0x06\n        /* \"contracts/VotingStart.sol\":3865:3870  votes */\n      dup7\n        /* \"contracts/VotingStart.sol\":3871:3872  i */\n      dup4\n        /* \"contracts/VotingStart.sol\":3865:3873  votes[i] */\n      dup2\n      mload\n      dup2\n      lt\n      tag_208\n      jumpi\n      tag_209\n      tag_79\n      jump\t// in\n    tag_209:\n    tag_208:\n      0x20\n      mul\n      0x20\n      add\n      add\n      mload\n        /* \"contracts/VotingStart.sol\":3855:3874  proposals[votes[i]] */\n      dup2\n      sload\n      dup2\n      lt\n      tag_210\n      jumpi\n      tag_211\n      tag_79\n      jump\t// in\n    tag_211:\n    tag_210:\n      swap1\n      0x00\n      mstore\n      keccak256(0x00, 0x20)\n      swap1\n      0x04\n      mul\n      add\n        /* \"contracts/VotingStart.sol\":3855:3884  proposals[votes[i]].voteCount */\n      0x02\n      add\n      0x00\n        /* \"contracts/VotingStart.sol\":3855:3889  proposals[votes[i]].voteCount += 1 */\n      dup3\n      dup3\n      sload\n      tag_213\n      swap2\n      swap1\n      tag_170\n      jump\t// in\n    tag_213:\n      swap3\n      pop\n      pop\n      dup2\n      swap1\n      sstore\n      pop\n        /* \"contracts/VotingStart.sol\":3903:3909  voters */\n      0x03\n        /* \"contracts/VotingStart.sol\":3903:3921  voters[msg.sender] */\n      0x00\n        /* \"contracts/VotingStart.sol\":3910:3920  msg.sender */\n      caller\n        /* \"contracts/VotingStart.sol\":3903:3921  voters[msg.sender] */\n      0xffffffffffffffffffffffffffffffffffffffff\n      and\n      0xffffffffffffffffffffffffffffffffffffffff\n      and\n      dup2\n      mstore\n      0x20\n      add\n      swap1\n      dup2\n      mstore\n      0x20\n      add\n      0x00\n      keccak256\n        /* \"contracts/VotingStart.sol\":3903:3927  voters[msg.sender].votes */\n      0x02\n      add\n        /* \"contracts/VotingStart.sol\":3933:3938  votes */\n      dup6\n        /* \"contracts/VotingStart.sol\":3939:3940  i */\n      dup3\n        /* \"contracts/VotingStart.sol\":3933:3941  votes[i] */\n      dup2\n      mload\n      dup2\n      lt\n      tag_214\n      jumpi\n      tag_215\n      tag_79\n      jump\t// in\n    tag_215:\n    tag_214:\n      0x20\n      mul\n      0x20\n      add\n      add\n      mload\n        /* \"contracts/VotingStart.sol\":3903:3942  voters[msg.sender].votes.push(votes[i]) */\n      swap1\n      dup1\n      0x01\n      dup2\n      sload\n      add\n      dup1\n      dup3\n      sstore\n      dup1\n      swap2\n      pop\n      pop\n      0x01\n      swap1\n      sub\n      swap1\n      0x00\n      mstore\n      keccak256(0x00, 0x20)\n      add\n      0x00\n      swap1\n      swap2\n      swap1\n      swap2\n      swap1\n      swap2\n      pop\n      sstore\n        /* \"contracts/VotingStart.sol\":3837:3840  i++ */\n      dup1\n      dup1\n      0x01\n      add\n      swap2\n      pop\n      pop\n        /* \"contracts/VotingStart.sol\":3803:3953  for(uint i = 0; i < votes.length; i++){... */\n      jump(tag_205)\n    tag_206:\n      pop\n        /* \"contracts/VotingStart.sol\":3990:3994  true */\n      0x01\n        /* \"contracts/VotingStart.sol\":3963:3969  voters */\n      0x03\n        /* \"contracts/VotingStart.sol\":3963:3981  voters[msg.sender] */\n      0x00\n        /* \"contracts/VotingStart.sol\":3970:3980  msg.sender */\n      caller\n        /* \"contracts/VotingStart.sol\":3963:3981  voters[msg.sender] */\n      0xffffffffffffffffffffffffffffffffffffffff\n      and\n      0xffffffffffffffffffffffffffffffffffffffff\n      and\n      dup2\n      mstore\n      0x20\n      add\n      swap1\n      dup2\n      mstore\n      0x20\n      add\n      0x00\n      keccak256\n        /* \"contracts/VotingStart.sol\":3963:3987  voters[msg.sender].voted */\n      0x00\n      add\n      0x00\n        /* \"contracts/VotingStart.sol\":3963:3994  voters[msg.sender].voted = true */\n      0x0100\n      exp\n      dup2\n      sload\n      dup2\n      0xff\n      mul\n      not\n      and\n      swap1\n      dup4\n      iszero\n      iszero\n      mul\n      or\n      swap1\n      sstore\n      pop\n        /* \"contracts/VotingStart.sol\":4018:4028  msg.sender */\n      caller\n        /* \"contracts/VotingStart.sol\":4010:4029  NewVote(msg.sender) */\n      0xffffffffffffffffffffffffffffffffffffffff\n      and\n      0x3b7f4bea1b2462212751e8a9d23ca2a37a1abf7ff729725e224314f1c190c991\n      mload(0x40)\n      mload(0x40)\n      dup1\n      swap2\n      sub\n      swap1\n      log2\n        /* \"contracts/VotingStart.sol\":341:342  _ */\n      pop\n      pop\n        /* \"contracts/VotingStart.sol\":3544:4036  function vote(uint[] memory votes, bytes32 token) external votingActive validVote(votes, nrReqVotes) {... */\n      pop\n      pop\n      jump\t// out\n        /* \"contracts/VotingStart.sol\":828:1161  function hasDuplicates(uint[] memory array) internal pure returns (bool) {... */\n    tag_194:\n        /* \"contracts/VotingStart.sol\":895:899  bool */\n      0x00\n        /* \"contracts/VotingStart.sol\":916:922  uint i */\n      dup1\n        /* \"contracts/VotingStart.sol\":925:926  0 */\n      0x00\n        /* \"contracts/VotingStart.sol\":916:926  uint i = 0 */\n      swap1\n      pop\n        /* \"contracts/VotingStart.sol\":911:1133  for (uint i = 0; i < array.length - 1; i++) {... */\n    tag_218:\n        /* \"contracts/VotingStart.sol\":947:948  1 */\n      0x01\n        /* \"contracts/VotingStart.sol\":932:937  array */\n      dup4\n        /* \"contracts/VotingStart.sol\":932:944  array.length */\n      mload\n        /* \"contracts/VotingStart.sol\":932:948  array.length - 1 */\n      tag_221\n      swap2\n      swap1\n      tag_163\n      jump\t// in\n    tag_221:\n        /* \"contracts/VotingStart.sol\":928:929  i */\n      dup2\n        /* \"contracts/VotingStart.sol\":928:948  i < array.length - 1 */\n      lt\n        /* \"contracts/VotingStart.sol\":911:1133  for (uint i = 0; i < array.length - 1; i++) {... */\n      iszero\n      tag_219\n      jumpi\n        /* \"contracts/VotingStart.sol\":974:980  uint j */\n      0x00\n        /* \"contracts/VotingStart.sol\":987:988  1 */\n      0x01\n        /* \"contracts/VotingStart.sol\":983:984  i */\n      dup3\n        /* \"contracts/VotingStart.sol\":983:988  i + 1 */\n      tag_225\n      swap2\n      swap1\n      tag_170\n      jump\t// in\n    tag_225:\n        /* \"contracts/VotingStart.sol\":974:988  uint j = i + 1 */\n      swap1\n      pop\n        /* \"contracts/VotingStart.sol\":969:1123  for (uint j = i + 1; j < array.length; j++) {... */\n    tag_222:\n        /* \"contracts/VotingStart.sol\":994:999  array */\n      dup4\n        /* \"contracts/VotingStart.sol\":994:1006  array.length */\n      mload\n        /* \"contracts/VotingStart.sol\":990:991  j */\n      dup2\n        /* \"contracts/VotingStart.sol\":990:1006  j < array.length */\n      lt\n        /* \"contracts/VotingStart.sol\":969:1123  for (uint j = i + 1; j < array.length; j++) {... */\n      iszero\n      tag_223\n      jumpi\n        /* \"contracts/VotingStart.sol\":1047:1052  array */\n      dup4\n        /* \"contracts/VotingStart.sol\":1053:1054  j */\n      dup2\n        /* \"contracts/VotingStart.sol\":1047:1055  array[j] */\n      dup2\n      mload\n      dup2\n      lt\n      tag_226\n      jumpi\n      tag_227\n      tag_79\n      jump\t// in\n    tag_227:\n    tag_226:\n      0x20\n      mul\n      0x20\n      add\n      add\n      mload\n        /* \"contracts/VotingStart.sol\":1035:1040  array */\n      dup5\n        /* \"contracts/VotingStart.sol\":1041:1042  i */\n      dup4\n        /* \"contracts/VotingStart.sol\":1035:1043  array[i] */\n      dup2\n      mload\n      dup2\n      lt\n      tag_228\n      jumpi\n      tag_229\n      tag_79\n      jump\t// in\n    tag_229:\n    tag_228:\n      0x20\n      mul\n      0x20\n      add\n      add\n      mload\n        /* \"contracts/VotingStart.sol\":1035:1055  array[i] == array[j] */\n      sub\n        /* \"contracts/VotingStart.sol\":1031:1109  if (array[i] == array[j]) {... */\n      tag_230\n      jumpi\n        /* \"contracts/VotingStart.sol\":1086:1090  true */\n      0x01\n        /* \"contracts/VotingStart.sol\":1079:1090  return true */\n      swap3\n      pop\n      pop\n      pop\n      jump(tag_217)\n        /* \"contracts/VotingStart.sol\":1031:1109  if (array[i] == array[j]) {... */\n    tag_230:\n        /* \"contracts/VotingStart.sol\":1008:1011  j++ */\n      dup1\n      dup1\n      0x01\n      add\n      swap2\n      pop\n      pop\n        /* \"contracts/VotingStart.sol\":969:1123  for (uint j = i + 1; j < array.length; j++) {... */\n      jump(tag_222)\n    tag_223:\n      pop\n        /* \"contracts/VotingStart.sol\":950:953  i++ */\n      dup1\n      dup1\n      0x01\n      add\n      swap2\n      pop\n      pop\n        /* \"contracts/VotingStart.sol\":911:1133  for (uint i = 0; i < array.length - 1; i++) {... */\n      jump(tag_218)\n    tag_219:\n      pop\n        /* \"contracts/VotingStart.sol\":1149:1154  false */\n      0x00\n        /* \"contracts/VotingStart.sol\":1142:1154  return false */\n      swap1\n      pop\n        /* \"contracts/VotingStart.sol\":828:1161  function hasDuplicates(uint[] memory array) internal pure returns (bool) {... */\n    tag_217:\n      swap2\n      swap1\n      pop\n      jump\t// out\n        /* \"#utility.yul\":7:82   */\n    tag_231:\n        /* \"#utility.yul\":40:46   */\n      0x00\n        /* \"#utility.yul\":73:75   */\n      0x40\n        /* \"#utility.yul\":67:76   */\n      mload\n        /* \"#utility.yul\":57:76   */\n      swap1\n      pop\n        /* \"#utility.yul\":7:82   */\n      swap1\n      jump\t// out\n        /* \"#utility.yul\":88:205   */\n    tag_232:\n        /* \"#utility.yul\":197:198   */\n      0x00\n        /* \"#utility.yul\":194:195   */\n      dup1\n        /* \"#utility.yul\":187:199   */\n      revert\n        /* \"#utility.yul\":211:328   */\n    tag_233:\n        /* \"#utility.yul\":320:321   */\n      0x00\n        /* \"#utility.yul\":317:318   */\n      dup1\n        /* \"#utility.yul\":310:322   */\n      revert\n        /* \"#utility.yul\":334:411   */\n    tag_234:\n        /* \"#utility.yul\":371:378   */\n      0x00\n        /* \"#utility.yul\":400:405   */\n      dup2\n        /* \"#utility.yul\":389:405   */\n      swap1\n      pop\n        /* \"#utility.yul\":334:411   */\n      swap2\n      swap1\n      pop\n      jump\t// out\n        /* \"#utility.yul\":417:539   */\n    tag_235:\n        /* \"#utility.yul\":490:514   */\n      tag_334\n        /* \"#utility.yul\":508:513   */\n      dup2\n        /* \"#utility.yul\":490:514   */\n      tag_234\n      jump\t// in\n    tag_334:\n        /* \"#utility.yul\":483:488   */\n      dup2\n        /* \"#utility.yul\":480:515   */\n      eq\n        /* \"#utility.yul\":470:533   */\n      tag_335\n      jumpi\n        /* \"#utility.yul\":529:530   */\n      0x00\n        /* \"#utility.yul\":526:527   */\n      dup1\n        /* \"#utility.yul\":519:531   */\n      revert\n        /* \"#utility.yul\":470:533   */\n    tag_335:\n        /* \"#utility.yul\":417:539   */\n      pop\n      jump\t// out\n        /* \"#utility.yul\":545:684   */\n    tag_236:\n        /* \"#utility.yul\":591:596   */\n      0x00\n        /* \"#utility.yul\":629:635   */\n      dup2\n        /* \"#utility.yul\":616:636   */\n      calldataload\n        /* \"#utility.yul\":607:636   */\n      swap1\n      pop\n        /* \"#utility.yul\":645:678   */\n      tag_337\n        /* \"#utility.yul\":672:677   */\n      dup2\n        /* \"#utility.yul\":645:678   */\n      tag_235\n      jump\t// in\n    tag_337:\n        /* \"#utility.yul\":545:684   */\n      swap3\n      swap2\n      pop\n      pop\n      jump\t// out\n        /* \"#utility.yul\":690:1019   */\n    tag_15:\n        /* \"#utility.yul\":749:755   */\n      0x00\n        /* \"#utility.yul\":798:800   */\n      0x20\n        /* \"#utility.yul\":786:795   */\n      dup3\n        /* \"#utility.yul\":777:784   */\n      dup5\n        /* \"#utility.yul\":773:796   */\n      sub\n        /* \"#utility.yul\":769:801   */\n      slt\n        /* \"#utility.yul\":766:885   */\n      iszero\n      tag_339\n      jumpi\n        /* \"#utility.yul\":804:883   */\n      tag_340\n      tag_232\n      jump\t// in\n    tag_340:\n        /* \"#utility.yul\":766:885   */\n    tag_339:\n        /* \"#utility.yul\":924:925   */\n      0x00\n        /* \"#utility.yul\":949:1002   */\n      tag_341\n        /* \"#utility.yul\":994:1001   */\n      dup5\n        /* \"#utility.yul\":985:991   */\n      dup3\n        /* \"#utility.yul\":974:983   */\n      dup6\n        /* \"#utility.yul\":970:992   */\n      add\n        /* \"#utility.yul\":949:1002   */\n      tag_236\n      jump\t// in\n    tag_341:\n        /* \"#utility.yul\":939:1002   */\n      swap2\n      pop\n        /* \"#utility.yul\":895:1012   */\n      pop\n        /* \"#utility.yul\":690:1019   */\n      swap3\n      swap2\n      pop\n      pop\n      jump\t// out\n        /* \"#utility.yul\":1025:1102   */\n    tag_237:\n        /* \"#utility.yul\":1062:1069   */\n      0x00\n        /* \"#utility.yul\":1091:1096   */\n      dup2\n        /* \"#utility.yul\":1080:1096   */\n      swap1\n      pop\n        /* \"#utility.yul\":1025:1102   */\n      swap2\n      swap1\n      pop\n      jump\t// out\n        /* \"#utility.yul\":1108:1226   */\n    tag_238:\n        /* \"#utility.yul\":1195:1219   */\n      tag_344\n        /* \"#utility.yul\":1213:1218   */\n      dup2\n        /* \"#utility.yul\":1195:1219   */\n      tag_237\n      jump\t// in\n    tag_344:\n        /* \"#utility.yul\":1190:1193   */\n      dup3\n        /* \"#utility.yul\":1183:1220   */\n      mstore\n        /* \"#utility.yul\":1108:1226   */\n      pop\n      pop\n      jump\t// out\n        /* \"#utility.yul\":1232:1331   */\n    tag_239:\n        /* \"#utility.yul\":1284:1290   */\n      0x00\n        /* \"#utility.yul\":1318:1323   */\n      dup2\n        /* \"#utility.yul\":1312:1324   */\n      mload\n        /* \"#utility.yul\":1302:1324   */\n      swap1\n      pop\n        /* \"#utility.yul\":1232:1331   */\n      swap2\n      swap1\n      pop\n      jump\t// out\n        /* \"#utility.yul\":1337:1506   */\n    tag_240:\n        /* \"#utility.yul\":1421:1432   */\n      0x00\n        /* \"#utility.yul\":1455:1461   */\n      dup3\n        /* \"#utility.yul\":1450:1453   */\n      dup3\n        /* \"#utility.yul\":1443:1462   */\n      mstore\n        /* \"#utility.yul\":1495:1499   */\n      0x20\n        /* \"#utility.yul\":1490:1493   */\n      dup3\n        /* \"#utility.yul\":1486:1500   */\n      add\n        /* \"#utility.yul\":1471:1500   */\n      swap1\n      pop\n        /* \"#utility.yul\":1337:1506   */\n      swap3\n      swap2\n      pop\n      pop\n      jump\t// out\n        /* \"#utility.yul\":1512:1758   */\n    tag_241:\n        /* \"#utility.yul\":1593:1594   */\n      0x00\n        /* \"#utility.yul\":1603:1716   */\n    tag_348:\n        /* \"#utility.yul\":1617:1623   */\n      dup4\n        /* \"#utility.yul\":1614:1615   */\n      dup2\n        /* \"#utility.yul\":1611:1624   */\n      lt\n        /* \"#utility.yul\":1603:1716   */\n      iszero\n      tag_350\n      jumpi\n        /* \"#utility.yul\":1702:1703   */\n      dup1\n        /* \"#utility.yul\":1697:1700   */\n      dup3\n        /* \"#utility.yul\":1693:1704   */\n      add\n        /* \"#utility.yul\":1687:1705   */\n      mload\n        /* \"#utility.yul\":1683:1684   */\n      dup2\n        /* \"#utility.yul\":1678:1681   */\n      dup5\n        /* \"#utility.yul\":1674:1685   */\n      add\n        /* \"#utility.yul\":1667:1706   */\n      mstore\n        /* \"#utility.yul\":1639:1641   */\n      0x20\n        /* \"#utility.yul\":1636:1637   */\n      dup2\n        /* \"#utility.yul\":1632:1642   */\n      add\n        /* \"#utility.yul\":1627:1642   */\n      swap1\n      pop\n        /* \"#utility.yul\":1603:1716   */\n      jump(tag_348)\n    tag_350:\n        /* \"#utility.yul\":1750:1751   */\n      0x00\n        /* \"#utility.yul\":1741:1747   */\n      dup5\n        /* \"#utility.yul\":1736:1739   */\n      dup5\n        /* \"#utility.yul\":1732:1748   */\n      add\n        /* \"#utility.yul\":1725:1752   */\n      mstore\n        /* \"#utility.yul\":1574:1758   */\n      pop\n        /* \"#utility.yul\":1512:1758   */\n      pop\n      pop\n      pop\n      jump\t// out\n        /* \"#utility.yul\":1764:1866   */\n    tag_242:\n        /* \"#utility.yul\":1805:1811   */\n      0x00\n        /* \"#utility.yul\":1856:1858   */\n      0x1f\n        /* \"#utility.yul\":1852:1859   */\n      not\n        /* \"#utility.yul\":1847:1849   */\n      0x1f\n        /* \"#utility.yul\":1840:1845   */\n      dup4\n        /* \"#utility.yul\":1836:1850   */\n      add\n        /* \"#utility.yul\":1832:1860   */\n      and\n        /* \"#utility.yul\":1822:1860   */\n      swap1\n      pop\n        /* \"#utility.yul\":1764:1866   */\n      swap2\n      swap1\n      pop\n      jump\t// out\n        /* \"#utility.yul\":1872:2249   */\n    tag_243:\n        /* \"#utility.yul\":1960:1963   */\n      0x00\n        /* \"#utility.yul\":1988:2027   */\n      tag_353\n        /* \"#utility.yul\":2021:2026   */\n      dup3\n        /* \"#utility.yul\":1988:2027   */\n      tag_239\n      jump\t// in\n    tag_353:\n        /* \"#utility.yul\":2043:2114   */\n      tag_354\n        /* \"#utility.yul\":2107:2113   */\n      dup2\n        /* \"#utility.yul\":2102:2105   */\n      dup6\n        /* \"#utility.yul\":2043:2114   */\n      tag_240\n      jump\t// in\n    tag_354:\n        /* \"#utility.yul\":2036:2114   */\n      swap4\n      pop\n        /* \"#utility.yul\":2123:2188   */\n      tag_355\n        /* \"#utility.yul\":2181:2187   */\n      dup2\n        /* \"#utility.yul\":2176:2179   */\n      dup6\n        /* \"#utility.yul\":2169:2173   */\n      0x20\n        /* \"#utility.yul\":2162:2167   */\n      dup7\n        /* \"#utility.yul\":2158:2174   */\n      add\n        /* \"#utility.yul\":2123:2188   */\n      tag_241\n      jump\t// in\n    tag_355:\n        /* \"#utility.yul\":2213:2242   */\n      tag_356\n        /* \"#utility.yul\":2235:2241   */\n      dup2\n        /* \"#utility.yul\":2213:2242   */\n      tag_242\n      jump\t// in\n    tag_356:\n        /* \"#utility.yul\":2208:2211   */\n      dup5\n        /* \"#utility.yul\":2204:2243   */\n      add\n        /* \"#utility.yul\":2197:2243   */\n      swap2\n      pop\n        /* \"#utility.yul\":1964:2249   */\n      pop\n        /* \"#utility.yul\":1872:2249   */\n      swap3\n      swap2\n      pop\n      pop\n      jump\t// out\n        /* \"#utility.yul\":2255:2373   */\n    tag_244:\n        /* \"#utility.yul\":2342:2366   */\n      tag_358\n        /* \"#utility.yul\":2360:2365   */\n      dup2\n        /* \"#utility.yul\":2342:2366   */\n      tag_234\n      jump\t// in\n    tag_358:\n        /* \"#utility.yul\":2337:2340   */\n      dup3\n        /* \"#utility.yul\":2330:2367   */\n      mstore\n        /* \"#utility.yul\":2255:2373   */\n      pop\n      pop\n      jump\t// out\n        /* \"#utility.yul\":2379:2559   */\n    tag_76:\n        /* \"#utility.yul\":2427:2504   */\n      0x4e487b7100000000000000000000000000000000000000000000000000000000\n        /* \"#utility.yul\":2424:2425   */\n      0x00\n        /* \"#utility.yul\":2417:2505   */\n      mstore\n        /* \"#utility.yul\":2524:2528   */\n      0x21\n        /* \"#utility.yul\":2521:2522   */\n      0x04\n        /* \"#utility.yul\":2514:2529   */\n      mstore\n        /* \"#utility.yul\":2548:2552   */\n      0x24\n        /* \"#utility.yul\":2545:2546   */\n      0x00\n        /* \"#utility.yul\":2538:2553   */\n      revert\n        /* \"#utility.yul\":2565:2679   */\n    tag_245:\n        /* \"#utility.yul\":2647:2648   */\n      0x03\n        /* \"#utility.yul\":2640:2645   */\n      dup2\n        /* \"#utility.yul\":2637:2649   */\n      lt\n        /* \"#utility.yul\":2627:2673   */\n      tag_361\n      jumpi\n        /* \"#utility.yul\":2653:2671   */\n      tag_362\n      tag_76\n      jump\t// in\n    tag_362:\n        /* \"#utility.yul\":2627:2673   */\n    tag_361:\n        /* \"#utility.yul\":2565:2679   */\n      pop\n      jump\t// out\n        /* \"#utility.yul\":2685:2814   */\n    tag_246:\n        /* \"#utility.yul\":2731:2738   */\n      0x00\n        /* \"#utility.yul\":2760:2765   */\n      dup2\n        /* \"#utility.yul\":2749:2765   */\n      swap1\n      pop\n        /* \"#utility.yul\":2766:2808   */\n      tag_364\n        /* \"#utility.yul\":2802:2807   */\n      dup3\n        /* \"#utility.yul\":2766:2808   */\n      tag_245\n      jump\t// in\n    tag_364:\n        /* \"#utility.yul\":2685:2814   */\n      swap2\n      swap1\n      pop\n      jump\t// out\n        /* \"#utility.yul\":2820:2949   */\n    tag_247:\n        /* \"#utility.yul\":2877:2886   */\n      0x00\n        /* \"#utility.yul\":2910:2943   */\n      tag_366\n        /* \"#utility.yul\":2937:2942   */\n      dup3\n        /* \"#utility.yul\":2910:2943   */\n      tag_246\n      jump\t// in\n    tag_366:\n        /* \"#utility.yul\":2897:2943   */\n      swap1\n      pop\n        /* \"#utility.yul\":2820:2949   */\n      swap2\n      swap1\n      pop\n      jump\t// out\n        /* \"#utility.yul\":2955:3100   */\n    tag_248:\n        /* \"#utility.yul\":3049:3093   */\n      tag_368\n        /* \"#utility.yul\":3087:3092   */\n      dup2\n        /* \"#utility.yul\":3049:3093   */\n      tag_247\n      jump\t// in\n    tag_368:\n        /* \"#utility.yul\":3044:3047   */\n      dup3\n        /* \"#utility.yul\":3037:3094   */\n      mstore\n        /* \"#utility.yul\":2955:3100   */\n      pop\n      pop\n      jump\t// out\n        /* \"#utility.yul\":3106:3764   */\n    tag_18:\n        /* \"#utility.yul\":3310:3314   */\n      0x00\n        /* \"#utility.yul\":3348:3351   */\n      0x80\n        /* \"#utility.yul\":3337:3346   */\n      dup3\n        /* \"#utility.yul\":3333:3352   */\n      add\n        /* \"#utility.yul\":3325:3352   */\n      swap1\n      pop\n        /* \"#utility.yul\":3362:3433   */\n      tag_370\n        /* \"#utility.yul\":3430:3431   */\n      0x00\n        /* \"#utility.yul\":3419:3428   */\n      dup4\n        /* \"#utility.yul\":3415:3432   */\n      add\n        /* \"#utility.yul\":3406:3412   */\n      dup8\n        /* \"#utility.yul\":3362:3433   */\n      tag_238\n      jump\t// in\n    tag_370:\n        /* \"#utility.yul\":3480:3489   */\n      dup2\n        /* \"#utility.yul\":3474:3478   */\n      dup2\n        /* \"#utility.yul\":3470:3490   */\n      sub\n        /* \"#utility.yul\":3465:3467   */\n      0x20\n        /* \"#utility.yul\":3454:3463   */\n      dup4\n        /* \"#utility.yul\":3450:3468   */\n      add\n        /* \"#utility.yul\":3443:3491   */\n      mstore\n        /* \"#utility.yul\":3508:3586   */\n      tag_371\n        /* \"#utility.yul\":3581:3585   */\n      dup2\n        /* \"#utility.yul\":3572:3578   */\n      dup7\n        /* \"#utility.yul\":3508:3586   */\n      tag_243\n      jump\t// in\n    tag_371:\n        /* \"#utility.yul\":3500:3586   */\n      swap1\n      pop\n        /* \"#utility.yul\":3596:3668   */\n      tag_372\n        /* \"#utility.yul\":3664:3666   */\n      0x40\n        /* \"#utility.yul\":3653:3662   */\n      dup4\n        /* \"#utility.yul\":3649:3667   */\n      add\n        /* \"#utility.yul\":3640:3646   */\n      dup6\n        /* \"#utility.yul\":3596:3668   */\n      tag_244\n      jump\t// in\n    tag_372:\n        /* \"#utility.yul\":3678:3757   */\n      tag_373\n        /* \"#utility.yul\":3753:3755   */\n      0x60\n        /* \"#utility.yul\":3742:3751   */\n      dup4\n        /* \"#utility.yul\":3738:3756   */\n      add\n        /* \"#utility.yul\":3729:3735   */\n      dup5\n        /* \"#utility.yul\":3678:3757   */\n      tag_248\n      jump\t// in\n    tag_373:\n        /* \"#utility.yul\":3106:3764   */\n      swap6\n      swap5\n      pop\n      pop\n      pop\n      pop\n      pop\n      jump\t// out\n        /* \"#utility.yul\":3770:3878   */\n    tag_249:\n        /* \"#utility.yul\":3852:3853   */\n      0x03\n        /* \"#utility.yul\":3845:3850   */\n      dup2\n        /* \"#utility.yul\":3842:3854   */\n      lt\n        /* \"#utility.yul\":3832:3872   */\n      tag_375\n      jumpi\n        /* \"#utility.yul\":3868:3869   */\n      0x00\n        /* \"#utility.yul\":3865:3866   */\n      dup1\n        /* \"#utility.yul\":3858:3870   */\n      revert\n        /* \"#utility.yul\":3832:3872   */\n    tag_375:\n        /* \"#utility.yul\":3770:3878   */\n      pop\n      jump\t// out\n        /* \"#utility.yul\":3884:4041   */\n    tag_250:\n        /* \"#utility.yul\":3939:3944   */\n      0x00\n        /* \"#utility.yul\":3977:3983   */\n      dup2\n        /* \"#utility.yul\":3964:3984   */\n      calldataload\n        /* \"#utility.yul\":3955:3984   */\n      swap1\n      pop\n        /* \"#utility.yul\":3993:4035   */\n      tag_377\n        /* \"#utility.yul\":4029:4034   */\n      dup2\n        /* \"#utility.yul\":3993:4035   */\n      tag_249\n      jump\t// in\n    tag_377:\n        /* \"#utility.yul\":3884:4041   */\n      swap3\n      swap2\n      pop\n      pop\n      jump\t// out\n        /* \"#utility.yul\":4047:4539   */\n    tag_21:\n        /* \"#utility.yul\":4124:4130   */\n      0x00\n        /* \"#utility.yul\":4132:4138   */\n      dup1\n        /* \"#utility.yul\":4181:4183   */\n      0x40\n        /* \"#utility.yul\":4169:4178   */\n      dup4\n        /* \"#utility.yul\":4160:4167   */\n      dup6\n        /* \"#utility.yul\":4156:4179   */\n      sub\n        /* \"#utility.yul\":4152:4184   */\n      slt\n        /* \"#utility.yul\":4149:4268   */\n      iszero\n      tag_379\n      jumpi\n        /* \"#utility.yul\":4187:4266   */\n      tag_380\n      tag_232\n      jump\t// in\n    tag_380:\n        /* \"#utility.yul\":4149:4268   */\n    tag_379:\n        /* \"#utility.yul\":4307:4308   */\n      0x00\n        /* \"#utility.yul\":4332:4385   */\n      tag_381\n        /* \"#utility.yul\":4377:4384   */\n      dup6\n        /* \"#utility.yul\":4368:4374   */\n      dup3\n        /* \"#utility.yul\":4357:4366   */\n      dup7\n        /* \"#utility.yul\":4353:4375   */\n      add\n        /* \"#utility.yul\":4332:4385   */\n      tag_236\n      jump\t// in\n    tag_381:\n        /* \"#utility.yul\":4322:4385   */\n      swap3\n      pop\n        /* \"#utility.yul\":4278:4395   */\n      pop\n        /* \"#utility.yul\":4434:4436   */\n      0x20\n        /* \"#utility.yul\":4460:4522   */\n      tag_382\n        /* \"#utility.yul\":4514:4521   */\n      dup6\n        /* \"#utility.yul\":4505:4511   */\n      dup3\n        /* \"#utility.yul\":4494:4503   */\n      dup7\n        /* \"#utility.yul\":4490:4512   */\n      add\n        /* \"#utility.yul\":4460:4522   */\n      tag_250\n      jump\t// in\n    tag_382:\n        /* \"#utility.yul\":4450:4522   */\n      swap2\n      pop\n        /* \"#utility.yul\":4405:4532   */\n      pop\n        /* \"#utility.yul\":4047:4539   */\n      swap3\n      pop\n      swap3\n      swap1\n      pop\n      jump\t// out\n        /* \"#utility.yul\":4545:4671   */\n    tag_251:\n        /* \"#utility.yul\":4582:4589   */\n      0x00\n        /* \"#utility.yul\":4622:4664   */\n      0xffffffffffffffffffffffffffffffffffffffff\n        /* \"#utility.yul\":4615:4620   */\n      dup3\n        /* \"#utility.yul\":4611:4665   */\n      and\n        /* \"#utility.yul\":4600:4665   */\n      swap1\n      pop\n        /* \"#utility.yul\":4545:4671   */\n      swap2\n      swap1\n      pop\n      jump\t// out\n        /* \"#utility.yul\":4677:4773   */\n    tag_252:\n        /* \"#utility.yul\":4714:4721   */\n      0x00\n        /* \"#utility.yul\":4743:4767   */\n      tag_385\n        /* \"#utility.yul\":4761:4766   */\n      dup3\n        /* \"#utility.yul\":4743:4767   */\n      tag_251\n      jump\t// in\n    tag_385:\n        /* \"#utility.yul\":4732:4767   */\n      swap1\n      pop\n        /* \"#utility.yul\":4677:4773   */\n      swap2\n      swap1\n      pop\n      jump\t// out\n        /* \"#utility.yul\":4779:4897   */\n    tag_253:\n        /* \"#utility.yul\":4866:4890   */\n      tag_387\n        /* \"#utility.yul\":4884:4889   */\n      dup2\n        /* \"#utility.yul\":4866:4890   */\n      tag_252\n      jump\t// in\n    tag_387:\n        /* \"#utility.yul\":4861:4864   */\n      dup3\n        /* \"#utility.yul\":4854:4891   */\n      mstore\n        /* \"#utility.yul\":4779:4897   */\n      pop\n      pop\n      jump\t// out\n        /* \"#utility.yul\":4903:5125   */\n    tag_26:\n        /* \"#utility.yul\":4996:5000   */\n      0x00\n        /* \"#utility.yul\":5034:5036   */\n      0x20\n        /* \"#utility.yul\":5023:5032   */\n      dup3\n        /* \"#utility.yul\":5019:5037   */\n      add\n        /* \"#utility.yul\":5011:5037   */\n      swap1\n      pop\n        /* \"#utility.yul\":5047:5118   */\n      tag_389\n        /* \"#utility.yul\":5115:5116   */\n      0x00\n        /* \"#utility.yul\":5104:5113   */\n      dup4\n        /* \"#utility.yul\":5100:5117   */\n      add\n        /* \"#utility.yul\":5091:5097   */\n      dup5\n        /* \"#utility.yul\":5047:5118   */\n      tag_253\n      jump\t// in\n    tag_389:\n        /* \"#utility.yul\":4903:5125   */\n      swap3\n      swap2\n      pop\n      pop\n      jump\t// out\n        /* \"#utility.yul\":5131:5253   */\n    tag_254:\n        /* \"#utility.yul\":5204:5228   */\n      tag_391\n        /* \"#utility.yul\":5222:5227   */\n      dup2\n        /* \"#utility.yul\":5204:5228   */\n      tag_237\n      jump\t// in\n    tag_391:\n        /* \"#utility.yul\":5197:5202   */\n      dup2\n        /* \"#utility.yul\":5194:5229   */\n      eq\n        /* \"#utility.yul\":5184:5247   */\n      tag_392\n      jumpi\n        /* \"#utility.yul\":5243:5244   */\n      0x00\n        /* \"#utility.yul\":5240:5241   */\n      dup1\n        /* \"#utility.yul\":5233:5245   */\n      revert\n        /* \"#utility.yul\":5184:5247   */\n    tag_392:\n        /* \"#utility.yul\":5131:5253   */\n      pop\n      jump\t// out\n        /* \"#utility.yul\":5259:5398   */\n    tag_255:\n        /* \"#utility.yul\":5305:5310   */\n      0x00\n        /* \"#utility.yul\":5343:5349   */\n      dup2\n        /* \"#utility.yul\":5330:5350   */\n      calldataload\n        /* \"#utility.yul\":5321:5350   */\n      swap1\n      pop\n        /* \"#utility.yul\":5359:5392   */\n      tag_394\n        /* \"#utility.yul\":5386:5391   */\n      dup2\n        /* \"#utility.yul\":5359:5392   */\n      tag_254\n      jump\t// in\n    tag_394:\n        /* \"#utility.yul\":5259:5398   */\n      swap3\n      swap2\n      pop\n      pop\n      jump\t// out\n        /* \"#utility.yul\":5404:5521   */\n    tag_256:\n        /* \"#utility.yul\":5513:5514   */\n      0x00\n        /* \"#utility.yul\":5510:5511   */\n      dup1\n        /* \"#utility.yul\":5503:5515   */\n      revert\n        /* \"#utility.yul\":5527:5644   */\n    tag_257:\n        /* \"#utility.yul\":5636:5637   */\n      0x00\n        /* \"#utility.yul\":5633:5634   */\n      dup1\n        /* \"#utility.yul\":5626:5638   */\n      revert\n        /* \"#utility.yul\":5650:5830   */\n    tag_258:\n        /* \"#utility.yul\":5698:5775   */\n      0x4e487b7100000000000000000000000000000000000000000000000000000000\n        /* \"#utility.yul\":5695:5696   */\n      0x00\n        /* \"#utility.yul\":5688:5776   */\n      mstore\n        /* \"#utility.yul\":5795:5799   */\n      0x41\n        /* \"#utility.yul\":5792:5793   */\n      0x04\n        /* \"#utility.yul\":5785:5800   */\n      mstore\n        /* \"#utility.yul\":5819:5823   */\n      0x24\n        /* \"#utility.yul\":5816:5817   */\n      0x00\n        /* \"#utility.yul\":5809:5824   */\n      revert\n        /* \"#utility.yul\":5836:6117   */\n    tag_259:\n        /* \"#utility.yul\":5919:5946   */\n      tag_399\n        /* \"#utility.yul\":5941:5945   */\n      dup3\n        /* \"#utility.yul\":5919:5946   */\n      tag_242\n      jump\t// in\n    tag_399:\n        /* \"#utility.yul\":5911:5917   */\n      dup2\n        /* \"#utility.yul\":5907:5947   */\n      add\n        /* \"#utility.yul\":6049:6055   */\n      dup2\n        /* \"#utility.yul\":6037:6047   */\n      dup2\n        /* \"#utility.yul\":6034:6056   */\n      lt\n        /* \"#utility.yul\":6013:6031   */\n      0xffffffffffffffff\n        /* \"#utility.yul\":6001:6011   */\n      dup3\n        /* \"#utility.yul\":5998:6032   */\n      gt\n        /* \"#utility.yul\":5995:6057   */\n      or\n        /* \"#utility.yul\":5992:6080   */\n      iszero\n      tag_400\n      jumpi\n        /* \"#utility.yul\":6060:6078   */\n      tag_401\n      tag_258\n      jump\t// in\n    tag_401:\n        /* \"#utility.yul\":5992:6080   */\n    tag_400:\n        /* \"#utility.yul\":6100:6110   */\n      dup1\n        /* \"#utility.yul\":6096:6098   */\n      0x40\n        /* \"#utility.yul\":6089:6111   */\n      mstore\n        /* \"#utility.yul\":5879:6117   */\n      pop\n        /* \"#utility.yul\":5836:6117   */\n      pop\n      pop\n      jump\t// out\n        /* \"#utility.yul\":6123:6252   */\n    tag_260:\n        /* \"#utility.yul\":6157:6163   */\n      0x00\n        /* \"#utility.yul\":6184:6204   */\n      tag_403\n      tag_231\n      jump\t// in\n    tag_403:\n        /* \"#utility.yul\":6174:6204   */\n      swap1\n      pop\n        /* \"#utility.yul\":6213:6246   */\n      tag_404\n        /* \"#utility.yul\":6241:6245   */\n      dup3\n        /* \"#utility.yul\":6233:6239   */\n      dup3\n        /* \"#utility.yul\":6213:6246   */\n      tag_259\n      jump\t// in\n    tag_404:\n        /* \"#utility.yul\":6123:6252   */\n      swap2\n      swap1\n      pop\n      jump\t// out\n        /* \"#utility.yul\":6258:6566   */\n    tag_261:\n        /* \"#utility.yul\":6320:6324   */\n      0x00\n        /* \"#utility.yul\":6410:6428   */\n      0xffffffffffffffff\n        /* \"#utility.yul\":6402:6408   */\n      dup3\n        /* \"#utility.yul\":6399:6429   */\n      gt\n        /* \"#utility.yul\":6396:6452   */\n      iszero\n      tag_406\n      jumpi\n        /* \"#utility.yul\":6432:6450   */\n      tag_407\n      tag_258\n      jump\t// in\n    tag_407:\n        /* \"#utility.yul\":6396:6452   */\n    tag_406:\n        /* \"#utility.yul\":6470:6499   */\n      tag_408\n        /* \"#utility.yul\":6492:6498   */\n      dup3\n        /* \"#utility.yul\":6470:6499   */\n      tag_242\n      jump\t// in\n    tag_408:\n        /* \"#utility.yul\":6462:6499   */\n      swap1\n      pop\n        /* \"#utility.yul\":6554:6558   */\n      0x20\n        /* \"#utility.yul\":6548:6552   */\n      dup2\n        /* \"#utility.yul\":6544:6559   */\n      add\n        /* \"#utility.yul\":6536:6559   */\n      swap1\n      pop\n        /* \"#utility.yul\":6258:6566   */\n      swap2\n      swap1\n      pop\n      jump\t// out\n        /* \"#utility.yul\":6572:6718   */\n    tag_262:\n        /* \"#utility.yul\":6669:6675   */\n      dup3\n        /* \"#utility.yul\":6664:6667   */\n      dup2\n        /* \"#utility.yul\":6659:6662   */\n      dup4\n        /* \"#utility.yul\":6646:6676   */\n      calldatacopy\n        /* \"#utility.yul\":6710:6711   */\n      0x00\n        /* \"#utility.yul\":6701:6707   */\n      dup4\n        /* \"#utility.yul\":6696:6699   */\n      dup4\n        /* \"#utility.yul\":6692:6708   */\n      add\n        /* \"#utility.yul\":6685:6712   */\n      mstore\n        /* \"#utility.yul\":6572:6718   */\n      pop\n      pop\n      pop\n      jump\t// out\n        /* \"#utility.yul\":6724:7149   */\n    tag_263:\n        /* \"#utility.yul\":6802:6807   */\n      0x00\n        /* \"#utility.yul\":6827:6893   */\n      tag_411\n        /* \"#utility.yul\":6843:6892   */\n      tag_412\n        /* \"#utility.yul\":6885:6891   */\n      dup5\n        /* \"#utility.yul\":6843:6892   */\n      tag_261\n      jump\t// in\n    tag_412:\n        /* \"#utility.yul\":6827:6893   */\n      tag_260\n      jump\t// in\n    tag_411:\n        /* \"#utility.yul\":6818:6893   */\n      swap1\n      pop\n        /* \"#utility.yul\":6916:6922   */\n      dup3\n        /* \"#utility.yul\":6909:6914   */\n      dup2\n        /* \"#utility.yul\":6902:6923   */\n      mstore\n        /* \"#utility.yul\":6954:6958   */\n      0x20\n        /* \"#utility.yul\":6947:6952   */\n      dup2\n        /* \"#utility.yul\":6943:6959   */\n      add\n        /* \"#utility.yul\":6992:6995   */\n      dup5\n        /* \"#utility.yul\":6983:6989   */\n      dup5\n        /* \"#utility.yul\":6978:6981   */\n      dup5\n        /* \"#utility.yul\":6974:6990   */\n      add\n        /* \"#utility.yul\":6971:6996   */\n      gt\n        /* \"#utility.yul\":6968:7080   */\n      iszero\n      tag_413\n      jumpi\n        /* \"#utility.yul\":6999:7078   */\n      tag_414\n      tag_257\n      jump\t// in\n    tag_414:\n        /* \"#utility.yul\":6968:7080   */\n    tag_413:\n        /* \"#utility.yul\":7089:7143   */\n      tag_415\n        /* \"#utility.yul\":7136:7142   */\n      dup5\n        /* \"#utility.yul\":7131:7134   */\n      dup3\n        /* \"#utility.yul\":7126:7129   */\n      dup6\n        /* \"#utility.yul\":7089:7143   */\n      tag_262\n      jump\t// in\n    tag_415:\n        /* \"#utility.yul\":6808:7149   */\n      pop\n        /* \"#utility.yul\":6724:7149   */\n      swap4\n      swap3\n      pop\n      pop\n      pop\n      jump\t// out\n        /* \"#utility.yul\":7169:7509   */\n    tag_264:\n        /* \"#utility.yul\":7225:7230   */\n      0x00\n        /* \"#utility.yul\":7274:7277   */\n      dup3\n        /* \"#utility.yul\":7267:7271   */\n      0x1f\n        /* \"#utility.yul\":7259:7265   */\n      dup4\n        /* \"#utility.yul\":7255:7272   */\n      add\n        /* \"#utility.yul\":7251:7278   */\n      slt\n        /* \"#utility.yul\":7241:7363   */\n      tag_417\n      jumpi\n        /* \"#utility.yul\":7282:7361   */\n      tag_418\n      tag_256\n      jump\t// in\n    tag_418:\n        /* \"#utility.yul\":7241:7363   */\n    tag_417:\n        /* \"#utility.yul\":7399:7405   */\n      dup2\n        /* \"#utility.yul\":7386:7406   */\n      calldataload\n        /* \"#utility.yul\":7424:7503   */\n      tag_419\n        /* \"#utility.yul\":7499:7502   */\n      dup5\n        /* \"#utility.yul\":7491:7497   */\n      dup3\n        /* \"#utility.yul\":7484:7488   */\n      0x20\n        /* \"#utility.yul\":7476:7482   */\n      dup7\n        /* \"#utility.yul\":7472:7489   */\n      add\n        /* \"#utility.yul\":7424:7503   */\n      tag_263\n      jump\t// in\n    tag_419:\n        /* \"#utility.yul\":7415:7503   */\n      swap2\n      pop\n        /* \"#utility.yul\":7231:7509   */\n      pop\n        /* \"#utility.yul\":7169:7509   */\n      swap3\n      swap2\n      pop\n      pop\n      jump\t// out\n        /* \"#utility.yul\":7515:8169   */\n    tag_29:\n        /* \"#utility.yul\":7593:7599   */\n      0x00\n        /* \"#utility.yul\":7601:7607   */\n      dup1\n        /* \"#utility.yul\":7650:7652   */\n      0x40\n        /* \"#utility.yul\":7638:7647   */\n      dup4\n        /* \"#utility.yul\":7629:7636   */\n      dup6\n        /* \"#utility.yul\":7625:7648   */\n      sub\n        /* \"#utility.yul\":7621:7653   */\n      slt\n        /* \"#utility.yul\":7618:7737   */\n      iszero\n      tag_421\n      jumpi\n        /* \"#utility.yul\":7656:7735   */\n      tag_422\n      tag_232\n      jump\t// in\n    tag_422:\n        /* \"#utility.yul\":7618:7737   */\n    tag_421:\n        /* \"#utility.yul\":7776:7777   */\n      0x00\n        /* \"#utility.yul\":7801:7854   */\n      tag_423\n        /* \"#utility.yul\":7846:7853   */\n      dup6\n        /* \"#utility.yul\":7837:7843   */\n      dup3\n        /* \"#utility.yul\":7826:7835   */\n      dup7\n        /* \"#utility.yul\":7822:7844   */\n      add\n        /* \"#utility.yul\":7801:7854   */\n      tag_255\n      jump\t// in\n    tag_423:\n        /* \"#utility.yul\":7791:7854   */\n      swap3\n      pop\n        /* \"#utility.yul\":7747:7864   */\n      pop\n        /* \"#utility.yul\":7931:7933   */\n      0x20\n        /* \"#utility.yul\":7920:7929   */\n      dup4\n        /* \"#utility.yul\":7916:7934   */\n      add\n        /* \"#utility.yul\":7903:7935   */\n      calldataload\n        /* \"#utility.yul\":7962:7980   */\n      0xffffffffffffffff\n        /* \"#utility.yul\":7954:7960   */\n      dup2\n        /* \"#utility.yul\":7951:7981   */\n      gt\n        /* \"#utility.yul\":7948:8065   */\n      iszero\n      tag_424\n      jumpi\n        /* \"#utility.yul\":7984:8063   */\n      tag_425\n      tag_233\n      jump\t// in\n    tag_425:\n        /* \"#utility.yul\":7948:8065   */\n    tag_424:\n        /* \"#utility.yul\":8089:8152   */\n      tag_426\n        /* \"#utility.yul\":8144:8151   */\n      dup6\n        /* \"#utility.yul\":8135:8141   */\n      dup3\n        /* \"#utility.yul\":8124:8133   */\n      dup7\n        /* \"#utility.yul\":8120:8142   */\n      add\n        /* \"#utility.yul\":8089:8152   */\n      tag_264\n      jump\t// in\n    tag_426:\n        /* \"#utility.yul\":8079:8152   */\n      swap2\n      pop\n        /* \"#utility.yul\":7874:8162   */\n      pop\n        /* \"#utility.yul\":7515:8169   */\n      swap3\n      pop\n      swap3\n      swap1\n      pop\n      jump\t// out\n        /* \"#utility.yul\":8175:8397   */\n    tag_34:\n        /* \"#utility.yul\":8268:8272   */\n      0x00\n        /* \"#utility.yul\":8306:8308   */\n      0x20\n        /* \"#utility.yul\":8295:8304   */\n      dup3\n        /* \"#utility.yul\":8291:8309   */\n      add\n        /* \"#utility.yul\":8283:8309   */\n      swap1\n      pop\n        /* \"#utility.yul\":8319:8390   */\n      tag_428\n        /* \"#utility.yul\":8387:8388   */\n      0x00\n        /* \"#utility.yul\":8376:8385   */\n      dup4\n        /* \"#utility.yul\":8372:8389   */\n      add\n        /* \"#utility.yul\":8363:8369   */\n      dup5\n        /* \"#utility.yul\":8319:8390   */\n      tag_244\n      jump\t// in\n    tag_428:\n        /* \"#utility.yul\":8175:8397   */\n      swap3\n      swap2\n      pop\n      pop\n      jump\t// out\n        /* \"#utility.yul\":8403:8732   */\n    tag_37:\n        /* \"#utility.yul\":8462:8468   */\n      0x00\n        /* \"#utility.yul\":8511:8513   */\n      0x20\n        /* \"#utility.yul\":8499:8508   */\n      dup3\n        /* \"#utility.yul\":8490:8497   */\n      dup5\n        /* \"#utility.yul\":8486:8509   */\n      sub\n        /* \"#utility.yul\":8482:8514   */\n      slt\n        /* \"#utility.yul\":8479:8598   */\n      iszero\n      tag_430\n      jumpi\n        /* \"#utility.yul\":8517:8596   */\n      tag_431\n      tag_232\n      jump\t// in\n    tag_431:\n        /* \"#utility.yul\":8479:8598   */\n    tag_430:\n        /* \"#utility.yul\":8637:8638   */\n      0x00\n        /* \"#utility.yul\":8662:8715   */\n      tag_432\n        /* \"#utility.yul\":8707:8714   */\n      dup5\n        /* \"#utility.yul\":8698:8704   */\n      dup3\n        /* \"#utility.yul\":8687:8696   */\n      dup6\n        /* \"#utility.yul\":8683:8705   */\n      add\n        /* \"#utility.yul\":8662:8715   */\n      tag_255\n      jump\t// in\n    tag_432:\n        /* \"#utility.yul\":8652:8715   */\n      swap2\n      pop\n        /* \"#utility.yul\":8608:8725   */\n      pop\n        /* \"#utility.yul\":8403:8732   */\n      swap3\n      swap2\n      pop\n      pop\n      jump\t// out\n        /* \"#utility.yul\":8738:8960   */\n    tag_40:\n        /* \"#utility.yul\":8831:8835   */\n      0x00\n        /* \"#utility.yul\":8869:8871   */\n      0x20\n        /* \"#utility.yul\":8858:8867   */\n      dup3\n        /* \"#utility.yul\":8854:8872   */\n      add\n        /* \"#utility.yul\":8846:8872   */\n      swap1\n      pop\n        /* \"#utility.yul\":8882:8953   */\n      tag_434\n        /* \"#utility.yul\":8950:8951   */\n      0x00\n        /* \"#utility.yul\":8939:8948   */\n      dup4\n        /* \"#utility.yul\":8935:8952   */\n      add\n        /* \"#utility.yul\":8926:8932   */\n      dup5\n        /* \"#utility.yul\":8882:8953   */\n      tag_238\n      jump\t// in\n    tag_434:\n        /* \"#utility.yul\":8738:8960   */\n      swap3\n      swap2\n      pop\n      pop\n      jump\t// out\n        /* \"#utility.yul\":8966:9277   */\n    tag_265:\n        /* \"#utility.yul\":9043:9047   */\n      0x00\n        /* \"#utility.yul\":9133:9151   */\n      0xffffffffffffffff\n        /* \"#utility.yul\":9125:9131   */\n      dup3\n        /* \"#utility.yul\":9122:9152   */\n      gt\n        /* \"#utility.yul\":9119:9175   */\n      iszero\n      tag_436\n      jumpi\n        /* \"#utility.yul\":9155:9173   */\n      tag_437\n      tag_258\n      jump\t// in\n    tag_437:\n        /* \"#utility.yul\":9119:9175   */\n    tag_436:\n        /* \"#utility.yul\":9205:9209   */\n      0x20\n        /* \"#utility.yul\":9197:9203   */\n      dup3\n        /* \"#utility.yul\":9193:9210   */\n      mul\n        /* \"#utility.yul\":9185:9210   */\n      swap1\n      pop\n        /* \"#utility.yul\":9265:9269   */\n      0x20\n        /* \"#utility.yul\":9259:9263   */\n      dup2\n        /* \"#utility.yul\":9255:9270   */\n      add\n        /* \"#utility.yul\":9247:9270   */\n      swap1\n      pop\n        /* \"#utility.yul\":8966:9277   */\n      swap2\n      swap1\n      pop\n      jump\t// out\n        /* \"#utility.yul\":9283:9400   */\n    tag_266:\n        /* \"#utility.yul\":9392:9393   */\n      0x00\n        /* \"#utility.yul\":9389:9390   */\n      dup1\n        /* \"#utility.yul\":9382:9394   */\n      revert\n        /* \"#utility.yul\":9423:10133   */\n    tag_267:\n        /* \"#utility.yul\":9519:9524   */\n      0x00\n        /* \"#utility.yul\":9544:9625   */\n      tag_440\n        /* \"#utility.yul\":9560:9624   */\n      tag_441\n        /* \"#utility.yul\":9617:9623   */\n      dup5\n        /* \"#utility.yul\":9560:9624   */\n      tag_265\n      jump\t// in\n    tag_441:\n        /* \"#utility.yul\":9544:9625   */\n      tag_260\n      jump\t// in\n    tag_440:\n        /* \"#utility.yul\":9535:9625   */\n      swap1\n      pop\n        /* \"#utility.yul\":9645:9650   */\n      dup1\n        /* \"#utility.yul\":9674:9680   */\n      dup4\n        /* \"#utility.yul\":9667:9672   */\n      dup3\n        /* \"#utility.yul\":9660:9681   */\n      mstore\n        /* \"#utility.yul\":9708:9712   */\n      0x20\n        /* \"#utility.yul\":9701:9706   */\n      dup3\n        /* \"#utility.yul\":9697:9713   */\n      add\n        /* \"#utility.yul\":9690:9713   */\n      swap1\n      pop\n        /* \"#utility.yul\":9761:9765   */\n      0x20\n        /* \"#utility.yul\":9753:9759   */\n      dup5\n        /* \"#utility.yul\":9749:9766   */\n      mul\n        /* \"#utility.yul\":9741:9747   */\n      dup4\n        /* \"#utility.yul\":9737:9767   */\n      add\n        /* \"#utility.yul\":9790:9793   */\n      dup6\n        /* \"#utility.yul\":9782:9788   */\n      dup2\n        /* \"#utility.yul\":9779:9794   */\n      gt\n        /* \"#utility.yul\":9776:9898   */\n      iszero\n      tag_442\n      jumpi\n        /* \"#utility.yul\":9809:9888   */\n      tag_443\n      tag_266\n      jump\t// in\n    tag_443:\n        /* \"#utility.yul\":9776:9898   */\n    tag_442:\n        /* \"#utility.yul\":9924:9930   */\n      dup4\n        /* \"#utility.yul\":9907:10127   */\n    tag_444:\n        /* \"#utility.yul\":9941:9947   */\n      dup2\n        /* \"#utility.yul\":9936:9939   */\n      dup2\n        /* \"#utility.yul\":9933:9948   */\n      lt\n        /* \"#utility.yul\":9907:10127   */\n      iszero\n      tag_446\n      jumpi\n        /* \"#utility.yul\":10016:10019   */\n      dup1\n        /* \"#utility.yul\":10045:10082   */\n      tag_447\n        /* \"#utility.yul\":10078:10081   */\n      dup9\n        /* \"#utility.yul\":10066:10076   */\n      dup3\n        /* \"#utility.yul\":10045:10082   */\n      tag_236\n      jump\t// in\n    tag_447:\n        /* \"#utility.yul\":10040:10043   */\n      dup5\n        /* \"#utility.yul\":10033:10083   */\n      mstore\n        /* \"#utility.yul\":10112:10116   */\n      0x20\n        /* \"#utility.yul\":10107:10110   */\n      dup5\n        /* \"#utility.yul\":10103:10117   */\n      add\n        /* \"#utility.yul\":10096:10117   */\n      swap4\n      pop\n        /* \"#utility.yul\":9983:10127   */\n      pop\n        /* \"#utility.yul\":9967:9971   */\n      0x20\n        /* \"#utility.yul\":9962:9965   */\n      dup2\n        /* \"#utility.yul\":9958:9972   */\n      add\n        /* \"#utility.yul\":9951:9972   */\n      swap1\n      pop\n        /* \"#utility.yul\":9907:10127   */\n      jump(tag_444)\n    tag_446:\n        /* \"#utility.yul\":9911:9932   */\n      pop\n        /* \"#utility.yul\":9525:10133   */\n      pop\n      pop\n        /* \"#utility.yul\":9423:10133   */\n      swap4\n      swap3\n      pop\n      pop\n      pop\n      jump\t// out\n        /* \"#utility.yul\":10156:10526   */\n    tag_268:\n        /* \"#utility.yul\":10227:10232   */\n      0x00\n        /* \"#utility.yul\":10276:10279   */\n      dup3\n        /* \"#utility.yul\":10269:10273   */\n      0x1f\n        /* \"#utility.yul\":10261:10267   */\n      dup4\n        /* \"#utility.yul\":10257:10274   */\n      add\n        /* \"#utility.yul\":10253:10280   */\n      slt\n        /* \"#utility.yul\":10243:10365   */\n      tag_449\n      jumpi\n        /* \"#utility.yul\":10284:10363   */\n      tag_450\n      tag_256\n      jump\t// in\n    tag_450:\n        /* \"#utility.yul\":10243:10365   */\n    tag_449:\n        /* \"#utility.yul\":10401:10407   */\n      dup2\n        /* \"#utility.yul\":10388:10408   */\n      calldataload\n        /* \"#utility.yul\":10426:10520   */\n      tag_451\n        /* \"#utility.yul\":10516:10519   */\n      dup5\n        /* \"#utility.yul\":10508:10514   */\n      dup3\n        /* \"#utility.yul\":10501:10505   */\n      0x20\n        /* \"#utility.yul\":10493:10499   */\n      dup7\n        /* \"#utility.yul\":10489:10506   */\n      add\n        /* \"#utility.yul\":10426:10520   */\n      tag_267\n      jump\t// in\n    tag_451:\n        /* \"#utility.yul\":10417:10520   */\n      swap2\n      pop\n        /* \"#utility.yul\":10233:10526   */\n      pop\n        /* \"#utility.yul\":10156:10526   */\n      swap3\n      swap2\n      pop\n      pop\n      jump\t// out\n        /* \"#utility.yul\":10532:11071   */\n    tag_43:\n        /* \"#utility.yul\":10616:10622   */\n      0x00\n        /* \"#utility.yul\":10665:10667   */\n      0x20\n        /* \"#utility.yul\":10653:10662   */\n      dup3\n        /* \"#utility.yul\":10644:10651   */\n      dup5\n        /* \"#utility.yul\":10640:10663   */\n      sub\n        /* \"#utility.yul\":10636:10668   */\n      slt\n        /* \"#utility.yul\":10633:10752   */\n      iszero\n      tag_453\n      jumpi\n        /* \"#utility.yul\":10671:10750   */\n      tag_454\n      tag_232\n      jump\t// in\n    tag_454:\n        /* \"#utility.yul\":10633:10752   */\n    tag_453:\n        /* \"#utility.yul\":10819:10820   */\n      0x00\n        /* \"#utility.yul\":10808:10817   */\n      dup3\n        /* \"#utility.yul\":10804:10821   */\n      add\n        /* \"#utility.yul\":10791:10822   */\n      calldataload\n        /* \"#utility.yul\":10849:10867   */\n      0xffffffffffffffff\n        /* \"#utility.yul\":10841:10847   */\n      dup2\n        /* \"#utility.yul\":10838:10868   */\n      gt\n        /* \"#utility.yul\":10835:10952   */\n      iszero\n      tag_455\n      jumpi\n        /* \"#utility.yul\":10871:10950   */\n      tag_456\n      tag_233\n      jump\t// in\n    tag_456:\n        /* \"#utility.yul\":10835:10952   */\n    tag_455:\n        /* \"#utility.yul\":10976:11054   */\n      tag_457\n        /* \"#utility.yul\":11046:11053   */\n      dup5\n        /* \"#utility.yul\":11037:11043   */\n      dup3\n        /* \"#utility.yul\":11026:11035   */\n      dup6\n        /* \"#utility.yul\":11022:11044   */\n      add\n        /* \"#utility.yul\":10976:11054   */\n      tag_268\n      jump\t// in\n    tag_457:\n        /* \"#utility.yul\":10966:11054   */\n      swap2\n      pop\n        /* \"#utility.yul\":10762:11064   */\n      pop\n        /* \"#utility.yul\":10532:11071   */\n      swap3\n      swap2\n      pop\n      pop\n      jump\t// out\n        /* \"#utility.yul\":11077:11191   */\n    tag_269:\n        /* \"#utility.yul\":11144:11150   */\n      0x00\n        /* \"#utility.yul\":11178:11183   */\n      dup2\n        /* \"#utility.yul\":11172:11184   */\n      mload\n        /* \"#utility.yul\":11162:11184   */\n      swap1\n      pop\n        /* \"#utility.yul\":11077:11191   */\n      swap2\n      swap1\n      pop\n      jump\t// out\n        /* \"#utility.yul\":11197:11381   */\n    tag_270:\n        /* \"#utility.yul\":11296:11307   */\n      0x00\n        /* \"#utility.yul\":11330:11336   */\n      dup3\n        /* \"#utility.yul\":11325:11328   */\n      dup3\n        /* \"#utility.yul\":11318:11337   */\n      mstore\n        /* \"#utility.yul\":11370:11374   */\n      0x20\n        /* \"#utility.yul\":11365:11368   */\n      dup3\n        /* \"#utility.yul\":11361:11375   */\n      add\n        /* \"#utility.yul\":11346:11375   */\n      swap1\n      pop\n        /* \"#utility.yul\":11197:11381   */\n      swap3\n      swap2\n      pop\n      pop\n      jump\t// out\n        /* \"#utility.yul\":11387:11519   */\n    tag_271:\n        /* \"#utility.yul\":11454:11458   */\n      0x00\n        /* \"#utility.yul\":11477:11480   */\n      dup2\n        /* \"#utility.yul\":11469:11480   */\n      swap1\n      pop\n        /* \"#utility.yul\":11507:11511   */\n      0x20\n        /* \"#utility.yul\":11502:11505   */\n      dup3\n        /* \"#utility.yul\":11498:11512   */\n      add\n        /* \"#utility.yul\":11490:11512   */\n      swap1\n      pop\n        /* \"#utility.yul\":11387:11519   */\n      swap2\n      swap1\n      pop\n      jump\t// out\n        /* \"#utility.yul\":11525:11633   */\n    tag_272:\n        /* \"#utility.yul\":11602:11626   */\n      tag_462\n        /* \"#utility.yul\":11620:11625   */\n      dup2\n        /* \"#utility.yul\":11602:11626   */\n      tag_234\n      jump\t// in\n    tag_462:\n        /* \"#utility.yul\":11597:11600   */\n      dup3\n        /* \"#utility.yul\":11590:11627   */\n      mstore\n        /* \"#utility.yul\":11525:11633   */\n      pop\n      pop\n      jump\t// out\n        /* \"#utility.yul\":11639:11818   */\n    tag_273:\n        /* \"#utility.yul\":11708:11718   */\n      0x00\n        /* \"#utility.yul\":11729:11775   */\n      tag_464\n        /* \"#utility.yul\":11771:11774   */\n      dup4\n        /* \"#utility.yul\":11763:11769   */\n      dup4\n        /* \"#utility.yul\":11729:11775   */\n      tag_272\n      jump\t// in\n    tag_464:\n        /* \"#utility.yul\":11807:11811   */\n      0x20\n        /* \"#utility.yul\":11802:11805   */\n      dup4\n        /* \"#utility.yul\":11798:11812   */\n      add\n        /* \"#utility.yul\":11784:11812   */\n      swap1\n      pop\n        /* \"#utility.yul\":11639:11818   */\n      swap3\n      swap2\n      pop\n      pop\n      jump\t// out\n        /* \"#utility.yul\":11824:11937   */\n    tag_274:\n        /* \"#utility.yul\":11894:11898   */\n      0x00\n        /* \"#utility.yul\":11926:11930   */\n      0x20\n        /* \"#utility.yul\":11921:11924   */\n      dup3\n        /* \"#utility.yul\":11917:11931   */\n      add\n        /* \"#utility.yul\":11909:11931   */\n      swap1\n      pop\n        /* \"#utility.yul\":11824:11937   */\n      swap2\n      swap1\n      pop\n      jump\t// out\n        /* \"#utility.yul\":11973:12705   */\n    tag_275:\n        /* \"#utility.yul\":12092:12095   */\n      0x00\n        /* \"#utility.yul\":12121:12175   */\n      tag_467\n        /* \"#utility.yul\":12169:12174   */\n      dup3\n        /* \"#utility.yul\":12121:12175   */\n      tag_269\n      jump\t// in\n    tag_467:\n        /* \"#utility.yul\":12191:12277   */\n      tag_468\n        /* \"#utility.yul\":12270:12276   */\n      dup2\n        /* \"#utility.yul\":12265:12268   */\n      dup6\n        /* \"#utility.yul\":12191:12277   */\n      tag_270\n      jump\t// in\n    tag_468:\n        /* \"#utility.yul\":12184:12277   */\n      swap4\n      pop\n        /* \"#utility.yul\":12301:12357   */\n      tag_469\n        /* \"#utility.yul\":12351:12356   */\n      dup4\n        /* \"#utility.yul\":12301:12357   */\n      tag_271\n      jump\t// in\n    tag_469:\n        /* \"#utility.yul\":12380:12387   */\n      dup1\n        /* \"#utility.yul\":12411:12412   */\n      0x00\n        /* \"#utility.yul\":12396:12680   */\n    tag_470:\n        /* \"#utility.yul\":12421:12427   */\n      dup4\n        /* \"#utility.yul\":12418:12419   */\n      dup2\n        /* \"#utility.yul\":12415:12428   */\n      lt\n        /* \"#utility.yul\":12396:12680   */\n      iszero\n      tag_472\n      jumpi\n        /* \"#utility.yul\":12497:12503   */\n      dup2\n        /* \"#utility.yul\":12491:12504   */\n      mload\n        /* \"#utility.yul\":12524:12587   */\n      tag_473\n        /* \"#utility.yul\":12583:12586   */\n      dup9\n        /* \"#utility.yul\":12568:12581   */\n      dup3\n        /* \"#utility.yul\":12524:12587   */\n      tag_273\n      jump\t// in\n    tag_473:\n        /* \"#utility.yul\":12517:12587   */\n      swap8\n      pop\n        /* \"#utility.yul\":12610:12670   */\n      tag_474\n        /* \"#utility.yul\":12663:12669   */\n      dup4\n        /* \"#utility.yul\":12610:12670   */\n      tag_274\n      jump\t// in\n    tag_474:\n        /* \"#utility.yul\":12600:12670   */\n      swap3\n      pop\n        /* \"#utility.yul\":12456:12680   */\n      pop\n        /* \"#utility.yul\":12443:12444   */\n      0x01\n        /* \"#utility.yul\":12440:12441   */\n      dup2\n        /* \"#utility.yul\":12436:12445   */\n      add\n        /* \"#utility.yul\":12431:12445   */\n      swap1\n      pop\n        /* \"#utility.yul\":12396:12680   */\n      jump(tag_470)\n    tag_472:\n        /* \"#utility.yul\":12400:12414   */\n      pop\n        /* \"#utility.yul\":12696:12699   */\n      dup6\n        /* \"#utility.yul\":12689:12699   */\n      swap4\n      pop\n        /* \"#utility.yul\":12097:12705   */\n      pop\n      pop\n      pop\n        /* \"#utility.yul\":11973:12705   */\n      swap3\n      swap2\n      pop\n      pop\n      jump\t// out\n        /* \"#utility.yul\":12711:13084   */\n    tag_46:\n        /* \"#utility.yul\":12854:12858   */\n      0x00\n        /* \"#utility.yul\":12892:12894   */\n      0x20\n        /* \"#utility.yul\":12881:12890   */\n      dup3\n        /* \"#utility.yul\":12877:12895   */\n      add\n        /* \"#utility.yul\":12869:12895   */\n      swap1\n      pop\n        /* \"#utility.yul\":12941:12950   */\n      dup2\n        /* \"#utility.yul\":12935:12939   */\n      dup2\n        /* \"#utility.yul\":12931:12951   */\n      sub\n        /* \"#utility.yul\":12927:12928   */\n      0x00\n        /* \"#utility.yul\":12916:12925   */\n      dup4\n        /* \"#utility.yul\":12912:12929   */\n      add\n        /* \"#utility.yul\":12905:12952   */\n      mstore\n        /* \"#utility.yul\":12969:13077   */\n      tag_476\n        /* \"#utility.yul\":13072:13076   */\n      dup2\n        /* \"#utility.yul\":13063:13069   */\n      dup5\n        /* \"#utility.yul\":12969:13077   */\n      tag_275\n      jump\t// in\n    tag_476:\n        /* \"#utility.yul\":12961:13077   */\n      swap1\n      pop\n        /* \"#utility.yul\":12711:13084   */\n      swap3\n      swap2\n      pop\n      pop\n      jump\t// out\n        /* \"#utility.yul\":13090:13212   */\n    tag_276:\n        /* \"#utility.yul\":13163:13187   */\n      tag_478\n        /* \"#utility.yul\":13181:13186   */\n      dup2\n        /* \"#utility.yul\":13163:13187   */\n      tag_252\n      jump\t// in\n    tag_478:\n        /* \"#utility.yul\":13156:13161   */\n      dup2\n        /* \"#utility.yul\":13153:13188   */\n      eq\n        /* \"#utility.yul\":13143:13206   */\n      tag_479\n      jumpi\n        /* \"#utility.yul\":13202:13203   */\n      0x00\n        /* \"#utility.yul\":13199:13200   */\n      dup1\n        /* \"#utility.yul\":13192:13204   */\n      revert\n        /* \"#utility.yul\":13143:13206   */\n    tag_479:\n        /* \"#utility.yul\":13090:13212   */\n      pop\n      jump\t// out\n        /* \"#utility.yul\":13218:13357   */\n    tag_277:\n        /* \"#utility.yul\":13264:13269   */\n      0x00\n        /* \"#utility.yul\":13302:13308   */\n      dup2\n        /* \"#utility.yul\":13289:13309   */\n      calldataload\n        /* \"#utility.yul\":13280:13309   */\n      swap1\n      pop\n        /* \"#utility.yul\":13318:13351   */\n      tag_481\n        /* \"#utility.yul\":13345:13350   */\n      dup2\n        /* \"#utility.yul\":13318:13351   */\n      tag_276\n      jump\t// in\n    tag_481:\n        /* \"#utility.yul\":13218:13357   */\n      swap3\n      swap2\n      pop\n      pop\n      jump\t// out\n        /* \"#utility.yul\":13363:13692   */\n    tag_49:\n        /* \"#utility.yul\":13422:13428   */\n      0x00\n        /* \"#utility.yul\":13471:13473   */\n      0x20\n        /* \"#utility.yul\":13459:13468   */\n      dup3\n        /* \"#utility.yul\":13450:13457   */\n      dup5\n        /* \"#utility.yul\":13446:13469   */\n      sub\n        /* \"#utility.yul\":13442:13474   */\n      slt\n        /* \"#utility.yul\":13439:13558   */\n      iszero\n      tag_483\n      jumpi\n        /* \"#utility.yul\":13477:13556   */\n      tag_484\n      tag_232\n      jump\t// in\n    tag_484:\n        /* \"#utility.yul\":13439:13558   */\n    tag_483:\n        /* \"#utility.yul\":13597:13598   */\n      0x00\n        /* \"#utility.yul\":13622:13675   */\n      tag_485\n        /* \"#utility.yul\":13667:13674   */\n      dup5\n        /* \"#utility.yul\":13658:13664   */\n      dup3\n        /* \"#utility.yul\":13647:13656   */\n      dup6\n        /* \"#utility.yul\":13643:13665   */\n      add\n        /* \"#utility.yul\":13622:13675   */\n      tag_277\n      jump\t// in\n    tag_485:\n        /* \"#utility.yul\":13612:13675   */\n      swap2\n      pop\n        /* \"#utility.yul\":13568:13685   */\n      pop\n        /* \"#utility.yul\":13363:13692   */\n      swap3\n      swap2\n      pop\n      pop\n      jump\t// out\n        /* \"#utility.yul\":13698:13788   */\n    tag_278:\n        /* \"#utility.yul\":13732:13739   */\n      0x00\n        /* \"#utility.yul\":13775:13780   */\n      dup2\n        /* \"#utility.yul\":13768:13781   */\n      iszero\n        /* \"#utility.yul\":13761:13782   */\n      iszero\n        /* \"#utility.yul\":13750:13782   */\n      swap1\n      pop\n        /* \"#utility.yul\":13698:13788   */\n      swap2\n      swap1\n      pop\n      jump\t// out\n        /* \"#utility.yul\":13794:13903   */\n    tag_279:\n        /* \"#utility.yul\":13875:13896   */\n      tag_488\n        /* \"#utility.yul\":13890:13895   */\n      dup2\n        /* \"#utility.yul\":13875:13896   */\n      tag_278\n      jump\t// in\n    tag_488:\n        /* \"#utility.yul\":13870:13873   */\n      dup3\n        /* \"#utility.yul\":13863:13897   */\n      mstore\n        /* \"#utility.yul\":13794:13903   */\n      pop\n      pop\n      jump\t// out\n        /* \"#utility.yul\":13909:14229   */\n    tag_52:\n        /* \"#utility.yul\":14024:14028   */\n      0x00\n        /* \"#utility.yul\":14062:14064   */\n      0x40\n        /* \"#utility.yul\":14051:14060   */\n      dup3\n        /* \"#utility.yul\":14047:14065   */\n      add\n        /* \"#utility.yul\":14039:14065   */\n      swap1\n      pop\n        /* \"#utility.yul\":14075:14140   */\n      tag_490\n        /* \"#utility.yul\":14137:14138   */\n      0x00\n        /* \"#utility.yul\":14126:14135   */\n      dup4\n        /* \"#utility.yul\":14122:14139   */\n      add\n        /* \"#utility.yul\":14113:14119   */\n      dup6\n        /* \"#utility.yul\":14075:14140   */\n      tag_279\n      jump\t// in\n    tag_490:\n        /* \"#utility.yul\":14150:14222   */\n      tag_491\n        /* \"#utility.yul\":14218:14220   */\n      0x20\n        /* \"#utility.yul\":14207:14216   */\n      dup4\n        /* \"#utility.yul\":14203:14221   */\n      add\n        /* \"#utility.yul\":14194:14200   */\n      dup5\n        /* \"#utility.yul\":14150:14222   */\n      tag_238\n      jump\t// in\n    tag_491:\n        /* \"#utility.yul\":13909:14229   */\n      swap4\n      swap3\n      pop\n      pop\n      pop\n      jump\t// out\n        /* \"#utility.yul\":14235:14919   */\n    tag_55:\n        /* \"#utility.yul\":14328:14334   */\n      0x00\n        /* \"#utility.yul\":14336:14342   */\n      dup1\n        /* \"#utility.yul\":14385:14387   */\n      0x40\n        /* \"#utility.yul\":14373:14382   */\n      dup4\n        /* \"#utility.yul\":14364:14371   */\n      dup6\n        /* \"#utility.yul\":14360:14383   */\n      sub\n        /* \"#utility.yul\":14356:14388   */\n      slt\n        /* \"#utility.yul\":14353:14472   */\n      iszero\n      tag_493\n      jumpi\n        /* \"#utility.yul\":14391:14470   */\n      tag_494\n      tag_232\n      jump\t// in\n    tag_494:\n        /* \"#utility.yul\":14353:14472   */\n    tag_493:\n        /* \"#utility.yul\":14539:14540   */\n      0x00\n        /* \"#utility.yul\":14528:14537   */\n      dup4\n        /* \"#utility.yul\":14524:14541   */\n      add\n        /* \"#utility.yul\":14511:14542   */\n      calldataload\n        /* \"#utility.yul\":14569:14587   */\n      0xffffffffffffffff\n        /* \"#utility.yul\":14561:14567   */\n      dup2\n        /* \"#utility.yul\":14558:14588   */\n      gt\n        /* \"#utility.yul\":14555:14672   */\n      iszero\n      tag_495\n      jumpi\n        /* \"#utility.yul\":14591:14670   */\n      tag_496\n      tag_233\n      jump\t// in\n    tag_496:\n        /* \"#utility.yul\":14555:14672   */\n    tag_495:\n        /* \"#utility.yul\":14696:14774   */\n      tag_497\n        /* \"#utility.yul\":14766:14773   */\n      dup6\n        /* \"#utility.yul\":14757:14763   */\n      dup3\n        /* \"#utility.yul\":14746:14755   */\n      dup7\n        /* \"#utility.yul\":14742:14764   */\n      add\n        /* \"#utility.yul\":14696:14774   */\n      tag_268\n      jump\t// in\n    tag_497:\n        /* \"#utility.yul\":14686:14774   */\n      swap3\n      pop\n        /* \"#utility.yul\":14482:14784   */\n      pop\n        /* \"#utility.yul\":14823:14825   */\n      0x20\n        /* \"#utility.yul\":14849:14902   */\n      tag_498\n        /* \"#utility.yul\":14894:14901   */\n      dup6\n        /* \"#utility.yul\":14885:14891   */\n      dup3\n        /* \"#utility.yul\":14874:14883   */\n      dup7\n        /* \"#utility.yul\":14870:14892   */\n      add\n        /* \"#utility.yul\":14849:14902   */\n      tag_255\n      jump\t// in\n    tag_498:\n        /* \"#utility.yul\":14839:14902   */\n      swap2\n      pop\n        /* \"#utility.yul\":14794:14912   */\n      pop\n        /* \"#utility.yul\":14235:14919   */\n      swap3\n      pop\n      swap3\n      swap1\n      pop\n      jump\t// out\n        /* \"#utility.yul\":14925:15105   */\n    tag_280:\n        /* \"#utility.yul\":14973:15050   */\n      0x4e487b7100000000000000000000000000000000000000000000000000000000\n        /* \"#utility.yul\":14970:14971   */\n      0x00\n        /* \"#utility.yul\":14963:15051   */\n      mstore\n        /* \"#utility.yul\":15070:15074   */\n      0x22\n        /* \"#utility.yul\":15067:15068   */\n      0x04\n        /* \"#utility.yul\":15060:15075   */\n      mstore\n        /* \"#utility.yul\":15094:15098   */\n      0x24\n        /* \"#utility.yul\":15091:15092   */\n      0x00\n        /* \"#utility.yul\":15084:15099   */\n      revert\n        /* \"#utility.yul\":15111:15431   */\n    tag_60:\n        /* \"#utility.yul\":15155:15161   */\n      0x00\n        /* \"#utility.yul\":15192:15193   */\n      0x02\n        /* \"#utility.yul\":15186:15190   */\n      dup3\n        /* \"#utility.yul\":15182:15194   */\n      div\n        /* \"#utility.yul\":15172:15194   */\n      swap1\n      pop\n        /* \"#utility.yul\":15239:15240   */\n      0x01\n        /* \"#utility.yul\":15233:15237   */\n      dup3\n        /* \"#utility.yul\":15229:15241   */\n      and\n        /* \"#utility.yul\":15260:15278   */\n      dup1\n        /* \"#utility.yul\":15250:15331   */\n      tag_501\n      jumpi\n        /* \"#utility.yul\":15316:15320   */\n      0x7f\n        /* \"#utility.yul\":15308:15314   */\n      dup3\n        /* \"#utility.yul\":15304:15321   */\n      and\n        /* \"#utility.yul\":15294:15321   */\n      swap2\n      pop\n        /* \"#utility.yul\":15250:15331   */\n    tag_501:\n        /* \"#utility.yul\":15378:15380   */\n      0x20\n        /* \"#utility.yul\":15370:15376   */\n      dup3\n        /* \"#utility.yul\":15367:15381   */\n      lt\n        /* \"#utility.yul\":15347:15365   */\n      dup2\n        /* \"#utility.yul\":15344:15382   */\n      sub\n        /* \"#utility.yul\":15341:15425   */\n      tag_502\n      jumpi\n        /* \"#utility.yul\":15397:15415   */\n      tag_503\n      tag_280\n      jump\t// in\n    tag_503:\n        /* \"#utility.yul\":15341:15425   */\n    tag_502:\n        /* \"#utility.yul\":15162:15431   */\n      pop\n        /* \"#utility.yul\":15111:15431   */\n      swap2\n      swap1\n      pop\n      jump\t// out\n        /* \"#utility.yul\":15437:15664   */\n    tag_281:\n        /* \"#utility.yul\":15577:15611   */\n      0x4f6e6c79206368616972706572736f6e2063616e20706572666f726d20746869\n        /* \"#utility.yul\":15573:15574   */\n      0x00\n        /* \"#utility.yul\":15565:15571   */\n      dup3\n        /* \"#utility.yul\":15561:15575   */\n      add\n        /* \"#utility.yul\":15554:15612   */\n      mstore\n        /* \"#utility.yul\":15646:15656   */\n      0x7320616374696f6e000000000000000000000000000000000000000000000000\n        /* \"#utility.yul\":15641:15643   */\n      0x20\n        /* \"#utility.yul\":15633:15639   */\n      dup3\n        /* \"#utility.yul\":15629:15644   */\n      add\n        /* \"#utility.yul\":15622:15657   */\n      mstore\n        /* \"#utility.yul\":15437:15664   */\n      pop\n      jump\t// out\n        /* \"#utility.yul\":15670:16036   */\n    tag_282:\n        /* \"#utility.yul\":15812:15815   */\n      0x00\n        /* \"#utility.yul\":15833:15900   */\n      tag_506\n        /* \"#utility.yul\":15897:15899   */\n      0x28\n        /* \"#utility.yul\":15892:15895   */\n      dup4\n        /* \"#utility.yul\":15833:15900   */\n      tag_240\n      jump\t// in\n    tag_506:\n        /* \"#utility.yul\":15826:15900   */\n      swap2\n      pop\n        /* \"#utility.yul\":15909:16002   */\n      tag_507\n        /* \"#utility.yul\":15998:16001   */\n      dup3\n        /* \"#utility.yul\":15909:16002   */\n      tag_281\n      jump\t// in\n    tag_507:\n        /* \"#utility.yul\":16027:16029   */\n      0x40\n        /* \"#utility.yul\":16022:16025   */\n      dup3\n        /* \"#utility.yul\":16018:16030   */\n      add\n        /* \"#utility.yul\":16011:16030   */\n      swap1\n      pop\n        /* \"#utility.yul\":15670:16036   */\n      swap2\n      swap1\n      pop\n      jump\t// out\n        /* \"#utility.yul\":16042:16461   */\n    tag_68:\n        /* \"#utility.yul\":16208:16212   */\n      0x00\n        /* \"#utility.yul\":16246:16248   */\n      0x20\n        /* \"#utility.yul\":16235:16244   */\n      dup3\n        /* \"#utility.yul\":16231:16249   */\n      add\n        /* \"#utility.yul\":16223:16249   */\n      swap1\n      pop\n        /* \"#utility.yul\":16295:16304   */\n      dup2\n        /* \"#utility.yul\":16289:16293   */\n      dup2\n        /* \"#utility.yul\":16285:16305   */\n      sub\n        /* \"#utility.yul\":16281:16282   */\n      0x00\n        /* \"#utility.yul\":16270:16279   */\n      dup4\n        /* \"#utility.yul\":16266:16283   */\n      add\n        /* \"#utility.yul\":16259:16306   */\n      mstore\n        /* \"#utility.yul\":16323:16454   */\n      tag_509\n        /* \"#utility.yul\":16449:16453   */\n      dup2\n        /* \"#utility.yul\":16323:16454   */\n      tag_282\n      jump\t// in\n    tag_509:\n        /* \"#utility.yul\":16315:16454   */\n      swap1\n      pop\n        /* \"#utility.yul\":16042:16461   */\n      swap2\n      swap1\n      pop\n      jump\t// out\n        /* \"#utility.yul\":16467:16633   */\n    tag_283:\n        /* \"#utility.yul\":16607:16625   */\n      0x566f74696e672068617320656e64656400000000000000000000000000000000\n        /* \"#utility.yul\":16603:16604   */\n      0x00\n        /* \"#utility.yul\":16595:16601   */\n      dup3\n        /* \"#utility.yul\":16591:16605   */\n      add\n        /* \"#utility.yul\":16584:16626   */\n      mstore\n        /* \"#utility.yul\":16467:16633   */\n      pop\n      jump\t// out\n        /* \"#utility.yul\":16639:17005   */\n    tag_284:\n        /* \"#utility.yul\":16781:16784   */\n      0x00\n        /* \"#utility.yul\":16802:16869   */\n      tag_512\n        /* \"#utility.yul\":16866:16868   */\n      0x10\n        /* \"#utility.yul\":16861:16864   */\n      dup4\n        /* \"#utility.yul\":16802:16869   */\n      tag_240\n      jump\t// in\n    tag_512:\n        /* \"#utility.yul\":16795:16869   */\n      swap2\n      pop\n        /* \"#utility.yul\":16878:16971   */\n      tag_513\n        /* \"#utility.yul\":16967:16970   */\n      dup3\n        /* \"#utility.yul\":16878:16971   */\n      tag_283\n      jump\t// in\n    tag_513:\n        /* \"#utility.yul\":16996:16998   */\n      0x20\n        /* \"#utility.yul\":16991:16994   */\n      dup3\n        /* \"#utility.yul\":16987:16999   */\n      add\n        /* \"#utility.yul\":16980:16999   */\n      swap1\n      pop\n        /* \"#utility.yul\":16639:17005   */\n      swap2\n      swap1\n      pop\n      jump\t// out\n        /* \"#utility.yul\":17011:17430   */\n    tag_72:\n        /* \"#utility.yul\":17177:17181   */\n      0x00\n        /* \"#utility.yul\":17215:17217   */\n      0x20\n        /* \"#utility.yul\":17204:17213   */\n      dup3\n        /* \"#utility.yul\":17200:17218   */\n      add\n        /* \"#utility.yul\":17192:17218   */\n      swap1\n      pop\n        /* \"#utility.yul\":17264:17273   */\n      dup2\n        /* \"#utility.yul\":17258:17262   */\n      dup2\n        /* \"#utility.yul\":17254:17274   */\n      sub\n        /* \"#utility.yul\":17250:17251   */\n      0x00\n        /* \"#utility.yul\":17239:17248   */\n      dup4\n        /* \"#utility.yul\":17235:17252   */\n      add\n        /* \"#utility.yul\":17228:17275   */\n      mstore\n        /* \"#utility.yul\":17292:17423   */\n      tag_515\n        /* \"#utility.yul\":17418:17422   */\n      dup2\n        /* \"#utility.yul\":17292:17423   */\n      tag_284\n      jump\t// in\n    tag_515:\n        /* \"#utility.yul\":17284:17423   */\n      swap1\n      pop\n        /* \"#utility.yul\":17011:17430   */\n      swap2\n      swap1\n      pop\n      jump\t// out\n        /* \"#utility.yul\":17436:17616   */\n    tag_79:\n        /* \"#utility.yul\":17484:17561   */\n      0x4e487b7100000000000000000000000000000000000000000000000000000000\n        /* \"#utility.yul\":17481:17482   */\n      0x00\n        /* \"#utility.yul\":17474:17562   */\n      mstore\n        /* \"#utility.yul\":17581:17585   */\n      0x32\n        /* \"#utility.yul\":17578:17579   */\n      0x04\n        /* \"#utility.yul\":17571:17586   */\n      mstore\n        /* \"#utility.yul\":17605:17609   */\n      0x24\n        /* \"#utility.yul\":17602:17603   */\n      0x00\n        /* \"#utility.yul\":17595:17610   */\n      revert\n        /* \"#utility.yul\":17622:17785   */\n    tag_285:\n        /* \"#utility.yul\":17762:17777   */\n      0x496e76616c696420737461746500000000000000000000000000000000000000\n        /* \"#utility.yul\":17758:17759   */\n      0x00\n        /* \"#utility.yul\":17750:17756   */\n      dup3\n        /* \"#utility.yul\":17746:17760   */\n      add\n        /* \"#utility.yul\":17739:17778   */\n      mstore\n        /* \"#utility.yul\":17622:17785   */\n      pop\n      jump\t// out\n        /* \"#utility.yul\":17791:18157   */\n    tag_286:\n        /* \"#utility.yul\":17933:17936   */\n      0x00\n        /* \"#utility.yul\":17954:18021   */\n      tag_519\n        /* \"#utility.yul\":18018:18020   */\n      0x0d\n        /* \"#utility.yul\":18013:18016   */\n      dup4\n        /* \"#utility.yul\":17954:18021   */\n      tag_240\n      jump\t// in\n    tag_519:\n        /* \"#utility.yul\":17947:18021   */\n      swap2\n      pop\n        /* \"#utility.yul\":18030:18123   */\n      tag_520\n        /* \"#utility.yul\":18119:18122   */\n      dup3\n        /* \"#utility.yul\":18030:18123   */\n      tag_285\n      jump\t// in\n    tag_520:\n        /* \"#utility.yul\":18148:18150   */\n      0x20\n        /* \"#utility.yul\":18143:18146   */\n      dup3\n        /* \"#utility.yul\":18139:18151   */\n      add\n        /* \"#utility.yul\":18132:18151   */\n      swap1\n      pop\n        /* \"#utility.yul\":17791:18157   */\n      swap2\n      swap1\n      pop\n      jump\t// out\n        /* \"#utility.yul\":18163:18582   */\n    tag_98:\n        /* \"#utility.yul\":18329:18333   */\n      0x00\n        /* \"#utility.yul\":18367:18369   */\n      0x20\n        /* \"#utility.yul\":18356:18365   */\n      dup3\n        /* \"#utility.yul\":18352:18370   */\n      add\n        /* \"#utility.yul\":18344:18370   */\n      swap1\n      pop\n        /* \"#utility.yul\":18416:18425   */\n      dup2\n        /* \"#utility.yul\":18410:18414   */\n      dup2\n        /* \"#utility.yul\":18406:18426   */\n      sub\n        /* \"#utility.yul\":18402:18403   */\n      0x00\n        /* \"#utility.yul\":18391:18400   */\n      dup4\n        /* \"#utility.yul\":18387:18404   */\n      add\n        /* \"#utility.yul\":18380:18427   */\n      mstore\n        /* \"#utility.yul\":18444:18575   */\n      tag_522\n        /* \"#utility.yul\":18570:18574   */\n      dup2\n        /* \"#utility.yul\":18444:18575   */\n      tag_286\n      jump\t// in\n    tag_522:\n        /* \"#utility.yul\":18436:18575   */\n      swap1\n      pop\n        /* \"#utility.yul\":18163:18582   */\n      swap2\n      swap1\n      pop\n      jump\t// out\n        /* \"#utility.yul\":18588:18736   */\n    tag_287:\n        /* \"#utility.yul\":18690:18701   */\n      0x00\n        /* \"#utility.yul\":18727:18730   */\n      dup2\n        /* \"#utility.yul\":18712:18730   */\n      swap1\n      pop\n        /* \"#utility.yul\":18588:18736   */\n      swap3\n      swap2\n      pop\n      pop\n      jump\t// out\n        /* \"#utility.yul\":18742:18883   */\n    tag_288:\n        /* \"#utility.yul\":18791:18795   */\n      0x00\n        /* \"#utility.yul\":18814:18817   */\n      dup2\n        /* \"#utility.yul\":18806:18817   */\n      swap1\n      pop\n        /* \"#utility.yul\":18837:18840   */\n      dup2\n        /* \"#utility.yul\":18834:18835   */\n      0x00\n        /* \"#utility.yul\":18827:18841   */\n      mstore\n        /* \"#utility.yul\":18871:18875   */\n      0x20\n        /* \"#utility.yul\":18868:18869   */\n      0x00\n        /* \"#utility.yul\":18858:18876   */\n      keccak256\n        /* \"#utility.yul\":18850:18876   */\n      swap1\n      pop\n        /* \"#utility.yul\":18742:18883   */\n      swap2\n      swap1\n      pop\n      jump\t// out\n        /* \"#utility.yul\":18913:19787   */\n    tag_289:\n        /* \"#utility.yul\":19016:19019   */\n      0x00\n        /* \"#utility.yul\":19053:19058   */\n      dup2\n        /* \"#utility.yul\":19047:19059   */\n      sload\n        /* \"#utility.yul\":19082:19118   */\n      tag_526\n        /* \"#utility.yul\":19108:19117   */\n      dup2\n        /* \"#utility.yul\":19082:19118   */\n      tag_60\n      jump\t// in\n    tag_526:\n        /* \"#utility.yul\":19134:19223   */\n      tag_527\n        /* \"#utility.yul\":19216:19222   */\n      dup2\n        /* \"#utility.yul\":19211:19214   */\n      dup7\n        /* \"#utility.yul\":19134:19223   */\n      tag_287\n      jump\t// in\n    tag_527:\n        /* \"#utility.yul\":19127:19223   */\n      swap5\n      pop\n        /* \"#utility.yul\":19254:19255   */\n      0x01\n        /* \"#utility.yul\":19243:19252   */\n      dup3\n        /* \"#utility.yul\":19239:19256   */\n      and\n        /* \"#utility.yul\":19270:19271   */\n      0x00\n        /* \"#utility.yul\":19265:19431   */\n      dup2\n      eq\n      tag_529\n      jumpi\n        /* \"#utility.yul\":19445:19446   */\n      0x01\n        /* \"#utility.yul\":19440:19781   */\n      dup2\n      eq\n      tag_530\n      jumpi\n        /* \"#utility.yul\":19232:19781   */\n      jump(tag_528)\n        /* \"#utility.yul\":19265:19431   */\n    tag_529:\n        /* \"#utility.yul\":19349:19353   */\n      0xff\n        /* \"#utility.yul\":19345:19354   */\n      not\n        /* \"#utility.yul\":19334:19343   */\n      dup4\n        /* \"#utility.yul\":19330:19355   */\n      and\n        /* \"#utility.yul\":19325:19328   */\n      dup7\n        /* \"#utility.yul\":19318:19356   */\n      mstore\n        /* \"#utility.yul\":19411:19417   */\n      dup2\n        /* \"#utility.yul\":19404:19418   */\n      iszero\n        /* \"#utility.yul\":19397:19419   */\n      iszero\n        /* \"#utility.yul\":19389:19395   */\n      dup3\n        /* \"#utility.yul\":19385:19420   */\n      mul\n        /* \"#utility.yul\":19380:19383   */\n      dup7\n        /* \"#utility.yul\":19376:19421   */\n      add\n        /* \"#utility.yul\":19369:19421   */\n      swap4\n      pop\n        /* \"#utility.yul\":19265:19431   */\n      jump(tag_528)\n        /* \"#utility.yul\":19440:19781   */\n    tag_530:\n        /* \"#utility.yul\":19507:19545   */\n      tag_531\n        /* \"#utility.yul\":19539:19544   */\n      dup6\n        /* \"#utility.yul\":19507:19545   */\n      tag_288\n      jump\t// in\n    tag_531:\n        /* \"#utility.yul\":19567:19568   */\n      0x00\n        /* \"#utility.yul\":19581:19735   */\n    tag_532:\n        /* \"#utility.yul\":19595:19601   */\n      dup4\n        /* \"#utility.yul\":19592:19593   */\n      dup2\n        /* \"#utility.yul\":19589:19602   */\n      lt\n        /* \"#utility.yul\":19581:19735   */\n      iszero\n      tag_534\n      jumpi\n        /* \"#utility.yul\":19669:19676   */\n      dup2\n        /* \"#utility.yul\":19663:19677   */\n      sload\n        /* \"#utility.yul\":19659:19660   */\n      dup2\n        /* \"#utility.yul\":19654:19657   */\n      dup10\n        /* \"#utility.yul\":19650:19661   */\n      add\n        /* \"#utility.yul\":19643:19678   */\n      mstore\n        /* \"#utility.yul\":19719:19720   */\n      0x01\n        /* \"#utility.yul\":19710:19717   */\n      dup3\n        /* \"#utility.yul\":19706:19721   */\n      add\n        /* \"#utility.yul\":19695:19721   */\n      swap2\n      pop\n        /* \"#utility.yul\":19617:19621   */\n      0x20\n        /* \"#utility.yul\":19614:19615   */\n      dup2\n        /* \"#utility.yul\":19610:19622   */\n      add\n        /* \"#utility.yul\":19605:19622   */\n      swap1\n      pop\n        /* \"#utility.yul\":19581:19735   */\n      jump(tag_532)\n    tag_534:\n        /* \"#utility.yul\":19764:19770   */\n      dup4\n        /* \"#utility.yul\":19759:19762   */\n      dup9\n        /* \"#utility.yul\":19755:19771   */\n      add\n        /* \"#utility.yul\":19748:19771   */\n      swap6\n      pop\n        /* \"#utility.yul\":19447:19781   */\n      pop\n      pop\n        /* \"#utility.yul\":19232:19781   */\n    tag_528:\n      pop\n        /* \"#utility.yul\":19020:19787   */\n      pop\n      pop\n        /* \"#utility.yul\":18913:19787   */\n      swap3\n      swap2\n      pop\n      pop\n      jump\t// out\n        /* \"#utility.yul\":19793:20062   */\n    tag_110:\n        /* \"#utility.yul\":19922:19925   */\n      0x00\n        /* \"#utility.yul\":19944:20036   */\n      tag_536\n        /* \"#utility.yul\":20032:20035   */\n      dup3\n        /* \"#utility.yul\":20023:20029   */\n      dup5\n        /* \"#utility.yul\":19944:20036   */\n      tag_289\n      jump\t// in\n    tag_536:\n        /* \"#utility.yul\":19937:20036   */\n      swap2\n      pop\n        /* \"#utility.yul\":20053:20056   */\n      dup2\n        /* \"#utility.yul\":20046:20056   */\n      swap1\n      pop\n        /* \"#utility.yul\":19793:20062   */\n      swap3\n      swap2\n      pop\n      pop\n      jump\t// out\n        /* \"#utility.yul\":20068:20240   */\n    tag_290:\n        /* \"#utility.yul\":20208:20232   */\n      0x526567697374726174696f6e2068617320656e64656400000000000000000000\n        /* \"#utility.yul\":20204:20205   */\n      0x00\n        /* \"#utility.yul\":20196:20202   */\n      dup3\n        /* \"#utility.yul\":20192:20206   */\n      add\n        /* \"#utility.yul\":20185:20233   */\n      mstore\n        /* \"#utility.yul\":20068:20240   */\n      pop\n      jump\t// out\n        /* \"#utility.yul\":20246:20612   */\n    tag_291:\n        /* \"#utility.yul\":20388:20391   */\n      0x00\n        /* \"#utility.yul\":20409:20476   */\n      tag_539\n        /* \"#utility.yul\":20473:20475   */\n      0x16\n        /* \"#utility.yul\":20468:20471   */\n      dup4\n        /* \"#utility.yul\":20409:20476   */\n      tag_240\n      jump\t// in\n    tag_539:\n        /* \"#utility.yul\":20402:20476   */\n      swap2\n      pop\n        /* \"#utility.yul\":20485:20578   */\n      tag_540\n        /* \"#utility.yul\":20574:20577   */\n      dup3\n        /* \"#utility.yul\":20485:20578   */\n      tag_290\n      jump\t// in\n    tag_540:\n        /* \"#utility.yul\":20603:20605   */\n      0x20\n        /* \"#utility.yul\":20598:20601   */\n      dup3\n        /* \"#utility.yul\":20594:20606   */\n      add\n        /* \"#utility.yul\":20587:20606   */\n      swap1\n      pop\n        /* \"#utility.yul\":20246:20612   */\n      swap2\n      swap1\n      pop\n      jump\t// out\n        /* \"#utility.yul\":20618:21037   */\n    tag_117:\n        /* \"#utility.yul\":20784:20788   */\n      0x00\n        /* \"#utility.yul\":20822:20824   */\n      0x20\n        /* \"#utility.yul\":20811:20820   */\n      dup3\n        /* \"#utility.yul\":20807:20825   */\n      add\n        /* \"#utility.yul\":20799:20825   */\n      swap1\n      pop\n        /* \"#utility.yul\":20871:20880   */\n      dup2\n        /* \"#utility.yul\":20865:20869   */\n      dup2\n        /* \"#utility.yul\":20861:20881   */\n      sub\n        /* \"#utility.yul\":20857:20858   */\n      0x00\n        /* \"#utility.yul\":20846:20855   */\n      dup4\n        /* \"#utility.yul\":20842:20859   */\n      add\n        /* \"#utility.yul\":20835:20882   */\n      mstore\n        /* \"#utility.yul\":20899:21030   */\n      tag_542\n        /* \"#utility.yul\":21025:21029   */\n      dup2\n        /* \"#utility.yul\":20899:21030   */\n      tag_291\n      jump\t// in\n    tag_542:\n        /* \"#utility.yul\":20891:21030   */\n      swap1\n      pop\n        /* \"#utility.yul\":20618:21037   */\n      swap2\n      swap1\n      pop\n      jump\t// out\n        /* \"#utility.yul\":21043:21433   */\n    tag_292:\n        /* \"#utility.yul\":21149:21152   */\n      0x00\n        /* \"#utility.yul\":21177:21216   */\n      tag_544\n        /* \"#utility.yul\":21210:21215   */\n      dup3\n        /* \"#utility.yul\":21177:21216   */\n      tag_239\n      jump\t// in\n    tag_544:\n        /* \"#utility.yul\":21232:21321   */\n      tag_545\n        /* \"#utility.yul\":21314:21320   */\n      dup2\n        /* \"#utility.yul\":21309:21312   */\n      dup6\n        /* \"#utility.yul\":21232:21321   */\n      tag_287\n      jump\t// in\n    tag_545:\n        /* \"#utility.yul\":21225:21321   */\n      swap4\n      pop\n        /* \"#utility.yul\":21330:21395   */\n      tag_546\n        /* \"#utility.yul\":21388:21394   */\n      dup2\n        /* \"#utility.yul\":21383:21386   */\n      dup6\n        /* \"#utility.yul\":21376:21380   */\n      0x20\n        /* \"#utility.yul\":21369:21374   */\n      dup7\n        /* \"#utility.yul\":21365:21381   */\n      add\n        /* \"#utility.yul\":21330:21395   */\n      tag_241\n      jump\t// in\n    tag_546:\n        /* \"#utility.yul\":21420:21426   */\n      dup1\n        /* \"#utility.yul\":21415:21418   */\n      dup5\n        /* \"#utility.yul\":21411:21427   */\n      add\n        /* \"#utility.yul\":21404:21427   */\n      swap2\n      pop\n        /* \"#utility.yul\":21153:21433   */\n      pop\n        /* \"#utility.yul\":21043:21433   */\n      swap3\n      swap2\n      pop\n      pop\n      jump\t// out\n        /* \"#utility.yul\":21439:21714   */\n    tag_119:\n        /* \"#utility.yul\":21571:21574   */\n      0x00\n        /* \"#utility.yul\":21593:21688   */\n      tag_548\n        /* \"#utility.yul\":21684:21687   */\n      dup3\n        /* \"#utility.yul\":21675:21681   */\n      dup5\n        /* \"#utility.yul\":21593:21688   */\n      tag_292\n      jump\t// in\n    tag_548:\n        /* \"#utility.yul\":21586:21688   */\n      swap2\n      pop\n        /* \"#utility.yul\":21705:21708   */\n      dup2\n        /* \"#utility.yul\":21698:21708   */\n      swap1\n      pop\n        /* \"#utility.yul\":21439:21714   */\n      swap3\n      swap2\n      pop\n      pop\n      jump\t// out\n        /* \"#utility.yul\":21720:21942   */\n    tag_293:\n        /* \"#utility.yul\":21860:21894   */\n      0x5465616d2068617320616c726561647920726567697374657220612070726f6a\n        /* \"#utility.yul\":21856:21857   */\n      0x00\n        /* \"#utility.yul\":21848:21854   */\n      dup3\n        /* \"#utility.yul\":21844:21858   */\n      add\n        /* \"#utility.yul\":21837:21895   */\n      mstore\n        /* \"#utility.yul\":21929:21934   */\n      0x6563740000000000000000000000000000000000000000000000000000000000\n        /* \"#utility.yul\":21924:21926   */\n      0x20\n        /* \"#utility.yul\":21916:21922   */\n      dup3\n        /* \"#utility.yul\":21912:21927   */\n      add\n        /* \"#utility.yul\":21905:21935   */\n      mstore\n        /* \"#utility.yul\":21720:21942   */\n      pop\n      jump\t// out\n        /* \"#utility.yul\":21948:22314   */\n    tag_294:\n        /* \"#utility.yul\":22090:22093   */\n      0x00\n        /* \"#utility.yul\":22111:22178   */\n      tag_551\n        /* \"#utility.yul\":22175:22177   */\n      0x23\n        /* \"#utility.yul\":22170:22173   */\n      dup4\n        /* \"#utility.yul\":22111:22178   */\n      tag_240\n      jump\t// in\n    tag_551:\n        /* \"#utility.yul\":22104:22178   */\n      swap2\n      pop\n        /* \"#utility.yul\":22187:22280   */\n      tag_552\n        /* \"#utility.yul\":22276:22279   */\n      dup3\n        /* \"#utility.yul\":22187:22280   */\n      tag_293\n      jump\t// in\n    tag_552:\n        /* \"#utility.yul\":22305:22307   */\n      0x40\n        /* \"#utility.yul\":22300:22303   */\n      dup3\n        /* \"#utility.yul\":22296:22308   */\n      add\n        /* \"#utility.yul\":22289:22308   */\n      swap1\n      pop\n        /* \"#utility.yul\":21948:22314   */\n      swap2\n      swap1\n      pop\n      jump\t// out\n        /* \"#utility.yul\":22320:22739   */\n    tag_122:\n        /* \"#utility.yul\":22486:22490   */\n      0x00\n        /* \"#utility.yul\":22524:22526   */\n      0x20\n        /* \"#utility.yul\":22513:22522   */\n      dup3\n        /* \"#utility.yul\":22509:22527   */\n      add\n        /* \"#utility.yul\":22501:22527   */\n      swap1\n      pop\n        /* \"#utility.yul\":22573:22582   */\n      dup2\n        /* \"#utility.yul\":22567:22571   */\n      dup2\n        /* \"#utility.yul\":22563:22583   */\n      sub\n        /* \"#utility.yul\":22559:22560   */\n      0x00\n        /* \"#utility.yul\":22548:22557   */\n      dup4\n        /* \"#utility.yul\":22544:22561   */\n      add\n        /* \"#utility.yul\":22537:22584   */\n      mstore\n        /* \"#utility.yul\":22601:22732   */\n      tag_554\n        /* \"#utility.yul\":22727:22731   */\n      dup2\n        /* \"#utility.yul\":22601:22732   */\n      tag_294\n      jump\t// in\n    tag_554:\n        /* \"#utility.yul\":22593:22732   */\n      swap1\n      pop\n        /* \"#utility.yul\":22320:22739   */\n      swap2\n      swap1\n      pop\n      jump\t// out\n        /* \"#utility.yul\":22745:22838   */\n    tag_295:\n        /* \"#utility.yul\":22782:22788   */\n      0x00\n        /* \"#utility.yul\":22829:22831   */\n      0x20\n        /* \"#utility.yul\":22824:22826   */\n      0x1f\n        /* \"#utility.yul\":22817:22822   */\n      dup4\n        /* \"#utility.yul\":22813:22827   */\n      add\n        /* \"#utility.yul\":22809:22832   */\n      div\n        /* \"#utility.yul\":22799:22832   */\n      swap1\n      pop\n        /* \"#utility.yul\":22745:22838   */\n      swap2\n      swap1\n      pop\n      jump\t// out\n        /* \"#utility.yul\":22844:22951   */\n    tag_296:\n        /* \"#utility.yul\":22888:22896   */\n      0x00\n        /* \"#utility.yul\":22938:22943   */\n      dup3\n        /* \"#utility.yul\":22932:22936   */\n      dup3\n        /* \"#utility.yul\":22928:22944   */\n      shl\n        /* \"#utility.yul\":22907:22944   */\n      swap1\n      pop\n        /* \"#utility.yul\":22844:22951   */\n      swap3\n      swap2\n      pop\n      pop\n      jump\t// out\n        /* \"#utility.yul\":22957:23350   */\n    tag_297:\n        /* \"#utility.yul\":23026:23032   */\n      0x00\n        /* \"#utility.yul\":23076:23077   */\n      0x08\n        /* \"#utility.yul\":23064:23074   */\n      dup4\n        /* \"#utility.yul\":23060:23078   */\n      mul\n        /* \"#utility.yul\":23099:23196   */\n      tag_558\n        /* \"#utility.yul\":23129:23195   */\n      0xffffffffffffffffffffffffffffffffffffffffffffffffffffffffffffffff\n        /* \"#utility.yul\":23118:23127   */\n      dup3\n        /* \"#utility.yul\":23099:23196   */\n      tag_296\n      jump\t// in\n    tag_558:\n        /* \"#utility.yul\":23217:23256   */\n      tag_559\n        /* \"#utility.yul\":23247:23255   */\n      dup7\n        /* \"#utility.yul\":23236:23245   */\n      dup4\n        /* \"#utility.yul\":23217:23256   */\n      tag_296\n      jump\t// in\n    tag_559:\n        /* \"#utility.yul\":23205:23256   */\n      swap6\n      pop\n        /* \"#utility.yul\":23289:23293   */\n      dup1\n        /* \"#utility.yul\":23285:23294   */\n      not\n        /* \"#utility.yul\":23278:23283   */\n      dup5\n        /* \"#utility.yul\":23274:23295   */\n      and\n        /* \"#utility.yul\":23265:23295   */\n      swap4\n      pop\n        /* \"#utility.yul\":23338:23342   */\n      dup1\n        /* \"#utility.yul\":23328:23336   */\n      dup7\n        /* \"#utility.yul\":23324:23343   */\n      and\n        /* \"#utility.yul\":23317:23322   */\n      dup5\n        /* \"#utility.yul\":23314:23344   */\n      or\n        /* \"#utility.yul\":23304:23344   */\n      swap3\n      pop\n        /* \"#utility.yul\":23033:23350   */\n      pop\n      pop\n        /* \"#utility.yul\":22957:23350   */\n      swap4\n      swap3\n      pop\n      pop\n      pop\n      jump\t// out\n        /* \"#utility.yul\":23356:23416   */\n    tag_298:\n        /* \"#utility.yul\":23384:23387   */\n      0x00\n        /* \"#utility.yul\":23405:23410   */\n      dup2\n        /* \"#utility.yul\":23398:23410   */\n      swap1\n      pop\n        /* \"#utility.yul\":23356:23416   */\n      swap2\n      swap1\n      pop\n      jump\t// out\n        /* \"#utility.yul\":23422:23564   */\n    tag_299:\n        /* \"#utility.yul\":23472:23481   */\n      0x00\n        /* \"#utility.yul\":23505:23558   */\n      tag_562\n        /* \"#utility.yul\":23523:23557   */\n      tag_563\n        /* \"#utility.yul\":23532:23556   */\n      tag_564\n        /* \"#utility.yul\":23550:23555   */\n      dup5\n        /* \"#utility.yul\":23532:23556   */\n      tag_234\n      jump\t// in\n    tag_564:\n        /* \"#utility.yul\":23523:23557   */\n      tag_298\n      jump\t// in\n    tag_563:\n        /* \"#utility.yul\":23505:23558   */\n      tag_234\n      jump\t// in\n    tag_562:\n        /* \"#utility.yul\":23492:23558   */\n      swap1\n      pop\n        /* \"#utility.yul\":23422:23564   */\n      swap2\n      swap1\n      pop\n      jump\t// out\n        /* \"#utility.yul\":23570:23645   */\n    tag_300:\n        /* \"#utility.yul\":23613:23616   */\n      0x00\n        /* \"#utility.yul\":23634:23639   */\n      dup2\n        /* \"#utility.yul\":23627:23639   */\n      swap1\n      pop\n        /* \"#utility.yul\":23570:23645   */\n      swap2\n      swap1\n      pop\n      jump\t// out\n        /* \"#utility.yul\":23651:23920   */\n    tag_301:\n        /* \"#utility.yul\":23761:23800   */\n      tag_567\n        /* \"#utility.yul\":23792:23799   */\n      dup4\n        /* \"#utility.yul\":23761:23800   */\n      tag_299\n      jump\t// in\n    tag_567:\n        /* \"#utility.yul\":23822:23913   */\n      tag_568\n        /* \"#utility.yul\":23871:23912   */\n      tag_569\n        /* \"#utility.yul\":23895:23911   */\n      dup3\n        /* \"#utility.yul\":23871:23912   */\n      tag_300\n      jump\t// in\n    tag_569:\n        /* \"#utility.yul\":23863:23869   */\n      dup5\n        /* \"#utility.yul\":23856:23860   */\n      dup5\n        /* \"#utility.yul\":23850:23861   */\n      sload\n        /* \"#utility.yul\":23822:23913   */\n      tag_297\n      jump\t// in\n    tag_568:\n        /* \"#utility.yul\":23816:23820   */\n      dup3\n        /* \"#utility.yul\":23809:23914   */\n      sstore\n        /* \"#utility.yul\":23727:23920   */\n      pop\n        /* \"#utility.yul\":23651:23920   */\n      pop\n      pop\n      pop\n      jump\t// out\n        /* \"#utility.yul\":23926:23999   */\n    tag_302:\n        /* \"#utility.yul\":23971:23974   */\n      0x00\n        /* \"#utility.yul\":23926:23999   */\n      swap1\n      jump\t// out\n        /* \"#utility.yul\":24005:24194   */\n    tag_303:\n        /* \"#utility.yul\":24082:24114   */\n      tag_572\n      tag_302\n      jump\t// in\n    tag_572:\n        /* \"#utility.yul\":24123:24188   */\n      tag_573\n        /* \"#utility.yul\":24181:24187   */\n      dup2\n        /* \"#utility.yul\":24173:24179   */\n      dup5\n        /* \"#utility.yul\":24167:24171   */\n      dup5\n        /* \"#utility.yul\":24123:24188   */\n      tag_301\n      jump\t// in\n    tag_573:\n        /* \"#utility.yul\":24058:24194   */\n      pop\n        /* \"#utility.yul\":24005:24194   */\n      pop\n      pop\n      jump\t// out\n        /* \"#utility.yul\":24200:24386   */\n    tag_304:\n        /* \"#utility.yul\":24260:24380   */\n    tag_575:\n        /* \"#utility.yul\":24277:24280   */\n      dup2\n        /* \"#utility.yul\":24270:24275   */\n      dup2\n        /* \"#utility.yul\":24267:24281   */\n      lt\n        /* \"#utility.yul\":24260:24380   */\n      iszero\n      tag_577\n      jumpi\n        /* \"#utility.yul\":24331:24370   */\n      tag_578\n        /* \"#utility.yul\":24368:24369   */\n      0x00\n        /* \"#utility.yul\":24361:24366   */\n      dup3\n        /* \"#utility.yul\":24331:24370   */\n      tag_303\n      jump\t// in\n    tag_578:\n        /* \"#utility.yul\":24304:24305   */\n      0x01\n        /* \"#utility.yul\":24297:24302   */\n      dup2\n        /* \"#utility.yul\":24293:24306   */\n      add\n        /* \"#utility.yul\":24284:24306   */\n      swap1\n      pop\n        /* \"#utility.yul\":24260:24380   */\n      jump(tag_575)\n    tag_577:\n        /* \"#utility.yul\":24200:24386   */\n      pop\n      pop\n      jump\t// out\n        /* \"#utility.yul\":24392:24935   */\n    tag_305:\n        /* \"#utility.yul\":24493:24495   */\n      0x1f\n        /* \"#utility.yul\":24488:24491   */\n      dup3\n        /* \"#utility.yul\":24485:24496   */\n      gt\n        /* \"#utility.yul\":24482:24928   */\n      iszero\n      tag_580\n      jumpi\n        /* \"#utility.yul\":24527:24565   */\n      tag_581\n        /* \"#utility.yul\":24559:24564   */\n      dup2\n        /* \"#utility.yul\":24527:24565   */\n      tag_288\n      jump\t// in\n    tag_581:\n        /* \"#utility.yul\":24611:24640   */\n      tag_582\n        /* \"#utility.yul\":24629:24639   */\n      dup5\n        /* \"#utility.yul\":24611:24640   */\n      tag_295\n      jump\t// in\n    tag_582:\n        /* \"#utility.yul\":24601:24609   */\n      dup2\n        /* \"#utility.yul\":24597:24641   */\n      add\n        /* \"#utility.yul\":24794:24796   */\n      0x20\n        /* \"#utility.yul\":24782:24792   */\n      dup6\n        /* \"#utility.yul\":24779:24797   */\n      lt\n        /* \"#utility.yul\":24776:24825   */\n      iszero\n      tag_583\n      jumpi\n        /* \"#utility.yul\":24815:24823   */\n      dup2\n        /* \"#utility.yul\":24800:24823   */\n      swap1\n      pop\n        /* \"#utility.yul\":24776:24825   */\n    tag_583:\n        /* \"#utility.yul\":24838:24918   */\n      tag_584\n        /* \"#utility.yul\":24894:24916   */\n      tag_585\n        /* \"#utility.yul\":24912:24915   */\n      dup6\n        /* \"#utility.yul\":24894:24916   */\n      tag_295\n      jump\t// in\n    tag_585:\n        /* \"#utility.yul\":24884:24892   */\n      dup4\n        /* \"#utility.yul\":24880:24917   */\n      add\n        /* \"#utility.yul\":24867:24878   */\n      dup3\n        /* \"#utility.yul\":24838:24918   */\n      tag_304\n      jump\t// in\n    tag_584:\n        /* \"#utility.yul\":24497:24928   */\n      pop\n      pop\n        /* \"#utility.yul\":24482:24928   */\n    tag_580:\n        /* \"#utility.yul\":24392:24935   */\n      pop\n      pop\n      pop\n      jump\t// out\n        /* \"#utility.yul\":24941:25058   */\n    tag_306:\n        /* \"#utility.yul\":24995:25003   */\n      0x00\n        /* \"#utility.yul\":25045:25050   */\n      dup3\n        /* \"#utility.yul\":25039:25043   */\n      dup3\n        /* \"#utility.yul\":25035:25051   */\n      shr\n        /* \"#utility.yul\":25014:25051   */\n      swap1\n      pop\n        /* \"#utility.yul\":24941:25058   */\n      swap3\n      swap2\n      pop\n      pop\n      jump\t// out\n        /* \"#utility.yul\":25064:25233   */\n    tag_307:\n        /* \"#utility.yul\":25108:25114   */\n      0x00\n        /* \"#utility.yul\":25141:25192   */\n      tag_588\n        /* \"#utility.yul\":25189:25190   */\n      0x00\n        /* \"#utility.yul\":25185:25191   */\n      not\n        /* \"#utility.yul\":25177:25182   */\n      dup5\n        /* \"#utility.yul\":25174:25175   */\n      0x08\n        /* \"#utility.yul\":25170:25183   */\n      mul\n        /* \"#utility.yul\":25141:25192   */\n      tag_306\n      jump\t// in\n    tag_588:\n        /* \"#utility.yul\":25137:25193   */\n      not\n        /* \"#utility.yul\":25222:25226   */\n      dup1\n        /* \"#utility.yul\":25216:25220   */\n      dup4\n        /* \"#utility.yul\":25212:25227   */\n      and\n        /* \"#utility.yul\":25202:25227   */\n      swap2\n      pop\n        /* \"#utility.yul\":25115:25233   */\n      pop\n        /* \"#utility.yul\":25064:25233   */\n      swap3\n      swap2\n      pop\n      pop\n      jump\t// out\n        /* \"#utility.yul\":25238:25533   */\n    tag_308:\n        /* \"#utility.yul\":25314:25318   */\n      0x00\n        /* \"#utility.yul\":25460:25489   */\n      tag_590\n        /* \"#utility.yul\":25485:25488   */\n      dup4\n        /* \"#utility.yul\":25479:25483   */\n      dup4\n        /* \"#utility.yul\":25460:25489   */\n      tag_307\n      jump\t// in\n    tag_590:\n        /* \"#utility.yul\":25452:25489   */\n      swap2\n      pop\n        /* \"#utility.yul\":25522:25525   */\n      dup3\n        /* \"#utility.yul\":25519:25520   */\n      0x02\n        /* \"#utility.yul\":25515:25526   */\n      mul\n        /* \"#utility.yul\":25509:25513   */\n      dup3\n        /* \"#utility.yul\":25506:25527   */\n      or\n        /* \"#utility.yul\":25498:25527   */\n      swap1\n      pop\n        /* \"#utility.yul\":25238:25533   */\n      swap3\n      swap2\n      pop\n      pop\n      jump\t// out\n        /* \"#utility.yul\":25538:26933   */\n    tag_127:\n        /* \"#utility.yul\":25655:25692   */\n      tag_592\n        /* \"#utility.yul\":25688:25691   */\n      dup3\n        /* \"#utility.yul\":25655:25692   */\n      tag_239\n      jump\t// in\n    tag_592:\n        /* \"#utility.yul\":25757:25775   */\n      0xffffffffffffffff\n        /* \"#utility.yul\":25749:25755   */\n      dup2\n        /* \"#utility.yul\":25746:25776   */\n      gt\n        /* \"#utility.yul\":25743:25799   */\n      iszero\n      tag_593\n      jumpi\n        /* \"#utility.yul\":25779:25797   */\n      tag_594\n      tag_258\n      jump\t// in\n    tag_594:\n        /* \"#utility.yul\":25743:25799   */\n    tag_593:\n        /* \"#utility.yul\":25823:25861   */\n      tag_595\n        /* \"#utility.yul\":25855:25859   */\n      dup3\n        /* \"#utility.yul\":25849:25860   */\n      sload\n        /* \"#utility.yul\":25823:25861   */\n      tag_60\n      jump\t// in\n    tag_595:\n        /* \"#utility.yul\":25908:25975   */\n      tag_596\n        /* \"#utility.yul\":25968:25974   */\n      dup3\n        /* \"#utility.yul\":25960:25966   */\n      dup3\n        /* \"#utility.yul\":25954:25958   */\n      dup6\n        /* \"#utility.yul\":25908:25975   */\n      tag_305\n      jump\t// in\n    tag_596:\n        /* \"#utility.yul\":26002:26003   */\n      0x00\n        /* \"#utility.yul\":26026:26030   */\n      0x20\n        /* \"#utility.yul\":26013:26030   */\n      swap1\n      pop\n        /* \"#utility.yul\":26058:26060   */\n      0x1f\n        /* \"#utility.yul\":26050:26056   */\n      dup4\n        /* \"#utility.yul\":26047:26061   */\n      gt\n        /* \"#utility.yul\":26075:26076   */\n      0x01\n        /* \"#utility.yul\":26070:26688   */\n      dup2\n      eq\n      tag_598\n      jumpi\n        /* \"#utility.yul\":26732:26733   */\n      0x00\n        /* \"#utility.yul\":26749:26755   */\n      dup5\n        /* \"#utility.yul\":26746:26823   */\n      iszero\n      tag_599\n      jumpi\n        /* \"#utility.yul\":26798:26807   */\n      dup3\n        /* \"#utility.yul\":26793:26796   */\n      dup8\n        /* \"#utility.yul\":26789:26808   */\n      add\n        /* \"#utility.yul\":26783:26809   */\n      mload\n        /* \"#utility.yul\":26774:26809   */\n      swap1\n      pop\n        /* \"#utility.yul\":26746:26823   */\n    tag_599:\n        /* \"#utility.yul\":26849:26916   */\n      tag_600\n        /* \"#utility.yul\":26909:26915   */\n      dup6\n        /* \"#utility.yul\":26902:26907   */\n      dup3\n        /* \"#utility.yul\":26849:26916   */\n      tag_308\n      jump\t// in\n    tag_600:\n        /* \"#utility.yul\":26843:26847   */\n      dup7\n        /* \"#utility.yul\":26836:26917   */\n      sstore\n        /* \"#utility.yul\":26705:26927   */\n      pop\n        /* \"#utility.yul\":26040:26927   */\n      jump(tag_597)\n        /* \"#utility.yul\":26070:26688   */\n    tag_598:\n        /* \"#utility.yul\":26122:26126   */\n      0x1f\n        /* \"#utility.yul\":26118:26127   */\n      not\n        /* \"#utility.yul\":26110:26116   */\n      dup5\n        /* \"#utility.yul\":26106:26128   */\n      and\n        /* \"#utility.yul\":26156:26193   */\n      tag_601\n        /* \"#utility.yul\":26188:26192   */\n      dup7\n        /* \"#utility.yul\":26156:26193   */\n      tag_288\n      jump\t// in\n    tag_601:\n        /* \"#utility.yul\":26215:26216   */\n      0x00\n        /* \"#utility.yul\":26229:26437   */\n    tag_602:\n        /* \"#utility.yul\":26243:26250   */\n      dup3\n        /* \"#utility.yul\":26240:26241   */\n      dup2\n        /* \"#utility.yul\":26237:26251   */\n      lt\n        /* \"#utility.yul\":26229:26437   */\n      iszero\n      tag_604\n      jumpi\n        /* \"#utility.yul\":26322:26331   */\n      dup5\n        /* \"#utility.yul\":26317:26320   */\n      dup10\n        /* \"#utility.yul\":26313:26332   */\n      add\n        /* \"#utility.yul\":26307:26333   */\n      mload\n        /* \"#utility.yul\":26299:26305   */\n      dup3\n        /* \"#utility.yul\":26292:26334   */\n      sstore\n        /* \"#utility.yul\":26373:26374   */\n      0x01\n        /* \"#utility.yul\":26365:26371   */\n      dup3\n        /* \"#utility.yul\":26361:26375   */\n      add\n        /* \"#utility.yul\":26351:26375   */\n      swap2\n      pop\n        /* \"#utility.yul\":26420:26422   */\n      0x20\n        /* \"#utility.yul\":26409:26418   */\n      dup6\n        /* \"#utility.yul\":26405:26423   */\n      add\n        /* \"#utility.yul\":26392:26423   */\n      swap5\n      pop\n        /* \"#utility.yul\":26266:26270   */\n      0x20\n        /* \"#utility.yul\":26263:26264   */\n      dup2\n        /* \"#utility.yul\":26259:26271   */\n      add\n        /* \"#utility.yul\":26254:26271   */\n      swap1\n      pop\n        /* \"#utility.yul\":26229:26437   */\n      jump(tag_602)\n    tag_604:\n        /* \"#utility.yul\":26465:26471   */\n      dup7\n        /* \"#utility.yul\":26456:26463   */\n      dup4\n        /* \"#utility.yul\":26453:26472   */\n      lt\n        /* \"#utility.yul\":26450:26629   */\n      iszero\n      tag_605\n      jumpi\n        /* \"#utility.yul\":26523:26532   */\n      dup5\n        /* \"#utility.yul\":26518:26521   */\n      dup10\n        /* \"#utility.yul\":26514:26533   */\n      add\n        /* \"#utility.yul\":26508:26534   */\n      mload\n        /* \"#utility.yul\":26566:26614   */\n      tag_606\n        /* \"#utility.yul\":26608:26612   */\n      0x1f\n        /* \"#utility.yul\":26600:26606   */\n      dup10\n        /* \"#utility.yul\":26596:26613   */\n      and\n        /* \"#utility.yul\":26585:26594   */\n      dup3\n        /* \"#utility.yul\":26566:26614   */\n      tag_307\n      jump\t// in\n    tag_606:\n        /* \"#utility.yul\":26558:26564   */\n      dup4\n        /* \"#utility.yul\":26551:26615   */\n      sstore\n        /* \"#utility.yul\":26473:26629   */\n      pop\n        /* \"#utility.yul\":26450:26629   */\n    tag_605:\n        /* \"#utility.yul\":26675:26676   */\n      0x01\n        /* \"#utility.yul\":26671:26672   */\n      0x02\n        /* \"#utility.yul\":26663:26669   */\n      dup9\n        /* \"#utility.yul\":26659:26673   */\n      mul\n        /* \"#utility.yul\":26655:26677   */\n      add\n        /* \"#utility.yul\":26649:26653   */\n      dup9\n        /* \"#utility.yul\":26642:26678   */\n      sstore\n        /* \"#utility.yul\":26077:26688   */\n      pop\n      pop\n      pop\n        /* \"#utility.yul\":26040:26927   */\n    tag_597:\n      pop\n        /* \"#utility.yul\":25630:26933   */\n      pop\n      pop\n      pop\n        /* \"#utility.yul\":25538:26933   */\n      pop\n      pop\n      jump\t// out\n        /* \"#utility.yul\":26939:27111   */\n    tag_309:\n        /* \"#utility.yul\":27079:27103   */\n      0x566f74696e67206973207374696c6c2061637469766500000000000000000000\n        /* \"#utility.yul\":27075:27076   */\n      0x00\n        /* \"#utility.yul\":27067:27073   */\n      dup3\n        /* \"#utility.yul\":27063:27077   */\n      add\n        /* \"#utility.yul\":27056:27104   */\n      mstore\n        /* \"#utility.yul\":26939:27111   */\n      pop\n      jump\t// out\n        /* \"#utility.yul\":27117:27483   */\n    tag_310:\n        /* \"#utility.yul\":27259:27262   */\n      0x00\n        /* \"#utility.yul\":27280:27347   */\n      tag_609\n        /* \"#utility.yul\":27344:27346   */\n      0x16\n        /* \"#utility.yul\":27339:27342   */\n      dup4\n        /* \"#utility.yul\":27280:27347   */\n      tag_240\n      jump\t// in\n    tag_609:\n        /* \"#utility.yul\":27273:27347   */\n      swap2\n      pop\n        /* \"#utility.yul\":27356:27449   */\n      tag_610\n        /* \"#utility.yul\":27445:27448   */\n      dup3\n        /* \"#utility.yul\":27356:27449   */\n      tag_309\n      jump\t// in\n    tag_610:\n        /* \"#utility.yul\":27474:27476   */\n      0x20\n        /* \"#utility.yul\":27469:27472   */\n      dup3\n        /* \"#utility.yul\":27465:27477   */\n      add\n        /* \"#utility.yul\":27458:27477   */\n      swap1\n      pop\n        /* \"#utility.yul\":27117:27483   */\n      swap2\n      swap1\n      pop\n      jump\t// out\n        /* \"#utility.yul\":27489:27908   */\n    tag_134:\n        /* \"#utility.yul\":27655:27659   */\n      0x00\n        /* \"#utility.yul\":27693:27695   */\n      0x20\n        /* \"#utility.yul\":27682:27691   */\n      dup3\n        /* \"#utility.yul\":27678:27696   */\n      add\n        /* \"#utility.yul\":27670:27696   */\n      swap1\n      pop\n        /* \"#utility.yul\":27742:27751   */\n      dup2\n        /* \"#utility.yul\":27736:27740   */\n      dup2\n        /* \"#utility.yul\":27732:27752   */\n      sub\n        /* \"#utility.yul\":27728:27729   */\n      0x00\n        /* \"#utility.yul\":27717:27726   */\n      dup4\n        /* \"#utility.yul\":27713:27730   */\n      add\n        /* \"#utility.yul\":27706:27753   */\n      mstore\n        /* \"#utility.yul\":27770:27901   */\n      tag_612\n        /* \"#utility.yul\":27896:27900   */\n      dup2\n        /* \"#utility.yul\":27770:27901   */\n      tag_310\n      jump\t// in\n    tag_612:\n        /* \"#utility.yul\":27762:27901   */\n      swap1\n      pop\n        /* \"#utility.yul\":27489:27908   */\n      swap2\n      swap1\n      pop\n      jump\t// out\n        /* \"#utility.yul\":27914:27993   */\n    tag_311:\n        /* \"#utility.yul\":27953:27960   */\n      0x00\n        /* \"#utility.yul\":27982:27987   */\n      dup2\n        /* \"#utility.yul\":27971:27987   */\n      swap1\n      pop\n        /* \"#utility.yul\":27914:27993   */\n      swap2\n      swap1\n      pop\n      jump\t// out\n        /* \"#utility.yul\":27999:28156   */\n    tag_312:\n        /* \"#utility.yul\":28104:28149   */\n      tag_615\n        /* \"#utility.yul\":28124:28148   */\n      tag_616\n        /* \"#utility.yul\":28142:28147   */\n      dup3\n        /* \"#utility.yul\":28124:28148   */\n      tag_237\n      jump\t// in\n    tag_616:\n        /* \"#utility.yul\":28104:28149   */\n      tag_311\n      jump\t// in\n    tag_615:\n        /* \"#utility.yul\":28099:28102   */\n      dup3\n        /* \"#utility.yul\":28092:28150   */\n      mstore\n        /* \"#utility.yul\":27999:28156   */\n      pop\n      pop\n      jump\t// out\n        /* \"#utility.yul\":28162:28256   */\n    tag_313:\n        /* \"#utility.yul\":28195:28203   */\n      0x00\n        /* \"#utility.yul\":28243:28248   */\n      dup2\n        /* \"#utility.yul\":28239:28241   */\n      0x60\n        /* \"#utility.yul\":28235:28249   */\n      shl\n        /* \"#utility.yul\":28214:28249   */\n      swap1\n      pop\n        /* \"#utility.yul\":28162:28256   */\n      swap2\n      swap1\n      pop\n      jump\t// out\n        /* \"#utility.yul\":28262:28356   */\n    tag_314:\n        /* \"#utility.yul\":28301:28308   */\n      0x00\n        /* \"#utility.yul\":28330:28350   */\n      tag_619\n        /* \"#utility.yul\":28344:28349   */\n      dup3\n        /* \"#utility.yul\":28330:28350   */\n      tag_313\n      jump\t// in\n    tag_619:\n        /* \"#utility.yul\":28319:28350   */\n      swap1\n      pop\n        /* \"#utility.yul\":28262:28356   */\n      swap2\n      swap1\n      pop\n      jump\t// out\n        /* \"#utility.yul\":28362:28462   */\n    tag_315:\n        /* \"#utility.yul\":28401:28408   */\n      0x00\n        /* \"#utility.yul\":28430:28456   */\n      tag_621\n        /* \"#utility.yul\":28450:28455   */\n      dup3\n        /* \"#utility.yul\":28430:28456   */\n      tag_314\n      jump\t// in\n    tag_621:\n        /* \"#utility.yul\":28419:28456   */\n      swap1\n      pop\n        /* \"#utility.yul\":28362:28462   */\n      swap2\n      swap1\n      pop\n      jump\t// out\n        /* \"#utility.yul\":28468:28625   */\n    tag_316:\n        /* \"#utility.yul\":28573:28618   */\n      tag_623\n        /* \"#utility.yul\":28593:28617   */\n      tag_624\n        /* \"#utility.yul\":28611:28616   */\n      dup3\n        /* \"#utility.yul\":28593:28617   */\n      tag_252\n      jump\t// in\n    tag_624:\n        /* \"#utility.yul\":28573:28618   */\n      tag_315\n      jump\t// in\n    tag_623:\n        /* \"#utility.yul\":28568:28571   */\n      dup3\n        /* \"#utility.yul\":28561:28619   */\n      mstore\n        /* \"#utility.yul\":28468:28625   */\n      pop\n      pop\n      jump\t// out\n        /* \"#utility.yul\":28631:29028   */\n    tag_154:\n        /* \"#utility.yul\":28771:28774   */\n      0x00\n        /* \"#utility.yul\":28786:28861   */\n      tag_626\n        /* \"#utility.yul\":28857:28860   */\n      dup3\n        /* \"#utility.yul\":28848:28854   */\n      dup6\n        /* \"#utility.yul\":28786:28861   */\n      tag_312\n      jump\t// in\n    tag_626:\n        /* \"#utility.yul\":28886:28888   */\n      0x20\n        /* \"#utility.yul\":28881:28884   */\n      dup3\n        /* \"#utility.yul\":28877:28889   */\n      add\n        /* \"#utility.yul\":28870:28889   */\n      swap2\n      pop\n        /* \"#utility.yul\":28899:28974   */\n      tag_627\n        /* \"#utility.yul\":28970:28973   */\n      dup3\n        /* \"#utility.yul\":28961:28967   */\n      dup5\n        /* \"#utility.yul\":28899:28974   */\n      tag_316\n      jump\t// in\n    tag_627:\n        /* \"#utility.yul\":28999:29001   */\n      0x14\n        /* \"#utility.yul\":28994:28997   */\n      dup3\n        /* \"#utility.yul\":28990:29002   */\n      add\n        /* \"#utility.yul\":28983:29002   */\n      swap2\n      pop\n        /* \"#utility.yul\":29019:29022   */\n      dup2\n        /* \"#utility.yul\":29012:29022   */\n      swap1\n      pop\n        /* \"#utility.yul\":28631:29028   */\n      swap4\n      swap3\n      pop\n      pop\n      pop\n      jump\t// out\n        /* \"#utility.yul\":29034:29212   */\n    tag_317:\n        /* \"#utility.yul\":29174:29204   */\n      0x546f6b656e20686173206265656e20616c726561647920757365642100000000\n        /* \"#utility.yul\":29170:29171   */\n      0x00\n        /* \"#utility.yul\":29162:29168   */\n      dup3\n        /* \"#utility.yul\":29158:29172   */\n      add\n        /* \"#utility.yul\":29151:29205   */\n      mstore\n        /* \"#utility.yul\":29034:29212   */\n      pop\n      jump\t// out\n        /* \"#utility.yul\":29218:29584   */\n    tag_318:\n        /* \"#utility.yul\":29360:29363   */\n      0x00\n        /* \"#utility.yul\":29381:29448   */\n      tag_630\n        /* \"#utility.yul\":29445:29447   */\n      0x1c\n        /* \"#utility.yul\":29440:29443   */\n      dup4\n        /* \"#utility.yul\":29381:29448   */\n      tag_240\n      jump\t// in\n    tag_630:\n        /* \"#utility.yul\":29374:29448   */\n      swap2\n      pop\n        /* \"#utility.yul\":29457:29550   */\n      tag_631\n        /* \"#utility.yul\":29546:29549   */\n      dup3\n        /* \"#utility.yul\":29457:29550   */\n      tag_317\n      jump\t// in\n    tag_631:\n        /* \"#utility.yul\":29575:29577   */\n      0x20\n        /* \"#utility.yul\":29570:29573   */\n      dup3\n        /* \"#utility.yul\":29566:29578   */\n      add\n        /* \"#utility.yul\":29559:29578   */\n      swap1\n      pop\n        /* \"#utility.yul\":29218:29584   */\n      swap2\n      swap1\n      pop\n      jump\t// out\n        /* \"#utility.yul\":29590:30009   */\n    tag_157:\n        /* \"#utility.yul\":29756:29760   */\n      0x00\n        /* \"#utility.yul\":29794:29796   */\n      0x20\n        /* \"#utility.yul\":29783:29792   */\n      dup3\n        /* \"#utility.yul\":29779:29797   */\n      add\n        /* \"#utility.yul\":29771:29797   */\n      swap1\n      pop\n        /* \"#utility.yul\":29843:29852   */\n      dup2\n        /* \"#utility.yul\":29837:29841   */\n      dup2\n        /* \"#utility.yul\":29833:29853   */\n      sub\n        /* \"#utility.yul\":29829:29830   */\n      0x00\n        /* \"#utility.yul\":29818:29827   */\n      dup4\n        /* \"#utility.yul\":29814:29831   */\n      add\n        /* \"#utility.yul\":29807:29854   */\n      mstore\n        /* \"#utility.yul\":29871:30002   */\n      tag_633\n        /* \"#utility.yul\":29997:30001   */\n      dup2\n        /* \"#utility.yul\":29871:30002   */\n      tag_318\n      jump\t// in\n    tag_633:\n        /* \"#utility.yul\":29863:30002   */\n      swap1\n      pop\n        /* \"#utility.yul\":29590:30009   */\n      swap2\n      swap1\n      pop\n      jump\t// out\n        /* \"#utility.yul\":30015:30195   */\n    tag_319:\n        /* \"#utility.yul\":30063:30140   */\n      0x4e487b7100000000000000000000000000000000000000000000000000000000\n        /* \"#utility.yul\":30060:30061   */\n      0x00\n        /* \"#utility.yul\":30053:30141   */\n      mstore\n        /* \"#utility.yul\":30160:30164   */\n      0x11\n        /* \"#utility.yul\":30157:30158   */\n      0x04\n        /* \"#utility.yul\":30150:30165   */\n      mstore\n        /* \"#utility.yul\":30184:30188   */\n      0x24\n        /* \"#utility.yul\":30181:30182   */\n      0x00\n        /* \"#utility.yul\":30174:30189   */\n      revert\n        /* \"#utility.yul\":30201:30395   */\n    tag_163:\n        /* \"#utility.yul\":30241:30245   */\n      0x00\n        /* \"#utility.yul\":30261:30281   */\n      tag_636\n        /* \"#utility.yul\":30279:30280   */\n      dup3\n        /* \"#utility.yul\":30261:30281   */\n      tag_234\n      jump\t// in\n    tag_636:\n        /* \"#utility.yul\":30256:30281   */\n      swap2\n      pop\n        /* \"#utility.yul\":30295:30315   */\n      tag_637\n        /* \"#utility.yul\":30313:30314   */\n      dup4\n        /* \"#utility.yul\":30295:30315   */\n      tag_234\n      jump\t// in\n    tag_637:\n        /* \"#utility.yul\":30290:30315   */\n      swap3\n      pop\n        /* \"#utility.yul\":30339:30340   */\n      dup3\n        /* \"#utility.yul\":30336:30337   */\n      dup3\n        /* \"#utility.yul\":30332:30341   */\n      sub\n        /* \"#utility.yul\":30324:30341   */\n      swap1\n      pop\n        /* \"#utility.yul\":30363:30364   */\n      dup2\n        /* \"#utility.yul\":30357:30361   */\n      dup2\n        /* \"#utility.yul\":30354:30365   */\n      gt\n        /* \"#utility.yul\":30351:30388   */\n      iszero\n      tag_638\n      jumpi\n        /* \"#utility.yul\":30368:30386   */\n      tag_639\n      tag_319\n      jump\t// in\n    tag_639:\n        /* \"#utility.yul\":30351:30388   */\n    tag_638:\n        /* \"#utility.yul\":30201:30395   */\n      swap3\n      swap2\n      pop\n      pop\n      jump\t// out\n        /* \"#utility.yul\":30401:30592   */\n    tag_170:\n        /* \"#utility.yul\":30441:30444   */\n      0x00\n        /* \"#utility.yul\":30460:30480   */\n      tag_641\n        /* \"#utility.yul\":30478:30479   */\n      dup3\n        /* \"#utility.yul\":30460:30480   */\n      tag_234\n      jump\t// in\n    tag_641:\n        /* \"#utility.yul\":30455:30480   */\n      swap2\n      pop\n        /* \"#utility.yul\":30494:30514   */\n      tag_642\n        /* \"#utility.yul\":30512:30513   */\n      dup4\n        /* \"#utility.yul\":30494:30514   */\n      tag_234\n      jump\t// in\n    tag_642:\n        /* \"#utility.yul\":30489:30514   */\n      swap3\n      pop\n        /* \"#utility.yul\":30537:30538   */\n      dup3\n        /* \"#utility.yul\":30534:30535   */\n      dup3\n        /* \"#utility.yul\":30530:30539   */\n      add\n        /* \"#utility.yul\":30523:30539   */\n      swap1\n      pop\n        /* \"#utility.yul\":30558:30561   */\n      dup1\n        /* \"#utility.yul\":30555:30556   */\n      dup3\n        /* \"#utility.yul\":30552:30562   */\n      gt\n        /* \"#utility.yul\":30549:30585   */\n      iszero\n      tag_643\n      jumpi\n        /* \"#utility.yul\":30565:30583   */\n      tag_644\n      tag_319\n      jump\t// in\n    tag_644:\n        /* \"#utility.yul\":30549:30585   */\n    tag_643:\n        /* \"#utility.yul\":30401:30592   */\n      swap3\n      swap2\n      pop\n      pop\n      jump\t// out\n        /* \"#utility.yul\":30598:30771   */\n    tag_320:\n        /* \"#utility.yul\":30738:30763   */\n      0x496e76616c6964206e756d626572206f6620766f746573000000000000000000\n        /* \"#utility.yul\":30734:30735   */\n      0x00\n        /* \"#utility.yul\":30726:30732   */\n      dup3\n        /* \"#utility.yul\":30722:30736   */\n      add\n        /* \"#utility.yul\":30715:30764   */\n      mstore\n        /* \"#utility.yul\":30598:30771   */\n      pop\n      jump\t// out\n        /* \"#utility.yul\":30777:31143   */\n    tag_321:\n        /* \"#utility.yul\":30919:30922   */\n      0x00\n        /* \"#utility.yul\":30940:31007   */\n      tag_647\n        /* \"#utility.yul\":31004:31006   */\n      0x17\n        /* \"#utility.yul\":30999:31002   */\n      dup4\n        /* \"#utility.yul\":30940:31007   */\n      tag_240\n      jump\t// in\n    tag_647:\n        /* \"#utility.yul\":30933:31007   */\n      swap2\n      pop\n        /* \"#utility.yul\":31016:31109   */\n      tag_648\n        /* \"#utility.yul\":31105:31108   */\n      dup3\n        /* \"#utility.yul\":31016:31109   */\n      tag_320\n      jump\t// in\n    tag_648:\n        /* \"#utility.yul\":31134:31136   */\n      0x20\n        /* \"#utility.yul\":31129:31132   */\n      dup3\n        /* \"#utility.yul\":31125:31137   */\n      add\n        /* \"#utility.yul\":31118:31137   */\n      swap1\n      pop\n        /* \"#utility.yul\":30777:31143   */\n      swap2\n      swap1\n      pop\n      jump\t// out\n        /* \"#utility.yul\":31149:31568   */\n    tag_192:\n        /* \"#utility.yul\":31315:31319   */\n      0x00\n        /* \"#utility.yul\":31353:31355   */\n      0x20\n        /* \"#utility.yul\":31342:31351   */\n      dup3\n        /* \"#utility.yul\":31338:31356   */\n      add\n        /* \"#utility.yul\":31330:31356   */\n      swap1\n      pop\n        /* \"#utility.yul\":31402:31411   */\n      dup2\n        /* \"#utility.yul\":31396:31400   */\n      dup2\n        /* \"#utility.yul\":31392:31412   */\n      sub\n        /* \"#utility.yul\":31388:31389   */\n      0x00\n        /* \"#utility.yul\":31377:31386   */\n      dup4\n        /* \"#utility.yul\":31373:31390   */\n      add\n        /* \"#utility.yul\":31366:31413   */\n      mstore\n        /* \"#utility.yul\":31430:31561   */\n      tag_650\n        /* \"#utility.yul\":31556:31560   */\n      dup2\n        /* \"#utility.yul\":31430:31561   */\n      tag_321\n      jump\t// in\n    tag_650:\n        /* \"#utility.yul\":31422:31561   */\n      swap1\n      pop\n        /* \"#utility.yul\":31149:31568   */\n      swap2\n      swap1\n      pop\n      jump\t// out\n        /* \"#utility.yul\":31574:31748   */\n    tag_322:\n        /* \"#utility.yul\":31714:31740   */\n      0x4475706c696361746520766f7465732064657465637465640000000000000000\n        /* \"#utility.yul\":31710:31711   */\n      0x00\n        /* \"#utility.yul\":31702:31708   */\n      dup3\n        /* \"#utility.yul\":31698:31712   */\n      add\n        /* \"#utility.yul\":31691:31741   */\n      mstore\n        /* \"#utility.yul\":31574:31748   */\n      pop\n      jump\t// out\n        /* \"#utility.yul\":31754:32120   */\n    tag_323:\n        /* \"#utility.yul\":31896:31899   */\n      0x00\n        /* \"#utility.yul\":31917:31984   */\n      tag_653\n        /* \"#utility.yul\":31981:31983   */\n      0x18\n        /* \"#utility.yul\":31976:31979   */\n      dup4\n        /* \"#utility.yul\":31917:31984   */\n      tag_240\n      jump\t// in\n    tag_653:\n        /* \"#utility.yul\":31910:31984   */\n      swap2\n      pop\n        /* \"#utility.yul\":31993:32086   */\n      tag_654\n        /* \"#utility.yul\":32082:32085   */\n      dup3\n        /* \"#utility.yul\":31993:32086   */\n      tag_322\n      jump\t// in\n    tag_654:\n        /* \"#utility.yul\":32111:32113   */\n      0x20\n        /* \"#utility.yul\":32106:32109   */\n      dup3\n        /* \"#utility.yul\":32102:32114   */\n      add\n        /* \"#utility.yul\":32095:32114   */\n      swap1\n      pop\n        /* \"#utility.yul\":31754:32120   */\n      swap2\n      swap1\n      pop\n      jump\t// out\n        /* \"#utility.yul\":32126:32545   */\n    tag_197:\n        /* \"#utility.yul\":32292:32296   */\n      0x00\n        /* \"#utility.yul\":32330:32332   */\n      0x20\n        /* \"#utility.yul\":32319:32328   */\n      dup3\n        /* \"#utility.yul\":32315:32333   */\n      add\n        /* \"#utility.yul\":32307:32333   */\n      swap1\n      pop\n        /* \"#utility.yul\":32379:32388   */\n      dup2\n        /* \"#utility.yul\":32373:32377   */\n      dup2\n        /* \"#utility.yul\":32369:32389   */\n      sub\n        /* \"#utility.yul\":32365:32366   */\n      0x00\n        /* \"#utility.yul\":32354:32363   */\n      dup4\n        /* \"#utility.yul\":32350:32367   */\n      add\n        /* \"#utility.yul\":32343:32390   */\n      mstore\n        /* \"#utility.yul\":32407:32538   */\n      tag_656\n        /* \"#utility.yul\":32533:32537   */\n      dup2\n        /* \"#utility.yul\":32407:32538   */\n      tag_323\n      jump\t// in\n    tag_656:\n        /* \"#utility.yul\":32399:32538   */\n      swap1\n      pop\n        /* \"#utility.yul\":32126:32545   */\n      swap2\n      swap1\n      pop\n      jump\t// out\n        /* \"#utility.yul\":32551:32714   */\n    tag_324:\n        /* \"#utility.yul\":32691:32706   */\n      0x496e76616c696420746f6b656e00000000000000000000000000000000000000\n        /* \"#utility.yul\":32687:32688   */\n      0x00\n        /* \"#utility.yul\":32679:32685   */\n      dup3\n        /* \"#utility.yul\":32675:32689   */\n      add\n        /* \"#utility.yul\":32668:32707   */\n      mstore\n        /* \"#utility.yul\":32551:32714   */\n      pop\n      jump\t// out\n        /* \"#utility.yul\":32720:33086   */\n    tag_325:\n        /* \"#utility.yul\":32862:32865   */\n      0x00\n        /* \"#utility.yul\":32883:32950   */\n      tag_659\n        /* \"#utility.yul\":32947:32949   */\n      0x0d\n        /* \"#utility.yul\":32942:32945   */\n      dup4\n        /* \"#utility.yul\":32883:32950   */\n      tag_240\n      jump\t// in\n    tag_659:\n        /* \"#utility.yul\":32876:32950   */\n      swap2\n      pop\n        /* \"#utility.yul\":32959:33052   */\n      tag_660\n        /* \"#utility.yul\":33048:33051   */\n      dup3\n        /* \"#utility.yul\":32959:33052   */\n      tag_324\n      jump\t// in\n    tag_660:\n        /* \"#utility.yul\":33077:33079   */\n      0x20\n        /* \"#utility.yul\":33072:33075   */\n      dup3\n        /* \"#utility.yul\":33068:33080   */\n      add\n        /* \"#utility.yul\":33061:33080   */\n      swap1\n      pop\n        /* \"#utility.yul\":32720:33086   */\n      swap2\n      swap1\n      pop\n      jump\t// out\n        /* \"#utility.yul\":33092:33511   */\n    tag_201:\n        /* \"#utility.yul\":33258:33262   */\n      0x00\n        /* \"#utility.yul\":33296:33298   */\n      0x20\n        /* \"#utility.yul\":33285:33294   */\n      dup3\n        /* \"#utility.yul\":33281:33299   */\n      add\n        /* \"#utility.yul\":33273:33299   */\n      swap1\n      pop\n        /* \"#utility.yul\":33345:33354   */\n      dup2\n        /* \"#utility.yul\":33339:33343   */\n      dup2\n        /* \"#utility.yul\":33335:33355   */\n      sub\n        /* \"#utility.yul\":33331:33332   */\n      0x00\n        /* \"#utility.yul\":33320:33329   */\n      dup4\n        /* \"#utility.yul\":33316:33333   */\n      add\n        /* \"#utility.yul\":33309:33356   */\n      mstore\n        /* \"#utility.yul\":33373:33504   */\n      tag_662\n        /* \"#utility.yul\":33499:33503   */\n      dup2\n        /* \"#utility.yul\":33373:33504   */\n      tag_325\n      jump\t// in\n    tag_662:\n        /* \"#utility.yul\":33365:33504   */\n      swap1\n      pop\n        /* \"#utility.yul\":33092:33511   */\n      swap2\n      swap1\n      pop\n      jump\t// out\n        /* \"#utility.yul\":33517:33691   */\n    tag_326:\n        /* \"#utility.yul\":33657:33683   */\n      0x566f7465722068617320616c726561647920766f746564210000000000000000\n        /* \"#utility.yul\":33653:33654   */\n      0x00\n        /* \"#utility.yul\":33645:33651   */\n      dup3\n        /* \"#utility.yul\":33641:33655   */\n      add\n        /* \"#utility.yul\":33634:33684   */\n      mstore\n        /* \"#utility.yul\":33517:33691   */\n      pop\n      jump\t// out\n        /* \"#utility.yul\":33697:34063   */\n    tag_327:\n        /* \"#utility.yul\":33839:33842   */\n      0x00\n        /* \"#utility.yul\":33860:33927   */\n      tag_665\n        /* \"#utility.yul\":33924:33926   */\n      0x18\n        /* \"#utility.yul\":33919:33922   */\n      dup4\n        /* \"#utility.yul\":33860:33927   */\n      tag_240\n      jump\t// in\n    tag_665:\n        /* \"#utility.yul\":33853:33927   */\n      swap2\n      pop\n        /* \"#utility.yul\":33936:34029   */\n      tag_666\n        /* \"#utility.yul\":34025:34028   */\n      dup3\n        /* \"#utility.yul\":33936:34029   */\n      tag_326\n      jump\t// in\n    tag_666:\n        /* \"#utility.yul\":34054:34056   */\n      0x20\n        /* \"#utility.yul\":34049:34052   */\n      dup3\n        /* \"#utility.yul\":34045:34057   */\n      add\n        /* \"#utility.yul\":34038:34057   */\n      swap1\n      pop\n        /* \"#utility.yul\":33697:34063   */\n      swap2\n      swap1\n      pop\n      jump\t// out\n        /* \"#utility.yul\":34069:34488   */\n    tag_204:\n        /* \"#utility.yul\":34235:34239   */\n      0x00\n        /* \"#utility.yul\":34273:34275   */\n      0x20\n        /* \"#utility.yul\":34262:34271   */\n      dup3\n        /* \"#utility.yul\":34258:34276   */\n      add\n        /* \"#utility.yul\":34250:34276   */\n      swap1\n      pop\n        /* \"#utility.yul\":34322:34331   */\n      dup2\n        /* \"#utility.yul\":34316:34320   */\n      dup2\n        /* \"#utility.yul\":34312:34332   */\n      sub\n        /* \"#utility.yul\":34308:34309   */\n      0x00\n        /* \"#utility.yul\":34297:34306   */\n      dup4\n        /* \"#utility.yul\":34293:34310   */\n      add\n        /* \"#utility.yul\":34286:34333   */\n      mstore\n        /* \"#utility.yul\":34350:34481   */\n      tag_668\n        /* \"#utility.yul\":34476:34480   */\n      dup2\n        /* \"#utility.yul\":34350:34481   */\n      tag_327\n      jump\t// in\n    tag_668:\n        /* \"#utility.yul\":34342:34481   */\n      swap1\n      pop\n        /* \"#utility.yul\":34069:34488   */\n      swap2\n      swap1\n      pop\n      jump\t// out\n\n    auxdata: 0xa2646970667358221220d4d521ff69c8e9074ac092d36eb3e3ffbd8bed33141d86a1db7821e09db3684364736f6c63430008180033\n}\n",
				"bytecode": {
					"linkReferences": {},
					"object": "608060405234801562000010575f80fd5b506040516200231a3803806200231a8339818101604052810190620000369190620000ed565b335f806101000a81548173ffffffffffffffffffffffffffffffffffffffff021916908373ffffffffffffffffffffffffffffffffffffffff160217905550620d2f00426200008691906200014a565b600181905550621a5e00426200009d91906200014a565b600281905550806007819055505062000184565b5f80fd5b5f819050919050565b620000c981620000b5565b8114620000d4575f80fd5b50565b5f81519050620000e781620000be565b92915050565b5f60208284031215620001055762000104620000b1565b5b5f6200011484828501620000d7565b91505092915050565b7f4e487b71000000000000000000000000000000000000000000000000000000005f52601160045260245ffd5b5f6200015682620000b5565b91506200016383620000b5565b92508282019050808211156200017e576200017d6200011d565b5b92915050565b61218880620001925f395ff3fe608060405234801561000f575f80fd5b5060043610610091575f3560e01c8063609ff1bd11610064578063609ff1bd1461011e578063793c5d211461013c5780639ec8b0261461016c578063a3ec138d1461019c578063ddbf695a146101cd57610091565b8063013cf08b146100955780630fb26697146100c85780632e4176cf146100e457806345e5303514610102575b5f80fd5b6100af60048036038101906100aa919061105e565b6101e9565b6040516100bf94939291906111ad565b60405180910390f35b6100e260048036038101906100dd919061121a565b6102b6565b005b6100ec610595565b6040516100f99190611297565b60405180910390f35b61011c60048036038101906101179190611406565b6105b8565b005b61012661073b565b6040516101339190611460565b60405180910390f35b61015660048036038101906101519190611479565b610884565b60405161016391906114a4565b60405180910390f35b61018660048036038101906101819190611581565b610a82565b604051610193919061167f565b60405180910390f35b6101b660048036038101906101b191906116c9565b610bba565b6040516101c492919061170e565b60405180910390f35b6101e760048036038101906101e29190611735565b610be6565b005b600681815481106101f8575f80fd5b905f5260205f2090600402015f91509050805f01549080600101805461021d906117bc565b80601f0160208091040260200160405190810160405280929190818152602001828054610249906117bc565b80156102945780601f1061026b57610100808354040283529160200191610294565b820191905f5260205f20905b81548152906001019060200180831161027757829003601f168201915b505050505090806002015490806003015f9054906101000a900460ff16905084565b5f8054906101000a900473ffffffffffffffffffffffffffffffffffffffff1673ffffffffffffffffffffffffffffffffffffffff163373ffffffffffffffffffffffffffffffffffffffff1614610343576040517f08c379a000000000000000000000000000000000000000000000000000000000815260040161033a9061185c565b60405180910390fd5b600254421115610388576040517f08c379a000000000000000000000000000000000000000000000000000000000815260040161037f906118c4565b60405180910390fd5b80600281111561039b5761039a61113a565b5b600683815481106103af576103ae6118e2565b5b905f5260205f2090600402016003015f9054906101000a900460ff1660028111156103dd576103dc61113a565b5b1415801561046e57505f60028111156103f9576103f861113a565b5b6006838154811061040d5761040c6118e2565b5b905f5260205f2090600402016003015f9054906101000a900460ff16600281111561043b5761043a61113a565b5b14801561046c5750600160028111156104575761045661113a565b5b81600281111561046a5761046961113a565b5b145b155b6104ad576040517f08c379a00000000000000000000000000000000000000000000000000000000081526004016104a490611959565b60405180910390fd5b80600683815481106104c2576104c16118e2565b5b905f5260205f2090600402016003015f6101000a81548160ff021916908360028111156104f2576104f161113a565b5b021790555080600281111561050a5761050961113a565b5b6006838154811061051e5761051d6118e2565b5b905f5260205f20906004020160010160405161053a9190611a13565b604051809103902060068481548110610556576105556118e2565b5b905f5260205f2090600402015f01547f2ee87f96343b2e2f3333691b4746e840eba35d697fc530be504dc07d848e978360405160405180910390a45050565b5f8054906101000a900473ffffffffffffffffffffffffffffffffffffffff1681565b6001544211156105fd576040517f08c379a00000000000000000000000000000000000000000000000000000000081526004016105f490611a73565b60405180910390fd5b5f801b6005826040516106109190611ac1565b9081526020016040518091039020541461065f576040517f08c379a000000000000000000000000000000000000000000000000000000000815260040161065690611b47565b60405180910390fd5b600660405180608001604052808481526020018381526020015f8152602001600160028111156106925761069161113a565b5b815250908060018154018082558091505060019003905f5260205f2090600402015f909190919091505f820151815f015560208201518160010190816106d89190611cf0565b50604082015181600201556060820151816003015f6101000a81548160ff0219169083600281111561070d5761070c61113a565b5b02179055505050816005826040516107259190611ac1565b9081526020016040518091039020819055505050565b5f6002544211610780576040517f08c379a000000000000000000000000000000000000000000000000000000000815260040161077790611e09565b60405180910390fd5b5f8054906101000a900473ffffffffffffffffffffffffffffffffffffffff1673ffffffffffffffffffffffffffffffffffffffff163373ffffffffffffffffffffffffffffffffffffffff161461080d576040517f08c379a00000000000000000000000000000000000000000000000000000000081526004016108049061185c565b60405180910390fd5b5f805b60068054905081101561087f578160068281548110610832576108316118e2565b5b905f5260205f209060040201600201541115610872576006818154811061085c5761085b6118e2565b5b905f5260205f2090600402016002015491508092505b8080600101915050610810565b505090565b5f6002544211156108ca576040517f08c379a00000000000000000000000000000000000000000000000000000000081526004016108c1906118c4565b60405180910390fd5b81336040516020016108dd929190611e8c565b6040516020818303038152906040528051906020012090505f73ffffffffffffffffffffffffffffffffffffffff1660045f8381526020019081526020015f205f9054906101000a900473ffffffffffffffffffffffffffffffffffffffff1673ffffffffffffffffffffffffffffffffffffffff1614610993576040517f08c379a000000000000000000000000000000000000000000000000000000000815260040161098a90611f01565b60405180910390fd5b8060035f3373ffffffffffffffffffffffffffffffffffffffff1673ffffffffffffffffffffffffffffffffffffffff1681526020019081526020015f20600101819055505f60035f3373ffffffffffffffffffffffffffffffffffffffff1673ffffffffffffffffffffffffffffffffffffffff1681526020019081526020015f205f015f6101000a81548160ff0219169083151502179055503360045f8381526020019081526020015f205f6101000a81548173ffffffffffffffffffffffffffffffffffffffff021916908373ffffffffffffffffffffffffffffffffffffffff160217905550919050565b60605f825190505f5b600182610a989190611f4c565b811015610bb0575f5b60018284610aaf9190611f4c565b610ab99190611f4c565b811015610ba25784600182610ace9190611f7f565b81518110610adf57610ade6118e2565b5b6020026020010151858281518110610afa57610af96118e2565b5b60200260200101511115610b955784600182610b169190611f7f565b81518110610b2757610b266118e2565b5b6020026020010151858281518110610b4257610b416118e2565b5b6020026020010151868381518110610b5d57610b5c6118e2565b5b6020026020010187600185610b729190611f7f565b81518110610b8357610b826118e2565b5b60200260200101828152508281525050505b8080600101915050610aa1565b508080600101915050610a8b565b5082915050919050565b6003602052805f5260405f205f91509050805f015f9054906101000a900460ff16908060010154905082565b600254421115610c2b576040517f08c379a0000000000000000000000000000000000000000000000000000000008152600401610c22906118c4565b60405180910390fd5b8160075480825114610c72576040517f08c379a0000000000000000000000000000000000000000000000000000000008152600401610c6990611ffc565b60405180910390fd5b5f1515610c7e83610f7a565b151514610cc0576040517f08c379a0000000000000000000000000000000000000000000000000000000008152600401610cb790612064565b60405180910390fd5b3373ffffffffffffffffffffffffffffffffffffffff1660045f8581526020019081526020015f205f9054906101000a900473ffffffffffffffffffffffffffffffffffffffff1673ffffffffffffffffffffffffffffffffffffffff1614610d5e576040517f08c379a0000000000000000000000000000000000000000000000000000000008152600401610d55906120cc565b60405180910390fd5b5f151560035f3373ffffffffffffffffffffffffffffffffffffffff1673ffffffffffffffffffffffffffffffffffffffff1681526020019081526020015f205f015f9054906101000a900460ff16151514610def576040517f08c379a0000000000000000000000000000000000000000000000000000000008152600401610de690612134565b60405180910390fd5b5f5b8451811015610ed95760016006868381518110610e1157610e106118e2565b5b602002602001015181548110610e2a57610e296118e2565b5b905f5260205f2090600402016002015f828254610e479190611f7f565b9250508190555060035f3373ffffffffffffffffffffffffffffffffffffffff1673ffffffffffffffffffffffffffffffffffffffff1681526020019081526020015f20600201858281518110610ea157610ea06118e2565b5b6020026020010151908060018154018082558091505060019003905f5260205f20015f90919091909150558080600101915050610df1565b50600160035f3373ffffffffffffffffffffffffffffffffffffffff1673ffffffffffffffffffffffffffffffffffffffff1681526020019081526020015f205f015f6101000a81548160ff0219169083151502179055503373ffffffffffffffffffffffffffffffffffffffff167f3b7f4bea1b2462212751e8a9d23ca2a37a1abf7ff729725e224314f1c190c99160405160405180910390a250505050565b5f805f90505b60018351610f8e9190611f4c565b811015611010575f600182610fa39190611f7f565b90505b835181101561100257838181518110610fc257610fc16118e2565b5b6020026020010151848381518110610fdd57610fdc6118e2565b5b602002602001015103610ff557600192505050611015565b8080600101915050610fa6565b508080600101915050610f80565b505f90505b919050565b5f604051905090565b5f80fd5b5f80fd5b5f819050919050565b61103d8161102b565b8114611047575f80fd5b50565b5f8135905061105881611034565b92915050565b5f6020828403121561107357611072611023565b5b5f6110808482850161104a565b91505092915050565b5f819050919050565b61109b81611089565b82525050565b5f81519050919050565b5f82825260208201905092915050565b5f5b838110156110d85780820151818401526020810190506110bd565b5f8484015250505050565b5f601f19601f8301169050919050565b5f6110fd826110a1565b61110781856110ab565b93506111178185602086016110bb565b611120816110e3565b840191505092915050565b6111348161102b565b82525050565b7f4e487b71000000000000000000000000000000000000000000000000000000005f52602160045260245ffd5b600381106111785761117761113a565b5b50565b5f81905061118882611167565b919050565b5f6111978261117b565b9050919050565b6111a78161118d565b82525050565b5f6080820190506111c05f830187611092565b81810360208301526111d281866110f3565b90506111e1604083018561112b565b6111ee606083018461119e565b95945050505050565b60038110611203575f80fd5b50565b5f81359050611214816111f7565b92915050565b5f80604083850312156112305761122f611023565b5b5f61123d8582860161104a565b925050602061124e85828601611206565b9150509250929050565b5f73ffffffffffffffffffffffffffffffffffffffff82169050919050565b5f61128182611258565b9050919050565b61129181611277565b82525050565b5f6020820190506112aa5f830184611288565b92915050565b6112b981611089565b81146112c3575f80fd5b50565b5f813590506112d4816112b0565b92915050565b5f80fd5b5f80fd5b7f4e487b71000000000000000000000000000000000000000000000000000000005f52604160045260245ffd5b611318826110e3565b810181811067ffffffffffffffff82111715611337576113366112e2565b5b80604052505050565b5f61134961101a565b9050611355828261130f565b919050565b5f67ffffffffffffffff821115611374576113736112e2565b5b61137d826110e3565b9050602081019050919050565b828183375f83830152505050565b5f6113aa6113a58461135a565b611340565b9050828152602081018484840111156113c6576113c56112de565b5b6113d184828561138a565b509392505050565b5f82601f8301126113ed576113ec6112da565b5b81356113fd848260208601611398565b91505092915050565b5f806040838503121561141c5761141b611023565b5b5f611429858286016112c6565b925050602083013567ffffffffffffffff81111561144a57611449611027565b5b611456858286016113d9565b9150509250929050565b5f6020820190506114735f83018461112b565b92915050565b5f6020828403121561148e5761148d611023565b5b5f61149b848285016112c6565b91505092915050565b5f6020820190506114b75f830184611092565b92915050565b5f67ffffffffffffffff8211156114d7576114d66112e2565b5b602082029050602081019050919050565b5f80fd5b5f6114fe6114f9846114bd565b611340565b90508083825260208201905060208402830185811115611521576115206114e8565b5b835b8181101561154a5780611536888261104a565b845260208401935050602081019050611523565b5050509392505050565b5f82601f830112611568576115676112da565b5b81356115788482602086016114ec565b91505092915050565b5f6020828403121561159657611595611023565b5b5f82013567ffffffffffffffff8111156115b3576115b2611027565b5b6115bf84828501611554565b91505092915050565b5f81519050919050565b5f82825260208201905092915050565b5f819050602082019050919050565b6115fa8161102b565b82525050565b5f61160b83836115f1565b60208301905092915050565b5f602082019050919050565b5f61162d826115c8565b61163781856115d2565b9350611642836115e2565b805f5b838110156116725781516116598882611600565b975061166483611617565b925050600181019050611645565b5085935050505092915050565b5f6020820190508181035f8301526116978184611623565b905092915050565b6116a881611277565b81146116b2575f80fd5b50565b5f813590506116c38161169f565b92915050565b5f602082840312156116de576116dd611023565b5b5f6116eb848285016116b5565b91505092915050565b5f8115159050919050565b611708816116f4565b82525050565b5f6040820190506117215f8301856116ff565b61172e6020830184611092565b9392505050565b5f806040838503121561174b5761174a611023565b5b5f83013567ffffffffffffffff81111561176857611767611027565b5b61177485828601611554565b9250506020611785858286016112c6565b9150509250929050565b7f4e487b71000000000000000000000000000000000000000000000000000000005f52602260045260245ffd5b5f60028204905060018216806117d357607f821691505b6020821081036117e6576117e561178f565b5b50919050565b7f4f6e6c79206368616972706572736f6e2063616e20706572666f726d207468695f8201527f7320616374696f6e000000000000000000000000000000000000000000000000602082015250565b5f6118466028836110ab565b9150611851826117ec565b604082019050919050565b5f6020820190508181035f8301526118738161183a565b9050919050565b7f566f74696e672068617320656e646564000000000000000000000000000000005f82015250565b5f6118ae6010836110ab565b91506118b98261187a565b602082019050919050565b5f6020820190508181035f8301526118db816118a2565b9050919050565b7f4e487b71000000000000000000000000000000000000000000000000000000005f52603260045260245ffd5b7f496e76616c6964207374617465000000000000000000000000000000000000005f82015250565b5f611943600d836110ab565b915061194e8261190f565b602082019050919050565b5f6020820190508181035f83015261197081611937565b9050919050565b5f81905092915050565b5f819050815f5260205f209050919050565b5f815461199f816117bc565b6119a98186611977565b9450600182165f81146119c357600181146119d857611a0a565b60ff1983168652811515820286019350611a0a565b6119e185611981565b5f5b83811015611a02578154818901526001820191506020810190506119e3565b838801955050505b50505092915050565b5f611a1e8284611993565b915081905092915050565b7f526567697374726174696f6e2068617320656e646564000000000000000000005f82015250565b5f611a5d6016836110ab565b9150611a6882611a29565b602082019050919050565b5f6020820190508181035f830152611a8a81611a51565b9050919050565b5f611a9b826110a1565b611aa58185611977565b9350611ab58185602086016110bb565b80840191505092915050565b5f611acc8284611a91565b915081905092915050565b7f5465616d2068617320616c726561647920726567697374657220612070726f6a5f8201527f6563740000000000000000000000000000000000000000000000000000000000602082015250565b5f611b316023836110ab565b9150611b3c82611ad7565b604082019050919050565b5f6020820190508181035f830152611b5e81611b25565b9050919050565b5f6020601f8301049050919050565b5f82821b905092915050565b5f60088302611baf7fffffffffffffffffffffffffffffffffffffffffffffffffffffffffffffffff82611b74565b611bb98683611b74565b95508019841693508086168417925050509392505050565b5f819050919050565b5f611bf4611bef611bea8461102b565b611bd1565b61102b565b9050919050565b5f819050919050565b611c0d83611bda565b611c21611c1982611bfb565b848454611b80565b825550505050565b5f90565b611c35611c29565b611c40818484611c04565b505050565b5b81811015611c6357611c585f82611c2d565b600181019050611c46565b5050565b601f821115611ca857611c7981611981565b611c8284611b65565b81016020851015611c91578190505b611ca5611c9d85611b65565b830182611c45565b50505b505050565b5f82821c905092915050565b5f611cc85f1984600802611cad565b1980831691505092915050565b5f611ce08383611cb9565b9150826002028217905092915050565b611cf9826110a1565b67ffffffffffffffff811115611d1257611d116112e2565b5b611d1c82546117bc565b611d27828285611c67565b5f60209050601f831160018114611d58575f8415611d46578287015190505b611d508582611cd5565b865550611db7565b601f198416611d6686611981565b5f5b82811015611d8d57848901518255600182019150602085019450602081019050611d68565b86831015611daa5784890151611da6601f891682611cb9565b8355505b6001600288020188555050505b505050505050565b7f566f74696e67206973207374696c6c20616374697665000000000000000000005f82015250565b5f611df36016836110ab565b9150611dfe82611dbf565b602082019050919050565b5f6020820190508181035f830152611e2081611de7565b9050919050565b5f819050919050565b611e41611e3c82611089565b611e27565b82525050565b5f8160601b9050919050565b5f611e5d82611e47565b9050919050565b5f611e6e82611e53565b9050919050565b611e86611e8182611277565b611e64565b82525050565b5f611e978285611e30565b602082019150611ea78284611e75565b6014820191508190509392505050565b7f546f6b656e20686173206265656e20616c7265616479207573656421000000005f82015250565b5f611eeb601c836110ab565b9150611ef682611eb7565b602082019050919050565b5f6020820190508181035f830152611f1881611edf565b9050919050565b7f4e487b71000000000000000000000000000000000000000000000000000000005f52601160045260245ffd5b5f611f568261102b565b9150611f618361102b565b9250828203905081811115611f7957611f78611f1f565b5b92915050565b5f611f898261102b565b9150611f948361102b565b9250828201905080821115611fac57611fab611f1f565b5b92915050565b7f496e76616c6964206e756d626572206f6620766f7465730000000000000000005f82015250565b5f611fe66017836110ab565b9150611ff182611fb2565b602082019050919050565b5f6020820190508181035f83015261201381611fda565b9050919050565b7f4475706c696361746520766f74657320646574656374656400000000000000005f82015250565b5f61204e6018836110ab565b91506120598261201a565b602082019050919050565b5f6020820190508181035f83015261207b81612042565b9050919050565b7f496e76616c696420746f6b656e000000000000000000000000000000000000005f82015250565b5f6120b6600d836110ab565b91506120c182612082565b602082019050919050565b5f6020820190508181035f8301526120e3816120aa565b9050919050565b7f566f7465722068617320616c726561647920766f7465642100000000000000005f82015250565b5f61211e6018836110ab565b9150612129826120ea565b602082019050919050565b5f6020820190508181035f83015261214b81612112565b905091905056fea2646970667358221220d4d521ff69c8e9074ac092d36eb3e3ffbd8bed33141d86a1db7821e09db3684364736f6c63430008180033",
					"opcodes": "PUSH1 0x80 PUSH1 0x40 MSTORE CALLVALUE DUP1 ISZERO PUSH3 0x10 JUMPI PUSH0 DUP1 REVERT JUMPDEST POP PUSH1 0x40 MLOAD PUSH3 0x231A CODESIZE SUB DUP1 PUSH3 0x231A DUP4 CODECOPY DUP2 DUP2 ADD PUSH1 0x40 MSTORE DUP2 ADD SWAP1 PUSH3 0x36 SWAP2 SWAP1 PUSH3 0xED JUMP JUMPDEST CALLER PUSH0 DUP1 PUSH2 0x100 EXP DUP2 SLOAD DUP2 PUSH20 0xFFFFFFFFFFFFFFFFFFFFFFFFFFFFFFFFFFFFFFFF MUL NOT AND SWAP1 DUP4 PUSH20 0xFFFFFFFFFFFFFFFFFFFFFFFFFFFFFFFFFFFFFFFF AND MUL OR SWAP1 SSTORE POP PUSH3 0xD2F00 TIMESTAMP PUSH3 0x86 SWAP2 SWAP1 PUSH3 0x14A JUMP JUMPDEST PUSH1 0x1 DUP2 SWAP1 SSTORE POP PUSH3 0x1A5E00 TIMESTAMP PUSH3 0x9D SWAP2 SWAP1 PUSH3 0x14A JUMP JUMPDEST PUSH1 0x2 DUP2 SWAP1 SSTORE POP DUP1 PUSH1 0x7 DUP2 SWAP1 SSTORE POP POP PUSH3 0x184 JUMP JUMPDEST PUSH0 DUP1 REVERT JUMPDEST PUSH0 DUP2 SWAP1 POP SWAP2 SWAP1 POP JUMP JUMPDEST PUSH3 0xC9 DUP2 PUSH3 0xB5 JUMP JUMPDEST DUP2 EQ PUSH3 0xD4 JUMPI PUSH0 DUP1 REVERT JUMPDEST POP JUMP JUMPDEST PUSH0 DUP2 MLOAD SWAP1 POP PUSH3 0xE7 DUP2 PUSH3 0xBE JUMP JUMPDEST SWAP3 SWAP2 POP POP JUMP JUMPDEST PUSH0 PUSH1 0x20 DUP3 DUP5 SUB SLT ISZERO PUSH3 0x105 JUMPI PUSH3 0x104 PUSH3 0xB1 JUMP JUMPDEST JUMPDEST PUSH0 PUSH3 0x114 DUP5 DUP3 DUP6 ADD PUSH3 0xD7 JUMP JUMPDEST SWAP2 POP POP SWAP3 SWAP2 POP POP JUMP JUMPDEST PUSH32 0x4E487B7100000000000000000000000000000000000000000000000000000000 PUSH0 MSTORE PUSH1 0x11 PUSH1 0x4 MSTORE PUSH1 0x24 PUSH0 REVERT JUMPDEST PUSH0 PUSH3 0x156 DUP3 PUSH3 0xB5 JUMP JUMPDEST SWAP2 POP PUSH3 0x163 DUP4 PUSH3 0xB5 JUMP JUMPDEST SWAP3 POP DUP3 DUP3 ADD SWAP1 POP DUP1 DUP3 GT ISZERO PUSH3 0x17E JUMPI PUSH3 0x17D PUSH3 0x11D JUMP JUMPDEST JUMPDEST SWAP3 SWAP2 POP POP JUMP JUMPDEST PUSH2 0x2188 DUP1 PUSH3 0x192 PUSH0 CODECOPY PUSH0 RETURN INVALID PUSH1 0x80 PUSH1 0x40 MSTORE CALLVALUE DUP1 ISZERO PUSH2 0xF JUMPI PUSH0 DUP1 REVERT JUMPDEST POP PUSH1 0x4 CALLDATASIZE LT PUSH2 0x91 JUMPI PUSH0 CALLDATALOAD PUSH1 0xE0 SHR DUP1 PUSH4 0x609FF1BD GT PUSH2 0x64 JUMPI DUP1 PUSH4 0x609FF1BD EQ PUSH2 0x11E JUMPI DUP1 PUSH4 0x793C5D21 EQ PUSH2 0x13C JUMPI DUP1 PUSH4 0x9EC8B026 EQ PUSH2 0x16C JUMPI DUP1 PUSH4 0xA3EC138D EQ PUSH2 0x19C JUMPI DUP1 PUSH4 0xDDBF695A EQ PUSH2 0x1CD JUMPI PUSH2 0x91 JUMP JUMPDEST DUP1 PUSH4 0x13CF08B EQ PUSH2 0x95 JUMPI DUP1 PUSH4 0xFB26697 EQ PUSH2 0xC8 JUMPI DUP1 PUSH4 0x2E4176CF EQ PUSH2 0xE4 JUMPI DUP1 PUSH4 0x45E53035 EQ PUSH2 0x102 JUMPI JUMPDEST PUSH0 DUP1 REVERT JUMPDEST PUSH2 0xAF PUSH1 0x4 DUP1 CALLDATASIZE SUB DUP2 ADD SWAP1 PUSH2 0xAA SWAP2 SWAP1 PUSH2 0x105E JUMP JUMPDEST PUSH2 0x1E9 JUMP JUMPDEST PUSH1 0x40 MLOAD PUSH2 0xBF SWAP5 SWAP4 SWAP3 SWAP2 SWAP1 PUSH2 0x11AD JUMP JUMPDEST PUSH1 0x40 MLOAD DUP1 SWAP2 SUB SWAP1 RETURN JUMPDEST PUSH2 0xE2 PUSH1 0x4 DUP1 CALLDATASIZE SUB DUP2 ADD SWAP1 PUSH2 0xDD SWAP2 SWAP1 PUSH2 0x121A JUMP JUMPDEST PUSH2 0x2B6 JUMP JUMPDEST STOP JUMPDEST PUSH2 0xEC PUSH2 0x595 JUMP JUMPDEST PUSH1 0x40 MLOAD PUSH2 0xF9 SWAP2 SWAP1 PUSH2 0x1297 JUMP JUMPDEST PUSH1 0x40 MLOAD DUP1 SWAP2 SUB SWAP1 RETURN JUMPDEST PUSH2 0x11C PUSH1 0x4 DUP1 CALLDATASIZE SUB DUP2 ADD SWAP1 PUSH2 0x117 SWAP2 SWAP1 PUSH2 0x1406 JUMP JUMPDEST PUSH2 0x5B8 JUMP JUMPDEST STOP JUMPDEST PUSH2 0x126 PUSH2 0x73B JUMP JUMPDEST PUSH1 0x40 MLOAD PUSH2 0x133 SWAP2 SWAP1 PUSH2 0x1460 JUMP JUMPDEST PUSH1 0x40 MLOAD DUP1 SWAP2 SUB SWAP1 RETURN JUMPDEST PUSH2 0x156 PUSH1 0x4 DUP1 CALLDATASIZE SUB DUP2 ADD SWAP1 PUSH2 0x151 SWAP2 SWAP1 PUSH2 0x1479 JUMP JUMPDEST PUSH2 0x884 JUMP JUMPDEST PUSH1 0x40 MLOAD PUSH2 0x163 SWAP2 SWAP1 PUSH2 0x14A4 JUMP JUMPDEST PUSH1 0x40 MLOAD DUP1 SWAP2 SUB SWAP1 RETURN JUMPDEST PUSH2 0x186 PUSH1 0x4 DUP1 CALLDATASIZE SUB DUP2 ADD SWAP1 PUSH2 0x181 SWAP2 SWAP1 PUSH2 0x1581 JUMP JUMPDEST PUSH2 0xA82 JUMP JUMPDEST PUSH1 0x40 MLOAD PUSH2 0x193 SWAP2 SWAP1 PUSH2 0x167F JUMP JUMPDEST PUSH1 0x40 MLOAD DUP1 SWAP2 SUB SWAP1 RETURN JUMPDEST PUSH2 0x1B6 PUSH1 0x4 DUP1 CALLDATASIZE SUB DUP2 ADD SWAP1 PUSH2 0x1B1 SWAP2 SWAP1 PUSH2 0x16C9 JUMP JUMPDEST PUSH2 0xBBA JUMP JUMPDEST PUSH1 0x40 MLOAD PUSH2 0x1C4 SWAP3 SWAP2 SWAP1 PUSH2 0x170E JUMP JUMPDEST PUSH1 0x40 MLOAD DUP1 SWAP2 SUB SWAP1 RETURN JUMPDEST PUSH2 0x1E7 PUSH1 0x4 DUP1 CALLDATASIZE SUB DUP2 ADD SWAP1 PUSH2 0x1E2 SWAP2 SWAP1 PUSH2 0x1735 JUMP JUMPDEST PUSH2 0xBE6 JUMP JUMPDEST STOP JUMPDEST PUSH1 0x6 DUP2 DUP2 SLOAD DUP2 LT PUSH2 0x1F8 JUMPI PUSH0 DUP1 REVERT JUMPDEST SWAP1 PUSH0 MSTORE PUSH1 0x20 PUSH0 KECCAK256 SWAP1 PUSH1 0x4 MUL ADD PUSH0 SWAP2 POP SWAP1 POP DUP1 PUSH0 ADD SLOAD SWAP1 DUP1 PUSH1 0x1 ADD DUP1 SLOAD PUSH2 0x21D SWAP1 PUSH2 0x17BC JUMP JUMPDEST DUP1 PUSH1 0x1F ADD PUSH1 0x20 DUP1 SWAP2 DIV MUL PUSH1 0x20 ADD PUSH1 0x40 MLOAD SWAP1 DUP2 ADD PUSH1 0x40 MSTORE DUP1 SWAP3 SWAP2 SWAP1 DUP2 DUP2 MSTORE PUSH1 0x20 ADD DUP3 DUP1 SLOAD PUSH2 0x249 SWAP1 PUSH2 0x17BC JUMP JUMPDEST DUP1 ISZERO PUSH2 0x294 JUMPI DUP1 PUSH1 0x1F LT PUSH2 0x26B JUMPI PUSH2 0x100 DUP1 DUP4 SLOAD DIV MUL DUP4 MSTORE SWAP2 PUSH1 0x20 ADD SWAP2 PUSH2 0x294 JUMP JUMPDEST DUP3 ADD SWAP2 SWAP1 PUSH0 MSTORE PUSH1 0x20 PUSH0 KECCAK256 SWAP1 JUMPDEST DUP2 SLOAD DUP2 MSTORE SWAP1 PUSH1 0x1 ADD SWAP1 PUSH1 0x20 ADD DUP1 DUP4 GT PUSH2 0x277 JUMPI DUP3 SWAP1 SUB PUSH1 0x1F AND DUP3 ADD SWAP2 JUMPDEST POP POP POP POP POP SWAP1 DUP1 PUSH1 0x2 ADD SLOAD SWAP1 DUP1 PUSH1 0x3 ADD PUSH0 SWAP1 SLOAD SWAP1 PUSH2 0x100 EXP SWAP1 DIV PUSH1 0xFF AND SWAP1 POP DUP5 JUMP JUMPDEST PUSH0 DUP1 SLOAD SWAP1 PUSH2 0x100 EXP SWAP1 DIV PUSH20 0xFFFFFFFFFFFFFFFFFFFFFFFFFFFFFFFFFFFFFFFF AND PUSH20 0xFFFFFFFFFFFFFFFFFFFFFFFFFFFFFFFFFFFFFFFF AND CALLER PUSH20 0xFFFFFFFFFFFFFFFFFFFFFFFFFFFFFFFFFFFFFFFF AND EQ PUSH2 0x343 JUMPI PUSH1 0x40 MLOAD PUSH32 0x8C379A000000000000000000000000000000000000000000000000000000000 DUP2 MSTORE PUSH1 0x4 ADD PUSH2 0x33A SWAP1 PUSH2 0x185C JUMP JUMPDEST PUSH1 0x40 MLOAD DUP1 SWAP2 SUB SWAP1 REVERT JUMPDEST PUSH1 0x2 SLOAD TIMESTAMP GT ISZERO PUSH2 0x388 JUMPI PUSH1 0x40 MLOAD PUSH32 0x8C379A000000000000000000000000000000000000000000000000000000000 DUP2 MSTORE PUSH1 0x4 ADD PUSH2 0x37F SWAP1 PUSH2 0x18C4 JUMP JUMPDEST PUSH1 0x40 MLOAD DUP1 SWAP2 SUB SWAP1 REVERT JUMPDEST DUP1 PUSH1 0x2 DUP2 GT ISZERO PUSH2 0x39B JUMPI PUSH2 0x39A PUSH2 0x113A JUMP JUMPDEST JUMPDEST PUSH1 0x6 DUP4 DUP2 SLOAD DUP2 LT PUSH2 0x3AF JUMPI PUSH2 0x3AE PUSH2 0x18E2 JUMP JUMPDEST JUMPDEST SWAP1 PUSH0 MSTORE PUSH1 0x20 PUSH0 KECCAK256 SWAP1 PUSH1 0x4 MUL ADD PUSH1 0x3 ADD PUSH0 SWAP1 SLOAD SWAP1 PUSH2 0x100 EXP SWAP1 DIV PUSH1 0xFF AND PUSH1 0x2 DUP2 GT ISZERO PUSH2 0x3DD JUMPI PUSH2 0x3DC PUSH2 0x113A JUMP JUMPDEST JUMPDEST EQ ISZERO DUP1 ISZERO PUSH2 0x46E JUMPI POP PUSH0 PUSH1 0x2 DUP2 GT ISZERO PUSH2 0x3F9 JUMPI PUSH2 0x3F8 PUSH2 0x113A JUMP JUMPDEST JUMPDEST PUSH1 0x6 DUP4 DUP2 SLOAD DUP2 LT PUSH2 0x40D JUMPI PUSH2 0x40C PUSH2 0x18E2 JUMP JUMPDEST JUMPDEST SWAP1 PUSH0 MSTORE PUSH1 0x20 PUSH0 KECCAK256 SWAP1 PUSH1 0x4 MUL ADD PUSH1 0x3 ADD PUSH0 SWAP1 SLOAD SWAP1 PUSH2 0x100 EXP SWAP1 DIV PUSH1 0xFF AND PUSH1 0x2 DUP2 GT ISZERO PUSH2 0x43B JUMPI PUSH2 0x43A PUSH2 0x113A JUMP JUMPDEST JUMPDEST EQ DUP1 ISZERO PUSH2 0x46C JUMPI POP PUSH1 0x1 PUSH1 0x2 DUP2 GT ISZERO PUSH2 0x457 JUMPI PUSH2 0x456 PUSH2 0x113A JUMP JUMPDEST JUMPDEST DUP2 PUSH1 0x2 DUP2 GT ISZERO PUSH2 0x46A JUMPI PUSH2 0x469 PUSH2 0x113A JUMP JUMPDEST JUMPDEST EQ JUMPDEST ISZERO JUMPDEST PUSH2 0x4AD JUMPI PUSH1 0x40 MLOAD PUSH32 0x8C379A000000000000000000000000000000000000000000000000000000000 DUP2 MSTORE PUSH1 0x4 ADD PUSH2 0x4A4 SWAP1 PUSH2 0x1959 JUMP JUMPDEST PUSH1 0x40 MLOAD DUP1 SWAP2 SUB SWAP1 REVERT JUMPDEST DUP1 PUSH1 0x6 DUP4 DUP2 SLOAD DUP2 LT PUSH2 0x4C2 JUMPI PUSH2 0x4C1 PUSH2 0x18E2 JUMP JUMPDEST JUMPDEST SWAP1 PUSH0 MSTORE PUSH1 0x20 PUSH0 KECCAK256 SWAP1 PUSH1 0x4 MUL ADD PUSH1 0x3 ADD PUSH0 PUSH2 0x100 EXP DUP2 SLOAD DUP2 PUSH1 0xFF MUL NOT AND SWAP1 DUP4 PUSH1 0x2 DUP2 GT ISZERO PUSH2 0x4F2 JUMPI PUSH2 0x4F1 PUSH2 0x113A JUMP JUMPDEST JUMPDEST MUL OR SWAP1 SSTORE POP DUP1 PUSH1 0x2 DUP2 GT ISZERO PUSH2 0x50A JUMPI PUSH2 0x509 PUSH2 0x113A JUMP JUMPDEST JUMPDEST PUSH1 0x6 DUP4 DUP2 SLOAD DUP2 LT PUSH2 0x51E JUMPI PUSH2 0x51D PUSH2 0x18E2 JUMP JUMPDEST JUMPDEST SWAP1 PUSH0 MSTORE PUSH1 0x20 PUSH0 KECCAK256 SWAP1 PUSH1 0x4 MUL ADD PUSH1 0x1 ADD PUSH1 0x40 MLOAD PUSH2 0x53A SWAP2 SWAP1 PUSH2 0x1A13 JUMP JUMPDEST PUSH1 0x40 MLOAD DUP1 SWAP2 SUB SWAP1 KECCAK256 PUSH1 0x6 DUP5 DUP2 SLOAD DUP2 LT PUSH2 0x556 JUMPI PUSH2 0x555 PUSH2 0x18E2 JUMP JUMPDEST JUMPDEST SWAP1 PUSH0 MSTORE PUSH1 0x20 PUSH0 KECCAK256 SWAP1 PUSH1 0x4 MUL ADD PUSH0 ADD SLOAD PUSH32 0x2EE87F96343B2E2F3333691B4746E840EBA35D697FC530BE504DC07D848E9783 PUSH1 0x40 MLOAD PUSH1 0x40 MLOAD DUP1 SWAP2 SUB SWAP1 LOG4 POP POP JUMP JUMPDEST PUSH0 DUP1 SLOAD SWAP1 PUSH2 0x100 EXP SWAP1 DIV PUSH20 0xFFFFFFFFFFFFFFFFFFFFFFFFFFFFFFFFFFFFFFFF AND DUP2 JUMP JUMPDEST PUSH1 0x1 SLOAD TIMESTAMP GT ISZERO PUSH2 0x5FD JUMPI PUSH1 0x40 MLOAD PUSH32 0x8C379A000000000000000000000000000000000000000000000000000000000 DUP2 MSTORE PUSH1 0x4 ADD PUSH2 0x5F4 SWAP1 PUSH2 0x1A73 JUMP JUMPDEST PUSH1 0x40 MLOAD DUP1 SWAP2 SUB SWAP1 REVERT JUMPDEST PUSH0 DUP1 SHL PUSH1 0x5 DUP3 PUSH1 0x40 MLOAD PUSH2 0x610 SWAP2 SWAP1 PUSH2 0x1AC1 JUMP JUMPDEST SWAP1 DUP2 MSTORE PUSH1 0x20 ADD PUSH1 0x40 MLOAD DUP1 SWAP2 SUB SWAP1 KECCAK256 SLOAD EQ PUSH2 0x65F JUMPI PUSH1 0x40 MLOAD PUSH32 0x8C379A000000000000000000000000000000000000000000000000000000000 DUP2 MSTORE PUSH1 0x4 ADD PUSH2 0x656 SWAP1 PUSH2 0x1B47 JUMP JUMPDEST PUSH1 0x40 MLOAD DUP1 SWAP2 SUB SWAP1 REVERT JUMPDEST PUSH1 0x6 PUSH1 0x40 MLOAD DUP1 PUSH1 0x80 ADD PUSH1 0x40 MSTORE DUP1 DUP5 DUP2 MSTORE PUSH1 0x20 ADD DUP4 DUP2 MSTORE PUSH1 0x20 ADD PUSH0 DUP2 MSTORE PUSH1 0x20 ADD PUSH1 0x1 PUSH1 0x2 DUP2 GT ISZERO PUSH2 0x692 JUMPI PUSH2 0x691 PUSH2 0x113A JUMP JUMPDEST JUMPDEST DUP2 MSTORE POP SWAP1 DUP1 PUSH1 0x1 DUP2 SLOAD ADD DUP1 DUP3 SSTORE DUP1 SWAP2 POP POP PUSH1 0x1 SWAP1 SUB SWAP1 PUSH0 MSTORE PUSH1 0x20 PUSH0 KECCAK256 SWAP1 PUSH1 0x4 MUL ADD PUSH0 SWAP1 SWAP2 SWAP1 SWAP2 SWAP1 SWAP2 POP PUSH0 DUP3 ADD MLOAD DUP2 PUSH0 ADD SSTORE PUSH1 0x20 DUP3 ADD MLOAD DUP2 PUSH1 0x1 ADD SWAP1 DUP2 PUSH2 0x6D8 SWAP2 SWAP1 PUSH2 0x1CF0 JUMP JUMPDEST POP PUSH1 0x40 DUP3 ADD MLOAD DUP2 PUSH1 0x2 ADD SSTORE PUSH1 0x60 DUP3 ADD MLOAD DUP2 PUSH1 0x3 ADD PUSH0 PUSH2 0x100 EXP DUP2 SLOAD DUP2 PUSH1 0xFF MUL NOT AND SWAP1 DUP4 PUSH1 0x2 DUP2 GT ISZERO PUSH2 0x70D JUMPI PUSH2 0x70C PUSH2 0x113A JUMP JUMPDEST JUMPDEST MUL OR SWAP1 SSTORE POP POP POP DUP2 PUSH1 0x5 DUP3 PUSH1 0x40 MLOAD PUSH2 0x725 SWAP2 SWAP1 PUSH2 0x1AC1 JUMP JUMPDEST SWAP1 DUP2 MSTORE PUSH1 0x20 ADD PUSH1 0x40 MLOAD DUP1 SWAP2 SUB SWAP1 KECCAK256 DUP2 SWAP1 SSTORE POP POP POP JUMP JUMPDEST PUSH0 PUSH1 0x2 SLOAD TIMESTAMP GT PUSH2 0x780 JUMPI PUSH1 0x40 MLOAD PUSH32 0x8C379A000000000000000000000000000000000000000000000000000000000 DUP2 MSTORE PUSH1 0x4 ADD PUSH2 0x777 SWAP1 PUSH2 0x1E09 JUMP JUMPDEST PUSH1 0x40 MLOAD DUP1 SWAP2 SUB SWAP1 REVERT JUMPDEST PUSH0 DUP1 SLOAD SWAP1 PUSH2 0x100 EXP SWAP1 DIV PUSH20 0xFFFFFFFFFFFFFFFFFFFFFFFFFFFFFFFFFFFFFFFF AND PUSH20 0xFFFFFFFFFFFFFFFFFFFFFFFFFFFFFFFFFFFFFFFF AND CALLER PUSH20 0xFFFFFFFFFFFFFFFFFFFFFFFFFFFFFFFFFFFFFFFF AND EQ PUSH2 0x80D JUMPI PUSH1 0x40 MLOAD PUSH32 0x8C379A000000000000000000000000000000000000000000000000000000000 DUP2 MSTORE PUSH1 0x4 ADD PUSH2 0x804 SWAP1 PUSH2 0x185C JUMP JUMPDEST PUSH1 0x40 MLOAD DUP1 SWAP2 SUB SWAP1 REVERT JUMPDEST PUSH0 DUP1 JUMPDEST PUSH1 0x6 DUP1 SLOAD SWAP1 POP DUP2 LT ISZERO PUSH2 0x87F JUMPI DUP2 PUSH1 0x6 DUP3 DUP2 SLOAD DUP2 LT PUSH2 0x832 JUMPI PUSH2 0x831 PUSH2 0x18E2 JUMP JUMPDEST JUMPDEST SWAP1 PUSH0 MSTORE PUSH1 0x20 PUSH0 KECCAK256 SWAP1 PUSH1 0x4 MUL ADD PUSH1 0x2 ADD SLOAD GT ISZERO PUSH2 0x872 JUMPI PUSH1 0x6 DUP2 DUP2 SLOAD DUP2 LT PUSH2 0x85C JUMPI PUSH2 0x85B PUSH2 0x18E2 JUMP JUMPDEST JUMPDEST SWAP1 PUSH0 MSTORE PUSH1 0x20 PUSH0 KECCAK256 SWAP1 PUSH1 0x4 MUL ADD PUSH1 0x2 ADD SLOAD SWAP2 POP DUP1 SWAP3 POP JUMPDEST DUP1 DUP1 PUSH1 0x1 ADD SWAP2 POP POP PUSH2 0x810 JUMP JUMPDEST POP POP SWAP1 JUMP JUMPDEST PUSH0 PUSH1 0x2 SLOAD TIMESTAMP GT ISZERO PUSH2 0x8CA JUMPI PUSH1 0x40 MLOAD PUSH32 0x8C379A000000000000000000000000000000000000000000000000000000000 DUP2 MSTORE PUSH1 0x4 ADD PUSH2 0x8C1 SWAP1 PUSH2 0x18C4 JUMP JUMPDEST PUSH1 0x40 MLOAD DUP1 SWAP2 SUB SWAP1 REVERT JUMPDEST DUP2 CALLER PUSH1 0x40 MLOAD PUSH1 0x20 ADD PUSH2 0x8DD SWAP3 SWAP2 SWAP1 PUSH2 0x1E8C JUMP JUMPDEST PUSH1 0x40 MLOAD PUSH1 0x20 DUP2 DUP4 SUB SUB DUP2 MSTORE SWAP1 PUSH1 0x40 MSTORE DUP1 MLOAD SWAP1 PUSH1 0x20 ADD KECCAK256 SWAP1 POP PUSH0 PUSH20 0xFFFFFFFFFFFFFFFFFFFFFFFFFFFFFFFFFFFFFFFF AND PUSH1 0x4 PUSH0 DUP4 DUP2 MSTORE PUSH1 0x20 ADD SWAP1 DUP2 MSTORE PUSH1 0x20 ADD PUSH0 KECCAK256 PUSH0 SWAP1 SLOAD SWAP1 PUSH2 0x100 EXP SWAP1 DIV PUSH20 0xFFFFFFFFFFFFFFFFFFFFFFFFFFFFFFFFFFFFFFFF AND PUSH20 0xFFFFFFFFFFFFFFFFFFFFFFFFFFFFFFFFFFFFFFFF AND EQ PUSH2 0x993 JUMPI PUSH1 0x40 MLOAD PUSH32 0x8C379A000000000000000000000000000000000000000000000000000000000 DUP2 MSTORE PUSH1 0x4 ADD PUSH2 0x98A SWAP1 PUSH2 0x1F01 JUMP JUMPDEST PUSH1 0x40 MLOAD DUP1 SWAP2 SUB SWAP1 REVERT JUMPDEST DUP1 PUSH1 0x3 PUSH0 CALLER PUSH20 0xFFFFFFFFFFFFFFFFFFFFFFFFFFFFFFFFFFFFFFFF AND PUSH20 0xFFFFFFFFFFFFFFFFFFFFFFFFFFFFFFFFFFFFFFFF AND DUP2 MSTORE PUSH1 0x20 ADD SWAP1 DUP2 MSTORE PUSH1 0x20 ADD PUSH0 KECCAK256 PUSH1 0x1 ADD DUP2 SWAP1 SSTORE POP PUSH0 PUSH1 0x3 PUSH0 CALLER PUSH20 0xFFFFFFFFFFFFFFFFFFFFFFFFFFFFFFFFFFFFFFFF AND PUSH20 0xFFFFFFFFFFFFFFFFFFFFFFFFFFFFFFFFFFFFFFFF AND DUP2 MSTORE PUSH1 0x20 ADD SWAP1 DUP2 MSTORE PUSH1 0x20 ADD PUSH0 KECCAK256 PUSH0 ADD PUSH0 PUSH2 0x100 EXP DUP2 SLOAD DUP2 PUSH1 0xFF MUL NOT AND SWAP1 DUP4 ISZERO ISZERO MUL OR SWAP1 SSTORE POP CALLER PUSH1 0x4 PUSH0 DUP4 DUP2 MSTORE PUSH1 0x20 ADD SWAP1 DUP2 MSTORE PUSH1 0x20 ADD PUSH0 KECCAK256 PUSH0 PUSH2 0x100 EXP DUP2 SLOAD DUP2 PUSH20 0xFFFFFFFFFFFFFFFFFFFFFFFFFFFFFFFFFFFFFFFF MUL NOT AND SWAP1 DUP4 PUSH20 0xFFFFFFFFFFFFFFFFFFFFFFFFFFFFFFFFFFFFFFFF AND MUL OR SWAP1 SSTORE POP SWAP2 SWAP1 POP JUMP JUMPDEST PUSH1 0x60 PUSH0 DUP3 MLOAD SWAP1 POP PUSH0 JUMPDEST PUSH1 0x1 DUP3 PUSH2 0xA98 SWAP2 SWAP1 PUSH2 0x1F4C JUMP JUMPDEST DUP2 LT ISZERO PUSH2 0xBB0 JUMPI PUSH0 JUMPDEST PUSH1 0x1 DUP3 DUP5 PUSH2 0xAAF SWAP2 SWAP1 PUSH2 0x1F4C JUMP JUMPDEST PUSH2 0xAB9 SWAP2 SWAP1 PUSH2 0x1F4C JUMP JUMPDEST DUP2 LT ISZERO PUSH2 0xBA2 JUMPI DUP5 PUSH1 0x1 DUP3 PUSH2 0xACE SWAP2 SWAP1 PUSH2 0x1F7F JUMP JUMPDEST DUP2 MLOAD DUP2 LT PUSH2 0xADF JUMPI PUSH2 0xADE PUSH2 0x18E2 JUMP JUMPDEST JUMPDEST PUSH1 0x20 MUL PUSH1 0x20 ADD ADD MLOAD DUP6 DUP3 DUP2 MLOAD DUP2 LT PUSH2 0xAFA JUMPI PUSH2 0xAF9 PUSH2 0x18E2 JUMP JUMPDEST JUMPDEST PUSH1 0x20 MUL PUSH1 0x20 ADD ADD MLOAD GT ISZERO PUSH2 0xB95 JUMPI DUP5 PUSH1 0x1 DUP3 PUSH2 0xB16 SWAP2 SWAP1 PUSH2 0x1F7F JUMP JUMPDEST DUP2 MLOAD DUP2 LT PUSH2 0xB27 JUMPI PUSH2 0xB26 PUSH2 0x18E2 JUMP JUMPDEST JUMPDEST PUSH1 0x20 MUL PUSH1 0x20 ADD ADD MLOAD DUP6 DUP3 DUP2 MLOAD DUP2 LT PUSH2 0xB42 JUMPI PUSH2 0xB41 PUSH2 0x18E2 JUMP JUMPDEST JUMPDEST PUSH1 0x20 MUL PUSH1 0x20 ADD ADD MLOAD DUP7 DUP4 DUP2 MLOAD DUP2 LT PUSH2 0xB5D JUMPI PUSH2 0xB5C PUSH2 0x18E2 JUMP JUMPDEST JUMPDEST PUSH1 0x20 MUL PUSH1 0x20 ADD ADD DUP8 PUSH1 0x1 DUP6 PUSH2 0xB72 SWAP2 SWAP1 PUSH2 0x1F7F JUMP JUMPDEST DUP2 MLOAD DUP2 LT PUSH2 0xB83 JUMPI PUSH2 0xB82 PUSH2 0x18E2 JUMP JUMPDEST JUMPDEST PUSH1 0x20 MUL PUSH1 0x20 ADD ADD DUP3 DUP2 MSTORE POP DUP3 DUP2 MSTORE POP POP POP JUMPDEST DUP1 DUP1 PUSH1 0x1 ADD SWAP2 POP POP PUSH2 0xAA1 JUMP JUMPDEST POP DUP1 DUP1 PUSH1 0x1 ADD SWAP2 POP POP PUSH2 0xA8B JUMP JUMPDEST POP DUP3 SWAP2 POP POP SWAP2 SWAP1 POP JUMP JUMPDEST PUSH1 0x3 PUSH1 0x20 MSTORE DUP1 PUSH0 MSTORE PUSH1 0x40 PUSH0 KECCAK256 PUSH0 SWAP2 POP SWAP1 POP DUP1 PUSH0 ADD PUSH0 SWAP1 SLOAD SWAP1 PUSH2 0x100 EXP SWAP1 DIV PUSH1 0xFF AND SWAP1 DUP1 PUSH1 0x1 ADD SLOAD SWAP1 POP DUP3 JUMP JUMPDEST PUSH1 0x2 SLOAD TIMESTAMP GT ISZERO PUSH2 0xC2B JUMPI PUSH1 0x40 MLOAD PUSH32 0x8C379A000000000000000000000000000000000000000000000000000000000 DUP2 MSTORE PUSH1 0x4 ADD PUSH2 0xC22 SWAP1 PUSH2 0x18C4 JUMP JUMPDEST PUSH1 0x40 MLOAD DUP1 SWAP2 SUB SWAP1 REVERT JUMPDEST DUP2 PUSH1 0x7 SLOAD DUP1 DUP3 MLOAD EQ PUSH2 0xC72 JUMPI PUSH1 0x40 MLOAD PUSH32 0x8C379A000000000000000000000000000000000000000000000000000000000 DUP2 MSTORE PUSH1 0x4 ADD PUSH2 0xC69 SWAP1 PUSH2 0x1FFC JUMP JUMPDEST PUSH1 0x40 MLOAD DUP1 SWAP2 SUB SWAP1 REVERT JUMPDEST PUSH0 ISZERO ISZERO PUSH2 0xC7E DUP4 PUSH2 0xF7A JUMP JUMPDEST ISZERO ISZERO EQ PUSH2 0xCC0 JUMPI PUSH1 0x40 MLOAD PUSH32 0x8C379A000000000000000000000000000000000000000000000000000000000 DUP2 MSTORE PUSH1 0x4 ADD PUSH2 0xCB7 SWAP1 PUSH2 0x2064 JUMP JUMPDEST PUSH1 0x40 MLOAD DUP1 SWAP2 SUB SWAP1 REVERT JUMPDEST CALLER PUSH20 0xFFFFFFFFFFFFFFFFFFFFFFFFFFFFFFFFFFFFFFFF AND PUSH1 0x4 PUSH0 DUP6 DUP2 MSTORE PUSH1 0x20 ADD SWAP1 DUP2 MSTORE PUSH1 0x20 ADD PUSH0 KECCAK256 PUSH0 SWAP1 SLOAD SWAP1 PUSH2 0x100 EXP SWAP1 DIV PUSH20 0xFFFFFFFFFFFFFFFFFFFFFFFFFFFFFFFFFFFFFFFF AND PUSH20 0xFFFFFFFFFFFFFFFFFFFFFFFFFFFFFFFFFFFFFFFF AND EQ PUSH2 0xD5E JUMPI PUSH1 0x40 MLOAD PUSH32 0x8C379A000000000000000000000000000000000000000000000000000000000 DUP2 MSTORE PUSH1 0x4 ADD PUSH2 0xD55 SWAP1 PUSH2 0x20CC JUMP JUMPDEST PUSH1 0x40 MLOAD DUP1 SWAP2 SUB SWAP1 REVERT JUMPDEST PUSH0 ISZERO ISZERO PUSH1 0x3 PUSH0 CALLER PUSH20 0xFFFFFFFFFFFFFFFFFFFFFFFFFFFFFFFFFFFFFFFF AND PUSH20 0xFFFFFFFFFFFFFFFFFFFFFFFFFFFFFFFFFFFFFFFF AND DUP2 MSTORE PUSH1 0x20 ADD SWAP1 DUP2 MSTORE PUSH1 0x20 ADD PUSH0 KECCAK256 PUSH0 ADD PUSH0 SWAP1 SLOAD SWAP1 PUSH2 0x100 EXP SWAP1 DIV PUSH1 0xFF AND ISZERO ISZERO EQ PUSH2 0xDEF JUMPI PUSH1 0x40 MLOAD PUSH32 0x8C379A000000000000000000000000000000000000000000000000000000000 DUP2 MSTORE PUSH1 0x4 ADD PUSH2 0xDE6 SWAP1 PUSH2 0x2134 JUMP JUMPDEST PUSH1 0x40 MLOAD DUP1 SWAP2 SUB SWAP1 REVERT JUMPDEST PUSH0 JUMPDEST DUP5 MLOAD DUP2 LT ISZERO PUSH2 0xED9 JUMPI PUSH1 0x1 PUSH1 0x6 DUP7 DUP4 DUP2 MLOAD DUP2 LT PUSH2 0xE11 JUMPI PUSH2 0xE10 PUSH2 0x18E2 JUMP JUMPDEST JUMPDEST PUSH1 0x20 MUL PUSH1 0x20 ADD ADD MLOAD DUP2 SLOAD DUP2 LT PUSH2 0xE2A JUMPI PUSH2 0xE29 PUSH2 0x18E2 JUMP JUMPDEST JUMPDEST SWAP1 PUSH0 MSTORE PUSH1 0x20 PUSH0 KECCAK256 SWAP1 PUSH1 0x4 MUL ADD PUSH1 0x2 ADD PUSH0 DUP3 DUP3 SLOAD PUSH2 0xE47 SWAP2 SWAP1 PUSH2 0x1F7F JUMP JUMPDEST SWAP3 POP POP DUP2 SWAP1 SSTORE POP PUSH1 0x3 PUSH0 CALLER PUSH20 0xFFFFFFFFFFFFFFFFFFFFFFFFFFFFFFFFFFFFFFFF AND PUSH20 0xFFFFFFFFFFFFFFFFFFFFFFFFFFFFFFFFFFFFFFFF AND DUP2 MSTORE PUSH1 0x20 ADD SWAP1 DUP2 MSTORE PUSH1 0x20 ADD PUSH0 KECCAK256 PUSH1 0x2 ADD DUP6 DUP3 DUP2 MLOAD DUP2 LT PUSH2 0xEA1 JUMPI PUSH2 0xEA0 PUSH2 0x18E2 JUMP JUMPDEST JUMPDEST PUSH1 0x20 MUL PUSH1 0x20 ADD ADD MLOAD SWAP1 DUP1 PUSH1 0x1 DUP2 SLOAD ADD DUP1 DUP3 SSTORE DUP1 SWAP2 POP POP PUSH1 0x1 SWAP1 SUB SWAP1 PUSH0 MSTORE PUSH1 0x20 PUSH0 KECCAK256 ADD PUSH0 SWAP1 SWAP2 SWAP1 SWAP2 SWAP1 SWAP2 POP SSTORE DUP1 DUP1 PUSH1 0x1 ADD SWAP2 POP POP PUSH2 0xDF1 JUMP JUMPDEST POP PUSH1 0x1 PUSH1 0x3 PUSH0 CALLER PUSH20 0xFFFFFFFFFFFFFFFFFFFFFFFFFFFFFFFFFFFFFFFF AND PUSH20 0xFFFFFFFFFFFFFFFFFFFFFFFFFFFFFFFFFFFFFFFF AND DUP2 MSTORE PUSH1 0x20 ADD SWAP1 DUP2 MSTORE PUSH1 0x20 ADD PUSH0 KECCAK256 PUSH0 ADD PUSH0 PUSH2 0x100 EXP DUP2 SLOAD DUP2 PUSH1 0xFF MUL NOT AND SWAP1 DUP4 ISZERO ISZERO MUL OR SWAP1 SSTORE POP CALLER PUSH20 0xFFFFFFFFFFFFFFFFFFFFFFFFFFFFFFFFFFFFFFFF AND PUSH32 0x3B7F4BEA1B2462212751E8A9D23CA2A37A1ABF7FF729725E224314F1C190C991 PUSH1 0x40 MLOAD PUSH1 0x40 MLOAD DUP1 SWAP2 SUB SWAP1 LOG2 POP POP POP POP JUMP JUMPDEST PUSH0 DUP1 PUSH0 SWAP1 POP JUMPDEST PUSH1 0x1 DUP4 MLOAD PUSH2 0xF8E SWAP2 SWAP1 PUSH2 0x1F4C JUMP JUMPDEST DUP2 LT ISZERO PUSH2 0x1010 JUMPI PUSH0 PUSH1 0x1 DUP3 PUSH2 0xFA3 SWAP2 SWAP1 PUSH2 0x1F7F JUMP JUMPDEST SWAP1 POP JUMPDEST DUP4 MLOAD DUP2 LT ISZERO PUSH2 0x1002 JUMPI DUP4 DUP2 DUP2 MLOAD DUP2 LT PUSH2 0xFC2 JUMPI PUSH2 0xFC1 PUSH2 0x18E2 JUMP JUMPDEST JUMPDEST PUSH1 0x20 MUL PUSH1 0x20 ADD ADD MLOAD DUP5 DUP4 DUP2 MLOAD DUP2 LT PUSH2 0xFDD JUMPI PUSH2 0xFDC PUSH2 0x18E2 JUMP JUMPDEST JUMPDEST PUSH1 0x20 MUL PUSH1 0x20 ADD ADD MLOAD SUB PUSH2 0xFF5 JUMPI PUSH1 0x1 SWAP3 POP POP POP PUSH2 0x1015 JUMP JUMPDEST DUP1 DUP1 PUSH1 0x1 ADD SWAP2 POP POP PUSH2 0xFA6 JUMP JUMPDEST POP DUP1 DUP1 PUSH1 0x1 ADD SWAP2 POP POP PUSH2 0xF80 JUMP JUMPDEST POP PUSH0 SWAP1 POP JUMPDEST SWAP2 SWAP1 POP JUMP JUMPDEST PUSH0 PUSH1 0x40 MLOAD SWAP1 POP SWAP1 JUMP JUMPDEST PUSH0 DUP1 REVERT JUMPDEST PUSH0 DUP1 REVERT JUMPDEST PUSH0 DUP2 SWAP1 POP SWAP2 SWAP1 POP JUMP JUMPDEST PUSH2 0x103D DUP2 PUSH2 0x102B JUMP JUMPDEST DUP2 EQ PUSH2 0x1047 JUMPI PUSH0 DUP1 REVERT JUMPDEST POP JUMP JUMPDEST PUSH0 DUP2 CALLDATALOAD SWAP1 POP PUSH2 0x1058 DUP2 PUSH2 0x1034 JUMP JUMPDEST SWAP3 SWAP2 POP POP JUMP JUMPDEST PUSH0 PUSH1 0x20 DUP3 DUP5 SUB SLT ISZERO PUSH2 0x1073 JUMPI PUSH2 0x1072 PUSH2 0x1023 JUMP JUMPDEST JUMPDEST PUSH0 PUSH2 0x1080 DUP5 DUP3 DUP6 ADD PUSH2 0x104A JUMP JUMPDEST SWAP2 POP POP SWAP3 SWAP2 POP POP JUMP JUMPDEST PUSH0 DUP2 SWAP1 POP SWAP2 SWAP1 POP JUMP JUMPDEST PUSH2 0x109B DUP2 PUSH2 0x1089 JUMP JUMPDEST DUP3 MSTORE POP POP JUMP JUMPDEST PUSH0 DUP2 MLOAD SWAP1 POP SWAP2 SWAP1 POP JUMP JUMPDEST PUSH0 DUP3 DUP3 MSTORE PUSH1 0x20 DUP3 ADD SWAP1 POP SWAP3 SWAP2 POP POP JUMP JUMPDEST PUSH0 JUMPDEST DUP4 DUP2 LT ISZERO PUSH2 0x10D8 JUMPI DUP1 DUP3 ADD MLOAD DUP2 DUP5 ADD MSTORE PUSH1 0x20 DUP2 ADD SWAP1 POP PUSH2 0x10BD JUMP JUMPDEST PUSH0 DUP5 DUP5 ADD MSTORE POP POP POP POP JUMP JUMPDEST PUSH0 PUSH1 0x1F NOT PUSH1 0x1F DUP4 ADD AND SWAP1 POP SWAP2 SWAP1 POP JUMP JUMPDEST PUSH0 PUSH2 0x10FD DUP3 PUSH2 0x10A1 JUMP JUMPDEST PUSH2 0x1107 DUP2 DUP6 PUSH2 0x10AB JUMP JUMPDEST SWAP4 POP PUSH2 0x1117 DUP2 DUP6 PUSH1 0x20 DUP7 ADD PUSH2 0x10BB JUMP JUMPDEST PUSH2 0x1120 DUP2 PUSH2 0x10E3 JUMP JUMPDEST DUP5 ADD SWAP2 POP POP SWAP3 SWAP2 POP POP JUMP JUMPDEST PUSH2 0x1134 DUP2 PUSH2 0x102B JUMP JUMPDEST DUP3 MSTORE POP POP JUMP JUMPDEST PUSH32 0x4E487B7100000000000000000000000000000000000000000000000000000000 PUSH0 MSTORE PUSH1 0x21 PUSH1 0x4 MSTORE PUSH1 0x24 PUSH0 REVERT JUMPDEST PUSH1 0x3 DUP2 LT PUSH2 0x1178 JUMPI PUSH2 0x1177 PUSH2 0x113A JUMP JUMPDEST JUMPDEST POP JUMP JUMPDEST PUSH0 DUP2 SWAP1 POP PUSH2 0x1188 DUP3 PUSH2 0x1167 JUMP JUMPDEST SWAP2 SWAP1 POP JUMP JUMPDEST PUSH0 PUSH2 0x1197 DUP3 PUSH2 0x117B JUMP JUMPDEST SWAP1 POP SWAP2 SWAP1 POP JUMP JUMPDEST PUSH2 0x11A7 DUP2 PUSH2 0x118D JUMP JUMPDEST DUP3 MSTORE POP POP JUMP JUMPDEST PUSH0 PUSH1 0x80 DUP3 ADD SWAP1 POP PUSH2 0x11C0 PUSH0 DUP4 ADD DUP8 PUSH2 0x1092 JUMP JUMPDEST DUP2 DUP2 SUB PUSH1 0x20 DUP4 ADD MSTORE PUSH2 0x11D2 DUP2 DUP7 PUSH2 0x10F3 JUMP JUMPDEST SWAP1 POP PUSH2 0x11E1 PUSH1 0x40 DUP4 ADD DUP6 PUSH2 0x112B JUMP JUMPDEST PUSH2 0x11EE PUSH1 0x60 DUP4 ADD DUP5 PUSH2 0x119E JUMP JUMPDEST SWAP6 SWAP5 POP POP POP POP POP JUMP JUMPDEST PUSH1 0x3 DUP2 LT PUSH2 0x1203 JUMPI PUSH0 DUP1 REVERT JUMPDEST POP JUMP JUMPDEST PUSH0 DUP2 CALLDATALOAD SWAP1 POP PUSH2 0x1214 DUP2 PUSH2 0x11F7 JUMP JUMPDEST SWAP3 SWAP2 POP POP JUMP JUMPDEST PUSH0 DUP1 PUSH1 0x40 DUP4 DUP6 SUB SLT ISZERO PUSH2 0x1230 JUMPI PUSH2 0x122F PUSH2 0x1023 JUMP JUMPDEST JUMPDEST PUSH0 PUSH2 0x123D DUP6 DUP3 DUP7 ADD PUSH2 0x104A JUMP JUMPDEST SWAP3 POP POP PUSH1 0x20 PUSH2 0x124E DUP6 DUP3 DUP7 ADD PUSH2 0x1206 JUMP JUMPDEST SWAP2 POP POP SWAP3 POP SWAP3 SWAP1 POP JUMP JUMPDEST PUSH0 PUSH20 0xFFFFFFFFFFFFFFFFFFFFFFFFFFFFFFFFFFFFFFFF DUP3 AND SWAP1 POP SWAP2 SWAP1 POP JUMP JUMPDEST PUSH0 PUSH2 0x1281 DUP3 PUSH2 0x1258 JUMP JUMPDEST SWAP1 POP SWAP2 SWAP1 POP JUMP JUMPDEST PUSH2 0x1291 DUP2 PUSH2 0x1277 JUMP JUMPDEST DUP3 MSTORE POP POP JUMP JUMPDEST PUSH0 PUSH1 0x20 DUP3 ADD SWAP1 POP PUSH2 0x12AA PUSH0 DUP4 ADD DUP5 PUSH2 0x1288 JUMP JUMPDEST SWAP3 SWAP2 POP POP JUMP JUMPDEST PUSH2 0x12B9 DUP2 PUSH2 0x1089 JUMP JUMPDEST DUP2 EQ PUSH2 0x12C3 JUMPI PUSH0 DUP1 REVERT JUMPDEST POP JUMP JUMPDEST PUSH0 DUP2 CALLDATALOAD SWAP1 POP PUSH2 0x12D4 DUP2 PUSH2 0x12B0 JUMP JUMPDEST SWAP3 SWAP2 POP POP JUMP JUMPDEST PUSH0 DUP1 REVERT JUMPDEST PUSH0 DUP1 REVERT JUMPDEST PUSH32 0x4E487B7100000000000000000000000000000000000000000000000000000000 PUSH0 MSTORE PUSH1 0x41 PUSH1 0x4 MSTORE PUSH1 0x24 PUSH0 REVERT JUMPDEST PUSH2 0x1318 DUP3 PUSH2 0x10E3 JUMP JUMPDEST DUP2 ADD DUP2 DUP2 LT PUSH8 0xFFFFFFFFFFFFFFFF DUP3 GT OR ISZERO PUSH2 0x1337 JUMPI PUSH2 0x1336 PUSH2 0x12E2 JUMP JUMPDEST JUMPDEST DUP1 PUSH1 0x40 MSTORE POP POP POP JUMP JUMPDEST PUSH0 PUSH2 0x1349 PUSH2 0x101A JUMP JUMPDEST SWAP1 POP PUSH2 0x1355 DUP3 DUP3 PUSH2 0x130F JUMP JUMPDEST SWAP2 SWAP1 POP JUMP JUMPDEST PUSH0 PUSH8 0xFFFFFFFFFFFFFFFF DUP3 GT ISZERO PUSH2 0x1374 JUMPI PUSH2 0x1373 PUSH2 0x12E2 JUMP JUMPDEST JUMPDEST PUSH2 0x137D DUP3 PUSH2 0x10E3 JUMP JUMPDEST SWAP1 POP PUSH1 0x20 DUP2 ADD SWAP1 POP SWAP2 SWAP1 POP JUMP JUMPDEST DUP3 DUP2 DUP4 CALLDATACOPY PUSH0 DUP4 DUP4 ADD MSTORE POP POP POP JUMP JUMPDEST PUSH0 PUSH2 0x13AA PUSH2 0x13A5 DUP5 PUSH2 0x135A JUMP JUMPDEST PUSH2 0x1340 JUMP JUMPDEST SWAP1 POP DUP3 DUP2 MSTORE PUSH1 0x20 DUP2 ADD DUP5 DUP5 DUP5 ADD GT ISZERO PUSH2 0x13C6 JUMPI PUSH2 0x13C5 PUSH2 0x12DE JUMP JUMPDEST JUMPDEST PUSH2 0x13D1 DUP5 DUP3 DUP6 PUSH2 0x138A JUMP JUMPDEST POP SWAP4 SWAP3 POP POP POP JUMP JUMPDEST PUSH0 DUP3 PUSH1 0x1F DUP4 ADD SLT PUSH2 0x13ED JUMPI PUSH2 0x13EC PUSH2 0x12DA JUMP JUMPDEST JUMPDEST DUP2 CALLDATALOAD PUSH2 0x13FD DUP5 DUP3 PUSH1 0x20 DUP7 ADD PUSH2 0x1398 JUMP JUMPDEST SWAP2 POP POP SWAP3 SWAP2 POP POP JUMP JUMPDEST PUSH0 DUP1 PUSH1 0x40 DUP4 DUP6 SUB SLT ISZERO PUSH2 0x141C JUMPI PUSH2 0x141B PUSH2 0x1023 JUMP JUMPDEST JUMPDEST PUSH0 PUSH2 0x1429 DUP6 DUP3 DUP7 ADD PUSH2 0x12C6 JUMP JUMPDEST SWAP3 POP POP PUSH1 0x20 DUP4 ADD CALLDATALOAD PUSH8 0xFFFFFFFFFFFFFFFF DUP2 GT ISZERO PUSH2 0x144A JUMPI PUSH2 0x1449 PUSH2 0x1027 JUMP JUMPDEST JUMPDEST PUSH2 0x1456 DUP6 DUP3 DUP7 ADD PUSH2 0x13D9 JUMP JUMPDEST SWAP2 POP POP SWAP3 POP SWAP3 SWAP1 POP JUMP JUMPDEST PUSH0 PUSH1 0x20 DUP3 ADD SWAP1 POP PUSH2 0x1473 PUSH0 DUP4 ADD DUP5 PUSH2 0x112B JUMP JUMPDEST SWAP3 SWAP2 POP POP JUMP JUMPDEST PUSH0 PUSH1 0x20 DUP3 DUP5 SUB SLT ISZERO PUSH2 0x148E JUMPI PUSH2 0x148D PUSH2 0x1023 JUMP JUMPDEST JUMPDEST PUSH0 PUSH2 0x149B DUP5 DUP3 DUP6 ADD PUSH2 0x12C6 JUMP JUMPDEST SWAP2 POP POP SWAP3 SWAP2 POP POP JUMP JUMPDEST PUSH0 PUSH1 0x20 DUP3 ADD SWAP1 POP PUSH2 0x14B7 PUSH0 DUP4 ADD DUP5 PUSH2 0x1092 JUMP JUMPDEST SWAP3 SWAP2 POP POP JUMP JUMPDEST PUSH0 PUSH8 0xFFFFFFFFFFFFFFFF DUP3 GT ISZERO PUSH2 0x14D7 JUMPI PUSH2 0x14D6 PUSH2 0x12E2 JUMP JUMPDEST JUMPDEST PUSH1 0x20 DUP3 MUL SWAP1 POP PUSH1 0x20 DUP2 ADD SWAP1 POP SWAP2 SWAP1 POP JUMP JUMPDEST PUSH0 DUP1 REVERT JUMPDEST PUSH0 PUSH2 0x14FE PUSH2 0x14F9 DUP5 PUSH2 0x14BD JUMP JUMPDEST PUSH2 0x1340 JUMP JUMPDEST SWAP1 POP DUP1 DUP4 DUP3 MSTORE PUSH1 0x20 DUP3 ADD SWAP1 POP PUSH1 0x20 DUP5 MUL DUP4 ADD DUP6 DUP2 GT ISZERO PUSH2 0x1521 JUMPI PUSH2 0x1520 PUSH2 0x14E8 JUMP JUMPDEST JUMPDEST DUP4 JUMPDEST DUP2 DUP2 LT ISZERO PUSH2 0x154A JUMPI DUP1 PUSH2 0x1536 DUP9 DUP3 PUSH2 0x104A JUMP JUMPDEST DUP5 MSTORE PUSH1 0x20 DUP5 ADD SWAP4 POP POP PUSH1 0x20 DUP2 ADD SWAP1 POP PUSH2 0x1523 JUMP JUMPDEST POP POP POP SWAP4 SWAP3 POP POP POP JUMP JUMPDEST PUSH0 DUP3 PUSH1 0x1F DUP4 ADD SLT PUSH2 0x1568 JUMPI PUSH2 0x1567 PUSH2 0x12DA JUMP JUMPDEST JUMPDEST DUP2 CALLDATALOAD PUSH2 0x1578 DUP5 DUP3 PUSH1 0x20 DUP7 ADD PUSH2 0x14EC JUMP JUMPDEST SWAP2 POP POP SWAP3 SWAP2 POP POP JUMP JUMPDEST PUSH0 PUSH1 0x20 DUP3 DUP5 SUB SLT ISZERO PUSH2 0x1596 JUMPI PUSH2 0x1595 PUSH2 0x1023 JUMP JUMPDEST JUMPDEST PUSH0 DUP3 ADD CALLDATALOAD PUSH8 0xFFFFFFFFFFFFFFFF DUP2 GT ISZERO PUSH2 0x15B3 JUMPI PUSH2 0x15B2 PUSH2 0x1027 JUMP JUMPDEST JUMPDEST PUSH2 0x15BF DUP5 DUP3 DUP6 ADD PUSH2 0x1554 JUMP JUMPDEST SWAP2 POP POP SWAP3 SWAP2 POP POP JUMP JUMPDEST PUSH0 DUP2 MLOAD SWAP1 POP SWAP2 SWAP1 POP JUMP JUMPDEST PUSH0 DUP3 DUP3 MSTORE PUSH1 0x20 DUP3 ADD SWAP1 POP SWAP3 SWAP2 POP POP JUMP JUMPDEST PUSH0 DUP2 SWAP1 POP PUSH1 0x20 DUP3 ADD SWAP1 POP SWAP2 SWAP1 POP JUMP JUMPDEST PUSH2 0x15FA DUP2 PUSH2 0x102B JUMP JUMPDEST DUP3 MSTORE POP POP JUMP JUMPDEST PUSH0 PUSH2 0x160B DUP4 DUP4 PUSH2 0x15F1 JUMP JUMPDEST PUSH1 0x20 DUP4 ADD SWAP1 POP SWAP3 SWAP2 POP POP JUMP JUMPDEST PUSH0 PUSH1 0x20 DUP3 ADD SWAP1 POP SWAP2 SWAP1 POP JUMP JUMPDEST PUSH0 PUSH2 0x162D DUP3 PUSH2 0x15C8 JUMP JUMPDEST PUSH2 0x1637 DUP2 DUP6 PUSH2 0x15D2 JUMP JUMPDEST SWAP4 POP PUSH2 0x1642 DUP4 PUSH2 0x15E2 JUMP JUMPDEST DUP1 PUSH0 JUMPDEST DUP4 DUP2 LT ISZERO PUSH2 0x1672 JUMPI DUP2 MLOAD PUSH2 0x1659 DUP9 DUP3 PUSH2 0x1600 JUMP JUMPDEST SWAP8 POP PUSH2 0x1664 DUP4 PUSH2 0x1617 JUMP JUMPDEST SWAP3 POP POP PUSH1 0x1 DUP2 ADD SWAP1 POP PUSH2 0x1645 JUMP JUMPDEST POP DUP6 SWAP4 POP POP POP POP SWAP3 SWAP2 POP POP JUMP JUMPDEST PUSH0 PUSH1 0x20 DUP3 ADD SWAP1 POP DUP2 DUP2 SUB PUSH0 DUP4 ADD MSTORE PUSH2 0x1697 DUP2 DUP5 PUSH2 0x1623 JUMP JUMPDEST SWAP1 POP SWAP3 SWAP2 POP POP JUMP JUMPDEST PUSH2 0x16A8 DUP2 PUSH2 0x1277 JUMP JUMPDEST DUP2 EQ PUSH2 0x16B2 JUMPI PUSH0 DUP1 REVERT JUMPDEST POP JUMP JUMPDEST PUSH0 DUP2 CALLDATALOAD SWAP1 POP PUSH2 0x16C3 DUP2 PUSH2 0x169F JUMP JUMPDEST SWAP3 SWAP2 POP POP JUMP JUMPDEST PUSH0 PUSH1 0x20 DUP3 DUP5 SUB SLT ISZERO PUSH2 0x16DE JUMPI PUSH2 0x16DD PUSH2 0x1023 JUMP JUMPDEST JUMPDEST PUSH0 PUSH2 0x16EB DUP5 DUP3 DUP6 ADD PUSH2 0x16B5 JUMP JUMPDEST SWAP2 POP POP SWAP3 SWAP2 POP POP JUMP JUMPDEST PUSH0 DUP2 ISZERO ISZERO SWAP1 POP SWAP2 SWAP1 POP JUMP JUMPDEST PUSH2 0x1708 DUP2 PUSH2 0x16F4 JUMP JUMPDEST DUP3 MSTORE POP POP JUMP JUMPDEST PUSH0 PUSH1 0x40 DUP3 ADD SWAP1 POP PUSH2 0x1721 PUSH0 DUP4 ADD DUP6 PUSH2 0x16FF JUMP JUMPDEST PUSH2 0x172E PUSH1 0x20 DUP4 ADD DUP5 PUSH2 0x1092 JUMP JUMPDEST SWAP4 SWAP3 POP POP POP JUMP JUMPDEST PUSH0 DUP1 PUSH1 0x40 DUP4 DUP6 SUB SLT ISZERO PUSH2 0x174B JUMPI PUSH2 0x174A PUSH2 0x1023 JUMP JUMPDEST JUMPDEST PUSH0 DUP4 ADD CALLDATALOAD PUSH8 0xFFFFFFFFFFFFFFFF DUP2 GT ISZERO PUSH2 0x1768 JUMPI PUSH2 0x1767 PUSH2 0x1027 JUMP JUMPDEST JUMPDEST PUSH2 0x1774 DUP6 DUP3 DUP7 ADD PUSH2 0x1554 JUMP JUMPDEST SWAP3 POP POP PUSH1 0x20 PUSH2 0x1785 DUP6 DUP3 DUP7 ADD PUSH2 0x12C6 JUMP JUMPDEST SWAP2 POP POP SWAP3 POP SWAP3 SWAP1 POP JUMP JUMPDEST PUSH32 0x4E487B7100000000000000000000000000000000000000000000000000000000 PUSH0 MSTORE PUSH1 0x22 PUSH1 0x4 MSTORE PUSH1 0x24 PUSH0 REVERT JUMPDEST PUSH0 PUSH1 0x2 DUP3 DIV SWAP1 POP PUSH1 0x1 DUP3 AND DUP1 PUSH2 0x17D3 JUMPI PUSH1 0x7F DUP3 AND SWAP2 POP JUMPDEST PUSH1 0x20 DUP3 LT DUP2 SUB PUSH2 0x17E6 JUMPI PUSH2 0x17E5 PUSH2 0x178F JUMP JUMPDEST JUMPDEST POP SWAP2 SWAP1 POP JUMP JUMPDEST PUSH32 0x4F6E6C79206368616972706572736F6E2063616E20706572666F726D20746869 PUSH0 DUP3 ADD MSTORE PUSH32 0x7320616374696F6E000000000000000000000000000000000000000000000000 PUSH1 0x20 DUP3 ADD MSTORE POP JUMP JUMPDEST PUSH0 PUSH2 0x1846 PUSH1 0x28 DUP4 PUSH2 0x10AB JUMP JUMPDEST SWAP2 POP PUSH2 0x1851 DUP3 PUSH2 0x17EC JUMP JUMPDEST PUSH1 0x40 DUP3 ADD SWAP1 POP SWAP2 SWAP1 POP JUMP JUMPDEST PUSH0 PUSH1 0x20 DUP3 ADD SWAP1 POP DUP2 DUP2 SUB PUSH0 DUP4 ADD MSTORE PUSH2 0x1873 DUP2 PUSH2 0x183A JUMP JUMPDEST SWAP1 POP SWAP2 SWAP1 POP JUMP JUMPDEST PUSH32 0x566F74696E672068617320656E64656400000000000000000000000000000000 PUSH0 DUP3 ADD MSTORE POP JUMP JUMPDEST PUSH0 PUSH2 0x18AE PUSH1 0x10 DUP4 PUSH2 0x10AB JUMP JUMPDEST SWAP2 POP PUSH2 0x18B9 DUP3 PUSH2 0x187A JUMP JUMPDEST PUSH1 0x20 DUP3 ADD SWAP1 POP SWAP2 SWAP1 POP JUMP JUMPDEST PUSH0 PUSH1 0x20 DUP3 ADD SWAP1 POP DUP2 DUP2 SUB PUSH0 DUP4 ADD MSTORE PUSH2 0x18DB DUP2 PUSH2 0x18A2 JUMP JUMPDEST SWAP1 POP SWAP2 SWAP1 POP JUMP JUMPDEST PUSH32 0x4E487B7100000000000000000000000000000000000000000000000000000000 PUSH0 MSTORE PUSH1 0x32 PUSH1 0x4 MSTORE PUSH1 0x24 PUSH0 REVERT JUMPDEST PUSH32 0x496E76616C696420737461746500000000000000000000000000000000000000 PUSH0 DUP3 ADD MSTORE POP JUMP JUMPDEST PUSH0 PUSH2 0x1943 PUSH1 0xD DUP4 PUSH2 0x10AB JUMP JUMPDEST SWAP2 POP PUSH2 0x194E DUP3 PUSH2 0x190F JUMP JUMPDEST PUSH1 0x20 DUP3 ADD SWAP1 POP SWAP2 SWAP1 POP JUMP JUMPDEST PUSH0 PUSH1 0x20 DUP3 ADD SWAP1 POP DUP2 DUP2 SUB PUSH0 DUP4 ADD MSTORE PUSH2 0x1970 DUP2 PUSH2 0x1937 JUMP JUMPDEST SWAP1 POP SWAP2 SWAP1 POP JUMP JUMPDEST PUSH0 DUP2 SWAP1 POP SWAP3 SWAP2 POP POP JUMP JUMPDEST PUSH0 DUP2 SWAP1 POP DUP2 PUSH0 MSTORE PUSH1 0x20 PUSH0 KECCAK256 SWAP1 POP SWAP2 SWAP1 POP JUMP JUMPDEST PUSH0 DUP2 SLOAD PUSH2 0x199F DUP2 PUSH2 0x17BC JUMP JUMPDEST PUSH2 0x19A9 DUP2 DUP7 PUSH2 0x1977 JUMP JUMPDEST SWAP5 POP PUSH1 0x1 DUP3 AND PUSH0 DUP2 EQ PUSH2 0x19C3 JUMPI PUSH1 0x1 DUP2 EQ PUSH2 0x19D8 JUMPI PUSH2 0x1A0A JUMP JUMPDEST PUSH1 0xFF NOT DUP4 AND DUP7 MSTORE DUP2 ISZERO ISZERO DUP3 MUL DUP7 ADD SWAP4 POP PUSH2 0x1A0A JUMP JUMPDEST PUSH2 0x19E1 DUP6 PUSH2 0x1981 JUMP JUMPDEST PUSH0 JUMPDEST DUP4 DUP2 LT ISZERO PUSH2 0x1A02 JUMPI DUP2 SLOAD DUP2 DUP10 ADD MSTORE PUSH1 0x1 DUP3 ADD SWAP2 POP PUSH1 0x20 DUP2 ADD SWAP1 POP PUSH2 0x19E3 JUMP JUMPDEST DUP4 DUP9 ADD SWAP6 POP POP POP JUMPDEST POP POP POP SWAP3 SWAP2 POP POP JUMP JUMPDEST PUSH0 PUSH2 0x1A1E DUP3 DUP5 PUSH2 0x1993 JUMP JUMPDEST SWAP2 POP DUP2 SWAP1 POP SWAP3 SWAP2 POP POP JUMP JUMPDEST PUSH32 0x526567697374726174696F6E2068617320656E64656400000000000000000000 PUSH0 DUP3 ADD MSTORE POP JUMP JUMPDEST PUSH0 PUSH2 0x1A5D PUSH1 0x16 DUP4 PUSH2 0x10AB JUMP JUMPDEST SWAP2 POP PUSH2 0x1A68 DUP3 PUSH2 0x1A29 JUMP JUMPDEST PUSH1 0x20 DUP3 ADD SWAP1 POP SWAP2 SWAP1 POP JUMP JUMPDEST PUSH0 PUSH1 0x20 DUP3 ADD SWAP1 POP DUP2 DUP2 SUB PUSH0 DUP4 ADD MSTORE PUSH2 0x1A8A DUP2 PUSH2 0x1A51 JUMP JUMPDEST SWAP1 POP SWAP2 SWAP1 POP JUMP JUMPDEST PUSH0 PUSH2 0x1A9B DUP3 PUSH2 0x10A1 JUMP JUMPDEST PUSH2 0x1AA5 DUP2 DUP6 PUSH2 0x1977 JUMP JUMPDEST SWAP4 POP PUSH2 0x1AB5 DUP2 DUP6 PUSH1 0x20 DUP7 ADD PUSH2 0x10BB JUMP JUMPDEST DUP1 DUP5 ADD SWAP2 POP POP SWAP3 SWAP2 POP POP JUMP JUMPDEST PUSH0 PUSH2 0x1ACC DUP3 DUP5 PUSH2 0x1A91 JUMP JUMPDEST SWAP2 POP DUP2 SWAP1 POP SWAP3 SWAP2 POP POP JUMP JUMPDEST PUSH32 0x5465616D2068617320616C726561647920726567697374657220612070726F6A PUSH0 DUP3 ADD MSTORE PUSH32 0x6563740000000000000000000000000000000000000000000000000000000000 PUSH1 0x20 DUP3 ADD MSTORE POP JUMP JUMPDEST PUSH0 PUSH2 0x1B31 PUSH1 0x23 DUP4 PUSH2 0x10AB JUMP JUMPDEST SWAP2 POP PUSH2 0x1B3C DUP3 PUSH2 0x1AD7 JUMP JUMPDEST PUSH1 0x40 DUP3 ADD SWAP1 POP SWAP2 SWAP1 POP JUMP JUMPDEST PUSH0 PUSH1 0x20 DUP3 ADD SWAP1 POP DUP2 DUP2 SUB PUSH0 DUP4 ADD MSTORE PUSH2 0x1B5E DUP2 PUSH2 0x1B25 JUMP JUMPDEST SWAP1 POP SWAP2 SWAP1 POP JUMP JUMPDEST PUSH0 PUSH1 0x20 PUSH1 0x1F DUP4 ADD DIV SWAP1 POP SWAP2 SWAP1 POP JUMP JUMPDEST PUSH0 DUP3 DUP3 SHL SWAP1 POP SWAP3 SWAP2 POP POP JUMP JUMPDEST PUSH0 PUSH1 0x8 DUP4 MUL PUSH2 0x1BAF PUSH32 0xFFFFFFFFFFFFFFFFFFFFFFFFFFFFFFFFFFFFFFFFFFFFFFFFFFFFFFFFFFFFFFFF DUP3 PUSH2 0x1B74 JUMP JUMPDEST PUSH2 0x1BB9 DUP7 DUP4 PUSH2 0x1B74 JUMP JUMPDEST SWAP6 POP DUP1 NOT DUP5 AND SWAP4 POP DUP1 DUP7 AND DUP5 OR SWAP3 POP POP POP SWAP4 SWAP3 POP POP POP JUMP JUMPDEST PUSH0 DUP2 SWAP1 POP SWAP2 SWAP1 POP JUMP JUMPDEST PUSH0 PUSH2 0x1BF4 PUSH2 0x1BEF PUSH2 0x1BEA DUP5 PUSH2 0x102B JUMP JUMPDEST PUSH2 0x1BD1 JUMP JUMPDEST PUSH2 0x102B JUMP JUMPDEST SWAP1 POP SWAP2 SWAP1 POP JUMP JUMPDEST PUSH0 DUP2 SWAP1 POP SWAP2 SWAP1 POP JUMP JUMPDEST PUSH2 0x1C0D DUP4 PUSH2 0x1BDA JUMP JUMPDEST PUSH2 0x1C21 PUSH2 0x1C19 DUP3 PUSH2 0x1BFB JUMP JUMPDEST DUP5 DUP5 SLOAD PUSH2 0x1B80 JUMP JUMPDEST DUP3 SSTORE POP POP POP POP JUMP JUMPDEST PUSH0 SWAP1 JUMP JUMPDEST PUSH2 0x1C35 PUSH2 0x1C29 JUMP JUMPDEST PUSH2 0x1C40 DUP2 DUP5 DUP5 PUSH2 0x1C04 JUMP JUMPDEST POP POP POP JUMP JUMPDEST JUMPDEST DUP2 DUP2 LT ISZERO PUSH2 0x1C63 JUMPI PUSH2 0x1C58 PUSH0 DUP3 PUSH2 0x1C2D JUMP JUMPDEST PUSH1 0x1 DUP2 ADD SWAP1 POP PUSH2 0x1C46 JUMP JUMPDEST POP POP JUMP JUMPDEST PUSH1 0x1F DUP3 GT ISZERO PUSH2 0x1CA8 JUMPI PUSH2 0x1C79 DUP2 PUSH2 0x1981 JUMP JUMPDEST PUSH2 0x1C82 DUP5 PUSH2 0x1B65 JUMP JUMPDEST DUP2 ADD PUSH1 0x20 DUP6 LT ISZERO PUSH2 0x1C91 JUMPI DUP2 SWAP1 POP JUMPDEST PUSH2 0x1CA5 PUSH2 0x1C9D DUP6 PUSH2 0x1B65 JUMP JUMPDEST DUP4 ADD DUP3 PUSH2 0x1C45 JUMP JUMPDEST POP POP JUMPDEST POP POP POP JUMP JUMPDEST PUSH0 DUP3 DUP3 SHR SWAP1 POP SWAP3 SWAP2 POP POP JUMP JUMPDEST PUSH0 PUSH2 0x1CC8 PUSH0 NOT DUP5 PUSH1 0x8 MUL PUSH2 0x1CAD JUMP JUMPDEST NOT DUP1 DUP4 AND SWAP2 POP POP SWAP3 SWAP2 POP POP JUMP JUMPDEST PUSH0 PUSH2 0x1CE0 DUP4 DUP4 PUSH2 0x1CB9 JUMP JUMPDEST SWAP2 POP DUP3 PUSH1 0x2 MUL DUP3 OR SWAP1 POP SWAP3 SWAP2 POP POP JUMP JUMPDEST PUSH2 0x1CF9 DUP3 PUSH2 0x10A1 JUMP JUMPDEST PUSH8 0xFFFFFFFFFFFFFFFF DUP2 GT ISZERO PUSH2 0x1D12 JUMPI PUSH2 0x1D11 PUSH2 0x12E2 JUMP JUMPDEST JUMPDEST PUSH2 0x1D1C DUP3 SLOAD PUSH2 0x17BC JUMP JUMPDEST PUSH2 0x1D27 DUP3 DUP3 DUP6 PUSH2 0x1C67 JUMP JUMPDEST PUSH0 PUSH1 0x20 SWAP1 POP PUSH1 0x1F DUP4 GT PUSH1 0x1 DUP2 EQ PUSH2 0x1D58 JUMPI PUSH0 DUP5 ISZERO PUSH2 0x1D46 JUMPI DUP3 DUP8 ADD MLOAD SWAP1 POP JUMPDEST PUSH2 0x1D50 DUP6 DUP3 PUSH2 0x1CD5 JUMP JUMPDEST DUP7 SSTORE POP PUSH2 0x1DB7 JUMP JUMPDEST PUSH1 0x1F NOT DUP5 AND PUSH2 0x1D66 DUP7 PUSH2 0x1981 JUMP JUMPDEST PUSH0 JUMPDEST DUP3 DUP2 LT ISZERO PUSH2 0x1D8D JUMPI DUP5 DUP10 ADD MLOAD DUP3 SSTORE PUSH1 0x1 DUP3 ADD SWAP2 POP PUSH1 0x20 DUP6 ADD SWAP5 POP PUSH1 0x20 DUP2 ADD SWAP1 POP PUSH2 0x1D68 JUMP JUMPDEST DUP7 DUP4 LT ISZERO PUSH2 0x1DAA JUMPI DUP5 DUP10 ADD MLOAD PUSH2 0x1DA6 PUSH1 0x1F DUP10 AND DUP3 PUSH2 0x1CB9 JUMP JUMPDEST DUP4 SSTORE POP JUMPDEST PUSH1 0x1 PUSH1 0x2 DUP9 MUL ADD DUP9 SSTORE POP POP POP JUMPDEST POP POP POP POP POP POP JUMP JUMPDEST PUSH32 0x566F74696E67206973207374696C6C2061637469766500000000000000000000 PUSH0 DUP3 ADD MSTORE POP JUMP JUMPDEST PUSH0 PUSH2 0x1DF3 PUSH1 0x16 DUP4 PUSH2 0x10AB JUMP JUMPDEST SWAP2 POP PUSH2 0x1DFE DUP3 PUSH2 0x1DBF JUMP JUMPDEST PUSH1 0x20 DUP3 ADD SWAP1 POP SWAP2 SWAP1 POP JUMP JUMPDEST PUSH0 PUSH1 0x20 DUP3 ADD SWAP1 POP DUP2 DUP2 SUB PUSH0 DUP4 ADD MSTORE PUSH2 0x1E20 DUP2 PUSH2 0x1DE7 JUMP JUMPDEST SWAP1 POP SWAP2 SWAP1 POP JUMP JUMPDEST PUSH0 DUP2 SWAP1 POP SWAP2 SWAP1 POP JUMP JUMPDEST PUSH2 0x1E41 PUSH2 0x1E3C DUP3 PUSH2 0x1089 JUMP JUMPDEST PUSH2 0x1E27 JUMP JUMPDEST DUP3 MSTORE POP POP JUMP JUMPDEST PUSH0 DUP2 PUSH1 0x60 SHL SWAP1 POP SWAP2 SWAP1 POP JUMP JUMPDEST PUSH0 PUSH2 0x1E5D DUP3 PUSH2 0x1E47 JUMP JUMPDEST SWAP1 POP SWAP2 SWAP1 POP JUMP JUMPDEST PUSH0 PUSH2 0x1E6E DUP3 PUSH2 0x1E53 JUMP JUMPDEST SWAP1 POP SWAP2 SWAP1 POP JUMP JUMPDEST PUSH2 0x1E86 PUSH2 0x1E81 DUP3 PUSH2 0x1277 JUMP JUMPDEST PUSH2 0x1E64 JUMP JUMPDEST DUP3 MSTORE POP POP JUMP JUMPDEST PUSH0 PUSH2 0x1E97 DUP3 DUP6 PUSH2 0x1E30 JUMP JUMPDEST PUSH1 0x20 DUP3 ADD SWAP2 POP PUSH2 0x1EA7 DUP3 DUP5 PUSH2 0x1E75 JUMP JUMPDEST PUSH1 0x14 DUP3 ADD SWAP2 POP DUP2 SWAP1 POP SWAP4 SWAP3 POP POP POP JUMP JUMPDEST PUSH32 0x546F6B656E20686173206265656E20616C726561647920757365642100000000 PUSH0 DUP3 ADD MSTORE POP JUMP JUMPDEST PUSH0 PUSH2 0x1EEB PUSH1 0x1C DUP4 PUSH2 0x10AB JUMP JUMPDEST SWAP2 POP PUSH2 0x1EF6 DUP3 PUSH2 0x1EB7 JUMP JUMPDEST PUSH1 0x20 DUP3 ADD SWAP1 POP SWAP2 SWAP1 POP JUMP JUMPDEST PUSH0 PUSH1 0x20 DUP3 ADD SWAP1 POP DUP2 DUP2 SUB PUSH0 DUP4 ADD MSTORE PUSH2 0x1F18 DUP2 PUSH2 0x1EDF JUMP JUMPDEST SWAP1 POP SWAP2 SWAP1 POP JUMP JUMPDEST PUSH32 0x4E487B7100000000000000000000000000000000000000000000000000000000 PUSH0 MSTORE PUSH1 0x11 PUSH1 0x4 MSTORE PUSH1 0x24 PUSH0 REVERT JUMPDEST PUSH0 PUSH2 0x1F56 DUP3 PUSH2 0x102B JUMP JUMPDEST SWAP2 POP PUSH2 0x1F61 DUP4 PUSH2 0x102B JUMP JUMPDEST SWAP3 POP DUP3 DUP3 SUB SWAP1 POP DUP2 DUP2 GT ISZERO PUSH2 0x1F79 JUMPI PUSH2 0x1F78 PUSH2 0x1F1F JUMP JUMPDEST JUMPDEST SWAP3 SWAP2 POP POP JUMP JUMPDEST PUSH0 PUSH2 0x1F89 DUP3 PUSH2 0x102B JUMP JUMPDEST SWAP2 POP PUSH2 0x1F94 DUP4 PUSH2 0x102B JUMP JUMPDEST SWAP3 POP DUP3 DUP3 ADD SWAP1 POP DUP1 DUP3 GT ISZERO PUSH2 0x1FAC JUMPI PUSH2 0x1FAB PUSH2 0x1F1F JUMP JUMPDEST JUMPDEST SWAP3 SWAP2 POP POP JUMP JUMPDEST PUSH32 0x496E76616C6964206E756D626572206F6620766F746573000000000000000000 PUSH0 DUP3 ADD MSTORE POP JUMP JUMPDEST PUSH0 PUSH2 0x1FE6 PUSH1 0x17 DUP4 PUSH2 0x10AB JUMP JUMPDEST SWAP2 POP PUSH2 0x1FF1 DUP3 PUSH2 0x1FB2 JUMP JUMPDEST PUSH1 0x20 DUP3 ADD SWAP1 POP SWAP2 SWAP1 POP JUMP JUMPDEST PUSH0 PUSH1 0x20 DUP3 ADD SWAP1 POP DUP2 DUP2 SUB PUSH0 DUP4 ADD MSTORE PUSH2 0x2013 DUP2 PUSH2 0x1FDA JUMP JUMPDEST SWAP1 POP SWAP2 SWAP1 POP JUMP JUMPDEST PUSH32 0x4475706C696361746520766F7465732064657465637465640000000000000000 PUSH0 DUP3 ADD MSTORE POP JUMP JUMPDEST PUSH0 PUSH2 0x204E PUSH1 0x18 DUP4 PUSH2 0x10AB JUMP JUMPDEST SWAP2 POP PUSH2 0x2059 DUP3 PUSH2 0x201A JUMP JUMPDEST PUSH1 0x20 DUP3 ADD SWAP1 POP SWAP2 SWAP1 POP JUMP JUMPDEST PUSH0 PUSH1 0x20 DUP3 ADD SWAP1 POP DUP2 DUP2 SUB PUSH0 DUP4 ADD MSTORE PUSH2 0x207B DUP2 PUSH2 0x2042 JUMP JUMPDEST SWAP1 POP SWAP2 SWAP1 POP JUMP JUMPDEST PUSH32 0x496E76616C696420746F6B656E00000000000000000000000000000000000000 PUSH0 DUP3 ADD MSTORE POP JUMP JUMPDEST PUSH0 PUSH2 0x20B6 PUSH1 0xD DUP4 PUSH2 0x10AB JUMP JUMPDEST SWAP2 POP PUSH2 0x20C1 DUP3 PUSH2 0x2082 JUMP JUMPDEST PUSH1 0x20 DUP3 ADD SWAP1 POP SWAP2 SWAP1 POP JUMP JUMPDEST PUSH0 PUSH1 0x20 DUP3 ADD SWAP1 POP DUP2 DUP2 SUB PUSH0 DUP4 ADD MSTORE PUSH2 0x20E3 DUP2 PUSH2 0x20AA JUMP JUMPDEST SWAP1 POP SWAP2 SWAP1 POP JUMP JUMPDEST PUSH32 0x566F7465722068617320616C726561647920766F746564210000000000000000 PUSH0 DUP3 ADD MSTORE POP JUMP JUMPDEST PUSH0 PUSH2 0x211E PUSH1 0x18 DUP4 PUSH2 0x10AB JUMP JUMPDEST SWAP2 POP PUSH2 0x2129 DUP3 PUSH2 0x20EA JUMP JUMPDEST PUSH1 0x20 DUP3 ADD SWAP1 POP SWAP2 SWAP1 POP JUMP JUMPDEST PUSH0 PUSH1 0x20 DUP3 ADD SWAP1 POP DUP2 DUP2 SUB PUSH0 DUP4 ADD MSTORE PUSH2 0x214B DUP2 PUSH2 0x2112 JUMP JUMPDEST SWAP1 POP SWAP2 SWAP1 POP JUMP INVALID LOG2 PUSH5 0x6970667358 0x22 SLT KECCAK256 0xD4 0xD5 0x21 SELFDESTRUCT PUSH10 0xC8E9074AC092D36EB3E3 SELFDESTRUCT 0xBD DUP12 0xED CALLER EQ SAR DUP7 LOG1 0xDB PUSH25 0x21E09DB3684364736F6C634300081800330000000000000000 "
				},
				"gasEstimates": {
					"creation": {
						"codeDepositCost": "1716800",
						"executionCost": "infinite",
						"totalCost": "infinite"
					},
					"external": {
						"chairperson()": "2550",
						"proposals(uint256)": "infinite",
						"registerProposal(bytes32,string)": "infinite",
						"registerVoter(bytes32)": "infinite",
						"setProposalState(uint256,uint8)": "infinite",
						"sort(uint256[])": "infinite",
						"vote(uint256[],bytes32)": "infinite",
						"voters(address)": "5133",
						"winningProposal()": "infinite"
					},
					"internal": {
						"hasDuplicates(uint256[] memory)": "infinite"
					}
				},
				"methodIdentifiers": {
					"chairperson()": "2e4176cf",
					"proposals(uint256)": "013cf08b",
					"registerProposal(bytes32,string)": "45e53035",
					"registerVoter(bytes32)": "793c5d21",
					"setProposalState(uint256,uint8)": "0fb26697",
					"sort(uint256[])": "9ec8b026",
					"vote(uint256[],bytes32)": "ddbf695a",
					"voters(address)": "a3ec138d",
					"winningProposal()": "609ff1bd"
				}
			},
			"storageLayout": {
				"storage": [
					{
						"astId": 229,
						"contract": "contracts/VotingStart.sol:Voting",
						"label": "chairperson",
						"offset": 0,
						"slot": "0",
						"type": "t_address"
					},
					{
						"astId": 231,
						"contract": "contracts/VotingStart.sol:Voting",
						"label": "endRegister",
						"offset": 0,
						"slot": "1",
						"type": "t_uint256"
					},
					{
						"astId": 233,
						"contract": "contracts/VotingStart.sol:Voting",
						"label": "endVoting",
						"offset": 0,
						"slot": "2",
						"type": "t_uint256"
					},
					{
						"astId": 238,
						"contract": "contracts/VotingStart.sol:Voting",
						"label": "voters",
						"offset": 0,
						"slot": "3",
						"type": "t_mapping(t_address,t_struct(Voter)217_storage)"
					},
					{
						"astId": 242,
						"contract": "contracts/VotingStart.sol:Voting",
						"label": "voteTokens",
						"offset": 0,
						"slot": "4",
						"type": "t_mapping(t_bytes32,t_address)"
					},
					{
						"astId": 246,
						"contract": "contracts/VotingStart.sol:Voting",
						"label": "projects",
						"offset": 0,
						"slot": "5",
						"type": "t_mapping(t_string_memory_ptr,t_bytes32)"
					},
					{
						"astId": 250,
						"contract": "contracts/VotingStart.sol:Voting",
						"label": "proposals",
						"offset": 0,
						"slot": "6",
						"type": "t_array(t_struct(Proposal)227_storage)dyn_storage"
					},
					{
						"astId": 252,
						"contract": "contracts/VotingStart.sol:Voting",
						"label": "nrReqVotes",
						"offset": 0,
						"slot": "7",
						"type": "t_uint256"
					}
				],
				"types": {
					"t_address": {
						"encoding": "inplace",
						"label": "address",
						"numberOfBytes": "20"
					},
					"t_array(t_struct(Proposal)227_storage)dyn_storage": {
						"base": "t_struct(Proposal)227_storage",
						"encoding": "dynamic_array",
						"label": "struct Voting.Proposal[]",
						"numberOfBytes": "32"
					},
					"t_array(t_uint256)dyn_storage": {
						"base": "t_uint256",
						"encoding": "dynamic_array",
						"label": "uint256[]",
						"numberOfBytes": "32"
					},
					"t_bool": {
						"encoding": "inplace",
						"label": "bool",
						"numberOfBytes": "1"
					},
					"t_bytes32": {
						"encoding": "inplace",
						"label": "bytes32",
						"numberOfBytes": "32"
					},
					"t_enum(State)209": {
						"encoding": "inplace",
						"label": "enum Voting.State",
						"numberOfBytes": "1"
					},
					"t_mapping(t_address,t_struct(Voter)217_storage)": {
						"encoding": "mapping",
						"key": "t_address",
						"label": "mapping(address => struct Voting.Voter)",
						"numberOfBytes": "32",
						"value": "t_struct(Voter)217_storage"
					},
					"t_mapping(t_bytes32,t_address)": {
						"encoding": "mapping",
						"key": "t_bytes32",
						"label": "mapping(bytes32 => address)",
						"numberOfBytes": "32",
						"value": "t_address"
					},
					"t_mapping(t_string_memory_ptr,t_bytes32)": {
						"encoding": "mapping",
						"key": "t_string_memory_ptr",
						"label": "mapping(string => bytes32)",
						"numberOfBytes": "32",
						"value": "t_bytes32"
					},
					"t_string_memory_ptr": {
						"encoding": "bytes",
						"label": "string",
						"numberOfBytes": "32"
					},
					"t_string_storage": {
						"encoding": "bytes",
						"label": "string",
						"numberOfBytes": "32"
					},
					"t_struct(Proposal)227_storage": {
						"encoding": "inplace",
						"label": "struct Voting.Proposal",
						"members": [
							{
								"astId": 219,
								"contract": "contracts/VotingStart.sol:Voting",
								"label": "projectName",
								"offset": 0,
								"slot": "0",
								"type": "t_bytes32"
							},
							{
								"astId": 221,
								"contract": "contracts/VotingStart.sol:Voting",
								"label": "teamName",
								"offset": 0,
								"slot": "1",
								"type": "t_string_storage"
							},
							{
								"astId": 223,
								"contract": "contracts/VotingStart.sol:Voting",
								"label": "voteCount",
								"offset": 0,
								"slot": "2",
								"type": "t_uint256"
							},
							{
								"astId": 226,
								"contract": "contracts/VotingStart.sol:Voting",
								"label": "state",
								"offset": 0,
								"slot": "3",
								"type": "t_enum(State)209"
							}
						],
						"numberOfBytes": "128"
					},
					"t_struct(Voter)217_storage": {
						"encoding": "inplace",
						"label": "struct Voting.Voter",
						"members": [
							{
								"astId": 211,
								"contract": "contracts/VotingStart.sol:Voting",
								"label": "voted",
								"offset": 0,
								"slot": "0",
								"type": "t_bool"
							},
							{
								"astId": 213,
								"contract": "contracts/VotingStart.sol:Voting",
								"label": "token",
								"offset": 0,
								"slot": "1",
								"type": "t_bytes32"
							},
							{
								"astId": 216,
								"contract": "contracts/VotingStart.sol:Voting",
								"label": "votes",
								"offset": 0,
								"slot": "2",
								"type": "t_array(t_uint256)dyn_storage"
							}
						],
						"numberOfBytes": "96"
					},
					"t_uint256": {
						"encoding": "inplace",
						"label": "uint256",
						"numberOfBytes": "32"
					}
				}
			},
			"userdoc": {
				"kind": "user",
				"methods": {},
				"version": 1
			}
		}
	}
}