{
	"contracts/PollTimeManagement.sol": {
		"PollTimeManagement": {
			"abi": [
				{
					"inputs": [],
					"stateMutability": "nonpayable",
					"type": "constructor"
				},
				{
					"anonymous": false,
					"inputs": [
						{
							"indexed": false,
							"internalType": "address",
							"name": "sender",
							"type": "address"
						}
					],
					"name": "PollDurationEvent",
					"type": "event"
				},
				{
					"inputs": [],
					"name": "admin",
					"outputs": [
						{
							"internalType": "address",
							"name": "",
							"type": "address"
						}
					],
					"stateMutability": "view",
					"type": "function"
				},
				{
					"inputs": [
						{
							"internalType": "uint256",
							"name": "pollId",
							"type": "uint256"
						}
					],
					"name": "isPollActive",
					"outputs": [
						{
							"internalType": "bool",
							"name": "",
							"type": "bool"
						}
					],
					"stateMutability": "view",
					"type": "function"
				},
				{
					"inputs": [
						{
							"internalType": "uint256",
							"name": "",
							"type": "uint256"
						}
					],
					"name": "pollDurations",
					"outputs": [
						{
							"internalType": "uint256",
							"name": "startTime",
							"type": "uint256"
						},
						{
							"internalType": "uint256",
							"name": "endTime",
							"type": "uint256"
						}
					],
					"stateMutability": "view",
					"type": "function"
				},
				{
					"inputs": [
						{
							"internalType": "uint256",
							"name": "pollId",
							"type": "uint256"
						},
						{
							"internalType": "uint256",
							"name": "start",
							"type": "uint256"
						},
						{
							"internalType": "uint256",
							"name": "end",
							"type": "uint256"
						}
					],
					"name": "setPollDuration",
					"outputs": [],
					"stateMutability": "nonpayable",
					"type": "function"
				}
			],
			"devdoc": {
				"kind": "dev",
				"methods": {},
				"version": 1
			},
			"evm": {
				"assembly": "    /* \"contracts/PollTimeManagement.sol\":57:910  contract PollTimeManagement {... */\n  mstore(0x40, 0x80)\n    /* \"contracts/PollTimeManagement.sol\":299:348  constructor() {... */\n  callvalue\n  dup1\n  iszero\n  tag_1\n  jumpi\n  0x00\n  dup1\n  revert\ntag_1:\n  pop\n    /* \"contracts/PollTimeManagement.sol\":331:341  msg.sender */\n  caller\n    /* \"contracts/PollTimeManagement.sol\":323:328  admin */\n  0x01\n  0x00\n    /* \"contracts/PollTimeManagement.sol\":323:341  admin = msg.sender */\n  0x0100\n  exp\n  dup2\n  sload\n  dup2\n  0xffffffffffffffffffffffffffffffffffffffff\n  mul\n  not\n  and\n  swap1\n  dup4\n  0xffffffffffffffffffffffffffffffffffffffff\n  and\n  mul\n  or\n  swap1\n  sstore\n  pop\n    /* \"contracts/PollTimeManagement.sol\":57:910  contract PollTimeManagement {... */\n  dataSize(sub_0)\n  dup1\n  dataOffset(sub_0)\n  0x00\n  codecopy\n  0x00\n  return\nstop\n\nsub_0: assembly {\n        /* \"contracts/PollTimeManagement.sol\":57:910  contract PollTimeManagement {... */\n      mstore(0x40, 0x80)\n      callvalue\n      dup1\n      iszero\n      tag_1\n      jumpi\n      0x00\n      dup1\n      revert\n    tag_1:\n      pop\n      jumpi(tag_2, lt(calldatasize, 0x04))\n      shr(0xe0, calldataload(0x00))\n      dup1\n      0x03fff8d3\n      eq\n      tag_3\n      jumpi\n      dup1\n      0x2ec15480\n      eq\n      tag_4\n      jumpi\n      dup1\n      0xf705f8fb\n      eq\n      tag_5\n      jumpi\n      dup1\n      0xf851a440\n      eq\n      tag_6\n      jumpi\n    tag_2:\n      0x00\n      dup1\n      revert\n        /* \"contracts/PollTimeManagement.sol\":468:714  function setPollDuration(uint pollId, uint start, uint end) public  {... */\n    tag_3:\n      tag_7\n      0x04\n      dup1\n      calldatasize\n      sub\n      dup2\n      add\n      swap1\n      tag_8\n      swap2\n      swap1\n      tag_9\n      jump\t// in\n    tag_8:\n      tag_10\n      jump\t// in\n    tag_7:\n      stop\n        /* \"contracts/PollTimeManagement.sol\":720:908  function isPollActive(uint pollId) public view returns (bool) {... */\n    tag_4:\n      tag_11\n      0x04\n      dup1\n      calldatasize\n      sub\n      dup2\n      add\n      swap1\n      tag_12\n      swap2\n      swap1\n      tag_13\n      jump\t// in\n    tag_12:\n      tag_14\n      jump\t// in\n    tag_11:\n      mload(0x40)\n      tag_15\n      swap2\n      swap1\n      tag_16\n      jump\t// in\n    tag_15:\n      mload(0x40)\n      dup1\n      swap2\n      sub\n      swap1\n      return\n        /* \"contracts/PollTimeManagement.sol\":216:266  mapping(uint => PollDuration) public pollDurations */\n    tag_5:\n      tag_17\n      0x04\n      dup1\n      calldatasize\n      sub\n      dup2\n      add\n      swap1\n      tag_18\n      swap2\n      swap1\n      tag_13\n      jump\t// in\n    tag_18:\n      tag_19\n      jump\t// in\n    tag_17:\n      mload(0x40)\n      tag_20\n      swap3\n      swap2\n      swap1\n      tag_21\n      jump\t// in\n    tag_20:\n      mload(0x40)\n      dup1\n      swap2\n      sub\n      swap1\n      return\n        /* \"contracts/PollTimeManagement.sol\":272:292  address public admin */\n    tag_6:\n      tag_22\n      tag_23\n      jump\t// in\n    tag_22:\n      mload(0x40)\n      tag_24\n      swap2\n      swap1\n      tag_25\n      jump\t// in\n    tag_24:\n      mload(0x40)\n      dup1\n      swap2\n      sub\n      swap1\n      return\n        /* \"contracts/PollTimeManagement.sol\":468:714  function setPollDuration(uint pollId, uint start, uint end) public  {... */\n    tag_10:\n        /* \"contracts/PollTimeManagement.sol\":551:580  PollDurationEvent(msg.sender) */\n      0x388ba22d4130ea7fade3d80f3b5aad15946d99826062f582c48ed010d19f722e\n        /* \"contracts/PollTimeManagement.sol\":569:579  msg.sender */\n      caller\n        /* \"contracts/PollTimeManagement.sol\":551:580  PollDurationEvent(msg.sender) */\n      mload(0x40)\n      tag_27\n      swap2\n      swap1\n      tag_25\n      jump\t// in\n    tag_27:\n      mload(0x40)\n      dup1\n      swap2\n      sub\n      swap1\n      log1\n        /* \"contracts/PollTimeManagement.sol\":606:609  end */\n      dup1\n        /* \"contracts/PollTimeManagement.sol\":598:603  start */\n      dup3\n        /* \"contracts/PollTimeManagement.sol\":598:609  start < end */\n      lt\n        /* \"contracts/PollTimeManagement.sol\":590:649  require(start < end, \"Start time must be before end time.\") */\n      tag_28\n      jumpi\n      mload(0x40)\n      0x08c379a000000000000000000000000000000000000000000000000000000000\n      dup2\n      mstore\n      0x04\n      add\n      tag_29\n      swap1\n      tag_30\n      jump\t// in\n    tag_29:\n      mload(0x40)\n      dup1\n      swap2\n      sub\n      swap1\n      revert\n    tag_28:\n        /* \"contracts/PollTimeManagement.sol\":683:707  PollDuration(start, end) */\n      mload(0x40)\n      dup1\n      0x40\n      add\n      0x40\n      mstore\n      dup1\n        /* \"contracts/PollTimeManagement.sol\":696:701  start */\n      dup4\n        /* \"contracts/PollTimeManagement.sol\":683:707  PollDuration(start, end) */\n      dup2\n      mstore\n      0x20\n      add\n        /* \"contracts/PollTimeManagement.sol\":703:706  end */\n      dup3\n        /* \"contracts/PollTimeManagement.sol\":683:707  PollDuration(start, end) */\n      dup2\n      mstore\n      pop\n        /* \"contracts/PollTimeManagement.sol\":659:672  pollDurations */\n      0x00\n        /* \"contracts/PollTimeManagement.sol\":659:680  pollDurations[pollId] */\n      dup1\n        /* \"contracts/PollTimeManagement.sol\":673:679  pollId */\n      dup6\n        /* \"contracts/PollTimeManagement.sol\":659:680  pollDurations[pollId] */\n      dup2\n      mstore\n      0x20\n      add\n      swap1\n      dup2\n      mstore\n      0x20\n      add\n      0x00\n      keccak256\n        /* \"contracts/PollTimeManagement.sol\":659:707  pollDurations[pollId] = PollDuration(start, end) */\n      0x00\n      dup3\n      add\n      mload\n      dup2\n      0x00\n      add\n      sstore\n      0x20\n      dup3\n      add\n      mload\n      dup2\n      0x01\n      add\n      sstore\n      swap1\n      pop\n      pop\n        /* \"contracts/PollTimeManagement.sol\":468:714  function setPollDuration(uint pollId, uint start, uint end) public  {... */\n      pop\n      pop\n      pop\n      jump\t// out\n        /* \"contracts/PollTimeManagement.sol\":720:908  function isPollActive(uint pollId) public view returns (bool) {... */\n    tag_14:\n        /* \"contracts/PollTimeManagement.sol\":776:780  bool */\n      0x00\n        /* \"contracts/PollTimeManagement.sol\":818:831  pollDurations */\n      dup1\n        /* \"contracts/PollTimeManagement.sol\":818:839  pollDurations[pollId] */\n      0x00\n        /* \"contracts/PollTimeManagement.sol\":832:838  pollId */\n      dup4\n        /* \"contracts/PollTimeManagement.sol\":818:839  pollDurations[pollId] */\n      dup2\n      mstore\n      0x20\n      add\n      swap1\n      dup2\n      mstore\n      0x20\n      add\n      0x00\n      keccak256\n        /* \"contracts/PollTimeManagement.sol\":818:849  pollDurations[pollId].startTime */\n      0x00\n      add\n      sload\n        /* \"contracts/PollTimeManagement.sol\":799:814  block.timestamp */\n      timestamp\n        /* \"contracts/PollTimeManagement.sol\":799:849  block.timestamp >= pollDurations[pollId].startTime */\n      lt\n      iszero\n        /* \"contracts/PollTimeManagement.sol\":799:901  block.timestamp >= pollDurations[pollId].startTime && block.timestamp <= pollDurations[pollId].endTime */\n      dup1\n      iszero\n      tag_32\n      jumpi\n      pop\n        /* \"contracts/PollTimeManagement.sol\":872:885  pollDurations */\n      0x00\n        /* \"contracts/PollTimeManagement.sol\":872:893  pollDurations[pollId] */\n      dup1\n        /* \"contracts/PollTimeManagement.sol\":886:892  pollId */\n      dup4\n        /* \"contracts/PollTimeManagement.sol\":872:893  pollDurations[pollId] */\n      dup2\n      mstore\n      0x20\n      add\n      swap1\n      dup2\n      mstore\n      0x20\n      add\n      0x00\n      keccak256\n        /* \"contracts/PollTimeManagement.sol\":872:901  pollDurations[pollId].endTime */\n      0x01\n      add\n      sload\n        /* \"contracts/PollTimeManagement.sol\":853:868  block.timestamp */\n      timestamp\n        /* \"contracts/PollTimeManagement.sol\":853:901  block.timestamp <= pollDurations[pollId].endTime */\n      gt\n      iszero\n        /* \"contracts/PollTimeManagement.sol\":799:901  block.timestamp >= pollDurations[pollId].startTime && block.timestamp <= pollDurations[pollId].endTime */\n    tag_32:\n        /* \"contracts/PollTimeManagement.sol\":792:901  return block.timestamp >= pollDurations[pollId].startTime && block.timestamp <= pollDurations[pollId].endTime */\n      swap1\n      pop\n        /* \"contracts/PollTimeManagement.sol\":720:908  function isPollActive(uint pollId) public view returns (bool) {... */\n      swap2\n      swap1\n      pop\n      jump\t// out\n        /* \"contracts/PollTimeManagement.sol\":216:266  mapping(uint => PollDuration) public pollDurations */\n    tag_19:\n      mstore(0x20, 0x00)\n      dup1\n      0x00\n      mstore\n      keccak256(0x00, 0x40)\n      0x00\n      swap2\n      pop\n      swap1\n      pop\n      dup1\n      0x00\n      add\n      sload\n      swap1\n      dup1\n      0x01\n      add\n      sload\n      swap1\n      pop\n      dup3\n      jump\t// out\n        /* \"contracts/PollTimeManagement.sol\":272:292  address public admin */\n    tag_23:\n      0x01\n      0x00\n      swap1\n      sload\n      swap1\n      0x0100\n      exp\n      swap1\n      div\n      0xffffffffffffffffffffffffffffffffffffffff\n      and\n      dup2\n      jump\t// out\n        /* \"#utility.yul\":88:205   */\n    tag_34:\n        /* \"#utility.yul\":197:198   */\n      0x00\n        /* \"#utility.yul\":194:195   */\n      dup1\n        /* \"#utility.yul\":187:199   */\n      revert\n        /* \"#utility.yul\":334:411   */\n    tag_36:\n        /* \"#utility.yul\":371:378   */\n      0x00\n        /* \"#utility.yul\":400:405   */\n      dup2\n        /* \"#utility.yul\":389:405   */\n      swap1\n      pop\n        /* \"#utility.yul\":334:411   */\n      swap2\n      swap1\n      pop\n      jump\t// out\n        /* \"#utility.yul\":417:539   */\n    tag_37:\n        /* \"#utility.yul\":490:514   */\n      tag_54\n        /* \"#utility.yul\":508:513   */\n      dup2\n        /* \"#utility.yul\":490:514   */\n      tag_36\n      jump\t// in\n    tag_54:\n        /* \"#utility.yul\":483:488   */\n      dup2\n        /* \"#utility.yul\":480:515   */\n      eq\n        /* \"#utility.yul\":470:533   */\n      tag_55\n      jumpi\n        /* \"#utility.yul\":529:530   */\n      0x00\n        /* \"#utility.yul\":526:527   */\n      dup1\n        /* \"#utility.yul\":519:531   */\n      revert\n        /* \"#utility.yul\":470:533   */\n    tag_55:\n        /* \"#utility.yul\":417:539   */\n      pop\n      jump\t// out\n        /* \"#utility.yul\":545:684   */\n    tag_38:\n        /* \"#utility.yul\":591:596   */\n      0x00\n        /* \"#utility.yul\":629:635   */\n      dup2\n        /* \"#utility.yul\":616:636   */\n      calldataload\n        /* \"#utility.yul\":607:636   */\n      swap1\n      pop\n        /* \"#utility.yul\":645:678   */\n      tag_57\n        /* \"#utility.yul\":672:677   */\n      dup2\n        /* \"#utility.yul\":645:678   */\n      tag_37\n      jump\t// in\n    tag_57:\n        /* \"#utility.yul\":545:684   */\n      swap3\n      swap2\n      pop\n      pop\n      jump\t// out\n        /* \"#utility.yul\":690:1309   */\n    tag_9:\n        /* \"#utility.yul\":767:773   */\n      0x00\n        /* \"#utility.yul\":775:781   */\n      dup1\n        /* \"#utility.yul\":783:789   */\n      0x00\n        /* \"#utility.yul\":832:834   */\n      0x60\n        /* \"#utility.yul\":820:829   */\n      dup5\n        /* \"#utility.yul\":811:818   */\n      dup7\n        /* \"#utility.yul\":807:830   */\n      sub\n        /* \"#utility.yul\":803:835   */\n      slt\n        /* \"#utility.yul\":800:919   */\n      iszero\n      tag_59\n      jumpi\n        /* \"#utility.yul\":838:917   */\n      tag_60\n      tag_34\n      jump\t// in\n    tag_60:\n        /* \"#utility.yul\":800:919   */\n    tag_59:\n        /* \"#utility.yul\":958:959   */\n      0x00\n        /* \"#utility.yul\":983:1036   */\n      tag_61\n        /* \"#utility.yul\":1028:1035   */\n      dup7\n        /* \"#utility.yul\":1019:1025   */\n      dup3\n        /* \"#utility.yul\":1008:1017   */\n      dup8\n        /* \"#utility.yul\":1004:1026   */\n      add\n        /* \"#utility.yul\":983:1036   */\n      tag_38\n      jump\t// in\n    tag_61:\n        /* \"#utility.yul\":973:1036   */\n      swap4\n      pop\n        /* \"#utility.yul\":929:1046   */\n      pop\n        /* \"#utility.yul\":1085:1087   */\n      0x20\n        /* \"#utility.yul\":1111:1164   */\n      tag_62\n        /* \"#utility.yul\":1156:1163   */\n      dup7\n        /* \"#utility.yul\":1147:1153   */\n      dup3\n        /* \"#utility.yul\":1136:1145   */\n      dup8\n        /* \"#utility.yul\":1132:1154   */\n      add\n        /* \"#utility.yul\":1111:1164   */\n      tag_38\n      jump\t// in\n    tag_62:\n        /* \"#utility.yul\":1101:1164   */\n      swap3\n      pop\n        /* \"#utility.yul\":1056:1174   */\n      pop\n        /* \"#utility.yul\":1213:1215   */\n      0x40\n        /* \"#utility.yul\":1239:1292   */\n      tag_63\n        /* \"#utility.yul\":1284:1291   */\n      dup7\n        /* \"#utility.yul\":1275:1281   */\n      dup3\n        /* \"#utility.yul\":1264:1273   */\n      dup8\n        /* \"#utility.yul\":1260:1282   */\n      add\n        /* \"#utility.yul\":1239:1292   */\n      tag_38\n      jump\t// in\n    tag_63:\n        /* \"#utility.yul\":1229:1292   */\n      swap2\n      pop\n        /* \"#utility.yul\":1184:1302   */\n      pop\n        /* \"#utility.yul\":690:1309   */\n      swap3\n      pop\n      swap3\n      pop\n      swap3\n      jump\t// out\n        /* \"#utility.yul\":1315:1644   */\n    tag_13:\n        /* \"#utility.yul\":1374:1380   */\n      0x00\n        /* \"#utility.yul\":1423:1425   */\n      0x20\n        /* \"#utility.yul\":1411:1420   */\n      dup3\n        /* \"#utility.yul\":1402:1409   */\n      dup5\n        /* \"#utility.yul\":1398:1421   */\n      sub\n        /* \"#utility.yul\":1394:1426   */\n      slt\n        /* \"#utility.yul\":1391:1510   */\n      iszero\n      tag_65\n      jumpi\n        /* \"#utility.yul\":1429:1508   */\n      tag_66\n      tag_34\n      jump\t// in\n    tag_66:\n        /* \"#utility.yul\":1391:1510   */\n    tag_65:\n        /* \"#utility.yul\":1549:1550   */\n      0x00\n        /* \"#utility.yul\":1574:1627   */\n      tag_67\n        /* \"#utility.yul\":1619:1626   */\n      dup5\n        /* \"#utility.yul\":1610:1616   */\n      dup3\n        /* \"#utility.yul\":1599:1608   */\n      dup6\n        /* \"#utility.yul\":1595:1617   */\n      add\n        /* \"#utility.yul\":1574:1627   */\n      tag_38\n      jump\t// in\n    tag_67:\n        /* \"#utility.yul\":1564:1627   */\n      swap2\n      pop\n        /* \"#utility.yul\":1520:1637   */\n      pop\n        /* \"#utility.yul\":1315:1644   */\n      swap3\n      swap2\n      pop\n      pop\n      jump\t// out\n        /* \"#utility.yul\":1650:1740   */\n    tag_39:\n        /* \"#utility.yul\":1684:1691   */\n      0x00\n        /* \"#utility.yul\":1727:1732   */\n      dup2\n        /* \"#utility.yul\":1720:1733   */\n      iszero\n        /* \"#utility.yul\":1713:1734   */\n      iszero\n        /* \"#utility.yul\":1702:1734   */\n      swap1\n      pop\n        /* \"#utility.yul\":1650:1740   */\n      swap2\n      swap1\n      pop\n      jump\t// out\n        /* \"#utility.yul\":1746:1855   */\n    tag_40:\n        /* \"#utility.yul\":1827:1848   */\n      tag_70\n        /* \"#utility.yul\":1842:1847   */\n      dup2\n        /* \"#utility.yul\":1827:1848   */\n      tag_39\n      jump\t// in\n    tag_70:\n        /* \"#utility.yul\":1822:1825   */\n      dup3\n        /* \"#utility.yul\":1815:1849   */\n      mstore\n        /* \"#utility.yul\":1746:1855   */\n      pop\n      pop\n      jump\t// out\n        /* \"#utility.yul\":1861:2071   */\n    tag_16:\n        /* \"#utility.yul\":1948:1952   */\n      0x00\n        /* \"#utility.yul\":1986:1988   */\n      0x20\n        /* \"#utility.yul\":1975:1984   */\n      dup3\n        /* \"#utility.yul\":1971:1989   */\n      add\n        /* \"#utility.yul\":1963:1989   */\n      swap1\n      pop\n        /* \"#utility.yul\":1999:2064   */\n      tag_72\n        /* \"#utility.yul\":2061:2062   */\n      0x00\n        /* \"#utility.yul\":2050:2059   */\n      dup4\n        /* \"#utility.yul\":2046:2063   */\n      add\n        /* \"#utility.yul\":2037:2043   */\n      dup5\n        /* \"#utility.yul\":1999:2064   */\n      tag_40\n      jump\t// in\n    tag_72:\n        /* \"#utility.yul\":1861:2071   */\n      swap3\n      swap2\n      pop\n      pop\n      jump\t// out\n        /* \"#utility.yul\":2077:2195   */\n    tag_41:\n        /* \"#utility.yul\":2164:2188   */\n      tag_74\n        /* \"#utility.yul\":2182:2187   */\n      dup2\n        /* \"#utility.yul\":2164:2188   */\n      tag_36\n      jump\t// in\n    tag_74:\n        /* \"#utility.yul\":2159:2162   */\n      dup3\n        /* \"#utility.yul\":2152:2189   */\n      mstore\n        /* \"#utility.yul\":2077:2195   */\n      pop\n      pop\n      jump\t// out\n        /* \"#utility.yul\":2201:2533   */\n    tag_21:\n        /* \"#utility.yul\":2322:2326   */\n      0x00\n        /* \"#utility.yul\":2360:2362   */\n      0x40\n        /* \"#utility.yul\":2349:2358   */\n      dup3\n        /* \"#utility.yul\":2345:2363   */\n      add\n        /* \"#utility.yul\":2337:2363   */\n      swap1\n      pop\n        /* \"#utility.yul\":2373:2444   */\n      tag_76\n        /* \"#utility.yul\":2441:2442   */\n      0x00\n        /* \"#utility.yul\":2430:2439   */\n      dup4\n        /* \"#utility.yul\":2426:2443   */\n      add\n        /* \"#utility.yul\":2417:2423   */\n      dup6\n        /* \"#utility.yul\":2373:2444   */\n      tag_41\n      jump\t// in\n    tag_76:\n        /* \"#utility.yul\":2454:2526   */\n      tag_77\n        /* \"#utility.yul\":2522:2524   */\n      0x20\n        /* \"#utility.yul\":2511:2520   */\n      dup4\n        /* \"#utility.yul\":2507:2525   */\n      add\n        /* \"#utility.yul\":2498:2504   */\n      dup5\n        /* \"#utility.yul\":2454:2526   */\n      tag_41\n      jump\t// in\n    tag_77:\n        /* \"#utility.yul\":2201:2533   */\n      swap4\n      swap3\n      pop\n      pop\n      pop\n      jump\t// out\n        /* \"#utility.yul\":2539:2665   */\n    tag_42:\n        /* \"#utility.yul\":2576:2583   */\n      0x00\n        /* \"#utility.yul\":2616:2658   */\n      0xffffffffffffffffffffffffffffffffffffffff\n        /* \"#utility.yul\":2609:2614   */\n      dup3\n        /* \"#utility.yul\":2605:2659   */\n      and\n        /* \"#utility.yul\":2594:2659   */\n      swap1\n      pop\n        /* \"#utility.yul\":2539:2665   */\n      swap2\n      swap1\n      pop\n      jump\t// out\n        /* \"#utility.yul\":2671:2767   */\n    tag_43:\n        /* \"#utility.yul\":2708:2715   */\n      0x00\n        /* \"#utility.yul\":2737:2761   */\n      tag_80\n        /* \"#utility.yul\":2755:2760   */\n      dup3\n        /* \"#utility.yul\":2737:2761   */\n      tag_42\n      jump\t// in\n    tag_80:\n        /* \"#utility.yul\":2726:2761   */\n      swap1\n      pop\n        /* \"#utility.yul\":2671:2767   */\n      swap2\n      swap1\n      pop\n      jump\t// out\n        /* \"#utility.yul\":2773:2891   */\n    tag_44:\n        /* \"#utility.yul\":2860:2884   */\n      tag_82\n        /* \"#utility.yul\":2878:2883   */\n      dup2\n        /* \"#utility.yul\":2860:2884   */\n      tag_43\n      jump\t// in\n    tag_82:\n        /* \"#utility.yul\":2855:2858   */\n      dup3\n        /* \"#utility.yul\":2848:2885   */\n      mstore\n        /* \"#utility.yul\":2773:2891   */\n      pop\n      pop\n      jump\t// out\n        /* \"#utility.yul\":2897:3119   */\n    tag_25:\n        /* \"#utility.yul\":2990:2994   */\n      0x00\n        /* \"#utility.yul\":3028:3030   */\n      0x20\n        /* \"#utility.yul\":3017:3026   */\n      dup3\n        /* \"#utility.yul\":3013:3031   */\n      add\n        /* \"#utility.yul\":3005:3031   */\n      swap1\n      pop\n        /* \"#utility.yul\":3041:3112   */\n      tag_84\n        /* \"#utility.yul\":3109:3110   */\n      0x00\n        /* \"#utility.yul\":3098:3107   */\n      dup4\n        /* \"#utility.yul\":3094:3111   */\n      add\n        /* \"#utility.yul\":3085:3091   */\n      dup5\n        /* \"#utility.yul\":3041:3112   */\n      tag_44\n      jump\t// in\n    tag_84:\n        /* \"#utility.yul\":2897:3119   */\n      swap3\n      swap2\n      pop\n      pop\n      jump\t// out\n        /* \"#utility.yul\":3125:3294   */\n    tag_45:\n        /* \"#utility.yul\":3209:3220   */\n      0x00\n        /* \"#utility.yul\":3243:3249   */\n      dup3\n        /* \"#utility.yul\":3238:3241   */\n      dup3\n        /* \"#utility.yul\":3231:3250   */\n      mstore\n        /* \"#utility.yul\":3283:3287   */\n      0x20\n        /* \"#utility.yul\":3278:3281   */\n      dup3\n        /* \"#utility.yul\":3274:3288   */\n      add\n        /* \"#utility.yul\":3259:3288   */\n      swap1\n      pop\n        /* \"#utility.yul\":3125:3294   */\n      swap3\n      swap2\n      pop\n      pop\n      jump\t// out\n        /* \"#utility.yul\":3300:3522   */\n    tag_46:\n        /* \"#utility.yul\":3440:3474   */\n      0x53746172742074696d65206d757374206265206265666f726520656e64207469\n        /* \"#utility.yul\":3436:3437   */\n      0x00\n        /* \"#utility.yul\":3428:3434   */\n      dup3\n        /* \"#utility.yul\":3424:3438   */\n      add\n        /* \"#utility.yul\":3417:3475   */\n      mstore\n        /* \"#utility.yul\":3509:3514   */\n      0x6d652e0000000000000000000000000000000000000000000000000000000000\n        /* \"#utility.yul\":3504:3506   */\n      0x20\n        /* \"#utility.yul\":3496:3502   */\n      dup3\n        /* \"#utility.yul\":3492:3507   */\n      add\n        /* \"#utility.yul\":3485:3515   */\n      mstore\n        /* \"#utility.yul\":3300:3522   */\n      pop\n      jump\t// out\n        /* \"#utility.yul\":3528:3894   */\n    tag_47:\n        /* \"#utility.yul\":3670:3673   */\n      0x00\n        /* \"#utility.yul\":3691:3758   */\n      tag_88\n        /* \"#utility.yul\":3755:3757   */\n      0x23\n        /* \"#utility.yul\":3750:3753   */\n      dup4\n        /* \"#utility.yul\":3691:3758   */\n      tag_45\n      jump\t// in\n    tag_88:\n        /* \"#utility.yul\":3684:3758   */\n      swap2\n      pop\n        /* \"#utility.yul\":3767:3860   */\n      tag_89\n        /* \"#utility.yul\":3856:3859   */\n      dup3\n        /* \"#utility.yul\":3767:3860   */\n      tag_46\n      jump\t// in\n    tag_89:\n        /* \"#utility.yul\":3885:3887   */\n      0x40\n        /* \"#utility.yul\":3880:3883   */\n      dup3\n        /* \"#utility.yul\":3876:3888   */\n      add\n        /* \"#utility.yul\":3869:3888   */\n      swap1\n      pop\n        /* \"#utility.yul\":3528:3894   */\n      swap2\n      swap1\n      pop\n      jump\t// out\n        /* \"#utility.yul\":3900:4319   */\n    tag_30:\n        /* \"#utility.yul\":4066:4070   */\n      0x00\n        /* \"#utility.yul\":4104:4106   */\n      0x20\n        /* \"#utility.yul\":4093:4102   */\n      dup3\n        /* \"#utility.yul\":4089:4107   */\n      add\n        /* \"#utility.yul\":4081:4107   */\n      swap1\n      pop\n        /* \"#utility.yul\":4153:4162   */\n      dup2\n        /* \"#utility.yul\":4147:4151   */\n      dup2\n        /* \"#utility.yul\":4143:4163   */\n      sub\n        /* \"#utility.yul\":4139:4140   */\n      0x00\n        /* \"#utility.yul\":4128:4137   */\n      dup4\n        /* \"#utility.yul\":4124:4141   */\n      add\n        /* \"#utility.yul\":4117:4164   */\n      mstore\n        /* \"#utility.yul\":4181:4312   */\n      tag_91\n        /* \"#utility.yul\":4307:4311   */\n      dup2\n        /* \"#utility.yul\":4181:4312   */\n      tag_47\n      jump\t// in\n    tag_91:\n        /* \"#utility.yul\":4173:4312   */\n      swap1\n      pop\n        /* \"#utility.yul\":3900:4319   */\n      swap2\n      swap1\n      pop\n      jump\t// out\n\n    auxdata: 0xa26469706673582212203d5966211e5633ceddc48b8f110eeba5e293828bfc93c3634191f095e51eadfe64736f6c63430008190033\n}\n",
				"bytecode": {
					"linkReferences": {},
					"object": "6080604052348015600e575f80fd5b503360015f6101000a81548173ffffffffffffffffffffffffffffffffffffffff021916908373ffffffffffffffffffffffffffffffffffffffff1602179055506104698061005c5f395ff3fe608060405234801561000f575f80fd5b506004361061004a575f3560e01c806303fff8d31461004e5780632ec154801461006a578063f705f8fb1461009a578063f851a440146100cb575b5f80fd5b61006860048036038101906100639190610259565b6100e9565b005b610084600480360381019061007f91906102a9565b6101a1565b60405161009191906102ee565b60405180910390f35b6100b460048036038101906100af91906102a9565b6101de565b6040516100c2929190610316565b60405180910390f35b6100d36101fd565b6040516100e0919061037c565b60405180910390f35b7f388ba22d4130ea7fade3d80f3b5aad15946d99826062f582c48ed010d19f722e33604051610118919061037c565b60405180910390a1808210610162576040517f08c379a000000000000000000000000000000000000000000000000000000000815260040161015990610415565b60405180910390fd5b6040518060400160405280838152602001828152505f808581526020019081526020015f205f820151815f015560208201518160010155905050505050565b5f805f8381526020019081526020015f205f015442101580156101d757505f808381526020019081526020015f20600101544211155b9050919050565b5f602052805f5260405f205f91509050805f0154908060010154905082565b60015f9054906101000a900473ffffffffffffffffffffffffffffffffffffffff1681565b5f80fd5b5f819050919050565b61023881610226565b8114610242575f80fd5b50565b5f813590506102538161022f565b92915050565b5f805f606084860312156102705761026f610222565b5b5f61027d86828701610245565b935050602061028e86828701610245565b925050604061029f86828701610245565b9150509250925092565b5f602082840312156102be576102bd610222565b5b5f6102cb84828501610245565b91505092915050565b5f8115159050919050565b6102e8816102d4565b82525050565b5f6020820190506103015f8301846102df565b92915050565b61031081610226565b82525050565b5f6040820190506103295f830185610307565b6103366020830184610307565b9392505050565b5f73ffffffffffffffffffffffffffffffffffffffff82169050919050565b5f6103668261033d565b9050919050565b6103768161035c565b82525050565b5f60208201905061038f5f83018461036d565b92915050565b5f82825260208201905092915050565b7f53746172742074696d65206d757374206265206265666f726520656e642074695f8201527f6d652e0000000000000000000000000000000000000000000000000000000000602082015250565b5f6103ff602383610395565b915061040a826103a5565b604082019050919050565b5f6020820190508181035f83015261042c816103f3565b905091905056fea26469706673582212203d5966211e5633ceddc48b8f110eeba5e293828bfc93c3634191f095e51eadfe64736f6c63430008190033",
					"opcodes": "PUSH1 0x80 PUSH1 0x40 MSTORE CALLVALUE DUP1 ISZERO PUSH1 0xE JUMPI PUSH0 DUP1 REVERT JUMPDEST POP CALLER PUSH1 0x1 PUSH0 PUSH2 0x100 EXP DUP2 SLOAD DUP2 PUSH20 0xFFFFFFFFFFFFFFFFFFFFFFFFFFFFFFFFFFFFFFFF MUL NOT AND SWAP1 DUP4 PUSH20 0xFFFFFFFFFFFFFFFFFFFFFFFFFFFFFFFFFFFFFFFF AND MUL OR SWAP1 SSTORE POP PUSH2 0x469 DUP1 PUSH2 0x5C PUSH0 CODECOPY PUSH0 RETURN INVALID PUSH1 0x80 PUSH1 0x40 MSTORE CALLVALUE DUP1 ISZERO PUSH2 0xF JUMPI PUSH0 DUP1 REVERT JUMPDEST POP PUSH1 0x4 CALLDATASIZE LT PUSH2 0x4A JUMPI PUSH0 CALLDATALOAD PUSH1 0xE0 SHR DUP1 PUSH4 0x3FFF8D3 EQ PUSH2 0x4E JUMPI DUP1 PUSH4 0x2EC15480 EQ PUSH2 0x6A JUMPI DUP1 PUSH4 0xF705F8FB EQ PUSH2 0x9A JUMPI DUP1 PUSH4 0xF851A440 EQ PUSH2 0xCB JUMPI JUMPDEST PUSH0 DUP1 REVERT JUMPDEST PUSH2 0x68 PUSH1 0x4 DUP1 CALLDATASIZE SUB DUP2 ADD SWAP1 PUSH2 0x63 SWAP2 SWAP1 PUSH2 0x259 JUMP JUMPDEST PUSH2 0xE9 JUMP JUMPDEST STOP JUMPDEST PUSH2 0x84 PUSH1 0x4 DUP1 CALLDATASIZE SUB DUP2 ADD SWAP1 PUSH2 0x7F SWAP2 SWAP1 PUSH2 0x2A9 JUMP JUMPDEST PUSH2 0x1A1 JUMP JUMPDEST PUSH1 0x40 MLOAD PUSH2 0x91 SWAP2 SWAP1 PUSH2 0x2EE JUMP JUMPDEST PUSH1 0x40 MLOAD DUP1 SWAP2 SUB SWAP1 RETURN JUMPDEST PUSH2 0xB4 PUSH1 0x4 DUP1 CALLDATASIZE SUB DUP2 ADD SWAP1 PUSH2 0xAF SWAP2 SWAP1 PUSH2 0x2A9 JUMP JUMPDEST PUSH2 0x1DE JUMP JUMPDEST PUSH1 0x40 MLOAD PUSH2 0xC2 SWAP3 SWAP2 SWAP1 PUSH2 0x316 JUMP JUMPDEST PUSH1 0x40 MLOAD DUP1 SWAP2 SUB SWAP1 RETURN JUMPDEST PUSH2 0xD3 PUSH2 0x1FD JUMP JUMPDEST PUSH1 0x40 MLOAD PUSH2 0xE0 SWAP2 SWAP1 PUSH2 0x37C JUMP JUMPDEST PUSH1 0x40 MLOAD DUP1 SWAP2 SUB SWAP1 RETURN JUMPDEST PUSH32 0x388BA22D4130EA7FADE3D80F3B5AAD15946D99826062F582C48ED010D19F722E CALLER PUSH1 0x40 MLOAD PUSH2 0x118 SWAP2 SWAP1 PUSH2 0x37C JUMP JUMPDEST PUSH1 0x40 MLOAD DUP1 SWAP2 SUB SWAP1 LOG1 DUP1 DUP3 LT PUSH2 0x162 JUMPI PUSH1 0x40 MLOAD PUSH32 0x8C379A000000000000000000000000000000000000000000000000000000000 DUP2 MSTORE PUSH1 0x4 ADD PUSH2 0x159 SWAP1 PUSH2 0x415 JUMP JUMPDEST PUSH1 0x40 MLOAD DUP1 SWAP2 SUB SWAP1 REVERT JUMPDEST PUSH1 0x40 MLOAD DUP1 PUSH1 0x40 ADD PUSH1 0x40 MSTORE DUP1 DUP4 DUP2 MSTORE PUSH1 0x20 ADD DUP3 DUP2 MSTORE POP PUSH0 DUP1 DUP6 DUP2 MSTORE PUSH1 0x20 ADD SWAP1 DUP2 MSTORE PUSH1 0x20 ADD PUSH0 KECCAK256 PUSH0 DUP3 ADD MLOAD DUP2 PUSH0 ADD SSTORE PUSH1 0x20 DUP3 ADD MLOAD DUP2 PUSH1 0x1 ADD SSTORE SWAP1 POP POP POP POP POP JUMP JUMPDEST PUSH0 DUP1 PUSH0 DUP4 DUP2 MSTORE PUSH1 0x20 ADD SWAP1 DUP2 MSTORE PUSH1 0x20 ADD PUSH0 KECCAK256 PUSH0 ADD SLOAD TIMESTAMP LT ISZERO DUP1 ISZERO PUSH2 0x1D7 JUMPI POP PUSH0 DUP1 DUP4 DUP2 MSTORE PUSH1 0x20 ADD SWAP1 DUP2 MSTORE PUSH1 0x20 ADD PUSH0 KECCAK256 PUSH1 0x1 ADD SLOAD TIMESTAMP GT ISZERO JUMPDEST SWAP1 POP SWAP2 SWAP1 POP JUMP JUMPDEST PUSH0 PUSH1 0x20 MSTORE DUP1 PUSH0 MSTORE PUSH1 0x40 PUSH0 KECCAK256 PUSH0 SWAP2 POP SWAP1 POP DUP1 PUSH0 ADD SLOAD SWAP1 DUP1 PUSH1 0x1 ADD SLOAD SWAP1 POP DUP3 JUMP JUMPDEST PUSH1 0x1 PUSH0 SWAP1 SLOAD SWAP1 PUSH2 0x100 EXP SWAP1 DIV PUSH20 0xFFFFFFFFFFFFFFFFFFFFFFFFFFFFFFFFFFFFFFFF AND DUP2 JUMP JUMPDEST PUSH0 DUP1 REVERT JUMPDEST PUSH0 DUP2 SWAP1 POP SWAP2 SWAP1 POP JUMP JUMPDEST PUSH2 0x238 DUP2 PUSH2 0x226 JUMP JUMPDEST DUP2 EQ PUSH2 0x242 JUMPI PUSH0 DUP1 REVERT JUMPDEST POP JUMP JUMPDEST PUSH0 DUP2 CALLDATALOAD SWAP1 POP PUSH2 0x253 DUP2 PUSH2 0x22F JUMP JUMPDEST SWAP3 SWAP2 POP POP JUMP JUMPDEST PUSH0 DUP1 PUSH0 PUSH1 0x60 DUP5 DUP7 SUB SLT ISZERO PUSH2 0x270 JUMPI PUSH2 0x26F PUSH2 0x222 JUMP JUMPDEST JUMPDEST PUSH0 PUSH2 0x27D DUP7 DUP3 DUP8 ADD PUSH2 0x245 JUMP JUMPDEST SWAP4 POP POP PUSH1 0x20 PUSH2 0x28E DUP7 DUP3 DUP8 ADD PUSH2 0x245 JUMP JUMPDEST SWAP3 POP POP PUSH1 0x40 PUSH2 0x29F DUP7 DUP3 DUP8 ADD PUSH2 0x245 JUMP JUMPDEST SWAP2 POP POP SWAP3 POP SWAP3 POP SWAP3 JUMP JUMPDEST PUSH0 PUSH1 0x20 DUP3 DUP5 SUB SLT ISZERO PUSH2 0x2BE JUMPI PUSH2 0x2BD PUSH2 0x222 JUMP JUMPDEST JUMPDEST PUSH0 PUSH2 0x2CB DUP5 DUP3 DUP6 ADD PUSH2 0x245 JUMP JUMPDEST SWAP2 POP POP SWAP3 SWAP2 POP POP JUMP JUMPDEST PUSH0 DUP2 ISZERO ISZERO SWAP1 POP SWAP2 SWAP1 POP JUMP JUMPDEST PUSH2 0x2E8 DUP2 PUSH2 0x2D4 JUMP JUMPDEST DUP3 MSTORE POP POP JUMP JUMPDEST PUSH0 PUSH1 0x20 DUP3 ADD SWAP1 POP PUSH2 0x301 PUSH0 DUP4 ADD DUP5 PUSH2 0x2DF JUMP JUMPDEST SWAP3 SWAP2 POP POP JUMP JUMPDEST PUSH2 0x310 DUP2 PUSH2 0x226 JUMP JUMPDEST DUP3 MSTORE POP POP JUMP JUMPDEST PUSH0 PUSH1 0x40 DUP3 ADD SWAP1 POP PUSH2 0x329 PUSH0 DUP4 ADD DUP6 PUSH2 0x307 JUMP JUMPDEST PUSH2 0x336 PUSH1 0x20 DUP4 ADD DUP5 PUSH2 0x307 JUMP JUMPDEST SWAP4 SWAP3 POP POP POP JUMP JUMPDEST PUSH0 PUSH20 0xFFFFFFFFFFFFFFFFFFFFFFFFFFFFFFFFFFFFFFFF DUP3 AND SWAP1 POP SWAP2 SWAP1 POP JUMP JUMPDEST PUSH0 PUSH2 0x366 DUP3 PUSH2 0x33D JUMP JUMPDEST SWAP1 POP SWAP2 SWAP1 POP JUMP JUMPDEST PUSH2 0x376 DUP2 PUSH2 0x35C JUMP JUMPDEST DUP3 MSTORE POP POP JUMP JUMPDEST PUSH0 PUSH1 0x20 DUP3 ADD SWAP1 POP PUSH2 0x38F PUSH0 DUP4 ADD DUP5 PUSH2 0x36D JUMP JUMPDEST SWAP3 SWAP2 POP POP JUMP JUMPDEST PUSH0 DUP3 DUP3 MSTORE PUSH1 0x20 DUP3 ADD SWAP1 POP SWAP3 SWAP2 POP POP JUMP JUMPDEST PUSH32 0x53746172742074696D65206D757374206265206265666F726520656E64207469 PUSH0 DUP3 ADD MSTORE PUSH32 0x6D652E0000000000000000000000000000000000000000000000000000000000 PUSH1 0x20 DUP3 ADD MSTORE POP JUMP JUMPDEST PUSH0 PUSH2 0x3FF PUSH1 0x23 DUP4 PUSH2 0x395 JUMP JUMPDEST SWAP2 POP PUSH2 0x40A DUP3 PUSH2 0x3A5 JUMP JUMPDEST PUSH1 0x40 DUP3 ADD SWAP1 POP SWAP2 SWAP1 POP JUMP JUMPDEST PUSH0 PUSH1 0x20 DUP3 ADD SWAP1 POP DUP2 DUP2 SUB PUSH0 DUP4 ADD MSTORE PUSH2 0x42C DUP2 PUSH2 0x3F3 JUMP JUMPDEST SWAP1 POP SWAP2 SWAP1 POP JUMP INVALID LOG2 PUSH5 0x6970667358 0x22 SLT KECCAK256 RETURNDATASIZE MSIZE PUSH7 0x211E5633CEDDC4 DUP12 DUP16 GT 0xE 0xEB 0xA5 0xE2 SWAP4 DUP3 DUP12 0xFC SWAP4 0xC3 PUSH4 0x4191F095 0xE5 0x1E 0xAD INVALID PUSH5 0x736F6C6343 STOP ADDMOD NOT STOP CALLER "
				},
				"gasEstimates": {
					"creation": {
						"codeDepositCost": "225800",
						"executionCost": "24532",
						"totalCost": "250332"
					},
					"external": {
						"admin()": "2552",
						"isPollActive(uint256)": "5003",
						"pollDurations(uint256)": "infinite",
						"setPollDuration(uint256,uint256,uint256)": "infinite"
					}
				},
				"methodIdentifiers": {
					"admin()": "f851a440",
					"isPollActive(uint256)": "2ec15480",
					"pollDurations(uint256)": "f705f8fb",
					"setPollDuration(uint256,uint256,uint256)": "03fff8d3"
				}
			},
			"storageLayout": {
				"storage": [
					{
						"astId": 15,
						"contract": "contracts/PollTimeManagement.sol:PollTimeManagement",
						"label": "pollDurations",
						"offset": 0,
						"slot": "0",
						"type": "t_mapping(t_uint256,t_struct(PollDuration)6_storage)"
					},
					{
						"astId": 17,
						"contract": "contracts/PollTimeManagement.sol:PollTimeManagement",
						"label": "admin",
						"offset": 0,
						"slot": "1",
						"type": "t_address"
					}
				],
				"types": {
					"t_address": {
						"encoding": "inplace",
						"label": "address",
						"numberOfBytes": "20"
					},
					"t_mapping(t_uint256,t_struct(PollDuration)6_storage)": {
						"encoding": "mapping",
						"key": "t_uint256",
						"label": "mapping(uint256 => struct PollTimeManagement.PollDuration)",
						"numberOfBytes": "32",
						"value": "t_struct(PollDuration)6_storage"
					},
					"t_struct(PollDuration)6_storage": {
						"encoding": "inplace",
						"label": "struct PollTimeManagement.PollDuration",
						"members": [
							{
								"astId": 3,
								"contract": "contracts/PollTimeManagement.sol:PollTimeManagement",
								"label": "startTime",
								"offset": 0,
								"slot": "0",
								"type": "t_uint256"
							},
							{
								"astId": 5,
								"contract": "contracts/PollTimeManagement.sol:PollTimeManagement",
								"label": "endTime",
								"offset": 0,
								"slot": "1",
								"type": "t_uint256"
							}
						],
						"numberOfBytes": "64"
					},
					"t_uint256": {
						"encoding": "inplace",
						"label": "uint256",
						"numberOfBytes": "32"
					}
				}
			},
			"userdoc": {
				"kind": "user",
				"methods": {},
				"version": 1
			}
		}
	}
}