{
	"data": {
		"bytecode": {
			"linkReferences": {},
			"object": "608060405234801561000f575f80fd5b50604051611235380380611235833981810160405281019061003191906100e5565b805f806101000a81548173ffffffffffffffffffffffffffffffffffffffff021916908373ffffffffffffffffffffffffffffffffffffffff16021790555050610110565b5f80fd5b5f73ffffffffffffffffffffffffffffffffffffffff82169050919050565b5f6100a38261007a565b9050919050565b5f6100b482610099565b9050919050565b6100c4816100aa565b81146100ce575f80fd5b50565b5f815190506100df816100bb565b92915050565b5f602082840312156100fa576100f9610076565b5b5f610107848285016100d1565b91505092915050565b6111188061011d5f395ff3fe608060405260043610610073575f3560e01c8063913b722c1161004d578063913b722c14610134578063d58ed2531461015e578063e1a4474914610186578063fcca991b146101ae576100b3565b80630f01870b146100b7578063409e2205146100e157806369d895751461011e576100b3565b366100b3577f8e47b87b0ef542cdfa1659c551d88bad38aa7f452d2bbb349ab7530dfec8be8f33346040516100a992919061083b565b60405180910390a1005b5f80fd5b3480156100c2575f80fd5b506100cb6101ca565b6040516100d89190610946565b60405180910390f35b3480156100ec575f80fd5b50610107600480360381019061010291906109a1565b610239565b6040516101159291906109cc565b60405180910390f35b348015610129575f80fd5b50610132610268565b005b34801561013f575f80fd5b50610148610415565b6040516101559190610abb565b60405180910390f35b348015610169575f80fd5b50610184600480360381019061017f9190610c55565b6104ab565b005b348015610191575f80fd5b506101ac60048036038101906101a791906109a1565b610637565b005b6101c860048036038101906101c39190610c9c565b6106a3565b005b60606001805480602002602001604051908101604052809291908181526020015f905b82821015610230578382905f5260205f2090600202016040518060400160405290815f8201548152602001600182015481525050815260200190600101906101ed565b50505050905090565b60018181548110610248575f80fd5b905f5260205f2090600202015f91509050805f0154908060010154905082565b5f4790505f805f9054906101000a900473ffffffffffffffffffffffffffffffffffffffff1673ffffffffffffffffffffffffffffffffffffffff16826040516102b190610d07565b5f6040518083038185875af1925050503d805f81146102eb576040519150601f19603f3d011682016040523d82523d5f602084013e6102f0565b606091505b5050905080610334576040517f08c379a000000000000000000000000000000000000000000000000000000000815260040161032b90610d75565b60405180910390fd5b5f8054906101000a900473ffffffffffffffffffffffffffffffffffffffff1673ffffffffffffffffffffffffffffffffffffffff1663f726f715836040518263ffffffff1660e01b815260040161038c9190610d93565b5f604051808303815f87803b1580156103a3575f80fd5b505af11580156103b5573d5f803e3d5ffd5b505050507f221c08a06b07a64803b3787861a3f276212fcccb51c2e6234077a9b8cb13047a5f8054906101000a900473ffffffffffffffffffffffffffffffffffffffff1683604051610409929190610e07565b60405180910390a15050565b60605f8054906101000a900473ffffffffffffffffffffffffffffffffffffffff1673ffffffffffffffffffffffffffffffffffffffff1663913b722c6040518163ffffffff1660e01b81526004015f60405180830381865afa15801561047e573d5f803e3d5ffd5b505050506040513d5f823e3d601f19601f820116820180604052508101906104a69190610f18565b905090565b5f6104b4610415565b90505f5b8151811015610556578181815181106104d4576104d3610f5f565b5b602002602001015173ffffffffffffffffffffffffffffffffffffffff163373ffffffffffffffffffffffffffffffffffffffff1614610549576040517f08c379a000000000000000000000000000000000000000000000000000000000815260040161054090610ffc565b60405180910390fd5b80806001019150506104b8565b505f5b8251811015610632575f83828151811061057657610575610f5f565b5b602002602001015173ffffffffffffffffffffffffffffffffffffffff16476040516105a190610d07565b5f6040518083038185875af1925050503d805f81146105db576040519150601f19603f3d011682016040523d82523d5f602084013e6105e0565b606091505b5050905080610624576040517f08c379a000000000000000000000000000000000000000000000000000000000815260040161061b90610d75565b60405180910390fd5b508080600101915050610559565b505050565b5f5b8181101561069f57600160405180604001604052805f81526020015f815250908060018154018082558091505060019003905f5260205f2090600202015f909190919091505f820151815f01556020820151816001015550508080600101915050610639565b5050565b8160018054905081106106eb576040517f08c379a00000000000000000000000000000000000000000000000000000000081526004016106e290611064565b60405180910390fd5b5f6107176001858154811061070357610702610f5f565b5b905f5260205f2090600202015f01546107b0565b9050806001858154811061072e5761072d610f5f565b5b905f5260205f2090600202015f01819055505f61076e6001868154811061075857610757610f5f565b5b905f5260205f20906002020160010154856107ca565b9050806001868154811061078557610784610f5f565b5b905f5260205f2090600202016001015f8282546107a291906110af565b925050819055505050505050565b5f806001836107bf91906110af565b905080915050919050565b5f8082846107d891906110af565b90508091505092915050565b5f73ffffffffffffffffffffffffffffffffffffffff82169050919050565b5f61080d826107e4565b9050919050565b61081d81610803565b82525050565b5f819050919050565b61083581610823565b82525050565b5f60408201905061084e5f830185610814565b61085b602083018461082c565b9392505050565b5f81519050919050565b5f82825260208201905092915050565b5f819050602082019050919050565b61089481610823565b82525050565b604082015f8201516108ae5f85018261088b565b5060208201516108c1602085018261088b565b50505050565b5f6108d2838361089a565b60408301905092915050565b5f602082019050919050565b5f6108f482610862565b6108fe818561086c565b93506109098361087c565b805f5b8381101561093957815161092088826108c7565b975061092b836108de565b92505060018101905061090c565b5085935050505092915050565b5f6020820190508181035f83015261095e81846108ea565b905092915050565b5f604051905090565b5f80fd5b5f80fd5b61098081610823565b811461098a575f80fd5b50565b5f8135905061099b81610977565b92915050565b5f602082840312156109b6576109b561096f565b5b5f6109c38482850161098d565b91505092915050565b5f6040820190506109df5f83018561082c565b6109ec602083018461082c565b9392505050565b5f81519050919050565b5f82825260208201905092915050565b5f819050602082019050919050565b5f610a26826107e4565b9050919050565b610a3681610a1c565b82525050565b5f610a478383610a2d565b60208301905092915050565b5f602082019050919050565b5f610a69826109f3565b610a7381856109fd565b9350610a7e83610a0d565b805f5b83811015610aae578151610a958882610a3c565b9750610aa083610a53565b925050600181019050610a81565b5085935050505092915050565b5f6020820190508181035f830152610ad38184610a5f565b905092915050565b5f80fd5b5f601f19601f8301169050919050565b7f4e487b71000000000000000000000000000000000000000000000000000000005f52604160045260245ffd5b610b2582610adf565b810181811067ffffffffffffffff82111715610b4457610b43610aef565b5b80604052505050565b5f610b56610966565b9050610b628282610b1c565b919050565b5f67ffffffffffffffff821115610b8157610b80610aef565b5b602082029050602081019050919050565b5f80fd5b610b9f81610803565b8114610ba9575f80fd5b50565b5f81359050610bba81610b96565b92915050565b5f610bd2610bcd84610b67565b610b4d565b90508083825260208201905060208402830185811115610bf557610bf4610b92565b5b835b81811015610c1e5780610c0a8882610bac565b845260208401935050602081019050610bf7565b5050509392505050565b5f82601f830112610c3c57610c3b610adb565b5b8135610c4c848260208601610bc0565b91505092915050565b5f60208284031215610c6a57610c6961096f565b5b5f82013567ffffffffffffffff811115610c8757610c86610973565b5b610c9384828501610c28565b91505092915050565b5f8060408385031215610cb257610cb161096f565b5b5f610cbf8582860161098d565b9250506020610cd08582860161098d565b9150509250929050565b5f81905092915050565b50565b5f610cf25f83610cda565b9150610cfd82610ce4565b5f82019050919050565b5f610d1182610ce7565b9150819050919050565b5f82825260208201905092915050565b7f4661696c656420746f2073656e642045746865720000000000000000000000005f82015250565b5f610d5f601483610d1b565b9150610d6a82610d2b565b602082019050919050565b5f6020820190508181035f830152610d8c81610d53565b9050919050565b5f602082019050610da65f83018461082c565b92915050565b5f819050919050565b5f610dcf610dca610dc5846107e4565b610dac565b6107e4565b9050919050565b5f610de082610db5565b9050919050565b5f610df182610dd6565b9050919050565b610e0181610de7565b82525050565b5f604082019050610e1a5f830185610df8565b610e27602083018461082c565b9392505050565b5f67ffffffffffffffff821115610e4857610e47610aef565b5b602082029050602081019050919050565b610e6281610a1c565b8114610e6c575f80fd5b50565b5f81519050610e7d81610e59565b92915050565b5f610e95610e9084610e2e565b610b4d565b90508083825260208201905060208402830185811115610eb857610eb7610b92565b5b835b81811015610ee15780610ecd8882610e6f565b845260208401935050602081019050610eba565b5050509392505050565b5f82601f830112610eff57610efe610adb565b5b8151610f0f848260208601610e83565b91505092915050565b5f60208284031215610f2d57610f2c61096f565b5b5f82015167ffffffffffffffff811115610f4a57610f49610973565b5b610f5684828501610eeb565b91505092915050565b7f4e487b71000000000000000000000000000000000000000000000000000000005f52603260045260245ffd5b7f596f75206d757374206265206f6e65206f66207468652062656e6566696369615f8201527f7269657321000000000000000000000000000000000000000000000000000000602082015250565b5f610fe6602583610d1b565b9150610ff182610f8c565b604082019050919050565b5f6020820190508181035f83015261101381610fda565b9050919050565b7f496e76616c6964206f7074696f6e20696e6465780000000000000000000000005f82015250565b5f61104e601483610d1b565b91506110598261101a565b602082019050919050565b5f6020820190508181035f83015261107b81611042565b9050919050565b7f4e487b71000000000000000000000000000000000000000000000000000000005f52601160045260245ffd5b5f6110b982610823565b91506110c483610823565b92508282019050808211156110dc576110db611082565b5b9291505056fea2646970667358221220ebf34ef20912fde8b5059cc9fc8f3bc252de8dc32d8c454746e2ee2948f018d264736f6c63430008190033",
			"opcodes": "PUSH1 0x80 PUSH1 0x40 MSTORE CALLVALUE DUP1 ISZERO PUSH2 0xF JUMPI PUSH0 DUP1 REVERT JUMPDEST POP PUSH1 0x40 MLOAD PUSH2 0x1235 CODESIZE SUB DUP1 PUSH2 0x1235 DUP4 CODECOPY DUP2 DUP2 ADD PUSH1 0x40 MSTORE DUP2 ADD SWAP1 PUSH2 0x31 SWAP2 SWAP1 PUSH2 0xE5 JUMP JUMPDEST DUP1 PUSH0 DUP1 PUSH2 0x100 EXP DUP2 SLOAD DUP2 PUSH20 0xFFFFFFFFFFFFFFFFFFFFFFFFFFFFFFFFFFFFFFFF MUL NOT AND SWAP1 DUP4 PUSH20 0xFFFFFFFFFFFFFFFFFFFFFFFFFFFFFFFFFFFFFFFF AND MUL OR SWAP1 SSTORE POP POP PUSH2 0x110 JUMP JUMPDEST PUSH0 DUP1 REVERT JUMPDEST PUSH0 PUSH20 0xFFFFFFFFFFFFFFFFFFFFFFFFFFFFFFFFFFFFFFFF DUP3 AND SWAP1 POP SWAP2 SWAP1 POP JUMP JUMPDEST PUSH0 PUSH2 0xA3 DUP3 PUSH2 0x7A JUMP JUMPDEST SWAP1 POP SWAP2 SWAP1 POP JUMP JUMPDEST PUSH0 PUSH2 0xB4 DUP3 PUSH2 0x99 JUMP JUMPDEST SWAP1 POP SWAP2 SWAP1 POP JUMP JUMPDEST PUSH2 0xC4 DUP2 PUSH2 0xAA JUMP JUMPDEST DUP2 EQ PUSH2 0xCE JUMPI PUSH0 DUP1 REVERT JUMPDEST POP JUMP JUMPDEST PUSH0 DUP2 MLOAD SWAP1 POP PUSH2 0xDF DUP2 PUSH2 0xBB JUMP JUMPDEST SWAP3 SWAP2 POP POP JUMP JUMPDEST PUSH0 PUSH1 0x20 DUP3 DUP5 SUB SLT ISZERO PUSH2 0xFA JUMPI PUSH2 0xF9 PUSH2 0x76 JUMP JUMPDEST JUMPDEST PUSH0 PUSH2 0x107 DUP5 DUP3 DUP6 ADD PUSH2 0xD1 JUMP JUMPDEST SWAP2 POP POP SWAP3 SWAP2 POP POP JUMP JUMPDEST PUSH2 0x1118 DUP1 PUSH2 0x11D PUSH0 CODECOPY PUSH0 RETURN INVALID PUSH1 0x80 PUSH1 0x40 MSTORE PUSH1 0x4 CALLDATASIZE LT PUSH2 0x73 JUMPI PUSH0 CALLDATALOAD PUSH1 0xE0 SHR DUP1 PUSH4 0x913B722C GT PUSH2 0x4D JUMPI DUP1 PUSH4 0x913B722C EQ PUSH2 0x134 JUMPI DUP1 PUSH4 0xD58ED253 EQ PUSH2 0x15E JUMPI DUP1 PUSH4 0xE1A44749 EQ PUSH2 0x186 JUMPI DUP1 PUSH4 0xFCCA991B EQ PUSH2 0x1AE JUMPI PUSH2 0xB3 JUMP JUMPDEST DUP1 PUSH4 0xF01870B EQ PUSH2 0xB7 JUMPI DUP1 PUSH4 0x409E2205 EQ PUSH2 0xE1 JUMPI DUP1 PUSH4 0x69D89575 EQ PUSH2 0x11E JUMPI PUSH2 0xB3 JUMP JUMPDEST CALLDATASIZE PUSH2 0xB3 JUMPI PUSH32 0x8E47B87B0EF542CDFA1659C551D88BAD38AA7F452D2BBB349AB7530DFEC8BE8F CALLER CALLVALUE PUSH1 0x40 MLOAD PUSH2 0xA9 SWAP3 SWAP2 SWAP1 PUSH2 0x83B JUMP JUMPDEST PUSH1 0x40 MLOAD DUP1 SWAP2 SUB SWAP1 LOG1 STOP JUMPDEST PUSH0 DUP1 REVERT JUMPDEST CALLVALUE DUP1 ISZERO PUSH2 0xC2 JUMPI PUSH0 DUP1 REVERT JUMPDEST POP PUSH2 0xCB PUSH2 0x1CA JUMP JUMPDEST PUSH1 0x40 MLOAD PUSH2 0xD8 SWAP2 SWAP1 PUSH2 0x946 JUMP JUMPDEST PUSH1 0x40 MLOAD DUP1 SWAP2 SUB SWAP1 RETURN JUMPDEST CALLVALUE DUP1 ISZERO PUSH2 0xEC JUMPI PUSH0 DUP1 REVERT JUMPDEST POP PUSH2 0x107 PUSH1 0x4 DUP1 CALLDATASIZE SUB DUP2 ADD SWAP1 PUSH2 0x102 SWAP2 SWAP1 PUSH2 0x9A1 JUMP JUMPDEST PUSH2 0x239 JUMP JUMPDEST PUSH1 0x40 MLOAD PUSH2 0x115 SWAP3 SWAP2 SWAP1 PUSH2 0x9CC JUMP JUMPDEST PUSH1 0x40 MLOAD DUP1 SWAP2 SUB SWAP1 RETURN JUMPDEST CALLVALUE DUP1 ISZERO PUSH2 0x129 JUMPI PUSH0 DUP1 REVERT JUMPDEST POP PUSH2 0x132 PUSH2 0x268 JUMP JUMPDEST STOP JUMPDEST CALLVALUE DUP1 ISZERO PUSH2 0x13F JUMPI PUSH0 DUP1 REVERT JUMPDEST POP PUSH2 0x148 PUSH2 0x415 JUMP JUMPDEST PUSH1 0x40 MLOAD PUSH2 0x155 SWAP2 SWAP1 PUSH2 0xABB JUMP JUMPDEST PUSH1 0x40 MLOAD DUP1 SWAP2 SUB SWAP1 RETURN JUMPDEST CALLVALUE DUP1 ISZERO PUSH2 0x169 JUMPI PUSH0 DUP1 REVERT JUMPDEST POP PUSH2 0x184 PUSH1 0x4 DUP1 CALLDATASIZE SUB DUP2 ADD SWAP1 PUSH2 0x17F SWAP2 SWAP1 PUSH2 0xC55 JUMP JUMPDEST PUSH2 0x4AB JUMP JUMPDEST STOP JUMPDEST CALLVALUE DUP1 ISZERO PUSH2 0x191 JUMPI PUSH0 DUP1 REVERT JUMPDEST POP PUSH2 0x1AC PUSH1 0x4 DUP1 CALLDATASIZE SUB DUP2 ADD SWAP1 PUSH2 0x1A7 SWAP2 SWAP1 PUSH2 0x9A1 JUMP JUMPDEST PUSH2 0x637 JUMP JUMPDEST STOP JUMPDEST PUSH2 0x1C8 PUSH1 0x4 DUP1 CALLDATASIZE SUB DUP2 ADD SWAP1 PUSH2 0x1C3 SWAP2 SWAP1 PUSH2 0xC9C JUMP JUMPDEST PUSH2 0x6A3 JUMP JUMPDEST STOP JUMPDEST PUSH1 0x60 PUSH1 0x1 DUP1 SLOAD DUP1 PUSH1 0x20 MUL PUSH1 0x20 ADD PUSH1 0x40 MLOAD SWAP1 DUP2 ADD PUSH1 0x40 MSTORE DUP1 SWAP3 SWAP2 SWAP1 DUP2 DUP2 MSTORE PUSH1 0x20 ADD PUSH0 SWAP1 JUMPDEST DUP3 DUP3 LT ISZERO PUSH2 0x230 JUMPI DUP4 DUP3 SWAP1 PUSH0 MSTORE PUSH1 0x20 PUSH0 KECCAK256 SWAP1 PUSH1 0x2 MUL ADD PUSH1 0x40 MLOAD DUP1 PUSH1 0x40 ADD PUSH1 0x40 MSTORE SWAP1 DUP2 PUSH0 DUP3 ADD SLOAD DUP2 MSTORE PUSH1 0x20 ADD PUSH1 0x1 DUP3 ADD SLOAD DUP2 MSTORE POP POP DUP2 MSTORE PUSH1 0x20 ADD SWAP1 PUSH1 0x1 ADD SWAP1 PUSH2 0x1ED JUMP JUMPDEST POP POP POP POP SWAP1 POP SWAP1 JUMP JUMPDEST PUSH1 0x1 DUP2 DUP2 SLOAD DUP2 LT PUSH2 0x248 JUMPI PUSH0 DUP1 REVERT JUMPDEST SWAP1 PUSH0 MSTORE PUSH1 0x20 PUSH0 KECCAK256 SWAP1 PUSH1 0x2 MUL ADD PUSH0 SWAP2 POP SWAP1 POP DUP1 PUSH0 ADD SLOAD SWAP1 DUP1 PUSH1 0x1 ADD SLOAD SWAP1 POP DUP3 JUMP JUMPDEST PUSH0 SELFBALANCE SWAP1 POP PUSH0 DUP1 PUSH0 SWAP1 SLOAD SWAP1 PUSH2 0x100 EXP SWAP1 DIV PUSH20 0xFFFFFFFFFFFFFFFFFFFFFFFFFFFFFFFFFFFFFFFF AND PUSH20 0xFFFFFFFFFFFFFFFFFFFFFFFFFFFFFFFFFFFFFFFF AND DUP3 PUSH1 0x40 MLOAD PUSH2 0x2B1 SWAP1 PUSH2 0xD07 JUMP JUMPDEST PUSH0 PUSH1 0x40 MLOAD DUP1 DUP4 SUB DUP2 DUP6 DUP8 GAS CALL SWAP3 POP POP POP RETURNDATASIZE DUP1 PUSH0 DUP2 EQ PUSH2 0x2EB JUMPI PUSH1 0x40 MLOAD SWAP2 POP PUSH1 0x1F NOT PUSH1 0x3F RETURNDATASIZE ADD AND DUP3 ADD PUSH1 0x40 MSTORE RETURNDATASIZE DUP3 MSTORE RETURNDATASIZE PUSH0 PUSH1 0x20 DUP5 ADD RETURNDATACOPY PUSH2 0x2F0 JUMP JUMPDEST PUSH1 0x60 SWAP2 POP JUMPDEST POP POP SWAP1 POP DUP1 PUSH2 0x334 JUMPI PUSH1 0x40 MLOAD PUSH32 0x8C379A000000000000000000000000000000000000000000000000000000000 DUP2 MSTORE PUSH1 0x4 ADD PUSH2 0x32B SWAP1 PUSH2 0xD75 JUMP JUMPDEST PUSH1 0x40 MLOAD DUP1 SWAP2 SUB SWAP1 REVERT JUMPDEST PUSH0 DUP1 SLOAD SWAP1 PUSH2 0x100 EXP SWAP1 DIV PUSH20 0xFFFFFFFFFFFFFFFFFFFFFFFFFFFFFFFFFFFFFFFF AND PUSH20 0xFFFFFFFFFFFFFFFFFFFFFFFFFFFFFFFFFFFFFFFF AND PUSH4 0xF726F715 DUP4 PUSH1 0x40 MLOAD DUP3 PUSH4 0xFFFFFFFF AND PUSH1 0xE0 SHL DUP2 MSTORE PUSH1 0x4 ADD PUSH2 0x38C SWAP2 SWAP1 PUSH2 0xD93 JUMP JUMPDEST PUSH0 PUSH1 0x40 MLOAD DUP1 DUP4 SUB DUP2 PUSH0 DUP8 DUP1 EXTCODESIZE ISZERO DUP1 ISZERO PUSH2 0x3A3 JUMPI PUSH0 DUP1 REVERT JUMPDEST POP GAS CALL ISZERO DUP1 ISZERO PUSH2 0x3B5 JUMPI RETURNDATASIZE PUSH0 DUP1 RETURNDATACOPY RETURNDATASIZE PUSH0 REVERT JUMPDEST POP POP POP POP PUSH32 0x221C08A06B07A64803B3787861A3F276212FCCCB51C2E6234077A9B8CB13047A PUSH0 DUP1 SLOAD SWAP1 PUSH2 0x100 EXP SWAP1 DIV PUSH20 0xFFFFFFFFFFFFFFFFFFFFFFFFFFFFFFFFFFFFFFFF AND DUP4 PUSH1 0x40 MLOAD PUSH2 0x409 SWAP3 SWAP2 SWAP1 PUSH2 0xE07 JUMP JUMPDEST PUSH1 0x40 MLOAD DUP1 SWAP2 SUB SWAP1 LOG1 POP POP JUMP JUMPDEST PUSH1 0x60 PUSH0 DUP1 SLOAD SWAP1 PUSH2 0x100 EXP SWAP1 DIV PUSH20 0xFFFFFFFFFFFFFFFFFFFFFFFFFFFFFFFFFFFFFFFF AND PUSH20 0xFFFFFFFFFFFFFFFFFFFFFFFFFFFFFFFFFFFFFFFF AND PUSH4 0x913B722C PUSH1 0x40 MLOAD DUP2 PUSH4 0xFFFFFFFF AND PUSH1 0xE0 SHL DUP2 MSTORE PUSH1 0x4 ADD PUSH0 PUSH1 0x40 MLOAD DUP1 DUP4 SUB DUP2 DUP7 GAS STATICCALL ISZERO DUP1 ISZERO PUSH2 0x47E JUMPI RETURNDATASIZE PUSH0 DUP1 RETURNDATACOPY RETURNDATASIZE PUSH0 REVERT JUMPDEST POP POP POP POP PUSH1 0x40 MLOAD RETURNDATASIZE PUSH0 DUP3 RETURNDATACOPY RETURNDATASIZE PUSH1 0x1F NOT PUSH1 0x1F DUP3 ADD AND DUP3 ADD DUP1 PUSH1 0x40 MSTORE POP DUP2 ADD SWAP1 PUSH2 0x4A6 SWAP2 SWAP1 PUSH2 0xF18 JUMP JUMPDEST SWAP1 POP SWAP1 JUMP JUMPDEST PUSH0 PUSH2 0x4B4 PUSH2 0x415 JUMP JUMPDEST SWAP1 POP PUSH0 JUMPDEST DUP2 MLOAD DUP2 LT ISZERO PUSH2 0x556 JUMPI DUP2 DUP2 DUP2 MLOAD DUP2 LT PUSH2 0x4D4 JUMPI PUSH2 0x4D3 PUSH2 0xF5F JUMP JUMPDEST JUMPDEST PUSH1 0x20 MUL PUSH1 0x20 ADD ADD MLOAD PUSH20 0xFFFFFFFFFFFFFFFFFFFFFFFFFFFFFFFFFFFFFFFF AND CALLER PUSH20 0xFFFFFFFFFFFFFFFFFFFFFFFFFFFFFFFFFFFFFFFF AND EQ PUSH2 0x549 JUMPI PUSH1 0x40 MLOAD PUSH32 0x8C379A000000000000000000000000000000000000000000000000000000000 DUP2 MSTORE PUSH1 0x4 ADD PUSH2 0x540 SWAP1 PUSH2 0xFFC JUMP JUMPDEST PUSH1 0x40 MLOAD DUP1 SWAP2 SUB SWAP1 REVERT JUMPDEST DUP1 DUP1 PUSH1 0x1 ADD SWAP2 POP POP PUSH2 0x4B8 JUMP JUMPDEST POP PUSH0 JUMPDEST DUP3 MLOAD DUP2 LT ISZERO PUSH2 0x632 JUMPI PUSH0 DUP4 DUP3 DUP2 MLOAD DUP2 LT PUSH2 0x576 JUMPI PUSH2 0x575 PUSH2 0xF5F JUMP JUMPDEST JUMPDEST PUSH1 0x20 MUL PUSH1 0x20 ADD ADD MLOAD PUSH20 0xFFFFFFFFFFFFFFFFFFFFFFFFFFFFFFFFFFFFFFFF AND SELFBALANCE PUSH1 0x40 MLOAD PUSH2 0x5A1 SWAP1 PUSH2 0xD07 JUMP JUMPDEST PUSH0 PUSH1 0x40 MLOAD DUP1 DUP4 SUB DUP2 DUP6 DUP8 GAS CALL SWAP3 POP POP POP RETURNDATASIZE DUP1 PUSH0 DUP2 EQ PUSH2 0x5DB JUMPI PUSH1 0x40 MLOAD SWAP2 POP PUSH1 0x1F NOT PUSH1 0x3F RETURNDATASIZE ADD AND DUP3 ADD PUSH1 0x40 MSTORE RETURNDATASIZE DUP3 MSTORE RETURNDATASIZE PUSH0 PUSH1 0x20 DUP5 ADD RETURNDATACOPY PUSH2 0x5E0 JUMP JUMPDEST PUSH1 0x60 SWAP2 POP JUMPDEST POP POP SWAP1 POP DUP1 PUSH2 0x624 JUMPI PUSH1 0x40 MLOAD PUSH32 0x8C379A000000000000000000000000000000000000000000000000000000000 DUP2 MSTORE PUSH1 0x4 ADD PUSH2 0x61B SWAP1 PUSH2 0xD75 JUMP JUMPDEST PUSH1 0x40 MLOAD DUP1 SWAP2 SUB SWAP1 REVERT JUMPDEST POP DUP1 DUP1 PUSH1 0x1 ADD SWAP2 POP POP PUSH2 0x559 JUMP JUMPDEST POP POP POP JUMP JUMPDEST PUSH0 JUMPDEST DUP2 DUP2 LT ISZERO PUSH2 0x69F JUMPI PUSH1 0x1 PUSH1 0x40 MLOAD DUP1 PUSH1 0x40 ADD PUSH1 0x40 MSTORE DUP1 PUSH0 DUP2 MSTORE PUSH1 0x20 ADD PUSH0 DUP2 MSTORE POP SWAP1 DUP1 PUSH1 0x1 DUP2 SLOAD ADD DUP1 DUP3 SSTORE DUP1 SWAP2 POP POP PUSH1 0x1 SWAP1 SUB SWAP1 PUSH0 MSTORE PUSH1 0x20 PUSH0 KECCAK256 SWAP1 PUSH1 0x2 MUL ADD PUSH0 SWAP1 SWAP2 SWAP1 SWAP2 SWAP1 SWAP2 POP PUSH0 DUP3 ADD MLOAD DUP2 PUSH0 ADD SSTORE PUSH1 0x20 DUP3 ADD MLOAD DUP2 PUSH1 0x1 ADD SSTORE POP POP DUP1 DUP1 PUSH1 0x1 ADD SWAP2 POP POP PUSH2 0x639 JUMP JUMPDEST POP POP JUMP JUMPDEST DUP2 PUSH1 0x1 DUP1 SLOAD SWAP1 POP DUP2 LT PUSH2 0x6EB JUMPI PUSH1 0x40 MLOAD PUSH32 0x8C379A000000000000000000000000000000000000000000000000000000000 DUP2 MSTORE PUSH1 0x4 ADD PUSH2 0x6E2 SWAP1 PUSH2 0x1064 JUMP JUMPDEST PUSH1 0x40 MLOAD DUP1 SWAP2 SUB SWAP1 REVERT JUMPDEST PUSH0 PUSH2 0x717 PUSH1 0x1 DUP6 DUP2 SLOAD DUP2 LT PUSH2 0x703 JUMPI PUSH2 0x702 PUSH2 0xF5F JUMP JUMPDEST JUMPDEST SWAP1 PUSH0 MSTORE PUSH1 0x20 PUSH0 KECCAK256 SWAP1 PUSH1 0x2 MUL ADD PUSH0 ADD SLOAD PUSH2 0x7B0 JUMP JUMPDEST SWAP1 POP DUP1 PUSH1 0x1 DUP6 DUP2 SLOAD DUP2 LT PUSH2 0x72E JUMPI PUSH2 0x72D PUSH2 0xF5F JUMP JUMPDEST JUMPDEST SWAP1 PUSH0 MSTORE PUSH1 0x20 PUSH0 KECCAK256 SWAP1 PUSH1 0x2 MUL ADD PUSH0 ADD DUP2 SWAP1 SSTORE POP PUSH0 PUSH2 0x76E PUSH1 0x1 DUP7 DUP2 SLOAD DUP2 LT PUSH2 0x758 JUMPI PUSH2 0x757 PUSH2 0xF5F JUMP JUMPDEST JUMPDEST SWAP1 PUSH0 MSTORE PUSH1 0x20 PUSH0 KECCAK256 SWAP1 PUSH1 0x2 MUL ADD PUSH1 0x1 ADD SLOAD DUP6 PUSH2 0x7CA JUMP JUMPDEST SWAP1 POP DUP1 PUSH1 0x1 DUP7 DUP2 SLOAD DUP2 LT PUSH2 0x785 JUMPI PUSH2 0x784 PUSH2 0xF5F JUMP JUMPDEST JUMPDEST SWAP1 PUSH0 MSTORE PUSH1 0x20 PUSH0 KECCAK256 SWAP1 PUSH1 0x2 MUL ADD PUSH1 0x1 ADD PUSH0 DUP3 DUP3 SLOAD PUSH2 0x7A2 SWAP2 SWAP1 PUSH2 0x10AF JUMP JUMPDEST SWAP3 POP POP DUP2 SWAP1 SSTORE POP POP POP POP POP POP JUMP JUMPDEST PUSH0 DUP1 PUSH1 0x1 DUP4 PUSH2 0x7BF SWAP2 SWAP1 PUSH2 0x10AF JUMP JUMPDEST SWAP1 POP DUP1 SWAP2 POP POP SWAP2 SWAP1 POP JUMP JUMPDEST PUSH0 DUP1 DUP3 DUP5 PUSH2 0x7D8 SWAP2 SWAP1 PUSH2 0x10AF JUMP JUMPDEST SWAP1 POP DUP1 SWAP2 POP POP SWAP3 SWAP2 POP POP JUMP JUMPDEST PUSH0 PUSH20 0xFFFFFFFFFFFFFFFFFFFFFFFFFFFFFFFFFFFFFFFF DUP3 AND SWAP1 POP SWAP2 SWAP1 POP JUMP JUMPDEST PUSH0 PUSH2 0x80D DUP3 PUSH2 0x7E4 JUMP JUMPDEST SWAP1 POP SWAP2 SWAP1 POP JUMP JUMPDEST PUSH2 0x81D DUP2 PUSH2 0x803 JUMP JUMPDEST DUP3 MSTORE POP POP JUMP JUMPDEST PUSH0 DUP2 SWAP1 POP SWAP2 SWAP1 POP JUMP JUMPDEST PUSH2 0x835 DUP2 PUSH2 0x823 JUMP JUMPDEST DUP3 MSTORE POP POP JUMP JUMPDEST PUSH0 PUSH1 0x40 DUP3 ADD SWAP1 POP PUSH2 0x84E PUSH0 DUP4 ADD DUP6 PUSH2 0x814 JUMP JUMPDEST PUSH2 0x85B PUSH1 0x20 DUP4 ADD DUP5 PUSH2 0x82C JUMP JUMPDEST SWAP4 SWAP3 POP POP POP JUMP JUMPDEST PUSH0 DUP2 MLOAD SWAP1 POP SWAP2 SWAP1 POP JUMP JUMPDEST PUSH0 DUP3 DUP3 MSTORE PUSH1 0x20 DUP3 ADD SWAP1 POP SWAP3 SWAP2 POP POP JUMP JUMPDEST PUSH0 DUP2 SWAP1 POP PUSH1 0x20 DUP3 ADD SWAP1 POP SWAP2 SWAP1 POP JUMP JUMPDEST PUSH2 0x894 DUP2 PUSH2 0x823 JUMP JUMPDEST DUP3 MSTORE POP POP JUMP JUMPDEST PUSH1 0x40 DUP3 ADD PUSH0 DUP3 ADD MLOAD PUSH2 0x8AE PUSH0 DUP6 ADD DUP3 PUSH2 0x88B JUMP JUMPDEST POP PUSH1 0x20 DUP3 ADD MLOAD PUSH2 0x8C1 PUSH1 0x20 DUP6 ADD DUP3 PUSH2 0x88B JUMP JUMPDEST POP POP POP POP JUMP JUMPDEST PUSH0 PUSH2 0x8D2 DUP4 DUP4 PUSH2 0x89A JUMP JUMPDEST PUSH1 0x40 DUP4 ADD SWAP1 POP SWAP3 SWAP2 POP POP JUMP JUMPDEST PUSH0 PUSH1 0x20 DUP3 ADD SWAP1 POP SWAP2 SWAP1 POP JUMP JUMPDEST PUSH0 PUSH2 0x8F4 DUP3 PUSH2 0x862 JUMP JUMPDEST PUSH2 0x8FE DUP2 DUP6 PUSH2 0x86C JUMP JUMPDEST SWAP4 POP PUSH2 0x909 DUP4 PUSH2 0x87C JUMP JUMPDEST DUP1 PUSH0 JUMPDEST DUP4 DUP2 LT ISZERO PUSH2 0x939 JUMPI DUP2 MLOAD PUSH2 0x920 DUP9 DUP3 PUSH2 0x8C7 JUMP JUMPDEST SWAP8 POP PUSH2 0x92B DUP4 PUSH2 0x8DE JUMP JUMPDEST SWAP3 POP POP PUSH1 0x1 DUP2 ADD SWAP1 POP PUSH2 0x90C JUMP JUMPDEST POP DUP6 SWAP4 POP POP POP POP SWAP3 SWAP2 POP POP JUMP JUMPDEST PUSH0 PUSH1 0x20 DUP3 ADD SWAP1 POP DUP2 DUP2 SUB PUSH0 DUP4 ADD MSTORE PUSH2 0x95E DUP2 DUP5 PUSH2 0x8EA JUMP JUMPDEST SWAP1 POP SWAP3 SWAP2 POP POP JUMP JUMPDEST PUSH0 PUSH1 0x40 MLOAD SWAP1 POP SWAP1 JUMP JUMPDEST PUSH0 DUP1 REVERT JUMPDEST PUSH0 DUP1 REVERT JUMPDEST PUSH2 0x980 DUP2 PUSH2 0x823 JUMP JUMPDEST DUP2 EQ PUSH2 0x98A JUMPI PUSH0 DUP1 REVERT JUMPDEST POP JUMP JUMPDEST PUSH0 DUP2 CALLDATALOAD SWAP1 POP PUSH2 0x99B DUP2 PUSH2 0x977 JUMP JUMPDEST SWAP3 SWAP2 POP POP JUMP JUMPDEST PUSH0 PUSH1 0x20 DUP3 DUP5 SUB SLT ISZERO PUSH2 0x9B6 JUMPI PUSH2 0x9B5 PUSH2 0x96F JUMP JUMPDEST JUMPDEST PUSH0 PUSH2 0x9C3 DUP5 DUP3 DUP6 ADD PUSH2 0x98D JUMP JUMPDEST SWAP2 POP POP SWAP3 SWAP2 POP POP JUMP JUMPDEST PUSH0 PUSH1 0x40 DUP3 ADD SWAP1 POP PUSH2 0x9DF PUSH0 DUP4 ADD DUP6 PUSH2 0x82C JUMP JUMPDEST PUSH2 0x9EC PUSH1 0x20 DUP4 ADD DUP5 PUSH2 0x82C JUMP JUMPDEST SWAP4 SWAP3 POP POP POP JUMP JUMPDEST PUSH0 DUP2 MLOAD SWAP1 POP SWAP2 SWAP1 POP JUMP JUMPDEST PUSH0 DUP3 DUP3 MSTORE PUSH1 0x20 DUP3 ADD SWAP1 POP SWAP3 SWAP2 POP POP JUMP JUMPDEST PUSH0 DUP2 SWAP1 POP PUSH1 0x20 DUP3 ADD SWAP1 POP SWAP2 SWAP1 POP JUMP JUMPDEST PUSH0 PUSH2 0xA26 DUP3 PUSH2 0x7E4 JUMP JUMPDEST SWAP1 POP SWAP2 SWAP1 POP JUMP JUMPDEST PUSH2 0xA36 DUP2 PUSH2 0xA1C JUMP JUMPDEST DUP3 MSTORE POP POP JUMP JUMPDEST PUSH0 PUSH2 0xA47 DUP4 DUP4 PUSH2 0xA2D JUMP JUMPDEST PUSH1 0x20 DUP4 ADD SWAP1 POP SWAP3 SWAP2 POP POP JUMP JUMPDEST PUSH0 PUSH1 0x20 DUP3 ADD SWAP1 POP SWAP2 SWAP1 POP JUMP JUMPDEST PUSH0 PUSH2 0xA69 DUP3 PUSH2 0x9F3 JUMP JUMPDEST PUSH2 0xA73 DUP2 DUP6 PUSH2 0x9FD JUMP JUMPDEST SWAP4 POP PUSH2 0xA7E DUP4 PUSH2 0xA0D JUMP JUMPDEST DUP1 PUSH0 JUMPDEST DUP4 DUP2 LT ISZERO PUSH2 0xAAE JUMPI DUP2 MLOAD PUSH2 0xA95 DUP9 DUP3 PUSH2 0xA3C JUMP JUMPDEST SWAP8 POP PUSH2 0xAA0 DUP4 PUSH2 0xA53 JUMP JUMPDEST SWAP3 POP POP PUSH1 0x1 DUP2 ADD SWAP1 POP PUSH2 0xA81 JUMP JUMPDEST POP DUP6 SWAP4 POP POP POP POP SWAP3 SWAP2 POP POP JUMP JUMPDEST PUSH0 PUSH1 0x20 DUP3 ADD SWAP1 POP DUP2 DUP2 SUB PUSH0 DUP4 ADD MSTORE PUSH2 0xAD3 DUP2 DUP5 PUSH2 0xA5F JUMP JUMPDEST SWAP1 POP SWAP3 SWAP2 POP POP JUMP JUMPDEST PUSH0 DUP1 REVERT JUMPDEST PUSH0 PUSH1 0x1F NOT PUSH1 0x1F DUP4 ADD AND SWAP1 POP SWAP2 SWAP1 POP JUMP JUMPDEST PUSH32 0x4E487B7100000000000000000000000000000000000000000000000000000000 PUSH0 MSTORE PUSH1 0x41 PUSH1 0x4 MSTORE PUSH1 0x24 PUSH0 REVERT JUMPDEST PUSH2 0xB25 DUP3 PUSH2 0xADF JUMP JUMPDEST DUP2 ADD DUP2 DUP2 LT PUSH8 0xFFFFFFFFFFFFFFFF DUP3 GT OR ISZERO PUSH2 0xB44 JUMPI PUSH2 0xB43 PUSH2 0xAEF JUMP JUMPDEST JUMPDEST DUP1 PUSH1 0x40 MSTORE POP POP POP JUMP JUMPDEST PUSH0 PUSH2 0xB56 PUSH2 0x966 JUMP JUMPDEST SWAP1 POP PUSH2 0xB62 DUP3 DUP3 PUSH2 0xB1C JUMP JUMPDEST SWAP2 SWAP1 POP JUMP JUMPDEST PUSH0 PUSH8 0xFFFFFFFFFFFFFFFF DUP3 GT ISZERO PUSH2 0xB81 JUMPI PUSH2 0xB80 PUSH2 0xAEF JUMP JUMPDEST JUMPDEST PUSH1 0x20 DUP3 MUL SWAP1 POP PUSH1 0x20 DUP2 ADD SWAP1 POP SWAP2 SWAP1 POP JUMP JUMPDEST PUSH0 DUP1 REVERT JUMPDEST PUSH2 0xB9F DUP2 PUSH2 0x803 JUMP JUMPDEST DUP2 EQ PUSH2 0xBA9 JUMPI PUSH0 DUP1 REVERT JUMPDEST POP JUMP JUMPDEST PUSH0 DUP2 CALLDATALOAD SWAP1 POP PUSH2 0xBBA DUP2 PUSH2 0xB96 JUMP JUMPDEST SWAP3 SWAP2 POP POP JUMP JUMPDEST PUSH0 PUSH2 0xBD2 PUSH2 0xBCD DUP5 PUSH2 0xB67 JUMP JUMPDEST PUSH2 0xB4D JUMP JUMPDEST SWAP1 POP DUP1 DUP4 DUP3 MSTORE PUSH1 0x20 DUP3 ADD SWAP1 POP PUSH1 0x20 DUP5 MUL DUP4 ADD DUP6 DUP2 GT ISZERO PUSH2 0xBF5 JUMPI PUSH2 0xBF4 PUSH2 0xB92 JUMP JUMPDEST JUMPDEST DUP4 JUMPDEST DUP2 DUP2 LT ISZERO PUSH2 0xC1E JUMPI DUP1 PUSH2 0xC0A DUP9 DUP3 PUSH2 0xBAC JUMP JUMPDEST DUP5 MSTORE PUSH1 0x20 DUP5 ADD SWAP4 POP POP PUSH1 0x20 DUP2 ADD SWAP1 POP PUSH2 0xBF7 JUMP JUMPDEST POP POP POP SWAP4 SWAP3 POP POP POP JUMP JUMPDEST PUSH0 DUP3 PUSH1 0x1F DUP4 ADD SLT PUSH2 0xC3C JUMPI PUSH2 0xC3B PUSH2 0xADB JUMP JUMPDEST JUMPDEST DUP2 CALLDATALOAD PUSH2 0xC4C DUP5 DUP3 PUSH1 0x20 DUP7 ADD PUSH2 0xBC0 JUMP JUMPDEST SWAP2 POP POP SWAP3 SWAP2 POP POP JUMP JUMPDEST PUSH0 PUSH1 0x20 DUP3 DUP5 SUB SLT ISZERO PUSH2 0xC6A JUMPI PUSH2 0xC69 PUSH2 0x96F JUMP JUMPDEST JUMPDEST PUSH0 DUP3 ADD CALLDATALOAD PUSH8 0xFFFFFFFFFFFFFFFF DUP2 GT ISZERO PUSH2 0xC87 JUMPI PUSH2 0xC86 PUSH2 0x973 JUMP JUMPDEST JUMPDEST PUSH2 0xC93 DUP5 DUP3 DUP6 ADD PUSH2 0xC28 JUMP JUMPDEST SWAP2 POP POP SWAP3 SWAP2 POP POP JUMP JUMPDEST PUSH0 DUP1 PUSH1 0x40 DUP4 DUP6 SUB SLT ISZERO PUSH2 0xCB2 JUMPI PUSH2 0xCB1 PUSH2 0x96F JUMP JUMPDEST JUMPDEST PUSH0 PUSH2 0xCBF DUP6 DUP3 DUP7 ADD PUSH2 0x98D JUMP JUMPDEST SWAP3 POP POP PUSH1 0x20 PUSH2 0xCD0 DUP6 DUP3 DUP7 ADD PUSH2 0x98D JUMP JUMPDEST SWAP2 POP POP SWAP3 POP SWAP3 SWAP1 POP JUMP JUMPDEST PUSH0 DUP2 SWAP1 POP SWAP3 SWAP2 POP POP JUMP JUMPDEST POP JUMP JUMPDEST PUSH0 PUSH2 0xCF2 PUSH0 DUP4 PUSH2 0xCDA JUMP JUMPDEST SWAP2 POP PUSH2 0xCFD DUP3 PUSH2 0xCE4 JUMP JUMPDEST PUSH0 DUP3 ADD SWAP1 POP SWAP2 SWAP1 POP JUMP JUMPDEST PUSH0 PUSH2 0xD11 DUP3 PUSH2 0xCE7 JUMP JUMPDEST SWAP2 POP DUP2 SWAP1 POP SWAP2 SWAP1 POP JUMP JUMPDEST PUSH0 DUP3 DUP3 MSTORE PUSH1 0x20 DUP3 ADD SWAP1 POP SWAP3 SWAP2 POP POP JUMP JUMPDEST PUSH32 0x4661696C656420746F2073656E64204574686572000000000000000000000000 PUSH0 DUP3 ADD MSTORE POP JUMP JUMPDEST PUSH0 PUSH2 0xD5F PUSH1 0x14 DUP4 PUSH2 0xD1B JUMP JUMPDEST SWAP2 POP PUSH2 0xD6A DUP3 PUSH2 0xD2B JUMP JUMPDEST PUSH1 0x20 DUP3 ADD SWAP1 POP SWAP2 SWAP1 POP JUMP JUMPDEST PUSH0 PUSH1 0x20 DUP3 ADD SWAP1 POP DUP2 DUP2 SUB PUSH0 DUP4 ADD MSTORE PUSH2 0xD8C DUP2 PUSH2 0xD53 JUMP JUMPDEST SWAP1 POP SWAP2 SWAP1 POP JUMP JUMPDEST PUSH0 PUSH1 0x20 DUP3 ADD SWAP1 POP PUSH2 0xDA6 PUSH0 DUP4 ADD DUP5 PUSH2 0x82C JUMP JUMPDEST SWAP3 SWAP2 POP POP JUMP JUMPDEST PUSH0 DUP2 SWAP1 POP SWAP2 SWAP1 POP JUMP JUMPDEST PUSH0 PUSH2 0xDCF PUSH2 0xDCA PUSH2 0xDC5 DUP5 PUSH2 0x7E4 JUMP JUMPDEST PUSH2 0xDAC JUMP JUMPDEST PUSH2 0x7E4 JUMP JUMPDEST SWAP1 POP SWAP2 SWAP1 POP JUMP JUMPDEST PUSH0 PUSH2 0xDE0 DUP3 PUSH2 0xDB5 JUMP JUMPDEST SWAP1 POP SWAP2 SWAP1 POP JUMP JUMPDEST PUSH0 PUSH2 0xDF1 DUP3 PUSH2 0xDD6 JUMP JUMPDEST SWAP1 POP SWAP2 SWAP1 POP JUMP JUMPDEST PUSH2 0xE01 DUP2 PUSH2 0xDE7 JUMP JUMPDEST DUP3 MSTORE POP POP JUMP JUMPDEST PUSH0 PUSH1 0x40 DUP3 ADD SWAP1 POP PUSH2 0xE1A PUSH0 DUP4 ADD DUP6 PUSH2 0xDF8 JUMP JUMPDEST PUSH2 0xE27 PUSH1 0x20 DUP4 ADD DUP5 PUSH2 0x82C JUMP JUMPDEST SWAP4 SWAP3 POP POP POP JUMP JUMPDEST PUSH0 PUSH8 0xFFFFFFFFFFFFFFFF DUP3 GT ISZERO PUSH2 0xE48 JUMPI PUSH2 0xE47 PUSH2 0xAEF JUMP JUMPDEST JUMPDEST PUSH1 0x20 DUP3 MUL SWAP1 POP PUSH1 0x20 DUP2 ADD SWAP1 POP SWAP2 SWAP1 POP JUMP JUMPDEST PUSH2 0xE62 DUP2 PUSH2 0xA1C JUMP JUMPDEST DUP2 EQ PUSH2 0xE6C JUMPI PUSH0 DUP1 REVERT JUMPDEST POP JUMP JUMPDEST PUSH0 DUP2 MLOAD SWAP1 POP PUSH2 0xE7D DUP2 PUSH2 0xE59 JUMP JUMPDEST SWAP3 SWAP2 POP POP JUMP JUMPDEST PUSH0 PUSH2 0xE95 PUSH2 0xE90 DUP5 PUSH2 0xE2E JUMP JUMPDEST PUSH2 0xB4D JUMP JUMPDEST SWAP1 POP DUP1 DUP4 DUP3 MSTORE PUSH1 0x20 DUP3 ADD SWAP1 POP PUSH1 0x20 DUP5 MUL DUP4 ADD DUP6 DUP2 GT ISZERO PUSH2 0xEB8 JUMPI PUSH2 0xEB7 PUSH2 0xB92 JUMP JUMPDEST JUMPDEST DUP4 JUMPDEST DUP2 DUP2 LT ISZERO PUSH2 0xEE1 JUMPI DUP1 PUSH2 0xECD DUP9 DUP3 PUSH2 0xE6F JUMP JUMPDEST DUP5 MSTORE PUSH1 0x20 DUP5 ADD SWAP4 POP POP PUSH1 0x20 DUP2 ADD SWAP1 POP PUSH2 0xEBA JUMP JUMPDEST POP POP POP SWAP4 SWAP3 POP POP POP JUMP JUMPDEST PUSH0 DUP3 PUSH1 0x1F DUP4 ADD SLT PUSH2 0xEFF JUMPI PUSH2 0xEFE PUSH2 0xADB JUMP JUMPDEST JUMPDEST DUP2 MLOAD PUSH2 0xF0F DUP5 DUP3 PUSH1 0x20 DUP7 ADD PUSH2 0xE83 JUMP JUMPDEST SWAP2 POP POP SWAP3 SWAP2 POP POP JUMP JUMPDEST PUSH0 PUSH1 0x20 DUP3 DUP5 SUB SLT ISZERO PUSH2 0xF2D JUMPI PUSH2 0xF2C PUSH2 0x96F JUMP JUMPDEST JUMPDEST PUSH0 DUP3 ADD MLOAD PUSH8 0xFFFFFFFFFFFFFFFF DUP2 GT ISZERO PUSH2 0xF4A JUMPI PUSH2 0xF49 PUSH2 0x973 JUMP JUMPDEST JUMPDEST PUSH2 0xF56 DUP5 DUP3 DUP6 ADD PUSH2 0xEEB JUMP JUMPDEST SWAP2 POP POP SWAP3 SWAP2 POP POP JUMP JUMPDEST PUSH32 0x4E487B7100000000000000000000000000000000000000000000000000000000 PUSH0 MSTORE PUSH1 0x32 PUSH1 0x4 MSTORE PUSH1 0x24 PUSH0 REVERT JUMPDEST PUSH32 0x596F75206D757374206265206F6E65206F66207468652062656E656669636961 PUSH0 DUP3 ADD MSTORE PUSH32 0x7269657321000000000000000000000000000000000000000000000000000000 PUSH1 0x20 DUP3 ADD MSTORE POP JUMP JUMPDEST PUSH0 PUSH2 0xFE6 PUSH1 0x25 DUP4 PUSH2 0xD1B JUMP JUMPDEST SWAP2 POP PUSH2 0xFF1 DUP3 PUSH2 0xF8C JUMP JUMPDEST PUSH1 0x40 DUP3 ADD SWAP1 POP SWAP2 SWAP1 POP JUMP JUMPDEST PUSH0 PUSH1 0x20 DUP3 ADD SWAP1 POP DUP2 DUP2 SUB PUSH0 DUP4 ADD MSTORE PUSH2 0x1013 DUP2 PUSH2 0xFDA JUMP JUMPDEST SWAP1 POP SWAP2 SWAP1 POP JUMP JUMPDEST PUSH32 0x496E76616C6964206F7074696F6E20696E646578000000000000000000000000 PUSH0 DUP3 ADD MSTORE POP JUMP JUMPDEST PUSH0 PUSH2 0x104E PUSH1 0x14 DUP4 PUSH2 0xD1B JUMP JUMPDEST SWAP2 POP PUSH2 0x1059 DUP3 PUSH2 0x101A JUMP JUMPDEST PUSH1 0x20 DUP3 ADD SWAP1 POP SWAP2 SWAP1 POP JUMP JUMPDEST PUSH0 PUSH1 0x20 DUP3 ADD SWAP1 POP DUP2 DUP2 SUB PUSH0 DUP4 ADD MSTORE PUSH2 0x107B DUP2 PUSH2 0x1042 JUMP JUMPDEST SWAP1 POP SWAP2 SWAP1 POP JUMP JUMPDEST PUSH32 0x4E487B7100000000000000000000000000000000000000000000000000000000 PUSH0 MSTORE PUSH1 0x11 PUSH1 0x4 MSTORE PUSH1 0x24 PUSH0 REVERT JUMPDEST PUSH0 PUSH2 0x10B9 DUP3 PUSH2 0x823 JUMP JUMPDEST SWAP2 POP PUSH2 0x10C4 DUP4 PUSH2 0x823 JUMP JUMPDEST SWAP3 POP DUP3 DUP3 ADD SWAP1 POP DUP1 DUP3 GT ISZERO PUSH2 0x10DC JUMPI PUSH2 0x10DB PUSH2 0x1082 JUMP JUMPDEST JUMPDEST SWAP3 SWAP2 POP POP JUMP INVALID LOG2 PUSH5 0x6970667358 0x22 SLT KECCAK256 0xEB RETURN 0x4E CALLCODE MULMOD SLT REVERT 0xE8 0xB5 SDIV SWAP13 0xC9 0xFC DUP16 EXTCODESIZE 0xC2 MSTORE 0xDE DUP14 0xC3 0x2D DUP13 GASLIMIT SELFBALANCE CHAINID 0xE2 0xEE 0x29 BASEFEE CREATE XOR 0xD2 PUSH5 0x736F6C6343 STOP ADDMOD NOT STOP CALLER "
		},
		"gasEstimates": {
			"creation": {
				"codeDepositCost": "875200",
				"executionCost": "infinite",
				"totalCost": "infinite"
			},
			"external": {
				"addVote(uint256,uint256)": "infinite",
				"getBeneficiaries()": "infinite",
				"options(uint256)": "infinite",
				"releaseFunds()": "infinite",
				"returnAllFunds(address[])": "infinite",
				"setOptions(uint256)": "infinite",
				"voteCounts()": "infinite"
			},
			"internal": {
				"addAmount(uint256,uint256)": "infinite",
				"incrementVote(uint256)": "infinite"
			}
		},
		"methodIdentifiers": {
			"addVote(uint256,uint256)": "fcca991b",
			"getBeneficiaries()": "913b722c",
			"options(uint256)": "409e2205",
			"releaseFunds()": "69d89575",
			"returnAllFunds(address[])": "d58ed253",
			"setOptions(uint256)": "e1a44749",
			"voteCounts()": "0f01870b"
		}
	},
	"abi": [
		{
			"inputs": [
				{
					"internalType": "contract MultiBeneficiary",
					"name": "_beneficiary",
					"type": "address"
				}
			],
			"stateMutability": "nonpayable",
			"type": "constructor"
		},
		{
			"anonymous": false,
			"inputs": [
				{
					"indexed": false,
					"internalType": "address",
					"name": "sender",
					"type": "address"
				},
				{
					"indexed": false,
					"internalType": "uint256",
					"name": "amount",
					"type": "uint256"
				}
			],
			"name": "FundsReceived",
			"type": "event"
		},
		{
			"anonymous": false,
			"inputs": [
				{
					"indexed": false,
					"internalType": "contract MultiBeneficiary",
					"name": "beneficiaries",
					"type": "address"
				},
				{
					"indexed": false,
					"internalType": "uint256",
					"name": "amount",
					"type": "uint256"
				}
			],
			"name": "FundsReleased",
			"type": "event"
		},
		{
			"inputs": [
				{
					"internalType": "uint256",
					"name": "option",
					"type": "uint256"
				},
				{
					"internalType": "uint256",
					"name": "amount",
					"type": "uint256"
				}
			],
			"name": "addVote",
			"outputs": [],
			"stateMutability": "payable",
			"type": "function"
		},
		{
			"inputs": [],
			"name": "getBeneficiaries",
			"outputs": [
				{
					"internalType": "address payable[]",
					"name": "",
					"type": "address[]"
				}
			],
			"stateMutability": "view",
			"type": "function"
		},
		{
			"inputs": [
				{
					"internalType": "uint256",
					"name": "",
					"type": "uint256"
				}
			],
			"name": "options",
			"outputs": [
				{
					"internalType": "uint256",
					"name": "voteCount",
					"type": "uint256"
				},
				{
					"internalType": "uint256",
					"name": "totalContributions",
					"type": "uint256"
				}
			],
			"stateMutability": "view",
			"type": "function"
		},
		{
			"inputs": [],
			"name": "releaseFunds",
			"outputs": [],
			"stateMutability": "nonpayable",
			"type": "function"
		},
		{
			"inputs": [
				{
					"internalType": "address[]",
					"name": "voters",
					"type": "address[]"
				}
			],
			"name": "returnAllFunds",
			"outputs": [],
			"stateMutability": "nonpayable",
			"type": "function"
		},
		{
			"inputs": [
				{
					"internalType": "uint256",
					"name": "_totalVotes",
					"type": "uint256"
				}
			],
			"name": "setOptions",
			"outputs": [],
			"stateMutability": "nonpayable",
			"type": "function"
		},
		{
			"inputs": [],
			"name": "voteCounts",
			"outputs": [
				{
					"components": [
						{
							"internalType": "uint256",
							"name": "voteCount",
							"type": "uint256"
						},
						{
							"internalType": "uint256",
							"name": "totalContributions",
							"type": "uint256"
						}
					],
					"internalType": "struct Escrow.Option[]",
					"name": "",
					"type": "tuple[]"
				}
			],
			"stateMutability": "view",
			"type": "function"
		},
		{
			"stateMutability": "payable",
			"type": "receive"
		}
	]
}