{
	"data": {
		"bytecode": {
			"linkReferences": {},
			"object": "6080604052348015600e575f80fd5b50610a438061001c5f395ff3fe60806040526004361061006f575f3560e01c8063120fe89b1161004d578063120fe89b146101015780631a8cbcaa1461012b578063b384abef14610167578063cc224d44146101835761006f565b8063012f52ee146100735780631165614a146100af57806311a52746146100d7575b5f80fd5b34801561007e575f80fd5b50610099600480360381019061009491906104e0565b6101ab565b6040516100a69190610585565b60405180910390f35b3480156100ba575f80fd5b506100d560048036038101906100d091906105ea565b6101e5565b005b3480156100e2575f80fd5b506100eb610248565b6040516100f89190610624565b60405180910390f35b34801561010c575f80fd5b50610115610254565b6040516101229190610716565b60405180910390f35b348015610136575f80fd5b50610151600480360381019061014c91906104e0565b6102df565b60405161015e91906107a6565b60405180910390f35b610181600480360381019061017c91906107c6565b610393565b005b34801561018e575f80fd5b506101a960048036038101906101a49190610850565b61043a565b005b5f81815481106101b9575f80fd5b905f5260205f20015f915054906101000a900473ffffffffffffffffffffffffffffffffffffffff1681565b600181908060018154018082558091505060019003905f5260205f20015f9091909190916101000a81548173ffffffffffffffffffffffffffffffffffffffff021916908373ffffffffffffffffffffffffffffffffffffffff16021790555050565b5f600180549050905090565b606060018054806020026020016040519081016040528092919081815260200182805480156102d557602002820191905f5260205f20905b815f9054906101000a900473ffffffffffffffffffffffffffffffffffffffff1673ffffffffffffffffffffffffffffffffffffffff168152602001906001019080831161028c575b5050505050905090565b6060600182815481106102f5576102f461087b565b5b905f5260205f20015f9054906101000a900473ffffffffffffffffffffffffffffffffffffffff1673ffffffffffffffffffffffffffffffffffffffff166303c322786040518163ffffffff1660e01b81526004015f60405180830381865afa158015610364573d5f803e3d5ffd5b505050506040513d5f823e3d601f19601f8201168201806040525081019061038c91906109c6565b9050919050565b600182815481106103a7576103a661087b565b5b905f5260205f20015f9054906101000a900473ffffffffffffffffffffffffffffffffffffffff1673ffffffffffffffffffffffffffffffffffffffff16630121b93f34836040518363ffffffff1660e01b81526004016104089190610624565b5f604051808303818588803b15801561041f575f80fd5b505af1158015610431573d5f803e3d5ffd5b50505050505050565b5f81908060018154018082558091505060019003905f5260205f20015f9091909190916101000a81548173ffffffffffffffffffffffffffffffffffffffff021916908373ffffffffffffffffffffffffffffffffffffffff16021790555050565b5f604051905090565b5f80fd5b5f80fd5b5f819050919050565b6104bf816104ad565b81146104c9575f80fd5b50565b5f813590506104da816104b6565b92915050565b5f602082840312156104f5576104f46104a5565b5b5f610502848285016104cc565b91505092915050565b5f73ffffffffffffffffffffffffffffffffffffffff82169050919050565b5f819050919050565b5f61054d6105486105438461050b565b61052a565b61050b565b9050919050565b5f61055e82610533565b9050919050565b5f61056f82610554565b9050919050565b61057f81610565565b82525050565b5f6020820190506105985f830184610576565b92915050565b5f6105a88261050b565b9050919050565b5f6105b98261059e565b9050919050565b6105c9816105af565b81146105d3575f80fd5b50565b5f813590506105e4816105c0565b92915050565b5f602082840312156105ff576105fe6104a5565b5b5f61060c848285016105d6565b91505092915050565b61061e816104ad565b82525050565b5f6020820190506106375f830184610615565b92915050565b5f81519050919050565b5f82825260208201905092915050565b5f819050602082019050919050565b5f61067082610533565b9050919050565b5f61068182610666565b9050919050565b61069181610677565b82525050565b5f6106a28383610688565b60208301905092915050565b5f602082019050919050565b5f6106c48261063d565b6106ce8185610647565b93506106d983610657565b805f5b838110156107095781516106f08882610697565b97506106fb836106ae565b9250506001810190506106dc565b5085935050505092915050565b5f6020820190508181035f83015261072e81846106ba565b905092915050565b5f81519050919050565b5f82825260208201905092915050565b8281835e5f83830152505050565b5f601f19601f8301169050919050565b5f61077882610736565b6107828185610740565b9350610792818560208601610750565b61079b8161075e565b840191505092915050565b5f6020820190508181035f8301526107be818461076e565b905092915050565b5f80604083850312156107dc576107db6104a5565b5b5f6107e9858286016104cc565b92505060206107fa858286016104cc565b9150509250929050565b5f61080e8261050b565b9050919050565b5f61081f82610804565b9050919050565b61082f81610815565b8114610839575f80fd5b50565b5f8135905061084a81610826565b92915050565b5f60208284031215610865576108646104a5565b5b5f6108728482850161083c565b91505092915050565b7f4e487b71000000000000000000000000000000000000000000000000000000005f52603260045260245ffd5b5f80fd5b5f80fd5b7f4e487b71000000000000000000000000000000000000000000000000000000005f52604160045260245ffd5b6108e68261075e565b810181811067ffffffffffffffff82111715610905576109046108b0565b5b80604052505050565b5f61091761049c565b905061092382826108dd565b919050565b5f67ffffffffffffffff821115610942576109416108b0565b5b61094b8261075e565b9050602081019050919050565b5f61096a61096584610928565b61090e565b905082815260208101848484011115610986576109856108ac565b5b610991848285610750565b509392505050565b5f82601f8301126109ad576109ac6108a8565b5b81516109bd848260208601610958565b91505092915050565b5f602082840312156109db576109da6104a5565b5b5f82015167ffffffffffffffff8111156109f8576109f76104a9565b5b610a0484828501610999565b9150509291505056fea264697066735822122073f8f89fa6d026848f5d4348ab05396b06a81d90a47603828ea874466007b94e64736f6c63430008190033",
			"opcodes": "PUSH1 0x80 PUSH1 0x40 MSTORE CALLVALUE DUP1 ISZERO PUSH1 0xE JUMPI PUSH0 DUP1 REVERT JUMPDEST POP PUSH2 0xA43 DUP1 PUSH2 0x1C PUSH0 CODECOPY PUSH0 RETURN INVALID PUSH1 0x80 PUSH1 0x40 MSTORE PUSH1 0x4 CALLDATASIZE LT PUSH2 0x6F JUMPI PUSH0 CALLDATALOAD PUSH1 0xE0 SHR DUP1 PUSH4 0x120FE89B GT PUSH2 0x4D JUMPI DUP1 PUSH4 0x120FE89B EQ PUSH2 0x101 JUMPI DUP1 PUSH4 0x1A8CBCAA EQ PUSH2 0x12B JUMPI DUP1 PUSH4 0xB384ABEF EQ PUSH2 0x167 JUMPI DUP1 PUSH4 0xCC224D44 EQ PUSH2 0x183 JUMPI PUSH2 0x6F JUMP JUMPDEST DUP1 PUSH4 0x12F52EE EQ PUSH2 0x73 JUMPI DUP1 PUSH4 0x1165614A EQ PUSH2 0xAF JUMPI DUP1 PUSH4 0x11A52746 EQ PUSH2 0xD7 JUMPI JUMPDEST PUSH0 DUP1 REVERT JUMPDEST CALLVALUE DUP1 ISZERO PUSH2 0x7E JUMPI PUSH0 DUP1 REVERT JUMPDEST POP PUSH2 0x99 PUSH1 0x4 DUP1 CALLDATASIZE SUB DUP2 ADD SWAP1 PUSH2 0x94 SWAP2 SWAP1 PUSH2 0x4E0 JUMP JUMPDEST PUSH2 0x1AB JUMP JUMPDEST PUSH1 0x40 MLOAD PUSH2 0xA6 SWAP2 SWAP1 PUSH2 0x585 JUMP JUMPDEST PUSH1 0x40 MLOAD DUP1 SWAP2 SUB SWAP1 RETURN JUMPDEST CALLVALUE DUP1 ISZERO PUSH2 0xBA JUMPI PUSH0 DUP1 REVERT JUMPDEST POP PUSH2 0xD5 PUSH1 0x4 DUP1 CALLDATASIZE SUB DUP2 ADD SWAP1 PUSH2 0xD0 SWAP2 SWAP1 PUSH2 0x5EA JUMP JUMPDEST PUSH2 0x1E5 JUMP JUMPDEST STOP JUMPDEST CALLVALUE DUP1 ISZERO PUSH2 0xE2 JUMPI PUSH0 DUP1 REVERT JUMPDEST POP PUSH2 0xEB PUSH2 0x248 JUMP JUMPDEST PUSH1 0x40 MLOAD PUSH2 0xF8 SWAP2 SWAP1 PUSH2 0x624 JUMP JUMPDEST PUSH1 0x40 MLOAD DUP1 SWAP2 SUB SWAP1 RETURN JUMPDEST CALLVALUE DUP1 ISZERO PUSH2 0x10C JUMPI PUSH0 DUP1 REVERT JUMPDEST POP PUSH2 0x115 PUSH2 0x254 JUMP JUMPDEST PUSH1 0x40 MLOAD PUSH2 0x122 SWAP2 SWAP1 PUSH2 0x716 JUMP JUMPDEST PUSH1 0x40 MLOAD DUP1 SWAP2 SUB SWAP1 RETURN JUMPDEST CALLVALUE DUP1 ISZERO PUSH2 0x136 JUMPI PUSH0 DUP1 REVERT JUMPDEST POP PUSH2 0x151 PUSH1 0x4 DUP1 CALLDATASIZE SUB DUP2 ADD SWAP1 PUSH2 0x14C SWAP2 SWAP1 PUSH2 0x4E0 JUMP JUMPDEST PUSH2 0x2DF JUMP JUMPDEST PUSH1 0x40 MLOAD PUSH2 0x15E SWAP2 SWAP1 PUSH2 0x7A6 JUMP JUMPDEST PUSH1 0x40 MLOAD DUP1 SWAP2 SUB SWAP1 RETURN JUMPDEST PUSH2 0x181 PUSH1 0x4 DUP1 CALLDATASIZE SUB DUP2 ADD SWAP1 PUSH2 0x17C SWAP2 SWAP1 PUSH2 0x7C6 JUMP JUMPDEST PUSH2 0x393 JUMP JUMPDEST STOP JUMPDEST CALLVALUE DUP1 ISZERO PUSH2 0x18E JUMPI PUSH0 DUP1 REVERT JUMPDEST POP PUSH2 0x1A9 PUSH1 0x4 DUP1 CALLDATASIZE SUB DUP2 ADD SWAP1 PUSH2 0x1A4 SWAP2 SWAP1 PUSH2 0x850 JUMP JUMPDEST PUSH2 0x43A JUMP JUMPDEST STOP JUMPDEST PUSH0 DUP2 DUP2 SLOAD DUP2 LT PUSH2 0x1B9 JUMPI PUSH0 DUP1 REVERT JUMPDEST SWAP1 PUSH0 MSTORE PUSH1 0x20 PUSH0 KECCAK256 ADD PUSH0 SWAP2 POP SLOAD SWAP1 PUSH2 0x100 EXP SWAP1 DIV PUSH20 0xFFFFFFFFFFFFFFFFFFFFFFFFFFFFFFFFFFFFFFFF AND DUP2 JUMP JUMPDEST PUSH1 0x1 DUP2 SWAP1 DUP1 PUSH1 0x1 DUP2 SLOAD ADD DUP1 DUP3 SSTORE DUP1 SWAP2 POP POP PUSH1 0x1 SWAP1 SUB SWAP1 PUSH0 MSTORE PUSH1 0x20 PUSH0 KECCAK256 ADD PUSH0 SWAP1 SWAP2 SWAP1 SWAP2 SWAP1 SWAP2 PUSH2 0x100 EXP DUP2 SLOAD DUP2 PUSH20 0xFFFFFFFFFFFFFFFFFFFFFFFFFFFFFFFFFFFFFFFF MUL NOT AND SWAP1 DUP4 PUSH20 0xFFFFFFFFFFFFFFFFFFFFFFFFFFFFFFFFFFFFFFFF AND MUL OR SWAP1 SSTORE POP POP JUMP JUMPDEST PUSH0 PUSH1 0x1 DUP1 SLOAD SWAP1 POP SWAP1 POP SWAP1 JUMP JUMPDEST PUSH1 0x60 PUSH1 0x1 DUP1 SLOAD DUP1 PUSH1 0x20 MUL PUSH1 0x20 ADD PUSH1 0x40 MLOAD SWAP1 DUP2 ADD PUSH1 0x40 MSTORE DUP1 SWAP3 SWAP2 SWAP1 DUP2 DUP2 MSTORE PUSH1 0x20 ADD DUP3 DUP1 SLOAD DUP1 ISZERO PUSH2 0x2D5 JUMPI PUSH1 0x20 MUL DUP3 ADD SWAP2 SWAP1 PUSH0 MSTORE PUSH1 0x20 PUSH0 KECCAK256 SWAP1 JUMPDEST DUP2 PUSH0 SWAP1 SLOAD SWAP1 PUSH2 0x100 EXP SWAP1 DIV PUSH20 0xFFFFFFFFFFFFFFFFFFFFFFFFFFFFFFFFFFFFFFFF AND PUSH20 0xFFFFFFFFFFFFFFFFFFFFFFFFFFFFFFFFFFFFFFFF AND DUP2 MSTORE PUSH1 0x20 ADD SWAP1 PUSH1 0x1 ADD SWAP1 DUP1 DUP4 GT PUSH2 0x28C JUMPI JUMPDEST POP POP POP POP POP SWAP1 POP SWAP1 JUMP JUMPDEST PUSH1 0x60 PUSH1 0x1 DUP3 DUP2 SLOAD DUP2 LT PUSH2 0x2F5 JUMPI PUSH2 0x2F4 PUSH2 0x87B JUMP JUMPDEST JUMPDEST SWAP1 PUSH0 MSTORE PUSH1 0x20 PUSH0 KECCAK256 ADD PUSH0 SWAP1 SLOAD SWAP1 PUSH2 0x100 EXP SWAP1 DIV PUSH20 0xFFFFFFFFFFFFFFFFFFFFFFFFFFFFFFFFFFFFFFFF AND PUSH20 0xFFFFFFFFFFFFFFFFFFFFFFFFFFFFFFFFFFFFFFFF AND PUSH4 0x3C32278 PUSH1 0x40 MLOAD DUP2 PUSH4 0xFFFFFFFF AND PUSH1 0xE0 SHL DUP2 MSTORE PUSH1 0x4 ADD PUSH0 PUSH1 0x40 MLOAD DUP1 DUP4 SUB DUP2 DUP7 GAS STATICCALL ISZERO DUP1 ISZERO PUSH2 0x364 JUMPI RETURNDATASIZE PUSH0 DUP1 RETURNDATACOPY RETURNDATASIZE PUSH0 REVERT JUMPDEST POP POP POP POP PUSH1 0x40 MLOAD RETURNDATASIZE PUSH0 DUP3 RETURNDATACOPY RETURNDATASIZE PUSH1 0x1F NOT PUSH1 0x1F DUP3 ADD AND DUP3 ADD DUP1 PUSH1 0x40 MSTORE POP DUP2 ADD SWAP1 PUSH2 0x38C SWAP2 SWAP1 PUSH2 0x9C6 JUMP JUMPDEST SWAP1 POP SWAP2 SWAP1 POP JUMP JUMPDEST PUSH1 0x1 DUP3 DUP2 SLOAD DUP2 LT PUSH2 0x3A7 JUMPI PUSH2 0x3A6 PUSH2 0x87B JUMP JUMPDEST JUMPDEST SWAP1 PUSH0 MSTORE PUSH1 0x20 PUSH0 KECCAK256 ADD PUSH0 SWAP1 SLOAD SWAP1 PUSH2 0x100 EXP SWAP1 DIV PUSH20 0xFFFFFFFFFFFFFFFFFFFFFFFFFFFFFFFFFFFFFFFF AND PUSH20 0xFFFFFFFFFFFFFFFFFFFFFFFFFFFFFFFFFFFFFFFF AND PUSH4 0x121B93F CALLVALUE DUP4 PUSH1 0x40 MLOAD DUP4 PUSH4 0xFFFFFFFF AND PUSH1 0xE0 SHL DUP2 MSTORE PUSH1 0x4 ADD PUSH2 0x408 SWAP2 SWAP1 PUSH2 0x624 JUMP JUMPDEST PUSH0 PUSH1 0x40 MLOAD DUP1 DUP4 SUB DUP2 DUP6 DUP9 DUP1 EXTCODESIZE ISZERO DUP1 ISZERO PUSH2 0x41F JUMPI PUSH0 DUP1 REVERT JUMPDEST POP GAS CALL ISZERO DUP1 ISZERO PUSH2 0x431 JUMPI RETURNDATASIZE PUSH0 DUP1 RETURNDATACOPY RETURNDATASIZE PUSH0 REVERT JUMPDEST POP POP POP POP POP POP POP JUMP JUMPDEST PUSH0 DUP2 SWAP1 DUP1 PUSH1 0x1 DUP2 SLOAD ADD DUP1 DUP3 SSTORE DUP1 SWAP2 POP POP PUSH1 0x1 SWAP1 SUB SWAP1 PUSH0 MSTORE PUSH1 0x20 PUSH0 KECCAK256 ADD PUSH0 SWAP1 SWAP2 SWAP1 SWAP2 SWAP1 SWAP2 PUSH2 0x100 EXP DUP2 SLOAD DUP2 PUSH20 0xFFFFFFFFFFFFFFFFFFFFFFFFFFFFFFFFFFFFFFFF MUL NOT AND SWAP1 DUP4 PUSH20 0xFFFFFFFFFFFFFFFFFFFFFFFFFFFFFFFFFFFFFFFF AND MUL OR SWAP1 SSTORE POP POP JUMP JUMPDEST PUSH0 PUSH1 0x40 MLOAD SWAP1 POP SWAP1 JUMP JUMPDEST PUSH0 DUP1 REVERT JUMPDEST PUSH0 DUP1 REVERT JUMPDEST PUSH0 DUP2 SWAP1 POP SWAP2 SWAP1 POP JUMP JUMPDEST PUSH2 0x4BF DUP2 PUSH2 0x4AD JUMP JUMPDEST DUP2 EQ PUSH2 0x4C9 JUMPI PUSH0 DUP1 REVERT JUMPDEST POP JUMP JUMPDEST PUSH0 DUP2 CALLDATALOAD SWAP1 POP PUSH2 0x4DA DUP2 PUSH2 0x4B6 JUMP JUMPDEST SWAP3 SWAP2 POP POP JUMP JUMPDEST PUSH0 PUSH1 0x20 DUP3 DUP5 SUB SLT ISZERO PUSH2 0x4F5 JUMPI PUSH2 0x4F4 PUSH2 0x4A5 JUMP JUMPDEST JUMPDEST PUSH0 PUSH2 0x502 DUP5 DUP3 DUP6 ADD PUSH2 0x4CC JUMP JUMPDEST SWAP2 POP POP SWAP3 SWAP2 POP POP JUMP JUMPDEST PUSH0 PUSH20 0xFFFFFFFFFFFFFFFFFFFFFFFFFFFFFFFFFFFFFFFF DUP3 AND SWAP1 POP SWAP2 SWAP1 POP JUMP JUMPDEST PUSH0 DUP2 SWAP1 POP SWAP2 SWAP1 POP JUMP JUMPDEST PUSH0 PUSH2 0x54D PUSH2 0x548 PUSH2 0x543 DUP5 PUSH2 0x50B JUMP JUMPDEST PUSH2 0x52A JUMP JUMPDEST PUSH2 0x50B JUMP JUMPDEST SWAP1 POP SWAP2 SWAP1 POP JUMP JUMPDEST PUSH0 PUSH2 0x55E DUP3 PUSH2 0x533 JUMP JUMPDEST SWAP1 POP SWAP2 SWAP1 POP JUMP JUMPDEST PUSH0 PUSH2 0x56F DUP3 PUSH2 0x554 JUMP JUMPDEST SWAP1 POP SWAP2 SWAP1 POP JUMP JUMPDEST PUSH2 0x57F DUP2 PUSH2 0x565 JUMP JUMPDEST DUP3 MSTORE POP POP JUMP JUMPDEST PUSH0 PUSH1 0x20 DUP3 ADD SWAP1 POP PUSH2 0x598 PUSH0 DUP4 ADD DUP5 PUSH2 0x576 JUMP JUMPDEST SWAP3 SWAP2 POP POP JUMP JUMPDEST PUSH0 PUSH2 0x5A8 DUP3 PUSH2 0x50B JUMP JUMPDEST SWAP1 POP SWAP2 SWAP1 POP JUMP JUMPDEST PUSH0 PUSH2 0x5B9 DUP3 PUSH2 0x59E JUMP JUMPDEST SWAP1 POP SWAP2 SWAP1 POP JUMP JUMPDEST PUSH2 0x5C9 DUP2 PUSH2 0x5AF JUMP JUMPDEST DUP2 EQ PUSH2 0x5D3 JUMPI PUSH0 DUP1 REVERT JUMPDEST POP JUMP JUMPDEST PUSH0 DUP2 CALLDATALOAD SWAP1 POP PUSH2 0x5E4 DUP2 PUSH2 0x5C0 JUMP JUMPDEST SWAP3 SWAP2 POP POP JUMP JUMPDEST PUSH0 PUSH1 0x20 DUP3 DUP5 SUB SLT ISZERO PUSH2 0x5FF JUMPI PUSH2 0x5FE PUSH2 0x4A5 JUMP JUMPDEST JUMPDEST PUSH0 PUSH2 0x60C DUP5 DUP3 DUP6 ADD PUSH2 0x5D6 JUMP JUMPDEST SWAP2 POP POP SWAP3 SWAP2 POP POP JUMP JUMPDEST PUSH2 0x61E DUP2 PUSH2 0x4AD JUMP JUMPDEST DUP3 MSTORE POP POP JUMP JUMPDEST PUSH0 PUSH1 0x20 DUP3 ADD SWAP1 POP PUSH2 0x637 PUSH0 DUP4 ADD DUP5 PUSH2 0x615 JUMP JUMPDEST SWAP3 SWAP2 POP POP JUMP JUMPDEST PUSH0 DUP2 MLOAD SWAP1 POP SWAP2 SWAP1 POP JUMP JUMPDEST PUSH0 DUP3 DUP3 MSTORE PUSH1 0x20 DUP3 ADD SWAP1 POP SWAP3 SWAP2 POP POP JUMP JUMPDEST PUSH0 DUP2 SWAP1 POP PUSH1 0x20 DUP3 ADD SWAP1 POP SWAP2 SWAP1 POP JUMP JUMPDEST PUSH0 PUSH2 0x670 DUP3 PUSH2 0x533 JUMP JUMPDEST SWAP1 POP SWAP2 SWAP1 POP JUMP JUMPDEST PUSH0 PUSH2 0x681 DUP3 PUSH2 0x666 JUMP JUMPDEST SWAP1 POP SWAP2 SWAP1 POP JUMP JUMPDEST PUSH2 0x691 DUP2 PUSH2 0x677 JUMP JUMPDEST DUP3 MSTORE POP POP JUMP JUMPDEST PUSH0 PUSH2 0x6A2 DUP4 DUP4 PUSH2 0x688 JUMP JUMPDEST PUSH1 0x20 DUP4 ADD SWAP1 POP SWAP3 SWAP2 POP POP JUMP JUMPDEST PUSH0 PUSH1 0x20 DUP3 ADD SWAP1 POP SWAP2 SWAP1 POP JUMP JUMPDEST PUSH0 PUSH2 0x6C4 DUP3 PUSH2 0x63D JUMP JUMPDEST PUSH2 0x6CE DUP2 DUP6 PUSH2 0x647 JUMP JUMPDEST SWAP4 POP PUSH2 0x6D9 DUP4 PUSH2 0x657 JUMP JUMPDEST DUP1 PUSH0 JUMPDEST DUP4 DUP2 LT ISZERO PUSH2 0x709 JUMPI DUP2 MLOAD PUSH2 0x6F0 DUP9 DUP3 PUSH2 0x697 JUMP JUMPDEST SWAP8 POP PUSH2 0x6FB DUP4 PUSH2 0x6AE JUMP JUMPDEST SWAP3 POP POP PUSH1 0x1 DUP2 ADD SWAP1 POP PUSH2 0x6DC JUMP JUMPDEST POP DUP6 SWAP4 POP POP POP POP SWAP3 SWAP2 POP POP JUMP JUMPDEST PUSH0 PUSH1 0x20 DUP3 ADD SWAP1 POP DUP2 DUP2 SUB PUSH0 DUP4 ADD MSTORE PUSH2 0x72E DUP2 DUP5 PUSH2 0x6BA JUMP JUMPDEST SWAP1 POP SWAP3 SWAP2 POP POP JUMP JUMPDEST PUSH0 DUP2 MLOAD SWAP1 POP SWAP2 SWAP1 POP JUMP JUMPDEST PUSH0 DUP3 DUP3 MSTORE PUSH1 0x20 DUP3 ADD SWAP1 POP SWAP3 SWAP2 POP POP JUMP JUMPDEST DUP3 DUP2 DUP4 MCOPY PUSH0 DUP4 DUP4 ADD MSTORE POP POP POP JUMP JUMPDEST PUSH0 PUSH1 0x1F NOT PUSH1 0x1F DUP4 ADD AND SWAP1 POP SWAP2 SWAP1 POP JUMP JUMPDEST PUSH0 PUSH2 0x778 DUP3 PUSH2 0x736 JUMP JUMPDEST PUSH2 0x782 DUP2 DUP6 PUSH2 0x740 JUMP JUMPDEST SWAP4 POP PUSH2 0x792 DUP2 DUP6 PUSH1 0x20 DUP7 ADD PUSH2 0x750 JUMP JUMPDEST PUSH2 0x79B DUP2 PUSH2 0x75E JUMP JUMPDEST DUP5 ADD SWAP2 POP POP SWAP3 SWAP2 POP POP JUMP JUMPDEST PUSH0 PUSH1 0x20 DUP3 ADD SWAP1 POP DUP2 DUP2 SUB PUSH0 DUP4 ADD MSTORE PUSH2 0x7BE DUP2 DUP5 PUSH2 0x76E JUMP JUMPDEST SWAP1 POP SWAP3 SWAP2 POP POP JUMP JUMPDEST PUSH0 DUP1 PUSH1 0x40 DUP4 DUP6 SUB SLT ISZERO PUSH2 0x7DC JUMPI PUSH2 0x7DB PUSH2 0x4A5 JUMP JUMPDEST JUMPDEST PUSH0 PUSH2 0x7E9 DUP6 DUP3 DUP7 ADD PUSH2 0x4CC JUMP JUMPDEST SWAP3 POP POP PUSH1 0x20 PUSH2 0x7FA DUP6 DUP3 DUP7 ADD PUSH2 0x4CC JUMP JUMPDEST SWAP2 POP POP SWAP3 POP SWAP3 SWAP1 POP JUMP JUMPDEST PUSH0 PUSH2 0x80E DUP3 PUSH2 0x50B JUMP JUMPDEST SWAP1 POP SWAP2 SWAP1 POP JUMP JUMPDEST PUSH0 PUSH2 0x81F DUP3 PUSH2 0x804 JUMP JUMPDEST SWAP1 POP SWAP2 SWAP1 POP JUMP JUMPDEST PUSH2 0x82F DUP2 PUSH2 0x815 JUMP JUMPDEST DUP2 EQ PUSH2 0x839 JUMPI PUSH0 DUP1 REVERT JUMPDEST POP JUMP JUMPDEST PUSH0 DUP2 CALLDATALOAD SWAP1 POP PUSH2 0x84A DUP2 PUSH2 0x826 JUMP JUMPDEST SWAP3 SWAP2 POP POP JUMP JUMPDEST PUSH0 PUSH1 0x20 DUP3 DUP5 SUB SLT ISZERO PUSH2 0x865 JUMPI PUSH2 0x864 PUSH2 0x4A5 JUMP JUMPDEST JUMPDEST PUSH0 PUSH2 0x872 DUP5 DUP3 DUP6 ADD PUSH2 0x83C JUMP JUMPDEST SWAP2 POP POP SWAP3 SWAP2 POP POP JUMP JUMPDEST PUSH32 0x4E487B7100000000000000000000000000000000000000000000000000000000 PUSH0 MSTORE PUSH1 0x32 PUSH1 0x4 MSTORE PUSH1 0x24 PUSH0 REVERT JUMPDEST PUSH0 DUP1 REVERT JUMPDEST PUSH0 DUP1 REVERT JUMPDEST PUSH32 0x4E487B7100000000000000000000000000000000000000000000000000000000 PUSH0 MSTORE PUSH1 0x41 PUSH1 0x4 MSTORE PUSH1 0x24 PUSH0 REVERT JUMPDEST PUSH2 0x8E6 DUP3 PUSH2 0x75E JUMP JUMPDEST DUP2 ADD DUP2 DUP2 LT PUSH8 0xFFFFFFFFFFFFFFFF DUP3 GT OR ISZERO PUSH2 0x905 JUMPI PUSH2 0x904 PUSH2 0x8B0 JUMP JUMPDEST JUMPDEST DUP1 PUSH1 0x40 MSTORE POP POP POP JUMP JUMPDEST PUSH0 PUSH2 0x917 PUSH2 0x49C JUMP JUMPDEST SWAP1 POP PUSH2 0x923 DUP3 DUP3 PUSH2 0x8DD JUMP JUMPDEST SWAP2 SWAP1 POP JUMP JUMPDEST PUSH0 PUSH8 0xFFFFFFFFFFFFFFFF DUP3 GT ISZERO PUSH2 0x942 JUMPI PUSH2 0x941 PUSH2 0x8B0 JUMP JUMPDEST JUMPDEST PUSH2 0x94B DUP3 PUSH2 0x75E JUMP JUMPDEST SWAP1 POP PUSH1 0x20 DUP2 ADD SWAP1 POP SWAP2 SWAP1 POP JUMP JUMPDEST PUSH0 PUSH2 0x96A PUSH2 0x965 DUP5 PUSH2 0x928 JUMP JUMPDEST PUSH2 0x90E JUMP JUMPDEST SWAP1 POP DUP3 DUP2 MSTORE PUSH1 0x20 DUP2 ADD DUP5 DUP5 DUP5 ADD GT ISZERO PUSH2 0x986 JUMPI PUSH2 0x985 PUSH2 0x8AC JUMP JUMPDEST JUMPDEST PUSH2 0x991 DUP5 DUP3 DUP6 PUSH2 0x750 JUMP JUMPDEST POP SWAP4 SWAP3 POP POP POP JUMP JUMPDEST PUSH0 DUP3 PUSH1 0x1F DUP4 ADD SLT PUSH2 0x9AD JUMPI PUSH2 0x9AC PUSH2 0x8A8 JUMP JUMPDEST JUMPDEST DUP2 MLOAD PUSH2 0x9BD DUP5 DUP3 PUSH1 0x20 DUP7 ADD PUSH2 0x958 JUMP JUMPDEST SWAP2 POP POP SWAP3 SWAP2 POP POP JUMP JUMPDEST PUSH0 PUSH1 0x20 DUP3 DUP5 SUB SLT ISZERO PUSH2 0x9DB JUMPI PUSH2 0x9DA PUSH2 0x4A5 JUMP JUMPDEST JUMPDEST PUSH0 DUP3 ADD MLOAD PUSH8 0xFFFFFFFFFFFFFFFF DUP2 GT ISZERO PUSH2 0x9F8 JUMPI PUSH2 0x9F7 PUSH2 0x4A9 JUMP JUMPDEST JUMPDEST PUSH2 0xA04 DUP5 DUP3 DUP6 ADD PUSH2 0x999 JUMP JUMPDEST SWAP2 POP POP SWAP3 SWAP2 POP POP JUMP INVALID LOG2 PUSH5 0x6970667358 0x22 SLT KECCAK256 PUSH20 0xF8F89FA6D026848F5D4348AB05396B06A81D90A4 PUSH23 0x3828EA874466007B94E64736F6C634300081900330000 "
		},
		"gasEstimates": {
			"creation": {
				"codeDepositCost": "525400",
				"executionCost": "560",
				"totalCost": "525960"
			},
			"external": {
				"addEscrow(address)": "49132",
				"addPoll(address)": "49090",
				"escrows(uint256)": "infinite",
				"getPoll(uint256)": "infinite",
				"getPollCount()": "2485",
				"getPolls()": "infinite",
				"vote(uint256,uint256)": "infinite"
			}
		},
		"methodIdentifiers": {
			"addEscrow(address)": "cc224d44",
			"addPoll(address)": "1165614a",
			"escrows(uint256)": "012f52ee",
			"getPoll(uint256)": "1a8cbcaa",
			"getPollCount()": "11a52746",
			"getPolls()": "120fe89b",
			"vote(uint256,uint256)": "b384abef"
		}
	},
	"abi": [
		{
			"inputs": [],
			"stateMutability": "nonpayable",
			"type": "constructor"
		},
		{
			"inputs": [
				{
					"internalType": "contract Escrow",
					"name": "escrow",
					"type": "address"
				}
			],
			"name": "addEscrow",
			"outputs": [],
			"stateMutability": "nonpayable",
			"type": "function"
		},
		{
			"inputs": [
				{
					"internalType": "contract Poll",
					"name": "poll",
					"type": "address"
				}
			],
			"name": "addPoll",
			"outputs": [],
			"stateMutability": "nonpayable",
			"type": "function"
		},
		{
			"inputs": [
				{
					"internalType": "uint256",
					"name": "",
					"type": "uint256"
				}
			],
			"name": "escrows",
			"outputs": [
				{
					"internalType": "contract Escrow",
					"name": "",
					"type": "address"
				}
			],
			"stateMutability": "view",
			"type": "function"
		},
		{
			"inputs": [
				{
					"internalType": "uint256",
					"name": "pollId",
					"type": "uint256"
				}
			],
			"name": "getPoll",
			"outputs": [
				{
					"internalType": "string",
					"name": "",
					"type": "string"
				}
			],
			"stateMutability": "view",
			"type": "function"
		},
		{
			"inputs": [],
			"name": "getPollCount",
			"outputs": [
				{
					"internalType": "uint256",
					"name": "",
					"type": "uint256"
				}
			],
			"stateMutability": "view",
			"type": "function"
		},
		{
			"inputs": [],
			"name": "getPolls",
			"outputs": [
				{
					"internalType": "contract Poll[]",
					"name": "",
					"type": "address[]"
				}
			],
			"stateMutability": "view",
			"type": "function"
		},
		{
			"inputs": [
				{
					"internalType": "uint256",
					"name": "indexPoll",
					"type": "uint256"
				},
				{
					"internalType": "uint256",
					"name": "indexVote",
					"type": "uint256"
				}
			],
			"name": "vote",
			"outputs": [],
			"stateMutability": "payable",
			"type": "function"
		}
	]
}