{
	"data": {
		"bytecode": {
			"linkReferences": {},
			"object": "608060405234801561000f575f80fd5b50604051612ce5380380612ce5833981810160405281019061003191906104eb565b845f8001908161004191906107ba565b50835f600101908161005391906107ba565b50825f600201908051906020019061006c92919061014c565b50815f60030181905550805f6004015f6101000a81548173ffffffffffffffffffffffffffffffffffffffff021916908373ffffffffffffffffffffffffffffffffffffffff1602179055505f6004015f9054906101000a900473ffffffffffffffffffffffffffffffffffffffff1673ffffffffffffffffffffffffffffffffffffffff1663e1a4474984516040518263ffffffff1660e01b81526004016101159190610898565b5f604051808303815f87803b15801561012c575f80fd5b505af115801561013e573d5f803e3d5ffd5b5050505050505050506108b1565b828054828255905f5260205f20908101928215610192579160200282015b8281111561019157825182908161018191906107ba565b509160200191906001019061016a565b5b50905061019f91906101a3565b5090565b5b808211156101c2575f81816101b991906101c6565b506001016101a4565b5090565b5080546101d2906105ed565b5f825580601f106101e35750610200565b601f0160209004905f5260205f20908101906101ff9190610203565b5b50565b5b8082111561021a575f815f905550600101610204565b5090565b5f604051905090565b5f80fd5b5f80fd5b5f80fd5b5f80fd5b5f601f19601f8301169050919050565b7f4e487b71000000000000000000000000000000000000000000000000000000005f52604160045260245ffd5b61027d82610237565b810181811067ffffffffffffffff8211171561029c5761029b610247565b5b80604052505050565b5f6102ae61021e565b90506102ba8282610274565b919050565b5f67ffffffffffffffff8211156102d9576102d8610247565b5b6102e282610237565b9050602081019050919050565b8281835e5f83830152505050565b5f61030f61030a846102bf565b6102a5565b90508281526020810184848401111561032b5761032a610233565b5b6103368482856102ef565b509392505050565b5f82601f8301126103525761035161022f565b5b81516103628482602086016102fd565b91505092915050565b5f67ffffffffffffffff82111561038557610384610247565b5b602082029050602081019050919050565b5f80fd5b5f6103ac6103a78461036b565b6102a5565b905080838252602082019050602084028301858111156103cf576103ce610396565b5b835b8181101561041657805167ffffffffffffffff8111156103f4576103f361022f565b5b808601610401898261033e565b855260208501945050506020810190506103d1565b5050509392505050565b5f82601f8301126104345761043361022f565b5b815161044484826020860161039a565b91505092915050565b5f819050919050565b61045f8161044d565b8114610469575f80fd5b50565b5f8151905061047a81610456565b92915050565b5f73ffffffffffffffffffffffffffffffffffffffff82169050919050565b5f6104a982610480565b9050919050565b5f6104ba8261049f565b9050919050565b6104ca816104b0565b81146104d4575f80fd5b50565b5f815190506104e5816104c1565b92915050565b5f805f805f60a0868803121561050457610503610227565b5b5f86015167ffffffffffffffff8111156105215761052061022b565b5b61052d8882890161033e565b955050602086015167ffffffffffffffff81111561054e5761054d61022b565b5b61055a8882890161033e565b945050604086015167ffffffffffffffff81111561057b5761057a61022b565b5b61058788828901610420565b93505060606105988882890161046c565b92505060806105a9888289016104d7565b9150509295509295909350565b5f81519050919050565b7f4e487b71000000000000000000000000000000000000000000000000000000005f52602260045260245ffd5b5f600282049050600182168061060457607f821691505b602082108103610617576106166105c0565b5b50919050565b5f819050815f5260205f209050919050565b5f6020601f8301049050919050565b5f82821b905092915050565b5f600883026106797fffffffffffffffffffffffffffffffffffffffffffffffffffffffffffffffff8261063e565b610683868361063e565b95508019841693508086168417925050509392505050565b5f819050919050565b5f6106be6106b96106b48461044d565b61069b565b61044d565b9050919050565b5f819050919050565b6106d7836106a4565b6106eb6106e3826106c5565b84845461064a565b825550505050565b5f90565b6106ff6106f3565b61070a8184846106ce565b505050565b5b8181101561072d576107225f826106f7565b600181019050610710565b5050565b601f821115610772576107438161061d565b61074c8461062f565b8101602085101561075b578190505b61076f6107678561062f565b83018261070f565b50505b505050565b5f82821c905092915050565b5f6107925f1984600802610777565b1980831691505092915050565b5f6107aa8383610783565b9150826002028217905092915050565b6107c3826105b6565b67ffffffffffffffff8111156107dc576107db610247565b5b6107e682546105ed565b6107f1828285610731565b5f60209050601f831160018114610822575f8415610810578287015190505b61081a858261079f565b865550610881565b601f1984166108308661061d565b5f5b8281101561085757848901518255600182019150602085019450602081019050610832565b868310156108745784890151610870601f891682610783565b8355505b6001600288020188555050505b505050505050565b6108928161044d565b82525050565b5f6020820190506108ab5f830184610889565b92915050565b612427806108be5f395ff3fe608060405260043610610085575f3560e01c806331e7dede1161005857806331e7dede1461013557806335bbe70e146101625780637eeb45201461018c578063d7bb99ba146101b6578063da58c7d9146101c057610085565b80630121b93f1461008957806303c32278146100a557806309eef43e146100cf5780630dc960151461010b575b5f80fd5b6100a3600480360381019061009e91906113f8565b6101fc565b005b3480156100b0575f80fd5b506100b9610625565b6040516100c69190611493565b60405180910390f35b3480156100da575f80fd5b506100f560048036038101906100f0919061150d565b61073e565b6040516101029190611552565b60405180910390f35b348015610116575f80fd5b5061011f61075b565b60405161012c919061164f565b60405180910390f35b348015610140575f80fd5b5061014961092d565b60405161015994939291906116d9565b60405180910390f35b34801561016d575f80fd5b50610176610a74565b60405161018391906117e1565b60405180910390f35b348015610197575f80fd5b506101a0610c37565b6040516101ad9190611801565b60405180910390f35b6101be610ebc565b005b3480156101cb575f80fd5b506101e660048036038101906101e191906113f8565b61114f565b6040516101f39190611829565b60405180910390f35b5f600301544210610242576040517f08c379a00000000000000000000000000000000000000000000000000000000081526004016102399061188c565b60405180910390fd5b805f60020180549050811061028c576040517f08c379a0000000000000000000000000000000000000000000000000000000008152600401610283906118f4565b60405180910390fd5b5f34116102ce576040517f08c379a00000000000000000000000000000000000000000000000000000000081526004016102c59061195c565b60405180910390fd5b60055f3373ffffffffffffffffffffffffffffffffffffffff1673ffffffffffffffffffffffffffffffffffffffff1681526020019081526020015f205f9054906101000a900460ff1615610358576040517f08c379a000000000000000000000000000000000000000000000000000000000815260040161034f906119c4565b60405180910390fd5b5f806004015f9054906101000a900473ffffffffffffffffffffffffffffffffffffffff1673ffffffffffffffffffffffffffffffffffffffff1663913b722c6040518163ffffffff1660e01b81526004015f60405180830381865afa1580156103c4573d5f803e3d5ffd5b505050506040513d5f823e3d601f19601f820116820180604052508101906103ec9190611b5d565b90505f5b815181101561048e5781818151811061040c5761040b611ba4565b5b602002602001015173ffffffffffffffffffffffffffffffffffffffff163373ffffffffffffffffffffffffffffffffffffffff1603610481576040517f08c379a000000000000000000000000000000000000000000000000000000000815260040161047890611c1b565b60405180910390fd5b80806001019150506103f0565b50600160055f3373ffffffffffffffffffffffffffffffffffffffff1673ffffffffffffffffffffffffffffffffffffffff1681526020019081526020015f205f6101000a81548160ff021916908315150217905550600633908060018154018082558091505060019003905f5260205f20015f9091909190916101000a81548173ffffffffffffffffffffffffffffffffffffffff021916908373ffffffffffffffffffffffffffffffffffffffff1602179055505f6004015f9054906101000a900473ffffffffffffffffffffffffffffffffffffffff1673ffffffffffffffffffffffffffffffffffffffff1663fcca991b3485346040518463ffffffff1660e01b81526004016105a3929190611c39565b5f604051808303818588803b1580156105ba575f80fd5b505af11580156105cc573d5f803e3d5ffd5b5050505050823373ffffffffffffffffffffffffffffffffffffffff167fb4cfecf70861b7b150d8337780d34fb4cbc2114b5fb1fe51a5c5fca1849f7274346040516106189190611801565b60405180910390a3505050565b60605f6106ff5f600201805480602002602001604051908101604052809291908181526020015f905b828210156106f6578382905f5260205f2001805461066b90611c8d565b80601f016020809104026020016040519081016040528092919081815260200182805461069790611c8d565b80156106e25780601f106106b9576101008083540402835291602001916106e2565b820191905f5260205f20905b8154815290600101906020018083116106c557829003601f168201915b50505050508152602001906001019061064e565b5050505061118a565b90505f80015f600101826107165f60030154611236565b6040516020016107299493929190611dd3565b60405160208183030381529060405291505090565b6005602052805f5260405f205f915054906101000a900460ff1681565b60605f806004015f9054906101000a900473ffffffffffffffffffffffffffffffffffffffff1673ffffffffffffffffffffffffffffffffffffffff1663913b722c6040518163ffffffff1660e01b81526004015f60405180830381865afa1580156107c9573d5f803e3d5ffd5b505050506040513d5f823e3d601f19601f820116820180604052508101906107f19190611b5d565b90505f5b81518110156108935781818151811061081157610810611ba4565b5b602002602001015173ffffffffffffffffffffffffffffffffffffffff163373ffffffffffffffffffffffffffffffffffffffff1614610886576040517f08c379a000000000000000000000000000000000000000000000000000000000815260040161087d90611ea1565b60405180910390fd5b80806001019150506107f5565b505f6004015f9054906101000a900473ffffffffffffffffffffffffffffffffffffffff1673ffffffffffffffffffffffffffffffffffffffff16630f01870b6040518163ffffffff1660e01b81526004015f60405180830381865afa1580156108ff573d5f803e3d5ffd5b505050506040513d5f823e3d601f19601f820116820180604052508101906109279190611fe4565b91505090565b5f805f01805461093c90611c8d565b80601f016020809104026020016040519081016040528092919081815260200182805461096890611c8d565b80156109b35780601f1061098a576101008083540402835291602001916109b3565b820191905f5260205f20905b81548152906001019060200180831161099657829003601f168201915b5050505050908060010180546109c890611c8d565b80601f01602080910402602001604051908101604052809291908181526020018280546109f490611c8d565b8015610a3f5780601f10610a1657610100808354040283529160200191610a3f565b820191905f5260205f20905b815481529060010190602001808311610a2257829003601f168201915b505050505090806003015490806004015f9054906101000a900473ffffffffffffffffffffffffffffffffffffffff16905084565b60605f806004015f9054906101000a900473ffffffffffffffffffffffffffffffffffffffff1673ffffffffffffffffffffffffffffffffffffffff1663913b722c6040518163ffffffff1660e01b81526004015f60405180830381865afa158015610ae2573d5f803e3d5ffd5b505050506040513d5f823e3d601f19601f82011682018060405250810190610b0a9190611b5d565b90505f5b8151811015610bac57818181518110610b2a57610b29611ba4565b5b602002602001015173ffffffffffffffffffffffffffffffffffffffff163373ffffffffffffffffffffffffffffffffffffffff1614610b9f576040517f08c379a0000000000000000000000000000000000000000000000000000000008152600401610b9690611ea1565b60405180910390fd5b8080600101915050610b0e565b506006805480602002602001604051908101604052809291908181526020018280548015610c2c57602002820191905f5260205f20905b815f9054906101000a900473ffffffffffffffffffffffffffffffffffffffff1673ffffffffffffffffffffffffffffffffffffffff1681526020019060010190808311610be3575b505050505091505090565b5f8060030154421015610c7f576040517f08c379a0000000000000000000000000000000000000000000000000000000008152600401610c7690612075565b60405180910390fd5b5f806004015f9054906101000a900473ffffffffffffffffffffffffffffffffffffffff1673ffffffffffffffffffffffffffffffffffffffff1663913b722c6040518163ffffffff1660e01b81526004015f60405180830381865afa158015610ceb573d5f803e3d5ffd5b505050506040513d5f823e3d601f19601f82011682018060405250810190610d139190611b5d565b90505f5b8151811015610db557818181518110610d3357610d32611ba4565b5b602002602001015173ffffffffffffffffffffffffffffffffffffffff163373ffffffffffffffffffffffffffffffffffffffff1614610da8576040517f08c379a0000000000000000000000000000000000000000000000000000000008152600401610d9f90611ea1565b60405180910390fd5b8080600101915050610d17565b505f806004015f9054906101000a900473ffffffffffffffffffffffffffffffffffffffff1673ffffffffffffffffffffffffffffffffffffffff16630f01870b6040518163ffffffff1660e01b81526004015f60405180830381865afa158015610e22573d5f803e3d5ffd5b505050506040513d5f823e3d601f19601f82011682018060405250810190610e4a9190611fe4565b90505f805f5b8351811015610eb15781848281518110610e6d57610e6c611ba4565b5b6020026020010151602001511115610ea457838181518110610e9257610e91611ba4565b5b60200260200101516020015191508092505b8080600101915050610e50565b508194505050505090565b5f600301544210610f02576040517f08c379a0000000000000000000000000000000000000000000000000000000008152600401610ef99061188c565b60405180910390fd5b5f3411610f44576040517f08c379a0000000000000000000000000000000000000000000000000000000008152600401610f3b9061195c565b60405180910390fd5b5f806004015f9054906101000a900473ffffffffffffffffffffffffffffffffffffffff1673ffffffffffffffffffffffffffffffffffffffff1663913b722c6040518163ffffffff1660e01b81526004015f60405180830381865afa158015610fb0573d5f803e3d5ffd5b505050506040513d5f823e3d601f19601f82011682018060405250810190610fd89190611b5d565b90505f5b815181101561107a57818181518110610ff857610ff7611ba4565b5b602002602001015173ffffffffffffffffffffffffffffffffffffffff163373ffffffffffffffffffffffffffffffffffffffff160361106d576040517f08c379a0000000000000000000000000000000000000000000000000000000008152600401611064906120dd565b60405180910390fd5b8080600101915050610fdc565b505f3490505f806004015f9054906101000a900473ffffffffffffffffffffffffffffffffffffffff1673ffffffffffffffffffffffffffffffffffffffff16826040516110c790612128565b5f6040518083038185875af1925050503d805f8114611101576040519150601f19603f3d011682016040523d82523d5f602084013e611106565b606091505b505090508061114a576040517f08c379a000000000000000000000000000000000000000000000000000000000815260040161114190612186565b60405180910390fd5b505050565b6006818154811061115e575f80fd5b905f5260205f20015f915054906101000a900473ffffffffffffffffffffffffffffffffffffffff1681565b60605f60405180602001604052805f81525090505f5b835181101561122c57818482815181106111bd576111bc611ba4565b5b60200260200101516040516020016111d69291906121de565b6040516020818303038152906040529150600184516111f5919061222e565b81101561121f578160405160200161120d91906122ab565b60405160208183030381529060405291505b80806001019150506111a0565b5080915050919050565b60605f820361127c576040518060400160405280600181526020017f300000000000000000000000000000000000000000000000000000000000000081525090506113af565b5f8290505f5b5f82146112ab578080611294906122cc565b915050600a826112a49190612340565b9150611282565b5f8167ffffffffffffffff8111156112c6576112c56119e6565b5b6040519080825280601f01601f1916602001820160405280156112f85781602001600182028036833780820191505090505b5090505f8290505b5f86146113a757600181611314919061222e565b90505f600a80886113259190612340565b61132f9190612370565b8761133a919061222e565b603061134691906123bd565b90505f8160f81b90508084848151811061136357611362611ba4565b5b60200101907effffffffffffffffffffffffffffffffffffffffffffffffffffffffffffff191690815f1a905350600a8861139e9190612340565b97505050611300565b819450505050505b919050565b5f604051905090565b5f80fd5b5f80fd5b5f819050919050565b6113d7816113c5565b81146113e1575f80fd5b50565b5f813590506113f2816113ce565b92915050565b5f6020828403121561140d5761140c6113bd565b5b5f61141a848285016113e4565b91505092915050565b5f81519050919050565b5f82825260208201905092915050565b8281835e5f83830152505050565b5f601f19601f8301169050919050565b5f61146582611423565b61146f818561142d565b935061147f81856020860161143d565b6114888161144b565b840191505092915050565b5f6020820190508181035f8301526114ab818461145b565b905092915050565b5f73ffffffffffffffffffffffffffffffffffffffff82169050919050565b5f6114dc826114b3565b9050919050565b6114ec816114d2565b81146114f6575f80fd5b50565b5f81359050611507816114e3565b92915050565b5f60208284031215611522576115216113bd565b5b5f61152f848285016114f9565b91505092915050565b5f8115159050919050565b61154c81611538565b82525050565b5f6020820190506115655f830184611543565b92915050565b5f81519050919050565b5f82825260208201905092915050565b5f819050602082019050919050565b61159d816113c5565b82525050565b604082015f8201516115b75f850182611594565b5060208201516115ca6020850182611594565b50505050565b5f6115db83836115a3565b60408301905092915050565b5f602082019050919050565b5f6115fd8261156b565b6116078185611575565b935061161283611585565b805f5b8381101561164257815161162988826115d0565b9750611634836115e7565b925050600181019050611615565b5085935050505092915050565b5f6020820190508181035f83015261166781846115f3565b905092915050565b611678816113c5565b82525050565b5f819050919050565b5f6116a161169c611697846114b3565b61167e565b6114b3565b9050919050565b5f6116b282611687565b9050919050565b5f6116c3826116a8565b9050919050565b6116d3816116b9565b82525050565b5f6080820190508181035f8301526116f1818761145b565b90508181036020830152611705818661145b565b9050611714604083018561166f565b61172160608301846116ca565b95945050505050565b5f81519050919050565b5f82825260208201905092915050565b5f819050602082019050919050565b61175c816114d2565b82525050565b5f61176d8383611753565b60208301905092915050565b5f602082019050919050565b5f61178f8261172a565b6117998185611734565b93506117a483611744565b805f5b838110156117d45781516117bb8882611762565b97506117c683611779565b9250506001810190506117a7565b5085935050505092915050565b5f6020820190508181035f8301526117f98184611785565b905092915050565b5f6020820190506118145f83018461166f565b92915050565b611823816114d2565b82525050565b5f60208201905061183c5f83018461181a565b92915050565b7f566f74696e672068617320656e646564000000000000000000000000000000005f82015250565b5f61187660108361142d565b915061188182611842565b602082019050919050565b5f6020820190508181035f8301526118a38161186a565b9050919050565b7f496e76616c6964206f7074696f6e20696e6465780000000000000000000000005f82015250565b5f6118de60148361142d565b91506118e9826118aa565b602082019050919050565b5f6020820190508181035f83015261190b816118d2565b9050919050565b7f4d7573742073656e642045544820746f20766f746500000000000000000000005f82015250565b5f61194660158361142d565b915061195182611912565b602082019050919050565b5f6020820190508181035f8301526119738161193a565b9050919050565b7f416c726561647920766f746564000000000000000000000000000000000000005f82015250565b5f6119ae600d8361142d565b91506119b98261197a565b602082019050919050565b5f6020820190508181035f8301526119db816119a2565b9050919050565b5f80fd5b7f4e487b71000000000000000000000000000000000000000000000000000000005f52604160045260245ffd5b611a1c8261144b565b810181811067ffffffffffffffff82111715611a3b57611a3a6119e6565b5b80604052505050565b5f611a4d6113b4565b9050611a598282611a13565b919050565b5f67ffffffffffffffff821115611a7857611a776119e6565b5b602082029050602081019050919050565b5f80fd5b5f611a97826114b3565b9050919050565b611aa781611a8d565b8114611ab1575f80fd5b50565b5f81519050611ac281611a9e565b92915050565b5f611ada611ad584611a5e565b611a44565b90508083825260208201905060208402830185811115611afd57611afc611a89565b5b835b81811015611b265780611b128882611ab4565b845260208401935050602081019050611aff565b5050509392505050565b5f82601f830112611b4457611b436119e2565b5b8151611b54848260208601611ac8565b91505092915050565b5f60208284031215611b7257611b716113bd565b5b5f82015167ffffffffffffffff811115611b8f57611b8e6113c1565b5b611b9b84828501611b30565b91505092915050565b7f4e487b71000000000000000000000000000000000000000000000000000000005f52603260045260245ffd5b7f42656e656669636961726965732063616e6e6f7420766f7465210000000000005f82015250565b5f611c05601a8361142d565b9150611c1082611bd1565b602082019050919050565b5f6020820190508181035f830152611c3281611bf9565b9050919050565b5f604082019050611c4c5f83018561166f565b611c59602083018461166f565b9392505050565b7f4e487b71000000000000000000000000000000000000000000000000000000005f52602260045260245ffd5b5f6002820490506001821680611ca457607f821691505b602082108103611cb757611cb6611c60565b5b50919050565b5f81905092915050565b5f819050815f5260205f209050919050565b5f8154611ce581611c8d565b611cef8186611cbd565b9450600182165f8114611d095760018114611d1e57611d50565b60ff1983168652811515820286019350611d50565b611d2785611cc7565b5f5b83811015611d4857815481890152600182019150602081019050611d29565b838801955050505b50505092915050565b7f3b000000000000000000000000000000000000000000000000000000000000005f82015250565b5f611d8d600183611cbd565b9150611d9882611d59565b600182019050919050565b5f611dad82611423565b611db78185611cbd565b9350611dc781856020860161143d565b80840191505092915050565b5f611dde8287611cd9565b9150611de982611d81565b9150611df58286611cd9565b9150611e0082611d81565b9150611e0c8285611da3565b9150611e1782611d81565b9150611e238284611da3565b915081905095945050505050565b7f596f75206d757374206265206f6e65206f66207468652062656e6566696369615f8201527f7269657321000000000000000000000000000000000000000000000000000000602082015250565b5f611e8b60258361142d565b9150611e9682611e31565b604082019050919050565b5f6020820190508181035f830152611eb881611e7f565b9050919050565b5f67ffffffffffffffff821115611ed957611ed86119e6565b5b602082029050602081019050919050565b5f80fd5b5f81519050611efc816113ce565b92915050565b5f60408284031215611f1757611f16611eea565b5b611f216040611a44565b90505f611f3084828501611eee565b5f830152506020611f4384828501611eee565b60208301525092915050565b5f611f61611f5c84611ebf565b611a44565b90508083825260208201905060408402830185811115611f8457611f83611a89565b5b835b81811015611fad5780611f998882611f02565b845260208401935050604081019050611f86565b5050509392505050565b5f82601f830112611fcb57611fca6119e2565b5b8151611fdb848260208601611f4f565b91505092915050565b5f60208284031215611ff957611ff86113bd565b5b5f82015167ffffffffffffffff811115612016576120156113c1565b5b61202284828501611fb7565b91505092915050565b7f566f74696e67206973207374696c6c206f6e676f696e670000000000000000005f82015250565b5f61205f60178361142d565b915061206a8261202b565b602082019050919050565b5f6020820190508181035f83015261208c81612053565b9050919050565b7f42656e656669636961726965732063616e6e6f7420636f6e74726962757465215f82015250565b5f6120c760208361142d565b91506120d282612093565b602082019050919050565b5f6020820190508181035f8301526120f4816120bb565b9050919050565b5f81905092915050565b50565b5f6121135f836120fb565b915061211e82612105565b5f82019050919050565b5f61213282612108565b9150819050919050565b7f4661696c656420746f2073656e642045746865720000000000000000000000005f82015250565b5f61217060148361142d565b915061217b8261213c565b602082019050919050565b5f6020820190508181035f83015261219d81612164565b9050919050565b5f81519050919050565b5f6121b8826121a4565b6121c281856120fb565b93506121d281856020860161143d565b80840191505092915050565b5f6121e982856121ae565b91506121f58284611da3565b91508190509392505050565b7f4e487b71000000000000000000000000000000000000000000000000000000005f52601160045260245ffd5b5f612238826113c5565b9150612243836113c5565b925082820390508181111561225b5761225a612201565b5b92915050565b7f2c000000000000000000000000000000000000000000000000000000000000005f82015250565b5f612295600183611cbd565b91506122a082612261565b600182019050919050565b5f6122b682846121ae565b91506122c182612289565b915081905092915050565b5f6122d6826113c5565b91507fffffffffffffffffffffffffffffffffffffffffffffffffffffffffffffffff820361230857612307612201565b5b600182019050919050565b7f4e487b71000000000000000000000000000000000000000000000000000000005f52601260045260245ffd5b5f61234a826113c5565b9150612355836113c5565b92508261236557612364612313565b5b828204905092915050565b5f61237a826113c5565b9150612385836113c5565b9250828202612393816113c5565b915082820484148315176123aa576123a9612201565b5b5092915050565b5f60ff82169050919050565b5f6123c7826123b1565b91506123d2836123b1565b9250828201905060ff8111156123eb576123ea612201565b5b9291505056fea26469706673582212204ea77377c3369f36ebeab099aa066862b553441dcc845bc4687407b30bcfb87364736f6c63430008190033",
			"opcodes": "PUSH1 0x80 PUSH1 0x40 MSTORE CALLVALUE DUP1 ISZERO PUSH2 0xF JUMPI PUSH0 DUP1 REVERT JUMPDEST POP PUSH1 0x40 MLOAD PUSH2 0x2CE5 CODESIZE SUB DUP1 PUSH2 0x2CE5 DUP4 CODECOPY DUP2 DUP2 ADD PUSH1 0x40 MSTORE DUP2 ADD SWAP1 PUSH2 0x31 SWAP2 SWAP1 PUSH2 0x4EB JUMP JUMPDEST DUP5 PUSH0 DUP1 ADD SWAP1 DUP2 PUSH2 0x41 SWAP2 SWAP1 PUSH2 0x7BA JUMP JUMPDEST POP DUP4 PUSH0 PUSH1 0x1 ADD SWAP1 DUP2 PUSH2 0x53 SWAP2 SWAP1 PUSH2 0x7BA JUMP JUMPDEST POP DUP3 PUSH0 PUSH1 0x2 ADD SWAP1 DUP1 MLOAD SWAP1 PUSH1 0x20 ADD SWAP1 PUSH2 0x6C SWAP3 SWAP2 SWAP1 PUSH2 0x14C JUMP JUMPDEST POP DUP2 PUSH0 PUSH1 0x3 ADD DUP2 SWAP1 SSTORE POP DUP1 PUSH0 PUSH1 0x4 ADD PUSH0 PUSH2 0x100 EXP DUP2 SLOAD DUP2 PUSH20 0xFFFFFFFFFFFFFFFFFFFFFFFFFFFFFFFFFFFFFFFF MUL NOT AND SWAP1 DUP4 PUSH20 0xFFFFFFFFFFFFFFFFFFFFFFFFFFFFFFFFFFFFFFFF AND MUL OR SWAP1 SSTORE POP PUSH0 PUSH1 0x4 ADD PUSH0 SWAP1 SLOAD SWAP1 PUSH2 0x100 EXP SWAP1 DIV PUSH20 0xFFFFFFFFFFFFFFFFFFFFFFFFFFFFFFFFFFFFFFFF AND PUSH20 0xFFFFFFFFFFFFFFFFFFFFFFFFFFFFFFFFFFFFFFFF AND PUSH4 0xE1A44749 DUP5 MLOAD PUSH1 0x40 MLOAD DUP3 PUSH4 0xFFFFFFFF AND PUSH1 0xE0 SHL DUP2 MSTORE PUSH1 0x4 ADD PUSH2 0x115 SWAP2 SWAP1 PUSH2 0x898 JUMP JUMPDEST PUSH0 PUSH1 0x40 MLOAD DUP1 DUP4 SUB DUP2 PUSH0 DUP8 DUP1 EXTCODESIZE ISZERO DUP1 ISZERO PUSH2 0x12C JUMPI PUSH0 DUP1 REVERT JUMPDEST POP GAS CALL ISZERO DUP1 ISZERO PUSH2 0x13E JUMPI RETURNDATASIZE PUSH0 DUP1 RETURNDATACOPY RETURNDATASIZE PUSH0 REVERT JUMPDEST POP POP POP POP POP POP POP POP POP PUSH2 0x8B1 JUMP JUMPDEST DUP3 DUP1 SLOAD DUP3 DUP3 SSTORE SWAP1 PUSH0 MSTORE PUSH1 0x20 PUSH0 KECCAK256 SWAP1 DUP2 ADD SWAP3 DUP3 ISZERO PUSH2 0x192 JUMPI SWAP2 PUSH1 0x20 MUL DUP3 ADD JUMPDEST DUP3 DUP2 GT ISZERO PUSH2 0x191 JUMPI DUP3 MLOAD DUP3 SWAP1 DUP2 PUSH2 0x181 SWAP2 SWAP1 PUSH2 0x7BA JUMP JUMPDEST POP SWAP2 PUSH1 0x20 ADD SWAP2 SWAP1 PUSH1 0x1 ADD SWAP1 PUSH2 0x16A JUMP JUMPDEST JUMPDEST POP SWAP1 POP PUSH2 0x19F SWAP2 SWAP1 PUSH2 0x1A3 JUMP JUMPDEST POP SWAP1 JUMP JUMPDEST JUMPDEST DUP1 DUP3 GT ISZERO PUSH2 0x1C2 JUMPI PUSH0 DUP2 DUP2 PUSH2 0x1B9 SWAP2 SWAP1 PUSH2 0x1C6 JUMP JUMPDEST POP PUSH1 0x1 ADD PUSH2 0x1A4 JUMP JUMPDEST POP SWAP1 JUMP JUMPDEST POP DUP1 SLOAD PUSH2 0x1D2 SWAP1 PUSH2 0x5ED JUMP JUMPDEST PUSH0 DUP3 SSTORE DUP1 PUSH1 0x1F LT PUSH2 0x1E3 JUMPI POP PUSH2 0x200 JUMP JUMPDEST PUSH1 0x1F ADD PUSH1 0x20 SWAP1 DIV SWAP1 PUSH0 MSTORE PUSH1 0x20 PUSH0 KECCAK256 SWAP1 DUP2 ADD SWAP1 PUSH2 0x1FF SWAP2 SWAP1 PUSH2 0x203 JUMP JUMPDEST JUMPDEST POP JUMP JUMPDEST JUMPDEST DUP1 DUP3 GT ISZERO PUSH2 0x21A JUMPI PUSH0 DUP2 PUSH0 SWAP1 SSTORE POP PUSH1 0x1 ADD PUSH2 0x204 JUMP JUMPDEST POP SWAP1 JUMP JUMPDEST PUSH0 PUSH1 0x40 MLOAD SWAP1 POP SWAP1 JUMP JUMPDEST PUSH0 DUP1 REVERT JUMPDEST PUSH0 DUP1 REVERT JUMPDEST PUSH0 DUP1 REVERT JUMPDEST PUSH0 DUP1 REVERT JUMPDEST PUSH0 PUSH1 0x1F NOT PUSH1 0x1F DUP4 ADD AND SWAP1 POP SWAP2 SWAP1 POP JUMP JUMPDEST PUSH32 0x4E487B7100000000000000000000000000000000000000000000000000000000 PUSH0 MSTORE PUSH1 0x41 PUSH1 0x4 MSTORE PUSH1 0x24 PUSH0 REVERT JUMPDEST PUSH2 0x27D DUP3 PUSH2 0x237 JUMP JUMPDEST DUP2 ADD DUP2 DUP2 LT PUSH8 0xFFFFFFFFFFFFFFFF DUP3 GT OR ISZERO PUSH2 0x29C JUMPI PUSH2 0x29B PUSH2 0x247 JUMP JUMPDEST JUMPDEST DUP1 PUSH1 0x40 MSTORE POP POP POP JUMP JUMPDEST PUSH0 PUSH2 0x2AE PUSH2 0x21E JUMP JUMPDEST SWAP1 POP PUSH2 0x2BA DUP3 DUP3 PUSH2 0x274 JUMP JUMPDEST SWAP2 SWAP1 POP JUMP JUMPDEST PUSH0 PUSH8 0xFFFFFFFFFFFFFFFF DUP3 GT ISZERO PUSH2 0x2D9 JUMPI PUSH2 0x2D8 PUSH2 0x247 JUMP JUMPDEST JUMPDEST PUSH2 0x2E2 DUP3 PUSH2 0x237 JUMP JUMPDEST SWAP1 POP PUSH1 0x20 DUP2 ADD SWAP1 POP SWAP2 SWAP1 POP JUMP JUMPDEST DUP3 DUP2 DUP4 MCOPY PUSH0 DUP4 DUP4 ADD MSTORE POP POP POP JUMP JUMPDEST PUSH0 PUSH2 0x30F PUSH2 0x30A DUP5 PUSH2 0x2BF JUMP JUMPDEST PUSH2 0x2A5 JUMP JUMPDEST SWAP1 POP DUP3 DUP2 MSTORE PUSH1 0x20 DUP2 ADD DUP5 DUP5 DUP5 ADD GT ISZERO PUSH2 0x32B JUMPI PUSH2 0x32A PUSH2 0x233 JUMP JUMPDEST JUMPDEST PUSH2 0x336 DUP5 DUP3 DUP6 PUSH2 0x2EF JUMP JUMPDEST POP SWAP4 SWAP3 POP POP POP JUMP JUMPDEST PUSH0 DUP3 PUSH1 0x1F DUP4 ADD SLT PUSH2 0x352 JUMPI PUSH2 0x351 PUSH2 0x22F JUMP JUMPDEST JUMPDEST DUP2 MLOAD PUSH2 0x362 DUP5 DUP3 PUSH1 0x20 DUP7 ADD PUSH2 0x2FD JUMP JUMPDEST SWAP2 POP POP SWAP3 SWAP2 POP POP JUMP JUMPDEST PUSH0 PUSH8 0xFFFFFFFFFFFFFFFF DUP3 GT ISZERO PUSH2 0x385 JUMPI PUSH2 0x384 PUSH2 0x247 JUMP JUMPDEST JUMPDEST PUSH1 0x20 DUP3 MUL SWAP1 POP PUSH1 0x20 DUP2 ADD SWAP1 POP SWAP2 SWAP1 POP JUMP JUMPDEST PUSH0 DUP1 REVERT JUMPDEST PUSH0 PUSH2 0x3AC PUSH2 0x3A7 DUP5 PUSH2 0x36B JUMP JUMPDEST PUSH2 0x2A5 JUMP JUMPDEST SWAP1 POP DUP1 DUP4 DUP3 MSTORE PUSH1 0x20 DUP3 ADD SWAP1 POP PUSH1 0x20 DUP5 MUL DUP4 ADD DUP6 DUP2 GT ISZERO PUSH2 0x3CF JUMPI PUSH2 0x3CE PUSH2 0x396 JUMP JUMPDEST JUMPDEST DUP4 JUMPDEST DUP2 DUP2 LT ISZERO PUSH2 0x416 JUMPI DUP1 MLOAD PUSH8 0xFFFFFFFFFFFFFFFF DUP2 GT ISZERO PUSH2 0x3F4 JUMPI PUSH2 0x3F3 PUSH2 0x22F JUMP JUMPDEST JUMPDEST DUP1 DUP7 ADD PUSH2 0x401 DUP10 DUP3 PUSH2 0x33E JUMP JUMPDEST DUP6 MSTORE PUSH1 0x20 DUP6 ADD SWAP5 POP POP POP PUSH1 0x20 DUP2 ADD SWAP1 POP PUSH2 0x3D1 JUMP JUMPDEST POP POP POP SWAP4 SWAP3 POP POP POP JUMP JUMPDEST PUSH0 DUP3 PUSH1 0x1F DUP4 ADD SLT PUSH2 0x434 JUMPI PUSH2 0x433 PUSH2 0x22F JUMP JUMPDEST JUMPDEST DUP2 MLOAD PUSH2 0x444 DUP5 DUP3 PUSH1 0x20 DUP7 ADD PUSH2 0x39A JUMP JUMPDEST SWAP2 POP POP SWAP3 SWAP2 POP POP JUMP JUMPDEST PUSH0 DUP2 SWAP1 POP SWAP2 SWAP1 POP JUMP JUMPDEST PUSH2 0x45F DUP2 PUSH2 0x44D JUMP JUMPDEST DUP2 EQ PUSH2 0x469 JUMPI PUSH0 DUP1 REVERT JUMPDEST POP JUMP JUMPDEST PUSH0 DUP2 MLOAD SWAP1 POP PUSH2 0x47A DUP2 PUSH2 0x456 JUMP JUMPDEST SWAP3 SWAP2 POP POP JUMP JUMPDEST PUSH0 PUSH20 0xFFFFFFFFFFFFFFFFFFFFFFFFFFFFFFFFFFFFFFFF DUP3 AND SWAP1 POP SWAP2 SWAP1 POP JUMP JUMPDEST PUSH0 PUSH2 0x4A9 DUP3 PUSH2 0x480 JUMP JUMPDEST SWAP1 POP SWAP2 SWAP1 POP JUMP JUMPDEST PUSH0 PUSH2 0x4BA DUP3 PUSH2 0x49F JUMP JUMPDEST SWAP1 POP SWAP2 SWAP1 POP JUMP JUMPDEST PUSH2 0x4CA DUP2 PUSH2 0x4B0 JUMP JUMPDEST DUP2 EQ PUSH2 0x4D4 JUMPI PUSH0 DUP1 REVERT JUMPDEST POP JUMP JUMPDEST PUSH0 DUP2 MLOAD SWAP1 POP PUSH2 0x4E5 DUP2 PUSH2 0x4C1 JUMP JUMPDEST SWAP3 SWAP2 POP POP JUMP JUMPDEST PUSH0 DUP1 PUSH0 DUP1 PUSH0 PUSH1 0xA0 DUP7 DUP9 SUB SLT ISZERO PUSH2 0x504 JUMPI PUSH2 0x503 PUSH2 0x227 JUMP JUMPDEST JUMPDEST PUSH0 DUP7 ADD MLOAD PUSH8 0xFFFFFFFFFFFFFFFF DUP2 GT ISZERO PUSH2 0x521 JUMPI PUSH2 0x520 PUSH2 0x22B JUMP JUMPDEST JUMPDEST PUSH2 0x52D DUP9 DUP3 DUP10 ADD PUSH2 0x33E JUMP JUMPDEST SWAP6 POP POP PUSH1 0x20 DUP7 ADD MLOAD PUSH8 0xFFFFFFFFFFFFFFFF DUP2 GT ISZERO PUSH2 0x54E JUMPI PUSH2 0x54D PUSH2 0x22B JUMP JUMPDEST JUMPDEST PUSH2 0x55A DUP9 DUP3 DUP10 ADD PUSH2 0x33E JUMP JUMPDEST SWAP5 POP POP PUSH1 0x40 DUP7 ADD MLOAD PUSH8 0xFFFFFFFFFFFFFFFF DUP2 GT ISZERO PUSH2 0x57B JUMPI PUSH2 0x57A PUSH2 0x22B JUMP JUMPDEST JUMPDEST PUSH2 0x587 DUP9 DUP3 DUP10 ADD PUSH2 0x420 JUMP JUMPDEST SWAP4 POP POP PUSH1 0x60 PUSH2 0x598 DUP9 DUP3 DUP10 ADD PUSH2 0x46C JUMP JUMPDEST SWAP3 POP POP PUSH1 0x80 PUSH2 0x5A9 DUP9 DUP3 DUP10 ADD PUSH2 0x4D7 JUMP JUMPDEST SWAP2 POP POP SWAP3 SWAP6 POP SWAP3 SWAP6 SWAP1 SWAP4 POP JUMP JUMPDEST PUSH0 DUP2 MLOAD SWAP1 POP SWAP2 SWAP1 POP JUMP JUMPDEST PUSH32 0x4E487B7100000000000000000000000000000000000000000000000000000000 PUSH0 MSTORE PUSH1 0x22 PUSH1 0x4 MSTORE PUSH1 0x24 PUSH0 REVERT JUMPDEST PUSH0 PUSH1 0x2 DUP3 DIV SWAP1 POP PUSH1 0x1 DUP3 AND DUP1 PUSH2 0x604 JUMPI PUSH1 0x7F DUP3 AND SWAP2 POP JUMPDEST PUSH1 0x20 DUP3 LT DUP2 SUB PUSH2 0x617 JUMPI PUSH2 0x616 PUSH2 0x5C0 JUMP JUMPDEST JUMPDEST POP SWAP2 SWAP1 POP JUMP JUMPDEST PUSH0 DUP2 SWAP1 POP DUP2 PUSH0 MSTORE PUSH1 0x20 PUSH0 KECCAK256 SWAP1 POP SWAP2 SWAP1 POP JUMP JUMPDEST PUSH0 PUSH1 0x20 PUSH1 0x1F DUP4 ADD DIV SWAP1 POP SWAP2 SWAP1 POP JUMP JUMPDEST PUSH0 DUP3 DUP3 SHL SWAP1 POP SWAP3 SWAP2 POP POP JUMP JUMPDEST PUSH0 PUSH1 0x8 DUP4 MUL PUSH2 0x679 PUSH32 0xFFFFFFFFFFFFFFFFFFFFFFFFFFFFFFFFFFFFFFFFFFFFFFFFFFFFFFFFFFFFFFFF DUP3 PUSH2 0x63E JUMP JUMPDEST PUSH2 0x683 DUP7 DUP4 PUSH2 0x63E JUMP JUMPDEST SWAP6 POP DUP1 NOT DUP5 AND SWAP4 POP DUP1 DUP7 AND DUP5 OR SWAP3 POP POP POP SWAP4 SWAP3 POP POP POP JUMP JUMPDEST PUSH0 DUP2 SWAP1 POP SWAP2 SWAP1 POP JUMP JUMPDEST PUSH0 PUSH2 0x6BE PUSH2 0x6B9 PUSH2 0x6B4 DUP5 PUSH2 0x44D JUMP JUMPDEST PUSH2 0x69B JUMP JUMPDEST PUSH2 0x44D JUMP JUMPDEST SWAP1 POP SWAP2 SWAP1 POP JUMP JUMPDEST PUSH0 DUP2 SWAP1 POP SWAP2 SWAP1 POP JUMP JUMPDEST PUSH2 0x6D7 DUP4 PUSH2 0x6A4 JUMP JUMPDEST PUSH2 0x6EB PUSH2 0x6E3 DUP3 PUSH2 0x6C5 JUMP JUMPDEST DUP5 DUP5 SLOAD PUSH2 0x64A JUMP JUMPDEST DUP3 SSTORE POP POP POP POP JUMP JUMPDEST PUSH0 SWAP1 JUMP JUMPDEST PUSH2 0x6FF PUSH2 0x6F3 JUMP JUMPDEST PUSH2 0x70A DUP2 DUP5 DUP5 PUSH2 0x6CE JUMP JUMPDEST POP POP POP JUMP JUMPDEST JUMPDEST DUP2 DUP2 LT ISZERO PUSH2 0x72D JUMPI PUSH2 0x722 PUSH0 DUP3 PUSH2 0x6F7 JUMP JUMPDEST PUSH1 0x1 DUP2 ADD SWAP1 POP PUSH2 0x710 JUMP JUMPDEST POP POP JUMP JUMPDEST PUSH1 0x1F DUP3 GT ISZERO PUSH2 0x772 JUMPI PUSH2 0x743 DUP2 PUSH2 0x61D JUMP JUMPDEST PUSH2 0x74C DUP5 PUSH2 0x62F JUMP JUMPDEST DUP2 ADD PUSH1 0x20 DUP6 LT ISZERO PUSH2 0x75B JUMPI DUP2 SWAP1 POP JUMPDEST PUSH2 0x76F PUSH2 0x767 DUP6 PUSH2 0x62F JUMP JUMPDEST DUP4 ADD DUP3 PUSH2 0x70F JUMP JUMPDEST POP POP JUMPDEST POP POP POP JUMP JUMPDEST PUSH0 DUP3 DUP3 SHR SWAP1 POP SWAP3 SWAP2 POP POP JUMP JUMPDEST PUSH0 PUSH2 0x792 PUSH0 NOT DUP5 PUSH1 0x8 MUL PUSH2 0x777 JUMP JUMPDEST NOT DUP1 DUP4 AND SWAP2 POP POP SWAP3 SWAP2 POP POP JUMP JUMPDEST PUSH0 PUSH2 0x7AA DUP4 DUP4 PUSH2 0x783 JUMP JUMPDEST SWAP2 POP DUP3 PUSH1 0x2 MUL DUP3 OR SWAP1 POP SWAP3 SWAP2 POP POP JUMP JUMPDEST PUSH2 0x7C3 DUP3 PUSH2 0x5B6 JUMP JUMPDEST PUSH8 0xFFFFFFFFFFFFFFFF DUP2 GT ISZERO PUSH2 0x7DC JUMPI PUSH2 0x7DB PUSH2 0x247 JUMP JUMPDEST JUMPDEST PUSH2 0x7E6 DUP3 SLOAD PUSH2 0x5ED JUMP JUMPDEST PUSH2 0x7F1 DUP3 DUP3 DUP6 PUSH2 0x731 JUMP JUMPDEST PUSH0 PUSH1 0x20 SWAP1 POP PUSH1 0x1F DUP4 GT PUSH1 0x1 DUP2 EQ PUSH2 0x822 JUMPI PUSH0 DUP5 ISZERO PUSH2 0x810 JUMPI DUP3 DUP8 ADD MLOAD SWAP1 POP JUMPDEST PUSH2 0x81A DUP6 DUP3 PUSH2 0x79F JUMP JUMPDEST DUP7 SSTORE POP PUSH2 0x881 JUMP JUMPDEST PUSH1 0x1F NOT DUP5 AND PUSH2 0x830 DUP7 PUSH2 0x61D JUMP JUMPDEST PUSH0 JUMPDEST DUP3 DUP2 LT ISZERO PUSH2 0x857 JUMPI DUP5 DUP10 ADD MLOAD DUP3 SSTORE PUSH1 0x1 DUP3 ADD SWAP2 POP PUSH1 0x20 DUP6 ADD SWAP5 POP PUSH1 0x20 DUP2 ADD SWAP1 POP PUSH2 0x832 JUMP JUMPDEST DUP7 DUP4 LT ISZERO PUSH2 0x874 JUMPI DUP5 DUP10 ADD MLOAD PUSH2 0x870 PUSH1 0x1F DUP10 AND DUP3 PUSH2 0x783 JUMP JUMPDEST DUP4 SSTORE POP JUMPDEST PUSH1 0x1 PUSH1 0x2 DUP9 MUL ADD DUP9 SSTORE POP POP POP JUMPDEST POP POP POP POP POP POP JUMP JUMPDEST PUSH2 0x892 DUP2 PUSH2 0x44D JUMP JUMPDEST DUP3 MSTORE POP POP JUMP JUMPDEST PUSH0 PUSH1 0x20 DUP3 ADD SWAP1 POP PUSH2 0x8AB PUSH0 DUP4 ADD DUP5 PUSH2 0x889 JUMP JUMPDEST SWAP3 SWAP2 POP POP JUMP JUMPDEST PUSH2 0x2427 DUP1 PUSH2 0x8BE PUSH0 CODECOPY PUSH0 RETURN INVALID PUSH1 0x80 PUSH1 0x40 MSTORE PUSH1 0x4 CALLDATASIZE LT PUSH2 0x85 JUMPI PUSH0 CALLDATALOAD PUSH1 0xE0 SHR DUP1 PUSH4 0x31E7DEDE GT PUSH2 0x58 JUMPI DUP1 PUSH4 0x31E7DEDE EQ PUSH2 0x135 JUMPI DUP1 PUSH4 0x35BBE70E EQ PUSH2 0x162 JUMPI DUP1 PUSH4 0x7EEB4520 EQ PUSH2 0x18C JUMPI DUP1 PUSH4 0xD7BB99BA EQ PUSH2 0x1B6 JUMPI DUP1 PUSH4 0xDA58C7D9 EQ PUSH2 0x1C0 JUMPI PUSH2 0x85 JUMP JUMPDEST DUP1 PUSH4 0x121B93F EQ PUSH2 0x89 JUMPI DUP1 PUSH4 0x3C32278 EQ PUSH2 0xA5 JUMPI DUP1 PUSH4 0x9EEF43E EQ PUSH2 0xCF JUMPI DUP1 PUSH4 0xDC96015 EQ PUSH2 0x10B JUMPI JUMPDEST PUSH0 DUP1 REVERT JUMPDEST PUSH2 0xA3 PUSH1 0x4 DUP1 CALLDATASIZE SUB DUP2 ADD SWAP1 PUSH2 0x9E SWAP2 SWAP1 PUSH2 0x13F8 JUMP JUMPDEST PUSH2 0x1FC JUMP JUMPDEST STOP JUMPDEST CALLVALUE DUP1 ISZERO PUSH2 0xB0 JUMPI PUSH0 DUP1 REVERT JUMPDEST POP PUSH2 0xB9 PUSH2 0x625 JUMP JUMPDEST PUSH1 0x40 MLOAD PUSH2 0xC6 SWAP2 SWAP1 PUSH2 0x1493 JUMP JUMPDEST PUSH1 0x40 MLOAD DUP1 SWAP2 SUB SWAP1 RETURN JUMPDEST CALLVALUE DUP1 ISZERO PUSH2 0xDA JUMPI PUSH0 DUP1 REVERT JUMPDEST POP PUSH2 0xF5 PUSH1 0x4 DUP1 CALLDATASIZE SUB DUP2 ADD SWAP1 PUSH2 0xF0 SWAP2 SWAP1 PUSH2 0x150D JUMP JUMPDEST PUSH2 0x73E JUMP JUMPDEST PUSH1 0x40 MLOAD PUSH2 0x102 SWAP2 SWAP1 PUSH2 0x1552 JUMP JUMPDEST PUSH1 0x40 MLOAD DUP1 SWAP2 SUB SWAP1 RETURN JUMPDEST CALLVALUE DUP1 ISZERO PUSH2 0x116 JUMPI PUSH0 DUP1 REVERT JUMPDEST POP PUSH2 0x11F PUSH2 0x75B JUMP JUMPDEST PUSH1 0x40 MLOAD PUSH2 0x12C SWAP2 SWAP1 PUSH2 0x164F JUMP JUMPDEST PUSH1 0x40 MLOAD DUP1 SWAP2 SUB SWAP1 RETURN JUMPDEST CALLVALUE DUP1 ISZERO PUSH2 0x140 JUMPI PUSH0 DUP1 REVERT JUMPDEST POP PUSH2 0x149 PUSH2 0x92D JUMP JUMPDEST PUSH1 0x40 MLOAD PUSH2 0x159 SWAP5 SWAP4 SWAP3 SWAP2 SWAP1 PUSH2 0x16D9 JUMP JUMPDEST PUSH1 0x40 MLOAD DUP1 SWAP2 SUB SWAP1 RETURN JUMPDEST CALLVALUE DUP1 ISZERO PUSH2 0x16D JUMPI PUSH0 DUP1 REVERT JUMPDEST POP PUSH2 0x176 PUSH2 0xA74 JUMP JUMPDEST PUSH1 0x40 MLOAD PUSH2 0x183 SWAP2 SWAP1 PUSH2 0x17E1 JUMP JUMPDEST PUSH1 0x40 MLOAD DUP1 SWAP2 SUB SWAP1 RETURN JUMPDEST CALLVALUE DUP1 ISZERO PUSH2 0x197 JUMPI PUSH0 DUP1 REVERT JUMPDEST POP PUSH2 0x1A0 PUSH2 0xC37 JUMP JUMPDEST PUSH1 0x40 MLOAD PUSH2 0x1AD SWAP2 SWAP1 PUSH2 0x1801 JUMP JUMPDEST PUSH1 0x40 MLOAD DUP1 SWAP2 SUB SWAP1 RETURN JUMPDEST PUSH2 0x1BE PUSH2 0xEBC JUMP JUMPDEST STOP JUMPDEST CALLVALUE DUP1 ISZERO PUSH2 0x1CB JUMPI PUSH0 DUP1 REVERT JUMPDEST POP PUSH2 0x1E6 PUSH1 0x4 DUP1 CALLDATASIZE SUB DUP2 ADD SWAP1 PUSH2 0x1E1 SWAP2 SWAP1 PUSH2 0x13F8 JUMP JUMPDEST PUSH2 0x114F JUMP JUMPDEST PUSH1 0x40 MLOAD PUSH2 0x1F3 SWAP2 SWAP1 PUSH2 0x1829 JUMP JUMPDEST PUSH1 0x40 MLOAD DUP1 SWAP2 SUB SWAP1 RETURN JUMPDEST PUSH0 PUSH1 0x3 ADD SLOAD TIMESTAMP LT PUSH2 0x242 JUMPI PUSH1 0x40 MLOAD PUSH32 0x8C379A000000000000000000000000000000000000000000000000000000000 DUP2 MSTORE PUSH1 0x4 ADD PUSH2 0x239 SWAP1 PUSH2 0x188C JUMP JUMPDEST PUSH1 0x40 MLOAD DUP1 SWAP2 SUB SWAP1 REVERT JUMPDEST DUP1 PUSH0 PUSH1 0x2 ADD DUP1 SLOAD SWAP1 POP DUP2 LT PUSH2 0x28C JUMPI PUSH1 0x40 MLOAD PUSH32 0x8C379A000000000000000000000000000000000000000000000000000000000 DUP2 MSTORE PUSH1 0x4 ADD PUSH2 0x283 SWAP1 PUSH2 0x18F4 JUMP JUMPDEST PUSH1 0x40 MLOAD DUP1 SWAP2 SUB SWAP1 REVERT JUMPDEST PUSH0 CALLVALUE GT PUSH2 0x2CE JUMPI PUSH1 0x40 MLOAD PUSH32 0x8C379A000000000000000000000000000000000000000000000000000000000 DUP2 MSTORE PUSH1 0x4 ADD PUSH2 0x2C5 SWAP1 PUSH2 0x195C JUMP JUMPDEST PUSH1 0x40 MLOAD DUP1 SWAP2 SUB SWAP1 REVERT JUMPDEST PUSH1 0x5 PUSH0 CALLER PUSH20 0xFFFFFFFFFFFFFFFFFFFFFFFFFFFFFFFFFFFFFFFF AND PUSH20 0xFFFFFFFFFFFFFFFFFFFFFFFFFFFFFFFFFFFFFFFF AND DUP2 MSTORE PUSH1 0x20 ADD SWAP1 DUP2 MSTORE PUSH1 0x20 ADD PUSH0 KECCAK256 PUSH0 SWAP1 SLOAD SWAP1 PUSH2 0x100 EXP SWAP1 DIV PUSH1 0xFF AND ISZERO PUSH2 0x358 JUMPI PUSH1 0x40 MLOAD PUSH32 0x8C379A000000000000000000000000000000000000000000000000000000000 DUP2 MSTORE PUSH1 0x4 ADD PUSH2 0x34F SWAP1 PUSH2 0x19C4 JUMP JUMPDEST PUSH1 0x40 MLOAD DUP1 SWAP2 SUB SWAP1 REVERT JUMPDEST PUSH0 DUP1 PUSH1 0x4 ADD PUSH0 SWAP1 SLOAD SWAP1 PUSH2 0x100 EXP SWAP1 DIV PUSH20 0xFFFFFFFFFFFFFFFFFFFFFFFFFFFFFFFFFFFFFFFF AND PUSH20 0xFFFFFFFFFFFFFFFFFFFFFFFFFFFFFFFFFFFFFFFF AND PUSH4 0x913B722C PUSH1 0x40 MLOAD DUP2 PUSH4 0xFFFFFFFF AND PUSH1 0xE0 SHL DUP2 MSTORE PUSH1 0x4 ADD PUSH0 PUSH1 0x40 MLOAD DUP1 DUP4 SUB DUP2 DUP7 GAS STATICCALL ISZERO DUP1 ISZERO PUSH2 0x3C4 JUMPI RETURNDATASIZE PUSH0 DUP1 RETURNDATACOPY RETURNDATASIZE PUSH0 REVERT JUMPDEST POP POP POP POP PUSH1 0x40 MLOAD RETURNDATASIZE PUSH0 DUP3 RETURNDATACOPY RETURNDATASIZE PUSH1 0x1F NOT PUSH1 0x1F DUP3 ADD AND DUP3 ADD DUP1 PUSH1 0x40 MSTORE POP DUP2 ADD SWAP1 PUSH2 0x3EC SWAP2 SWAP1 PUSH2 0x1B5D JUMP JUMPDEST SWAP1 POP PUSH0 JUMPDEST DUP2 MLOAD DUP2 LT ISZERO PUSH2 0x48E JUMPI DUP2 DUP2 DUP2 MLOAD DUP2 LT PUSH2 0x40C JUMPI PUSH2 0x40B PUSH2 0x1BA4 JUMP JUMPDEST JUMPDEST PUSH1 0x20 MUL PUSH1 0x20 ADD ADD MLOAD PUSH20 0xFFFFFFFFFFFFFFFFFFFFFFFFFFFFFFFFFFFFFFFF AND CALLER PUSH20 0xFFFFFFFFFFFFFFFFFFFFFFFFFFFFFFFFFFFFFFFF AND SUB PUSH2 0x481 JUMPI PUSH1 0x40 MLOAD PUSH32 0x8C379A000000000000000000000000000000000000000000000000000000000 DUP2 MSTORE PUSH1 0x4 ADD PUSH2 0x478 SWAP1 PUSH2 0x1C1B JUMP JUMPDEST PUSH1 0x40 MLOAD DUP1 SWAP2 SUB SWAP1 REVERT JUMPDEST DUP1 DUP1 PUSH1 0x1 ADD SWAP2 POP POP PUSH2 0x3F0 JUMP JUMPDEST POP PUSH1 0x1 PUSH1 0x5 PUSH0 CALLER PUSH20 0xFFFFFFFFFFFFFFFFFFFFFFFFFFFFFFFFFFFFFFFF AND PUSH20 0xFFFFFFFFFFFFFFFFFFFFFFFFFFFFFFFFFFFFFFFF AND DUP2 MSTORE PUSH1 0x20 ADD SWAP1 DUP2 MSTORE PUSH1 0x20 ADD PUSH0 KECCAK256 PUSH0 PUSH2 0x100 EXP DUP2 SLOAD DUP2 PUSH1 0xFF MUL NOT AND SWAP1 DUP4 ISZERO ISZERO MUL OR SWAP1 SSTORE POP PUSH1 0x6 CALLER SWAP1 DUP1 PUSH1 0x1 DUP2 SLOAD ADD DUP1 DUP3 SSTORE DUP1 SWAP2 POP POP PUSH1 0x1 SWAP1 SUB SWAP1 PUSH0 MSTORE PUSH1 0x20 PUSH0 KECCAK256 ADD PUSH0 SWAP1 SWAP2 SWAP1 SWAP2 SWAP1 SWAP2 PUSH2 0x100 EXP DUP2 SLOAD DUP2 PUSH20 0xFFFFFFFFFFFFFFFFFFFFFFFFFFFFFFFFFFFFFFFF MUL NOT AND SWAP1 DUP4 PUSH20 0xFFFFFFFFFFFFFFFFFFFFFFFFFFFFFFFFFFFFFFFF AND MUL OR SWAP1 SSTORE POP PUSH0 PUSH1 0x4 ADD PUSH0 SWAP1 SLOAD SWAP1 PUSH2 0x100 EXP SWAP1 DIV PUSH20 0xFFFFFFFFFFFFFFFFFFFFFFFFFFFFFFFFFFFFFFFF AND PUSH20 0xFFFFFFFFFFFFFFFFFFFFFFFFFFFFFFFFFFFFFFFF AND PUSH4 0xFCCA991B CALLVALUE DUP6 CALLVALUE PUSH1 0x40 MLOAD DUP5 PUSH4 0xFFFFFFFF AND PUSH1 0xE0 SHL DUP2 MSTORE PUSH1 0x4 ADD PUSH2 0x5A3 SWAP3 SWAP2 SWAP1 PUSH2 0x1C39 JUMP JUMPDEST PUSH0 PUSH1 0x40 MLOAD DUP1 DUP4 SUB DUP2 DUP6 DUP9 DUP1 EXTCODESIZE ISZERO DUP1 ISZERO PUSH2 0x5BA JUMPI PUSH0 DUP1 REVERT JUMPDEST POP GAS CALL ISZERO DUP1 ISZERO PUSH2 0x5CC JUMPI RETURNDATASIZE PUSH0 DUP1 RETURNDATACOPY RETURNDATASIZE PUSH0 REVERT JUMPDEST POP POP POP POP POP DUP3 CALLER PUSH20 0xFFFFFFFFFFFFFFFFFFFFFFFFFFFFFFFFFFFFFFFF AND PUSH32 0xB4CFECF70861B7B150D8337780D34FB4CBC2114B5FB1FE51A5C5FCA1849F7274 CALLVALUE PUSH1 0x40 MLOAD PUSH2 0x618 SWAP2 SWAP1 PUSH2 0x1801 JUMP JUMPDEST PUSH1 0x40 MLOAD DUP1 SWAP2 SUB SWAP1 LOG3 POP POP POP JUMP JUMPDEST PUSH1 0x60 PUSH0 PUSH2 0x6FF PUSH0 PUSH1 0x2 ADD DUP1 SLOAD DUP1 PUSH1 0x20 MUL PUSH1 0x20 ADD PUSH1 0x40 MLOAD SWAP1 DUP2 ADD PUSH1 0x40 MSTORE DUP1 SWAP3 SWAP2 SWAP1 DUP2 DUP2 MSTORE PUSH1 0x20 ADD PUSH0 SWAP1 JUMPDEST DUP3 DUP3 LT ISZERO PUSH2 0x6F6 JUMPI DUP4 DUP3 SWAP1 PUSH0 MSTORE PUSH1 0x20 PUSH0 KECCAK256 ADD DUP1 SLOAD PUSH2 0x66B SWAP1 PUSH2 0x1C8D JUMP JUMPDEST DUP1 PUSH1 0x1F ADD PUSH1 0x20 DUP1 SWAP2 DIV MUL PUSH1 0x20 ADD PUSH1 0x40 MLOAD SWAP1 DUP2 ADD PUSH1 0x40 MSTORE DUP1 SWAP3 SWAP2 SWAP1 DUP2 DUP2 MSTORE PUSH1 0x20 ADD DUP3 DUP1 SLOAD PUSH2 0x697 SWAP1 PUSH2 0x1C8D JUMP JUMPDEST DUP1 ISZERO PUSH2 0x6E2 JUMPI DUP1 PUSH1 0x1F LT PUSH2 0x6B9 JUMPI PUSH2 0x100 DUP1 DUP4 SLOAD DIV MUL DUP4 MSTORE SWAP2 PUSH1 0x20 ADD SWAP2 PUSH2 0x6E2 JUMP JUMPDEST DUP3 ADD SWAP2 SWAP1 PUSH0 MSTORE PUSH1 0x20 PUSH0 KECCAK256 SWAP1 JUMPDEST DUP2 SLOAD DUP2 MSTORE SWAP1 PUSH1 0x1 ADD SWAP1 PUSH1 0x20 ADD DUP1 DUP4 GT PUSH2 0x6C5 JUMPI DUP3 SWAP1 SUB PUSH1 0x1F AND DUP3 ADD SWAP2 JUMPDEST POP POP POP POP POP DUP2 MSTORE PUSH1 0x20 ADD SWAP1 PUSH1 0x1 ADD SWAP1 PUSH2 0x64E JUMP JUMPDEST POP POP POP POP PUSH2 0x118A JUMP JUMPDEST SWAP1 POP PUSH0 DUP1 ADD PUSH0 PUSH1 0x1 ADD DUP3 PUSH2 0x716 PUSH0 PUSH1 0x3 ADD SLOAD PUSH2 0x1236 JUMP JUMPDEST PUSH1 0x40 MLOAD PUSH1 0x20 ADD PUSH2 0x729 SWAP5 SWAP4 SWAP3 SWAP2 SWAP1 PUSH2 0x1DD3 JUMP JUMPDEST PUSH1 0x40 MLOAD PUSH1 0x20 DUP2 DUP4 SUB SUB DUP2 MSTORE SWAP1 PUSH1 0x40 MSTORE SWAP2 POP POP SWAP1 JUMP JUMPDEST PUSH1 0x5 PUSH1 0x20 MSTORE DUP1 PUSH0 MSTORE PUSH1 0x40 PUSH0 KECCAK256 PUSH0 SWAP2 POP SLOAD SWAP1 PUSH2 0x100 EXP SWAP1 DIV PUSH1 0xFF AND DUP2 JUMP JUMPDEST PUSH1 0x60 PUSH0 DUP1 PUSH1 0x4 ADD PUSH0 SWAP1 SLOAD SWAP1 PUSH2 0x100 EXP SWAP1 DIV PUSH20 0xFFFFFFFFFFFFFFFFFFFFFFFFFFFFFFFFFFFFFFFF AND PUSH20 0xFFFFFFFFFFFFFFFFFFFFFFFFFFFFFFFFFFFFFFFF AND PUSH4 0x913B722C PUSH1 0x40 MLOAD DUP2 PUSH4 0xFFFFFFFF AND PUSH1 0xE0 SHL DUP2 MSTORE PUSH1 0x4 ADD PUSH0 PUSH1 0x40 MLOAD DUP1 DUP4 SUB DUP2 DUP7 GAS STATICCALL ISZERO DUP1 ISZERO PUSH2 0x7C9 JUMPI RETURNDATASIZE PUSH0 DUP1 RETURNDATACOPY RETURNDATASIZE PUSH0 REVERT JUMPDEST POP POP POP POP PUSH1 0x40 MLOAD RETURNDATASIZE PUSH0 DUP3 RETURNDATACOPY RETURNDATASIZE PUSH1 0x1F NOT PUSH1 0x1F DUP3 ADD AND DUP3 ADD DUP1 PUSH1 0x40 MSTORE POP DUP2 ADD SWAP1 PUSH2 0x7F1 SWAP2 SWAP1 PUSH2 0x1B5D JUMP JUMPDEST SWAP1 POP PUSH0 JUMPDEST DUP2 MLOAD DUP2 LT ISZERO PUSH2 0x893 JUMPI DUP2 DUP2 DUP2 MLOAD DUP2 LT PUSH2 0x811 JUMPI PUSH2 0x810 PUSH2 0x1BA4 JUMP JUMPDEST JUMPDEST PUSH1 0x20 MUL PUSH1 0x20 ADD ADD MLOAD PUSH20 0xFFFFFFFFFFFFFFFFFFFFFFFFFFFFFFFFFFFFFFFF AND CALLER PUSH20 0xFFFFFFFFFFFFFFFFFFFFFFFFFFFFFFFFFFFFFFFF AND EQ PUSH2 0x886 JUMPI PUSH1 0x40 MLOAD PUSH32 0x8C379A000000000000000000000000000000000000000000000000000000000 DUP2 MSTORE PUSH1 0x4 ADD PUSH2 0x87D SWAP1 PUSH2 0x1EA1 JUMP JUMPDEST PUSH1 0x40 MLOAD DUP1 SWAP2 SUB SWAP1 REVERT JUMPDEST DUP1 DUP1 PUSH1 0x1 ADD SWAP2 POP POP PUSH2 0x7F5 JUMP JUMPDEST POP PUSH0 PUSH1 0x4 ADD PUSH0 SWAP1 SLOAD SWAP1 PUSH2 0x100 EXP SWAP1 DIV PUSH20 0xFFFFFFFFFFFFFFFFFFFFFFFFFFFFFFFFFFFFFFFF AND PUSH20 0xFFFFFFFFFFFFFFFFFFFFFFFFFFFFFFFFFFFFFFFF AND PUSH4 0xF01870B PUSH1 0x40 MLOAD DUP2 PUSH4 0xFFFFFFFF AND PUSH1 0xE0 SHL DUP2 MSTORE PUSH1 0x4 ADD PUSH0 PUSH1 0x40 MLOAD DUP1 DUP4 SUB DUP2 DUP7 GAS STATICCALL ISZERO DUP1 ISZERO PUSH2 0x8FF JUMPI RETURNDATASIZE PUSH0 DUP1 RETURNDATACOPY RETURNDATASIZE PUSH0 REVERT JUMPDEST POP POP POP POP PUSH1 0x40 MLOAD RETURNDATASIZE PUSH0 DUP3 RETURNDATACOPY RETURNDATASIZE PUSH1 0x1F NOT PUSH1 0x1F DUP3 ADD AND DUP3 ADD DUP1 PUSH1 0x40 MSTORE POP DUP2 ADD SWAP1 PUSH2 0x927 SWAP2 SWAP1 PUSH2 0x1FE4 JUMP JUMPDEST SWAP2 POP POP SWAP1 JUMP JUMPDEST PUSH0 DUP1 PUSH0 ADD DUP1 SLOAD PUSH2 0x93C SWAP1 PUSH2 0x1C8D JUMP JUMPDEST DUP1 PUSH1 0x1F ADD PUSH1 0x20 DUP1 SWAP2 DIV MUL PUSH1 0x20 ADD PUSH1 0x40 MLOAD SWAP1 DUP2 ADD PUSH1 0x40 MSTORE DUP1 SWAP3 SWAP2 SWAP1 DUP2 DUP2 MSTORE PUSH1 0x20 ADD DUP3 DUP1 SLOAD PUSH2 0x968 SWAP1 PUSH2 0x1C8D JUMP JUMPDEST DUP1 ISZERO PUSH2 0x9B3 JUMPI DUP1 PUSH1 0x1F LT PUSH2 0x98A JUMPI PUSH2 0x100 DUP1 DUP4 SLOAD DIV MUL DUP4 MSTORE SWAP2 PUSH1 0x20 ADD SWAP2 PUSH2 0x9B3 JUMP JUMPDEST DUP3 ADD SWAP2 SWAP1 PUSH0 MSTORE PUSH1 0x20 PUSH0 KECCAK256 SWAP1 JUMPDEST DUP2 SLOAD DUP2 MSTORE SWAP1 PUSH1 0x1 ADD SWAP1 PUSH1 0x20 ADD DUP1 DUP4 GT PUSH2 0x996 JUMPI DUP3 SWAP1 SUB PUSH1 0x1F AND DUP3 ADD SWAP2 JUMPDEST POP POP POP POP POP SWAP1 DUP1 PUSH1 0x1 ADD DUP1 SLOAD PUSH2 0x9C8 SWAP1 PUSH2 0x1C8D JUMP JUMPDEST DUP1 PUSH1 0x1F ADD PUSH1 0x20 DUP1 SWAP2 DIV MUL PUSH1 0x20 ADD PUSH1 0x40 MLOAD SWAP1 DUP2 ADD PUSH1 0x40 MSTORE DUP1 SWAP3 SWAP2 SWAP1 DUP2 DUP2 MSTORE PUSH1 0x20 ADD DUP3 DUP1 SLOAD PUSH2 0x9F4 SWAP1 PUSH2 0x1C8D JUMP JUMPDEST DUP1 ISZERO PUSH2 0xA3F JUMPI DUP1 PUSH1 0x1F LT PUSH2 0xA16 JUMPI PUSH2 0x100 DUP1 DUP4 SLOAD DIV MUL DUP4 MSTORE SWAP2 PUSH1 0x20 ADD SWAP2 PUSH2 0xA3F JUMP JUMPDEST DUP3 ADD SWAP2 SWAP1 PUSH0 MSTORE PUSH1 0x20 PUSH0 KECCAK256 SWAP1 JUMPDEST DUP2 SLOAD DUP2 MSTORE SWAP1 PUSH1 0x1 ADD SWAP1 PUSH1 0x20 ADD DUP1 DUP4 GT PUSH2 0xA22 JUMPI DUP3 SWAP1 SUB PUSH1 0x1F AND DUP3 ADD SWAP2 JUMPDEST POP POP POP POP POP SWAP1 DUP1 PUSH1 0x3 ADD SLOAD SWAP1 DUP1 PUSH1 0x4 ADD PUSH0 SWAP1 SLOAD SWAP1 PUSH2 0x100 EXP SWAP1 DIV PUSH20 0xFFFFFFFFFFFFFFFFFFFFFFFFFFFFFFFFFFFFFFFF AND SWAP1 POP DUP5 JUMP JUMPDEST PUSH1 0x60 PUSH0 DUP1 PUSH1 0x4 ADD PUSH0 SWAP1 SLOAD SWAP1 PUSH2 0x100 EXP SWAP1 DIV PUSH20 0xFFFFFFFFFFFFFFFFFFFFFFFFFFFFFFFFFFFFFFFF AND PUSH20 0xFFFFFFFFFFFFFFFFFFFFFFFFFFFFFFFFFFFFFFFF AND PUSH4 0x913B722C PUSH1 0x40 MLOAD DUP2 PUSH4 0xFFFFFFFF AND PUSH1 0xE0 SHL DUP2 MSTORE PUSH1 0x4 ADD PUSH0 PUSH1 0x40 MLOAD DUP1 DUP4 SUB DUP2 DUP7 GAS STATICCALL ISZERO DUP1 ISZERO PUSH2 0xAE2 JUMPI RETURNDATASIZE PUSH0 DUP1 RETURNDATACOPY RETURNDATASIZE PUSH0 REVERT JUMPDEST POP POP POP POP PUSH1 0x40 MLOAD RETURNDATASIZE PUSH0 DUP3 RETURNDATACOPY RETURNDATASIZE PUSH1 0x1F NOT PUSH1 0x1F DUP3 ADD AND DUP3 ADD DUP1 PUSH1 0x40 MSTORE POP DUP2 ADD SWAP1 PUSH2 0xB0A SWAP2 SWAP1 PUSH2 0x1B5D JUMP JUMPDEST SWAP1 POP PUSH0 JUMPDEST DUP2 MLOAD DUP2 LT ISZERO PUSH2 0xBAC JUMPI DUP2 DUP2 DUP2 MLOAD DUP2 LT PUSH2 0xB2A JUMPI PUSH2 0xB29 PUSH2 0x1BA4 JUMP JUMPDEST JUMPDEST PUSH1 0x20 MUL PUSH1 0x20 ADD ADD MLOAD PUSH20 0xFFFFFFFFFFFFFFFFFFFFFFFFFFFFFFFFFFFFFFFF AND CALLER PUSH20 0xFFFFFFFFFFFFFFFFFFFFFFFFFFFFFFFFFFFFFFFF AND EQ PUSH2 0xB9F JUMPI PUSH1 0x40 MLOAD PUSH32 0x8C379A000000000000000000000000000000000000000000000000000000000 DUP2 MSTORE PUSH1 0x4 ADD PUSH2 0xB96 SWAP1 PUSH2 0x1EA1 JUMP JUMPDEST PUSH1 0x40 MLOAD DUP1 SWAP2 SUB SWAP1 REVERT JUMPDEST DUP1 DUP1 PUSH1 0x1 ADD SWAP2 POP POP PUSH2 0xB0E JUMP JUMPDEST POP PUSH1 0x6 DUP1 SLOAD DUP1 PUSH1 0x20 MUL PUSH1 0x20 ADD PUSH1 0x40 MLOAD SWAP1 DUP2 ADD PUSH1 0x40 MSTORE DUP1 SWAP3 SWAP2 SWAP1 DUP2 DUP2 MSTORE PUSH1 0x20 ADD DUP3 DUP1 SLOAD DUP1 ISZERO PUSH2 0xC2C JUMPI PUSH1 0x20 MUL DUP3 ADD SWAP2 SWAP1 PUSH0 MSTORE PUSH1 0x20 PUSH0 KECCAK256 SWAP1 JUMPDEST DUP2 PUSH0 SWAP1 SLOAD SWAP1 PUSH2 0x100 EXP SWAP1 DIV PUSH20 0xFFFFFFFFFFFFFFFFFFFFFFFFFFFFFFFFFFFFFFFF AND PUSH20 0xFFFFFFFFFFFFFFFFFFFFFFFFFFFFFFFFFFFFFFFF AND DUP2 MSTORE PUSH1 0x20 ADD SWAP1 PUSH1 0x1 ADD SWAP1 DUP1 DUP4 GT PUSH2 0xBE3 JUMPI JUMPDEST POP POP POP POP POP SWAP2 POP POP SWAP1 JUMP JUMPDEST PUSH0 DUP1 PUSH1 0x3 ADD SLOAD TIMESTAMP LT ISZERO PUSH2 0xC7F JUMPI PUSH1 0x40 MLOAD PUSH32 0x8C379A000000000000000000000000000000000000000000000000000000000 DUP2 MSTORE PUSH1 0x4 ADD PUSH2 0xC76 SWAP1 PUSH2 0x2075 JUMP JUMPDEST PUSH1 0x40 MLOAD DUP1 SWAP2 SUB SWAP1 REVERT JUMPDEST PUSH0 DUP1 PUSH1 0x4 ADD PUSH0 SWAP1 SLOAD SWAP1 PUSH2 0x100 EXP SWAP1 DIV PUSH20 0xFFFFFFFFFFFFFFFFFFFFFFFFFFFFFFFFFFFFFFFF AND PUSH20 0xFFFFFFFFFFFFFFFFFFFFFFFFFFFFFFFFFFFFFFFF AND PUSH4 0x913B722C PUSH1 0x40 MLOAD DUP2 PUSH4 0xFFFFFFFF AND PUSH1 0xE0 SHL DUP2 MSTORE PUSH1 0x4 ADD PUSH0 PUSH1 0x40 MLOAD DUP1 DUP4 SUB DUP2 DUP7 GAS STATICCALL ISZERO DUP1 ISZERO PUSH2 0xCEB JUMPI RETURNDATASIZE PUSH0 DUP1 RETURNDATACOPY RETURNDATASIZE PUSH0 REVERT JUMPDEST POP POP POP POP PUSH1 0x40 MLOAD RETURNDATASIZE PUSH0 DUP3 RETURNDATACOPY RETURNDATASIZE PUSH1 0x1F NOT PUSH1 0x1F DUP3 ADD AND DUP3 ADD DUP1 PUSH1 0x40 MSTORE POP DUP2 ADD SWAP1 PUSH2 0xD13 SWAP2 SWAP1 PUSH2 0x1B5D JUMP JUMPDEST SWAP1 POP PUSH0 JUMPDEST DUP2 MLOAD DUP2 LT ISZERO PUSH2 0xDB5 JUMPI DUP2 DUP2 DUP2 MLOAD DUP2 LT PUSH2 0xD33 JUMPI PUSH2 0xD32 PUSH2 0x1BA4 JUMP JUMPDEST JUMPDEST PUSH1 0x20 MUL PUSH1 0x20 ADD ADD MLOAD PUSH20 0xFFFFFFFFFFFFFFFFFFFFFFFFFFFFFFFFFFFFFFFF AND CALLER PUSH20 0xFFFFFFFFFFFFFFFFFFFFFFFFFFFFFFFFFFFFFFFF AND EQ PUSH2 0xDA8 JUMPI PUSH1 0x40 MLOAD PUSH32 0x8C379A000000000000000000000000000000000000000000000000000000000 DUP2 MSTORE PUSH1 0x4 ADD PUSH2 0xD9F SWAP1 PUSH2 0x1EA1 JUMP JUMPDEST PUSH1 0x40 MLOAD DUP1 SWAP2 SUB SWAP1 REVERT JUMPDEST DUP1 DUP1 PUSH1 0x1 ADD SWAP2 POP POP PUSH2 0xD17 JUMP JUMPDEST POP PUSH0 DUP1 PUSH1 0x4 ADD PUSH0 SWAP1 SLOAD SWAP1 PUSH2 0x100 EXP SWAP1 DIV PUSH20 0xFFFFFFFFFFFFFFFFFFFFFFFFFFFFFFFFFFFFFFFF AND PUSH20 0xFFFFFFFFFFFFFFFFFFFFFFFFFFFFFFFFFFFFFFFF AND PUSH4 0xF01870B PUSH1 0x40 MLOAD DUP2 PUSH4 0xFFFFFFFF AND PUSH1 0xE0 SHL DUP2 MSTORE PUSH1 0x4 ADD PUSH0 PUSH1 0x40 MLOAD DUP1 DUP4 SUB DUP2 DUP7 GAS STATICCALL ISZERO DUP1 ISZERO PUSH2 0xE22 JUMPI RETURNDATASIZE PUSH0 DUP1 RETURNDATACOPY RETURNDATASIZE PUSH0 REVERT JUMPDEST POP POP POP POP PUSH1 0x40 MLOAD RETURNDATASIZE PUSH0 DUP3 RETURNDATACOPY RETURNDATASIZE PUSH1 0x1F NOT PUSH1 0x1F DUP3 ADD AND DUP3 ADD DUP1 PUSH1 0x40 MSTORE POP DUP2 ADD SWAP1 PUSH2 0xE4A SWAP2 SWAP1 PUSH2 0x1FE4 JUMP JUMPDEST SWAP1 POP PUSH0 DUP1 PUSH0 JUMPDEST DUP4 MLOAD DUP2 LT ISZERO PUSH2 0xEB1 JUMPI DUP2 DUP5 DUP3 DUP2 MLOAD DUP2 LT PUSH2 0xE6D JUMPI PUSH2 0xE6C PUSH2 0x1BA4 JUMP JUMPDEST JUMPDEST PUSH1 0x20 MUL PUSH1 0x20 ADD ADD MLOAD PUSH1 0x20 ADD MLOAD GT ISZERO PUSH2 0xEA4 JUMPI DUP4 DUP2 DUP2 MLOAD DUP2 LT PUSH2 0xE92 JUMPI PUSH2 0xE91 PUSH2 0x1BA4 JUMP JUMPDEST JUMPDEST PUSH1 0x20 MUL PUSH1 0x20 ADD ADD MLOAD PUSH1 0x20 ADD MLOAD SWAP2 POP DUP1 SWAP3 POP JUMPDEST DUP1 DUP1 PUSH1 0x1 ADD SWAP2 POP POP PUSH2 0xE50 JUMP JUMPDEST POP DUP2 SWAP5 POP POP POP POP POP SWAP1 JUMP JUMPDEST PUSH0 PUSH1 0x3 ADD SLOAD TIMESTAMP LT PUSH2 0xF02 JUMPI PUSH1 0x40 MLOAD PUSH32 0x8C379A000000000000000000000000000000000000000000000000000000000 DUP2 MSTORE PUSH1 0x4 ADD PUSH2 0xEF9 SWAP1 PUSH2 0x188C JUMP JUMPDEST PUSH1 0x40 MLOAD DUP1 SWAP2 SUB SWAP1 REVERT JUMPDEST PUSH0 CALLVALUE GT PUSH2 0xF44 JUMPI PUSH1 0x40 MLOAD PUSH32 0x8C379A000000000000000000000000000000000000000000000000000000000 DUP2 MSTORE PUSH1 0x4 ADD PUSH2 0xF3B SWAP1 PUSH2 0x195C JUMP JUMPDEST PUSH1 0x40 MLOAD DUP1 SWAP2 SUB SWAP1 REVERT JUMPDEST PUSH0 DUP1 PUSH1 0x4 ADD PUSH0 SWAP1 SLOAD SWAP1 PUSH2 0x100 EXP SWAP1 DIV PUSH20 0xFFFFFFFFFFFFFFFFFFFFFFFFFFFFFFFFFFFFFFFF AND PUSH20 0xFFFFFFFFFFFFFFFFFFFFFFFFFFFFFFFFFFFFFFFF AND PUSH4 0x913B722C PUSH1 0x40 MLOAD DUP2 PUSH4 0xFFFFFFFF AND PUSH1 0xE0 SHL DUP2 MSTORE PUSH1 0x4 ADD PUSH0 PUSH1 0x40 MLOAD DUP1 DUP4 SUB DUP2 DUP7 GAS STATICCALL ISZERO DUP1 ISZERO PUSH2 0xFB0 JUMPI RETURNDATASIZE PUSH0 DUP1 RETURNDATACOPY RETURNDATASIZE PUSH0 REVERT JUMPDEST POP POP POP POP PUSH1 0x40 MLOAD RETURNDATASIZE PUSH0 DUP3 RETURNDATACOPY RETURNDATASIZE PUSH1 0x1F NOT PUSH1 0x1F DUP3 ADD AND DUP3 ADD DUP1 PUSH1 0x40 MSTORE POP DUP2 ADD SWAP1 PUSH2 0xFD8 SWAP2 SWAP1 PUSH2 0x1B5D JUMP JUMPDEST SWAP1 POP PUSH0 JUMPDEST DUP2 MLOAD DUP2 LT ISZERO PUSH2 0x107A JUMPI DUP2 DUP2 DUP2 MLOAD DUP2 LT PUSH2 0xFF8 JUMPI PUSH2 0xFF7 PUSH2 0x1BA4 JUMP JUMPDEST JUMPDEST PUSH1 0x20 MUL PUSH1 0x20 ADD ADD MLOAD PUSH20 0xFFFFFFFFFFFFFFFFFFFFFFFFFFFFFFFFFFFFFFFF AND CALLER PUSH20 0xFFFFFFFFFFFFFFFFFFFFFFFFFFFFFFFFFFFFFFFF AND SUB PUSH2 0x106D JUMPI PUSH1 0x40 MLOAD PUSH32 0x8C379A000000000000000000000000000000000000000000000000000000000 DUP2 MSTORE PUSH1 0x4 ADD PUSH2 0x1064 SWAP1 PUSH2 0x20DD JUMP JUMPDEST PUSH1 0x40 MLOAD DUP1 SWAP2 SUB SWAP1 REVERT JUMPDEST DUP1 DUP1 PUSH1 0x1 ADD SWAP2 POP POP PUSH2 0xFDC JUMP JUMPDEST POP PUSH0 CALLVALUE SWAP1 POP PUSH0 DUP1 PUSH1 0x4 ADD PUSH0 SWAP1 SLOAD SWAP1 PUSH2 0x100 EXP SWAP1 DIV PUSH20 0xFFFFFFFFFFFFFFFFFFFFFFFFFFFFFFFFFFFFFFFF AND PUSH20 0xFFFFFFFFFFFFFFFFFFFFFFFFFFFFFFFFFFFFFFFF AND DUP3 PUSH1 0x40 MLOAD PUSH2 0x10C7 SWAP1 PUSH2 0x2128 JUMP JUMPDEST PUSH0 PUSH1 0x40 MLOAD DUP1 DUP4 SUB DUP2 DUP6 DUP8 GAS CALL SWAP3 POP POP POP RETURNDATASIZE DUP1 PUSH0 DUP2 EQ PUSH2 0x1101 JUMPI PUSH1 0x40 MLOAD SWAP2 POP PUSH1 0x1F NOT PUSH1 0x3F RETURNDATASIZE ADD AND DUP3 ADD PUSH1 0x40 MSTORE RETURNDATASIZE DUP3 MSTORE RETURNDATASIZE PUSH0 PUSH1 0x20 DUP5 ADD RETURNDATACOPY PUSH2 0x1106 JUMP JUMPDEST PUSH1 0x60 SWAP2 POP JUMPDEST POP POP SWAP1 POP DUP1 PUSH2 0x114A JUMPI PUSH1 0x40 MLOAD PUSH32 0x8C379A000000000000000000000000000000000000000000000000000000000 DUP2 MSTORE PUSH1 0x4 ADD PUSH2 0x1141 SWAP1 PUSH2 0x2186 JUMP JUMPDEST PUSH1 0x40 MLOAD DUP1 SWAP2 SUB SWAP1 REVERT JUMPDEST POP POP POP JUMP JUMPDEST PUSH1 0x6 DUP2 DUP2 SLOAD DUP2 LT PUSH2 0x115E JUMPI PUSH0 DUP1 REVERT JUMPDEST SWAP1 PUSH0 MSTORE PUSH1 0x20 PUSH0 KECCAK256 ADD PUSH0 SWAP2 POP SLOAD SWAP1 PUSH2 0x100 EXP SWAP1 DIV PUSH20 0xFFFFFFFFFFFFFFFFFFFFFFFFFFFFFFFFFFFFFFFF AND DUP2 JUMP JUMPDEST PUSH1 0x60 PUSH0 PUSH1 0x40 MLOAD DUP1 PUSH1 0x20 ADD PUSH1 0x40 MSTORE DUP1 PUSH0 DUP2 MSTORE POP SWAP1 POP PUSH0 JUMPDEST DUP4 MLOAD DUP2 LT ISZERO PUSH2 0x122C JUMPI DUP2 DUP5 DUP3 DUP2 MLOAD DUP2 LT PUSH2 0x11BD JUMPI PUSH2 0x11BC PUSH2 0x1BA4 JUMP JUMPDEST JUMPDEST PUSH1 0x20 MUL PUSH1 0x20 ADD ADD MLOAD PUSH1 0x40 MLOAD PUSH1 0x20 ADD PUSH2 0x11D6 SWAP3 SWAP2 SWAP1 PUSH2 0x21DE JUMP JUMPDEST PUSH1 0x40 MLOAD PUSH1 0x20 DUP2 DUP4 SUB SUB DUP2 MSTORE SWAP1 PUSH1 0x40 MSTORE SWAP2 POP PUSH1 0x1 DUP5 MLOAD PUSH2 0x11F5 SWAP2 SWAP1 PUSH2 0x222E JUMP JUMPDEST DUP2 LT ISZERO PUSH2 0x121F JUMPI DUP2 PUSH1 0x40 MLOAD PUSH1 0x20 ADD PUSH2 0x120D SWAP2 SWAP1 PUSH2 0x22AB JUMP JUMPDEST PUSH1 0x40 MLOAD PUSH1 0x20 DUP2 DUP4 SUB SUB DUP2 MSTORE SWAP1 PUSH1 0x40 MSTORE SWAP2 POP JUMPDEST DUP1 DUP1 PUSH1 0x1 ADD SWAP2 POP POP PUSH2 0x11A0 JUMP JUMPDEST POP DUP1 SWAP2 POP POP SWAP2 SWAP1 POP JUMP JUMPDEST PUSH1 0x60 PUSH0 DUP3 SUB PUSH2 0x127C JUMPI PUSH1 0x40 MLOAD DUP1 PUSH1 0x40 ADD PUSH1 0x40 MSTORE DUP1 PUSH1 0x1 DUP2 MSTORE PUSH1 0x20 ADD PUSH32 0x3000000000000000000000000000000000000000000000000000000000000000 DUP2 MSTORE POP SWAP1 POP PUSH2 0x13AF JUMP JUMPDEST PUSH0 DUP3 SWAP1 POP PUSH0 JUMPDEST PUSH0 DUP3 EQ PUSH2 0x12AB JUMPI DUP1 DUP1 PUSH2 0x1294 SWAP1 PUSH2 0x22CC JUMP JUMPDEST SWAP2 POP POP PUSH1 0xA DUP3 PUSH2 0x12A4 SWAP2 SWAP1 PUSH2 0x2340 JUMP JUMPDEST SWAP2 POP PUSH2 0x1282 JUMP JUMPDEST PUSH0 DUP2 PUSH8 0xFFFFFFFFFFFFFFFF DUP2 GT ISZERO PUSH2 0x12C6 JUMPI PUSH2 0x12C5 PUSH2 0x19E6 JUMP JUMPDEST JUMPDEST PUSH1 0x40 MLOAD SWAP1 DUP1 DUP3 MSTORE DUP1 PUSH1 0x1F ADD PUSH1 0x1F NOT AND PUSH1 0x20 ADD DUP3 ADD PUSH1 0x40 MSTORE DUP1 ISZERO PUSH2 0x12F8 JUMPI DUP2 PUSH1 0x20 ADD PUSH1 0x1 DUP3 MUL DUP1 CALLDATASIZE DUP4 CALLDATACOPY DUP1 DUP3 ADD SWAP2 POP POP SWAP1 POP JUMPDEST POP SWAP1 POP PUSH0 DUP3 SWAP1 POP JUMPDEST PUSH0 DUP7 EQ PUSH2 0x13A7 JUMPI PUSH1 0x1 DUP2 PUSH2 0x1314 SWAP2 SWAP1 PUSH2 0x222E JUMP JUMPDEST SWAP1 POP PUSH0 PUSH1 0xA DUP1 DUP9 PUSH2 0x1325 SWAP2 SWAP1 PUSH2 0x2340 JUMP JUMPDEST PUSH2 0x132F SWAP2 SWAP1 PUSH2 0x2370 JUMP JUMPDEST DUP8 PUSH2 0x133A SWAP2 SWAP1 PUSH2 0x222E JUMP JUMPDEST PUSH1 0x30 PUSH2 0x1346 SWAP2 SWAP1 PUSH2 0x23BD JUMP JUMPDEST SWAP1 POP PUSH0 DUP2 PUSH1 0xF8 SHL SWAP1 POP DUP1 DUP5 DUP5 DUP2 MLOAD DUP2 LT PUSH2 0x1363 JUMPI PUSH2 0x1362 PUSH2 0x1BA4 JUMP JUMPDEST JUMPDEST PUSH1 0x20 ADD ADD SWAP1 PUSH31 0xFFFFFFFFFFFFFFFFFFFFFFFFFFFFFFFFFFFFFFFFFFFFFFFFFFFFFFFFFFFFFF NOT AND SWAP1 DUP2 PUSH0 BYTE SWAP1 MSTORE8 POP PUSH1 0xA DUP9 PUSH2 0x139E SWAP2 SWAP1 PUSH2 0x2340 JUMP JUMPDEST SWAP8 POP POP POP PUSH2 0x1300 JUMP JUMPDEST DUP2 SWAP5 POP POP POP POP POP JUMPDEST SWAP2 SWAP1 POP JUMP JUMPDEST PUSH0 PUSH1 0x40 MLOAD SWAP1 POP SWAP1 JUMP JUMPDEST PUSH0 DUP1 REVERT JUMPDEST PUSH0 DUP1 REVERT JUMPDEST PUSH0 DUP2 SWAP1 POP SWAP2 SWAP1 POP JUMP JUMPDEST PUSH2 0x13D7 DUP2 PUSH2 0x13C5 JUMP JUMPDEST DUP2 EQ PUSH2 0x13E1 JUMPI PUSH0 DUP1 REVERT JUMPDEST POP JUMP JUMPDEST PUSH0 DUP2 CALLDATALOAD SWAP1 POP PUSH2 0x13F2 DUP2 PUSH2 0x13CE JUMP JUMPDEST SWAP3 SWAP2 POP POP JUMP JUMPDEST PUSH0 PUSH1 0x20 DUP3 DUP5 SUB SLT ISZERO PUSH2 0x140D JUMPI PUSH2 0x140C PUSH2 0x13BD JUMP JUMPDEST JUMPDEST PUSH0 PUSH2 0x141A DUP5 DUP3 DUP6 ADD PUSH2 0x13E4 JUMP JUMPDEST SWAP2 POP POP SWAP3 SWAP2 POP POP JUMP JUMPDEST PUSH0 DUP2 MLOAD SWAP1 POP SWAP2 SWAP1 POP JUMP JUMPDEST PUSH0 DUP3 DUP3 MSTORE PUSH1 0x20 DUP3 ADD SWAP1 POP SWAP3 SWAP2 POP POP JUMP JUMPDEST DUP3 DUP2 DUP4 MCOPY PUSH0 DUP4 DUP4 ADD MSTORE POP POP POP JUMP JUMPDEST PUSH0 PUSH1 0x1F NOT PUSH1 0x1F DUP4 ADD AND SWAP1 POP SWAP2 SWAP1 POP JUMP JUMPDEST PUSH0 PUSH2 0x1465 DUP3 PUSH2 0x1423 JUMP JUMPDEST PUSH2 0x146F DUP2 DUP6 PUSH2 0x142D JUMP JUMPDEST SWAP4 POP PUSH2 0x147F DUP2 DUP6 PUSH1 0x20 DUP7 ADD PUSH2 0x143D JUMP JUMPDEST PUSH2 0x1488 DUP2 PUSH2 0x144B JUMP JUMPDEST DUP5 ADD SWAP2 POP POP SWAP3 SWAP2 POP POP JUMP JUMPDEST PUSH0 PUSH1 0x20 DUP3 ADD SWAP1 POP DUP2 DUP2 SUB PUSH0 DUP4 ADD MSTORE PUSH2 0x14AB DUP2 DUP5 PUSH2 0x145B JUMP JUMPDEST SWAP1 POP SWAP3 SWAP2 POP POP JUMP JUMPDEST PUSH0 PUSH20 0xFFFFFFFFFFFFFFFFFFFFFFFFFFFFFFFFFFFFFFFF DUP3 AND SWAP1 POP SWAP2 SWAP1 POP JUMP JUMPDEST PUSH0 PUSH2 0x14DC DUP3 PUSH2 0x14B3 JUMP JUMPDEST SWAP1 POP SWAP2 SWAP1 POP JUMP JUMPDEST PUSH2 0x14EC DUP2 PUSH2 0x14D2 JUMP JUMPDEST DUP2 EQ PUSH2 0x14F6 JUMPI PUSH0 DUP1 REVERT JUMPDEST POP JUMP JUMPDEST PUSH0 DUP2 CALLDATALOAD SWAP1 POP PUSH2 0x1507 DUP2 PUSH2 0x14E3 JUMP JUMPDEST SWAP3 SWAP2 POP POP JUMP JUMPDEST PUSH0 PUSH1 0x20 DUP3 DUP5 SUB SLT ISZERO PUSH2 0x1522 JUMPI PUSH2 0x1521 PUSH2 0x13BD JUMP JUMPDEST JUMPDEST PUSH0 PUSH2 0x152F DUP5 DUP3 DUP6 ADD PUSH2 0x14F9 JUMP JUMPDEST SWAP2 POP POP SWAP3 SWAP2 POP POP JUMP JUMPDEST PUSH0 DUP2 ISZERO ISZERO SWAP1 POP SWAP2 SWAP1 POP JUMP JUMPDEST PUSH2 0x154C DUP2 PUSH2 0x1538 JUMP JUMPDEST DUP3 MSTORE POP POP JUMP JUMPDEST PUSH0 PUSH1 0x20 DUP3 ADD SWAP1 POP PUSH2 0x1565 PUSH0 DUP4 ADD DUP5 PUSH2 0x1543 JUMP JUMPDEST SWAP3 SWAP2 POP POP JUMP JUMPDEST PUSH0 DUP2 MLOAD SWAP1 POP SWAP2 SWAP1 POP JUMP JUMPDEST PUSH0 DUP3 DUP3 MSTORE PUSH1 0x20 DUP3 ADD SWAP1 POP SWAP3 SWAP2 POP POP JUMP JUMPDEST PUSH0 DUP2 SWAP1 POP PUSH1 0x20 DUP3 ADD SWAP1 POP SWAP2 SWAP1 POP JUMP JUMPDEST PUSH2 0x159D DUP2 PUSH2 0x13C5 JUMP JUMPDEST DUP3 MSTORE POP POP JUMP JUMPDEST PUSH1 0x40 DUP3 ADD PUSH0 DUP3 ADD MLOAD PUSH2 0x15B7 PUSH0 DUP6 ADD DUP3 PUSH2 0x1594 JUMP JUMPDEST POP PUSH1 0x20 DUP3 ADD MLOAD PUSH2 0x15CA PUSH1 0x20 DUP6 ADD DUP3 PUSH2 0x1594 JUMP JUMPDEST POP POP POP POP JUMP JUMPDEST PUSH0 PUSH2 0x15DB DUP4 DUP4 PUSH2 0x15A3 JUMP JUMPDEST PUSH1 0x40 DUP4 ADD SWAP1 POP SWAP3 SWAP2 POP POP JUMP JUMPDEST PUSH0 PUSH1 0x20 DUP3 ADD SWAP1 POP SWAP2 SWAP1 POP JUMP JUMPDEST PUSH0 PUSH2 0x15FD DUP3 PUSH2 0x156B JUMP JUMPDEST PUSH2 0x1607 DUP2 DUP6 PUSH2 0x1575 JUMP JUMPDEST SWAP4 POP PUSH2 0x1612 DUP4 PUSH2 0x1585 JUMP JUMPDEST DUP1 PUSH0 JUMPDEST DUP4 DUP2 LT ISZERO PUSH2 0x1642 JUMPI DUP2 MLOAD PUSH2 0x1629 DUP9 DUP3 PUSH2 0x15D0 JUMP JUMPDEST SWAP8 POP PUSH2 0x1634 DUP4 PUSH2 0x15E7 JUMP JUMPDEST SWAP3 POP POP PUSH1 0x1 DUP2 ADD SWAP1 POP PUSH2 0x1615 JUMP JUMPDEST POP DUP6 SWAP4 POP POP POP POP SWAP3 SWAP2 POP POP JUMP JUMPDEST PUSH0 PUSH1 0x20 DUP3 ADD SWAP1 POP DUP2 DUP2 SUB PUSH0 DUP4 ADD MSTORE PUSH2 0x1667 DUP2 DUP5 PUSH2 0x15F3 JUMP JUMPDEST SWAP1 POP SWAP3 SWAP2 POP POP JUMP JUMPDEST PUSH2 0x1678 DUP2 PUSH2 0x13C5 JUMP JUMPDEST DUP3 MSTORE POP POP JUMP JUMPDEST PUSH0 DUP2 SWAP1 POP SWAP2 SWAP1 POP JUMP JUMPDEST PUSH0 PUSH2 0x16A1 PUSH2 0x169C PUSH2 0x1697 DUP5 PUSH2 0x14B3 JUMP JUMPDEST PUSH2 0x167E JUMP JUMPDEST PUSH2 0x14B3 JUMP JUMPDEST SWAP1 POP SWAP2 SWAP1 POP JUMP JUMPDEST PUSH0 PUSH2 0x16B2 DUP3 PUSH2 0x1687 JUMP JUMPDEST SWAP1 POP SWAP2 SWAP1 POP JUMP JUMPDEST PUSH0 PUSH2 0x16C3 DUP3 PUSH2 0x16A8 JUMP JUMPDEST SWAP1 POP SWAP2 SWAP1 POP JUMP JUMPDEST PUSH2 0x16D3 DUP2 PUSH2 0x16B9 JUMP JUMPDEST DUP3 MSTORE POP POP JUMP JUMPDEST PUSH0 PUSH1 0x80 DUP3 ADD SWAP1 POP DUP2 DUP2 SUB PUSH0 DUP4 ADD MSTORE PUSH2 0x16F1 DUP2 DUP8 PUSH2 0x145B JUMP JUMPDEST SWAP1 POP DUP2 DUP2 SUB PUSH1 0x20 DUP4 ADD MSTORE PUSH2 0x1705 DUP2 DUP7 PUSH2 0x145B JUMP JUMPDEST SWAP1 POP PUSH2 0x1714 PUSH1 0x40 DUP4 ADD DUP6 PUSH2 0x166F JUMP JUMPDEST PUSH2 0x1721 PUSH1 0x60 DUP4 ADD DUP5 PUSH2 0x16CA JUMP JUMPDEST SWAP6 SWAP5 POP POP POP POP POP JUMP JUMPDEST PUSH0 DUP2 MLOAD SWAP1 POP SWAP2 SWAP1 POP JUMP JUMPDEST PUSH0 DUP3 DUP3 MSTORE PUSH1 0x20 DUP3 ADD SWAP1 POP SWAP3 SWAP2 POP POP JUMP JUMPDEST PUSH0 DUP2 SWAP1 POP PUSH1 0x20 DUP3 ADD SWAP1 POP SWAP2 SWAP1 POP JUMP JUMPDEST PUSH2 0x175C DUP2 PUSH2 0x14D2 JUMP JUMPDEST DUP3 MSTORE POP POP JUMP JUMPDEST PUSH0 PUSH2 0x176D DUP4 DUP4 PUSH2 0x1753 JUMP JUMPDEST PUSH1 0x20 DUP4 ADD SWAP1 POP SWAP3 SWAP2 POP POP JUMP JUMPDEST PUSH0 PUSH1 0x20 DUP3 ADD SWAP1 POP SWAP2 SWAP1 POP JUMP JUMPDEST PUSH0 PUSH2 0x178F DUP3 PUSH2 0x172A JUMP JUMPDEST PUSH2 0x1799 DUP2 DUP6 PUSH2 0x1734 JUMP JUMPDEST SWAP4 POP PUSH2 0x17A4 DUP4 PUSH2 0x1744 JUMP JUMPDEST DUP1 PUSH0 JUMPDEST DUP4 DUP2 LT ISZERO PUSH2 0x17D4 JUMPI DUP2 MLOAD PUSH2 0x17BB DUP9 DUP3 PUSH2 0x1762 JUMP JUMPDEST SWAP8 POP PUSH2 0x17C6 DUP4 PUSH2 0x1779 JUMP JUMPDEST SWAP3 POP POP PUSH1 0x1 DUP2 ADD SWAP1 POP PUSH2 0x17A7 JUMP JUMPDEST POP DUP6 SWAP4 POP POP POP POP SWAP3 SWAP2 POP POP JUMP JUMPDEST PUSH0 PUSH1 0x20 DUP3 ADD SWAP1 POP DUP2 DUP2 SUB PUSH0 DUP4 ADD MSTORE PUSH2 0x17F9 DUP2 DUP5 PUSH2 0x1785 JUMP JUMPDEST SWAP1 POP SWAP3 SWAP2 POP POP JUMP JUMPDEST PUSH0 PUSH1 0x20 DUP3 ADD SWAP1 POP PUSH2 0x1814 PUSH0 DUP4 ADD DUP5 PUSH2 0x166F JUMP JUMPDEST SWAP3 SWAP2 POP POP JUMP JUMPDEST PUSH2 0x1823 DUP2 PUSH2 0x14D2 JUMP JUMPDEST DUP3 MSTORE POP POP JUMP JUMPDEST PUSH0 PUSH1 0x20 DUP3 ADD SWAP1 POP PUSH2 0x183C PUSH0 DUP4 ADD DUP5 PUSH2 0x181A JUMP JUMPDEST SWAP3 SWAP2 POP POP JUMP JUMPDEST PUSH32 0x566F74696E672068617320656E64656400000000000000000000000000000000 PUSH0 DUP3 ADD MSTORE POP JUMP JUMPDEST PUSH0 PUSH2 0x1876 PUSH1 0x10 DUP4 PUSH2 0x142D JUMP JUMPDEST SWAP2 POP PUSH2 0x1881 DUP3 PUSH2 0x1842 JUMP JUMPDEST PUSH1 0x20 DUP3 ADD SWAP1 POP SWAP2 SWAP1 POP JUMP JUMPDEST PUSH0 PUSH1 0x20 DUP3 ADD SWAP1 POP DUP2 DUP2 SUB PUSH0 DUP4 ADD MSTORE PUSH2 0x18A3 DUP2 PUSH2 0x186A JUMP JUMPDEST SWAP1 POP SWAP2 SWAP1 POP JUMP JUMPDEST PUSH32 0x496E76616C6964206F7074696F6E20696E646578000000000000000000000000 PUSH0 DUP3 ADD MSTORE POP JUMP JUMPDEST PUSH0 PUSH2 0x18DE PUSH1 0x14 DUP4 PUSH2 0x142D JUMP JUMPDEST SWAP2 POP PUSH2 0x18E9 DUP3 PUSH2 0x18AA JUMP JUMPDEST PUSH1 0x20 DUP3 ADD SWAP1 POP SWAP2 SWAP1 POP JUMP JUMPDEST PUSH0 PUSH1 0x20 DUP3 ADD SWAP1 POP DUP2 DUP2 SUB PUSH0 DUP4 ADD MSTORE PUSH2 0x190B DUP2 PUSH2 0x18D2 JUMP JUMPDEST SWAP1 POP SWAP2 SWAP1 POP JUMP JUMPDEST PUSH32 0x4D7573742073656E642045544820746F20766F74650000000000000000000000 PUSH0 DUP3 ADD MSTORE POP JUMP JUMPDEST PUSH0 PUSH2 0x1946 PUSH1 0x15 DUP4 PUSH2 0x142D JUMP JUMPDEST SWAP2 POP PUSH2 0x1951 DUP3 PUSH2 0x1912 JUMP JUMPDEST PUSH1 0x20 DUP3 ADD SWAP1 POP SWAP2 SWAP1 POP JUMP JUMPDEST PUSH0 PUSH1 0x20 DUP3 ADD SWAP1 POP DUP2 DUP2 SUB PUSH0 DUP4 ADD MSTORE PUSH2 0x1973 DUP2 PUSH2 0x193A JUMP JUMPDEST SWAP1 POP SWAP2 SWAP1 POP JUMP JUMPDEST PUSH32 0x416C726561647920766F74656400000000000000000000000000000000000000 PUSH0 DUP3 ADD MSTORE POP JUMP JUMPDEST PUSH0 PUSH2 0x19AE PUSH1 0xD DUP4 PUSH2 0x142D JUMP JUMPDEST SWAP2 POP PUSH2 0x19B9 DUP3 PUSH2 0x197A JUMP JUMPDEST PUSH1 0x20 DUP3 ADD SWAP1 POP SWAP2 SWAP1 POP JUMP JUMPDEST PUSH0 PUSH1 0x20 DUP3 ADD SWAP1 POP DUP2 DUP2 SUB PUSH0 DUP4 ADD MSTORE PUSH2 0x19DB DUP2 PUSH2 0x19A2 JUMP JUMPDEST SWAP1 POP SWAP2 SWAP1 POP JUMP JUMPDEST PUSH0 DUP1 REVERT JUMPDEST PUSH32 0x4E487B7100000000000000000000000000000000000000000000000000000000 PUSH0 MSTORE PUSH1 0x41 PUSH1 0x4 MSTORE PUSH1 0x24 PUSH0 REVERT JUMPDEST PUSH2 0x1A1C DUP3 PUSH2 0x144B JUMP JUMPDEST DUP2 ADD DUP2 DUP2 LT PUSH8 0xFFFFFFFFFFFFFFFF DUP3 GT OR ISZERO PUSH2 0x1A3B JUMPI PUSH2 0x1A3A PUSH2 0x19E6 JUMP JUMPDEST JUMPDEST DUP1 PUSH1 0x40 MSTORE POP POP POP JUMP JUMPDEST PUSH0 PUSH2 0x1A4D PUSH2 0x13B4 JUMP JUMPDEST SWAP1 POP PUSH2 0x1A59 DUP3 DUP3 PUSH2 0x1A13 JUMP JUMPDEST SWAP2 SWAP1 POP JUMP JUMPDEST PUSH0 PUSH8 0xFFFFFFFFFFFFFFFF DUP3 GT ISZERO PUSH2 0x1A78 JUMPI PUSH2 0x1A77 PUSH2 0x19E6 JUMP JUMPDEST JUMPDEST PUSH1 0x20 DUP3 MUL SWAP1 POP PUSH1 0x20 DUP2 ADD SWAP1 POP SWAP2 SWAP1 POP JUMP JUMPDEST PUSH0 DUP1 REVERT JUMPDEST PUSH0 PUSH2 0x1A97 DUP3 PUSH2 0x14B3 JUMP JUMPDEST SWAP1 POP SWAP2 SWAP1 POP JUMP JUMPDEST PUSH2 0x1AA7 DUP2 PUSH2 0x1A8D JUMP JUMPDEST DUP2 EQ PUSH2 0x1AB1 JUMPI PUSH0 DUP1 REVERT JUMPDEST POP JUMP JUMPDEST PUSH0 DUP2 MLOAD SWAP1 POP PUSH2 0x1AC2 DUP2 PUSH2 0x1A9E JUMP JUMPDEST SWAP3 SWAP2 POP POP JUMP JUMPDEST PUSH0 PUSH2 0x1ADA PUSH2 0x1AD5 DUP5 PUSH2 0x1A5E JUMP JUMPDEST PUSH2 0x1A44 JUMP JUMPDEST SWAP1 POP DUP1 DUP4 DUP3 MSTORE PUSH1 0x20 DUP3 ADD SWAP1 POP PUSH1 0x20 DUP5 MUL DUP4 ADD DUP6 DUP2 GT ISZERO PUSH2 0x1AFD JUMPI PUSH2 0x1AFC PUSH2 0x1A89 JUMP JUMPDEST JUMPDEST DUP4 JUMPDEST DUP2 DUP2 LT ISZERO PUSH2 0x1B26 JUMPI DUP1 PUSH2 0x1B12 DUP9 DUP3 PUSH2 0x1AB4 JUMP JUMPDEST DUP5 MSTORE PUSH1 0x20 DUP5 ADD SWAP4 POP POP PUSH1 0x20 DUP2 ADD SWAP1 POP PUSH2 0x1AFF JUMP JUMPDEST POP POP POP SWAP4 SWAP3 POP POP POP JUMP JUMPDEST PUSH0 DUP3 PUSH1 0x1F DUP4 ADD SLT PUSH2 0x1B44 JUMPI PUSH2 0x1B43 PUSH2 0x19E2 JUMP JUMPDEST JUMPDEST DUP2 MLOAD PUSH2 0x1B54 DUP5 DUP3 PUSH1 0x20 DUP7 ADD PUSH2 0x1AC8 JUMP JUMPDEST SWAP2 POP POP SWAP3 SWAP2 POP POP JUMP JUMPDEST PUSH0 PUSH1 0x20 DUP3 DUP5 SUB SLT ISZERO PUSH2 0x1B72 JUMPI PUSH2 0x1B71 PUSH2 0x13BD JUMP JUMPDEST JUMPDEST PUSH0 DUP3 ADD MLOAD PUSH8 0xFFFFFFFFFFFFFFFF DUP2 GT ISZERO PUSH2 0x1B8F JUMPI PUSH2 0x1B8E PUSH2 0x13C1 JUMP JUMPDEST JUMPDEST PUSH2 0x1B9B DUP5 DUP3 DUP6 ADD PUSH2 0x1B30 JUMP JUMPDEST SWAP2 POP POP SWAP3 SWAP2 POP POP JUMP JUMPDEST PUSH32 0x4E487B7100000000000000000000000000000000000000000000000000000000 PUSH0 MSTORE PUSH1 0x32 PUSH1 0x4 MSTORE PUSH1 0x24 PUSH0 REVERT JUMPDEST PUSH32 0x42656E656669636961726965732063616E6E6F7420766F746521000000000000 PUSH0 DUP3 ADD MSTORE POP JUMP JUMPDEST PUSH0 PUSH2 0x1C05 PUSH1 0x1A DUP4 PUSH2 0x142D JUMP JUMPDEST SWAP2 POP PUSH2 0x1C10 DUP3 PUSH2 0x1BD1 JUMP JUMPDEST PUSH1 0x20 DUP3 ADD SWAP1 POP SWAP2 SWAP1 POP JUMP JUMPDEST PUSH0 PUSH1 0x20 DUP3 ADD SWAP1 POP DUP2 DUP2 SUB PUSH0 DUP4 ADD MSTORE PUSH2 0x1C32 DUP2 PUSH2 0x1BF9 JUMP JUMPDEST SWAP1 POP SWAP2 SWAP1 POP JUMP JUMPDEST PUSH0 PUSH1 0x40 DUP3 ADD SWAP1 POP PUSH2 0x1C4C PUSH0 DUP4 ADD DUP6 PUSH2 0x166F JUMP JUMPDEST PUSH2 0x1C59 PUSH1 0x20 DUP4 ADD DUP5 PUSH2 0x166F JUMP JUMPDEST SWAP4 SWAP3 POP POP POP JUMP JUMPDEST PUSH32 0x4E487B7100000000000000000000000000000000000000000000000000000000 PUSH0 MSTORE PUSH1 0x22 PUSH1 0x4 MSTORE PUSH1 0x24 PUSH0 REVERT JUMPDEST PUSH0 PUSH1 0x2 DUP3 DIV SWAP1 POP PUSH1 0x1 DUP3 AND DUP1 PUSH2 0x1CA4 JUMPI PUSH1 0x7F DUP3 AND SWAP2 POP JUMPDEST PUSH1 0x20 DUP3 LT DUP2 SUB PUSH2 0x1CB7 JUMPI PUSH2 0x1CB6 PUSH2 0x1C60 JUMP JUMPDEST JUMPDEST POP SWAP2 SWAP1 POP JUMP JUMPDEST PUSH0 DUP2 SWAP1 POP SWAP3 SWAP2 POP POP JUMP JUMPDEST PUSH0 DUP2 SWAP1 POP DUP2 PUSH0 MSTORE PUSH1 0x20 PUSH0 KECCAK256 SWAP1 POP SWAP2 SWAP1 POP JUMP JUMPDEST PUSH0 DUP2 SLOAD PUSH2 0x1CE5 DUP2 PUSH2 0x1C8D JUMP JUMPDEST PUSH2 0x1CEF DUP2 DUP7 PUSH2 0x1CBD JUMP JUMPDEST SWAP5 POP PUSH1 0x1 DUP3 AND PUSH0 DUP2 EQ PUSH2 0x1D09 JUMPI PUSH1 0x1 DUP2 EQ PUSH2 0x1D1E JUMPI PUSH2 0x1D50 JUMP JUMPDEST PUSH1 0xFF NOT DUP4 AND DUP7 MSTORE DUP2 ISZERO ISZERO DUP3 MUL DUP7 ADD SWAP4 POP PUSH2 0x1D50 JUMP JUMPDEST PUSH2 0x1D27 DUP6 PUSH2 0x1CC7 JUMP JUMPDEST PUSH0 JUMPDEST DUP4 DUP2 LT ISZERO PUSH2 0x1D48 JUMPI DUP2 SLOAD DUP2 DUP10 ADD MSTORE PUSH1 0x1 DUP3 ADD SWAP2 POP PUSH1 0x20 DUP2 ADD SWAP1 POP PUSH2 0x1D29 JUMP JUMPDEST DUP4 DUP9 ADD SWAP6 POP POP POP JUMPDEST POP POP POP SWAP3 SWAP2 POP POP JUMP JUMPDEST PUSH32 0x3B00000000000000000000000000000000000000000000000000000000000000 PUSH0 DUP3 ADD MSTORE POP JUMP JUMPDEST PUSH0 PUSH2 0x1D8D PUSH1 0x1 DUP4 PUSH2 0x1CBD JUMP JUMPDEST SWAP2 POP PUSH2 0x1D98 DUP3 PUSH2 0x1D59 JUMP JUMPDEST PUSH1 0x1 DUP3 ADD SWAP1 POP SWAP2 SWAP1 POP JUMP JUMPDEST PUSH0 PUSH2 0x1DAD DUP3 PUSH2 0x1423 JUMP JUMPDEST PUSH2 0x1DB7 DUP2 DUP6 PUSH2 0x1CBD JUMP JUMPDEST SWAP4 POP PUSH2 0x1DC7 DUP2 DUP6 PUSH1 0x20 DUP7 ADD PUSH2 0x143D JUMP JUMPDEST DUP1 DUP5 ADD SWAP2 POP POP SWAP3 SWAP2 POP POP JUMP JUMPDEST PUSH0 PUSH2 0x1DDE DUP3 DUP8 PUSH2 0x1CD9 JUMP JUMPDEST SWAP2 POP PUSH2 0x1DE9 DUP3 PUSH2 0x1D81 JUMP JUMPDEST SWAP2 POP PUSH2 0x1DF5 DUP3 DUP7 PUSH2 0x1CD9 JUMP JUMPDEST SWAP2 POP PUSH2 0x1E00 DUP3 PUSH2 0x1D81 JUMP JUMPDEST SWAP2 POP PUSH2 0x1E0C DUP3 DUP6 PUSH2 0x1DA3 JUMP JUMPDEST SWAP2 POP PUSH2 0x1E17 DUP3 PUSH2 0x1D81 JUMP JUMPDEST SWAP2 POP PUSH2 0x1E23 DUP3 DUP5 PUSH2 0x1DA3 JUMP JUMPDEST SWAP2 POP DUP2 SWAP1 POP SWAP6 SWAP5 POP POP POP POP POP JUMP JUMPDEST PUSH32 0x596F75206D757374206265206F6E65206F66207468652062656E656669636961 PUSH0 DUP3 ADD MSTORE PUSH32 0x7269657321000000000000000000000000000000000000000000000000000000 PUSH1 0x20 DUP3 ADD MSTORE POP JUMP JUMPDEST PUSH0 PUSH2 0x1E8B PUSH1 0x25 DUP4 PUSH2 0x142D JUMP JUMPDEST SWAP2 POP PUSH2 0x1E96 DUP3 PUSH2 0x1E31 JUMP JUMPDEST PUSH1 0x40 DUP3 ADD SWAP1 POP SWAP2 SWAP1 POP JUMP JUMPDEST PUSH0 PUSH1 0x20 DUP3 ADD SWAP1 POP DUP2 DUP2 SUB PUSH0 DUP4 ADD MSTORE PUSH2 0x1EB8 DUP2 PUSH2 0x1E7F JUMP JUMPDEST SWAP1 POP SWAP2 SWAP1 POP JUMP JUMPDEST PUSH0 PUSH8 0xFFFFFFFFFFFFFFFF DUP3 GT ISZERO PUSH2 0x1ED9 JUMPI PUSH2 0x1ED8 PUSH2 0x19E6 JUMP JUMPDEST JUMPDEST PUSH1 0x20 DUP3 MUL SWAP1 POP PUSH1 0x20 DUP2 ADD SWAP1 POP SWAP2 SWAP1 POP JUMP JUMPDEST PUSH0 DUP1 REVERT JUMPDEST PUSH0 DUP2 MLOAD SWAP1 POP PUSH2 0x1EFC DUP2 PUSH2 0x13CE JUMP JUMPDEST SWAP3 SWAP2 POP POP JUMP JUMPDEST PUSH0 PUSH1 0x40 DUP3 DUP5 SUB SLT ISZERO PUSH2 0x1F17 JUMPI PUSH2 0x1F16 PUSH2 0x1EEA JUMP JUMPDEST JUMPDEST PUSH2 0x1F21 PUSH1 0x40 PUSH2 0x1A44 JUMP JUMPDEST SWAP1 POP PUSH0 PUSH2 0x1F30 DUP5 DUP3 DUP6 ADD PUSH2 0x1EEE JUMP JUMPDEST PUSH0 DUP4 ADD MSTORE POP PUSH1 0x20 PUSH2 0x1F43 DUP5 DUP3 DUP6 ADD PUSH2 0x1EEE JUMP JUMPDEST PUSH1 0x20 DUP4 ADD MSTORE POP SWAP3 SWAP2 POP POP JUMP JUMPDEST PUSH0 PUSH2 0x1F61 PUSH2 0x1F5C DUP5 PUSH2 0x1EBF JUMP JUMPDEST PUSH2 0x1A44 JUMP JUMPDEST SWAP1 POP DUP1 DUP4 DUP3 MSTORE PUSH1 0x20 DUP3 ADD SWAP1 POP PUSH1 0x40 DUP5 MUL DUP4 ADD DUP6 DUP2 GT ISZERO PUSH2 0x1F84 JUMPI PUSH2 0x1F83 PUSH2 0x1A89 JUMP JUMPDEST JUMPDEST DUP4 JUMPDEST DUP2 DUP2 LT ISZERO PUSH2 0x1FAD JUMPI DUP1 PUSH2 0x1F99 DUP9 DUP3 PUSH2 0x1F02 JUMP JUMPDEST DUP5 MSTORE PUSH1 0x20 DUP5 ADD SWAP4 POP POP PUSH1 0x40 DUP2 ADD SWAP1 POP PUSH2 0x1F86 JUMP JUMPDEST POP POP POP SWAP4 SWAP3 POP POP POP JUMP JUMPDEST PUSH0 DUP3 PUSH1 0x1F DUP4 ADD SLT PUSH2 0x1FCB JUMPI PUSH2 0x1FCA PUSH2 0x19E2 JUMP JUMPDEST JUMPDEST DUP2 MLOAD PUSH2 0x1FDB DUP5 DUP3 PUSH1 0x20 DUP7 ADD PUSH2 0x1F4F JUMP JUMPDEST SWAP2 POP POP SWAP3 SWAP2 POP POP JUMP JUMPDEST PUSH0 PUSH1 0x20 DUP3 DUP5 SUB SLT ISZERO PUSH2 0x1FF9 JUMPI PUSH2 0x1FF8 PUSH2 0x13BD JUMP JUMPDEST JUMPDEST PUSH0 DUP3 ADD MLOAD PUSH8 0xFFFFFFFFFFFFFFFF DUP2 GT ISZERO PUSH2 0x2016 JUMPI PUSH2 0x2015 PUSH2 0x13C1 JUMP JUMPDEST JUMPDEST PUSH2 0x2022 DUP5 DUP3 DUP6 ADD PUSH2 0x1FB7 JUMP JUMPDEST SWAP2 POP POP SWAP3 SWAP2 POP POP JUMP JUMPDEST PUSH32 0x566F74696E67206973207374696C6C206F6E676F696E67000000000000000000 PUSH0 DUP3 ADD MSTORE POP JUMP JUMPDEST PUSH0 PUSH2 0x205F PUSH1 0x17 DUP4 PUSH2 0x142D JUMP JUMPDEST SWAP2 POP PUSH2 0x206A DUP3 PUSH2 0x202B JUMP JUMPDEST PUSH1 0x20 DUP3 ADD SWAP1 POP SWAP2 SWAP1 POP JUMP JUMPDEST PUSH0 PUSH1 0x20 DUP3 ADD SWAP1 POP DUP2 DUP2 SUB PUSH0 DUP4 ADD MSTORE PUSH2 0x208C DUP2 PUSH2 0x2053 JUMP JUMPDEST SWAP1 POP SWAP2 SWAP1 POP JUMP JUMPDEST PUSH32 0x42656E656669636961726965732063616E6E6F7420636F6E7472696275746521 PUSH0 DUP3 ADD MSTORE POP JUMP JUMPDEST PUSH0 PUSH2 0x20C7 PUSH1 0x20 DUP4 PUSH2 0x142D JUMP JUMPDEST SWAP2 POP PUSH2 0x20D2 DUP3 PUSH2 0x2093 JUMP JUMPDEST PUSH1 0x20 DUP3 ADD SWAP1 POP SWAP2 SWAP1 POP JUMP JUMPDEST PUSH0 PUSH1 0x20 DUP3 ADD SWAP1 POP DUP2 DUP2 SUB PUSH0 DUP4 ADD MSTORE PUSH2 0x20F4 DUP2 PUSH2 0x20BB JUMP JUMPDEST SWAP1 POP SWAP2 SWAP1 POP JUMP JUMPDEST PUSH0 DUP2 SWAP1 POP SWAP3 SWAP2 POP POP JUMP JUMPDEST POP JUMP JUMPDEST PUSH0 PUSH2 0x2113 PUSH0 DUP4 PUSH2 0x20FB JUMP JUMPDEST SWAP2 POP PUSH2 0x211E DUP3 PUSH2 0x2105 JUMP JUMPDEST PUSH0 DUP3 ADD SWAP1 POP SWAP2 SWAP1 POP JUMP JUMPDEST PUSH0 PUSH2 0x2132 DUP3 PUSH2 0x2108 JUMP JUMPDEST SWAP2 POP DUP2 SWAP1 POP SWAP2 SWAP1 POP JUMP JUMPDEST PUSH32 0x4661696C656420746F2073656E64204574686572000000000000000000000000 PUSH0 DUP3 ADD MSTORE POP JUMP JUMPDEST PUSH0 PUSH2 0x2170 PUSH1 0x14 DUP4 PUSH2 0x142D JUMP JUMPDEST SWAP2 POP PUSH2 0x217B DUP3 PUSH2 0x213C JUMP JUMPDEST PUSH1 0x20 DUP3 ADD SWAP1 POP SWAP2 SWAP1 POP JUMP JUMPDEST PUSH0 PUSH1 0x20 DUP3 ADD SWAP1 POP DUP2 DUP2 SUB PUSH0 DUP4 ADD MSTORE PUSH2 0x219D DUP2 PUSH2 0x2164 JUMP JUMPDEST SWAP1 POP SWAP2 SWAP1 POP JUMP JUMPDEST PUSH0 DUP2 MLOAD SWAP1 POP SWAP2 SWAP1 POP JUMP JUMPDEST PUSH0 PUSH2 0x21B8 DUP3 PUSH2 0x21A4 JUMP JUMPDEST PUSH2 0x21C2 DUP2 DUP6 PUSH2 0x20FB JUMP JUMPDEST SWAP4 POP PUSH2 0x21D2 DUP2 DUP6 PUSH1 0x20 DUP7 ADD PUSH2 0x143D JUMP JUMPDEST DUP1 DUP5 ADD SWAP2 POP POP SWAP3 SWAP2 POP POP JUMP JUMPDEST PUSH0 PUSH2 0x21E9 DUP3 DUP6 PUSH2 0x21AE JUMP JUMPDEST SWAP2 POP PUSH2 0x21F5 DUP3 DUP5 PUSH2 0x1DA3 JUMP JUMPDEST SWAP2 POP DUP2 SWAP1 POP SWAP4 SWAP3 POP POP POP JUMP JUMPDEST PUSH32 0x4E487B7100000000000000000000000000000000000000000000000000000000 PUSH0 MSTORE PUSH1 0x11 PUSH1 0x4 MSTORE PUSH1 0x24 PUSH0 REVERT JUMPDEST PUSH0 PUSH2 0x2238 DUP3 PUSH2 0x13C5 JUMP JUMPDEST SWAP2 POP PUSH2 0x2243 DUP4 PUSH2 0x13C5 JUMP JUMPDEST SWAP3 POP DUP3 DUP3 SUB SWAP1 POP DUP2 DUP2 GT ISZERO PUSH2 0x225B JUMPI PUSH2 0x225A PUSH2 0x2201 JUMP JUMPDEST JUMPDEST SWAP3 SWAP2 POP POP JUMP JUMPDEST PUSH32 0x2C00000000000000000000000000000000000000000000000000000000000000 PUSH0 DUP3 ADD MSTORE POP JUMP JUMPDEST PUSH0 PUSH2 0x2295 PUSH1 0x1 DUP4 PUSH2 0x1CBD JUMP JUMPDEST SWAP2 POP PUSH2 0x22A0 DUP3 PUSH2 0x2261 JUMP JUMPDEST PUSH1 0x1 DUP3 ADD SWAP1 POP SWAP2 SWAP1 POP JUMP JUMPDEST PUSH0 PUSH2 0x22B6 DUP3 DUP5 PUSH2 0x21AE JUMP JUMPDEST SWAP2 POP PUSH2 0x22C1 DUP3 PUSH2 0x2289 JUMP JUMPDEST SWAP2 POP DUP2 SWAP1 POP SWAP3 SWAP2 POP POP JUMP JUMPDEST PUSH0 PUSH2 0x22D6 DUP3 PUSH2 0x13C5 JUMP JUMPDEST SWAP2 POP PUSH32 0xFFFFFFFFFFFFFFFFFFFFFFFFFFFFFFFFFFFFFFFFFFFFFFFFFFFFFFFFFFFFFFFF DUP3 SUB PUSH2 0x2308 JUMPI PUSH2 0x2307 PUSH2 0x2201 JUMP JUMPDEST JUMPDEST PUSH1 0x1 DUP3 ADD SWAP1 POP SWAP2 SWAP1 POP JUMP JUMPDEST PUSH32 0x4E487B7100000000000000000000000000000000000000000000000000000000 PUSH0 MSTORE PUSH1 0x12 PUSH1 0x4 MSTORE PUSH1 0x24 PUSH0 REVERT JUMPDEST PUSH0 PUSH2 0x234A DUP3 PUSH2 0x13C5 JUMP JUMPDEST SWAP2 POP PUSH2 0x2355 DUP4 PUSH2 0x13C5 JUMP JUMPDEST SWAP3 POP DUP3 PUSH2 0x2365 JUMPI PUSH2 0x2364 PUSH2 0x2313 JUMP JUMPDEST JUMPDEST DUP3 DUP3 DIV SWAP1 POP SWAP3 SWAP2 POP POP JUMP JUMPDEST PUSH0 PUSH2 0x237A DUP3 PUSH2 0x13C5 JUMP JUMPDEST SWAP2 POP PUSH2 0x2385 DUP4 PUSH2 0x13C5 JUMP JUMPDEST SWAP3 POP DUP3 DUP3 MUL PUSH2 0x2393 DUP2 PUSH2 0x13C5 JUMP JUMPDEST SWAP2 POP DUP3 DUP3 DIV DUP5 EQ DUP4 ISZERO OR PUSH2 0x23AA JUMPI PUSH2 0x23A9 PUSH2 0x2201 JUMP JUMPDEST JUMPDEST POP SWAP3 SWAP2 POP POP JUMP JUMPDEST PUSH0 PUSH1 0xFF DUP3 AND SWAP1 POP SWAP2 SWAP1 POP JUMP JUMPDEST PUSH0 PUSH2 0x23C7 DUP3 PUSH2 0x23B1 JUMP JUMPDEST SWAP2 POP PUSH2 0x23D2 DUP4 PUSH2 0x23B1 JUMP JUMPDEST SWAP3 POP DUP3 DUP3 ADD SWAP1 POP PUSH1 0xFF DUP2 GT ISZERO PUSH2 0x23EB JUMPI PUSH2 0x23EA PUSH2 0x2201 JUMP JUMPDEST JUMPDEST SWAP3 SWAP2 POP POP JUMP INVALID LOG2 PUSH5 0x6970667358 0x22 SLT KECCAK256 0x4E 0xA7 PUSH20 0x77C3369F36EBEAB099AA066862B553441DCC845B 0xC4 PUSH9 0x7407B30BCFB8736473 PUSH16 0x6C634300081900330000000000000000 "
		},
		"gasEstimates": {
			"creation": {
				"codeDepositCost": "1851000",
				"executionCost": "infinite",
				"totalCost": "infinite"
			},
			"external": {
				"contribute()": "infinite",
				"getAllVoters()": "infinite",
				"getPoll()": "infinite",
				"getVotes()": "infinite",
				"getWinningOption()": "infinite",
				"hasVoted(address)": "2878",
				"pollData()": "infinite",
				"vote(uint256)": "infinite",
				"voters(uint256)": "5032"
			},
			"internal": {
				"concatenateOptions(string memory[] memory)": "infinite",
				"uint2str(uint256)": "infinite"
			}
		},
		"methodIdentifiers": {
			"contribute()": "d7bb99ba",
			"getAllVoters()": "35bbe70e",
			"getPoll()": "03c32278",
			"getVotes()": "0dc96015",
			"getWinningOption()": "7eeb4520",
			"hasVoted(address)": "09eef43e",
			"pollData()": "31e7dede",
			"vote(uint256)": "0121b93f",
			"voters(uint256)": "da58c7d9"
		}
	},
	"abi": [
		{
			"inputs": [
				{
					"internalType": "string",
					"name": "_title",
					"type": "string"
				},
				{
					"internalType": "string",
					"name": "_description",
					"type": "string"
				},
				{
					"internalType": "string[]",
					"name": "_options",
					"type": "string[]"
				},
				{
					"internalType": "uint256",
					"name": "_deadline",
					"type": "uint256"
				},
				{
					"internalType": "contract Escrow",
					"name": "_escrow",
					"type": "address"
				}
			],
			"stateMutability": "nonpayable",
			"type": "constructor"
		},
		{
			"anonymous": false,
			"inputs": [
				{
					"indexed": true,
					"internalType": "address",
					"name": "voter",
					"type": "address"
				},
				{
					"indexed": true,
					"internalType": "uint256",
					"name": "optionIndex",
					"type": "uint256"
				},
				{
					"indexed": false,
					"internalType": "uint256",
					"name": "amount",
					"type": "uint256"
				}
			],
			"name": "VoteCast",
			"type": "event"
		},
		{
			"inputs": [],
			"name": "contribute",
			"outputs": [],
			"stateMutability": "payable",
			"type": "function"
		},
		{
			"inputs": [],
			"name": "getAllVoters",
			"outputs": [
				{
					"internalType": "address[]",
					"name": "",
					"type": "address[]"
				}
			],
			"stateMutability": "view",
			"type": "function"
		},
		{
			"inputs": [],
			"name": "getPoll",
			"outputs": [
				{
					"internalType": "string",
					"name": "",
					"type": "string"
				}
			],
			"stateMutability": "view",
			"type": "function"
		},
		{
			"inputs": [],
			"name": "getVotes",
			"outputs": [
				{
					"components": [
						{
							"internalType": "uint256",
							"name": "voteCount",
							"type": "uint256"
						},
						{
							"internalType": "uint256",
							"name": "totalContributions",
							"type": "uint256"
						}
					],
					"internalType": "struct Escrow.Option[]",
					"name": "",
					"type": "tuple[]"
				}
			],
			"stateMutability": "view",
			"type": "function"
		},
		{
			"inputs": [],
			"name": "getWinningOption",
			"outputs": [
				{
					"internalType": "uint256",
					"name": "",
					"type": "uint256"
				}
			],
			"stateMutability": "view",
			"type": "function"
		},
		{
			"inputs": [
				{
					"internalType": "address",
					"name": "",
					"type": "address"
				}
			],
			"name": "hasVoted",
			"outputs": [
				{
					"internalType": "bool",
					"name": "",
					"type": "bool"
				}
			],
			"stateMutability": "view",
			"type": "function"
		},
		{
			"inputs": [],
			"name": "pollData",
			"outputs": [
				{
					"internalType": "string",
					"name": "title",
					"type": "string"
				},
				{
					"internalType": "string",
					"name": "description",
					"type": "string"
				},
				{
					"internalType": "uint256",
					"name": "deadline",
					"type": "uint256"
				},
				{
					"internalType": "contract Escrow",
					"name": "escrow",
					"type": "address"
				}
			],
			"stateMutability": "view",
			"type": "function"
		},
		{
			"inputs": [
				{
					"internalType": "uint256",
					"name": "optionIndex",
					"type": "uint256"
				}
			],
			"name": "vote",
			"outputs": [],
			"stateMutability": "payable",
			"type": "function"
		},
		{
			"inputs": [
				{
					"internalType": "uint256",
					"name": "",
					"type": "uint256"
				}
			],
			"name": "voters",
			"outputs": [
				{
					"internalType": "address",
					"name": "",
					"type": "address"
				}
			],
			"stateMutability": "view",
			"type": "function"
		}
	]
}