{
  "_format": "hh-sol-artifact-1",
  "contractName": "MultiBeneficiary",
  "sourceName": "contracts/MultiBeneficiary.sol",
  "abi": [
    {
      "inputs": [],
      "stateMutability": "nonpayable",
      "type": "constructor"
    },
    {
      "anonymous": false,
      "inputs": [
        {
          "indexed": false,
          "internalType": "address",
          "name": "beneficiary",
          "type": "address"
        }
      ],
      "name": "BeneficiaryAdded",
      "type": "event"
    },
    {
      "anonymous": false,
      "inputs": [
        {
          "indexed": true,
          "internalType": "address",
          "name": "escrowAddress",
          "type": "address"
        }
      ],
      "name": "EscrowCreated",
      "type": "event"
    },
    {
      "anonymous": false,
      "inputs": [
        {
          "indexed": false,
          "internalType": "address payable[]",
          "name": "beneficiaries",
          "type": "address[]"
        },
        {
          "indexed": false,
          "internalType": "uint256",
          "name": "amount",
          "type": "uint256"
        }
      ],
      "name": "FundsDistributed",
      "type": "event"
    },
    {
      "anonymous": false,
      "inputs": [
        {
          "indexed": false,
          "internalType": "address",
          "name": "sender",
          "type": "address"
        },
        {
          "indexed": false,
          "internalType": "uint256",
          "name": "amount",
          "type": "uint256"
        }
      ],
      "name": "FundsReceived",
      "type": "event"
    },
    {
      "anonymous": false,
      "inputs": [
        {
          "indexed": true,
          "internalType": "address",
          "name": "pollAddress",
          "type": "address"
        }
      ],
      "name": "PollCreated",
      "type": "event"
    },
    {
      "inputs": [
        {
          "internalType": "uint256",
          "name": "pollId",
          "type": "uint256"
        }
      ],
      "name": "acceptPoll",
      "outputs": [],
      "stateMutability": "nonpayable",
      "type": "function"
    },
    {
      "inputs": [
        {
          "internalType": "address",
          "name": "_beneficiary",
          "type": "address"
        }
      ],
      "name": "addBeneficiary",
      "outputs": [],
      "stateMutability": "nonpayable",
      "type": "function"
    },
    {
      "inputs": [
        {
          "internalType": "uint256",
          "name": "",
          "type": "uint256"
        }
      ],
      "name": "beneficiaries",
      "outputs": [
        {
          "internalType": "address payable",
          "name": "",
          "type": "address"
        }
      ],
      "stateMutability": "view",
      "type": "function"
    },
    {
      "inputs": [
        {
          "internalType": "string",
          "name": "_title",
          "type": "string"
        },
        {
          "internalType": "string",
          "name": "_description",
          "type": "string"
        },
        {
          "internalType": "string[]",
          "name": "_options",
          "type": "string[]"
        },
        {
          "internalType": "uint256",
          "name": "_deadline",
          "type": "uint256"
        }
      ],
      "name": "createPoll",
      "outputs": [],
      "stateMutability": "nonpayable",
      "type": "function"
    },
    {
      "inputs": [
        {
          "internalType": "uint256",
          "name": "pollId",
          "type": "uint256"
        }
      ],
      "name": "denyPoll",
      "outputs": [],
      "stateMutability": "nonpayable",
      "type": "function"
    },
    {
      "inputs": [
        {
          "internalType": "uint256",
          "name": "totalAmount",
          "type": "uint256"
        }
      ],
      "name": "distributeFunds",
      "outputs": [],
      "stateMutability": "nonpayable",
      "type": "function"
    },
    {
      "inputs": [],
      "name": "getBeneficiaries",
      "outputs": [
        {
          "internalType": "address payable[]",
          "name": "",
          "type": "address[]"
        }
      ],
      "stateMutability": "view",
      "type": "function"
    },
    {
      "inputs": [],
      "name": "getPolls",
      "outputs": [
        {
          "internalType": "contract Poll[]",
          "name": "",
          "type": "address[]"
        }
      ],
      "stateMutability": "view",
      "type": "function"
    },
    {
      "inputs": [
        {
          "internalType": "uint256",
          "name": "",
          "type": "uint256"
        }
      ],
      "name": "pollProposions",
      "outputs": [
        {
          "internalType": "string",
          "name": "title",
          "type": "string"
        },
        {
          "internalType": "string",
          "name": "description",
          "type": "string"
        },
        {
          "internalType": "uint256",
          "name": "deadline",
          "type": "uint256"
        }
      ],
      "stateMutability": "view",
      "type": "function"
    },
    {
      "inputs": [
        {
          "internalType": "uint256",
          "name": "",
          "type": "uint256"
        }
      ],
      "name": "polls",
      "outputs": [
        {
          "internalType": "contract Poll",
          "name": "",
          "type": "address"
        }
      ],
      "stateMutability": "view",
      "type": "function"
    },
    {
      "inputs": [
        {
          "internalType": "string",
          "name": "_title",
          "type": "string"
        },
        {
          "internalType": "string",
          "name": "_description",
          "type": "string"
        },
        {
          "internalType": "string[]",
          "name": "_options",
          "type": "string[]"
        },
        {
          "internalType": "uint256",
          "name": "_deadline",
          "type": "uint256"
        }
      ],
      "name": "proposePoll",
      "outputs": [],
      "stateMutability": "nonpayable",
      "type": "function"
    },
    {
      "stateMutability": "payable",
      "type": "receive"
    }
  ],
  "bytecode": "0x608060405234801561001057600080fd5b506000339080600181540180825580915050600190039060005260206000200160009091909190916101000a81548173ffffffffffffffffffffffffffffffffffffffff021916908373ffffffffffffffffffffffffffffffffffffffff160217905550616301806100836000396000f3fe608060405260043610620000af5760003560e01c8063a1277c79116200006d578063a1277c7914620001e1578063ac2f00741462000227578063ad0f04a9146200026b578063b48f6e601462000299578063efeb5e5814620002c7578063f726f715146200030b57620000f2565b8063120fe89b14620000f75780631b790afd14620001275780634d3fb3e314620001555780635926651d1462000183578063913b722c14620001b157620000f2565b36620000f2577f8e47b87b0ef542cdfa1659c551d88bad38aa7f452d2bbb349ab7530dfec8be8f3334604051620000e89291906200104d565b60405180910390a1005b600080fd5b3480156200010457600080fd5b506200010f62000339565b6040516200011e9190620011a2565b60405180910390f35b3480156200013457600080fd5b506200015360048036038101906200014d91906200120b565b620003c9565b005b3480156200016257600080fd5b506200018160048036038101906200017b91906200120b565b62000513565b005b3480156200019057600080fd5b50620001af6004803603810190620001a991906200126e565b620006ba565b005b348015620001be57600080fd5b50620001c9620008a3565b604051620001d8919062001382565b60405180910390f35b348015620001ee57600080fd5b506200020d60048036038101906200020791906200120b565b62000933565b6040516200021e9392919062001440565b60405180910390f35b3480156200023457600080fd5b506200025360048036038101906200024d91906200120b565b62000a8e565b6040516200026291906200149c565b60405180910390f35b3480156200027857600080fd5b5062000297600480360381019062000291919062001706565b62000ace565b005b348015620002a657600080fd5b50620002c56004803603810190620002bf919062001706565b62000c41565b005b348015620002d457600080fd5b50620002f36004803603810190620002ed91906200120b565b62000cf4565b604051620003029190620017e6565b60405180910390f35b3480156200031857600080fd5b506200033760048036038101906200033191906200120b565b62000d34565b005b60606002805480602002602001604051908101604052809291908181526020018280548015620003bf57602002820191906000526020600020905b8160009054906101000a900473ffffffffffffffffffffffffffffffffffffffff1673ffffffffffffffffffffffffffffffffffffffff168152602001906001019080831162000374575b5050505050905090565b60008190505b60018080549050620003e2919062001832565b811015620004a35760018082620003fa91906200186d565b815481106200040e576200040d620018a8565b5b906000526020600020906004020160018281548110620004335762000432620018a8565b5b90600052602060002090600402016000820181600001908162000457919062001b1b565b50600182018160010190816200046e919062001b1b565b5060028201816002019080546200048792919062000e5d565b50600382015481600301559050508080600101915050620003cf565b506001805480620004b957620004b862001c1c565b5b600190038181906000526020600020906004020160008082016000620004e0919062000ec1565b600182016000620004f2919062000ec1565b60028201600062000504919062000f07565b60038201600090555050905550565b600030604051620005249062000f2a565b62000530919062001c84565b604051809103906000f0801580156200054d573d6000803e3d6000fd5b509050600060018381548110620005695762000568620018a8565b5b9060005260206000209060040201905060008160000182600101836002018460030154866040516200059b9062000f38565b620005ab95949392919062001ecb565b604051809103906000f080158015620005c8573d6000803e3d6000fd5b5090506002819080600181540180825580915050600190039060005260206000200160009091909190916101000a81548173ffffffffffffffffffffffffffffffffffffffff021916908373ffffffffffffffffffffffffffffffffffffffff1602179055508073ffffffffffffffffffffffffffffffffffffffff167fa0cf16a3368210e542e588541dc11d0cf5d550130f310e8ef2b87508db3f0c3e60405160405180910390a28273ffffffffffffffffffffffffffffffffffffffff167fdc172423e65e4eb718110c42ad3b66ac4b0a613e4d07bfb55f2477f2d1bf34eb60405160405180910390a250505050565b600073ffffffffffffffffffffffffffffffffffffffff168173ffffffffffffffffffffffffffffffffffffffff16036200072c576040517f08c379a0000000000000000000000000000000000000000000000000000000008152600401620007239062001fb3565b60405180910390fd5b600081905060005b60008054905081101562000802578173ffffffffffffffffffffffffffffffffffffffff166000828154811062000770576200076f620018a8565b5b9060005260206000200160009054906101000a900473ffffffffffffffffffffffffffffffffffffffff1673ffffffffffffffffffffffffffffffffffffffff1603620007f4576040517f08c379a0000000000000000000000000000000000000000000000000000000008152600401620007eb9062002025565b60405180910390fd5b808060010191505062000734565b506000819080600181540180825580915050600190039060005260206000200160009091909190916101000a81548173ffffffffffffffffffffffffffffffffffffffff021916908373ffffffffffffffffffffffffffffffffffffffff1602179055507fc3e089fc6227e049d0e41c3d7a383d57efe69c1955c5752f7e5a9b5f1f113020816040516200089791906200206c565b60405180910390a15050565b606060008054806020026020016040519081016040528092919081815260200182805480156200092957602002820191906000526020600020905b8160009054906101000a900473ffffffffffffffffffffffffffffffffffffffff1673ffffffffffffffffffffffffffffffffffffffff1681526020019060010190808311620008de575b5050505050905090565b600181815481106200094457600080fd5b9060005260206000209060040201600091509050806000018054620009699062001906565b80601f0160208091040260200160405190810160405280929190818152602001828054620009979062001906565b8015620009e85780601f10620009bc57610100808354040283529160200191620009e8565b820191906000526020600020905b815481529060010190602001808311620009ca57829003601f168201915b505050505090806001018054620009ff9062001906565b80601f016020809104026020016040519081016040528092919081815260200182805462000a2d9062001906565b801562000a7e5780601f1062000a525761010080835404028352916020019162000a7e565b820191906000526020600020905b81548152906001019060200180831162000a6057829003601f168201915b5050505050908060030154905083565b6002818154811062000a9f57600080fd5b906000526020600020016000915054906101000a900473ffffffffffffffffffffffffffffffffffffffff1681565b60003060405162000adf9062000f2a565b62000aeb919062001c84565b604051809103906000f08015801562000b08573d6000803e3d6000fd5b5090506000858585858560405162000b209062000f38565b62000b3095949392919062002189565b604051809103906000f08015801562000b4d573d6000803e3d6000fd5b5090506002819080600181540180825580915050600190039060005260206000200160009091909190916101000a81548173ffffffffffffffffffffffffffffffffffffffff021916908373ffffffffffffffffffffffffffffffffffffffff1602179055508073ffffffffffffffffffffffffffffffffffffffff167fa0cf16a3368210e542e588541dc11d0cf5d550130f310e8ef2b87508db3f0c3e60405160405180910390a28173ffffffffffffffffffffffffffffffffffffffff167fdc172423e65e4eb718110c42ad3b66ac4b0a613e4d07bfb55f2477f2d1bf34eb60405160405180910390a2505050505050565b600060405180608001604052808681526020018581526020018481526020018381525090506001819080600181540180825580915050600190039060005260206000209060040201600090919091909150600082015181600001908162000ca99190620021fb565b50602082015181600101908162000cc19190620021fb565b50604082015181600201908051906020019062000ce092919062000f46565b506060820151816003015550505050505050565b6000818154811062000d0557600080fd5b906000526020600020016000915054906101000a900473ffffffffffffffffffffffffffffffffffffffff1681565b600062000d478260008054905062000d94565b905062000d548162000db1565b7f05723d08be3077fdb9e2a8cd075cd2eb73ab2d7a325e9702b8d31f7d45d9563760008260405162000d88929190620023e2565b60405180910390a15050565b600080828462000da5919062002445565b90508091505092915050565b60005b60008054905081101562000e59576000818154811062000dd95762000dd8620018a8565b5b9060005260206000200160009054906101000a900473ffffffffffffffffffffffffffffffffffffffff1673ffffffffffffffffffffffffffffffffffffffff166108fc839081150290604051600060405180830381858888f1935050505015801562000e4a573d6000803e3d6000fd5b50808060010191505062000db4565b5050565b82805482825590600052602060002090810192821562000eae5760005260206000209182015b8281111562000ead578282908162000e9c919062001b1b565b509160010191906001019062000e83565b5b50905062000ebd919062000fa6565b5090565b50805462000ecf9062001906565b6000825580601f1062000ee3575062000f04565b601f01602090049060005260206000209081019062000f03919062000fce565b5b50565b508054600082559060005260206000209081019062000f27919062000fa6565b50565b61139e806200247e83390190565b612ab0806200381c83390190565b82805482825590600052602060002090810192821562000f93579160200282015b8281111562000f9257825182908162000f819190620021fb565b509160200191906001019062000f67565b5b50905062000fa2919062000fa6565b5090565b5b8082111562000fca576000818162000fc0919062000ec1565b5060010162000fa7565b5090565b5b8082111562000fe957600081600090555060010162000fcf565b5090565b600073ffffffffffffffffffffffffffffffffffffffff82169050919050565b60006200101a8262000fed565b9050919050565b6200102c816200100d565b82525050565b6000819050919050565b620010478162001032565b82525050565b600060408201905062001064600083018562001021565b6200107360208301846200103c565b9392505050565b600081519050919050565b600082825260208201905092915050565b6000819050602082019050919050565b6000819050919050565b6000620010d1620010cb620010c58462000fed565b620010a6565b62000fed565b9050919050565b6000620010e582620010b0565b9050919050565b6000620010f982620010d8565b9050919050565b6200110b81620010ec565b82525050565b60006200111f838362001100565b60208301905092915050565b6000602082019050919050565b600062001145826200107a565b62001151818562001085565b93506200115e8362001096565b8060005b838110156200119557815162001179888262001111565b975062001186836200112b565b92505060018101905062001162565b5085935050505092915050565b60006020820190508181036000830152620011be818462001138565b905092915050565b6000604051905090565b600080fd5b600080fd5b620011e58162001032565b8114620011f157600080fd5b50565b6000813590506200120581620011da565b92915050565b600060208284031215620012245762001223620011d0565b5b60006200123484828501620011f4565b91505092915050565b62001248816200100d565b81146200125457600080fd5b50565b60008135905062001268816200123d565b92915050565b600060208284031215620012875762001286620011d0565b5b6000620012978482850162001257565b91505092915050565b600081519050919050565b600082825260208201905092915050565b6000819050602082019050919050565b6000620012d98262000fed565b9050919050565b620012eb81620012cc565b82525050565b6000620012ff8383620012e0565b60208301905092915050565b6000602082019050919050565b60006200132582620012a0565b620013318185620012ab565b93506200133e83620012bc565b8060005b8381101562001375578151620013598882620012f1565b975062001366836200130b565b92505060018101905062001342565b5085935050505092915050565b600060208201905081810360008301526200139e818462001318565b905092915050565b600081519050919050565b600082825260208201905092915050565b60005b83811015620013e2578082015181840152602081019050620013c5565b60008484015250505050565b6000601f19601f8301169050919050565b60006200140c82620013a6565b620014188185620013b1565b93506200142a818560208601620013c2565b6200143581620013ee565b840191505092915050565b600060608201905081810360008301526200145c8186620013ff565b90508181036020830152620014728185620013ff565b90506200148360408301846200103c565b949350505050565b6200149681620010ec565b82525050565b6000602082019050620014b360008301846200148b565b92915050565b600080fd5b600080fd5b7f4e487b7100000000000000000000000000000000000000000000000000000000600052604160045260246000fd5b620014fd82620013ee565b810181811067ffffffffffffffff821117156200151f576200151e620014c3565b5b80604052505050565b600062001534620011c6565b9050620015428282620014f2565b919050565b600067ffffffffffffffff821115620015655762001564620014c3565b5b6200157082620013ee565b9050602081019050919050565b82818337600083830152505050565b6000620015a36200159d8462001547565b62001528565b905082815260208101848484011115620015c257620015c1620014be565b5b620015cf8482856200157d565b509392505050565b600082601f830112620015ef57620015ee620014b9565b5b8135620016018482602086016200158c565b91505092915050565b600067ffffffffffffffff821115620016285762001627620014c3565b5b602082029050602081019050919050565b600080fd5b6000620016556200164f846200160a565b62001528565b905080838252602082019050602084028301858111156200167b576200167a62001639565b5b835b81811015620016c957803567ffffffffffffffff811115620016a457620016a3620014b9565b5b808601620016b38982620015d7565b855260208501945050506020810190506200167d565b5050509392505050565b600082601f830112620016eb57620016ea620014b9565b5b8135620016fd8482602086016200163e565b91505092915050565b60008060008060808587031215620017235762001722620011d0565b5b600085013567ffffffffffffffff811115620017445762001743620011d5565b5b6200175287828801620015d7565b945050602085013567ffffffffffffffff811115620017765762001775620011d5565b5b6200178487828801620015d7565b935050604085013567ffffffffffffffff811115620017a857620017a7620011d5565b5b620017b687828801620016d3565b9250506060620017c987828801620011f4565b91505092959194509250565b620017e081620012cc565b82525050565b6000602082019050620017fd6000830184620017d5565b92915050565b7f4e487b7100000000000000000000000000000000000000000000000000000000600052601160045260246000fd5b60006200183f8262001032565b91506200184c8362001032565b925082820390508181111562001867576200186662001803565b5b92915050565b60006200187a8262001032565b9150620018878362001032565b9250828201905080821115620018a257620018a162001803565b5b92915050565b7f4e487b7100000000000000000000000000000000000000000000000000000000600052603260045260246000fd5b7f4e487b7100000000000000000000000000000000000000000000000000000000600052602260045260246000fd5b600060028204905060018216806200191f57607f821691505b602082108103620019355762001934620018d7565b5b50919050565b6000815490506200194c8162001906565b9050919050565b60008190508160005260206000209050919050565b60006020601f8301049050919050565b600082821b905092915050565b600060088302620019b77fffffffffffffffffffffffffffffffffffffffffffffffffffffffffffffffff8262001978565b620019c3868362001978565b95508019841693508086168417925050509392505050565b6000620019fc620019f6620019f08462001032565b620010a6565b62001032565b9050919050565b6000819050919050565b62001a1883620019db565b62001a3062001a278262001a03565b84845462001985565b825550505050565b600090565b62001a4762001a38565b62001a5481848462001a0d565b505050565b5b8181101562001a7c5762001a7060008262001a3d565b60018101905062001a5a565b5050565b601f82111562001acb5762001a958162001953565b62001aa08462001968565b8101602085101562001ab0578190505b62001ac862001abf8562001968565b83018262001a59565b50505b505050565b600082821c905092915050565b600062001af06000198460080262001ad0565b1980831691505092915050565b600062001b0b838362001add565b9150826002028217905092915050565b81810362001b2b57505062001c1a565b62001b36826200193b565b67ffffffffffffffff81111562001b525762001b51620014c3565b5b62001b5e825462001906565b62001b6b82828562001a80565b6000601f83116001811462001b9f576000841562001b8a578287015490505b62001b96858262001afd565b86555062001c13565b601f19841662001baf8762001953565b965062001bbc8662001953565b60005b8281101562001be65784890154825560018201915060018501945060208101905062001bbf565b8683101562001c06578489015462001c02601f89168262001add565b8355505b6001600288020188555050505b5050505050505b565b7f4e487b7100000000000000000000000000000000000000000000000000000000600052603160045260246000fd5b600062001c5882620010b0565b9050919050565b600062001c6c8262001c4b565b9050919050565b62001c7e8162001c5f565b82525050565b600060208201905062001c9b600083018462001c73565b92915050565b6000815462001cb08162001906565b62001cbc8186620013b1565b9450600182166000811462001cda576001811462001cf15762001d28565b60ff19831686528115156020028601935062001d28565b62001cfc8562001953565b60005b8381101562001d205781548189015260018201915060208101905062001cff565b808801955050505b50505092915050565b600081549050919050565b600082825260208201905092915050565b60008190508160005260206000209050919050565b600082825260208201905092915050565b6000815462001d828162001906565b62001d8e818662001d62565b9450600182166000811462001dac576001811462001dc35762001dfa565b60ff19831686528115156020028601935062001dfa565b62001dce8562001953565b60005b8381101562001df25781548189015260018201915060208101905062001dd1565b808801955050505b50505092915050565b600062001e11838362001d73565b905092915050565b6000600182019050919050565b600062001e338262001d31565b62001e3f818562001d3c565b93508360208202850162001e538562001d4d565b8060005b8581101562001e945784840389528162001e72858262001e03565b945062001e7f8362001e19565b925060208a0199505060018101905062001e57565b50829750879550505050505092915050565b600062001eb38262001c4b565b9050919050565b62001ec58162001ea6565b82525050565b600060a082019050818103600083015262001ee7818862001ca1565b9050818103602083015262001efd818762001ca1565b9050818103604083015262001f13818662001e26565b905062001f2460608301856200103c565b62001f33608083018462001eba565b9695505050505050565b7f43616e6e6f7420616464207a65726f20616464726573732061732062656e656660008201527f6963696172790000000000000000000000000000000000000000000000000000602082015250565b600062001f9b602683620013b1565b915062001fa88262001f3d565b604082019050919050565b6000602082019050818103600083015262001fce8162001f8c565b9050919050565b7f4164647265737320616c726561647920612062656e6566696369617279000000600082015250565b60006200200d601d83620013b1565b91506200201a8262001fd5565b602082019050919050565b60006020820190508181036000830152620020408162001ffe565b9050919050565b60006200205482620010d8565b9050919050565b620020668162002047565b82525050565b60006020820190506200208360008301846200205b565b92915050565b600081519050919050565b6000819050602082019050919050565b6000620020b182620013a6565b620020bd818562001d62565b9350620020cf818560208601620013c2565b620020da81620013ee565b840191505092915050565b6000620020f38383620020a4565b905092915050565b6000602082019050919050565b6000620021158262002089565b62002121818562001d3c565b935083602082028501620021358562002094565b8060005b85811015620021775784840389528151620021558582620020e5565b94506200216283620020fb565b925060208a0199505060018101905062002139565b50829750879550505050505092915050565b600060a0820190508181036000830152620021a58188620013ff565b90508181036020830152620021bb8187620013ff565b90508181036040830152620021d1818662002108565b9050620021e260608301856200103c565b620021f1608083018462001eba565b9695505050505050565b6200220682620013a6565b67ffffffffffffffff811115620022225762002221620014c3565b5b6200222e825462001906565b6200223b82828562001a80565b600060209050601f8311600181146200227357600084156200225e578287015190505b6200226a858262001afd565b865550620022da565b601f198416620022838662001953565b60005b82811015620022ad5784890151825560018201915060208501945060208101905062002286565b86831015620022cd5784890151620022c9601f89168262001add565b8355505b6001600288020188555050505b505050505050565b600081549050919050565b60008190508160005260206000209050919050565b60008160001c9050919050565b600073ffffffffffffffffffffffffffffffffffffffff82169050919050565b600062002346620023408362002302565b6200230f565b9050919050565b60006200235b82546200232f565b9050919050565b6000600182019050919050565b60006200237c82620022e2565b620023888185620012ab565b93506200239583620022ed565b8060005b83811015620023d557620023ad826200234d565b620023b98882620012f1565b9750620023c68362002362565b92505060018101905062002399565b5085935050505092915050565b60006040820190508181036000830152620023fe81856200236f565b90506200240f60208301846200103c565b9392505050565b7f4e487b7100000000000000000000000000000000000000000000000000000000600052601260045260246000fd5b6000620024528262001032565b91506200245f8362001032565b92508262002472576200247162002416565b5b82820490509291505056fe60806040523480156200001157600080fd5b506040516200139e3803806200139e8339818101604052810190620000379190620000fc565b806000806101000a81548173ffffffffffffffffffffffffffffffffffffffff021916908373ffffffffffffffffffffffffffffffffffffffff160217905550506200012e565b600080fd5b600073ffffffffffffffffffffffffffffffffffffffff82169050919050565b6000620000b08262000083565b9050919050565b6000620000c482620000a3565b9050919050565b620000d681620000b7565b8114620000e257600080fd5b50565b600081519050620000f681620000cb565b92915050565b6000602082840312156200011557620001146200007e565b5b60006200012584828501620000e5565b91505092915050565b611260806200013e6000396000f3fe6080604052600436106100745760003560e01c8063913b722c1161004e578063913b722c14610139578063d58ed25314610164578063e1a447491461018d578063fcca991b146101b6576100b4565b80630f01870b146100b9578063409e2205146100e457806369d8957514610122576100b4565b366100b4577f8e47b87b0ef542cdfa1659c551d88bad38aa7f452d2bbb349ab7530dfec8be8f33346040516100aa92919061092e565b60405180910390a1005b600080fd5b3480156100c557600080fd5b506100ce6101d2565b6040516100db9190610a44565b60405180910390f35b3480156100f057600080fd5b5061010b60048036038101906101069190610aa6565b610245565b604051610119929190610ad3565b60405180910390f35b34801561012e57600080fd5b50610137610279565b005b34801561014557600080fd5b5061014e6104e2565b60405161015b9190610bcc565b60405180910390f35b34801561017057600080fd5b5061018b60048036038101906101869190610d73565b61057d565b005b34801561019957600080fd5b506101b460048036038101906101af9190610aa6565b610710565b005b6101d060048036038101906101cb9190610dbc565b610784565b005b60606001805480602002602001604051908101604052809291908181526020016000905b8282101561023c578382906000526020600020906002020160405180604001604052908160008201548152602001600182015481525050815260200190600101906101f6565b50505050905090565b6001818154811061025557600080fd5b90600052602060002090600202016000915090508060000154908060010154905082565b60006102836104e2565b905060005b8151811015610326578181815181106102a4576102a3610dfc565b5b602002602001015173ffffffffffffffffffffffffffffffffffffffff163373ffffffffffffffffffffffffffffffffffffffff1614610319576040517f08c379a000000000000000000000000000000000000000000000000000000000815260040161031090610eae565b60405180910390fd5b8080600101915050610288565b50600047905060008060009054906101000a900473ffffffffffffffffffffffffffffffffffffffff1673ffffffffffffffffffffffffffffffffffffffff168260405161037390610eff565b60006040518083038185875af1925050503d80600081146103b0576040519150601f19603f3d011682016040523d82523d6000602084013e6103b5565b606091505b50509050806103f9576040517f08c379a00000000000000000000000000000000000000000000000000000000081526004016103f090610f60565b60405180910390fd5b60008054906101000a900473ffffffffffffffffffffffffffffffffffffffff1673ffffffffffffffffffffffffffffffffffffffff1663f726f715836040518263ffffffff1660e01b81526004016104529190610f80565b600060405180830381600087803b15801561046c57600080fd5b505af1158015610480573d6000803e3d6000fd5b505050507f221c08a06b07a64803b3787861a3f276212fcccb51c2e6234077a9b8cb13047a60008054906101000a900473ffffffffffffffffffffffffffffffffffffffff16836040516104d5929190610ffa565b60405180910390a1505050565b606060008054906101000a900473ffffffffffffffffffffffffffffffffffffffff1673ffffffffffffffffffffffffffffffffffffffff1663913b722c6040518163ffffffff1660e01b8152600401600060405180830381865afa15801561054f573d6000803e3d6000fd5b505050506040513d6000823e3d601f19601f820116820180604052508101906105789190611112565b905090565b60006105876104e2565b905060005b815181101561062a578181815181106105a8576105a7610dfc565b5b602002602001015173ffffffffffffffffffffffffffffffffffffffff163373ffffffffffffffffffffffffffffffffffffffff161461061d576040517f08c379a000000000000000000000000000000000000000000000000000000000815260040161061490610eae565b60405180910390fd5b808060010191505061058c565b5060005b825181101561070b57600083828151811061064c5761064b610dfc565b5b602002602001015173ffffffffffffffffffffffffffffffffffffffff164760405161067790610eff565b60006040518083038185875af1925050503d80600081146106b4576040519150601f19603f3d011682016040523d82523d6000602084013e6106b9565b606091505b50509050806106fd576040517f08c379a00000000000000000000000000000000000000000000000000000000081526004016106f490610f60565b60405180910390fd5b50808060010191505061062e565b505050565b60005b8181101561078057600160405180604001604052806000815260200160008152509080600181540180825580915050600190039060005260206000209060020201600090919091909150600082015181600001556020820151816001015550508080600101915050610713565b5050565b8160018054905081106107cc576040517f08c379a00000000000000000000000000000000000000000000000000000000081526004016107c3906111a7565b60405180910390fd5b60006107fc600185815481106107e5576107e4610dfc565b5b90600052602060002090600202016000015461089e565b9050806001858154811061081357610812610dfc565b5b90600052602060002090600202016000018190555060006108596001868154811061084157610840610dfc565b5b906000526020600020906002020160010154856108b9565b905080600186815481106108705761086f610dfc565b5b9060005260206000209060020201600101600082825461089091906111f6565b925050819055505050505050565b6000806001836108ae91906111f6565b905080915050919050565b60008082846108c891906111f6565b90508091505092915050565b600073ffffffffffffffffffffffffffffffffffffffff82169050919050565b60006108ff826108d4565b9050919050565b61090f816108f4565b82525050565b6000819050919050565b61092881610915565b82525050565b60006040820190506109436000830185610906565b610950602083018461091f565b9392505050565b600081519050919050565b600082825260208201905092915050565b6000819050602082019050919050565b61098c81610915565b82525050565b6040820160008201516109a86000850182610983565b5060208201516109bb6020850182610983565b50505050565b60006109cd8383610992565b60408301905092915050565b6000602082019050919050565b60006109f182610957565b6109fb8185610962565b9350610a0683610973565b8060005b83811015610a37578151610a1e88826109c1565b9750610a29836109d9565b925050600181019050610a0a565b5085935050505092915050565b60006020820190508181036000830152610a5e81846109e6565b905092915050565b6000604051905090565b600080fd5b600080fd5b610a8381610915565b8114610a8e57600080fd5b50565b600081359050610aa081610a7a565b92915050565b600060208284031215610abc57610abb610a70565b5b6000610aca84828501610a91565b91505092915050565b6000604082019050610ae8600083018561091f565b610af5602083018461091f565b9392505050565b600081519050919050565b600082825260208201905092915050565b6000819050602082019050919050565b6000610b33826108d4565b9050919050565b610b4381610b28565b82525050565b6000610b558383610b3a565b60208301905092915050565b6000602082019050919050565b6000610b7982610afc565b610b838185610b07565b9350610b8e83610b18565b8060005b83811015610bbf578151610ba68882610b49565b9750610bb183610b61565b925050600181019050610b92565b5085935050505092915050565b60006020820190508181036000830152610be68184610b6e565b905092915050565b600080fd5b6000601f19601f8301169050919050565b7f4e487b7100000000000000000000000000000000000000000000000000000000600052604160045260246000fd5b610c3c82610bf3565b810181811067ffffffffffffffff82111715610c5b57610c5a610c04565b5b80604052505050565b6000610c6e610a66565b9050610c7a8282610c33565b919050565b600067ffffffffffffffff821115610c9a57610c99610c04565b5b602082029050602081019050919050565b600080fd5b610cb9816108f4565b8114610cc457600080fd5b50565b600081359050610cd681610cb0565b92915050565b6000610cef610cea84610c7f565b610c64565b90508083825260208201905060208402830185811115610d1257610d11610cab565b5b835b81811015610d3b5780610d278882610cc7565b845260208401935050602081019050610d14565b5050509392505050565b600082601f830112610d5a57610d59610bee565b5b8135610d6a848260208601610cdc565b91505092915050565b600060208284031215610d8957610d88610a70565b5b600082013567ffffffffffffffff811115610da757610da6610a75565b5b610db384828501610d45565b91505092915050565b60008060408385031215610dd357610dd2610a70565b5b6000610de185828601610a91565b9250506020610df285828601610a91565b9150509250929050565b7f4e487b7100000000000000000000000000000000000000000000000000000000600052603260045260246000fd5b600082825260208201905092915050565b7f596f75206d757374206265206f6e65206f66207468652062656e65666963696160008201527f7269657321000000000000000000000000000000000000000000000000000000602082015250565b6000610e98602583610e2b565b9150610ea382610e3c565b604082019050919050565b60006020820190508181036000830152610ec781610e8b565b9050919050565b600081905092915050565b50565b6000610ee9600083610ece565b9150610ef482610ed9565b600082019050919050565b6000610f0a82610edc565b9150819050919050565b7f4661696c656420746f2073656e64204574686572000000000000000000000000600082015250565b6000610f4a601483610e2b565b9150610f5582610f14565b602082019050919050565b60006020820190508181036000830152610f7981610f3d565b9050919050565b6000602082019050610f95600083018461091f565b92915050565b6000819050919050565b6000610fc0610fbb610fb6846108d4565b610f9b565b6108d4565b9050919050565b6000610fd282610fa5565b9050919050565b6000610fe482610fc7565b9050919050565b610ff481610fd9565b82525050565b600060408201905061100f6000830185610feb565b61101c602083018461091f565b9392505050565b600067ffffffffffffffff82111561103e5761103d610c04565b5b602082029050602081019050919050565b61105881610b28565b811461106357600080fd5b50565b6000815190506110758161104f565b92915050565b600061108e61108984611023565b610c64565b905080838252602082019050602084028301858111156110b1576110b0610cab565b5b835b818110156110da57806110c68882611066565b8452602084019350506020810190506110b3565b5050509392505050565b600082601f8301126110f9576110f8610bee565b5b815161110984826020860161107b565b91505092915050565b60006020828403121561112857611127610a70565b5b600082015167ffffffffffffffff81111561114657611145610a75565b5b611152848285016110e4565b91505092915050565b7f496e76616c6964206f7074696f6e20696e646578000000000000000000000000600082015250565b6000611191601483610e2b565b915061119c8261115b565b602082019050919050565b600060208201905081810360008301526111c081611184565b9050919050565b7f4e487b7100000000000000000000000000000000000000000000000000000000600052601160045260246000fd5b600061120182610915565b915061120c83610915565b9250828201905080821115611224576112236111c7565b5b9291505056fea264697066735822122042466644ad1128ef5bf2e135d15cea052c2e7858b3c812e37e185bb94cdfbad264736f6c6343000818003360806040523480156200001157600080fd5b5060405162002ab038038062002ab083398181016040528101906200003791906200059a565b846000800190816200004a9190620008c0565b5083600060010190816200005f9190620008c0565b5082600060020190805190602001906200007b9291906200016a565b508160006003018190555080600060040160006101000a81548173ffffffffffffffffffffffffffffffffffffffff021916908373ffffffffffffffffffffffffffffffffffffffff160217905550600060040160009054906101000a900473ffffffffffffffffffffffffffffffffffffffff1673ffffffffffffffffffffffffffffffffffffffff1663e1a4474984516040518263ffffffff1660e01b81526004016200012b9190620009b8565b600060405180830381600087803b1580156200014657600080fd5b505af11580156200015b573d6000803e3d6000fd5b505050505050505050620009d5565b828054828255906000526020600020908101928215620001b7579160200282015b82811115620001b6578251829081620001a59190620008c0565b50916020019190600101906200018b565b5b509050620001c69190620001ca565b5090565b5b80821115620001ee5760008181620001e49190620001f2565b50600101620001cb565b5090565b5080546200020090620006b9565b6000825580601f1062000214575062000235565b601f01602090049060005260206000209081019062000234919062000238565b5b50565b5b808211156200025357600081600090555060010162000239565b5090565b6000604051905090565b600080fd5b600080fd5b600080fd5b600080fd5b6000601f19601f8301169050919050565b7f4e487b7100000000000000000000000000000000000000000000000000000000600052604160045260246000fd5b620002c08262000275565b810181811067ffffffffffffffff82111715620002e257620002e162000286565b5b80604052505050565b6000620002f762000257565b9050620003058282620002b5565b919050565b600067ffffffffffffffff82111562000328576200032762000286565b5b620003338262000275565b9050602081019050919050565b60005b838110156200036057808201518184015260208101905062000343565b60008484015250505050565b6000620003836200037d846200030a565b620002eb565b905082815260208101848484011115620003a257620003a162000270565b5b620003af84828562000340565b509392505050565b600082601f830112620003cf57620003ce6200026b565b5b8151620003e18482602086016200036c565b91505092915050565b600067ffffffffffffffff82111562000408576200040762000286565b5b602082029050602081019050919050565b600080fd5b6000620004356200042f84620003ea565b620002eb565b905080838252602082019050602084028301858111156200045b576200045a62000419565b5b835b81811015620004a957805167ffffffffffffffff8111156200048457620004836200026b565b5b808601620004938982620003b7565b855260208501945050506020810190506200045d565b5050509392505050565b600082601f830112620004cb57620004ca6200026b565b5b8151620004dd8482602086016200041e565b91505092915050565b6000819050919050565b620004fb81620004e6565b81146200050757600080fd5b50565b6000815190506200051b81620004f0565b92915050565b600073ffffffffffffffffffffffffffffffffffffffff82169050919050565b60006200054e8262000521565b9050919050565b6000620005628262000541565b9050919050565b620005748162000555565b81146200058057600080fd5b50565b600081519050620005948162000569565b92915050565b600080600080600060a08688031215620005b957620005b862000261565b5b600086015167ffffffffffffffff811115620005da57620005d962000266565b5b620005e888828901620003b7565b955050602086015167ffffffffffffffff8111156200060c576200060b62000266565b5b6200061a88828901620003b7565b945050604086015167ffffffffffffffff8111156200063e576200063d62000266565b5b6200064c88828901620004b3565b93505060606200065f888289016200050a565b9250506080620006728882890162000583565b9150509295509295909350565b600081519050919050565b7f4e487b7100000000000000000000000000000000000000000000000000000000600052602260045260246000fd5b60006002820490506001821680620006d257607f821691505b602082108103620006e857620006e76200068a565b5b50919050565b60008190508160005260206000209050919050565b60006020601f8301049050919050565b600082821b905092915050565b600060088302620007527fffffffffffffffffffffffffffffffffffffffffffffffffffffffffffffffff8262000713565b6200075e868362000713565b95508019841693508086168417925050509392505050565b6000819050919050565b6000620007a16200079b6200079584620004e6565b62000776565b620004e6565b9050919050565b6000819050919050565b620007bd8362000780565b620007d5620007cc82620007a8565b84845462000720565b825550505050565b600090565b620007ec620007dd565b620007f9818484620007b2565b505050565b5b81811015620008215762000815600082620007e2565b600181019050620007ff565b5050565b601f82111562000870576200083a81620006ee565b620008458462000703565b8101602085101562000855578190505b6200086d620008648562000703565b830182620007fe565b50505b505050565b600082821c905092915050565b6000620008956000198460080262000875565b1980831691505092915050565b6000620008b0838362000882565b9150826002028217905092915050565b620008cb826200067f565b67ffffffffffffffff811115620008e757620008e662000286565b5b620008f38254620006b9565b6200090082828562000825565b600060209050601f83116001811462000938576000841562000923578287015190505b6200092f8582620008a2565b8655506200099f565b601f1984166200094886620006ee565b60005b8281101562000972578489015182556001820191506020850194506020810190506200094b565b868310156200099257848901516200098e601f89168262000882565b8355505b6001600288020188555050505b505050505050565b620009b281620004e6565b82525050565b6000602082019050620009cf6000830184620009a7565b92915050565b6120cb80620009e56000396000f3fe6080604052600436106100865760003560e01c806335bbe70e1161005957806335bbe70e1461013d5780637eeb4520146101685780639311931214610193578063d7bb99ba146101aa578063da58c7d9146101b457610086565b80630121b93f1461008b57806309eef43e146100a75780630dc96015146100e457806331e7dede1461010f575b600080fd5b6100a560048036038101906100a091906112df565b6101f1565b005b3480156100b357600080fd5b506100ce60048036038101906100c9919061136a565b610633565b6040516100db91906113b2565b60405180910390f35b3480156100f057600080fd5b506100f9610653565b60405161010691906114ba565b60405180910390f35b34801561011b57600080fd5b50610124610832565b60405161013494939291906115da565b60405180910390f35b34801561014957600080fd5b50610152610980565b60405161015f91906116eb565b60405180910390f35b34801561017457600080fd5b5061017d610b4d565b60405161018a919061170d565b60405180910390f35b34801561019f57600080fd5b506101a8610de2565b005b6101b2610fb4565b005b3480156101c057600080fd5b506101db60048036038101906101d691906112df565b611256565b6040516101e89190611737565b60405180910390f35b6000600301544210610238576040517f08c379a000000000000000000000000000000000000000000000000000000000815260040161022f9061179e565b60405180910390fd5b806000600201805490508110610283576040517f08c379a000000000000000000000000000000000000000000000000000000000815260040161027a9061180a565b60405180910390fd5b600034116102c6576040517f08c379a00000000000000000000000000000000000000000000000000000000081526004016102bd90611876565b60405180910390fd5b600560003373ffffffffffffffffffffffffffffffffffffffff1673ffffffffffffffffffffffffffffffffffffffff16815260200190815260200160002060009054906101000a900460ff1615610353576040517f08c379a000000000000000000000000000000000000000000000000000000000815260040161034a906118e2565b60405180910390fd5b60008060040160009054906101000a900473ffffffffffffffffffffffffffffffffffffffff1673ffffffffffffffffffffffffffffffffffffffff1663913b722c6040518163ffffffff1660e01b8152600401600060405180830381865afa1580156103c4573d6000803e3d6000fd5b505050506040513d6000823e3d601f19601f820116820180604052508101906103ed9190611a88565b905060005b81518110156104905781818151811061040e5761040d611ad1565b5b602002602001015173ffffffffffffffffffffffffffffffffffffffff163373ffffffffffffffffffffffffffffffffffffffff1603610483576040517f08c379a000000000000000000000000000000000000000000000000000000000815260040161047a90611b4c565b60405180910390fd5b80806001019150506103f2565b506001600560003373ffffffffffffffffffffffffffffffffffffffff1673ffffffffffffffffffffffffffffffffffffffff16815260200190815260200160002060006101000a81548160ff0219169083151502179055506006339080600181540180825580915050600190039060005260206000200160009091909190916101000a81548173ffffffffffffffffffffffffffffffffffffffff021916908373ffffffffffffffffffffffffffffffffffffffff160217905550600060040160009054906101000a900473ffffffffffffffffffffffffffffffffffffffff1673ffffffffffffffffffffffffffffffffffffffff1663fcca991b3485346040518463ffffffff1660e01b81526004016105ad929190611b6c565b6000604051808303818588803b1580156105c657600080fd5b505af11580156105da573d6000803e3d6000fd5b5050505050823373ffffffffffffffffffffffffffffffffffffffff167fb4cfecf70861b7b150d8337780d34fb4cbc2114b5fb1fe51a5c5fca1849f727434604051610626919061170d565b60405180910390a3505050565b60056020528060005260406000206000915054906101000a900460ff1681565b606060008060040160009054906101000a900473ffffffffffffffffffffffffffffffffffffffff1673ffffffffffffffffffffffffffffffffffffffff1663913b722c6040518163ffffffff1660e01b8152600401600060405180830381865afa1580156106c6573d6000803e3d6000fd5b505050506040513d6000823e3d601f19601f820116820180604052508101906106ef9190611a88565b905060005b8151811015610792578181815181106107105761070f611ad1565b5b602002602001015173ffffffffffffffffffffffffffffffffffffffff163373ffffffffffffffffffffffffffffffffffffffff1614610785576040517f08c379a000000000000000000000000000000000000000000000000000000000815260040161077c90611c07565b60405180910390fd5b80806001019150506106f4565b50600060040160009054906101000a900473ffffffffffffffffffffffffffffffffffffffff1673ffffffffffffffffffffffffffffffffffffffff16630f01870b6040518163ffffffff1660e01b8152600401600060405180830381865afa158015610803573d6000803e3d6000fd5b505050506040513d6000823e3d601f19601f8201168201806040525081019061082c9190611d54565b91505090565b600080600001805461084390611dcc565b80601f016020809104026020016040519081016040528092919081815260200182805461086f90611dcc565b80156108bc5780601f10610891576101008083540402835291602001916108bc565b820191906000526020600020905b81548152906001019060200180831161089f57829003601f168201915b5050505050908060010180546108d190611dcc565b80601f01602080910402602001604051908101604052809291908181526020018280546108fd90611dcc565b801561094a5780601f1061091f5761010080835404028352916020019161094a565b820191906000526020600020905b81548152906001019060200180831161092d57829003601f168201915b5050505050908060030154908060040160009054906101000a900473ffffffffffffffffffffffffffffffffffffffff16905084565b606060008060040160009054906101000a900473ffffffffffffffffffffffffffffffffffffffff1673ffffffffffffffffffffffffffffffffffffffff1663913b722c6040518163ffffffff1660e01b8152600401600060405180830381865afa1580156109f3573d6000803e3d6000fd5b505050506040513d6000823e3d601f19601f82011682018060405250810190610a1c9190611a88565b905060005b8151811015610abf57818181518110610a3d57610a3c611ad1565b5b602002602001015173ffffffffffffffffffffffffffffffffffffffff163373ffffffffffffffffffffffffffffffffffffffff1614610ab2576040517f08c379a0000000000000000000000000000000000000000000000000000000008152600401610aa990611c07565b60405180910390fd5b8080600101915050610a21565b506006805480602002602001604051908101604052809291908181526020018280548015610b4257602002820191906000526020600020905b8160009054906101000a900473ffffffffffffffffffffffffffffffffffffffff1673ffffffffffffffffffffffffffffffffffffffff1681526020019060010190808311610af8575b505050505091505090565b60008060030154421015610b96576040517f08c379a0000000000000000000000000000000000000000000000000000000008152600401610b8d90611e49565b60405180910390fd5b60008060040160009054906101000a900473ffffffffffffffffffffffffffffffffffffffff1673ffffffffffffffffffffffffffffffffffffffff1663913b722c6040518163ffffffff1660e01b8152600401600060405180830381865afa158015610c07573d6000803e3d6000fd5b505050506040513d6000823e3d601f19601f82011682018060405250810190610c309190611a88565b905060005b8151811015610cd357818181518110610c5157610c50611ad1565b5b602002602001015173ffffffffffffffffffffffffffffffffffffffff163373ffffffffffffffffffffffffffffffffffffffff1614610cc6576040517f08c379a0000000000000000000000000000000000000000000000000000000008152600401610cbd90611c07565b60405180910390fd5b8080600101915050610c35565b5060008060040160009054906101000a900473ffffffffffffffffffffffffffffffffffffffff1673ffffffffffffffffffffffffffffffffffffffff16630f01870b6040518163ffffffff1660e01b8152600401600060405180830381865afa158015610d45573d6000803e3d6000fd5b505050506040513d6000823e3d601f19601f82011682018060405250810190610d6e9190611d54565b905060008060005b8351811015610dd75781848281518110610d9357610d92611ad1565b5b6020026020010151602001511115610dca57838181518110610db857610db7611ad1565b5b60200260200101516020015191508092505b8080600101915050610d76565b508194505050505090565b60008060040160009054906101000a900473ffffffffffffffffffffffffffffffffffffffff1673ffffffffffffffffffffffffffffffffffffffff1663913b722c6040518163ffffffff1660e01b8152600401600060405180830381865afa158015610e53573d6000803e3d6000fd5b505050506040513d6000823e3d601f19601f82011682018060405250810190610e7c9190611a88565b905060005b8151811015610f1f57818181518110610e9d57610e9c611ad1565b5b602002602001015173ffffffffffffffffffffffffffffffffffffffff163373ffffffffffffffffffffffffffffffffffffffff1614610f12576040517f08c379a0000000000000000000000000000000000000000000000000000000008152600401610f0990611c07565b60405180910390fd5b8080600101915050610e81565b50600060040160009054906101000a900473ffffffffffffffffffffffffffffffffffffffff1673ffffffffffffffffffffffffffffffffffffffff1663d58ed25360066040518263ffffffff1660e01b8152600401610f7f9190611f55565b600060405180830381600087803b158015610f9957600080fd5b505af1158015610fad573d6000803e3d6000fd5b5050505050565b6000600301544210610ffb576040517f08c379a0000000000000000000000000000000000000000000000000000000008152600401610ff29061179e565b60405180910390fd5b6000341161103e576040517f08c379a000000000000000000000000000000000000000000000000000000000815260040161103590611876565b60405180910390fd5b60008060040160009054906101000a900473ffffffffffffffffffffffffffffffffffffffff1673ffffffffffffffffffffffffffffffffffffffff1663913b722c6040518163ffffffff1660e01b8152600401600060405180830381865afa1580156110af573d6000803e3d6000fd5b505050506040513d6000823e3d601f19601f820116820180604052508101906110d89190611a88565b905060005b815181101561117b578181815181106110f9576110f8611ad1565b5b602002602001015173ffffffffffffffffffffffffffffffffffffffff163373ffffffffffffffffffffffffffffffffffffffff160361116e576040517f08c379a000000000000000000000000000000000000000000000000000000000815260040161116590611fc3565b60405180910390fd5b80806001019150506110dd565b50600034905060008060040160009054906101000a900473ffffffffffffffffffffffffffffffffffffffff1673ffffffffffffffffffffffffffffffffffffffff16826040516111cb90612014565b60006040518083038185875af1925050503d8060008114611208576040519150601f19603f3d011682016040523d82523d6000602084013e61120d565b606091505b5050905080611251576040517f08c379a000000000000000000000000000000000000000000000000000000000815260040161124890612075565b60405180910390fd5b505050565b6006818154811061126657600080fd5b906000526020600020016000915054906101000a900473ffffffffffffffffffffffffffffffffffffffff1681565b6000604051905090565b600080fd5b600080fd5b6000819050919050565b6112bc816112a9565b81146112c757600080fd5b50565b6000813590506112d9816112b3565b92915050565b6000602082840312156112f5576112f461129f565b5b6000611303848285016112ca565b91505092915050565b600073ffffffffffffffffffffffffffffffffffffffff82169050919050565b60006113378261130c565b9050919050565b6113478161132c565b811461135257600080fd5b50565b6000813590506113648161133e565b92915050565b6000602082840312156113805761137f61129f565b5b600061138e84828501611355565b91505092915050565b60008115159050919050565b6113ac81611397565b82525050565b60006020820190506113c760008301846113a3565b92915050565b600081519050919050565b600082825260208201905092915050565b6000819050602082019050919050565b611402816112a9565b82525050565b60408201600082015161141e60008501826113f9565b50602082015161143160208501826113f9565b50505050565b60006114438383611408565b60408301905092915050565b6000602082019050919050565b6000611467826113cd565b61147181856113d8565b935061147c836113e9565b8060005b838110156114ad5781516114948882611437565b975061149f8361144f565b925050600181019050611480565b5085935050505092915050565b600060208201905081810360008301526114d4818461145c565b905092915050565b600081519050919050565b600082825260208201905092915050565b60005b838110156115165780820151818401526020810190506114fb565b60008484015250505050565b6000601f19601f8301169050919050565b600061153e826114dc565b61154881856114e7565b93506115588185602086016114f8565b61156181611522565b840191505092915050565b611575816112a9565b82525050565b6000819050919050565b60006115a061159b6115968461130c565b61157b565b61130c565b9050919050565b60006115b282611585565b9050919050565b60006115c4826115a7565b9050919050565b6115d4816115b9565b82525050565b600060808201905081810360008301526115f48187611533565b905081810360208301526116088186611533565b9050611617604083018561156c565b61162460608301846115cb565b95945050505050565b600081519050919050565b600082825260208201905092915050565b6000819050602082019050919050565b6116628161132c565b82525050565b60006116748383611659565b60208301905092915050565b6000602082019050919050565b60006116988261162d565b6116a28185611638565b93506116ad83611649565b8060005b838110156116de5781516116c58882611668565b97506116d083611680565b9250506001810190506116b1565b5085935050505092915050565b60006020820190508181036000830152611705818461168d565b905092915050565b6000602082019050611722600083018461156c565b92915050565b6117318161132c565b82525050565b600060208201905061174c6000830184611728565b92915050565b7f566f74696e672068617320656e64656400000000000000000000000000000000600082015250565b60006117886010836114e7565b915061179382611752565b602082019050919050565b600060208201905081810360008301526117b78161177b565b9050919050565b7f496e76616c6964206f7074696f6e20696e646578000000000000000000000000600082015250565b60006117f46014836114e7565b91506117ff826117be565b602082019050919050565b60006020820190508181036000830152611823816117e7565b9050919050565b7f4d7573742073656e642045544820746f20766f74650000000000000000000000600082015250565b60006118606015836114e7565b915061186b8261182a565b602082019050919050565b6000602082019050818103600083015261188f81611853565b9050919050565b7f416c726561647920766f74656400000000000000000000000000000000000000600082015250565b60006118cc600d836114e7565b91506118d782611896565b602082019050919050565b600060208201905081810360008301526118fb816118bf565b9050919050565b600080fd5b7f4e487b7100000000000000000000000000000000000000000000000000000000600052604160045260246000fd5b61193f82611522565b810181811067ffffffffffffffff8211171561195e5761195d611907565b5b80604052505050565b6000611971611295565b905061197d8282611936565b919050565b600067ffffffffffffffff82111561199d5761199c611907565b5b602082029050602081019050919050565b600080fd5b60006119be8261130c565b9050919050565b6119ce816119b3565b81146119d957600080fd5b50565b6000815190506119eb816119c5565b92915050565b6000611a046119ff84611982565b611967565b90508083825260208201905060208402830185811115611a2757611a266119ae565b5b835b81811015611a505780611a3c88826119dc565b845260208401935050602081019050611a29565b5050509392505050565b600082601f830112611a6f57611a6e611902565b5b8151611a7f8482602086016119f1565b91505092915050565b600060208284031215611a9e57611a9d61129f565b5b600082015167ffffffffffffffff811115611abc57611abb6112a4565b5b611ac884828501611a5a565b91505092915050565b7f4e487b7100000000000000000000000000000000000000000000000000000000600052603260045260246000fd5b7f42656e656669636961726965732063616e6e6f7420766f746521000000000000600082015250565b6000611b36601a836114e7565b9150611b4182611b00565b602082019050919050565b60006020820190508181036000830152611b6581611b29565b9050919050565b6000604082019050611b81600083018561156c565b611b8e602083018461156c565b9392505050565b7f596f75206d757374206265206f6e65206f66207468652062656e65666963696160008201527f7269657321000000000000000000000000000000000000000000000000000000602082015250565b6000611bf16025836114e7565b9150611bfc82611b95565b604082019050919050565b60006020820190508181036000830152611c2081611be4565b9050919050565b600067ffffffffffffffff821115611c4257611c41611907565b5b602082029050602081019050919050565b600080fd5b600081519050611c67816112b3565b92915050565b600060408284031215611c8357611c82611c53565b5b611c8d6040611967565b90506000611c9d84828501611c58565b6000830152506020611cb184828501611c58565b60208301525092915050565b6000611cd0611ccb84611c27565b611967565b90508083825260208201905060408402830185811115611cf357611cf26119ae565b5b835b81811015611d1c5780611d088882611c6d565b845260208401935050604081019050611cf5565b5050509392505050565b600082601f830112611d3b57611d3a611902565b5b8151611d4b848260208601611cbd565b91505092915050565b600060208284031215611d6a57611d6961129f565b5b600082015167ffffffffffffffff811115611d8857611d876112a4565b5b611d9484828501611d26565b91505092915050565b7f4e487b7100000000000000000000000000000000000000000000000000000000600052602260045260246000fd5b60006002820490506001821680611de457607f821691505b602082108103611df757611df6611d9d565b5b50919050565b7f566f74696e67206973207374696c6c206f6e676f696e67000000000000000000600082015250565b6000611e336017836114e7565b9150611e3e82611dfd565b602082019050919050565b60006020820190508181036000830152611e6281611e26565b9050919050565b600081549050919050565b60008190508160005260206000209050919050565b60008160001c9050919050565b600073ffffffffffffffffffffffffffffffffffffffff82169050919050565b6000611ec9611ec483611e89565b611e96565b9050919050565b6000611edc8254611eb6565b9050919050565b6000600182019050919050565b6000611efb82611e69565b611f058185611638565b9350611f1083611e74565b8060005b83811015611f4857611f2582611ed0565b611f2f8882611668565b9750611f3a83611ee3565b925050600181019050611f14565b5085935050505092915050565b60006020820190508181036000830152611f6f8184611ef0565b905092915050565b7f42656e656669636961726965732063616e6e6f7420636f6e7472696275746521600082015250565b6000611fad6020836114e7565b9150611fb882611f77565b602082019050919050565b60006020820190508181036000830152611fdc81611fa0565b9050919050565b600081905092915050565b50565b6000611ffe600083611fe3565b915061200982611fee565b600082019050919050565b600061201f82611ff1565b9150819050919050565b7f4661696c656420746f2073656e64204574686572000000000000000000000000600082015250565b600061205f6014836114e7565b915061206a82612029565b602082019050919050565b6000602082019050818103600083015261208e81612052565b905091905056fea264697066735822122087fdb3f3fa67e54a2fa995d331dfe15425c8102dd0b7d6cf8e7557dce94cb2a064736f6c63430008180033a26469706673582212200f4aa2e97c0f7e013f0d913d9e9b8fa5c0db0281b9e4d25ca47a50fcf423037064736f6c63430008180033",
  "linkReferences": {},
  "deployedLinkReferences": {}
}