{
  "_format": "hh-sol-artifact-1",
  "contractName": "Poll",
  "sourceName": "contracts/Poll.sol",
  "abi": [
    {
      "inputs": [
        {
          "internalType": "string",
          "name": "_title",
          "type": "string"
        },
        {
          "internalType": "string",
          "name": "_description",
          "type": "string"
        },
        {
          "internalType": "string[]",
          "name": "_options",
          "type": "string[]"
        },
        {
          "internalType": "uint256",
          "name": "_deadline",
          "type": "uint256"
        },
        {
          "internalType": "contract Escrow",
          "name": "_escrow",
          "type": "address"
        }
      ],
      "stateMutability": "nonpayable",
      "type": "constructor"
    },
    {
      "anonymous": false,
      "inputs": [
        {
          "indexed": true,
          "internalType": "address",
          "name": "voter",
          "type": "address"
        },
        {
          "indexed": true,
          "internalType": "uint256",
          "name": "optionIndex",
          "type": "uint256"
        },
        {
          "indexed": false,
          "internalType": "uint256",
          "name": "amount",
          "type": "uint256"
        }
      ],
      "name": "VoteCast",
      "type": "event"
    },
    {
      "inputs": [],
      "name": "contribute",
      "outputs": [],
      "stateMutability": "payable",
      "type": "function"
    },
    {
      "inputs": [],
      "name": "getAllVoters",
      "outputs": [
        {
          "internalType": "address[]",
          "name": "",
          "type": "address[]"
        }
      ],
      "stateMutability": "view",
      "type": "function"
    },
    {
      "inputs": [],
      "name": "getVotes",
      "outputs": [
        {
          "components": [
            {
              "internalType": "uint256",
              "name": "voteCount",
              "type": "uint256"
            },
            {
              "internalType": "uint256",
              "name": "totalContributions",
              "type": "uint256"
            }
          ],
          "internalType": "struct Escrow.Option[]",
          "name": "",
          "type": "tuple[]"
        }
      ],
      "stateMutability": "view",
      "type": "function"
    },
    {
      "inputs": [],
      "name": "getWinningOption",
      "outputs": [
        {
          "internalType": "uint256",
          "name": "",
          "type": "uint256"
        }
      ],
      "stateMutability": "view",
      "type": "function"
    },
    {
      "inputs": [
        {
          "internalType": "address",
          "name": "",
          "type": "address"
        }
      ],
      "name": "hasVoted",
      "outputs": [
        {
          "internalType": "bool",
          "name": "",
          "type": "bool"
        }
      ],
      "stateMutability": "view",
      "type": "function"
    },
    {
      "inputs": [],
      "name": "pollData",
      "outputs": [
        {
          "internalType": "string",
          "name": "title",
          "type": "string"
        },
        {
          "internalType": "string",
          "name": "description",
          "type": "string"
        },
        {
          "internalType": "uint256",
          "name": "deadline",
          "type": "uint256"
        },
        {
          "internalType": "contract Escrow",
          "name": "escrow",
          "type": "address"
        }
      ],
      "stateMutability": "view",
      "type": "function"
    },
    {
      "inputs": [],
      "name": "returnMoney",
      "outputs": [],
      "stateMutability": "nonpayable",
      "type": "function"
    },
    {
      "inputs": [
        {
          "internalType": "uint256",
          "name": "optionIndex",
          "type": "uint256"
        }
      ],
      "name": "vote",
      "outputs": [],
      "stateMutability": "payable",
      "type": "function"
    },
    {
      "inputs": [
        {
          "internalType": "uint256",
          "name": "",
          "type": "uint256"
        }
      ],
      "name": "voters",
      "outputs": [
        {
          "internalType": "address",
          "name": "",
          "type": "address"
        }
      ],
      "stateMutability": "view",
      "type": "function"
    }
  ],
  "bytecode": "0x60806040523480156200001157600080fd5b5060405162002ab038038062002ab083398181016040528101906200003791906200059a565b846000800190816200004a9190620008c0565b5083600060010190816200005f9190620008c0565b5082600060020190805190602001906200007b9291906200016a565b508160006003018190555080600060040160006101000a81548173ffffffffffffffffffffffffffffffffffffffff021916908373ffffffffffffffffffffffffffffffffffffffff160217905550600060040160009054906101000a900473ffffffffffffffffffffffffffffffffffffffff1673ffffffffffffffffffffffffffffffffffffffff1663e1a4474984516040518263ffffffff1660e01b81526004016200012b9190620009b8565b600060405180830381600087803b1580156200014657600080fd5b505af11580156200015b573d6000803e3d6000fd5b505050505050505050620009d5565b828054828255906000526020600020908101928215620001b7579160200282015b82811115620001b6578251829081620001a59190620008c0565b50916020019190600101906200018b565b5b509050620001c69190620001ca565b5090565b5b80821115620001ee5760008181620001e49190620001f2565b50600101620001cb565b5090565b5080546200020090620006b9565b6000825580601f1062000214575062000235565b601f01602090049060005260206000209081019062000234919062000238565b5b50565b5b808211156200025357600081600090555060010162000239565b5090565b6000604051905090565b600080fd5b600080fd5b600080fd5b600080fd5b6000601f19601f8301169050919050565b7f4e487b7100000000000000000000000000000000000000000000000000000000600052604160045260246000fd5b620002c08262000275565b810181811067ffffffffffffffff82111715620002e257620002e162000286565b5b80604052505050565b6000620002f762000257565b9050620003058282620002b5565b919050565b600067ffffffffffffffff82111562000328576200032762000286565b5b620003338262000275565b9050602081019050919050565b60005b838110156200036057808201518184015260208101905062000343565b60008484015250505050565b6000620003836200037d846200030a565b620002eb565b905082815260208101848484011115620003a257620003a162000270565b5b620003af84828562000340565b509392505050565b600082601f830112620003cf57620003ce6200026b565b5b8151620003e18482602086016200036c565b91505092915050565b600067ffffffffffffffff82111562000408576200040762000286565b5b602082029050602081019050919050565b600080fd5b6000620004356200042f84620003ea565b620002eb565b905080838252602082019050602084028301858111156200045b576200045a62000419565b5b835b81811015620004a957805167ffffffffffffffff8111156200048457620004836200026b565b5b808601620004938982620003b7565b855260208501945050506020810190506200045d565b5050509392505050565b600082601f830112620004cb57620004ca6200026b565b5b8151620004dd8482602086016200041e565b91505092915050565b6000819050919050565b620004fb81620004e6565b81146200050757600080fd5b50565b6000815190506200051b81620004f0565b92915050565b600073ffffffffffffffffffffffffffffffffffffffff82169050919050565b60006200054e8262000521565b9050919050565b6000620005628262000541565b9050919050565b620005748162000555565b81146200058057600080fd5b50565b600081519050620005948162000569565b92915050565b600080600080600060a08688031215620005b957620005b862000261565b5b600086015167ffffffffffffffff811115620005da57620005d962000266565b5b620005e888828901620003b7565b955050602086015167ffffffffffffffff8111156200060c576200060b62000266565b5b6200061a88828901620003b7565b945050604086015167ffffffffffffffff8111156200063e576200063d62000266565b5b6200064c88828901620004b3565b93505060606200065f888289016200050a565b9250506080620006728882890162000583565b9150509295509295909350565b600081519050919050565b7f4e487b7100000000000000000000000000000000000000000000000000000000600052602260045260246000fd5b60006002820490506001821680620006d257607f821691505b602082108103620006e857620006e76200068a565b5b50919050565b60008190508160005260206000209050919050565b60006020601f8301049050919050565b600082821b905092915050565b600060088302620007527fffffffffffffffffffffffffffffffffffffffffffffffffffffffffffffffff8262000713565b6200075e868362000713565b95508019841693508086168417925050509392505050565b6000819050919050565b6000620007a16200079b6200079584620004e6565b62000776565b620004e6565b9050919050565b6000819050919050565b620007bd8362000780565b620007d5620007cc82620007a8565b84845462000720565b825550505050565b600090565b620007ec620007dd565b620007f9818484620007b2565b505050565b5b81811015620008215762000815600082620007e2565b600181019050620007ff565b5050565b601f82111562000870576200083a81620006ee565b620008458462000703565b8101602085101562000855578190505b6200086d620008648562000703565b830182620007fe565b50505b505050565b600082821c905092915050565b6000620008956000198460080262000875565b1980831691505092915050565b6000620008b0838362000882565b9150826002028217905092915050565b620008cb826200067f565b67ffffffffffffffff811115620008e757620008e662000286565b5b620008f38254620006b9565b6200090082828562000825565b600060209050601f83116001811462000938576000841562000923578287015190505b6200092f8582620008a2565b8655506200099f565b601f1984166200094886620006ee565b60005b8281101562000972578489015182556001820191506020850194506020810190506200094b565b868310156200099257848901516200098e601f89168262000882565b8355505b6001600288020188555050505b505050505050565b620009b281620004e6565b82525050565b6000602082019050620009cf6000830184620009a7565b92915050565b6120cb80620009e56000396000f3fe6080604052600436106100865760003560e01c806335bbe70e1161005957806335bbe70e1461013d5780637eeb4520146101685780639311931214610193578063d7bb99ba146101aa578063da58c7d9146101b457610086565b80630121b93f1461008b57806309eef43e146100a75780630dc96015146100e457806331e7dede1461010f575b600080fd5b6100a560048036038101906100a091906112df565b6101f1565b005b3480156100b357600080fd5b506100ce60048036038101906100c9919061136a565b610633565b6040516100db91906113b2565b60405180910390f35b3480156100f057600080fd5b506100f9610653565b60405161010691906114ba565b60405180910390f35b34801561011b57600080fd5b50610124610832565b60405161013494939291906115da565b60405180910390f35b34801561014957600080fd5b50610152610980565b60405161015f91906116eb565b60405180910390f35b34801561017457600080fd5b5061017d610b4d565b60405161018a919061170d565b60405180910390f35b34801561019f57600080fd5b506101a8610de2565b005b6101b2610fb4565b005b3480156101c057600080fd5b506101db60048036038101906101d691906112df565b611256565b6040516101e89190611737565b60405180910390f35b6000600301544210610238576040517f08c379a000000000000000000000000000000000000000000000000000000000815260040161022f9061179e565b60405180910390fd5b806000600201805490508110610283576040517f08c379a000000000000000000000000000000000000000000000000000000000815260040161027a9061180a565b60405180910390fd5b600034116102c6576040517f08c379a00000000000000000000000000000000000000000000000000000000081526004016102bd90611876565b60405180910390fd5b600560003373ffffffffffffffffffffffffffffffffffffffff1673ffffffffffffffffffffffffffffffffffffffff16815260200190815260200160002060009054906101000a900460ff1615610353576040517f08c379a000000000000000000000000000000000000000000000000000000000815260040161034a906118e2565b60405180910390fd5b60008060040160009054906101000a900473ffffffffffffffffffffffffffffffffffffffff1673ffffffffffffffffffffffffffffffffffffffff1663913b722c6040518163ffffffff1660e01b8152600401600060405180830381865afa1580156103c4573d6000803e3d6000fd5b505050506040513d6000823e3d601f19601f820116820180604052508101906103ed9190611a88565b905060005b81518110156104905781818151811061040e5761040d611ad1565b5b602002602001015173ffffffffffffffffffffffffffffffffffffffff163373ffffffffffffffffffffffffffffffffffffffff1603610483576040517f08c379a000000000000000000000000000000000000000000000000000000000815260040161047a90611b4c565b60405180910390fd5b80806001019150506103f2565b506001600560003373ffffffffffffffffffffffffffffffffffffffff1673ffffffffffffffffffffffffffffffffffffffff16815260200190815260200160002060006101000a81548160ff0219169083151502179055506006339080600181540180825580915050600190039060005260206000200160009091909190916101000a81548173ffffffffffffffffffffffffffffffffffffffff021916908373ffffffffffffffffffffffffffffffffffffffff160217905550600060040160009054906101000a900473ffffffffffffffffffffffffffffffffffffffff1673ffffffffffffffffffffffffffffffffffffffff1663fcca991b3485346040518463ffffffff1660e01b81526004016105ad929190611b6c565b6000604051808303818588803b1580156105c657600080fd5b505af11580156105da573d6000803e3d6000fd5b5050505050823373ffffffffffffffffffffffffffffffffffffffff167fb4cfecf70861b7b150d8337780d34fb4cbc2114b5fb1fe51a5c5fca1849f727434604051610626919061170d565b60405180910390a3505050565b60056020528060005260406000206000915054906101000a900460ff1681565b606060008060040160009054906101000a900473ffffffffffffffffffffffffffffffffffffffff1673ffffffffffffffffffffffffffffffffffffffff1663913b722c6040518163ffffffff1660e01b8152600401600060405180830381865afa1580156106c6573d6000803e3d6000fd5b505050506040513d6000823e3d601f19601f820116820180604052508101906106ef9190611a88565b905060005b8151811015610792578181815181106107105761070f611ad1565b5b602002602001015173ffffffffffffffffffffffffffffffffffffffff163373ffffffffffffffffffffffffffffffffffffffff1614610785576040517f08c379a000000000000000000000000000000000000000000000000000000000815260040161077c90611c07565b60405180910390fd5b80806001019150506106f4565b50600060040160009054906101000a900473ffffffffffffffffffffffffffffffffffffffff1673ffffffffffffffffffffffffffffffffffffffff16630f01870b6040518163ffffffff1660e01b8152600401600060405180830381865afa158015610803573d6000803e3d6000fd5b505050506040513d6000823e3d601f19601f8201168201806040525081019061082c9190611d54565b91505090565b600080600001805461084390611dcc565b80601f016020809104026020016040519081016040528092919081815260200182805461086f90611dcc565b80156108bc5780601f10610891576101008083540402835291602001916108bc565b820191906000526020600020905b81548152906001019060200180831161089f57829003601f168201915b5050505050908060010180546108d190611dcc565b80601f01602080910402602001604051908101604052809291908181526020018280546108fd90611dcc565b801561094a5780601f1061091f5761010080835404028352916020019161094a565b820191906000526020600020905b81548152906001019060200180831161092d57829003601f168201915b5050505050908060030154908060040160009054906101000a900473ffffffffffffffffffffffffffffffffffffffff16905084565b606060008060040160009054906101000a900473ffffffffffffffffffffffffffffffffffffffff1673ffffffffffffffffffffffffffffffffffffffff1663913b722c6040518163ffffffff1660e01b8152600401600060405180830381865afa1580156109f3573d6000803e3d6000fd5b505050506040513d6000823e3d601f19601f82011682018060405250810190610a1c9190611a88565b905060005b8151811015610abf57818181518110610a3d57610a3c611ad1565b5b602002602001015173ffffffffffffffffffffffffffffffffffffffff163373ffffffffffffffffffffffffffffffffffffffff1614610ab2576040517f08c379a0000000000000000000000000000000000000000000000000000000008152600401610aa990611c07565b60405180910390fd5b8080600101915050610a21565b506006805480602002602001604051908101604052809291908181526020018280548015610b4257602002820191906000526020600020905b8160009054906101000a900473ffffffffffffffffffffffffffffffffffffffff1673ffffffffffffffffffffffffffffffffffffffff1681526020019060010190808311610af8575b505050505091505090565b60008060030154421015610b96576040517f08c379a0000000000000000000000000000000000000000000000000000000008152600401610b8d90611e49565b60405180910390fd5b60008060040160009054906101000a900473ffffffffffffffffffffffffffffffffffffffff1673ffffffffffffffffffffffffffffffffffffffff1663913b722c6040518163ffffffff1660e01b8152600401600060405180830381865afa158015610c07573d6000803e3d6000fd5b505050506040513d6000823e3d601f19601f82011682018060405250810190610c309190611a88565b905060005b8151811015610cd357818181518110610c5157610c50611ad1565b5b602002602001015173ffffffffffffffffffffffffffffffffffffffff163373ffffffffffffffffffffffffffffffffffffffff1614610cc6576040517f08c379a0000000000000000000000000000000000000000000000000000000008152600401610cbd90611c07565b60405180910390fd5b8080600101915050610c35565b5060008060040160009054906101000a900473ffffffffffffffffffffffffffffffffffffffff1673ffffffffffffffffffffffffffffffffffffffff16630f01870b6040518163ffffffff1660e01b8152600401600060405180830381865afa158015610d45573d6000803e3d6000fd5b505050506040513d6000823e3d601f19601f82011682018060405250810190610d6e9190611d54565b905060008060005b8351811015610dd75781848281518110610d9357610d92611ad1565b5b6020026020010151602001511115610dca57838181518110610db857610db7611ad1565b5b60200260200101516020015191508092505b8080600101915050610d76565b508194505050505090565b60008060040160009054906101000a900473ffffffffffffffffffffffffffffffffffffffff1673ffffffffffffffffffffffffffffffffffffffff1663913b722c6040518163ffffffff1660e01b8152600401600060405180830381865afa158015610e53573d6000803e3d6000fd5b505050506040513d6000823e3d601f19601f82011682018060405250810190610e7c9190611a88565b905060005b8151811015610f1f57818181518110610e9d57610e9c611ad1565b5b602002602001015173ffffffffffffffffffffffffffffffffffffffff163373ffffffffffffffffffffffffffffffffffffffff1614610f12576040517f08c379a0000000000000000000000000000000000000000000000000000000008152600401610f0990611c07565b60405180910390fd5b8080600101915050610e81565b50600060040160009054906101000a900473ffffffffffffffffffffffffffffffffffffffff1673ffffffffffffffffffffffffffffffffffffffff1663d58ed25360066040518263ffffffff1660e01b8152600401610f7f9190611f55565b600060405180830381600087803b158015610f9957600080fd5b505af1158015610fad573d6000803e3d6000fd5b5050505050565b6000600301544210610ffb576040517f08c379a0000000000000000000000000000000000000000000000000000000008152600401610ff29061179e565b60405180910390fd5b6000341161103e576040517f08c379a000000000000000000000000000000000000000000000000000000000815260040161103590611876565b60405180910390fd5b60008060040160009054906101000a900473ffffffffffffffffffffffffffffffffffffffff1673ffffffffffffffffffffffffffffffffffffffff1663913b722c6040518163ffffffff1660e01b8152600401600060405180830381865afa1580156110af573d6000803e3d6000fd5b505050506040513d6000823e3d601f19601f820116820180604052508101906110d89190611a88565b905060005b815181101561117b578181815181106110f9576110f8611ad1565b5b602002602001015173ffffffffffffffffffffffffffffffffffffffff163373ffffffffffffffffffffffffffffffffffffffff160361116e576040517f08c379a000000000000000000000000000000000000000000000000000000000815260040161116590611fc3565b60405180910390fd5b80806001019150506110dd565b50600034905060008060040160009054906101000a900473ffffffffffffffffffffffffffffffffffffffff1673ffffffffffffffffffffffffffffffffffffffff16826040516111cb90612014565b60006040518083038185875af1925050503d8060008114611208576040519150601f19603f3d011682016040523d82523d6000602084013e61120d565b606091505b5050905080611251576040517f08c379a000000000000000000000000000000000000000000000000000000000815260040161124890612075565b60405180910390fd5b505050565b6006818154811061126657600080fd5b906000526020600020016000915054906101000a900473ffffffffffffffffffffffffffffffffffffffff1681565b6000604051905090565b600080fd5b600080fd5b6000819050919050565b6112bc816112a9565b81146112c757600080fd5b50565b6000813590506112d9816112b3565b92915050565b6000602082840312156112f5576112f461129f565b5b6000611303848285016112ca565b91505092915050565b600073ffffffffffffffffffffffffffffffffffffffff82169050919050565b60006113378261130c565b9050919050565b6113478161132c565b811461135257600080fd5b50565b6000813590506113648161133e565b92915050565b6000602082840312156113805761137f61129f565b5b600061138e84828501611355565b91505092915050565b60008115159050919050565b6113ac81611397565b82525050565b60006020820190506113c760008301846113a3565b92915050565b600081519050919050565b600082825260208201905092915050565b6000819050602082019050919050565b611402816112a9565b82525050565b60408201600082015161141e60008501826113f9565b50602082015161143160208501826113f9565b50505050565b60006114438383611408565b60408301905092915050565b6000602082019050919050565b6000611467826113cd565b61147181856113d8565b935061147c836113e9565b8060005b838110156114ad5781516114948882611437565b975061149f8361144f565b925050600181019050611480565b5085935050505092915050565b600060208201905081810360008301526114d4818461145c565b905092915050565b600081519050919050565b600082825260208201905092915050565b60005b838110156115165780820151818401526020810190506114fb565b60008484015250505050565b6000601f19601f8301169050919050565b600061153e826114dc565b61154881856114e7565b93506115588185602086016114f8565b61156181611522565b840191505092915050565b611575816112a9565b82525050565b6000819050919050565b60006115a061159b6115968461130c565b61157b565b61130c565b9050919050565b60006115b282611585565b9050919050565b60006115c4826115a7565b9050919050565b6115d4816115b9565b82525050565b600060808201905081810360008301526115f48187611533565b905081810360208301526116088186611533565b9050611617604083018561156c565b61162460608301846115cb565b95945050505050565b600081519050919050565b600082825260208201905092915050565b6000819050602082019050919050565b6116628161132c565b82525050565b60006116748383611659565b60208301905092915050565b6000602082019050919050565b60006116988261162d565b6116a28185611638565b93506116ad83611649565b8060005b838110156116de5781516116c58882611668565b97506116d083611680565b9250506001810190506116b1565b5085935050505092915050565b60006020820190508181036000830152611705818461168d565b905092915050565b6000602082019050611722600083018461156c565b92915050565b6117318161132c565b82525050565b600060208201905061174c6000830184611728565b92915050565b7f566f74696e672068617320656e64656400000000000000000000000000000000600082015250565b60006117886010836114e7565b915061179382611752565b602082019050919050565b600060208201905081810360008301526117b78161177b565b9050919050565b7f496e76616c6964206f7074696f6e20696e646578000000000000000000000000600082015250565b60006117f46014836114e7565b91506117ff826117be565b602082019050919050565b60006020820190508181036000830152611823816117e7565b9050919050565b7f4d7573742073656e642045544820746f20766f74650000000000000000000000600082015250565b60006118606015836114e7565b915061186b8261182a565b602082019050919050565b6000602082019050818103600083015261188f81611853565b9050919050565b7f416c726561647920766f74656400000000000000000000000000000000000000600082015250565b60006118cc600d836114e7565b91506118d782611896565b602082019050919050565b600060208201905081810360008301526118fb816118bf565b9050919050565b600080fd5b7f4e487b7100000000000000000000000000000000000000000000000000000000600052604160045260246000fd5b61193f82611522565b810181811067ffffffffffffffff8211171561195e5761195d611907565b5b80604052505050565b6000611971611295565b905061197d8282611936565b919050565b600067ffffffffffffffff82111561199d5761199c611907565b5b602082029050602081019050919050565b600080fd5b60006119be8261130c565b9050919050565b6119ce816119b3565b81146119d957600080fd5b50565b6000815190506119eb816119c5565b92915050565b6000611a046119ff84611982565b611967565b90508083825260208201905060208402830185811115611a2757611a266119ae565b5b835b81811015611a505780611a3c88826119dc565b845260208401935050602081019050611a29565b5050509392505050565b600082601f830112611a6f57611a6e611902565b5b8151611a7f8482602086016119f1565b91505092915050565b600060208284031215611a9e57611a9d61129f565b5b600082015167ffffffffffffffff811115611abc57611abb6112a4565b5b611ac884828501611a5a565b91505092915050565b7f4e487b7100000000000000000000000000000000000000000000000000000000600052603260045260246000fd5b7f42656e656669636961726965732063616e6e6f7420766f746521000000000000600082015250565b6000611b36601a836114e7565b9150611b4182611b00565b602082019050919050565b60006020820190508181036000830152611b6581611b29565b9050919050565b6000604082019050611b81600083018561156c565b611b8e602083018461156c565b9392505050565b7f596f75206d757374206265206f6e65206f66207468652062656e65666963696160008201527f7269657321000000000000000000000000000000000000000000000000000000602082015250565b6000611bf16025836114e7565b9150611bfc82611b95565b604082019050919050565b60006020820190508181036000830152611c2081611be4565b9050919050565b600067ffffffffffffffff821115611c4257611c41611907565b5b602082029050602081019050919050565b600080fd5b600081519050611c67816112b3565b92915050565b600060408284031215611c8357611c82611c53565b5b611c8d6040611967565b90506000611c9d84828501611c58565b6000830152506020611cb184828501611c58565b60208301525092915050565b6000611cd0611ccb84611c27565b611967565b90508083825260208201905060408402830185811115611cf357611cf26119ae565b5b835b81811015611d1c5780611d088882611c6d565b845260208401935050604081019050611cf5565b5050509392505050565b600082601f830112611d3b57611d3a611902565b5b8151611d4b848260208601611cbd565b91505092915050565b600060208284031215611d6a57611d6961129f565b5b600082015167ffffffffffffffff811115611d8857611d876112a4565b5b611d9484828501611d26565b91505092915050565b7f4e487b7100000000000000000000000000000000000000000000000000000000600052602260045260246000fd5b60006002820490506001821680611de457607f821691505b602082108103611df757611df6611d9d565b5b50919050565b7f566f74696e67206973207374696c6c206f6e676f696e67000000000000000000600082015250565b6000611e336017836114e7565b9150611e3e82611dfd565b602082019050919050565b60006020820190508181036000830152611e6281611e26565b9050919050565b600081549050919050565b60008190508160005260206000209050919050565b60008160001c9050919050565b600073ffffffffffffffffffffffffffffffffffffffff82169050919050565b6000611ec9611ec483611e89565b611e96565b9050919050565b6000611edc8254611eb6565b9050919050565b6000600182019050919050565b6000611efb82611e69565b611f058185611638565b9350611f1083611e74565b8060005b83811015611f4857611f2582611ed0565b611f2f8882611668565b9750611f3a83611ee3565b925050600181019050611f14565b5085935050505092915050565b60006020820190508181036000830152611f6f8184611ef0565b905092915050565b7f42656e656669636961726965732063616e6e6f7420636f6e7472696275746521600082015250565b6000611fad6020836114e7565b9150611fb882611f77565b602082019050919050565b60006020820190508181036000830152611fdc81611fa0565b9050919050565b600081905092915050565b50565b6000611ffe600083611fe3565b915061200982611fee565b600082019050919050565b600061201f82611ff1565b9150819050919050565b7f4661696c656420746f2073656e64204574686572000000000000000000000000600082015250565b600061205f6014836114e7565b915061206a82612029565b602082019050919050565b6000602082019050818103600083015261208e81612052565b905091905056fea264697066735822122087fdb3f3fa67e54a2fa995d331dfe15425c8102dd0b7d6cf8e7557dce94cb2a064736f6c63430008180033",
  "linkReferences": {},
  "deployedLinkReferences": {}
}