{"contracts/Escrow.sol":{"Escrow":{"abi":[{"inputs":[{"internalType":"contract MultiBeneficiary","name":"_beneficiary","type":"address"}],"stateMutability":"nonpayable","type":"constructor"},{"anonymous":false,"inputs":[{"indexed":false,"internalType":"address","name":"sender","type":"address"},{"indexed":false,"internalType":"uint256","name":"amount","type":"uint256"}],"name":"FundsReceived","type":"event"},{"anonymous":false,"inputs":[{"indexed":false,"internalType":"contract MultiBeneficiary","name":"beneficiaries","type":"address"},{"indexed":false,"internalType":"uint256","name":"amount","type":"uint256"}],"name":"FundsReleased","type":"event"},{"inputs":[{"internalType":"uint256","name":"option","type":"uint256"},{"internalType":"uint256","name":"amount","type":"uint256"}],"name":"addVote","outputs":[],"stateMutability":"payable","type":"function"},{"inputs":[],"name":"getBeneficiaries","outputs":[{"internalType":"address payable[]","name":"","type":"address[]"}],"stateMutability":"view","type":"function"},{"inputs":[{"internalType":"uint256","name":"","type":"uint256"}],"name":"options","outputs":[{"internalType":"uint256","name":"voteCount","type":"uint256"},{"internalType":"uint256","name":"totalContributions","type":"uint256"}],"stateMutability":"view","type":"function"},{"inputs":[],"name":"releaseFunds","outputs":[],"stateMutability":"nonpayable","type":"function"},{"inputs":[{"internalType":"address[]","name":"voters","type":"address[]"}],"name":"returnAllFunds","outputs":[],"stateMutability":"nonpayable","type":"function"},{"inputs":[{"internalType":"uint256","name":"_totalVotes","type":"uint256"}],"name":"setOptions","outputs":[],"stateMutability":"nonpayable","type":"function"},{"inputs":[],"name":"voteCounts","outputs":[{"components":[{"internalType":"uint256","name":"voteCount","type":"uint256"},{"internalType":"uint256","name":"totalContributions","type":"uint256"}],"internalType":"struct Escrow.Option[]","name":"","type":"tuple[]"}],"stateMutability":"view","type":"function"},{"stateMutability":"payable","type":"receive"}],"evm":{"bytecode":{"linkReferences":{},"object":"60806040523480156200001157600080fd5b506040516200139e3803806200139e8339818101604052810190620000379190620000fc565b806000806101000a81548173ffffffffffffffffffffffffffffffffffffffff021916908373ffffffffffffffffffffffffffffffffffffffff160217905550506200012e565b600080fd5b600073ffffffffffffffffffffffffffffffffffffffff82169050919050565b6000620000b08262000083565b9050919050565b6000620000c482620000a3565b9050919050565b620000d681620000b7565b8114620000e257600080fd5b50565b600081519050620000f681620000cb565b92915050565b6000602082840312156200011557620001146200007e565b5b60006200012584828501620000e5565b91505092915050565b611260806200013e6000396000f3fe6080604052600436106100745760003560e01c8063913b722c1161004e578063913b722c14610139578063d58ed25314610164578063e1a447491461018d578063fcca991b146101b6576100b4565b80630f01870b146100b9578063409e2205146100e457806369d8957514610122576100b4565b366100b4577f8e47b87b0ef542cdfa1659c551d88bad38aa7f452d2bbb349ab7530dfec8be8f33346040516100aa92919061092e565b60405180910390a1005b600080fd5b3480156100c557600080fd5b506100ce6101d2565b6040516100db9190610a44565b60405180910390f35b3480156100f057600080fd5b5061010b60048036038101906101069190610aa6565b610245565b604051610119929190610ad3565b60405180910390f35b34801561012e57600080fd5b50610137610279565b005b34801561014557600080fd5b5061014e6104e2565b60405161015b9190610bcc565b60405180910390f35b34801561017057600080fd5b5061018b60048036038101906101869190610d73565b61057d565b005b34801561019957600080fd5b506101b460048036038101906101af9190610aa6565b610710565b005b6101d060048036038101906101cb9190610dbc565b610784565b005b60606001805480602002602001604051908101604052809291908181526020016000905b8282101561023c578382906000526020600020906002020160405180604001604052908160008201548152602001600182015481525050815260200190600101906101f6565b50505050905090565b6001818154811061025557600080fd5b90600052602060002090600202016000915090508060000154908060010154905082565b60006102836104e2565b905060005b8151811015610326578181815181106102a4576102a3610dfc565b5b602002602001015173ffffffffffffffffffffffffffffffffffffffff163373ffffffffffffffffffffffffffffffffffffffff1614610319576040517f08c379a000000000000000000000000000000000000000000000000000000000815260040161031090610eae565b60405180910390fd5b8080600101915050610288565b50600047905060008060009054906101000a900473ffffffffffffffffffffffffffffffffffffffff1673ffffffffffffffffffffffffffffffffffffffff168260405161037390610eff565b60006040518083038185875af1925050503d80600081146103b0576040519150601f19603f3d011682016040523d82523d6000602084013e6103b5565b606091505b50509050806103f9576040517f08c379a00000000000000000000000000000000000000000000000000000000081526004016103f090610f60565b60405180910390fd5b60008054906101000a900473ffffffffffffffffffffffffffffffffffffffff1673ffffffffffffffffffffffffffffffffffffffff1663f726f715836040518263ffffffff1660e01b81526004016104529190610f80565b600060405180830381600087803b15801561046c57600080fd5b505af1158015610480573d6000803e3d6000fd5b505050507f221c08a06b07a64803b3787861a3f276212fcccb51c2e6234077a9b8cb13047a60008054906101000a900473ffffffffffffffffffffffffffffffffffffffff16836040516104d5929190610ffa565b60405180910390a1505050565b606060008054906101000a900473ffffffffffffffffffffffffffffffffffffffff1673ffffffffffffffffffffffffffffffffffffffff1663913b722c6040518163ffffffff1660e01b8152600401600060405180830381865afa15801561054f573d6000803e3d6000fd5b505050506040513d6000823e3d601f19601f820116820180604052508101906105789190611112565b905090565b60006105876104e2565b905060005b815181101561062a578181815181106105a8576105a7610dfc565b5b602002602001015173ffffffffffffffffffffffffffffffffffffffff163373ffffffffffffffffffffffffffffffffffffffff161461061d576040517f08c379a000000000000000000000000000000000000000000000000000000000815260040161061490610eae565b60405180910390fd5b808060010191505061058c565b5060005b825181101561070b57600083828151811061064c5761064b610dfc565b5b602002602001015173ffffffffffffffffffffffffffffffffffffffff164760405161067790610eff565b60006040518083038185875af1925050503d80600081146106b4576040519150601f19603f3d011682016040523d82523d6000602084013e6106b9565b606091505b50509050806106fd576040517f08c379a00000000000000000000000000000000000000000000000000000000081526004016106f490610f60565b60405180910390fd5b50808060010191505061062e565b505050565b60005b8181101561078057600160405180604001604052806000815260200160008152509080600181540180825580915050600190039060005260206000209060020201600090919091909150600082015181600001556020820151816001015550508080600101915050610713565b5050565b8160018054905081106107cc576040517f08c379a00000000000000000000000000000000000000000000000000000000081526004016107c3906111a7565b60405180910390fd5b60006107fc600185815481106107e5576107e4610dfc565b5b90600052602060002090600202016000015461089e565b9050806001858154811061081357610812610dfc565b5b90600052602060002090600202016000018190555060006108596001868154811061084157610840610dfc565b5b906000526020600020906002020160010154856108b9565b905080600186815481106108705761086f610dfc565b5b9060005260206000209060020201600101600082825461089091906111f6565b925050819055505050505050565b6000806001836108ae91906111f6565b905080915050919050565b60008082846108c891906111f6565b90508091505092915050565b600073ffffffffffffffffffffffffffffffffffffffff82169050919050565b60006108ff826108d4565b9050919050565b61090f816108f4565b82525050565b6000819050919050565b61092881610915565b82525050565b60006040820190506109436000830185610906565b610950602083018461091f565b9392505050565b600081519050919050565b600082825260208201905092915050565b6000819050602082019050919050565b61098c81610915565b82525050565b6040820160008201516109a86000850182610983565b5060208201516109bb6020850182610983565b50505050565b60006109cd8383610992565b60408301905092915050565b6000602082019050919050565b60006109f182610957565b6109fb8185610962565b9350610a0683610973565b8060005b83811015610a37578151610a1e88826109c1565b9750610a29836109d9565b925050600181019050610a0a565b5085935050505092915050565b60006020820190508181036000830152610a5e81846109e6565b905092915050565b6000604051905090565b600080fd5b600080fd5b610a8381610915565b8114610a8e57600080fd5b50565b600081359050610aa081610a7a565b92915050565b600060208284031215610abc57610abb610a70565b5b6000610aca84828501610a91565b91505092915050565b6000604082019050610ae8600083018561091f565b610af5602083018461091f565b9392505050565b600081519050919050565b600082825260208201905092915050565b6000819050602082019050919050565b6000610b33826108d4565b9050919050565b610b4381610b28565b82525050565b6000610b558383610b3a565b60208301905092915050565b6000602082019050919050565b6000610b7982610afc565b610b838185610b07565b9350610b8e83610b18565b8060005b83811015610bbf578151610ba68882610b49565b9750610bb183610b61565b925050600181019050610b92565b5085935050505092915050565b60006020820190508181036000830152610be68184610b6e565b905092915050565b600080fd5b6000601f19601f8301169050919050565b7f4e487b7100000000000000000000000000000000000000000000000000000000600052604160045260246000fd5b610c3c82610bf3565b810181811067ffffffffffffffff82111715610c5b57610c5a610c04565b5b80604052505050565b6000610c6e610a66565b9050610c7a8282610c33565b919050565b600067ffffffffffffffff821115610c9a57610c99610c04565b5b602082029050602081019050919050565b600080fd5b610cb9816108f4565b8114610cc457600080fd5b50565b600081359050610cd681610cb0565b92915050565b6000610cef610cea84610c7f565b610c64565b90508083825260208201905060208402830185811115610d1257610d11610cab565b5b835b81811015610d3b5780610d278882610cc7565b845260208401935050602081019050610d14565b5050509392505050565b600082601f830112610d5a57610d59610bee565b5b8135610d6a848260208601610cdc565b91505092915050565b600060208284031215610d8957610d88610a70565b5b600082013567ffffffffffffffff811115610da757610da6610a75565b5b610db384828501610d45565b91505092915050565b60008060408385031215610dd357610dd2610a70565b5b6000610de185828601610a91565b9250506020610df285828601610a91565b9150509250929050565b7f4e487b7100000000000000000000000000000000000000000000000000000000600052603260045260246000fd5b600082825260208201905092915050565b7f596f75206d757374206265206f6e65206f66207468652062656e65666963696160008201527f7269657321000000000000000000000000000000000000000000000000000000602082015250565b6000610e98602583610e2b565b9150610ea382610e3c565b604082019050919050565b60006020820190508181036000830152610ec781610e8b565b9050919050565b600081905092915050565b50565b6000610ee9600083610ece565b9150610ef482610ed9565b600082019050919050565b6000610f0a82610edc565b9150819050919050565b7f4661696c656420746f2073656e64204574686572000000000000000000000000600082015250565b6000610f4a601483610e2b565b9150610f5582610f14565b602082019050919050565b60006020820190508181036000830152610f7981610f3d565b9050919050565b6000602082019050610f95600083018461091f565b92915050565b6000819050919050565b6000610fc0610fbb610fb6846108d4565b610f9b565b6108d4565b9050919050565b6000610fd282610fa5565b9050919050565b6000610fe482610fc7565b9050919050565b610ff481610fd9565b82525050565b600060408201905061100f6000830185610feb565b61101c602083018461091f565b9392505050565b600067ffffffffffffffff82111561103e5761103d610c04565b5b602082029050602081019050919050565b61105881610b28565b811461106357600080fd5b50565b6000815190506110758161104f565b92915050565b600061108e61108984611023565b610c64565b905080838252602082019050602084028301858111156110b1576110b0610cab565b5b835b818110156110da57806110c68882611066565b8452602084019350506020810190506110b3565b5050509392505050565b600082601f8301126110f9576110f8610bee565b5b815161110984826020860161107b565b91505092915050565b60006020828403121561112857611127610a70565b5b600082015167ffffffffffffffff81111561114657611145610a75565b5b611152848285016110e4565b91505092915050565b7f496e76616c6964206f7074696f6e20696e646578000000000000000000000000600082015250565b6000611191601483610e2b565b915061119c8261115b565b602082019050919050565b600060208201905081810360008301526111c081611184565b9050919050565b7f4e487b7100000000000000000000000000000000000000000000000000000000600052601160045260246000fd5b600061120182610915565b915061120c83610915565b9250828201905080821115611224576112236111c7565b5b9291505056fea264697066735822122042466644ad1128ef5bf2e135d15cea052c2e7858b3c812e37e185bb94cdfbad264736f6c63430008180033","opcodes":"PUSH1 0x80 PUSH1 0x40 MSTORE CALLVALUE DUP1 ISZERO PUSH3 0x11 JUMPI PUSH1 0x0 DUP1 REVERT JUMPDEST POP PUSH1 0x40 MLOAD PUSH3 0x139E CODESIZE SUB DUP1 PUSH3 0x139E DUP4 CODECOPY DUP2 DUP2 ADD PUSH1 0x40 MSTORE DUP2 ADD SWAP1 PUSH3 0x37 SWAP2 SWAP1 PUSH3 0xFC JUMP JUMPDEST DUP1 PUSH1 0x0 DUP1 PUSH2 0x100 EXP DUP2 SLOAD DUP2 PUSH20 0xFFFFFFFFFFFFFFFFFFFFFFFFFFFFFFFFFFFFFFFF MUL NOT AND SWAP1 DUP4 PUSH20 0xFFFFFFFFFFFFFFFFFFFFFFFFFFFFFFFFFFFFFFFF AND MUL OR SWAP1 SSTORE POP POP PUSH3 0x12E JUMP JUMPDEST PUSH1 0x0 DUP1 REVERT JUMPDEST PUSH1 0x0 PUSH20 0xFFFFFFFFFFFFFFFFFFFFFFFFFFFFFFFFFFFFFFFF DUP3 AND SWAP1 POP SWAP2 SWAP1 POP JUMP JUMPDEST PUSH1 0x0 PUSH3 0xB0 DUP3 PUSH3 0x83 JUMP JUMPDEST SWAP1 POP SWAP2 SWAP1 POP JUMP JUMPDEST PUSH1 0x0 PUSH3 0xC4 DUP3 PUSH3 0xA3 JUMP JUMPDEST SWAP1 POP SWAP2 SWAP1 POP JUMP JUMPDEST PUSH3 0xD6 DUP2 PUSH3 0xB7 JUMP JUMPDEST DUP2 EQ PUSH3 0xE2 JUMPI PUSH1 0x0 DUP1 REVERT JUMPDEST POP JUMP JUMPDEST PUSH1 0x0 DUP2 MLOAD SWAP1 POP PUSH3 0xF6 DUP2 PUSH3 0xCB JUMP JUMPDEST SWAP3 SWAP2 POP POP JUMP JUMPDEST PUSH1 0x0 PUSH1 0x20 DUP3 DUP5 SUB SLT ISZERO PUSH3 0x115 JUMPI PUSH3 0x114 PUSH3 0x7E JUMP JUMPDEST JUMPDEST PUSH1 0x0 PUSH3 0x125 DUP5 DUP3 DUP6 ADD PUSH3 0xE5 JUMP JUMPDEST SWAP2 POP POP SWAP3 SWAP2 POP POP JUMP JUMPDEST PUSH2 0x1260 DUP1 PUSH3 0x13E PUSH1 0x0 CODECOPY PUSH1 0x0 RETURN INVALID PUSH1 0x80 PUSH1 0x40 MSTORE PUSH1 0x4 CALLDATASIZE LT PUSH2 0x74 JUMPI PUSH1 0x0 CALLDATALOAD PUSH1 0xE0 SHR DUP1 PUSH4 0x913B722C GT PUSH2 0x4E JUMPI DUP1 PUSH4 0x913B722C EQ PUSH2 0x139 JUMPI DUP1 PUSH4 0xD58ED253 EQ PUSH2 0x164 JUMPI DUP1 PUSH4 0xE1A44749 EQ PUSH2 0x18D JUMPI DUP1 PUSH4 0xFCCA991B EQ PUSH2 0x1B6 JUMPI PUSH2 0xB4 JUMP JUMPDEST DUP1 PUSH4 0xF01870B EQ PUSH2 0xB9 JUMPI DUP1 PUSH4 0x409E2205 EQ PUSH2 0xE4 JUMPI DUP1 PUSH4 0x69D89575 EQ PUSH2 0x122 JUMPI PUSH2 0xB4 JUMP JUMPDEST CALLDATASIZE PUSH2 0xB4 JUMPI PUSH32 0x8E47B87B0EF542CDFA1659C551D88BAD38AA7F452D2BBB349AB7530DFEC8BE8F CALLER CALLVALUE PUSH1 0x40 MLOAD PUSH2 0xAA SWAP3 SWAP2 SWAP1 PUSH2 0x92E JUMP JUMPDEST PUSH1 0x40 MLOAD DUP1 SWAP2 SUB SWAP1 LOG1 STOP JUMPDEST PUSH1 0x0 DUP1 REVERT JUMPDEST CALLVALUE DUP1 ISZERO PUSH2 0xC5 JUMPI PUSH1 0x0 DUP1 REVERT JUMPDEST POP PUSH2 0xCE PUSH2 0x1D2 JUMP JUMPDEST PUSH1 0x40 MLOAD PUSH2 0xDB SWAP2 SWAP1 PUSH2 0xA44 JUMP JUMPDEST PUSH1 0x40 MLOAD DUP1 SWAP2 SUB SWAP1 RETURN JUMPDEST CALLVALUE DUP1 ISZERO PUSH2 0xF0 JUMPI PUSH1 0x0 DUP1 REVERT JUMPDEST POP PUSH2 0x10B PUSH1 0x4 DUP1 CALLDATASIZE SUB DUP2 ADD SWAP1 PUSH2 0x106 SWAP2 SWAP1 PUSH2 0xAA6 JUMP JUMPDEST PUSH2 0x245 JUMP JUMPDEST PUSH1 0x40 MLOAD PUSH2 0x119 SWAP3 SWAP2 SWAP1 PUSH2 0xAD3 JUMP JUMPDEST PUSH1 0x40 MLOAD DUP1 SWAP2 SUB SWAP1 RETURN JUMPDEST CALLVALUE DUP1 ISZERO PUSH2 0x12E JUMPI PUSH1 0x0 DUP1 REVERT JUMPDEST POP PUSH2 0x137 PUSH2 0x279 JUMP JUMPDEST STOP JUMPDEST CALLVALUE DUP1 ISZERO PUSH2 0x145 JUMPI PUSH1 0x0 DUP1 REVERT JUMPDEST POP PUSH2 0x14E PUSH2 0x4E2 JUMP JUMPDEST PUSH1 0x40 MLOAD PUSH2 0x15B SWAP2 SWAP1 PUSH2 0xBCC JUMP JUMPDEST PUSH1 0x40 MLOAD DUP1 SWAP2 SUB SWAP1 RETURN JUMPDEST CALLVALUE DUP1 ISZERO PUSH2 0x170 JUMPI PUSH1 0x0 DUP1 REVERT JUMPDEST POP PUSH2 0x18B PUSH1 0x4 DUP1 CALLDATASIZE SUB DUP2 ADD SWAP1 PUSH2 0x186 SWAP2 SWAP1 PUSH2 0xD73 JUMP JUMPDEST PUSH2 0x57D JUMP JUMPDEST STOP JUMPDEST CALLVALUE DUP1 ISZERO PUSH2 0x199 JUMPI PUSH1 0x0 DUP1 REVERT JUMPDEST POP PUSH2 0x1B4 PUSH1 0x4 DUP1 CALLDATASIZE SUB DUP2 ADD SWAP1 PUSH2 0x1AF SWAP2 SWAP1 PUSH2 0xAA6 JUMP JUMPDEST PUSH2 0x710 JUMP JUMPDEST STOP JUMPDEST PUSH2 0x1D0 PUSH1 0x4 DUP1 CALLDATASIZE SUB DUP2 ADD SWAP1 PUSH2 0x1CB SWAP2 SWAP1 PUSH2 0xDBC JUMP JUMPDEST PUSH2 0x784 JUMP JUMPDEST STOP JUMPDEST PUSH1 0x60 PUSH1 0x1 DUP1 SLOAD DUP1 PUSH1 0x20 MUL PUSH1 0x20 ADD PUSH1 0x40 MLOAD SWAP1 DUP2 ADD PUSH1 0x40 MSTORE DUP1 SWAP3 SWAP2 SWAP1 DUP2 DUP2 MSTORE PUSH1 0x20 ADD PUSH1 0x0 SWAP1 JUMPDEST DUP3 DUP3 LT ISZERO PUSH2 0x23C JUMPI DUP4 DUP3 SWAP1 PUSH1 0x0 MSTORE PUSH1 0x20 PUSH1 0x0 KECCAK256 SWAP1 PUSH1 0x2 MUL ADD PUSH1 0x40 MLOAD DUP1 PUSH1 0x40 ADD PUSH1 0x40 MSTORE SWAP1 DUP2 PUSH1 0x0 DUP3 ADD SLOAD DUP2 MSTORE PUSH1 0x20 ADD PUSH1 0x1 DUP3 ADD SLOAD DUP2 MSTORE POP POP DUP2 MSTORE PUSH1 0x20 ADD SWAP1 PUSH1 0x1 ADD SWAP1 PUSH2 0x1F6 JUMP JUMPDEST POP POP POP POP SWAP1 POP SWAP1 JUMP JUMPDEST PUSH1 0x1 DUP2 DUP2 SLOAD DUP2 LT PUSH2 0x255 JUMPI PUSH1 0x0 DUP1 REVERT JUMPDEST SWAP1 PUSH1 0x0 MSTORE PUSH1 0x20 PUSH1 0x0 KECCAK256 SWAP1 PUSH1 0x2 MUL ADD PUSH1 0x0 SWAP2 POP SWAP1 POP DUP1 PUSH1 0x0 ADD SLOAD SWAP1 DUP1 PUSH1 0x1 ADD SLOAD SWAP1 POP DUP3 JUMP JUMPDEST PUSH1 0x0 PUSH2 0x283 PUSH2 0x4E2 JUMP JUMPDEST SWAP1 POP PUSH1 0x0 JUMPDEST DUP2 MLOAD DUP2 LT ISZERO PUSH2 0x326 JUMPI DUP2 DUP2 DUP2 MLOAD DUP2 LT PUSH2 0x2A4 JUMPI PUSH2 0x2A3 PUSH2 0xDFC JUMP JUMPDEST JUMPDEST PUSH1 0x20 MUL PUSH1 0x20 ADD ADD MLOAD PUSH20 0xFFFFFFFFFFFFFFFFFFFFFFFFFFFFFFFFFFFFFFFF AND CALLER PUSH20 0xFFFFFFFFFFFFFFFFFFFFFFFFFFFFFFFFFFFFFFFF AND EQ PUSH2 0x319 JUMPI PUSH1 0x40 MLOAD PUSH32 0x8C379A000000000000000000000000000000000000000000000000000000000 DUP2 MSTORE PUSH1 0x4 ADD PUSH2 0x310 SWAP1 PUSH2 0xEAE JUMP JUMPDEST PUSH1 0x40 MLOAD DUP1 SWAP2 SUB SWAP1 REVERT JUMPDEST DUP1 DUP1 PUSH1 0x1 ADD SWAP2 POP POP PUSH2 0x288 JUMP JUMPDEST POP PUSH1 0x0 SELFBALANCE SWAP1 POP PUSH1 0x0 DUP1 PUSH1 0x0 SWAP1 SLOAD SWAP1 PUSH2 0x100 EXP SWAP1 DIV PUSH20 0xFFFFFFFFFFFFFFFFFFFFFFFFFFFFFFFFFFFFFFFF AND PUSH20 0xFFFFFFFFFFFFFFFFFFFFFFFFFFFFFFFFFFFFFFFF AND DUP3 PUSH1 0x40 MLOAD PUSH2 0x373 SWAP1 PUSH2 0xEFF JUMP JUMPDEST PUSH1 0x0 PUSH1 0x40 MLOAD DUP1 DUP4 SUB DUP2 DUP6 DUP8 GAS CALL SWAP3 POP POP POP RETURNDATASIZE DUP1 PUSH1 0x0 DUP2 EQ PUSH2 0x3B0 JUMPI PUSH1 0x40 MLOAD SWAP2 POP PUSH1 0x1F NOT PUSH1 0x3F RETURNDATASIZE ADD AND DUP3 ADD PUSH1 0x40 MSTORE RETURNDATASIZE DUP3 MSTORE RETURNDATASIZE PUSH1 0x0 PUSH1 0x20 DUP5 ADD RETURNDATACOPY PUSH2 0x3B5 JUMP JUMPDEST PUSH1 0x60 SWAP2 POP JUMPDEST POP POP SWAP1 POP DUP1 PUSH2 0x3F9 JUMPI PUSH1 0x40 MLOAD PUSH32 0x8C379A000000000000000000000000000000000000000000000000000000000 DUP2 MSTORE PUSH1 0x4 ADD PUSH2 0x3F0 SWAP1 PUSH2 0xF60 JUMP JUMPDEST PUSH1 0x40 MLOAD DUP1 SWAP2 SUB SWAP1 REVERT JUMPDEST PUSH1 0x0 DUP1 SLOAD SWAP1 PUSH2 0x100 EXP SWAP1 DIV PUSH20 0xFFFFFFFFFFFFFFFFFFFFFFFFFFFFFFFFFFFFFFFF AND PUSH20 0xFFFFFFFFFFFFFFFFFFFFFFFFFFFFFFFFFFFFFFFF AND PUSH4 0xF726F715 DUP4 PUSH1 0x40 MLOAD DUP3 PUSH4 0xFFFFFFFF AND PUSH1 0xE0 SHL DUP2 MSTORE PUSH1 0x4 ADD PUSH2 0x452 SWAP2 SWAP1 PUSH2 0xF80 JUMP JUMPDEST PUSH1 0x0 PUSH1 0x40 MLOAD DUP1 DUP4 SUB DUP2 PUSH1 0x0 DUP8 DUP1 EXTCODESIZE ISZERO DUP1 ISZERO PUSH2 0x46C JUMPI PUSH1 0x0 DUP1 REVERT JUMPDEST POP GAS CALL ISZERO DUP1 ISZERO PUSH2 0x480 JUMPI RETURNDATASIZE PUSH1 0x0 DUP1 RETURNDATACOPY RETURNDATASIZE PUSH1 0x0 REVERT JUMPDEST POP POP POP POP PUSH32 0x221C08A06B07A64803B3787861A3F276212FCCCB51C2E6234077A9B8CB13047A PUSH1 0x0 DUP1 SLOAD SWAP1 PUSH2 0x100 EXP SWAP1 DIV PUSH20 0xFFFFFFFFFFFFFFFFFFFFFFFFFFFFFFFFFFFFFFFF AND DUP4 PUSH1 0x40 MLOAD PUSH2 0x4D5 SWAP3 SWAP2 SWAP1 PUSH2 0xFFA JUMP JUMPDEST PUSH1 0x40 MLOAD DUP1 SWAP2 SUB SWAP1 LOG1 POP POP POP JUMP JUMPDEST PUSH1 0x60 PUSH1 0x0 DUP1 SLOAD SWAP1 PUSH2 0x100 EXP SWAP1 DIV PUSH20 0xFFFFFFFFFFFFFFFFFFFFFFFFFFFFFFFFFFFFFFFF AND PUSH20 0xFFFFFFFFFFFFFFFFFFFFFFFFFFFFFFFFFFFFFFFF AND PUSH4 0x913B722C PUSH1 0x40 MLOAD DUP2 PUSH4 0xFFFFFFFF AND PUSH1 0xE0 SHL DUP2 MSTORE PUSH1 0x4 ADD PUSH1 0x0 PUSH1 0x40 MLOAD DUP1 DUP4 SUB DUP2 DUP7 GAS STATICCALL ISZERO DUP1 ISZERO PUSH2 0x54F JUMPI RETURNDATASIZE PUSH1 0x0 DUP1 RETURNDATACOPY RETURNDATASIZE PUSH1 0x0 REVERT JUMPDEST POP POP POP POP PUSH1 0x40 MLOAD RETURNDATASIZE PUSH1 0x0 DUP3 RETURNDATACOPY RETURNDATASIZE PUSH1 0x1F NOT PUSH1 0x1F DUP3 ADD AND DUP3 ADD DUP1 PUSH1 0x40 MSTORE POP DUP2 ADD SWAP1 PUSH2 0x578 SWAP2 SWAP1 PUSH2 0x1112 JUMP JUMPDEST SWAP1 POP SWAP1 JUMP JUMPDEST PUSH1 0x0 PUSH2 0x587 PUSH2 0x4E2 JUMP JUMPDEST SWAP1 POP PUSH1 0x0 JUMPDEST DUP2 MLOAD DUP2 LT ISZERO PUSH2 0x62A JUMPI DUP2 DUP2 DUP2 MLOAD DUP2 LT PUSH2 0x5A8 JUMPI PUSH2 0x5A7 PUSH2 0xDFC JUMP JUMPDEST JUMPDEST PUSH1 0x20 MUL PUSH1 0x20 ADD ADD MLOAD PUSH20 0xFFFFFFFFFFFFFFFFFFFFFFFFFFFFFFFFFFFFFFFF AND CALLER PUSH20 0xFFFFFFFFFFFFFFFFFFFFFFFFFFFFFFFFFFFFFFFF AND EQ PUSH2 0x61D JUMPI PUSH1 0x40 MLOAD PUSH32 0x8C379A000000000000000000000000000000000000000000000000000000000 DUP2 MSTORE PUSH1 0x4 ADD PUSH2 0x614 SWAP1 PUSH2 0xEAE JUMP JUMPDEST PUSH1 0x40 MLOAD DUP1 SWAP2 SUB SWAP1 REVERT JUMPDEST DUP1 DUP1 PUSH1 0x1 ADD SWAP2 POP POP PUSH2 0x58C JUMP JUMPDEST POP PUSH1 0x0 JUMPDEST DUP3 MLOAD DUP2 LT ISZERO PUSH2 0x70B JUMPI PUSH1 0x0 DUP4 DUP3 DUP2 MLOAD DUP2 LT PUSH2 0x64C JUMPI PUSH2 0x64B PUSH2 0xDFC JUMP JUMPDEST JUMPDEST PUSH1 0x20 MUL PUSH1 0x20 ADD ADD MLOAD PUSH20 0xFFFFFFFFFFFFFFFFFFFFFFFFFFFFFFFFFFFFFFFF AND SELFBALANCE PUSH1 0x40 MLOAD PUSH2 0x677 SWAP1 PUSH2 0xEFF JUMP JUMPDEST PUSH1 0x0 PUSH1 0x40 MLOAD DUP1 DUP4 SUB DUP2 DUP6 DUP8 GAS CALL SWAP3 POP POP POP RETURNDATASIZE DUP1 PUSH1 0x0 DUP2 EQ PUSH2 0x6B4 JUMPI PUSH1 0x40 MLOAD SWAP2 POP PUSH1 0x1F NOT PUSH1 0x3F RETURNDATASIZE ADD AND DUP3 ADD PUSH1 0x40 MSTORE RETURNDATASIZE DUP3 MSTORE RETURNDATASIZE PUSH1 0x0 PUSH1 0x20 DUP5 ADD RETURNDATACOPY PUSH2 0x6B9 JUMP JUMPDEST PUSH1 0x60 SWAP2 POP JUMPDEST POP POP SWAP1 POP DUP1 PUSH2 0x6FD JUMPI PUSH1 0x40 MLOAD PUSH32 0x8C379A000000000000000000000000000000000000000000000000000000000 DUP2 MSTORE PUSH1 0x4 ADD PUSH2 0x6F4 SWAP1 PUSH2 0xF60 JUMP JUMPDEST PUSH1 0x40 MLOAD DUP1 SWAP2 SUB SWAP1 REVERT JUMPDEST POP DUP1 DUP1 PUSH1 0x1 ADD SWAP2 POP POP PUSH2 0x62E JUMP JUMPDEST POP POP POP JUMP JUMPDEST PUSH1 0x0 JUMPDEST DUP2 DUP2 LT ISZERO PUSH2 0x780 JUMPI PUSH1 0x1 PUSH1 0x40 MLOAD DUP1 PUSH1 0x40 ADD PUSH1 0x40 MSTORE DUP1 PUSH1 0x0 DUP2 MSTORE PUSH1 0x20 ADD PUSH1 0x0 DUP2 MSTORE POP SWAP1 DUP1 PUSH1 0x1 DUP2 SLOAD ADD DUP1 DUP3 SSTORE DUP1 SWAP2 POP POP PUSH1 0x1 SWAP1 SUB SWAP1 PUSH1 0x0 MSTORE PUSH1 0x20 PUSH1 0x0 KECCAK256 SWAP1 PUSH1 0x2 MUL ADD PUSH1 0x0 SWAP1 SWAP2 SWAP1 SWAP2 SWAP1 SWAP2 POP PUSH1 0x0 DUP3 ADD MLOAD DUP2 PUSH1 0x0 ADD SSTORE PUSH1 0x20 DUP3 ADD MLOAD DUP2 PUSH1 0x1 ADD SSTORE POP POP DUP1 DUP1 PUSH1 0x1 ADD SWAP2 POP POP PUSH2 0x713 JUMP JUMPDEST POP POP JUMP JUMPDEST DUP2 PUSH1 0x1 DUP1 SLOAD SWAP1 POP DUP2 LT PUSH2 0x7CC JUMPI PUSH1 0x40 MLOAD PUSH32 0x8C379A000000000000000000000000000000000000000000000000000000000 DUP2 MSTORE PUSH1 0x4 ADD PUSH2 0x7C3 SWAP1 PUSH2 0x11A7 JUMP JUMPDEST PUSH1 0x40 MLOAD DUP1 SWAP2 SUB SWAP1 REVERT JUMPDEST PUSH1 0x0 PUSH2 0x7FC PUSH1 0x1 DUP6 DUP2 SLOAD DUP2 LT PUSH2 0x7E5 JUMPI PUSH2 0x7E4 PUSH2 0xDFC JUMP JUMPDEST JUMPDEST SWAP1 PUSH1 0x0 MSTORE PUSH1 0x20 PUSH1 0x0 KECCAK256 SWAP1 PUSH1 0x2 MUL ADD PUSH1 0x0 ADD SLOAD PUSH2 0x89E JUMP JUMPDEST SWAP1 POP DUP1 PUSH1 0x1 DUP6 DUP2 SLOAD DUP2 LT PUSH2 0x813 JUMPI PUSH2 0x812 PUSH2 0xDFC JUMP JUMPDEST JUMPDEST SWAP1 PUSH1 0x0 MSTORE PUSH1 0x20 PUSH1 0x0 KECCAK256 SWAP1 PUSH1 0x2 MUL ADD PUSH1 0x0 ADD DUP2 SWAP1 SSTORE POP PUSH1 0x0 PUSH2 0x859 PUSH1 0x1 DUP7 DUP2 SLOAD DUP2 LT PUSH2 0x841 JUMPI PUSH2 0x840 PUSH2 0xDFC JUMP JUMPDEST JUMPDEST SWAP1 PUSH1 0x0 MSTORE PUSH1 0x20 PUSH1 0x0 KECCAK256 SWAP1 PUSH1 0x2 MUL ADD PUSH1 0x1 ADD SLOAD DUP6 PUSH2 0x8B9 JUMP JUMPDEST SWAP1 POP DUP1 PUSH1 0x1 DUP7 DUP2 SLOAD DUP2 LT PUSH2 0x870 JUMPI PUSH2 0x86F PUSH2 0xDFC JUMP JUMPDEST JUMPDEST SWAP1 PUSH1 0x0 MSTORE PUSH1 0x20 PUSH1 0x0 KECCAK256 SWAP1 PUSH1 0x2 MUL ADD PUSH1 0x1 ADD PUSH1 0x0 DUP3 DUP3 SLOAD PUSH2 0x890 SWAP2 SWAP1 PUSH2 0x11F6 JUMP JUMPDEST SWAP3 POP POP DUP2 SWAP1 SSTORE POP POP POP POP POP POP JUMP JUMPDEST PUSH1 0x0 DUP1 PUSH1 0x1 DUP4 PUSH2 0x8AE SWAP2 SWAP1 PUSH2 0x11F6 JUMP JUMPDEST SWAP1 POP DUP1 SWAP2 POP POP SWAP2 SWAP1 POP JUMP JUMPDEST PUSH1 0x0 DUP1 DUP3 DUP5 PUSH2 0x8C8 SWAP2 SWAP1 PUSH2 0x11F6 JUMP JUMPDEST SWAP1 POP DUP1 SWAP2 POP POP SWAP3 SWAP2 POP POP JUMP JUMPDEST PUSH1 0x0 PUSH20 0xFFFFFFFFFFFFFFFFFFFFFFFFFFFFFFFFFFFFFFFF DUP3 AND SWAP1 POP SWAP2 SWAP1 POP JUMP JUMPDEST PUSH1 0x0 PUSH2 0x8FF DUP3 PUSH2 0x8D4 JUMP JUMPDEST SWAP1 POP SWAP2 SWAP1 POP JUMP JUMPDEST PUSH2 0x90F DUP2 PUSH2 0x8F4 JUMP JUMPDEST DUP3 MSTORE POP POP JUMP JUMPDEST PUSH1 0x0 DUP2 SWAP1 POP SWAP2 SWAP1 POP JUMP JUMPDEST PUSH2 0x928 DUP2 PUSH2 0x915 JUMP JUMPDEST DUP3 MSTORE POP POP JUMP JUMPDEST PUSH1 0x0 PUSH1 0x40 DUP3 ADD SWAP1 POP PUSH2 0x943 PUSH1 0x0 DUP4 ADD DUP6 PUSH2 0x906 JUMP JUMPDEST PUSH2 0x950 PUSH1 0x20 DUP4 ADD DUP5 PUSH2 0x91F JUMP JUMPDEST SWAP4 SWAP3 POP POP POP JUMP JUMPDEST PUSH1 0x0 DUP2 MLOAD SWAP1 POP SWAP2 SWAP1 POP JUMP JUMPDEST PUSH1 0x0 DUP3 DUP3 MSTORE PUSH1 0x20 DUP3 ADD SWAP1 POP SWAP3 SWAP2 POP POP JUMP JUMPDEST PUSH1 0x0 DUP2 SWAP1 POP PUSH1 0x20 DUP3 ADD SWAP1 POP SWAP2 SWAP1 POP JUMP JUMPDEST PUSH2 0x98C DUP2 PUSH2 0x915 JUMP JUMPDEST DUP3 MSTORE POP POP JUMP JUMPDEST PUSH1 0x40 DUP3 ADD PUSH1 0x0 DUP3 ADD MLOAD PUSH2 0x9A8 PUSH1 0x0 DUP6 ADD DUP3 PUSH2 0x983 JUMP JUMPDEST POP PUSH1 0x20 DUP3 ADD MLOAD PUSH2 0x9BB PUSH1 0x20 DUP6 ADD DUP3 PUSH2 0x983 JUMP JUMPDEST POP POP POP POP JUMP JUMPDEST PUSH1 0x0 PUSH2 0x9CD DUP4 DUP4 PUSH2 0x992 JUMP JUMPDEST PUSH1 0x40 DUP4 ADD SWAP1 POP SWAP3 SWAP2 POP POP JUMP JUMPDEST PUSH1 0x0 PUSH1 0x20 DUP3 ADD SWAP1 POP SWAP2 SWAP1 POP JUMP JUMPDEST PUSH1 0x0 PUSH2 0x9F1 DUP3 PUSH2 0x957 JUMP JUMPDEST PUSH2 0x9FB DUP2 DUP6 PUSH2 0x962 JUMP JUMPDEST SWAP4 POP PUSH2 0xA06 DUP4 PUSH2 0x973 JUMP JUMPDEST DUP1 PUSH1 0x0 JUMPDEST DUP4 DUP2 LT ISZERO PUSH2 0xA37 JUMPI DUP2 MLOAD PUSH2 0xA1E DUP9 DUP3 PUSH2 0x9C1 JUMP JUMPDEST SWAP8 POP PUSH2 0xA29 DUP4 PUSH2 0x9D9 JUMP JUMPDEST SWAP3 POP POP PUSH1 0x1 DUP2 ADD SWAP1 POP PUSH2 0xA0A JUMP JUMPDEST POP DUP6 SWAP4 POP POP POP POP SWAP3 SWAP2 POP POP JUMP JUMPDEST PUSH1 0x0 PUSH1 0x20 DUP3 ADD SWAP1 POP DUP2 DUP2 SUB PUSH1 0x0 DUP4 ADD MSTORE PUSH2 0xA5E DUP2 DUP5 PUSH2 0x9E6 JUMP JUMPDEST SWAP1 POP SWAP3 SWAP2 POP POP JUMP JUMPDEST PUSH1 0x0 PUSH1 0x40 MLOAD SWAP1 POP SWAP1 JUMP JUMPDEST PUSH1 0x0 DUP1 REVERT JUMPDEST PUSH1 0x0 DUP1 REVERT JUMPDEST PUSH2 0xA83 DUP2 PUSH2 0x915 JUMP JUMPDEST DUP2 EQ PUSH2 0xA8E JUMPI PUSH1 0x0 DUP1 REVERT JUMPDEST POP JUMP JUMPDEST PUSH1 0x0 DUP2 CALLDATALOAD SWAP1 POP PUSH2 0xAA0 DUP2 PUSH2 0xA7A JUMP JUMPDEST SWAP3 SWAP2 POP POP JUMP JUMPDEST PUSH1 0x0 PUSH1 0x20 DUP3 DUP5 SUB SLT ISZERO PUSH2 0xABC JUMPI PUSH2 0xABB PUSH2 0xA70 JUMP JUMPDEST JUMPDEST PUSH1 0x0 PUSH2 0xACA DUP5 DUP3 DUP6 ADD PUSH2 0xA91 JUMP JUMPDEST SWAP2 POP POP SWAP3 SWAP2 POP POP JUMP JUMPDEST PUSH1 0x0 PUSH1 0x40 DUP3 ADD SWAP1 POP PUSH2 0xAE8 PUSH1 0x0 DUP4 ADD DUP6 PUSH2 0x91F JUMP JUMPDEST PUSH2 0xAF5 PUSH1 0x20 DUP4 ADD DUP5 PUSH2 0x91F JUMP JUMPDEST SWAP4 SWAP3 POP POP POP JUMP JUMPDEST PUSH1 0x0 DUP2 MLOAD SWAP1 POP SWAP2 SWAP1 POP JUMP JUMPDEST PUSH1 0x0 DUP3 DUP3 MSTORE PUSH1 0x20 DUP3 ADD SWAP1 POP SWAP3 SWAP2 POP POP JUMP JUMPDEST PUSH1 0x0 DUP2 SWAP1 POP PUSH1 0x20 DUP3 ADD SWAP1 POP SWAP2 SWAP1 POP JUMP JUMPDEST PUSH1 0x0 PUSH2 0xB33 DUP3 PUSH2 0x8D4 JUMP JUMPDEST SWAP1 POP SWAP2 SWAP1 POP JUMP JUMPDEST PUSH2 0xB43 DUP2 PUSH2 0xB28 JUMP JUMPDEST DUP3 MSTORE POP POP JUMP JUMPDEST PUSH1 0x0 PUSH2 0xB55 DUP4 DUP4 PUSH2 0xB3A JUMP JUMPDEST PUSH1 0x20 DUP4 ADD SWAP1 POP SWAP3 SWAP2 POP POP JUMP JUMPDEST PUSH1 0x0 PUSH1 0x20 DUP3 ADD SWAP1 POP SWAP2 SWAP1 POP JUMP JUMPDEST PUSH1 0x0 PUSH2 0xB79 DUP3 PUSH2 0xAFC JUMP JUMPDEST PUSH2 0xB83 DUP2 DUP6 PUSH2 0xB07 JUMP JUMPDEST SWAP4 POP PUSH2 0xB8E DUP4 PUSH2 0xB18 JUMP JUMPDEST DUP1 PUSH1 0x0 JUMPDEST DUP4 DUP2 LT ISZERO PUSH2 0xBBF JUMPI DUP2 MLOAD PUSH2 0xBA6 DUP9 DUP3 PUSH2 0xB49 JUMP JUMPDEST SWAP8 POP PUSH2 0xBB1 DUP4 PUSH2 0xB61 JUMP JUMPDEST SWAP3 POP POP PUSH1 0x1 DUP2 ADD SWAP1 POP PUSH2 0xB92 JUMP JUMPDEST POP DUP6 SWAP4 POP POP POP POP SWAP3 SWAP2 POP POP JUMP JUMPDEST PUSH1 0x0 PUSH1 0x20 DUP3 ADD SWAP1 POP DUP2 DUP2 SUB PUSH1 0x0 DUP4 ADD MSTORE PUSH2 0xBE6 DUP2 DUP5 PUSH2 0xB6E JUMP JUMPDEST SWAP1 POP SWAP3 SWAP2 POP POP JUMP JUMPDEST PUSH1 0x0 DUP1 REVERT JUMPDEST PUSH1 0x0 PUSH1 0x1F NOT PUSH1 0x1F DUP4 ADD AND SWAP1 POP SWAP2 SWAP1 POP JUMP JUMPDEST PUSH32 0x4E487B7100000000000000000000000000000000000000000000000000000000 PUSH1 0x0 MSTORE PUSH1 0x41 PUSH1 0x4 MSTORE PUSH1 0x24 PUSH1 0x0 REVERT JUMPDEST PUSH2 0xC3C DUP3 PUSH2 0xBF3 JUMP JUMPDEST DUP2 ADD DUP2 DUP2 LT PUSH8 0xFFFFFFFFFFFFFFFF DUP3 GT OR ISZERO PUSH2 0xC5B JUMPI PUSH2 0xC5A PUSH2 0xC04 JUMP JUMPDEST JUMPDEST DUP1 PUSH1 0x40 MSTORE POP POP POP JUMP JUMPDEST PUSH1 0x0 PUSH2 0xC6E PUSH2 0xA66 JUMP JUMPDEST SWAP1 POP PUSH2 0xC7A DUP3 DUP3 PUSH2 0xC33 JUMP JUMPDEST SWAP2 SWAP1 POP JUMP JUMPDEST PUSH1 0x0 PUSH8 0xFFFFFFFFFFFFFFFF DUP3 GT ISZERO PUSH2 0xC9A JUMPI PUSH2 0xC99 PUSH2 0xC04 JUMP JUMPDEST JUMPDEST PUSH1 0x20 DUP3 MUL SWAP1 POP PUSH1 0x20 DUP2 ADD SWAP1 POP SWAP2 SWAP1 POP JUMP JUMPDEST PUSH1 0x0 DUP1 REVERT JUMPDEST PUSH2 0xCB9 DUP2 PUSH2 0x8F4 JUMP JUMPDEST DUP2 EQ PUSH2 0xCC4 JUMPI PUSH1 0x0 DUP1 REVERT JUMPDEST POP JUMP JUMPDEST PUSH1 0x0 DUP2 CALLDATALOAD SWAP1 POP PUSH2 0xCD6 DUP2 PUSH2 0xCB0 JUMP JUMPDEST SWAP3 SWAP2 POP POP JUMP JUMPDEST PUSH1 0x0 PUSH2 0xCEF PUSH2 0xCEA DUP5 PUSH2 0xC7F JUMP JUMPDEST PUSH2 0xC64 JUMP JUMPDEST SWAP1 POP DUP1 DUP4 DUP3 MSTORE PUSH1 0x20 DUP3 ADD SWAP1 POP PUSH1 0x20 DUP5 MUL DUP4 ADD DUP6 DUP2 GT ISZERO PUSH2 0xD12 JUMPI PUSH2 0xD11 PUSH2 0xCAB JUMP JUMPDEST JUMPDEST DUP4 JUMPDEST DUP2 DUP2 LT ISZERO PUSH2 0xD3B JUMPI DUP1 PUSH2 0xD27 DUP9 DUP3 PUSH2 0xCC7 JUMP JUMPDEST DUP5 MSTORE PUSH1 0x20 DUP5 ADD SWAP4 POP POP PUSH1 0x20 DUP2 ADD SWAP1 POP PUSH2 0xD14 JUMP JUMPDEST POP POP POP SWAP4 SWAP3 POP POP POP JUMP JUMPDEST PUSH1 0x0 DUP3 PUSH1 0x1F DUP4 ADD SLT PUSH2 0xD5A JUMPI PUSH2 0xD59 PUSH2 0xBEE JUMP JUMPDEST JUMPDEST DUP2 CALLDATALOAD PUSH2 0xD6A DUP5 DUP3 PUSH1 0x20 DUP7 ADD PUSH2 0xCDC JUMP JUMPDEST SWAP2 POP POP SWAP3 SWAP2 POP POP JUMP JUMPDEST PUSH1 0x0 PUSH1 0x20 DUP3 DUP5 SUB SLT ISZERO PUSH2 0xD89 JUMPI PUSH2 0xD88 PUSH2 0xA70 JUMP JUMPDEST JUMPDEST PUSH1 0x0 DUP3 ADD CALLDATALOAD PUSH8 0xFFFFFFFFFFFFFFFF DUP2 GT ISZERO PUSH2 0xDA7 JUMPI PUSH2 0xDA6 PUSH2 0xA75 JUMP JUMPDEST JUMPDEST PUSH2 0xDB3 DUP5 DUP3 DUP6 ADD PUSH2 0xD45 JUMP JUMPDEST SWAP2 POP POP SWAP3 SWAP2 POP POP JUMP JUMPDEST PUSH1 0x0 DUP1 PUSH1 0x40 DUP4 DUP6 SUB SLT ISZERO PUSH2 0xDD3 JUMPI PUSH2 0xDD2 PUSH2 0xA70 JUMP JUMPDEST JUMPDEST PUSH1 0x0 PUSH2 0xDE1 DUP6 DUP3 DUP7 ADD PUSH2 0xA91 JUMP JUMPDEST SWAP3 POP POP PUSH1 0x20 PUSH2 0xDF2 DUP6 DUP3 DUP7 ADD PUSH2 0xA91 JUMP JUMPDEST SWAP2 POP POP SWAP3 POP SWAP3 SWAP1 POP JUMP JUMPDEST PUSH32 0x4E487B7100000000000000000000000000000000000000000000000000000000 PUSH1 0x0 MSTORE PUSH1 0x32 PUSH1 0x4 MSTORE PUSH1 0x24 PUSH1 0x0 REVERT JUMPDEST PUSH1 0x0 DUP3 DUP3 MSTORE PUSH1 0x20 DUP3 ADD SWAP1 POP SWAP3 SWAP2 POP POP JUMP JUMPDEST PUSH32 0x596F75206D757374206265206F6E65206F66207468652062656E656669636961 PUSH1 0x0 DUP3 ADD MSTORE PUSH32 0x7269657321000000000000000000000000000000000000000000000000000000 PUSH1 0x20 DUP3 ADD MSTORE POP JUMP JUMPDEST PUSH1 0x0 PUSH2 0xE98 PUSH1 0x25 DUP4 PUSH2 0xE2B JUMP JUMPDEST SWAP2 POP PUSH2 0xEA3 DUP3 PUSH2 0xE3C JUMP JUMPDEST PUSH1 0x40 DUP3 ADD SWAP1 POP SWAP2 SWAP1 POP JUMP JUMPDEST PUSH1 0x0 PUSH1 0x20 DUP3 ADD SWAP1 POP DUP2 DUP2 SUB PUSH1 0x0 DUP4 ADD MSTORE PUSH2 0xEC7 DUP2 PUSH2 0xE8B JUMP JUMPDEST SWAP1 POP SWAP2 SWAP1 POP JUMP JUMPDEST PUSH1 0x0 DUP2 SWAP1 POP SWAP3 SWAP2 POP POP JUMP JUMPDEST POP JUMP JUMPDEST PUSH1 0x0 PUSH2 0xEE9 PUSH1 0x0 DUP4 PUSH2 0xECE JUMP JUMPDEST SWAP2 POP PUSH2 0xEF4 DUP3 PUSH2 0xED9 JUMP JUMPDEST PUSH1 0x0 DUP3 ADD SWAP1 POP SWAP2 SWAP1 POP JUMP JUMPDEST PUSH1 0x0 PUSH2 0xF0A DUP3 PUSH2 0xEDC JUMP JUMPDEST SWAP2 POP DUP2 SWAP1 POP SWAP2 SWAP1 POP JUMP JUMPDEST PUSH32 0x4661696C656420746F2073656E64204574686572000000000000000000000000 PUSH1 0x0 DUP3 ADD MSTORE POP JUMP JUMPDEST PUSH1 0x0 PUSH2 0xF4A PUSH1 0x14 DUP4 PUSH2 0xE2B JUMP JUMPDEST SWAP2 POP PUSH2 0xF55 DUP3 PUSH2 0xF14 JUMP JUMPDEST PUSH1 0x20 DUP3 ADD SWAP1 POP SWAP2 SWAP1 POP JUMP JUMPDEST PUSH1 0x0 PUSH1 0x20 DUP3 ADD SWAP1 POP DUP2 DUP2 SUB PUSH1 0x0 DUP4 ADD MSTORE PUSH2 0xF79 DUP2 PUSH2 0xF3D JUMP JUMPDEST SWAP1 POP SWAP2 SWAP1 POP JUMP JUMPDEST PUSH1 0x0 PUSH1 0x20 DUP3 ADD SWAP1 POP PUSH2 0xF95 PUSH1 0x0 DUP4 ADD DUP5 PUSH2 0x91F JUMP JUMPDEST SWAP3 SWAP2 POP POP JUMP JUMPDEST PUSH1 0x0 DUP2 SWAP1 POP SWAP2 SWAP1 POP JUMP JUMPDEST PUSH1 0x0 PUSH2 0xFC0 PUSH2 0xFBB PUSH2 0xFB6 DUP5 PUSH2 0x8D4 JUMP JUMPDEST PUSH2 0xF9B JUMP JUMPDEST PUSH2 0x8D4 JUMP JUMPDEST SWAP1 POP SWAP2 SWAP1 POP JUMP JUMPDEST PUSH1 0x0 PUSH2 0xFD2 DUP3 PUSH2 0xFA5 JUMP JUMPDEST SWAP1 POP SWAP2 SWAP1 POP JUMP JUMPDEST PUSH1 0x0 PUSH2 0xFE4 DUP3 PUSH2 0xFC7 JUMP JUMPDEST SWAP1 POP SWAP2 SWAP1 POP JUMP JUMPDEST PUSH2 0xFF4 DUP2 PUSH2 0xFD9 JUMP JUMPDEST DUP3 MSTORE POP POP JUMP JUMPDEST PUSH1 0x0 PUSH1 0x40 DUP3 ADD SWAP1 POP PUSH2 0x100F PUSH1 0x0 DUP4 ADD DUP6 PUSH2 0xFEB JUMP JUMPDEST PUSH2 0x101C PUSH1 0x20 DUP4 ADD DUP5 PUSH2 0x91F JUMP JUMPDEST SWAP4 SWAP3 POP POP POP JUMP JUMPDEST PUSH1 0x0 PUSH8 0xFFFFFFFFFFFFFFFF DUP3 GT ISZERO PUSH2 0x103E JUMPI PUSH2 0x103D PUSH2 0xC04 JUMP JUMPDEST JUMPDEST PUSH1 0x20 DUP3 MUL SWAP1 POP PUSH1 0x20 DUP2 ADD SWAP1 POP SWAP2 SWAP1 POP JUMP JUMPDEST PUSH2 0x1058 DUP2 PUSH2 0xB28 JUMP JUMPDEST DUP2 EQ PUSH2 0x1063 JUMPI PUSH1 0x0 DUP1 REVERT JUMPDEST POP JUMP JUMPDEST PUSH1 0x0 DUP2 MLOAD SWAP1 POP PUSH2 0x1075 DUP2 PUSH2 0x104F JUMP JUMPDEST SWAP3 SWAP2 POP POP JUMP JUMPDEST PUSH1 0x0 PUSH2 0x108E PUSH2 0x1089 DUP5 PUSH2 0x1023 JUMP JUMPDEST PUSH2 0xC64 JUMP JUMPDEST SWAP1 POP DUP1 DUP4 DUP3 MSTORE PUSH1 0x20 DUP3 ADD SWAP1 POP PUSH1 0x20 DUP5 MUL DUP4 ADD DUP6 DUP2 GT ISZERO PUSH2 0x10B1 JUMPI PUSH2 0x10B0 PUSH2 0xCAB JUMP JUMPDEST JUMPDEST DUP4 JUMPDEST DUP2 DUP2 LT ISZERO PUSH2 0x10DA JUMPI DUP1 PUSH2 0x10C6 DUP9 DUP3 PUSH2 0x1066 JUMP JUMPDEST DUP5 MSTORE PUSH1 0x20 DUP5 ADD SWAP4 POP POP PUSH1 0x20 DUP2 ADD SWAP1 POP PUSH2 0x10B3 JUMP JUMPDEST POP POP POP SWAP4 SWAP3 POP POP POP JUMP JUMPDEST PUSH1 0x0 DUP3 PUSH1 0x1F DUP4 ADD SLT PUSH2 0x10F9 JUMPI PUSH2 0x10F8 PUSH2 0xBEE JUMP JUMPDEST JUMPDEST DUP2 MLOAD PUSH2 0x1109 DUP5 DUP3 PUSH1 0x20 DUP7 ADD PUSH2 0x107B JUMP JUMPDEST SWAP2 POP POP SWAP3 SWAP2 POP POP JUMP JUMPDEST PUSH1 0x0 PUSH1 0x20 DUP3 DUP5 SUB SLT ISZERO PUSH2 0x1128 JUMPI PUSH2 0x1127 PUSH2 0xA70 JUMP JUMPDEST JUMPDEST PUSH1 0x0 DUP3 ADD MLOAD PUSH8 0xFFFFFFFFFFFFFFFF DUP2 GT ISZERO PUSH2 0x1146 JUMPI PUSH2 0x1145 PUSH2 0xA75 JUMP JUMPDEST JUMPDEST PUSH2 0x1152 DUP5 DUP3 DUP6 ADD PUSH2 0x10E4 JUMP JUMPDEST SWAP2 POP POP SWAP3 SWAP2 POP POP JUMP JUMPDEST PUSH32 0x496E76616C6964206F7074696F6E20696E646578000000000000000000000000 PUSH1 0x0 DUP3 ADD MSTORE POP JUMP JUMPDEST PUSH1 0x0 PUSH2 0x1191 PUSH1 0x14 DUP4 PUSH2 0xE2B JUMP JUMPDEST SWAP2 POP PUSH2 0x119C DUP3 PUSH2 0x115B JUMP JUMPDEST PUSH1 0x20 DUP3 ADD SWAP1 POP SWAP2 SWAP1 POP JUMP JUMPDEST PUSH1 0x0 PUSH1 0x20 DUP3 ADD SWAP1 POP DUP2 DUP2 SUB PUSH1 0x0 DUP4 ADD MSTORE PUSH2 0x11C0 DUP2 PUSH2 0x1184 JUMP JUMPDEST SWAP1 POP SWAP2 SWAP1 POP JUMP JUMPDEST PUSH32 0x4E487B7100000000000000000000000000000000000000000000000000000000 PUSH1 0x0 MSTORE PUSH1 0x11 PUSH1 0x4 MSTORE PUSH1 0x24 PUSH1 0x0 REVERT JUMPDEST PUSH1 0x0 PUSH2 0x1201 DUP3 PUSH2 0x915 JUMP JUMPDEST SWAP2 POP PUSH2 0x120C DUP4 PUSH2 0x915 JUMP JUMPDEST SWAP3 POP DUP3 DUP3 ADD SWAP1 POP DUP1 DUP3 GT ISZERO PUSH2 0x1224 JUMPI PUSH2 0x1223 PUSH2 0x11C7 JUMP JUMPDEST JUMPDEST SWAP3 SWAP2 POP POP JUMP INVALID LOG2 PUSH5 0x6970667358 0x22 SLT KECCAK256 TIMESTAMP CHAINID PUSH7 0x44AD1128EF5BF2 0xE1 CALLDATALOAD 0xD1 TLOAD 0xEA SDIV 0x2C 0x2E PUSH25 0x58B3C812E37E185BB94CDFBAD264736F6C6343000818003300 "},"methodIdentifiers":{"addVote(uint256,uint256)":"fcca991b","getBeneficiaries()":"913b722c","options(uint256)":"409e2205","releaseFunds()":"69d89575","returnAllFunds(address[])":"d58ed253","setOptions(uint256)":"e1a44749","voteCounts()":"0f01870b"}}}}}