{"contracts/Poll.sol":{"Poll":{"abi":[{"inputs":[{"internalType":"string","name":"_title","type":"string"},{"internalType":"string","name":"_description","type":"string"},{"internalType":"string[]","name":"_options","type":"string[]"},{"internalType":"uint256","name":"_deadline","type":"uint256"},{"internalType":"contract Escrow","name":"_escrow","type":"address"}],"stateMutability":"nonpayable","type":"constructor"},{"anonymous":false,"inputs":[{"indexed":true,"internalType":"address","name":"voter","type":"address"},{"indexed":true,"internalType":"uint256","name":"optionIndex","type":"uint256"},{"indexed":false,"internalType":"uint256","name":"amount","type":"uint256"}],"name":"VoteCast","type":"event"},{"inputs":[],"name":"contribute","outputs":[],"stateMutability":"payable","type":"function"},{"inputs":[],"name":"getAllVoters","outputs":[{"internalType":"address[]","name":"","type":"address[]"}],"stateMutability":"view","type":"function"},{"inputs":[],"name":"getVotes","outputs":[{"components":[{"internalType":"uint256","name":"voteCount","type":"uint256"},{"internalType":"uint256","name":"totalContributions","type":"uint256"}],"internalType":"struct Escrow.Option[]","name":"","type":"tuple[]"}],"stateMutability":"view","type":"function"},{"inputs":[],"name":"getWinningOption","outputs":[{"internalType":"uint256","name":"","type":"uint256"}],"stateMutability":"view","type":"function"},{"inputs":[{"internalType":"address","name":"","type":"address"}],"name":"hasVoted","outputs":[{"internalType":"bool","name":"","type":"bool"}],"stateMutability":"view","type":"function"},{"inputs":[],"name":"pollData","outputs":[{"internalType":"string","name":"title","type":"string"},{"internalType":"string","name":"description","type":"string"},{"internalType":"uint256","name":"deadline","type":"uint256"},{"internalType":"contract Escrow","name":"escrow","type":"address"}],"stateMutability":"view","type":"function"},{"inputs":[],"name":"returnMoney","outputs":[],"stateMutability":"nonpayable","type":"function"},{"inputs":[{"internalType":"uint256","name":"optionIndex","type":"uint256"}],"name":"vote","outputs":[],"stateMutability":"payable","type":"function"},{"inputs":[{"internalType":"uint256","name":"","type":"uint256"}],"name":"voters","outputs":[{"internalType":"address","name":"","type":"address"}],"stateMutability":"view","type":"function"}],"evm":{"bytecode":{"linkReferences":{},"object":"60806040523480156200001157600080fd5b5060405162002ab038038062002ab083398181016040528101906200003791906200059a565b846000800190816200004a9190620008c0565b5083600060010190816200005f9190620008c0565b5082600060020190805190602001906200007b9291906200016a565b508160006003018190555080600060040160006101000a81548173ffffffffffffffffffffffffffffffffffffffff021916908373ffffffffffffffffffffffffffffffffffffffff160217905550600060040160009054906101000a900473ffffffffffffffffffffffffffffffffffffffff1673ffffffffffffffffffffffffffffffffffffffff1663e1a4474984516040518263ffffffff1660e01b81526004016200012b9190620009b8565b600060405180830381600087803b1580156200014657600080fd5b505af11580156200015b573d6000803e3d6000fd5b505050505050505050620009d5565b828054828255906000526020600020908101928215620001b7579160200282015b82811115620001b6578251829081620001a59190620008c0565b50916020019190600101906200018b565b5b509050620001c69190620001ca565b5090565b5b80821115620001ee5760008181620001e49190620001f2565b50600101620001cb565b5090565b5080546200020090620006b9565b6000825580601f1062000214575062000235565b601f01602090049060005260206000209081019062000234919062000238565b5b50565b5b808211156200025357600081600090555060010162000239565b5090565b6000604051905090565b600080fd5b600080fd5b600080fd5b600080fd5b6000601f19601f8301169050919050565b7f4e487b7100000000000000000000000000000000000000000000000000000000600052604160045260246000fd5b620002c08262000275565b810181811067ffffffffffffffff82111715620002e257620002e162000286565b5b80604052505050565b6000620002f762000257565b9050620003058282620002b5565b919050565b600067ffffffffffffffff82111562000328576200032762000286565b5b620003338262000275565b9050602081019050919050565b60005b838110156200036057808201518184015260208101905062000343565b60008484015250505050565b6000620003836200037d846200030a565b620002eb565b905082815260208101848484011115620003a257620003a162000270565b5b620003af84828562000340565b509392505050565b600082601f830112620003cf57620003ce6200026b565b5b8151620003e18482602086016200036c565b91505092915050565b600067ffffffffffffffff82111562000408576200040762000286565b5b602082029050602081019050919050565b600080fd5b6000620004356200042f84620003ea565b620002eb565b905080838252602082019050602084028301858111156200045b576200045a62000419565b5b835b81811015620004a957805167ffffffffffffffff8111156200048457620004836200026b565b5b808601620004938982620003b7565b855260208501945050506020810190506200045d565b5050509392505050565b600082601f830112620004cb57620004ca6200026b565b5b8151620004dd8482602086016200041e565b91505092915050565b6000819050919050565b620004fb81620004e6565b81146200050757600080fd5b50565b6000815190506200051b81620004f0565b92915050565b600073ffffffffffffffffffffffffffffffffffffffff82169050919050565b60006200054e8262000521565b9050919050565b6000620005628262000541565b9050919050565b620005748162000555565b81146200058057600080fd5b50565b600081519050620005948162000569565b92915050565b600080600080600060a08688031215620005b957620005b862000261565b5b600086015167ffffffffffffffff811115620005da57620005d962000266565b5b620005e888828901620003b7565b955050602086015167ffffffffffffffff8111156200060c576200060b62000266565b5b6200061a88828901620003b7565b945050604086015167ffffffffffffffff8111156200063e576200063d62000266565b5b6200064c88828901620004b3565b93505060606200065f888289016200050a565b9250506080620006728882890162000583565b9150509295509295909350565b600081519050919050565b7f4e487b7100000000000000000000000000000000000000000000000000000000600052602260045260246000fd5b60006002820490506001821680620006d257607f821691505b602082108103620006e857620006e76200068a565b5b50919050565b60008190508160005260206000209050919050565b60006020601f8301049050919050565b600082821b905092915050565b600060088302620007527fffffffffffffffffffffffffffffffffffffffffffffffffffffffffffffffff8262000713565b6200075e868362000713565b95508019841693508086168417925050509392505050565b6000819050919050565b6000620007a16200079b6200079584620004e6565b62000776565b620004e6565b9050919050565b6000819050919050565b620007bd8362000780565b620007d5620007cc82620007a8565b84845462000720565b825550505050565b600090565b620007ec620007dd565b620007f9818484620007b2565b505050565b5b81811015620008215762000815600082620007e2565b600181019050620007ff565b5050565b601f82111562000870576200083a81620006ee565b620008458462000703565b8101602085101562000855578190505b6200086d620008648562000703565b830182620007fe565b50505b505050565b600082821c905092915050565b6000620008956000198460080262000875565b1980831691505092915050565b6000620008b0838362000882565b9150826002028217905092915050565b620008cb826200067f565b67ffffffffffffffff811115620008e757620008e662000286565b5b620008f38254620006b9565b6200090082828562000825565b600060209050601f83116001811462000938576000841562000923578287015190505b6200092f8582620008a2565b8655506200099f565b601f1984166200094886620006ee565b60005b8281101562000972578489015182556001820191506020850194506020810190506200094b565b868310156200099257848901516200098e601f89168262000882565b8355505b6001600288020188555050505b505050505050565b620009b281620004e6565b82525050565b6000602082019050620009cf6000830184620009a7565b92915050565b6120cb80620009e56000396000f3fe6080604052600436106100865760003560e01c806335bbe70e1161005957806335bbe70e1461013d5780637eeb4520146101685780639311931214610193578063d7bb99ba146101aa578063da58c7d9146101b457610086565b80630121b93f1461008b57806309eef43e146100a75780630dc96015146100e457806331e7dede1461010f575b600080fd5b6100a560048036038101906100a091906112df565b6101f1565b005b3480156100b357600080fd5b506100ce60048036038101906100c9919061136a565b610633565b6040516100db91906113b2565b60405180910390f35b3480156100f057600080fd5b506100f9610653565b60405161010691906114ba565b60405180910390f35b34801561011b57600080fd5b50610124610832565b60405161013494939291906115da565b60405180910390f35b34801561014957600080fd5b50610152610980565b60405161015f91906116eb565b60405180910390f35b34801561017457600080fd5b5061017d610b4d565b60405161018a919061170d565b60405180910390f35b34801561019f57600080fd5b506101a8610de2565b005b6101b2610fb4565b005b3480156101c057600080fd5b506101db60048036038101906101d691906112df565b611256565b6040516101e89190611737565b60405180910390f35b6000600301544210610238576040517f08c379a000000000000000000000000000000000000000000000000000000000815260040161022f9061179e565b60405180910390fd5b806000600201805490508110610283576040517f08c379a000000000000000000000000000000000000000000000000000000000815260040161027a9061180a565b60405180910390fd5b600034116102c6576040517f08c379a00000000000000000000000000000000000000000000000000000000081526004016102bd90611876565b60405180910390fd5b600560003373ffffffffffffffffffffffffffffffffffffffff1673ffffffffffffffffffffffffffffffffffffffff16815260200190815260200160002060009054906101000a900460ff1615610353576040517f08c379a000000000000000000000000000000000000000000000000000000000815260040161034a906118e2565b60405180910390fd5b60008060040160009054906101000a900473ffffffffffffffffffffffffffffffffffffffff1673ffffffffffffffffffffffffffffffffffffffff1663913b722c6040518163ffffffff1660e01b8152600401600060405180830381865afa1580156103c4573d6000803e3d6000fd5b505050506040513d6000823e3d601f19601f820116820180604052508101906103ed9190611a88565b905060005b81518110156104905781818151811061040e5761040d611ad1565b5b602002602001015173ffffffffffffffffffffffffffffffffffffffff163373ffffffffffffffffffffffffffffffffffffffff1603610483576040517f08c379a000000000000000000000000000000000000000000000000000000000815260040161047a90611b4c565b60405180910390fd5b80806001019150506103f2565b506001600560003373ffffffffffffffffffffffffffffffffffffffff1673ffffffffffffffffffffffffffffffffffffffff16815260200190815260200160002060006101000a81548160ff0219169083151502179055506006339080600181540180825580915050600190039060005260206000200160009091909190916101000a81548173ffffffffffffffffffffffffffffffffffffffff021916908373ffffffffffffffffffffffffffffffffffffffff160217905550600060040160009054906101000a900473ffffffffffffffffffffffffffffffffffffffff1673ffffffffffffffffffffffffffffffffffffffff1663fcca991b3485346040518463ffffffff1660e01b81526004016105ad929190611b6c565b6000604051808303818588803b1580156105c657600080fd5b505af11580156105da573d6000803e3d6000fd5b5050505050823373ffffffffffffffffffffffffffffffffffffffff167fb4cfecf70861b7b150d8337780d34fb4cbc2114b5fb1fe51a5c5fca1849f727434604051610626919061170d565b60405180910390a3505050565b60056020528060005260406000206000915054906101000a900460ff1681565b606060008060040160009054906101000a900473ffffffffffffffffffffffffffffffffffffffff1673ffffffffffffffffffffffffffffffffffffffff1663913b722c6040518163ffffffff1660e01b8152600401600060405180830381865afa1580156106c6573d6000803e3d6000fd5b505050506040513d6000823e3d601f19601f820116820180604052508101906106ef9190611a88565b905060005b8151811015610792578181815181106107105761070f611ad1565b5b602002602001015173ffffffffffffffffffffffffffffffffffffffff163373ffffffffffffffffffffffffffffffffffffffff1614610785576040517f08c379a000000000000000000000000000000000000000000000000000000000815260040161077c90611c07565b60405180910390fd5b80806001019150506106f4565b50600060040160009054906101000a900473ffffffffffffffffffffffffffffffffffffffff1673ffffffffffffffffffffffffffffffffffffffff16630f01870b6040518163ffffffff1660e01b8152600401600060405180830381865afa158015610803573d6000803e3d6000fd5b505050506040513d6000823e3d601f19601f8201168201806040525081019061082c9190611d54565b91505090565b600080600001805461084390611dcc565b80601f016020809104026020016040519081016040528092919081815260200182805461086f90611dcc565b80156108bc5780601f10610891576101008083540402835291602001916108bc565b820191906000526020600020905b81548152906001019060200180831161089f57829003601f168201915b5050505050908060010180546108d190611dcc565b80601f01602080910402602001604051908101604052809291908181526020018280546108fd90611dcc565b801561094a5780601f1061091f5761010080835404028352916020019161094a565b820191906000526020600020905b81548152906001019060200180831161092d57829003601f168201915b5050505050908060030154908060040160009054906101000a900473ffffffffffffffffffffffffffffffffffffffff16905084565b606060008060040160009054906101000a900473ffffffffffffffffffffffffffffffffffffffff1673ffffffffffffffffffffffffffffffffffffffff1663913b722c6040518163ffffffff1660e01b8152600401600060405180830381865afa1580156109f3573d6000803e3d6000fd5b505050506040513d6000823e3d601f19601f82011682018060405250810190610a1c9190611a88565b905060005b8151811015610abf57818181518110610a3d57610a3c611ad1565b5b602002602001015173ffffffffffffffffffffffffffffffffffffffff163373ffffffffffffffffffffffffffffffffffffffff1614610ab2576040517f08c379a0000000000000000000000000000000000000000000000000000000008152600401610aa990611c07565b60405180910390fd5b8080600101915050610a21565b506006805480602002602001604051908101604052809291908181526020018280548015610b4257602002820191906000526020600020905b8160009054906101000a900473ffffffffffffffffffffffffffffffffffffffff1673ffffffffffffffffffffffffffffffffffffffff1681526020019060010190808311610af8575b505050505091505090565b60008060030154421015610b96576040517f08c379a0000000000000000000000000000000000000000000000000000000008152600401610b8d90611e49565b60405180910390fd5b60008060040160009054906101000a900473ffffffffffffffffffffffffffffffffffffffff1673ffffffffffffffffffffffffffffffffffffffff1663913b722c6040518163ffffffff1660e01b8152600401600060405180830381865afa158015610c07573d6000803e3d6000fd5b505050506040513d6000823e3d601f19601f82011682018060405250810190610c309190611a88565b905060005b8151811015610cd357818181518110610c5157610c50611ad1565b5b602002602001015173ffffffffffffffffffffffffffffffffffffffff163373ffffffffffffffffffffffffffffffffffffffff1614610cc6576040517f08c379a0000000000000000000000000000000000000000000000000000000008152600401610cbd90611c07565b60405180910390fd5b8080600101915050610c35565b5060008060040160009054906101000a900473ffffffffffffffffffffffffffffffffffffffff1673ffffffffffffffffffffffffffffffffffffffff16630f01870b6040518163ffffffff1660e01b8152600401600060405180830381865afa158015610d45573d6000803e3d6000fd5b505050506040513d6000823e3d601f19601f82011682018060405250810190610d6e9190611d54565b905060008060005b8351811015610dd75781848281518110610d9357610d92611ad1565b5b6020026020010151602001511115610dca57838181518110610db857610db7611ad1565b5b60200260200101516020015191508092505b8080600101915050610d76565b508194505050505090565b60008060040160009054906101000a900473ffffffffffffffffffffffffffffffffffffffff1673ffffffffffffffffffffffffffffffffffffffff1663913b722c6040518163ffffffff1660e01b8152600401600060405180830381865afa158015610e53573d6000803e3d6000fd5b505050506040513d6000823e3d601f19601f82011682018060405250810190610e7c9190611a88565b905060005b8151811015610f1f57818181518110610e9d57610e9c611ad1565b5b602002602001015173ffffffffffffffffffffffffffffffffffffffff163373ffffffffffffffffffffffffffffffffffffffff1614610f12576040517f08c379a0000000000000000000000000000000000000000000000000000000008152600401610f0990611c07565b60405180910390fd5b8080600101915050610e81565b50600060040160009054906101000a900473ffffffffffffffffffffffffffffffffffffffff1673ffffffffffffffffffffffffffffffffffffffff1663d58ed25360066040518263ffffffff1660e01b8152600401610f7f9190611f55565b600060405180830381600087803b158015610f9957600080fd5b505af1158015610fad573d6000803e3d6000fd5b5050505050565b6000600301544210610ffb576040517f08c379a0000000000000000000000000000000000000000000000000000000008152600401610ff29061179e565b60405180910390fd5b6000341161103e576040517f08c379a000000000000000000000000000000000000000000000000000000000815260040161103590611876565b60405180910390fd5b60008060040160009054906101000a900473ffffffffffffffffffffffffffffffffffffffff1673ffffffffffffffffffffffffffffffffffffffff1663913b722c6040518163ffffffff1660e01b8152600401600060405180830381865afa1580156110af573d6000803e3d6000fd5b505050506040513d6000823e3d601f19601f820116820180604052508101906110d89190611a88565b905060005b815181101561117b578181815181106110f9576110f8611ad1565b5b602002602001015173ffffffffffffffffffffffffffffffffffffffff163373ffffffffffffffffffffffffffffffffffffffff160361116e576040517f08c379a000000000000000000000000000000000000000000000000000000000815260040161116590611fc3565b60405180910390fd5b80806001019150506110dd565b50600034905060008060040160009054906101000a900473ffffffffffffffffffffffffffffffffffffffff1673ffffffffffffffffffffffffffffffffffffffff16826040516111cb90612014565b60006040518083038185875af1925050503d8060008114611208576040519150601f19603f3d011682016040523d82523d6000602084013e61120d565b606091505b5050905080611251576040517f08c379a000000000000000000000000000000000000000000000000000000000815260040161124890612075565b60405180910390fd5b505050565b6006818154811061126657600080fd5b906000526020600020016000915054906101000a900473ffffffffffffffffffffffffffffffffffffffff1681565b6000604051905090565b600080fd5b600080fd5b6000819050919050565b6112bc816112a9565b81146112c757600080fd5b50565b6000813590506112d9816112b3565b92915050565b6000602082840312156112f5576112f461129f565b5b6000611303848285016112ca565b91505092915050565b600073ffffffffffffffffffffffffffffffffffffffff82169050919050565b60006113378261130c565b9050919050565b6113478161132c565b811461135257600080fd5b50565b6000813590506113648161133e565b92915050565b6000602082840312156113805761137f61129f565b5b600061138e84828501611355565b91505092915050565b60008115159050919050565b6113ac81611397565b82525050565b60006020820190506113c760008301846113a3565b92915050565b600081519050919050565b600082825260208201905092915050565b6000819050602082019050919050565b611402816112a9565b82525050565b60408201600082015161141e60008501826113f9565b50602082015161143160208501826113f9565b50505050565b60006114438383611408565b60408301905092915050565b6000602082019050919050565b6000611467826113cd565b61147181856113d8565b935061147c836113e9565b8060005b838110156114ad5781516114948882611437565b975061149f8361144f565b925050600181019050611480565b5085935050505092915050565b600060208201905081810360008301526114d4818461145c565b905092915050565b600081519050919050565b600082825260208201905092915050565b60005b838110156115165780820151818401526020810190506114fb565b60008484015250505050565b6000601f19601f8301169050919050565b600061153e826114dc565b61154881856114e7565b93506115588185602086016114f8565b61156181611522565b840191505092915050565b611575816112a9565b82525050565b6000819050919050565b60006115a061159b6115968461130c565b61157b565b61130c565b9050919050565b60006115b282611585565b9050919050565b60006115c4826115a7565b9050919050565b6115d4816115b9565b82525050565b600060808201905081810360008301526115f48187611533565b905081810360208301526116088186611533565b9050611617604083018561156c565b61162460608301846115cb565b95945050505050565b600081519050919050565b600082825260208201905092915050565b6000819050602082019050919050565b6116628161132c565b82525050565b60006116748383611659565b60208301905092915050565b6000602082019050919050565b60006116988261162d565b6116a28185611638565b93506116ad83611649565b8060005b838110156116de5781516116c58882611668565b97506116d083611680565b9250506001810190506116b1565b5085935050505092915050565b60006020820190508181036000830152611705818461168d565b905092915050565b6000602082019050611722600083018461156c565b92915050565b6117318161132c565b82525050565b600060208201905061174c6000830184611728565b92915050565b7f566f74696e672068617320656e64656400000000000000000000000000000000600082015250565b60006117886010836114e7565b915061179382611752565b602082019050919050565b600060208201905081810360008301526117b78161177b565b9050919050565b7f496e76616c6964206f7074696f6e20696e646578000000000000000000000000600082015250565b60006117f46014836114e7565b91506117ff826117be565b602082019050919050565b60006020820190508181036000830152611823816117e7565b9050919050565b7f4d7573742073656e642045544820746f20766f74650000000000000000000000600082015250565b60006118606015836114e7565b915061186b8261182a565b602082019050919050565b6000602082019050818103600083015261188f81611853565b9050919050565b7f416c726561647920766f74656400000000000000000000000000000000000000600082015250565b60006118cc600d836114e7565b91506118d782611896565b602082019050919050565b600060208201905081810360008301526118fb816118bf565b9050919050565b600080fd5b7f4e487b7100000000000000000000000000000000000000000000000000000000600052604160045260246000fd5b61193f82611522565b810181811067ffffffffffffffff8211171561195e5761195d611907565b5b80604052505050565b6000611971611295565b905061197d8282611936565b919050565b600067ffffffffffffffff82111561199d5761199c611907565b5b602082029050602081019050919050565b600080fd5b60006119be8261130c565b9050919050565b6119ce816119b3565b81146119d957600080fd5b50565b6000815190506119eb816119c5565b92915050565b6000611a046119ff84611982565b611967565b90508083825260208201905060208402830185811115611a2757611a266119ae565b5b835b81811015611a505780611a3c88826119dc565b845260208401935050602081019050611a29565b5050509392505050565b600082601f830112611a6f57611a6e611902565b5b8151611a7f8482602086016119f1565b91505092915050565b600060208284031215611a9e57611a9d61129f565b5b600082015167ffffffffffffffff811115611abc57611abb6112a4565b5b611ac884828501611a5a565b91505092915050565b7f4e487b7100000000000000000000000000000000000000000000000000000000600052603260045260246000fd5b7f42656e656669636961726965732063616e6e6f7420766f746521000000000000600082015250565b6000611b36601a836114e7565b9150611b4182611b00565b602082019050919050565b60006020820190508181036000830152611b6581611b29565b9050919050565b6000604082019050611b81600083018561156c565b611b8e602083018461156c565b9392505050565b7f596f75206d757374206265206f6e65206f66207468652062656e65666963696160008201527f7269657321000000000000000000000000000000000000000000000000000000602082015250565b6000611bf16025836114e7565b9150611bfc82611b95565b604082019050919050565b60006020820190508181036000830152611c2081611be4565b9050919050565b600067ffffffffffffffff821115611c4257611c41611907565b5b602082029050602081019050919050565b600080fd5b600081519050611c67816112b3565b92915050565b600060408284031215611c8357611c82611c53565b5b611c8d6040611967565b90506000611c9d84828501611c58565b6000830152506020611cb184828501611c58565b60208301525092915050565b6000611cd0611ccb84611c27565b611967565b90508083825260208201905060408402830185811115611cf357611cf26119ae565b5b835b81811015611d1c5780611d088882611c6d565b845260208401935050604081019050611cf5565b5050509392505050565b600082601f830112611d3b57611d3a611902565b5b8151611d4b848260208601611cbd565b91505092915050565b600060208284031215611d6a57611d6961129f565b5b600082015167ffffffffffffffff811115611d8857611d876112a4565b5b611d9484828501611d26565b91505092915050565b7f4e487b7100000000000000000000000000000000000000000000000000000000600052602260045260246000fd5b60006002820490506001821680611de457607f821691505b602082108103611df757611df6611d9d565b5b50919050565b7f566f74696e67206973207374696c6c206f6e676f696e67000000000000000000600082015250565b6000611e336017836114e7565b9150611e3e82611dfd565b602082019050919050565b60006020820190508181036000830152611e6281611e26565b9050919050565b600081549050919050565b60008190508160005260206000209050919050565b60008160001c9050919050565b600073ffffffffffffffffffffffffffffffffffffffff82169050919050565b6000611ec9611ec483611e89565b611e96565b9050919050565b6000611edc8254611eb6565b9050919050565b6000600182019050919050565b6000611efb82611e69565b611f058185611638565b9350611f1083611e74565b8060005b83811015611f4857611f2582611ed0565b611f2f8882611668565b9750611f3a83611ee3565b925050600181019050611f14565b5085935050505092915050565b60006020820190508181036000830152611f6f8184611ef0565b905092915050565b7f42656e656669636961726965732063616e6e6f7420636f6e7472696275746521600082015250565b6000611fad6020836114e7565b9150611fb882611f77565b602082019050919050565b60006020820190508181036000830152611fdc81611fa0565b9050919050565b600081905092915050565b50565b6000611ffe600083611fe3565b915061200982611fee565b600082019050919050565b600061201f82611ff1565b9150819050919050565b7f4661696c656420746f2073656e64204574686572000000000000000000000000600082015250565b600061205f6014836114e7565b915061206a82612029565b602082019050919050565b6000602082019050818103600083015261208e81612052565b905091905056fea264697066735822122087fdb3f3fa67e54a2fa995d331dfe15425c8102dd0b7d6cf8e7557dce94cb2a064736f6c63430008180033","opcodes":"PUSH1 0x80 PUSH1 0x40 MSTORE CALLVALUE DUP1 ISZERO PUSH3 0x11 JUMPI PUSH1 0x0 DUP1 REVERT JUMPDEST POP PUSH1 0x40 MLOAD PUSH3 0x2AB0 CODESIZE SUB DUP1 PUSH3 0x2AB0 DUP4 CODECOPY DUP2 DUP2 ADD PUSH1 0x40 MSTORE DUP2 ADD SWAP1 PUSH3 0x37 SWAP2 SWAP1 PUSH3 0x59A JUMP JUMPDEST DUP5 PUSH1 0x0 DUP1 ADD SWAP1 DUP2 PUSH3 0x4A SWAP2 SWAP1 PUSH3 0x8C0 JUMP JUMPDEST POP DUP4 PUSH1 0x0 PUSH1 0x1 ADD SWAP1 DUP2 PUSH3 0x5F SWAP2 SWAP1 PUSH3 0x8C0 JUMP JUMPDEST POP DUP3 PUSH1 0x0 PUSH1 0x2 ADD SWAP1 DUP1 MLOAD SWAP1 PUSH1 0x20 ADD SWAP1 PUSH3 0x7B SWAP3 SWAP2 SWAP1 PUSH3 0x16A JUMP JUMPDEST POP DUP2 PUSH1 0x0 PUSH1 0x3 ADD DUP2 SWAP1 SSTORE POP DUP1 PUSH1 0x0 PUSH1 0x4 ADD PUSH1 0x0 PUSH2 0x100 EXP DUP2 SLOAD DUP2 PUSH20 0xFFFFFFFFFFFFFFFFFFFFFFFFFFFFFFFFFFFFFFFF MUL NOT AND SWAP1 DUP4 PUSH20 0xFFFFFFFFFFFFFFFFFFFFFFFFFFFFFFFFFFFFFFFF AND MUL OR SWAP1 SSTORE POP PUSH1 0x0 PUSH1 0x4 ADD PUSH1 0x0 SWAP1 SLOAD SWAP1 PUSH2 0x100 EXP SWAP1 DIV PUSH20 0xFFFFFFFFFFFFFFFFFFFFFFFFFFFFFFFFFFFFFFFF AND PUSH20 0xFFFFFFFFFFFFFFFFFFFFFFFFFFFFFFFFFFFFFFFF AND PUSH4 0xE1A44749 DUP5 MLOAD PUSH1 0x40 MLOAD DUP3 PUSH4 0xFFFFFFFF AND PUSH1 0xE0 SHL DUP2 MSTORE PUSH1 0x4 ADD PUSH3 0x12B SWAP2 SWAP1 PUSH3 0x9B8 JUMP JUMPDEST PUSH1 0x0 PUSH1 0x40 MLOAD DUP1 DUP4 SUB DUP2 PUSH1 0x0 DUP8 DUP1 EXTCODESIZE ISZERO DUP1 ISZERO PUSH3 0x146 JUMPI PUSH1 0x0 DUP1 REVERT JUMPDEST POP GAS CALL ISZERO DUP1 ISZERO PUSH3 0x15B JUMPI RETURNDATASIZE PUSH1 0x0 DUP1 RETURNDATACOPY RETURNDATASIZE PUSH1 0x0 REVERT JUMPDEST POP POP POP POP POP POP POP POP POP PUSH3 0x9D5 JUMP JUMPDEST DUP3 DUP1 SLOAD DUP3 DUP3 SSTORE SWAP1 PUSH1 0x0 MSTORE PUSH1 0x20 PUSH1 0x0 KECCAK256 SWAP1 DUP2 ADD SWAP3 DUP3 ISZERO PUSH3 0x1B7 JUMPI SWAP2 PUSH1 0x20 MUL DUP3 ADD JUMPDEST DUP3 DUP2 GT ISZERO PUSH3 0x1B6 JUMPI DUP3 MLOAD DUP3 SWAP1 DUP2 PUSH3 0x1A5 SWAP2 SWAP1 PUSH3 0x8C0 JUMP JUMPDEST POP SWAP2 PUSH1 0x20 ADD SWAP2 SWAP1 PUSH1 0x1 ADD SWAP1 PUSH3 0x18B JUMP JUMPDEST JUMPDEST POP SWAP1 POP PUSH3 0x1C6 SWAP2 SWAP1 PUSH3 0x1CA JUMP JUMPDEST POP SWAP1 JUMP JUMPDEST JUMPDEST DUP1 DUP3 GT ISZERO PUSH3 0x1EE JUMPI PUSH1 0x0 DUP2 DUP2 PUSH3 0x1E4 SWAP2 SWAP1 PUSH3 0x1F2 JUMP JUMPDEST POP PUSH1 0x1 ADD PUSH3 0x1CB JUMP JUMPDEST POP SWAP1 JUMP JUMPDEST POP DUP1 SLOAD PUSH3 0x200 SWAP1 PUSH3 0x6B9 JUMP JUMPDEST PUSH1 0x0 DUP3 SSTORE DUP1 PUSH1 0x1F LT PUSH3 0x214 JUMPI POP PUSH3 0x235 JUMP JUMPDEST PUSH1 0x1F ADD PUSH1 0x20 SWAP1 DIV SWAP1 PUSH1 0x0 MSTORE PUSH1 0x20 PUSH1 0x0 KECCAK256 SWAP1 DUP2 ADD SWAP1 PUSH3 0x234 SWAP2 SWAP1 PUSH3 0x238 JUMP JUMPDEST JUMPDEST POP JUMP JUMPDEST JUMPDEST DUP1 DUP3 GT ISZERO PUSH3 0x253 JUMPI PUSH1 0x0 DUP2 PUSH1 0x0 SWAP1 SSTORE POP PUSH1 0x1 ADD PUSH3 0x239 JUMP JUMPDEST POP SWAP1 JUMP JUMPDEST PUSH1 0x0 PUSH1 0x40 MLOAD SWAP1 POP SWAP1 JUMP JUMPDEST PUSH1 0x0 DUP1 REVERT JUMPDEST PUSH1 0x0 DUP1 REVERT JUMPDEST PUSH1 0x0 DUP1 REVERT JUMPDEST PUSH1 0x0 DUP1 REVERT JUMPDEST PUSH1 0x0 PUSH1 0x1F NOT PUSH1 0x1F DUP4 ADD AND SWAP1 POP SWAP2 SWAP1 POP JUMP JUMPDEST PUSH32 0x4E487B7100000000000000000000000000000000000000000000000000000000 PUSH1 0x0 MSTORE PUSH1 0x41 PUSH1 0x4 MSTORE PUSH1 0x24 PUSH1 0x0 REVERT JUMPDEST PUSH3 0x2C0 DUP3 PUSH3 0x275 JUMP JUMPDEST DUP2 ADD DUP2 DUP2 LT PUSH8 0xFFFFFFFFFFFFFFFF DUP3 GT OR ISZERO PUSH3 0x2E2 JUMPI PUSH3 0x2E1 PUSH3 0x286 JUMP JUMPDEST JUMPDEST DUP1 PUSH1 0x40 MSTORE POP POP POP JUMP JUMPDEST PUSH1 0x0 PUSH3 0x2F7 PUSH3 0x257 JUMP JUMPDEST SWAP1 POP PUSH3 0x305 DUP3 DUP3 PUSH3 0x2B5 JUMP JUMPDEST SWAP2 SWAP1 POP JUMP JUMPDEST PUSH1 0x0 PUSH8 0xFFFFFFFFFFFFFFFF DUP3 GT ISZERO PUSH3 0x328 JUMPI PUSH3 0x327 PUSH3 0x286 JUMP JUMPDEST JUMPDEST PUSH3 0x333 DUP3 PUSH3 0x275 JUMP JUMPDEST SWAP1 POP PUSH1 0x20 DUP2 ADD SWAP1 POP SWAP2 SWAP1 POP JUMP JUMPDEST PUSH1 0x0 JUMPDEST DUP4 DUP2 LT ISZERO PUSH3 0x360 JUMPI DUP1 DUP3 ADD MLOAD DUP2 DUP5 ADD MSTORE PUSH1 0x20 DUP2 ADD SWAP1 POP PUSH3 0x343 JUMP JUMPDEST PUSH1 0x0 DUP5 DUP5 ADD MSTORE POP POP POP POP JUMP JUMPDEST PUSH1 0x0 PUSH3 0x383 PUSH3 0x37D DUP5 PUSH3 0x30A JUMP JUMPDEST PUSH3 0x2EB JUMP JUMPDEST SWAP1 POP DUP3 DUP2 MSTORE PUSH1 0x20 DUP2 ADD DUP5 DUP5 DUP5 ADD GT ISZERO PUSH3 0x3A2 JUMPI PUSH3 0x3A1 PUSH3 0x270 JUMP JUMPDEST JUMPDEST PUSH3 0x3AF DUP5 DUP3 DUP6 PUSH3 0x340 JUMP JUMPDEST POP SWAP4 SWAP3 POP POP POP JUMP JUMPDEST PUSH1 0x0 DUP3 PUSH1 0x1F DUP4 ADD SLT PUSH3 0x3CF JUMPI PUSH3 0x3CE PUSH3 0x26B JUMP JUMPDEST JUMPDEST DUP2 MLOAD PUSH3 0x3E1 DUP5 DUP3 PUSH1 0x20 DUP7 ADD PUSH3 0x36C JUMP JUMPDEST SWAP2 POP POP SWAP3 SWAP2 POP POP JUMP JUMPDEST PUSH1 0x0 PUSH8 0xFFFFFFFFFFFFFFFF DUP3 GT ISZERO PUSH3 0x408 JUMPI PUSH3 0x407 PUSH3 0x286 JUMP JUMPDEST JUMPDEST PUSH1 0x20 DUP3 MUL SWAP1 POP PUSH1 0x20 DUP2 ADD SWAP1 POP SWAP2 SWAP1 POP JUMP JUMPDEST PUSH1 0x0 DUP1 REVERT JUMPDEST PUSH1 0x0 PUSH3 0x435 PUSH3 0x42F DUP5 PUSH3 0x3EA JUMP JUMPDEST PUSH3 0x2EB JUMP JUMPDEST SWAP1 POP DUP1 DUP4 DUP3 MSTORE PUSH1 0x20 DUP3 ADD SWAP1 POP PUSH1 0x20 DUP5 MUL DUP4 ADD DUP6 DUP2 GT ISZERO PUSH3 0x45B JUMPI PUSH3 0x45A PUSH3 0x419 JUMP JUMPDEST JUMPDEST DUP4 JUMPDEST DUP2 DUP2 LT ISZERO PUSH3 0x4A9 JUMPI DUP1 MLOAD PUSH8 0xFFFFFFFFFFFFFFFF DUP2 GT ISZERO PUSH3 0x484 JUMPI PUSH3 0x483 PUSH3 0x26B JUMP JUMPDEST JUMPDEST DUP1 DUP7 ADD PUSH3 0x493 DUP10 DUP3 PUSH3 0x3B7 JUMP JUMPDEST DUP6 MSTORE PUSH1 0x20 DUP6 ADD SWAP5 POP POP POP PUSH1 0x20 DUP2 ADD SWAP1 POP PUSH3 0x45D JUMP JUMPDEST POP POP POP SWAP4 SWAP3 POP POP POP JUMP JUMPDEST PUSH1 0x0 DUP3 PUSH1 0x1F DUP4 ADD SLT PUSH3 0x4CB JUMPI PUSH3 0x4CA PUSH3 0x26B JUMP JUMPDEST JUMPDEST DUP2 MLOAD PUSH3 0x4DD DUP5 DUP3 PUSH1 0x20 DUP7 ADD PUSH3 0x41E JUMP JUMPDEST SWAP2 POP POP SWAP3 SWAP2 POP POP JUMP JUMPDEST PUSH1 0x0 DUP2 SWAP1 POP SWAP2 SWAP1 POP JUMP JUMPDEST PUSH3 0x4FB DUP2 PUSH3 0x4E6 JUMP JUMPDEST DUP2 EQ PUSH3 0x507 JUMPI PUSH1 0x0 DUP1 REVERT JUMPDEST POP JUMP JUMPDEST PUSH1 0x0 DUP2 MLOAD SWAP1 POP PUSH3 0x51B DUP2 PUSH3 0x4F0 JUMP JUMPDEST SWAP3 SWAP2 POP POP JUMP JUMPDEST PUSH1 0x0 PUSH20 0xFFFFFFFFFFFFFFFFFFFFFFFFFFFFFFFFFFFFFFFF DUP3 AND SWAP1 POP SWAP2 SWAP1 POP JUMP JUMPDEST PUSH1 0x0 PUSH3 0x54E DUP3 PUSH3 0x521 JUMP JUMPDEST SWAP1 POP SWAP2 SWAP1 POP JUMP JUMPDEST PUSH1 0x0 PUSH3 0x562 DUP3 PUSH3 0x541 JUMP JUMPDEST SWAP1 POP SWAP2 SWAP1 POP JUMP JUMPDEST PUSH3 0x574 DUP2 PUSH3 0x555 JUMP JUMPDEST DUP2 EQ PUSH3 0x580 JUMPI PUSH1 0x0 DUP1 REVERT JUMPDEST POP JUMP JUMPDEST PUSH1 0x0 DUP2 MLOAD SWAP1 POP PUSH3 0x594 DUP2 PUSH3 0x569 JUMP JUMPDEST SWAP3 SWAP2 POP POP JUMP JUMPDEST PUSH1 0x0 DUP1 PUSH1 0x0 DUP1 PUSH1 0x0 PUSH1 0xA0 DUP7 DUP9 SUB SLT ISZERO PUSH3 0x5B9 JUMPI PUSH3 0x5B8 PUSH3 0x261 JUMP JUMPDEST JUMPDEST PUSH1 0x0 DUP7 ADD MLOAD PUSH8 0xFFFFFFFFFFFFFFFF DUP2 GT ISZERO PUSH3 0x5DA JUMPI PUSH3 0x5D9 PUSH3 0x266 JUMP JUMPDEST JUMPDEST PUSH3 0x5E8 DUP9 DUP3 DUP10 ADD PUSH3 0x3B7 JUMP JUMPDEST SWAP6 POP POP PUSH1 0x20 DUP7 ADD MLOAD PUSH8 0xFFFFFFFFFFFFFFFF DUP2 GT ISZERO PUSH3 0x60C JUMPI PUSH3 0x60B PUSH3 0x266 JUMP JUMPDEST JUMPDEST PUSH3 0x61A DUP9 DUP3 DUP10 ADD PUSH3 0x3B7 JUMP JUMPDEST SWAP5 POP POP PUSH1 0x40 DUP7 ADD MLOAD PUSH8 0xFFFFFFFFFFFFFFFF DUP2 GT ISZERO PUSH3 0x63E JUMPI PUSH3 0x63D PUSH3 0x266 JUMP JUMPDEST JUMPDEST PUSH3 0x64C DUP9 DUP3 DUP10 ADD PUSH3 0x4B3 JUMP JUMPDEST SWAP4 POP POP PUSH1 0x60 PUSH3 0x65F DUP9 DUP3 DUP10 ADD PUSH3 0x50A JUMP JUMPDEST SWAP3 POP POP PUSH1 0x80 PUSH3 0x672 DUP9 DUP3 DUP10 ADD PUSH3 0x583 JUMP JUMPDEST SWAP2 POP POP SWAP3 SWAP6 POP SWAP3 SWAP6 SWAP1 SWAP4 POP JUMP JUMPDEST PUSH1 0x0 DUP2 MLOAD SWAP1 POP SWAP2 SWAP1 POP JUMP JUMPDEST PUSH32 0x4E487B7100000000000000000000000000000000000000000000000000000000 PUSH1 0x0 MSTORE PUSH1 0x22 PUSH1 0x4 MSTORE PUSH1 0x24 PUSH1 0x0 REVERT JUMPDEST PUSH1 0x0 PUSH1 0x2 DUP3 DIV SWAP1 POP PUSH1 0x1 DUP3 AND DUP1 PUSH3 0x6D2 JUMPI PUSH1 0x7F DUP3 AND SWAP2 POP JUMPDEST PUSH1 0x20 DUP3 LT DUP2 SUB PUSH3 0x6E8 JUMPI PUSH3 0x6E7 PUSH3 0x68A JUMP JUMPDEST JUMPDEST POP SWAP2 SWAP1 POP JUMP JUMPDEST PUSH1 0x0 DUP2 SWAP1 POP DUP2 PUSH1 0x0 MSTORE PUSH1 0x20 PUSH1 0x0 KECCAK256 SWAP1 POP SWAP2 SWAP1 POP JUMP JUMPDEST PUSH1 0x0 PUSH1 0x20 PUSH1 0x1F DUP4 ADD DIV SWAP1 POP SWAP2 SWAP1 POP JUMP JUMPDEST PUSH1 0x0 DUP3 DUP3 SHL SWAP1 POP SWAP3 SWAP2 POP POP JUMP JUMPDEST PUSH1 0x0 PUSH1 0x8 DUP4 MUL PUSH3 0x752 PUSH32 0xFFFFFFFFFFFFFFFFFFFFFFFFFFFFFFFFFFFFFFFFFFFFFFFFFFFFFFFFFFFFFFFF DUP3 PUSH3 0x713 JUMP JUMPDEST PUSH3 0x75E DUP7 DUP4 PUSH3 0x713 JUMP JUMPDEST SWAP6 POP DUP1 NOT DUP5 AND SWAP4 POP DUP1 DUP7 AND DUP5 OR SWAP3 POP POP POP SWAP4 SWAP3 POP POP POP JUMP JUMPDEST PUSH1 0x0 DUP2 SWAP1 POP SWAP2 SWAP1 POP JUMP JUMPDEST PUSH1 0x0 PUSH3 0x7A1 PUSH3 0x79B PUSH3 0x795 DUP5 PUSH3 0x4E6 JUMP JUMPDEST PUSH3 0x776 JUMP JUMPDEST PUSH3 0x4E6 JUMP JUMPDEST SWAP1 POP SWAP2 SWAP1 POP JUMP JUMPDEST PUSH1 0x0 DUP2 SWAP1 POP SWAP2 SWAP1 POP JUMP JUMPDEST PUSH3 0x7BD DUP4 PUSH3 0x780 JUMP JUMPDEST PUSH3 0x7D5 PUSH3 0x7CC DUP3 PUSH3 0x7A8 JUMP JUMPDEST DUP5 DUP5 SLOAD PUSH3 0x720 JUMP JUMPDEST DUP3 SSTORE POP POP POP POP JUMP JUMPDEST PUSH1 0x0 SWAP1 JUMP JUMPDEST PUSH3 0x7EC PUSH3 0x7DD JUMP JUMPDEST PUSH3 0x7F9 DUP2 DUP5 DUP5 PUSH3 0x7B2 JUMP JUMPDEST POP POP POP JUMP JUMPDEST JUMPDEST DUP2 DUP2 LT ISZERO PUSH3 0x821 JUMPI PUSH3 0x815 PUSH1 0x0 DUP3 PUSH3 0x7E2 JUMP JUMPDEST PUSH1 0x1 DUP2 ADD SWAP1 POP PUSH3 0x7FF JUMP JUMPDEST POP POP JUMP JUMPDEST PUSH1 0x1F DUP3 GT ISZERO PUSH3 0x870 JUMPI PUSH3 0x83A DUP2 PUSH3 0x6EE JUMP JUMPDEST PUSH3 0x845 DUP5 PUSH3 0x703 JUMP JUMPDEST DUP2 ADD PUSH1 0x20 DUP6 LT ISZERO PUSH3 0x855 JUMPI DUP2 SWAP1 POP JUMPDEST PUSH3 0x86D PUSH3 0x864 DUP6 PUSH3 0x703 JUMP JUMPDEST DUP4 ADD DUP3 PUSH3 0x7FE JUMP JUMPDEST POP POP JUMPDEST POP POP POP JUMP JUMPDEST PUSH1 0x0 DUP3 DUP3 SHR SWAP1 POP SWAP3 SWAP2 POP POP JUMP JUMPDEST PUSH1 0x0 PUSH3 0x895 PUSH1 0x0 NOT DUP5 PUSH1 0x8 MUL PUSH3 0x875 JUMP JUMPDEST NOT DUP1 DUP4 AND SWAP2 POP POP SWAP3 SWAP2 POP POP JUMP JUMPDEST PUSH1 0x0 PUSH3 0x8B0 DUP4 DUP4 PUSH3 0x882 JUMP JUMPDEST SWAP2 POP DUP3 PUSH1 0x2 MUL DUP3 OR SWAP1 POP SWAP3 SWAP2 POP POP JUMP JUMPDEST PUSH3 0x8CB DUP3 PUSH3 0x67F JUMP JUMPDEST PUSH8 0xFFFFFFFFFFFFFFFF DUP2 GT ISZERO PUSH3 0x8E7 JUMPI PUSH3 0x8E6 PUSH3 0x286 JUMP JUMPDEST JUMPDEST PUSH3 0x8F3 DUP3 SLOAD PUSH3 0x6B9 JUMP JUMPDEST PUSH3 0x900 DUP3 DUP3 DUP6 PUSH3 0x825 JUMP JUMPDEST PUSH1 0x0 PUSH1 0x20 SWAP1 POP PUSH1 0x1F DUP4 GT PUSH1 0x1 DUP2 EQ PUSH3 0x938 JUMPI PUSH1 0x0 DUP5 ISZERO PUSH3 0x923 JUMPI DUP3 DUP8 ADD MLOAD SWAP1 POP JUMPDEST PUSH3 0x92F DUP6 DUP3 PUSH3 0x8A2 JUMP JUMPDEST DUP7 SSTORE POP PUSH3 0x99F JUMP JUMPDEST PUSH1 0x1F NOT DUP5 AND PUSH3 0x948 DUP7 PUSH3 0x6EE JUMP JUMPDEST PUSH1 0x0 JUMPDEST DUP3 DUP2 LT ISZERO PUSH3 0x972 JUMPI DUP5 DUP10 ADD MLOAD DUP3 SSTORE PUSH1 0x1 DUP3 ADD SWAP2 POP PUSH1 0x20 DUP6 ADD SWAP5 POP PUSH1 0x20 DUP2 ADD SWAP1 POP PUSH3 0x94B JUMP JUMPDEST DUP7 DUP4 LT ISZERO PUSH3 0x992 JUMPI DUP5 DUP10 ADD MLOAD PUSH3 0x98E PUSH1 0x1F DUP10 AND DUP3 PUSH3 0x882 JUMP JUMPDEST DUP4 SSTORE POP JUMPDEST PUSH1 0x1 PUSH1 0x2 DUP9 MUL ADD DUP9 SSTORE POP POP POP JUMPDEST POP POP POP POP POP POP JUMP JUMPDEST PUSH3 0x9B2 DUP2 PUSH3 0x4E6 JUMP JUMPDEST DUP3 MSTORE POP POP JUMP JUMPDEST PUSH1 0x0 PUSH1 0x20 DUP3 ADD SWAP1 POP PUSH3 0x9CF PUSH1 0x0 DUP4 ADD DUP5 PUSH3 0x9A7 JUMP JUMPDEST SWAP3 SWAP2 POP POP JUMP JUMPDEST PUSH2 0x20CB DUP1 PUSH3 0x9E5 PUSH1 0x0 CODECOPY PUSH1 0x0 RETURN INVALID PUSH1 0x80 PUSH1 0x40 MSTORE PUSH1 0x4 CALLDATASIZE LT PUSH2 0x86 JUMPI PUSH1 0x0 CALLDATALOAD PUSH1 0xE0 SHR DUP1 PUSH4 0x35BBE70E GT PUSH2 0x59 JUMPI DUP1 PUSH4 0x35BBE70E EQ PUSH2 0x13D JUMPI DUP1 PUSH4 0x7EEB4520 EQ PUSH2 0x168 JUMPI DUP1 PUSH4 0x93119312 EQ PUSH2 0x193 JUMPI DUP1 PUSH4 0xD7BB99BA EQ PUSH2 0x1AA JUMPI DUP1 PUSH4 0xDA58C7D9 EQ PUSH2 0x1B4 JUMPI PUSH2 0x86 JUMP JUMPDEST DUP1 PUSH4 0x121B93F EQ PUSH2 0x8B JUMPI DUP1 PUSH4 0x9EEF43E EQ PUSH2 0xA7 JUMPI DUP1 PUSH4 0xDC96015 EQ PUSH2 0xE4 JUMPI DUP1 PUSH4 0x31E7DEDE EQ PUSH2 0x10F JUMPI JUMPDEST PUSH1 0x0 DUP1 REVERT JUMPDEST PUSH2 0xA5 PUSH1 0x4 DUP1 CALLDATASIZE SUB DUP2 ADD SWAP1 PUSH2 0xA0 SWAP2 SWAP1 PUSH2 0x12DF JUMP JUMPDEST PUSH2 0x1F1 JUMP JUMPDEST STOP JUMPDEST CALLVALUE DUP1 ISZERO PUSH2 0xB3 JUMPI PUSH1 0x0 DUP1 REVERT JUMPDEST POP PUSH2 0xCE PUSH1 0x4 DUP1 CALLDATASIZE SUB DUP2 ADD SWAP1 PUSH2 0xC9 SWAP2 SWAP1 PUSH2 0x136A JUMP JUMPDEST PUSH2 0x633 JUMP JUMPDEST PUSH1 0x40 MLOAD PUSH2 0xDB SWAP2 SWAP1 PUSH2 0x13B2 JUMP JUMPDEST PUSH1 0x40 MLOAD DUP1 SWAP2 SUB SWAP1 RETURN JUMPDEST CALLVALUE DUP1 ISZERO PUSH2 0xF0 JUMPI PUSH1 0x0 DUP1 REVERT JUMPDEST POP PUSH2 0xF9 PUSH2 0x653 JUMP JUMPDEST PUSH1 0x40 MLOAD PUSH2 0x106 SWAP2 SWAP1 PUSH2 0x14BA JUMP JUMPDEST PUSH1 0x40 MLOAD DUP1 SWAP2 SUB SWAP1 RETURN JUMPDEST CALLVALUE DUP1 ISZERO PUSH2 0x11B JUMPI PUSH1 0x0 DUP1 REVERT JUMPDEST POP PUSH2 0x124 PUSH2 0x832 JUMP JUMPDEST PUSH1 0x40 MLOAD PUSH2 0x134 SWAP5 SWAP4 SWAP3 SWAP2 SWAP1 PUSH2 0x15DA JUMP JUMPDEST PUSH1 0x40 MLOAD DUP1 SWAP2 SUB SWAP1 RETURN JUMPDEST CALLVALUE DUP1 ISZERO PUSH2 0x149 JUMPI PUSH1 0x0 DUP1 REVERT JUMPDEST POP PUSH2 0x152 PUSH2 0x980 JUMP JUMPDEST PUSH1 0x40 MLOAD PUSH2 0x15F SWAP2 SWAP1 PUSH2 0x16EB JUMP JUMPDEST PUSH1 0x40 MLOAD DUP1 SWAP2 SUB SWAP1 RETURN JUMPDEST CALLVALUE DUP1 ISZERO PUSH2 0x174 JUMPI PUSH1 0x0 DUP1 REVERT JUMPDEST POP PUSH2 0x17D PUSH2 0xB4D JUMP JUMPDEST PUSH1 0x40 MLOAD PUSH2 0x18A SWAP2 SWAP1 PUSH2 0x170D JUMP JUMPDEST PUSH1 0x40 MLOAD DUP1 SWAP2 SUB SWAP1 RETURN JUMPDEST CALLVALUE DUP1 ISZERO PUSH2 0x19F JUMPI PUSH1 0x0 DUP1 REVERT JUMPDEST POP PUSH2 0x1A8 PUSH2 0xDE2 JUMP JUMPDEST STOP JUMPDEST PUSH2 0x1B2 PUSH2 0xFB4 JUMP JUMPDEST STOP JUMPDEST CALLVALUE DUP1 ISZERO PUSH2 0x1C0 JUMPI PUSH1 0x0 DUP1 REVERT JUMPDEST POP PUSH2 0x1DB PUSH1 0x4 DUP1 CALLDATASIZE SUB DUP2 ADD SWAP1 PUSH2 0x1D6 SWAP2 SWAP1 PUSH2 0x12DF JUMP JUMPDEST PUSH2 0x1256 JUMP JUMPDEST PUSH1 0x40 MLOAD PUSH2 0x1E8 SWAP2 SWAP1 PUSH2 0x1737 JUMP JUMPDEST PUSH1 0x40 MLOAD DUP1 SWAP2 SUB SWAP1 RETURN JUMPDEST PUSH1 0x0 PUSH1 0x3 ADD SLOAD TIMESTAMP LT PUSH2 0x238 JUMPI PUSH1 0x40 MLOAD PUSH32 0x8C379A000000000000000000000000000000000000000000000000000000000 DUP2 MSTORE PUSH1 0x4 ADD PUSH2 0x22F SWAP1 PUSH2 0x179E JUMP JUMPDEST PUSH1 0x40 MLOAD DUP1 SWAP2 SUB SWAP1 REVERT JUMPDEST DUP1 PUSH1 0x0 PUSH1 0x2 ADD DUP1 SLOAD SWAP1 POP DUP2 LT PUSH2 0x283 JUMPI PUSH1 0x40 MLOAD PUSH32 0x8C379A000000000000000000000000000000000000000000000000000000000 DUP2 MSTORE PUSH1 0x4 ADD PUSH2 0x27A SWAP1 PUSH2 0x180A JUMP JUMPDEST PUSH1 0x40 MLOAD DUP1 SWAP2 SUB SWAP1 REVERT JUMPDEST PUSH1 0x0 CALLVALUE GT PUSH2 0x2C6 JUMPI PUSH1 0x40 MLOAD PUSH32 0x8C379A000000000000000000000000000000000000000000000000000000000 DUP2 MSTORE PUSH1 0x4 ADD PUSH2 0x2BD SWAP1 PUSH2 0x1876 JUMP JUMPDEST PUSH1 0x40 MLOAD DUP1 SWAP2 SUB SWAP1 REVERT JUMPDEST PUSH1 0x5 PUSH1 0x0 CALLER PUSH20 0xFFFFFFFFFFFFFFFFFFFFFFFFFFFFFFFFFFFFFFFF AND PUSH20 0xFFFFFFFFFFFFFFFFFFFFFFFFFFFFFFFFFFFFFFFF AND DUP2 MSTORE PUSH1 0x20 ADD SWAP1 DUP2 MSTORE PUSH1 0x20 ADD PUSH1 0x0 KECCAK256 PUSH1 0x0 SWAP1 SLOAD SWAP1 PUSH2 0x100 EXP SWAP1 DIV PUSH1 0xFF AND ISZERO PUSH2 0x353 JUMPI PUSH1 0x40 MLOAD PUSH32 0x8C379A000000000000000000000000000000000000000000000000000000000 DUP2 MSTORE PUSH1 0x4 ADD PUSH2 0x34A SWAP1 PUSH2 0x18E2 JUMP JUMPDEST PUSH1 0x40 MLOAD DUP1 SWAP2 SUB SWAP1 REVERT JUMPDEST PUSH1 0x0 DUP1 PUSH1 0x4 ADD PUSH1 0x0 SWAP1 SLOAD SWAP1 PUSH2 0x100 EXP SWAP1 DIV PUSH20 0xFFFFFFFFFFFFFFFFFFFFFFFFFFFFFFFFFFFFFFFF AND PUSH20 0xFFFFFFFFFFFFFFFFFFFFFFFFFFFFFFFFFFFFFFFF AND PUSH4 0x913B722C PUSH1 0x40 MLOAD DUP2 PUSH4 0xFFFFFFFF AND PUSH1 0xE0 SHL DUP2 MSTORE PUSH1 0x4 ADD PUSH1 0x0 PUSH1 0x40 MLOAD DUP1 DUP4 SUB DUP2 DUP7 GAS STATICCALL ISZERO DUP1 ISZERO PUSH2 0x3C4 JUMPI RETURNDATASIZE PUSH1 0x0 DUP1 RETURNDATACOPY RETURNDATASIZE PUSH1 0x0 REVERT JUMPDEST POP POP POP POP PUSH1 0x40 MLOAD RETURNDATASIZE PUSH1 0x0 DUP3 RETURNDATACOPY RETURNDATASIZE PUSH1 0x1F NOT PUSH1 0x1F DUP3 ADD AND DUP3 ADD DUP1 PUSH1 0x40 MSTORE POP DUP2 ADD SWAP1 PUSH2 0x3ED SWAP2 SWAP1 PUSH2 0x1A88 JUMP JUMPDEST SWAP1 POP PUSH1 0x0 JUMPDEST DUP2 MLOAD DUP2 LT ISZERO PUSH2 0x490 JUMPI DUP2 DUP2 DUP2 MLOAD DUP2 LT PUSH2 0x40E JUMPI PUSH2 0x40D PUSH2 0x1AD1 JUMP JUMPDEST JUMPDEST PUSH1 0x20 MUL PUSH1 0x20 ADD ADD MLOAD PUSH20 0xFFFFFFFFFFFFFFFFFFFFFFFFFFFFFFFFFFFFFFFF AND CALLER PUSH20 0xFFFFFFFFFFFFFFFFFFFFFFFFFFFFFFFFFFFFFFFF AND SUB PUSH2 0x483 JUMPI PUSH1 0x40 MLOAD PUSH32 0x8C379A000000000000000000000000000000000000000000000000000000000 DUP2 MSTORE PUSH1 0x4 ADD PUSH2 0x47A SWAP1 PUSH2 0x1B4C JUMP JUMPDEST PUSH1 0x40 MLOAD DUP1 SWAP2 SUB SWAP1 REVERT JUMPDEST DUP1 DUP1 PUSH1 0x1 ADD SWAP2 POP POP PUSH2 0x3F2 JUMP JUMPDEST POP PUSH1 0x1 PUSH1 0x5 PUSH1 0x0 CALLER PUSH20 0xFFFFFFFFFFFFFFFFFFFFFFFFFFFFFFFFFFFFFFFF AND PUSH20 0xFFFFFFFFFFFFFFFFFFFFFFFFFFFFFFFFFFFFFFFF AND DUP2 MSTORE PUSH1 0x20 ADD SWAP1 DUP2 MSTORE PUSH1 0x20 ADD PUSH1 0x0 KECCAK256 PUSH1 0x0 PUSH2 0x100 EXP DUP2 SLOAD DUP2 PUSH1 0xFF MUL NOT AND SWAP1 DUP4 ISZERO ISZERO MUL OR SWAP1 SSTORE POP PUSH1 0x6 CALLER SWAP1 DUP1 PUSH1 0x1 DUP2 SLOAD ADD DUP1 DUP3 SSTORE DUP1 SWAP2 POP POP PUSH1 0x1 SWAP1 SUB SWAP1 PUSH1 0x0 MSTORE PUSH1 0x20 PUSH1 0x0 KECCAK256 ADD PUSH1 0x0 SWAP1 SWAP2 SWAP1 SWAP2 SWAP1 SWAP2 PUSH2 0x100 EXP DUP2 SLOAD DUP2 PUSH20 0xFFFFFFFFFFFFFFFFFFFFFFFFFFFFFFFFFFFFFFFF MUL NOT AND SWAP1 DUP4 PUSH20 0xFFFFFFFFFFFFFFFFFFFFFFFFFFFFFFFFFFFFFFFF AND MUL OR SWAP1 SSTORE POP PUSH1 0x0 PUSH1 0x4 ADD PUSH1 0x0 SWAP1 SLOAD SWAP1 PUSH2 0x100 EXP SWAP1 DIV PUSH20 0xFFFFFFFFFFFFFFFFFFFFFFFFFFFFFFFFFFFFFFFF AND PUSH20 0xFFFFFFFFFFFFFFFFFFFFFFFFFFFFFFFFFFFFFFFF AND PUSH4 0xFCCA991B CALLVALUE DUP6 CALLVALUE PUSH1 0x40 MLOAD DUP5 PUSH4 0xFFFFFFFF AND PUSH1 0xE0 SHL DUP2 MSTORE PUSH1 0x4 ADD PUSH2 0x5AD SWAP3 SWAP2 SWAP1 PUSH2 0x1B6C JUMP JUMPDEST PUSH1 0x0 PUSH1 0x40 MLOAD DUP1 DUP4 SUB DUP2 DUP6 DUP9 DUP1 EXTCODESIZE ISZERO DUP1 ISZERO PUSH2 0x5C6 JUMPI PUSH1 0x0 DUP1 REVERT JUMPDEST POP GAS CALL ISZERO DUP1 ISZERO PUSH2 0x5DA JUMPI RETURNDATASIZE PUSH1 0x0 DUP1 RETURNDATACOPY RETURNDATASIZE PUSH1 0x0 REVERT JUMPDEST POP POP POP POP POP DUP3 CALLER PUSH20 0xFFFFFFFFFFFFFFFFFFFFFFFFFFFFFFFFFFFFFFFF AND PUSH32 0xB4CFECF70861B7B150D8337780D34FB4CBC2114B5FB1FE51A5C5FCA1849F7274 CALLVALUE PUSH1 0x40 MLOAD PUSH2 0x626 SWAP2 SWAP1 PUSH2 0x170D JUMP JUMPDEST PUSH1 0x40 MLOAD DUP1 SWAP2 SUB SWAP1 LOG3 POP POP POP JUMP JUMPDEST PUSH1 0x5 PUSH1 0x20 MSTORE DUP1 PUSH1 0x0 MSTORE PUSH1 0x40 PUSH1 0x0 KECCAK256 PUSH1 0x0 SWAP2 POP SLOAD SWAP1 PUSH2 0x100 EXP SWAP1 DIV PUSH1 0xFF AND DUP2 JUMP JUMPDEST PUSH1 0x60 PUSH1 0x0 DUP1 PUSH1 0x4 ADD PUSH1 0x0 SWAP1 SLOAD SWAP1 PUSH2 0x100 EXP SWAP1 DIV PUSH20 0xFFFFFFFFFFFFFFFFFFFFFFFFFFFFFFFFFFFFFFFF AND PUSH20 0xFFFFFFFFFFFFFFFFFFFFFFFFFFFFFFFFFFFFFFFF AND PUSH4 0x913B722C PUSH1 0x40 MLOAD DUP2 PUSH4 0xFFFFFFFF AND PUSH1 0xE0 SHL DUP2 MSTORE PUSH1 0x4 ADD PUSH1 0x0 PUSH1 0x40 MLOAD DUP1 DUP4 SUB DUP2 DUP7 GAS STATICCALL ISZERO DUP1 ISZERO PUSH2 0x6C6 JUMPI RETURNDATASIZE PUSH1 0x0 DUP1 RETURNDATACOPY RETURNDATASIZE PUSH1 0x0 REVERT JUMPDEST POP POP POP POP PUSH1 0x40 MLOAD RETURNDATASIZE PUSH1 0x0 DUP3 RETURNDATACOPY RETURNDATASIZE PUSH1 0x1F NOT PUSH1 0x1F DUP3 ADD AND DUP3 ADD DUP1 PUSH1 0x40 MSTORE POP DUP2 ADD SWAP1 PUSH2 0x6EF SWAP2 SWAP1 PUSH2 0x1A88 JUMP JUMPDEST SWAP1 POP PUSH1 0x0 JUMPDEST DUP2 MLOAD DUP2 LT ISZERO PUSH2 0x792 JUMPI DUP2 DUP2 DUP2 MLOAD DUP2 LT PUSH2 0x710 JUMPI PUSH2 0x70F PUSH2 0x1AD1 JUMP JUMPDEST JUMPDEST PUSH1 0x20 MUL PUSH1 0x20 ADD ADD MLOAD PUSH20 0xFFFFFFFFFFFFFFFFFFFFFFFFFFFFFFFFFFFFFFFF AND CALLER PUSH20 0xFFFFFFFFFFFFFFFFFFFFFFFFFFFFFFFFFFFFFFFF AND EQ PUSH2 0x785 JUMPI PUSH1 0x40 MLOAD PUSH32 0x8C379A000000000000000000000000000000000000000000000000000000000 DUP2 MSTORE PUSH1 0x4 ADD PUSH2 0x77C SWAP1 PUSH2 0x1C07 JUMP JUMPDEST PUSH1 0x40 MLOAD DUP1 SWAP2 SUB SWAP1 REVERT JUMPDEST DUP1 DUP1 PUSH1 0x1 ADD SWAP2 POP POP PUSH2 0x6F4 JUMP JUMPDEST POP PUSH1 0x0 PUSH1 0x4 ADD PUSH1 0x0 SWAP1 SLOAD SWAP1 PUSH2 0x100 EXP SWAP1 DIV PUSH20 0xFFFFFFFFFFFFFFFFFFFFFFFFFFFFFFFFFFFFFFFF AND PUSH20 0xFFFFFFFFFFFFFFFFFFFFFFFFFFFFFFFFFFFFFFFF AND PUSH4 0xF01870B PUSH1 0x40 MLOAD DUP2 PUSH4 0xFFFFFFFF AND PUSH1 0xE0 SHL DUP2 MSTORE PUSH1 0x4 ADD PUSH1 0x0 PUSH1 0x40 MLOAD DUP1 DUP4 SUB DUP2 DUP7 GAS STATICCALL ISZERO DUP1 ISZERO PUSH2 0x803 JUMPI RETURNDATASIZE PUSH1 0x0 DUP1 RETURNDATACOPY RETURNDATASIZE PUSH1 0x0 REVERT JUMPDEST POP POP POP POP PUSH1 0x40 MLOAD RETURNDATASIZE PUSH1 0x0 DUP3 RETURNDATACOPY RETURNDATASIZE PUSH1 0x1F NOT PUSH1 0x1F DUP3 ADD AND DUP3 ADD DUP1 PUSH1 0x40 MSTORE POP DUP2 ADD SWAP1 PUSH2 0x82C SWAP2 SWAP1 PUSH2 0x1D54 JUMP JUMPDEST SWAP2 POP POP SWAP1 JUMP JUMPDEST PUSH1 0x0 DUP1 PUSH1 0x0 ADD DUP1 SLOAD PUSH2 0x843 SWAP1 PUSH2 0x1DCC JUMP JUMPDEST DUP1 PUSH1 0x1F ADD PUSH1 0x20 DUP1 SWAP2 DIV MUL PUSH1 0x20 ADD PUSH1 0x40 MLOAD SWAP1 DUP2 ADD PUSH1 0x40 MSTORE DUP1 SWAP3 SWAP2 SWAP1 DUP2 DUP2 MSTORE PUSH1 0x20 ADD DUP3 DUP1 SLOAD PUSH2 0x86F SWAP1 PUSH2 0x1DCC JUMP JUMPDEST DUP1 ISZERO PUSH2 0x8BC JUMPI DUP1 PUSH1 0x1F LT PUSH2 0x891 JUMPI PUSH2 0x100 DUP1 DUP4 SLOAD DIV MUL DUP4 MSTORE SWAP2 PUSH1 0x20 ADD SWAP2 PUSH2 0x8BC JUMP JUMPDEST DUP3 ADD SWAP2 SWAP1 PUSH1 0x0 MSTORE PUSH1 0x20 PUSH1 0x0 KECCAK256 SWAP1 JUMPDEST DUP2 SLOAD DUP2 MSTORE SWAP1 PUSH1 0x1 ADD SWAP1 PUSH1 0x20 ADD DUP1 DUP4 GT PUSH2 0x89F JUMPI DUP3 SWAP1 SUB PUSH1 0x1F AND DUP3 ADD SWAP2 JUMPDEST POP POP POP POP POP SWAP1 DUP1 PUSH1 0x1 ADD DUP1 SLOAD PUSH2 0x8D1 SWAP1 PUSH2 0x1DCC JUMP JUMPDEST DUP1 PUSH1 0x1F ADD PUSH1 0x20 DUP1 SWAP2 DIV MUL PUSH1 0x20 ADD PUSH1 0x40 MLOAD SWAP1 DUP2 ADD PUSH1 0x40 MSTORE DUP1 SWAP3 SWAP2 SWAP1 DUP2 DUP2 MSTORE PUSH1 0x20 ADD DUP3 DUP1 SLOAD PUSH2 0x8FD SWAP1 PUSH2 0x1DCC JUMP JUMPDEST DUP1 ISZERO PUSH2 0x94A JUMPI DUP1 PUSH1 0x1F LT PUSH2 0x91F JUMPI PUSH2 0x100 DUP1 DUP4 SLOAD DIV MUL DUP4 MSTORE SWAP2 PUSH1 0x20 ADD SWAP2 PUSH2 0x94A JUMP JUMPDEST DUP3 ADD SWAP2 SWAP1 PUSH1 0x0 MSTORE PUSH1 0x20 PUSH1 0x0 KECCAK256 SWAP1 JUMPDEST DUP2 SLOAD DUP2 MSTORE SWAP1 PUSH1 0x1 ADD SWAP1 PUSH1 0x20 ADD DUP1 DUP4 GT PUSH2 0x92D JUMPI DUP3 SWAP1 SUB PUSH1 0x1F AND DUP3 ADD SWAP2 JUMPDEST POP POP POP POP POP SWAP1 DUP1 PUSH1 0x3 ADD SLOAD SWAP1 DUP1 PUSH1 0x4 ADD PUSH1 0x0 SWAP1 SLOAD SWAP1 PUSH2 0x100 EXP SWAP1 DIV PUSH20 0xFFFFFFFFFFFFFFFFFFFFFFFFFFFFFFFFFFFFFFFF AND SWAP1 POP DUP5 JUMP JUMPDEST PUSH1 0x60 PUSH1 0x0 DUP1 PUSH1 0x4 ADD PUSH1 0x0 SWAP1 SLOAD SWAP1 PUSH2 0x100 EXP SWAP1 DIV PUSH20 0xFFFFFFFFFFFFFFFFFFFFFFFFFFFFFFFFFFFFFFFF AND PUSH20 0xFFFFFFFFFFFFFFFFFFFFFFFFFFFFFFFFFFFFFFFF AND PUSH4 0x913B722C PUSH1 0x40 MLOAD DUP2 PUSH4 0xFFFFFFFF AND PUSH1 0xE0 SHL DUP2 MSTORE PUSH1 0x4 ADD PUSH1 0x0 PUSH1 0x40 MLOAD DUP1 DUP4 SUB DUP2 DUP7 GAS STATICCALL ISZERO DUP1 ISZERO PUSH2 0x9F3 JUMPI RETURNDATASIZE PUSH1 0x0 DUP1 RETURNDATACOPY RETURNDATASIZE PUSH1 0x0 REVERT JUMPDEST POP POP POP POP PUSH1 0x40 MLOAD RETURNDATASIZE PUSH1 0x0 DUP3 RETURNDATACOPY RETURNDATASIZE PUSH1 0x1F NOT PUSH1 0x1F DUP3 ADD AND DUP3 ADD DUP1 PUSH1 0x40 MSTORE POP DUP2 ADD SWAP1 PUSH2 0xA1C SWAP2 SWAP1 PUSH2 0x1A88 JUMP JUMPDEST SWAP1 POP PUSH1 0x0 JUMPDEST DUP2 MLOAD DUP2 LT ISZERO PUSH2 0xABF JUMPI DUP2 DUP2 DUP2 MLOAD DUP2 LT PUSH2 0xA3D JUMPI PUSH2 0xA3C PUSH2 0x1AD1 JUMP JUMPDEST JUMPDEST PUSH1 0x20 MUL PUSH1 0x20 ADD ADD MLOAD PUSH20 0xFFFFFFFFFFFFFFFFFFFFFFFFFFFFFFFFFFFFFFFF AND CALLER PUSH20 0xFFFFFFFFFFFFFFFFFFFFFFFFFFFFFFFFFFFFFFFF AND EQ PUSH2 0xAB2 JUMPI PUSH1 0x40 MLOAD PUSH32 0x8C379A000000000000000000000000000000000000000000000000000000000 DUP2 MSTORE PUSH1 0x4 ADD PUSH2 0xAA9 SWAP1 PUSH2 0x1C07 JUMP JUMPDEST PUSH1 0x40 MLOAD DUP1 SWAP2 SUB SWAP1 REVERT JUMPDEST DUP1 DUP1 PUSH1 0x1 ADD SWAP2 POP POP PUSH2 0xA21 JUMP JUMPDEST POP PUSH1 0x6 DUP1 SLOAD DUP1 PUSH1 0x20 MUL PUSH1 0x20 ADD PUSH1 0x40 MLOAD SWAP1 DUP2 ADD PUSH1 0x40 MSTORE DUP1 SWAP3 SWAP2 SWAP1 DUP2 DUP2 MSTORE PUSH1 0x20 ADD DUP3 DUP1 SLOAD DUP1 ISZERO PUSH2 0xB42 JUMPI PUSH1 0x20 MUL DUP3 ADD SWAP2 SWAP1 PUSH1 0x0 MSTORE PUSH1 0x20 PUSH1 0x0 KECCAK256 SWAP1 JUMPDEST DUP2 PUSH1 0x0 SWAP1 SLOAD SWAP1 PUSH2 0x100 EXP SWAP1 DIV PUSH20 0xFFFFFFFFFFFFFFFFFFFFFFFFFFFFFFFFFFFFFFFF AND PUSH20 0xFFFFFFFFFFFFFFFFFFFFFFFFFFFFFFFFFFFFFFFF AND DUP2 MSTORE PUSH1 0x20 ADD SWAP1 PUSH1 0x1 ADD SWAP1 DUP1 DUP4 GT PUSH2 0xAF8 JUMPI JUMPDEST POP POP POP POP POP SWAP2 POP POP SWAP1 JUMP JUMPDEST PUSH1 0x0 DUP1 PUSH1 0x3 ADD SLOAD TIMESTAMP LT ISZERO PUSH2 0xB96 JUMPI PUSH1 0x40 MLOAD PUSH32 0x8C379A000000000000000000000000000000000000000000000000000000000 DUP2 MSTORE PUSH1 0x4 ADD PUSH2 0xB8D SWAP1 PUSH2 0x1E49 JUMP JUMPDEST PUSH1 0x40 MLOAD DUP1 SWAP2 SUB SWAP1 REVERT JUMPDEST PUSH1 0x0 DUP1 PUSH1 0x4 ADD PUSH1 0x0 SWAP1 SLOAD SWAP1 PUSH2 0x100 EXP SWAP1 DIV PUSH20 0xFFFFFFFFFFFFFFFFFFFFFFFFFFFFFFFFFFFFFFFF AND PUSH20 0xFFFFFFFFFFFFFFFFFFFFFFFFFFFFFFFFFFFFFFFF AND PUSH4 0x913B722C PUSH1 0x40 MLOAD DUP2 PUSH4 0xFFFFFFFF AND PUSH1 0xE0 SHL DUP2 MSTORE PUSH1 0x4 ADD PUSH1 0x0 PUSH1 0x40 MLOAD DUP1 DUP4 SUB DUP2 DUP7 GAS STATICCALL ISZERO DUP1 ISZERO PUSH2 0xC07 JUMPI RETURNDATASIZE PUSH1 0x0 DUP1 RETURNDATACOPY RETURNDATASIZE PUSH1 0x0 REVERT JUMPDEST POP POP POP POP PUSH1 0x40 MLOAD RETURNDATASIZE PUSH1 0x0 DUP3 RETURNDATACOPY RETURNDATASIZE PUSH1 0x1F NOT PUSH1 0x1F DUP3 ADD AND DUP3 ADD DUP1 PUSH1 0x40 MSTORE POP DUP2 ADD SWAP1 PUSH2 0xC30 SWAP2 SWAP1 PUSH2 0x1A88 JUMP JUMPDEST SWAP1 POP PUSH1 0x0 JUMPDEST DUP2 MLOAD DUP2 LT ISZERO PUSH2 0xCD3 JUMPI DUP2 DUP2 DUP2 MLOAD DUP2 LT PUSH2 0xC51 JUMPI PUSH2 0xC50 PUSH2 0x1AD1 JUMP JUMPDEST JUMPDEST PUSH1 0x20 MUL PUSH1 0x20 ADD ADD MLOAD PUSH20 0xFFFFFFFFFFFFFFFFFFFFFFFFFFFFFFFFFFFFFFFF AND CALLER PUSH20 0xFFFFFFFFFFFFFFFFFFFFFFFFFFFFFFFFFFFFFFFF AND EQ PUSH2 0xCC6 JUMPI PUSH1 0x40 MLOAD PUSH32 0x8C379A000000000000000000000000000000000000000000000000000000000 DUP2 MSTORE PUSH1 0x4 ADD PUSH2 0xCBD SWAP1 PUSH2 0x1C07 JUMP JUMPDEST PUSH1 0x40 MLOAD DUP1 SWAP2 SUB SWAP1 REVERT JUMPDEST DUP1 DUP1 PUSH1 0x1 ADD SWAP2 POP POP PUSH2 0xC35 JUMP JUMPDEST POP PUSH1 0x0 DUP1 PUSH1 0x4 ADD PUSH1 0x0 SWAP1 SLOAD SWAP1 PUSH2 0x100 EXP SWAP1 DIV PUSH20 0xFFFFFFFFFFFFFFFFFFFFFFFFFFFFFFFFFFFFFFFF AND PUSH20 0xFFFFFFFFFFFFFFFFFFFFFFFFFFFFFFFFFFFFFFFF AND PUSH4 0xF01870B PUSH1 0x40 MLOAD DUP2 PUSH4 0xFFFFFFFF AND PUSH1 0xE0 SHL DUP2 MSTORE PUSH1 0x4 ADD PUSH1 0x0 PUSH1 0x40 MLOAD DUP1 DUP4 SUB DUP2 DUP7 GAS STATICCALL ISZERO DUP1 ISZERO PUSH2 0xD45 JUMPI RETURNDATASIZE PUSH1 0x0 DUP1 RETURNDATACOPY RETURNDATASIZE PUSH1 0x0 REVERT JUMPDEST POP POP POP POP PUSH1 0x40 MLOAD RETURNDATASIZE PUSH1 0x0 DUP3 RETURNDATACOPY RETURNDATASIZE PUSH1 0x1F NOT PUSH1 0x1F DUP3 ADD AND DUP3 ADD DUP1 PUSH1 0x40 MSTORE POP DUP2 ADD SWAP1 PUSH2 0xD6E SWAP2 SWAP1 PUSH2 0x1D54 JUMP JUMPDEST SWAP1 POP PUSH1 0x0 DUP1 PUSH1 0x0 JUMPDEST DUP4 MLOAD DUP2 LT ISZERO PUSH2 0xDD7 JUMPI DUP2 DUP5 DUP3 DUP2 MLOAD DUP2 LT PUSH2 0xD93 JUMPI PUSH2 0xD92 PUSH2 0x1AD1 JUMP JUMPDEST JUMPDEST PUSH1 0x20 MUL PUSH1 0x20 ADD ADD MLOAD PUSH1 0x20 ADD MLOAD GT ISZERO PUSH2 0xDCA JUMPI DUP4 DUP2 DUP2 MLOAD DUP2 LT PUSH2 0xDB8 JUMPI PUSH2 0xDB7 PUSH2 0x1AD1 JUMP JUMPDEST JUMPDEST PUSH1 0x20 MUL PUSH1 0x20 ADD ADD MLOAD PUSH1 0x20 ADD MLOAD SWAP2 POP DUP1 SWAP3 POP JUMPDEST DUP1 DUP1 PUSH1 0x1 ADD SWAP2 POP POP PUSH2 0xD76 JUMP JUMPDEST POP DUP2 SWAP5 POP POP POP POP POP SWAP1 JUMP JUMPDEST PUSH1 0x0 DUP1 PUSH1 0x4 ADD PUSH1 0x0 SWAP1 SLOAD SWAP1 PUSH2 0x100 EXP SWAP1 DIV PUSH20 0xFFFFFFFFFFFFFFFFFFFFFFFFFFFFFFFFFFFFFFFF AND PUSH20 0xFFFFFFFFFFFFFFFFFFFFFFFFFFFFFFFFFFFFFFFF AND PUSH4 0x913B722C PUSH1 0x40 MLOAD DUP2 PUSH4 0xFFFFFFFF AND PUSH1 0xE0 SHL DUP2 MSTORE PUSH1 0x4 ADD PUSH1 0x0 PUSH1 0x40 MLOAD DUP1 DUP4 SUB DUP2 DUP7 GAS STATICCALL ISZERO DUP1 ISZERO PUSH2 0xE53 JUMPI RETURNDATASIZE PUSH1 0x0 DUP1 RETURNDATACOPY RETURNDATASIZE PUSH1 0x0 REVERT JUMPDEST POP POP POP POP PUSH1 0x40 MLOAD RETURNDATASIZE PUSH1 0x0 DUP3 RETURNDATACOPY RETURNDATASIZE PUSH1 0x1F NOT PUSH1 0x1F DUP3 ADD AND DUP3 ADD DUP1 PUSH1 0x40 MSTORE POP DUP2 ADD SWAP1 PUSH2 0xE7C SWAP2 SWAP1 PUSH2 0x1A88 JUMP JUMPDEST SWAP1 POP PUSH1 0x0 JUMPDEST DUP2 MLOAD DUP2 LT ISZERO PUSH2 0xF1F JUMPI DUP2 DUP2 DUP2 MLOAD DUP2 LT PUSH2 0xE9D JUMPI PUSH2 0xE9C PUSH2 0x1AD1 JUMP JUMPDEST JUMPDEST PUSH1 0x20 MUL PUSH1 0x20 ADD ADD MLOAD PUSH20 0xFFFFFFFFFFFFFFFFFFFFFFFFFFFFFFFFFFFFFFFF AND CALLER PUSH20 0xFFFFFFFFFFFFFFFFFFFFFFFFFFFFFFFFFFFFFFFF AND EQ PUSH2 0xF12 JUMPI PUSH1 0x40 MLOAD PUSH32 0x8C379A000000000000000000000000000000000000000000000000000000000 DUP2 MSTORE PUSH1 0x4 ADD PUSH2 0xF09 SWAP1 PUSH2 0x1C07 JUMP JUMPDEST PUSH1 0x40 MLOAD DUP1 SWAP2 SUB SWAP1 REVERT JUMPDEST DUP1 DUP1 PUSH1 0x1 ADD SWAP2 POP POP PUSH2 0xE81 JUMP JUMPDEST POP PUSH1 0x0 PUSH1 0x4 ADD PUSH1 0x0 SWAP1 SLOAD SWAP1 PUSH2 0x100 EXP SWAP1 DIV PUSH20 0xFFFFFFFFFFFFFFFFFFFFFFFFFFFFFFFFFFFFFFFF AND PUSH20 0xFFFFFFFFFFFFFFFFFFFFFFFFFFFFFFFFFFFFFFFF AND PUSH4 0xD58ED253 PUSH1 0x6 PUSH1 0x40 MLOAD DUP3 PUSH4 0xFFFFFFFF AND PUSH1 0xE0 SHL DUP2 MSTORE PUSH1 0x4 ADD PUSH2 0xF7F SWAP2 SWAP1 PUSH2 0x1F55 JUMP JUMPDEST PUSH1 0x0 PUSH1 0x40 MLOAD DUP1 DUP4 SUB DUP2 PUSH1 0x0 DUP8 DUP1 EXTCODESIZE ISZERO DUP1 ISZERO PUSH2 0xF99 JUMPI PUSH1 0x0 DUP1 REVERT JUMPDEST POP GAS CALL ISZERO DUP1 ISZERO PUSH2 0xFAD JUMPI RETURNDATASIZE PUSH1 0x0 DUP1 RETURNDATACOPY RETURNDATASIZE PUSH1 0x0 REVERT JUMPDEST POP POP POP POP POP JUMP JUMPDEST PUSH1 0x0 PUSH1 0x3 ADD SLOAD TIMESTAMP LT PUSH2 0xFFB JUMPI PUSH1 0x40 MLOAD PUSH32 0x8C379A000000000000000000000000000000000000000000000000000000000 DUP2 MSTORE PUSH1 0x4 ADD PUSH2 0xFF2 SWAP1 PUSH2 0x179E JUMP JUMPDEST PUSH1 0x40 MLOAD DUP1 SWAP2 SUB SWAP1 REVERT JUMPDEST PUSH1 0x0 CALLVALUE GT PUSH2 0x103E JUMPI PUSH1 0x40 MLOAD PUSH32 0x8C379A000000000000000000000000000000000000000000000000000000000 DUP2 MSTORE PUSH1 0x4 ADD PUSH2 0x1035 SWAP1 PUSH2 0x1876 JUMP JUMPDEST PUSH1 0x40 MLOAD DUP1 SWAP2 SUB SWAP1 REVERT JUMPDEST PUSH1 0x0 DUP1 PUSH1 0x4 ADD PUSH1 0x0 SWAP1 SLOAD SWAP1 PUSH2 0x100 EXP SWAP1 DIV PUSH20 0xFFFFFFFFFFFFFFFFFFFFFFFFFFFFFFFFFFFFFFFF AND PUSH20 0xFFFFFFFFFFFFFFFFFFFFFFFFFFFFFFFFFFFFFFFF AND PUSH4 0x913B722C PUSH1 0x40 MLOAD DUP2 PUSH4 0xFFFFFFFF AND PUSH1 0xE0 SHL DUP2 MSTORE PUSH1 0x4 ADD PUSH1 0x0 PUSH1 0x40 MLOAD DUP1 DUP4 SUB DUP2 DUP7 GAS STATICCALL ISZERO DUP1 ISZERO PUSH2 0x10AF JUMPI RETURNDATASIZE PUSH1 0x0 DUP1 RETURNDATACOPY RETURNDATASIZE PUSH1 0x0 REVERT JUMPDEST POP POP POP POP PUSH1 0x40 MLOAD RETURNDATASIZE PUSH1 0x0 DUP3 RETURNDATACOPY RETURNDATASIZE PUSH1 0x1F NOT PUSH1 0x1F DUP3 ADD AND DUP3 ADD DUP1 PUSH1 0x40 MSTORE POP DUP2 ADD SWAP1 PUSH2 0x10D8 SWAP2 SWAP1 PUSH2 0x1A88 JUMP JUMPDEST SWAP1 POP PUSH1 0x0 JUMPDEST DUP2 MLOAD DUP2 LT ISZERO PUSH2 0x117B JUMPI DUP2 DUP2 DUP2 MLOAD DUP2 LT PUSH2 0x10F9 JUMPI PUSH2 0x10F8 PUSH2 0x1AD1 JUMP JUMPDEST JUMPDEST PUSH1 0x20 MUL PUSH1 0x20 ADD ADD MLOAD PUSH20 0xFFFFFFFFFFFFFFFFFFFFFFFFFFFFFFFFFFFFFFFF AND CALLER PUSH20 0xFFFFFFFFFFFFFFFFFFFFFFFFFFFFFFFFFFFFFFFF AND SUB PUSH2 0x116E JUMPI PUSH1 0x40 MLOAD PUSH32 0x8C379A000000000000000000000000000000000000000000000000000000000 DUP2 MSTORE PUSH1 0x4 ADD PUSH2 0x1165 SWAP1 PUSH2 0x1FC3 JUMP JUMPDEST PUSH1 0x40 MLOAD DUP1 SWAP2 SUB SWAP1 REVERT JUMPDEST DUP1 DUP1 PUSH1 0x1 ADD SWAP2 POP POP PUSH2 0x10DD JUMP JUMPDEST POP PUSH1 0x0 CALLVALUE SWAP1 POP PUSH1 0x0 DUP1 PUSH1 0x4 ADD PUSH1 0x0 SWAP1 SLOAD SWAP1 PUSH2 0x100 EXP SWAP1 DIV PUSH20 0xFFFFFFFFFFFFFFFFFFFFFFFFFFFFFFFFFFFFFFFF AND PUSH20 0xFFFFFFFFFFFFFFFFFFFFFFFFFFFFFFFFFFFFFFFF AND DUP3 PUSH1 0x40 MLOAD PUSH2 0x11CB SWAP1 PUSH2 0x2014 JUMP JUMPDEST PUSH1 0x0 PUSH1 0x40 MLOAD DUP1 DUP4 SUB DUP2 DUP6 DUP8 GAS CALL SWAP3 POP POP POP RETURNDATASIZE DUP1 PUSH1 0x0 DUP2 EQ PUSH2 0x1208 JUMPI PUSH1 0x40 MLOAD SWAP2 POP PUSH1 0x1F NOT PUSH1 0x3F RETURNDATASIZE ADD AND DUP3 ADD PUSH1 0x40 MSTORE RETURNDATASIZE DUP3 MSTORE RETURNDATASIZE PUSH1 0x0 PUSH1 0x20 DUP5 ADD RETURNDATACOPY PUSH2 0x120D JUMP JUMPDEST PUSH1 0x60 SWAP2 POP JUMPDEST POP POP SWAP1 POP DUP1 PUSH2 0x1251 JUMPI PUSH1 0x40 MLOAD PUSH32 0x8C379A000000000000000000000000000000000000000000000000000000000 DUP2 MSTORE PUSH1 0x4 ADD PUSH2 0x1248 SWAP1 PUSH2 0x2075 JUMP JUMPDEST PUSH1 0x40 MLOAD DUP1 SWAP2 SUB SWAP1 REVERT JUMPDEST POP POP POP JUMP JUMPDEST PUSH1 0x6 DUP2 DUP2 SLOAD DUP2 LT PUSH2 0x1266 JUMPI PUSH1 0x0 DUP1 REVERT JUMPDEST SWAP1 PUSH1 0x0 MSTORE PUSH1 0x20 PUSH1 0x0 KECCAK256 ADD PUSH1 0x0 SWAP2 POP SLOAD SWAP1 PUSH2 0x100 EXP SWAP1 DIV PUSH20 0xFFFFFFFFFFFFFFFFFFFFFFFFFFFFFFFFFFFFFFFF AND DUP2 JUMP JUMPDEST PUSH1 0x0 PUSH1 0x40 MLOAD SWAP1 POP SWAP1 JUMP JUMPDEST PUSH1 0x0 DUP1 REVERT JUMPDEST PUSH1 0x0 DUP1 REVERT JUMPDEST PUSH1 0x0 DUP2 SWAP1 POP SWAP2 SWAP1 POP JUMP JUMPDEST PUSH2 0x12BC DUP2 PUSH2 0x12A9 JUMP JUMPDEST DUP2 EQ PUSH2 0x12C7 JUMPI PUSH1 0x0 DUP1 REVERT JUMPDEST POP JUMP JUMPDEST PUSH1 0x0 DUP2 CALLDATALOAD SWAP1 POP PUSH2 0x12D9 DUP2 PUSH2 0x12B3 JUMP JUMPDEST SWAP3 SWAP2 POP POP JUMP JUMPDEST PUSH1 0x0 PUSH1 0x20 DUP3 DUP5 SUB SLT ISZERO PUSH2 0x12F5 JUMPI PUSH2 0x12F4 PUSH2 0x129F JUMP JUMPDEST JUMPDEST PUSH1 0x0 PUSH2 0x1303 DUP5 DUP3 DUP6 ADD PUSH2 0x12CA JUMP JUMPDEST SWAP2 POP POP SWAP3 SWAP2 POP POP JUMP JUMPDEST PUSH1 0x0 PUSH20 0xFFFFFFFFFFFFFFFFFFFFFFFFFFFFFFFFFFFFFFFF DUP3 AND SWAP1 POP SWAP2 SWAP1 POP JUMP JUMPDEST PUSH1 0x0 PUSH2 0x1337 DUP3 PUSH2 0x130C JUMP JUMPDEST SWAP1 POP SWAP2 SWAP1 POP JUMP JUMPDEST PUSH2 0x1347 DUP2 PUSH2 0x132C JUMP JUMPDEST DUP2 EQ PUSH2 0x1352 JUMPI PUSH1 0x0 DUP1 REVERT JUMPDEST POP JUMP JUMPDEST PUSH1 0x0 DUP2 CALLDATALOAD SWAP1 POP PUSH2 0x1364 DUP2 PUSH2 0x133E JUMP JUMPDEST SWAP3 SWAP2 POP POP JUMP JUMPDEST PUSH1 0x0 PUSH1 0x20 DUP3 DUP5 SUB SLT ISZERO PUSH2 0x1380 JUMPI PUSH2 0x137F PUSH2 0x129F JUMP JUMPDEST JUMPDEST PUSH1 0x0 PUSH2 0x138E DUP5 DUP3 DUP6 ADD PUSH2 0x1355 JUMP JUMPDEST SWAP2 POP POP SWAP3 SWAP2 POP POP JUMP JUMPDEST PUSH1 0x0 DUP2 ISZERO ISZERO SWAP1 POP SWAP2 SWAP1 POP JUMP JUMPDEST PUSH2 0x13AC DUP2 PUSH2 0x1397 JUMP JUMPDEST DUP3 MSTORE POP POP JUMP JUMPDEST PUSH1 0x0 PUSH1 0x20 DUP3 ADD SWAP1 POP PUSH2 0x13C7 PUSH1 0x0 DUP4 ADD DUP5 PUSH2 0x13A3 JUMP JUMPDEST SWAP3 SWAP2 POP POP JUMP JUMPDEST PUSH1 0x0 DUP2 MLOAD SWAP1 POP SWAP2 SWAP1 POP JUMP JUMPDEST PUSH1 0x0 DUP3 DUP3 MSTORE PUSH1 0x20 DUP3 ADD SWAP1 POP SWAP3 SWAP2 POP POP JUMP JUMPDEST PUSH1 0x0 DUP2 SWAP1 POP PUSH1 0x20 DUP3 ADD SWAP1 POP SWAP2 SWAP1 POP JUMP JUMPDEST PUSH2 0x1402 DUP2 PUSH2 0x12A9 JUMP JUMPDEST DUP3 MSTORE POP POP JUMP JUMPDEST PUSH1 0x40 DUP3 ADD PUSH1 0x0 DUP3 ADD MLOAD PUSH2 0x141E PUSH1 0x0 DUP6 ADD DUP3 PUSH2 0x13F9 JUMP JUMPDEST POP PUSH1 0x20 DUP3 ADD MLOAD PUSH2 0x1431 PUSH1 0x20 DUP6 ADD DUP3 PUSH2 0x13F9 JUMP JUMPDEST POP POP POP POP JUMP JUMPDEST PUSH1 0x0 PUSH2 0x1443 DUP4 DUP4 PUSH2 0x1408 JUMP JUMPDEST PUSH1 0x40 DUP4 ADD SWAP1 POP SWAP3 SWAP2 POP POP JUMP JUMPDEST PUSH1 0x0 PUSH1 0x20 DUP3 ADD SWAP1 POP SWAP2 SWAP1 POP JUMP JUMPDEST PUSH1 0x0 PUSH2 0x1467 DUP3 PUSH2 0x13CD JUMP JUMPDEST PUSH2 0x1471 DUP2 DUP6 PUSH2 0x13D8 JUMP JUMPDEST SWAP4 POP PUSH2 0x147C DUP4 PUSH2 0x13E9 JUMP JUMPDEST DUP1 PUSH1 0x0 JUMPDEST DUP4 DUP2 LT ISZERO PUSH2 0x14AD JUMPI DUP2 MLOAD PUSH2 0x1494 DUP9 DUP3 PUSH2 0x1437 JUMP JUMPDEST SWAP8 POP PUSH2 0x149F DUP4 PUSH2 0x144F JUMP JUMPDEST SWAP3 POP POP PUSH1 0x1 DUP2 ADD SWAP1 POP PUSH2 0x1480 JUMP JUMPDEST POP DUP6 SWAP4 POP POP POP POP SWAP3 SWAP2 POP POP JUMP JUMPDEST PUSH1 0x0 PUSH1 0x20 DUP3 ADD SWAP1 POP DUP2 DUP2 SUB PUSH1 0x0 DUP4 ADD MSTORE PUSH2 0x14D4 DUP2 DUP5 PUSH2 0x145C JUMP JUMPDEST SWAP1 POP SWAP3 SWAP2 POP POP JUMP JUMPDEST PUSH1 0x0 DUP2 MLOAD SWAP1 POP SWAP2 SWAP1 POP JUMP JUMPDEST PUSH1 0x0 DUP3 DUP3 MSTORE PUSH1 0x20 DUP3 ADD SWAP1 POP SWAP3 SWAP2 POP POP JUMP JUMPDEST PUSH1 0x0 JUMPDEST DUP4 DUP2 LT ISZERO PUSH2 0x1516 JUMPI DUP1 DUP3 ADD MLOAD DUP2 DUP5 ADD MSTORE PUSH1 0x20 DUP2 ADD SWAP1 POP PUSH2 0x14FB JUMP JUMPDEST PUSH1 0x0 DUP5 DUP5 ADD MSTORE POP POP POP POP JUMP JUMPDEST PUSH1 0x0 PUSH1 0x1F NOT PUSH1 0x1F DUP4 ADD AND SWAP1 POP SWAP2 SWAP1 POP JUMP JUMPDEST PUSH1 0x0 PUSH2 0x153E DUP3 PUSH2 0x14DC JUMP JUMPDEST PUSH2 0x1548 DUP2 DUP6 PUSH2 0x14E7 JUMP JUMPDEST SWAP4 POP PUSH2 0x1558 DUP2 DUP6 PUSH1 0x20 DUP7 ADD PUSH2 0x14F8 JUMP JUMPDEST PUSH2 0x1561 DUP2 PUSH2 0x1522 JUMP JUMPDEST DUP5 ADD SWAP2 POP POP SWAP3 SWAP2 POP POP JUMP JUMPDEST PUSH2 0x1575 DUP2 PUSH2 0x12A9 JUMP JUMPDEST DUP3 MSTORE POP POP JUMP JUMPDEST PUSH1 0x0 DUP2 SWAP1 POP SWAP2 SWAP1 POP JUMP JUMPDEST PUSH1 0x0 PUSH2 0x15A0 PUSH2 0x159B PUSH2 0x1596 DUP5 PUSH2 0x130C JUMP JUMPDEST PUSH2 0x157B JUMP JUMPDEST PUSH2 0x130C JUMP JUMPDEST SWAP1 POP SWAP2 SWAP1 POP JUMP JUMPDEST PUSH1 0x0 PUSH2 0x15B2 DUP3 PUSH2 0x1585 JUMP JUMPDEST SWAP1 POP SWAP2 SWAP1 POP JUMP JUMPDEST PUSH1 0x0 PUSH2 0x15C4 DUP3 PUSH2 0x15A7 JUMP JUMPDEST SWAP1 POP SWAP2 SWAP1 POP JUMP JUMPDEST PUSH2 0x15D4 DUP2 PUSH2 0x15B9 JUMP JUMPDEST DUP3 MSTORE POP POP JUMP JUMPDEST PUSH1 0x0 PUSH1 0x80 DUP3 ADD SWAP1 POP DUP2 DUP2 SUB PUSH1 0x0 DUP4 ADD MSTORE PUSH2 0x15F4 DUP2 DUP8 PUSH2 0x1533 JUMP JUMPDEST SWAP1 POP DUP2 DUP2 SUB PUSH1 0x20 DUP4 ADD MSTORE PUSH2 0x1608 DUP2 DUP7 PUSH2 0x1533 JUMP JUMPDEST SWAP1 POP PUSH2 0x1617 PUSH1 0x40 DUP4 ADD DUP6 PUSH2 0x156C JUMP JUMPDEST PUSH2 0x1624 PUSH1 0x60 DUP4 ADD DUP5 PUSH2 0x15CB JUMP JUMPDEST SWAP6 SWAP5 POP POP POP POP POP JUMP JUMPDEST PUSH1 0x0 DUP2 MLOAD SWAP1 POP SWAP2 SWAP1 POP JUMP JUMPDEST PUSH1 0x0 DUP3 DUP3 MSTORE PUSH1 0x20 DUP3 ADD SWAP1 POP SWAP3 SWAP2 POP POP JUMP JUMPDEST PUSH1 0x0 DUP2 SWAP1 POP PUSH1 0x20 DUP3 ADD SWAP1 POP SWAP2 SWAP1 POP JUMP JUMPDEST PUSH2 0x1662 DUP2 PUSH2 0x132C JUMP JUMPDEST DUP3 MSTORE POP POP JUMP JUMPDEST PUSH1 0x0 PUSH2 0x1674 DUP4 DUP4 PUSH2 0x1659 JUMP JUMPDEST PUSH1 0x20 DUP4 ADD SWAP1 POP SWAP3 SWAP2 POP POP JUMP JUMPDEST PUSH1 0x0 PUSH1 0x20 DUP3 ADD SWAP1 POP SWAP2 SWAP1 POP JUMP JUMPDEST PUSH1 0x0 PUSH2 0x1698 DUP3 PUSH2 0x162D JUMP JUMPDEST PUSH2 0x16A2 DUP2 DUP6 PUSH2 0x1638 JUMP JUMPDEST SWAP4 POP PUSH2 0x16AD DUP4 PUSH2 0x1649 JUMP JUMPDEST DUP1 PUSH1 0x0 JUMPDEST DUP4 DUP2 LT ISZERO PUSH2 0x16DE JUMPI DUP2 MLOAD PUSH2 0x16C5 DUP9 DUP3 PUSH2 0x1668 JUMP JUMPDEST SWAP8 POP PUSH2 0x16D0 DUP4 PUSH2 0x1680 JUMP JUMPDEST SWAP3 POP POP PUSH1 0x1 DUP2 ADD SWAP1 POP PUSH2 0x16B1 JUMP JUMPDEST POP DUP6 SWAP4 POP POP POP POP SWAP3 SWAP2 POP POP JUMP JUMPDEST PUSH1 0x0 PUSH1 0x20 DUP3 ADD SWAP1 POP DUP2 DUP2 SUB PUSH1 0x0 DUP4 ADD MSTORE PUSH2 0x1705 DUP2 DUP5 PUSH2 0x168D JUMP JUMPDEST SWAP1 POP SWAP3 SWAP2 POP POP JUMP JUMPDEST PUSH1 0x0 PUSH1 0x20 DUP3 ADD SWAP1 POP PUSH2 0x1722 PUSH1 0x0 DUP4 ADD DUP5 PUSH2 0x156C JUMP JUMPDEST SWAP3 SWAP2 POP POP JUMP JUMPDEST PUSH2 0x1731 DUP2 PUSH2 0x132C JUMP JUMPDEST DUP3 MSTORE POP POP JUMP JUMPDEST PUSH1 0x0 PUSH1 0x20 DUP3 ADD SWAP1 POP PUSH2 0x174C PUSH1 0x0 DUP4 ADD DUP5 PUSH2 0x1728 JUMP JUMPDEST SWAP3 SWAP2 POP POP JUMP JUMPDEST PUSH32 0x566F74696E672068617320656E64656400000000000000000000000000000000 PUSH1 0x0 DUP3 ADD MSTORE POP JUMP JUMPDEST PUSH1 0x0 PUSH2 0x1788 PUSH1 0x10 DUP4 PUSH2 0x14E7 JUMP JUMPDEST SWAP2 POP PUSH2 0x1793 DUP3 PUSH2 0x1752 JUMP JUMPDEST PUSH1 0x20 DUP3 ADD SWAP1 POP SWAP2 SWAP1 POP JUMP JUMPDEST PUSH1 0x0 PUSH1 0x20 DUP3 ADD SWAP1 POP DUP2 DUP2 SUB PUSH1 0x0 DUP4 ADD MSTORE PUSH2 0x17B7 DUP2 PUSH2 0x177B JUMP JUMPDEST SWAP1 POP SWAP2 SWAP1 POP JUMP JUMPDEST PUSH32 0x496E76616C6964206F7074696F6E20696E646578000000000000000000000000 PUSH1 0x0 DUP3 ADD MSTORE POP JUMP JUMPDEST PUSH1 0x0 PUSH2 0x17F4 PUSH1 0x14 DUP4 PUSH2 0x14E7 JUMP JUMPDEST SWAP2 POP PUSH2 0x17FF DUP3 PUSH2 0x17BE JUMP JUMPDEST PUSH1 0x20 DUP3 ADD SWAP1 POP SWAP2 SWAP1 POP JUMP JUMPDEST PUSH1 0x0 PUSH1 0x20 DUP3 ADD SWAP1 POP DUP2 DUP2 SUB PUSH1 0x0 DUP4 ADD MSTORE PUSH2 0x1823 DUP2 PUSH2 0x17E7 JUMP JUMPDEST SWAP1 POP SWAP2 SWAP1 POP JUMP JUMPDEST PUSH32 0x4D7573742073656E642045544820746F20766F74650000000000000000000000 PUSH1 0x0 DUP3 ADD MSTORE POP JUMP JUMPDEST PUSH1 0x0 PUSH2 0x1860 PUSH1 0x15 DUP4 PUSH2 0x14E7 JUMP JUMPDEST SWAP2 POP PUSH2 0x186B DUP3 PUSH2 0x182A JUMP JUMPDEST PUSH1 0x20 DUP3 ADD SWAP1 POP SWAP2 SWAP1 POP JUMP JUMPDEST PUSH1 0x0 PUSH1 0x20 DUP3 ADD SWAP1 POP DUP2 DUP2 SUB PUSH1 0x0 DUP4 ADD MSTORE PUSH2 0x188F DUP2 PUSH2 0x1853 JUMP JUMPDEST SWAP1 POP SWAP2 SWAP1 POP JUMP JUMPDEST PUSH32 0x416C726561647920766F74656400000000000000000000000000000000000000 PUSH1 0x0 DUP3 ADD MSTORE POP JUMP JUMPDEST PUSH1 0x0 PUSH2 0x18CC PUSH1 0xD DUP4 PUSH2 0x14E7 JUMP JUMPDEST SWAP2 POP PUSH2 0x18D7 DUP3 PUSH2 0x1896 JUMP JUMPDEST PUSH1 0x20 DUP3 ADD SWAP1 POP SWAP2 SWAP1 POP JUMP JUMPDEST PUSH1 0x0 PUSH1 0x20 DUP3 ADD SWAP1 POP DUP2 DUP2 SUB PUSH1 0x0 DUP4 ADD MSTORE PUSH2 0x18FB DUP2 PUSH2 0x18BF JUMP JUMPDEST SWAP1 POP SWAP2 SWAP1 POP JUMP JUMPDEST PUSH1 0x0 DUP1 REVERT JUMPDEST PUSH32 0x4E487B7100000000000000000000000000000000000000000000000000000000 PUSH1 0x0 MSTORE PUSH1 0x41 PUSH1 0x4 MSTORE PUSH1 0x24 PUSH1 0x0 REVERT JUMPDEST PUSH2 0x193F DUP3 PUSH2 0x1522 JUMP JUMPDEST DUP2 ADD DUP2 DUP2 LT PUSH8 0xFFFFFFFFFFFFFFFF DUP3 GT OR ISZERO PUSH2 0x195E JUMPI PUSH2 0x195D PUSH2 0x1907 JUMP JUMPDEST JUMPDEST DUP1 PUSH1 0x40 MSTORE POP POP POP JUMP JUMPDEST PUSH1 0x0 PUSH2 0x1971 PUSH2 0x1295 JUMP JUMPDEST SWAP1 POP PUSH2 0x197D DUP3 DUP3 PUSH2 0x1936 JUMP JUMPDEST SWAP2 SWAP1 POP JUMP JUMPDEST PUSH1 0x0 PUSH8 0xFFFFFFFFFFFFFFFF DUP3 GT ISZERO PUSH2 0x199D JUMPI PUSH2 0x199C PUSH2 0x1907 JUMP JUMPDEST JUMPDEST PUSH1 0x20 DUP3 MUL SWAP1 POP PUSH1 0x20 DUP2 ADD SWAP1 POP SWAP2 SWAP1 POP JUMP JUMPDEST PUSH1 0x0 DUP1 REVERT JUMPDEST PUSH1 0x0 PUSH2 0x19BE DUP3 PUSH2 0x130C JUMP JUMPDEST SWAP1 POP SWAP2 SWAP1 POP JUMP JUMPDEST PUSH2 0x19CE DUP2 PUSH2 0x19B3 JUMP JUMPDEST DUP2 EQ PUSH2 0x19D9 JUMPI PUSH1 0x0 DUP1 REVERT JUMPDEST POP JUMP JUMPDEST PUSH1 0x0 DUP2 MLOAD SWAP1 POP PUSH2 0x19EB DUP2 PUSH2 0x19C5 JUMP JUMPDEST SWAP3 SWAP2 POP POP JUMP JUMPDEST PUSH1 0x0 PUSH2 0x1A04 PUSH2 0x19FF DUP5 PUSH2 0x1982 JUMP JUMPDEST PUSH2 0x1967 JUMP JUMPDEST SWAP1 POP DUP1 DUP4 DUP3 MSTORE PUSH1 0x20 DUP3 ADD SWAP1 POP PUSH1 0x20 DUP5 MUL DUP4 ADD DUP6 DUP2 GT ISZERO PUSH2 0x1A27 JUMPI PUSH2 0x1A26 PUSH2 0x19AE JUMP JUMPDEST JUMPDEST DUP4 JUMPDEST DUP2 DUP2 LT ISZERO PUSH2 0x1A50 JUMPI DUP1 PUSH2 0x1A3C DUP9 DUP3 PUSH2 0x19DC JUMP JUMPDEST DUP5 MSTORE PUSH1 0x20 DUP5 ADD SWAP4 POP POP PUSH1 0x20 DUP2 ADD SWAP1 POP PUSH2 0x1A29 JUMP JUMPDEST POP POP POP SWAP4 SWAP3 POP POP POP JUMP JUMPDEST PUSH1 0x0 DUP3 PUSH1 0x1F DUP4 ADD SLT PUSH2 0x1A6F JUMPI PUSH2 0x1A6E PUSH2 0x1902 JUMP JUMPDEST JUMPDEST DUP2 MLOAD PUSH2 0x1A7F DUP5 DUP3 PUSH1 0x20 DUP7 ADD PUSH2 0x19F1 JUMP JUMPDEST SWAP2 POP POP SWAP3 SWAP2 POP POP JUMP JUMPDEST PUSH1 0x0 PUSH1 0x20 DUP3 DUP5 SUB SLT ISZERO PUSH2 0x1A9E JUMPI PUSH2 0x1A9D PUSH2 0x129F JUMP JUMPDEST JUMPDEST PUSH1 0x0 DUP3 ADD MLOAD PUSH8 0xFFFFFFFFFFFFFFFF DUP2 GT ISZERO PUSH2 0x1ABC JUMPI PUSH2 0x1ABB PUSH2 0x12A4 JUMP JUMPDEST JUMPDEST PUSH2 0x1AC8 DUP5 DUP3 DUP6 ADD PUSH2 0x1A5A JUMP JUMPDEST SWAP2 POP POP SWAP3 SWAP2 POP POP JUMP JUMPDEST PUSH32 0x4E487B7100000000000000000000000000000000000000000000000000000000 PUSH1 0x0 MSTORE PUSH1 0x32 PUSH1 0x4 MSTORE PUSH1 0x24 PUSH1 0x0 REVERT JUMPDEST PUSH32 0x42656E656669636961726965732063616E6E6F7420766F746521000000000000 PUSH1 0x0 DUP3 ADD MSTORE POP JUMP JUMPDEST PUSH1 0x0 PUSH2 0x1B36 PUSH1 0x1A DUP4 PUSH2 0x14E7 JUMP JUMPDEST SWAP2 POP PUSH2 0x1B41 DUP3 PUSH2 0x1B00 JUMP JUMPDEST PUSH1 0x20 DUP3 ADD SWAP1 POP SWAP2 SWAP1 POP JUMP JUMPDEST PUSH1 0x0 PUSH1 0x20 DUP3 ADD SWAP1 POP DUP2 DUP2 SUB PUSH1 0x0 DUP4 ADD MSTORE PUSH2 0x1B65 DUP2 PUSH2 0x1B29 JUMP JUMPDEST SWAP1 POP SWAP2 SWAP1 POP JUMP JUMPDEST PUSH1 0x0 PUSH1 0x40 DUP3 ADD SWAP1 POP PUSH2 0x1B81 PUSH1 0x0 DUP4 ADD DUP6 PUSH2 0x156C JUMP JUMPDEST PUSH2 0x1B8E PUSH1 0x20 DUP4 ADD DUP5 PUSH2 0x156C JUMP JUMPDEST SWAP4 SWAP3 POP POP POP JUMP JUMPDEST PUSH32 0x596F75206D757374206265206F6E65206F66207468652062656E656669636961 PUSH1 0x0 DUP3 ADD MSTORE PUSH32 0x7269657321000000000000000000000000000000000000000000000000000000 PUSH1 0x20 DUP3 ADD MSTORE POP JUMP JUMPDEST PUSH1 0x0 PUSH2 0x1BF1 PUSH1 0x25 DUP4 PUSH2 0x14E7 JUMP JUMPDEST SWAP2 POP PUSH2 0x1BFC DUP3 PUSH2 0x1B95 JUMP JUMPDEST PUSH1 0x40 DUP3 ADD SWAP1 POP SWAP2 SWAP1 POP JUMP JUMPDEST PUSH1 0x0 PUSH1 0x20 DUP3 ADD SWAP1 POP DUP2 DUP2 SUB PUSH1 0x0 DUP4 ADD MSTORE PUSH2 0x1C20 DUP2 PUSH2 0x1BE4 JUMP JUMPDEST SWAP1 POP SWAP2 SWAP1 POP JUMP JUMPDEST PUSH1 0x0 PUSH8 0xFFFFFFFFFFFFFFFF DUP3 GT ISZERO PUSH2 0x1C42 JUMPI PUSH2 0x1C41 PUSH2 0x1907 JUMP JUMPDEST JUMPDEST PUSH1 0x20 DUP3 MUL SWAP1 POP PUSH1 0x20 DUP2 ADD SWAP1 POP SWAP2 SWAP1 POP JUMP JUMPDEST PUSH1 0x0 DUP1 REVERT JUMPDEST PUSH1 0x0 DUP2 MLOAD SWAP1 POP PUSH2 0x1C67 DUP2 PUSH2 0x12B3 JUMP JUMPDEST SWAP3 SWAP2 POP POP JUMP JUMPDEST PUSH1 0x0 PUSH1 0x40 DUP3 DUP5 SUB SLT ISZERO PUSH2 0x1C83 JUMPI PUSH2 0x1C82 PUSH2 0x1C53 JUMP JUMPDEST JUMPDEST PUSH2 0x1C8D PUSH1 0x40 PUSH2 0x1967 JUMP JUMPDEST SWAP1 POP PUSH1 0x0 PUSH2 0x1C9D DUP5 DUP3 DUP6 ADD PUSH2 0x1C58 JUMP JUMPDEST PUSH1 0x0 DUP4 ADD MSTORE POP PUSH1 0x20 PUSH2 0x1CB1 DUP5 DUP3 DUP6 ADD PUSH2 0x1C58 JUMP JUMPDEST PUSH1 0x20 DUP4 ADD MSTORE POP SWAP3 SWAP2 POP POP JUMP JUMPDEST PUSH1 0x0 PUSH2 0x1CD0 PUSH2 0x1CCB DUP5 PUSH2 0x1C27 JUMP JUMPDEST PUSH2 0x1967 JUMP JUMPDEST SWAP1 POP DUP1 DUP4 DUP3 MSTORE PUSH1 0x20 DUP3 ADD SWAP1 POP PUSH1 0x40 DUP5 MUL DUP4 ADD DUP6 DUP2 GT ISZERO PUSH2 0x1CF3 JUMPI PUSH2 0x1CF2 PUSH2 0x19AE JUMP JUMPDEST JUMPDEST DUP4 JUMPDEST DUP2 DUP2 LT ISZERO PUSH2 0x1D1C JUMPI DUP1 PUSH2 0x1D08 DUP9 DUP3 PUSH2 0x1C6D JUMP JUMPDEST DUP5 MSTORE PUSH1 0x20 DUP5 ADD SWAP4 POP POP PUSH1 0x40 DUP2 ADD SWAP1 POP PUSH2 0x1CF5 JUMP JUMPDEST POP POP POP SWAP4 SWAP3 POP POP POP JUMP JUMPDEST PUSH1 0x0 DUP3 PUSH1 0x1F DUP4 ADD SLT PUSH2 0x1D3B JUMPI PUSH2 0x1D3A PUSH2 0x1902 JUMP JUMPDEST JUMPDEST DUP2 MLOAD PUSH2 0x1D4B DUP5 DUP3 PUSH1 0x20 DUP7 ADD PUSH2 0x1CBD JUMP JUMPDEST SWAP2 POP POP SWAP3 SWAP2 POP POP JUMP JUMPDEST PUSH1 0x0 PUSH1 0x20 DUP3 DUP5 SUB SLT ISZERO PUSH2 0x1D6A JUMPI PUSH2 0x1D69 PUSH2 0x129F JUMP JUMPDEST JUMPDEST PUSH1 0x0 DUP3 ADD MLOAD PUSH8 0xFFFFFFFFFFFFFFFF DUP2 GT ISZERO PUSH2 0x1D88 JUMPI PUSH2 0x1D87 PUSH2 0x12A4 JUMP JUMPDEST JUMPDEST PUSH2 0x1D94 DUP5 DUP3 DUP6 ADD PUSH2 0x1D26 JUMP JUMPDEST SWAP2 POP POP SWAP3 SWAP2 POP POP JUMP JUMPDEST PUSH32 0x4E487B7100000000000000000000000000000000000000000000000000000000 PUSH1 0x0 MSTORE PUSH1 0x22 PUSH1 0x4 MSTORE PUSH1 0x24 PUSH1 0x0 REVERT JUMPDEST PUSH1 0x0 PUSH1 0x2 DUP3 DIV SWAP1 POP PUSH1 0x1 DUP3 AND DUP1 PUSH2 0x1DE4 JUMPI PUSH1 0x7F DUP3 AND SWAP2 POP JUMPDEST PUSH1 0x20 DUP3 LT DUP2 SUB PUSH2 0x1DF7 JUMPI PUSH2 0x1DF6 PUSH2 0x1D9D JUMP JUMPDEST JUMPDEST POP SWAP2 SWAP1 POP JUMP JUMPDEST PUSH32 0x566F74696E67206973207374696C6C206F6E676F696E67000000000000000000 PUSH1 0x0 DUP3 ADD MSTORE POP JUMP JUMPDEST PUSH1 0x0 PUSH2 0x1E33 PUSH1 0x17 DUP4 PUSH2 0x14E7 JUMP JUMPDEST SWAP2 POP PUSH2 0x1E3E DUP3 PUSH2 0x1DFD JUMP JUMPDEST PUSH1 0x20 DUP3 ADD SWAP1 POP SWAP2 SWAP1 POP JUMP JUMPDEST PUSH1 0x0 PUSH1 0x20 DUP3 ADD SWAP1 POP DUP2 DUP2 SUB PUSH1 0x0 DUP4 ADD MSTORE PUSH2 0x1E62 DUP2 PUSH2 0x1E26 JUMP JUMPDEST SWAP1 POP SWAP2 SWAP1 POP JUMP JUMPDEST PUSH1 0x0 DUP2 SLOAD SWAP1 POP SWAP2 SWAP1 POP JUMP JUMPDEST PUSH1 0x0 DUP2 SWAP1 POP DUP2 PUSH1 0x0 MSTORE PUSH1 0x20 PUSH1 0x0 KECCAK256 SWAP1 POP SWAP2 SWAP1 POP JUMP JUMPDEST PUSH1 0x0 DUP2 PUSH1 0x0 SHR SWAP1 POP SWAP2 SWAP1 POP JUMP JUMPDEST PUSH1 0x0 PUSH20 0xFFFFFFFFFFFFFFFFFFFFFFFFFFFFFFFFFFFFFFFF DUP3 AND SWAP1 POP SWAP2 SWAP1 POP JUMP JUMPDEST PUSH1 0x0 PUSH2 0x1EC9 PUSH2 0x1EC4 DUP4 PUSH2 0x1E89 JUMP JUMPDEST PUSH2 0x1E96 JUMP JUMPDEST SWAP1 POP SWAP2 SWAP1 POP JUMP JUMPDEST PUSH1 0x0 PUSH2 0x1EDC DUP3 SLOAD PUSH2 0x1EB6 JUMP JUMPDEST SWAP1 POP SWAP2 SWAP1 POP JUMP JUMPDEST PUSH1 0x0 PUSH1 0x1 DUP3 ADD SWAP1 POP SWAP2 SWAP1 POP JUMP JUMPDEST PUSH1 0x0 PUSH2 0x1EFB DUP3 PUSH2 0x1E69 JUMP JUMPDEST PUSH2 0x1F05 DUP2 DUP6 PUSH2 0x1638 JUMP JUMPDEST SWAP4 POP PUSH2 0x1F10 DUP4 PUSH2 0x1E74 JUMP JUMPDEST DUP1 PUSH1 0x0 JUMPDEST DUP4 DUP2 LT ISZERO PUSH2 0x1F48 JUMPI PUSH2 0x1F25 DUP3 PUSH2 0x1ED0 JUMP JUMPDEST PUSH2 0x1F2F DUP9 DUP3 PUSH2 0x1668 JUMP JUMPDEST SWAP8 POP PUSH2 0x1F3A DUP4 PUSH2 0x1EE3 JUMP JUMPDEST SWAP3 POP POP PUSH1 0x1 DUP2 ADD SWAP1 POP PUSH2 0x1F14 JUMP JUMPDEST POP DUP6 SWAP4 POP POP POP POP SWAP3 SWAP2 POP POP JUMP JUMPDEST PUSH1 0x0 PUSH1 0x20 DUP3 ADD SWAP1 POP DUP2 DUP2 SUB PUSH1 0x0 DUP4 ADD MSTORE PUSH2 0x1F6F DUP2 DUP5 PUSH2 0x1EF0 JUMP JUMPDEST SWAP1 POP SWAP3 SWAP2 POP POP JUMP JUMPDEST PUSH32 0x42656E656669636961726965732063616E6E6F7420636F6E7472696275746521 PUSH1 0x0 DUP3 ADD MSTORE POP JUMP JUMPDEST PUSH1 0x0 PUSH2 0x1FAD PUSH1 0x20 DUP4 PUSH2 0x14E7 JUMP JUMPDEST SWAP2 POP PUSH2 0x1FB8 DUP3 PUSH2 0x1F77 JUMP JUMPDEST PUSH1 0x20 DUP3 ADD SWAP1 POP SWAP2 SWAP1 POP JUMP JUMPDEST PUSH1 0x0 PUSH1 0x20 DUP3 ADD SWAP1 POP DUP2 DUP2 SUB PUSH1 0x0 DUP4 ADD MSTORE PUSH2 0x1FDC DUP2 PUSH2 0x1FA0 JUMP JUMPDEST SWAP1 POP SWAP2 SWAP1 POP JUMP JUMPDEST PUSH1 0x0 DUP2 SWAP1 POP SWAP3 SWAP2 POP POP JUMP JUMPDEST POP JUMP JUMPDEST PUSH1 0x0 PUSH2 0x1FFE PUSH1 0x0 DUP4 PUSH2 0x1FE3 JUMP JUMPDEST SWAP2 POP PUSH2 0x2009 DUP3 PUSH2 0x1FEE JUMP JUMPDEST PUSH1 0x0 DUP3 ADD SWAP1 POP SWAP2 SWAP1 POP JUMP JUMPDEST PUSH1 0x0 PUSH2 0x201F DUP3 PUSH2 0x1FF1 JUMP JUMPDEST SWAP2 POP DUP2 SWAP1 POP SWAP2 SWAP1 POP JUMP JUMPDEST PUSH32 0x4661696C656420746F2073656E64204574686572000000000000000000000000 PUSH1 0x0 DUP3 ADD MSTORE POP JUMP JUMPDEST PUSH1 0x0 PUSH2 0x205F PUSH1 0x14 DUP4 PUSH2 0x14E7 JUMP JUMPDEST SWAP2 POP PUSH2 0x206A DUP3 PUSH2 0x2029 JUMP JUMPDEST PUSH1 0x20 DUP3 ADD SWAP1 POP SWAP2 SWAP1 POP JUMP JUMPDEST PUSH1 0x0 PUSH1 0x20 DUP3 ADD SWAP1 POP DUP2 DUP2 SUB PUSH1 0x0 DUP4 ADD MSTORE PUSH2 0x208E DUP2 PUSH2 0x2052 JUMP JUMPDEST SWAP1 POP SWAP2 SWAP1 POP JUMP INVALID LOG2 PUSH5 0x6970667358 0x22 SLT KECCAK256 DUP8 REVERT 0xB3 RETURN STATICCALL PUSH8 0xE54A2FA995D331DF 0xE1 SLOAD 0x25 0xC8 LT 0x2D 0xD0 0xB7 0xD6 0xCF DUP15 PUSH22 0x57DCE94CB2A064736F6C634300081800330000000000 "},"methodIdentifiers":{"contribute()":"d7bb99ba","getAllVoters()":"35bbe70e","getVotes()":"0dc96015","getWinningOption()":"7eeb4520","hasVoted(address)":"09eef43e","pollData()":"31e7dede","returnMoney()":"93119312","vote(uint256)":"0121b93f","voters(uint256)":"da58c7d9"}}}}}