{
	"contracts/PollVoting.sol": {
		"PollVoting": {
			"abi": [
				{
					"inputs": [
						{
							"internalType": "address",
							"name": "_timeManagement",
							"type": "address"
						},
						{
							"internalType": "address",
							"name": "_securityContract",
							"type": "address"
						}
					],
					"stateMutability": "nonpayable",
					"type": "constructor"
				},
				{
					"anonymous": false,
					"inputs": [
						{
							"indexed": false,
							"internalType": "uint256",
							"name": "pollId",
							"type": "uint256"
						},
						{
							"indexed": false,
							"internalType": "string",
							"name": "question",
							"type": "string"
						}
					],
					"name": "PollCreated",
					"type": "event"
				},
				{
					"anonymous": false,
					"inputs": [
						{
							"indexed": false,
							"internalType": "uint256",
							"name": "pollId",
							"type": "uint256"
						},
						{
							"indexed": false,
							"internalType": "uint256",
							"name": "optionId",
							"type": "uint256"
						},
						{
							"indexed": false,
							"internalType": "address",
							"name": "voter",
							"type": "address"
						}
					],
					"name": "PollVoted",
					"type": "event"
				},
				{
					"inputs": [],
					"name": "admin",
					"outputs": [
						{
							"internalType": "address payable",
							"name": "",
							"type": "address"
						}
					],
					"stateMutability": "view",
					"type": "function"
				},
				{
					"inputs": [
						{
							"internalType": "string",
							"name": "question",
							"type": "string"
						},
						{
							"internalType": "string[]",
							"name": "options",
							"type": "string[]"
						}
					],
					"name": "createPoll",
					"outputs": [],
					"stateMutability": "nonpayable",
					"type": "function"
				},
				{
					"inputs": [
						{
							"internalType": "uint256",
							"name": "pollId",
							"type": "uint256"
						}
					],
					"name": "getResults",
					"outputs": [
						{
							"internalType": "uint256[]",
							"name": "",
							"type": "uint256[]"
						}
					],
					"stateMutability": "view",
					"type": "function"
				},
				{
					"inputs": [
						{
							"internalType": "uint256",
							"name": "",
							"type": "uint256"
						}
					],
					"name": "polls",
					"outputs": [
						{
							"internalType": "uint256",
							"name": "id",
							"type": "uint256"
						},
						{
							"internalType": "string",
							"name": "question",
							"type": "string"
						},
						{
							"internalType": "bool",
							"name": "active",
							"type": "bool"
						}
					],
					"stateMutability": "view",
					"type": "function"
				},
				{
					"inputs": [
						{
							"internalType": "uint256",
							"name": "pollId",
							"type": "uint256"
						},
						{
							"internalType": "uint256",
							"name": "optionId",
							"type": "uint256"
						}
					],
					"name": "vote",
					"outputs": [],
					"stateMutability": "nonpayable",
					"type": "function"
				}
			],
			"devdoc": {
				"kind": "dev",
				"methods": {},
				"version": 1
			},
			"evm": {
				"assembly": "    /* \"contracts/PollVoting.sol\":124:2127  contract PollVoting {... */\n  mstore(0x40, 0x80)\n    /* \"contracts/PollVoting.sol\":568:801  constructor(address _timeManagement, address _securityContract) {... */\n  callvalue\n  dup1\n  iszero\n  tag_1\n  jumpi\n  0x00\n  dup1\n  revert\ntag_1:\n  pop\n  mload(0x40)\n  sub(codesize, bytecodeSize)\n  dup1\n  bytecodeSize\n  dup4\n  codecopy\n  dup2\n  dup2\n  add\n  0x40\n  mstore\n  dup2\n  add\n  swap1\n  tag_2\n  swap2\n  swap1\n  tag_3\n  jump\t// in\ntag_2:\n    /* \"contracts/PollVoting.sol\":659:669  msg.sender */\n  caller\n    /* \"contracts/PollVoting.sol\":642:647  admin */\n  0x01\n  0x00\n    /* \"contracts/PollVoting.sol\":642:670  admin = payable (msg.sender) */\n  0x0100\n  exp\n  dup2\n  sload\n  dup2\n  0xffffffffffffffffffffffffffffffffffffffff\n  mul\n  not\n  and\n  swap1\n  dup4\n  0xffffffffffffffffffffffffffffffffffffffff\n  and\n  mul\n  or\n  swap1\n  sstore\n  pop\n    /* \"contracts/PollVoting.sol\":716:731  _timeManagement */\n  dup2\n    /* \"contracts/PollVoting.sol\":680:694  timeManagement */\n  0x02\n  0x00\n    /* \"contracts/PollVoting.sol\":680:732  timeManagement = PollTimeManagement(_timeManagement) */\n  0x0100\n  exp\n  dup2\n  sload\n  dup2\n  0xffffffffffffffffffffffffffffffffffffffff\n  mul\n  not\n  and\n  swap1\n  dup4\n  0xffffffffffffffffffffffffffffffffffffffff\n  and\n  mul\n  or\n  swap1\n  sstore\n  pop\n    /* \"contracts/PollVoting.sol\":776:793  _securityContract */\n  dup1\n    /* \"contracts/PollVoting.sol\":742:758  securityContract */\n  0x03\n  0x00\n    /* \"contracts/PollVoting.sol\":742:794  securityContract = VotingSecurity(_securityContract) */\n  0x0100\n  exp\n  dup2\n  sload\n  dup2\n  0xffffffffffffffffffffffffffffffffffffffff\n  mul\n  not\n  and\n  swap1\n  dup4\n  0xffffffffffffffffffffffffffffffffffffffff\n  and\n  mul\n  or\n  swap1\n  sstore\n  pop\n    /* \"contracts/PollVoting.sol\":568:801  constructor(address _timeManagement, address _securityContract) {... */\n  pop\n  pop\n    /* \"contracts/PollVoting.sol\":124:2127  contract PollVoting {... */\n  jump(tag_6)\n    /* \"#utility.yul\":88:205   */\ntag_8:\n    /* \"#utility.yul\":197:198   */\n  0x00\n    /* \"#utility.yul\":194:195   */\n  dup1\n    /* \"#utility.yul\":187:199   */\n  revert\n    /* \"#utility.yul\":334:460   */\ntag_10:\n    /* \"#utility.yul\":371:378   */\n  0x00\n    /* \"#utility.yul\":411:453   */\n  0xffffffffffffffffffffffffffffffffffffffff\n    /* \"#utility.yul\":404:409   */\n  dup3\n    /* \"#utility.yul\":400:454   */\n  and\n    /* \"#utility.yul\":389:454   */\n  swap1\n  pop\n    /* \"#utility.yul\":334:460   */\n  swap2\n  swap1\n  pop\n  jump\t// out\n    /* \"#utility.yul\":466:562   */\ntag_11:\n    /* \"#utility.yul\":503:510   */\n  0x00\n    /* \"#utility.yul\":532:556   */\n  tag_20\n    /* \"#utility.yul\":550:555   */\n  dup3\n    /* \"#utility.yul\":532:556   */\n  tag_10\n  jump\t// in\ntag_20:\n    /* \"#utility.yul\":521:556   */\n  swap1\n  pop\n    /* \"#utility.yul\":466:562   */\n  swap2\n  swap1\n  pop\n  jump\t// out\n    /* \"#utility.yul\":568:690   */\ntag_12:\n    /* \"#utility.yul\":641:665   */\n  tag_22\n    /* \"#utility.yul\":659:664   */\n  dup2\n    /* \"#utility.yul\":641:665   */\n  tag_11\n  jump\t// in\ntag_22:\n    /* \"#utility.yul\":634:639   */\n  dup2\n    /* \"#utility.yul\":631:666   */\n  eq\n    /* \"#utility.yul\":621:684   */\n  tag_23\n  jumpi\n    /* \"#utility.yul\":680:681   */\n  0x00\n    /* \"#utility.yul\":677:678   */\n  dup1\n    /* \"#utility.yul\":670:682   */\n  revert\n    /* \"#utility.yul\":621:684   */\ntag_23:\n    /* \"#utility.yul\":568:690   */\n  pop\n  jump\t// out\n    /* \"#utility.yul\":696:839   */\ntag_13:\n    /* \"#utility.yul\":753:758   */\n  0x00\n    /* \"#utility.yul\":784:790   */\n  dup2\n    /* \"#utility.yul\":778:791   */\n  mload\n    /* \"#utility.yul\":769:791   */\n  swap1\n  pop\n    /* \"#utility.yul\":800:833   */\n  tag_25\n    /* \"#utility.yul\":827:832   */\n  dup2\n    /* \"#utility.yul\":800:833   */\n  tag_12\n  jump\t// in\ntag_25:\n    /* \"#utility.yul\":696:839   */\n  swap3\n  swap2\n  pop\n  pop\n  jump\t// out\n    /* \"#utility.yul\":845:1352   */\ntag_3:\n    /* \"#utility.yul\":924:930   */\n  0x00\n    /* \"#utility.yul\":932:938   */\n  dup1\n    /* \"#utility.yul\":981:983   */\n  0x40\n    /* \"#utility.yul\":969:978   */\n  dup4\n    /* \"#utility.yul\":960:967   */\n  dup6\n    /* \"#utility.yul\":956:979   */\n  sub\n    /* \"#utility.yul\":952:984   */\n  slt\n    /* \"#utility.yul\":949:1068   */\n  iszero\n  tag_27\n  jumpi\n    /* \"#utility.yul\":987:1066   */\n  tag_28\n  tag_8\n  jump\t// in\ntag_28:\n    /* \"#utility.yul\":949:1068   */\ntag_27:\n    /* \"#utility.yul\":1107:1108   */\n  0x00\n    /* \"#utility.yul\":1132:1196   */\n  tag_29\n    /* \"#utility.yul\":1188:1195   */\n  dup6\n    /* \"#utility.yul\":1179:1185   */\n  dup3\n    /* \"#utility.yul\":1168:1177   */\n  dup7\n    /* \"#utility.yul\":1164:1186   */\n  add\n    /* \"#utility.yul\":1132:1196   */\n  tag_13\n  jump\t// in\ntag_29:\n    /* \"#utility.yul\":1122:1196   */\n  swap3\n  pop\n    /* \"#utility.yul\":1078:1206   */\n  pop\n    /* \"#utility.yul\":1245:1247   */\n  0x20\n    /* \"#utility.yul\":1271:1335   */\n  tag_30\n    /* \"#utility.yul\":1327:1334   */\n  dup6\n    /* \"#utility.yul\":1318:1324   */\n  dup3\n    /* \"#utility.yul\":1307:1316   */\n  dup7\n    /* \"#utility.yul\":1303:1325   */\n  add\n    /* \"#utility.yul\":1271:1335   */\n  tag_13\n  jump\t// in\ntag_30:\n    /* \"#utility.yul\":1261:1335   */\n  swap2\n  pop\n    /* \"#utility.yul\":1216:1345   */\n  pop\n    /* \"#utility.yul\":845:1352   */\n  swap3\n  pop\n  swap3\n  swap1\n  pop\n  jump\t// out\n    /* \"contracts/PollVoting.sol\":124:2127  contract PollVoting {... */\ntag_6:\n  dataSize(sub_0)\n  dup1\n  dataOffset(sub_0)\n  0x00\n  codecopy\n  0x00\n  return\nstop\n\nsub_0: assembly {\n        /* \"contracts/PollVoting.sol\":124:2127  contract PollVoting {... */\n      mstore(0x40, 0x80)\n      callvalue\n      dup1\n      iszero\n      tag_1\n      jumpi\n      0x00\n      dup1\n      revert\n    tag_1:\n      pop\n      jumpi(tag_2, lt(calldatasize, 0x04))\n      shr(0xe0, calldataload(0x00))\n      dup1\n      0x7e3d71c3\n      eq\n      tag_3\n      jumpi\n      dup1\n      0x81a60c0d\n      eq\n      tag_4\n      jumpi\n      dup1\n      0xac2f0074\n      eq\n      tag_5\n      jumpi\n      dup1\n      0xb384abef\n      eq\n      tag_6\n      jumpi\n      dup1\n      0xf851a440\n      eq\n      tag_7\n      jumpi\n    tag_2:\n      0x00\n      dup1\n      revert\n        /* \"contracts/PollVoting.sol\":920:1320  function createPoll(string memory question, string[] memory options) external onlyAdmin {... */\n    tag_3:\n      tag_8\n      0x04\n      dup1\n      calldatasize\n      sub\n      dup2\n      add\n      swap1\n      tag_9\n      swap2\n      swap1\n      tag_10\n      jump\t// in\n    tag_9:\n      tag_11\n      jump\t// in\n    tag_8:\n      stop\n        /* \"contracts/PollVoting.sol\":1826:2125  function getResults(uint pollId) public view returns (uint[] memory) {... */\n    tag_4:\n      tag_12\n      0x04\n      dup1\n      calldatasize\n      sub\n      dup2\n      add\n      swap1\n      tag_13\n      swap2\n      swap1\n      tag_14\n      jump\t// in\n    tag_13:\n      tag_15\n      jump\t// in\n    tag_12:\n      mload(0x40)\n      tag_16\n      swap2\n      swap1\n      tag_17\n      jump\t// in\n    tag_16:\n      mload(0x40)\n      dup1\n      swap2\n      sub\n      swap1\n      return\n        /* \"contracts/PollVoting.sol\":305:324  Poll[] public polls */\n    tag_5:\n      tag_18\n      0x04\n      dup1\n      calldatasize\n      sub\n      dup2\n      add\n      swap1\n      tag_19\n      swap2\n      swap1\n      tag_14\n      jump\t// in\n    tag_19:\n      tag_20\n      jump\t// in\n    tag_18:\n      mload(0x40)\n      tag_21\n      swap4\n      swap3\n      swap2\n      swap1\n      tag_22\n      jump\t// in\n    tag_21:\n      mload(0x40)\n      dup1\n      swap2\n      sub\n      swap1\n      return\n        /* \"contracts/PollVoting.sol\":1326:1820  function vote(uint pollId, uint optionId) public {... */\n    tag_6:\n      tag_23\n      0x04\n      dup1\n      calldatasize\n      sub\n      dup2\n      add\n      swap1\n      tag_24\n      swap2\n      swap1\n      tag_25\n      jump\t// in\n    tag_24:\n      tag_26\n      jump\t// in\n    tag_23:\n      stop\n        /* \"contracts/PollVoting.sol\":330:358  address payable public admin */\n    tag_7:\n      tag_27\n      tag_28\n      jump\t// in\n    tag_27:\n      mload(0x40)\n      tag_29\n      swap2\n      swap1\n      tag_30\n      jump\t// in\n    tag_29:\n      mload(0x40)\n      dup1\n      swap2\n      sub\n      swap1\n      return\n        /* \"contracts/PollVoting.sol\":920:1320  function createPoll(string memory question, string[] memory options) external onlyAdmin {... */\n    tag_11:\n        /* \"contracts/PollVoting.sol\":859:864  admin */\n      0x01\n      0x00\n      swap1\n      sload\n      swap1\n      0x0100\n      exp\n      swap1\n      div\n      0xffffffffffffffffffffffffffffffffffffffff\n      and\n        /* \"contracts/PollVoting.sol\":845:864  msg.sender == admin */\n      0xffffffffffffffffffffffffffffffffffffffff\n      and\n        /* \"contracts/PollVoting.sol\":845:855  msg.sender */\n      caller\n        /* \"contracts/PollVoting.sol\":845:864  msg.sender == admin */\n      0xffffffffffffffffffffffffffffffffffffffff\n      and\n      eq\n        /* \"contracts/PollVoting.sol\":837:896  require(msg.sender == admin, \"Only admin can create polls\") */\n      tag_32\n      jumpi\n      mload(0x40)\n      0x08c379a000000000000000000000000000000000000000000000000000000000\n      dup2\n      mstore\n      0x04\n      add\n      tag_33\n      swap1\n      tag_34\n      jump\t// in\n    tag_33:\n      mload(0x40)\n      dup1\n      swap2\n      sub\n      swap1\n      revert\n    tag_32:\n        /* \"contracts/PollVoting.sol\":1040:1045  admin */\n      0x01\n      0x00\n      swap1\n      sload\n      swap1\n      0x0100\n      exp\n      swap1\n      div\n      0xffffffffffffffffffffffffffffffffffffffff\n      and\n        /* \"contracts/PollVoting.sol\":1026:1045  msg.sender == admin */\n      0xffffffffffffffffffffffffffffffffffffffff\n      and\n        /* \"contracts/PollVoting.sol\":1026:1036  msg.sender */\n      caller\n        /* \"contracts/PollVoting.sol\":1026:1045  msg.sender == admin */\n      0xffffffffffffffffffffffffffffffffffffffff\n      and\n      eq\n        /* \"contracts/PollVoting.sol\":1018:1078  require(msg.sender == admin, \"Only admin can create polls.\") */\n      tag_36\n      jumpi\n      mload(0x40)\n      0x08c379a000000000000000000000000000000000000000000000000000000000\n      dup2\n      mstore\n      0x04\n      add\n      tag_37\n      swap1\n      tag_38\n      jump\t// in\n    tag_37:\n      mload(0x40)\n      dup1\n      swap2\n      sub\n      swap1\n      revert\n    tag_36:\n        /* \"contracts/PollVoting.sol\":1088:1108  Poll storage newPoll */\n      0x00\n        /* \"contracts/PollVoting.sol\":1111:1116  polls */\n      dup1\n        /* \"contracts/PollVoting.sol\":1111:1123  polls.push() */\n      0x01\n      dup2\n      0x01\n      dup2\n      sload\n      add\n      dup1\n      dup3\n      sstore\n      dup1\n      swap2\n      pop\n      pop\n      sub\n      swap1\n      0x00\n      mstore\n      keccak256(0x00, 0x20)\n      swap1\n      0x05\n      mul\n      add\n        /* \"contracts/PollVoting.sol\":1088:1123  Poll storage newPoll = polls.push() */\n      swap1\n      pop\n        /* \"contracts/PollVoting.sol\":1161:1162  1 */\n      0x01\n        /* \"contracts/PollVoting.sol\":1146:1151  polls */\n      0x00\n        /* \"contracts/PollVoting.sol\":1146:1158  polls.length */\n      dup1\n      sload\n      swap1\n      pop\n        /* \"contracts/PollVoting.sol\":1146:1162  polls.length - 1 */\n      tag_40\n      swap2\n      swap1\n      tag_41\n      jump\t// in\n    tag_40:\n        /* \"contracts/PollVoting.sol\":1133:1140  newPoll */\n      dup2\n        /* \"contracts/PollVoting.sol\":1133:1143  newPoll.id */\n      0x00\n      add\n        /* \"contracts/PollVoting.sol\":1133:1162  newPoll.id = polls.length - 1 */\n      dup2\n      swap1\n      sstore\n      pop\n        /* \"contracts/PollVoting.sol\":1191:1199  question */\n      dup3\n        /* \"contracts/PollVoting.sol\":1172:1179  newPoll */\n      dup2\n        /* \"contracts/PollVoting.sol\":1172:1188  newPoll.question */\n      0x01\n      add\n        /* \"contracts/PollVoting.sol\":1172:1199  newPoll.question = question */\n      swap1\n      dup2\n      tag_42\n      swap2\n      swap1\n      tag_43\n      jump\t// in\n    tag_42:\n      pop\n        /* \"contracts/PollVoting.sol\":1227:1234  options */\n      dup2\n        /* \"contracts/PollVoting.sol\":1209:1216  newPoll */\n      dup2\n        /* \"contracts/PollVoting.sol\":1209:1224  newPoll.options */\n      0x02\n      add\n        /* \"contracts/PollVoting.sol\":1209:1234  newPoll.options = options */\n      swap1\n      dup1\n      mload\n      swap1\n      0x20\n      add\n      swap1\n      tag_44\n      swap3\n      swap2\n      swap1\n      tag_45\n      jump\t// in\n    tag_44:\n      pop\n        /* \"contracts/PollVoting.sol\":1261:1265  true */\n      0x01\n        /* \"contracts/PollVoting.sol\":1244:1251  newPoll */\n      dup2\n        /* \"contracts/PollVoting.sol\":1244:1258  newPoll.active */\n      0x04\n      add\n      0x00\n        /* \"contracts/PollVoting.sol\":1244:1265  newPoll.active = true */\n      0x0100\n      exp\n      dup2\n      sload\n      dup2\n      0xff\n      mul\n      not\n      and\n      swap1\n      dup4\n      iszero\n      iszero\n      mul\n      or\n      swap1\n      sstore\n      pop\n        /* \"contracts/PollVoting.sol\":1280:1313  PollCreated(newPoll.id, question) */\n      0x65d5ac2bf1bca69566bef1affdfca5bb37b9577fc0b3af4c7c4638225e67b39c\n        /* \"contracts/PollVoting.sol\":1292:1299  newPoll */\n      dup2\n        /* \"contracts/PollVoting.sol\":1292:1302  newPoll.id */\n      0x00\n      add\n      sload\n        /* \"contracts/PollVoting.sol\":1304:1312  question */\n      dup5\n        /* \"contracts/PollVoting.sol\":1280:1313  PollCreated(newPoll.id, question) */\n      mload(0x40)\n      tag_46\n      swap3\n      swap2\n      swap1\n      tag_47\n      jump\t// in\n    tag_46:\n      mload(0x40)\n      dup1\n      swap2\n      sub\n      swap1\n      log1\n        /* \"contracts/PollVoting.sol\":1008:1320  {... */\n      pop\n        /* \"contracts/PollVoting.sol\":920:1320  function createPoll(string memory question, string[] memory options) external onlyAdmin {... */\n      pop\n      pop\n      jump\t// out\n        /* \"contracts/PollVoting.sol\":1826:2125  function getResults(uint pollId) public view returns (uint[] memory) {... */\n    tag_15:\n        /* \"contracts/PollVoting.sol\":1880:1893  uint[] memory */\n      0x60\n        /* \"contracts/PollVoting.sol\":1905:1926  uint[] memory results */\n      0x00\n        /* \"contracts/PollVoting.sol\":1940:1945  polls */\n      dup1\n        /* \"contracts/PollVoting.sol\":1946:1952  pollId */\n      dup4\n        /* \"contracts/PollVoting.sol\":1940:1953  polls[pollId] */\n      dup2\n      sload\n      dup2\n      lt\n      tag_49\n      jumpi\n      tag_50\n      tag_51\n      jump\t// in\n    tag_50:\n    tag_49:\n      swap1\n      0x00\n      mstore\n      keccak256(0x00, 0x20)\n      swap1\n      0x05\n      mul\n      add\n        /* \"contracts/PollVoting.sol\":1940:1961  polls[pollId].options */\n      0x02\n      add\n        /* \"contracts/PollVoting.sol\":1940:1968  polls[pollId].options.length */\n      dup1\n      sload\n      swap1\n      pop\n        /* \"contracts/PollVoting.sol\":1929:1969  new uint[](polls[pollId].options.length) */\n      0xffffffffffffffff\n      dup2\n      gt\n      iszero\n      tag_53\n      jumpi\n      tag_54\n      tag_55\n      jump\t// in\n    tag_54:\n    tag_53:\n      mload(0x40)\n      swap1\n      dup1\n      dup3\n      mstore\n      dup1\n      0x20\n      mul\n      0x20\n      add\n      dup3\n      add\n      0x40\n      mstore\n      dup1\n      iszero\n      tag_56\n      jumpi\n      dup2\n      0x20\n      add\n      0x20\n      dup3\n      mul\n      dup1\n      calldatasize\n      dup4\n      calldatacopy\n      dup1\n      dup3\n      add\n      swap2\n      pop\n      pop\n      swap1\n      pop\n    tag_56:\n      pop\n        /* \"contracts/PollVoting.sol\":1905:1969  uint[] memory results = new uint[](polls[pollId].options.length) */\n      swap1\n      pop\n        /* \"contracts/PollVoting.sol\":1984:1990  uint i */\n      0x00\n        /* \"contracts/PollVoting.sol\":1979:2095  for (uint i = 0; i < polls[pollId].options.length; i++) {... */\n    tag_57:\n        /* \"contracts/PollVoting.sol\":2000:2005  polls */\n      0x00\n        /* \"contracts/PollVoting.sol\":2006:2012  pollId */\n      dup5\n        /* \"contracts/PollVoting.sol\":2000:2013  polls[pollId] */\n      dup2\n      sload\n      dup2\n      lt\n      tag_60\n      jumpi\n      tag_61\n      tag_51\n      jump\t// in\n    tag_61:\n    tag_60:\n      swap1\n      0x00\n      mstore\n      keccak256(0x00, 0x20)\n      swap1\n      0x05\n      mul\n      add\n        /* \"contracts/PollVoting.sol\":2000:2021  polls[pollId].options */\n      0x02\n      add\n        /* \"contracts/PollVoting.sol\":2000:2028  polls[pollId].options.length */\n      dup1\n      sload\n      swap1\n      pop\n        /* \"contracts/PollVoting.sol\":1996:1997  i */\n      dup2\n        /* \"contracts/PollVoting.sol\":1996:2028  i < polls[pollId].options.length */\n      lt\n        /* \"contracts/PollVoting.sol\":1979:2095  for (uint i = 0; i < polls[pollId].options.length; i++) {... */\n      iszero\n      tag_58\n      jumpi\n        /* \"contracts/PollVoting.sol\":2062:2067  polls */\n      0x00\n        /* \"contracts/PollVoting.sol\":2068:2074  pollId */\n      dup5\n        /* \"contracts/PollVoting.sol\":2062:2075  polls[pollId] */\n      dup2\n      sload\n      dup2\n      lt\n      tag_63\n      jumpi\n      tag_64\n      tag_51\n      jump\t// in\n    tag_64:\n    tag_63:\n      swap1\n      0x00\n      mstore\n      keccak256(0x00, 0x20)\n      swap1\n      0x05\n      mul\n      add\n        /* \"contracts/PollVoting.sol\":2062:2081  polls[pollId].votes */\n      0x03\n      add\n        /* \"contracts/PollVoting.sol\":2062:2084  polls[pollId].votes[i] */\n      0x00\n        /* \"contracts/PollVoting.sol\":2082:2083  i */\n      dup3\n        /* \"contracts/PollVoting.sol\":2062:2084  polls[pollId].votes[i] */\n      dup2\n      mstore\n      0x20\n      add\n      swap1\n      dup2\n      mstore\n      0x20\n      add\n      0x00\n      keccak256\n      sload\n        /* \"contracts/PollVoting.sol\":2049:2056  results */\n      dup3\n        /* \"contracts/PollVoting.sol\":2057:2058  i */\n      dup3\n        /* \"contracts/PollVoting.sol\":2049:2059  results[i] */\n      dup2\n      mload\n      dup2\n      lt\n      tag_66\n      jumpi\n      tag_67\n      tag_51\n      jump\t// in\n    tag_67:\n    tag_66:\n      0x20\n      mul\n      0x20\n      add\n      add\n        /* \"contracts/PollVoting.sol\":2049:2084  results[i] = polls[pollId].votes[i] */\n      dup2\n      dup2\n      mstore\n      pop\n      pop\n        /* \"contracts/PollVoting.sol\":2030:2033  i++ */\n      dup1\n      dup1\n      0x01\n      add\n      swap2\n      pop\n      pop\n        /* \"contracts/PollVoting.sol\":1979:2095  for (uint i = 0; i < polls[pollId].options.length; i++) {... */\n      jump(tag_57)\n    tag_58:\n      pop\n        /* \"contracts/PollVoting.sol\":2111:2118  results */\n      dup1\n        /* \"contracts/PollVoting.sol\":2104:2118  return results */\n      swap2\n      pop\n      pop\n        /* \"contracts/PollVoting.sol\":1826:2125  function getResults(uint pollId) public view returns (uint[] memory) {... */\n      swap2\n      swap1\n      pop\n      jump\t// out\n        /* \"contracts/PollVoting.sol\":305:324  Poll[] public polls */\n    tag_20:\n      0x00\n      dup2\n      dup2\n      sload\n      dup2\n      lt\n      tag_68\n      jumpi\n      0x00\n      dup1\n      revert\n    tag_68:\n      swap1\n      0x00\n      mstore\n      keccak256(0x00, 0x20)\n      swap1\n      0x05\n      mul\n      add\n      0x00\n      swap2\n      pop\n      swap1\n      pop\n      dup1\n      0x00\n      add\n      sload\n      swap1\n      dup1\n      0x01\n      add\n      dup1\n      sload\n      tag_70\n      swap1\n      tag_71\n      jump\t// in\n    tag_70:\n      dup1\n      0x1f\n      add\n      0x20\n      dup1\n      swap2\n      div\n      mul\n      0x20\n      add\n      mload(0x40)\n      swap1\n      dup2\n      add\n      0x40\n      mstore\n      dup1\n      swap3\n      swap2\n      swap1\n      dup2\n      dup2\n      mstore\n      0x20\n      add\n      dup3\n      dup1\n      sload\n      tag_72\n      swap1\n      tag_71\n      jump\t// in\n    tag_72:\n      dup1\n      iszero\n      tag_73\n      jumpi\n      dup1\n      0x1f\n      lt\n      tag_74\n      jumpi\n      0x0100\n      dup1\n      dup4\n      sload\n      div\n      mul\n      dup4\n      mstore\n      swap2\n      0x20\n      add\n      swap2\n      jump(tag_73)\n    tag_74:\n      dup3\n      add\n      swap2\n      swap1\n      0x00\n      mstore\n      keccak256(0x00, 0x20)\n      swap1\n    tag_75:\n      dup2\n      sload\n      dup2\n      mstore\n      swap1\n      0x01\n      add\n      swap1\n      0x20\n      add\n      dup1\n      dup4\n      gt\n      tag_75\n      jumpi\n      dup3\n      swap1\n      sub\n      0x1f\n      and\n      dup3\n      add\n      swap2\n    tag_73:\n      pop\n      pop\n      pop\n      pop\n      pop\n      swap1\n      dup1\n      0x04\n      add\n      0x00\n      swap1\n      sload\n      swap1\n      0x0100\n      exp\n      swap1\n      div\n      0xff\n      and\n      swap1\n      pop\n      dup4\n      jump\t// out\n        /* \"contracts/PollVoting.sol\":1326:1820  function vote(uint pollId, uint optionId) public {... */\n    tag_26:\n        /* \"contracts/PollVoting.sol\":1393:1398  polls */\n      0x00\n        /* \"contracts/PollVoting.sol\":1399:1405  pollId */\n      dup3\n        /* \"contracts/PollVoting.sol\":1393:1406  polls[pollId] */\n      dup2\n      sload\n      dup2\n      lt\n      tag_77\n      jumpi\n      tag_78\n      tag_51\n      jump\t// in\n    tag_78:\n    tag_77:\n      swap1\n      0x00\n      mstore\n      keccak256(0x00, 0x20)\n      swap1\n      0x05\n      mul\n      add\n        /* \"contracts/PollVoting.sol\":1393:1413  polls[pollId].active */\n      0x04\n      add\n      0x00\n      swap1\n      sload\n      swap1\n      0x0100\n      exp\n      swap1\n      div\n      0xff\n      and\n        /* \"contracts/PollVoting.sol\":1385:1442  require(polls[pollId].active, \"This poll is not active.\") */\n      tag_80\n      jumpi\n      mload(0x40)\n      0x08c379a000000000000000000000000000000000000000000000000000000000\n      dup2\n      mstore\n      0x04\n      add\n      tag_81\n      swap1\n      tag_82\n      jump\t// in\n    tag_81:\n      mload(0x40)\n      dup1\n      swap2\n      sub\n      swap1\n      revert\n    tag_80:\n        /* \"contracts/PollVoting.sol\":1460:1474  timeManagement */\n      0x02\n      0x00\n      swap1\n      sload\n      swap1\n      0x0100\n      exp\n      swap1\n      div\n      0xffffffffffffffffffffffffffffffffffffffff\n      and\n        /* \"contracts/PollVoting.sol\":1460:1487  timeManagement.isPollActive */\n      0xffffffffffffffffffffffffffffffffffffffff\n      and\n      0x2ec15480\n        /* \"contracts/PollVoting.sol\":1488:1494  pollId */\n      dup4\n        /* \"contracts/PollVoting.sol\":1460:1495  timeManagement.isPollActive(pollId) */\n      mload(0x40)\n      dup3\n      0xffffffff\n      and\n      0xe0\n      shl\n      dup2\n      mstore\n      0x04\n      add\n      tag_83\n      swap2\n      swap1\n      tag_84\n      jump\t// in\n    tag_83:\n      0x20\n      mload(0x40)\n      dup1\n      dup4\n      sub\n      dup2\n      dup7\n      gas\n      staticcall\n      iszero\n      dup1\n      iszero\n      tag_86\n      jumpi\n      returndatasize\n      0x00\n      dup1\n      returndatacopy\n      revert(0x00, returndatasize)\n    tag_86:\n      pop\n      pop\n      pop\n      pop\n      mload(0x40)\n      returndatasize\n      not(0x1f)\n      0x1f\n      dup3\n      add\n      and\n      dup3\n      add\n      dup1\n      0x40\n      mstore\n      pop\n      dup2\n      add\n      swap1\n      tag_87\n      swap2\n      swap1\n      tag_88\n      jump\t// in\n    tag_87:\n        /* \"contracts/PollVoting.sol\":1452:1529  require(timeManagement.isPollActive(pollId), \"Poll is not currently active.\") */\n      tag_89\n      jumpi\n      mload(0x40)\n      0x08c379a000000000000000000000000000000000000000000000000000000000\n      dup2\n      mstore\n      0x04\n      add\n      tag_90\n      swap1\n      tag_91\n      jump\t// in\n    tag_90:\n      mload(0x40)\n      dup1\n      swap2\n      sub\n      swap1\n      revert\n    tag_89:\n        /* \"contracts/PollVoting.sol\":1558:1563  polls */\n      0x00\n        /* \"contracts/PollVoting.sol\":1564:1570  pollId */\n      dup3\n        /* \"contracts/PollVoting.sol\":1558:1571  polls[pollId] */\n      dup2\n      sload\n      dup2\n      lt\n      tag_92\n      jumpi\n      tag_93\n      tag_51\n      jump\t// in\n    tag_93:\n    tag_92:\n      swap1\n      0x00\n      mstore\n      keccak256(0x00, 0x20)\n      swap1\n      0x05\n      mul\n      add\n        /* \"contracts/PollVoting.sol\":1558:1579  polls[pollId].options */\n      0x02\n      add\n        /* \"contracts/PollVoting.sol\":1558:1586  polls[pollId].options.length */\n      dup1\n      sload\n      swap1\n      pop\n        /* \"contracts/PollVoting.sol\":1547:1555  optionId */\n      dup2\n        /* \"contracts/PollVoting.sol\":1547:1586  optionId < polls[pollId].options.length */\n      lt\n        /* \"contracts/PollVoting.sol\":1539:1606  require(optionId < polls[pollId].options.length, \"Invalid option.\") */\n      tag_95\n      jumpi\n      mload(0x40)\n      0x08c379a000000000000000000000000000000000000000000000000000000000\n      dup2\n      mstore\n      0x04\n      add\n      tag_96\n      swap1\n      tag_97\n      jump\t// in\n    tag_96:\n      mload(0x40)\n      dup1\n      swap2\n      sub\n      swap1\n      revert\n    tag_95:\n        /* \"contracts/PollVoting.sol\":1625:1641  securityContract */\n      0x03\n      0x00\n      swap1\n      sload\n      swap1\n      0x0100\n      exp\n      swap1\n      div\n      0xffffffffffffffffffffffffffffffffffffffff\n      and\n        /* \"contracts/PollVoting.sol\":1625:1652  securityContract.checkVoter */\n      0xffffffffffffffffffffffffffffffffffffffff\n      and\n      0x77a249e2\n        /* \"contracts/PollVoting.sol\":1653:1659  pollId */\n      dup4\n        /* \"contracts/PollVoting.sol\":1661:1671  msg.sender */\n      caller\n        /* \"contracts/PollVoting.sol\":1625:1672  securityContract.checkVoter(pollId, msg.sender) */\n      mload(0x40)\n      dup4\n      0xffffffff\n      and\n      0xe0\n      shl\n      dup2\n      mstore\n      0x04\n      add\n      tag_98\n      swap3\n      swap2\n      swap1\n      tag_99\n      jump\t// in\n    tag_98:\n      0x20\n      mload(0x40)\n      dup1\n      dup4\n      sub\n      dup2\n      dup7\n      gas\n      staticcall\n      iszero\n      dup1\n      iszero\n      tag_101\n      jumpi\n      returndatasize\n      0x00\n      dup1\n      returndatacopy\n      revert(0x00, returndatasize)\n    tag_101:\n      pop\n      pop\n      pop\n      pop\n      mload(0x40)\n      returndatasize\n      not(0x1f)\n      0x1f\n      dup3\n      add\n      and\n      dup3\n      add\n      dup1\n      0x40\n      mstore\n      pop\n      dup2\n      add\n      swap1\n      tag_102\n      swap2\n      swap1\n      tag_88\n      jump\t// in\n    tag_102:\n        /* \"contracts/PollVoting.sol\":1624:1672  !securityContract.checkVoter(pollId, msg.sender) */\n      iszero\n        /* \"contracts/PollVoting.sol\":1616:1713  require(!securityContract.checkVoter(pollId, msg.sender), \"You have already voted in this poll.\") */\n      tag_103\n      jumpi\n      mload(0x40)\n      0x08c379a000000000000000000000000000000000000000000000000000000000\n      dup2\n      mstore\n      0x04\n      add\n      tag_104\n      swap1\n      tag_105\n      jump\t// in\n    tag_104:\n      mload(0x40)\n      dup1\n      swap2\n      sub\n      swap1\n      revert\n    tag_103:\n        /* \"contracts/PollVoting.sol\":1724:1740  securityContract */\n      0x03\n      0x00\n      swap1\n      sload\n      swap1\n      0x0100\n      exp\n      swap1\n      div\n      0xffffffffffffffffffffffffffffffffffffffff\n      and\n        /* \"contracts/PollVoting.sol\":1724:1751  securityContract.recordVote */\n      0xffffffffffffffffffffffffffffffffffffffff\n      and\n      0x89ce58fd\n        /* \"contracts/PollVoting.sol\":1752:1758  pollId */\n      dup4\n        /* \"contracts/PollVoting.sol\":1760:1770  msg.sender */\n      caller\n        /* \"contracts/PollVoting.sol\":1724:1771  securityContract.recordVote(pollId, msg.sender) */\n      mload(0x40)\n      dup4\n      0xffffffff\n      and\n      0xe0\n      shl\n      dup2\n      mstore\n      0x04\n      add\n      tag_106\n      swap3\n      swap2\n      swap1\n      tag_99\n      jump\t// in\n    tag_106:\n      0x00\n      mload(0x40)\n      dup1\n      dup4\n      sub\n      dup2\n      0x00\n      dup8\n      dup1\n      extcodesize\n      iszero\n      dup1\n      iszero\n      tag_107\n      jumpi\n      0x00\n      dup1\n      revert\n    tag_107:\n      pop\n      gas\n      call\n      iszero\n      dup1\n      iszero\n      tag_109\n      jumpi\n      returndatasize\n      0x00\n      dup1\n      returndatacopy\n      revert(0x00, returndatasize)\n    tag_109:\n      pop\n      pop\n      pop\n      pop\n        /* \"contracts/PollVoting.sol\":1782:1787  polls */\n      0x00\n        /* \"contracts/PollVoting.sol\":1788:1794  pollId */\n      dup3\n        /* \"contracts/PollVoting.sol\":1782:1795  polls[pollId] */\n      dup2\n      sload\n      dup2\n      lt\n      tag_110\n      jumpi\n      tag_111\n      tag_51\n      jump\t// in\n    tag_111:\n    tag_110:\n      swap1\n      0x00\n      mstore\n      keccak256(0x00, 0x20)\n      swap1\n      0x05\n      mul\n      add\n        /* \"contracts/PollVoting.sol\":1782:1801  polls[pollId].votes */\n      0x03\n      add\n        /* \"contracts/PollVoting.sol\":1782:1811  polls[pollId].votes[optionId] */\n      0x00\n        /* \"contracts/PollVoting.sol\":1802:1810  optionId */\n      dup3\n        /* \"contracts/PollVoting.sol\":1782:1811  polls[pollId].votes[optionId] */\n      dup2\n      mstore\n      0x20\n      add\n      swap1\n      dup2\n      mstore\n      0x20\n      add\n      0x00\n      keccak256\n      0x00\n        /* \"contracts/PollVoting.sol\":1782:1813  polls[pollId].votes[optionId]++ */\n      dup2\n      sload\n      dup1\n      swap3\n      swap2\n      swap1\n      tag_113\n      swap1\n      tag_114\n      jump\t// in\n    tag_113:\n      swap2\n      swap1\n      pop\n      sstore\n      pop\n        /* \"contracts/PollVoting.sol\":1326:1820  function vote(uint pollId, uint optionId) public {... */\n      pop\n      pop\n      jump\t// out\n        /* \"contracts/PollVoting.sol\":330:358  address payable public admin */\n    tag_28:\n      0x01\n      0x00\n      swap1\n      sload\n      swap1\n      0x0100\n      exp\n      swap1\n      div\n      0xffffffffffffffffffffffffffffffffffffffff\n      and\n      dup2\n      jump\t// out\n    tag_45:\n      dup3\n      dup1\n      sload\n      dup3\n      dup3\n      sstore\n      swap1\n      0x00\n      mstore\n      keccak256(0x00, 0x20)\n      swap1\n      dup2\n      add\n      swap3\n      dup3\n      iszero\n      tag_115\n      jumpi\n      swap2\n      0x20\n      mul\n      dup3\n      add\n    tag_116:\n      dup3\n      dup2\n      gt\n      iszero\n      tag_117\n      jumpi\n      dup3\n      mload\n      dup3\n      swap1\n      dup2\n      tag_118\n      swap2\n      swap1\n      tag_43\n      jump\t// in\n    tag_118:\n      pop\n      swap2\n      0x20\n      add\n      swap2\n      swap1\n      0x01\n      add\n      swap1\n      jump(tag_116)\n    tag_117:\n    tag_115:\n      pop\n      swap1\n      pop\n      tag_119\n      swap2\n      swap1\n      tag_120\n      jump\t// in\n    tag_119:\n      pop\n      swap1\n      jump\t// out\n    tag_120:\n    tag_121:\n      dup1\n      dup3\n      gt\n      iszero\n      tag_122\n      jumpi\n      0x00\n      dup2\n      dup2\n      tag_123\n      swap2\n      swap1\n      tag_124\n      jump\t// in\n    tag_123:\n      pop\n      0x01\n      add\n      jump(tag_121)\n    tag_122:\n      pop\n      swap1\n      jump\t// out\n    tag_124:\n      pop\n      dup1\n      sload\n      tag_125\n      swap1\n      tag_71\n      jump\t// in\n    tag_125:\n      0x00\n      dup3\n      sstore\n      dup1\n      0x1f\n      lt\n      tag_127\n      jumpi\n      pop\n      jump(tag_126)\n    tag_127:\n      0x1f\n      add\n      0x20\n      swap1\n      div\n      swap1\n      0x00\n      mstore\n      keccak256(0x00, 0x20)\n      swap1\n      dup2\n      add\n      swap1\n      tag_128\n      swap2\n      swap1\n      tag_129\n      jump\t// in\n    tag_128:\n    tag_126:\n      pop\n      jump\t// out\n    tag_129:\n    tag_130:\n      dup1\n      dup3\n      gt\n      iszero\n      tag_131\n      jumpi\n      0x00\n      dup2\n      0x00\n      swap1\n      sstore\n      pop\n      0x01\n      add\n      jump(tag_130)\n    tag_131:\n      pop\n      swap1\n      jump\t// out\n        /* \"#utility.yul\":7:82   */\n    tag_132:\n        /* \"#utility.yul\":40:46   */\n      0x00\n        /* \"#utility.yul\":73:75   */\n      0x40\n        /* \"#utility.yul\":67:76   */\n      mload\n        /* \"#utility.yul\":57:76   */\n      swap1\n      pop\n        /* \"#utility.yul\":7:82   */\n      swap1\n      jump\t// out\n        /* \"#utility.yul\":88:205   */\n    tag_133:\n        /* \"#utility.yul\":197:198   */\n      0x00\n        /* \"#utility.yul\":194:195   */\n      dup1\n        /* \"#utility.yul\":187:199   */\n      revert\n        /* \"#utility.yul\":211:328   */\n    tag_134:\n        /* \"#utility.yul\":320:321   */\n      0x00\n        /* \"#utility.yul\":317:318   */\n      dup1\n        /* \"#utility.yul\":310:322   */\n      revert\n        /* \"#utility.yul\":334:451   */\n    tag_135:\n        /* \"#utility.yul\":443:444   */\n      0x00\n        /* \"#utility.yul\":440:441   */\n      dup1\n        /* \"#utility.yul\":433:445   */\n      revert\n        /* \"#utility.yul\":457:574   */\n    tag_136:\n        /* \"#utility.yul\":566:567   */\n      0x00\n        /* \"#utility.yul\":563:564   */\n      dup1\n        /* \"#utility.yul\":556:568   */\n      revert\n        /* \"#utility.yul\":580:682   */\n    tag_137:\n        /* \"#utility.yul\":621:627   */\n      0x00\n        /* \"#utility.yul\":672:674   */\n      0x1f\n        /* \"#utility.yul\":668:675   */\n      not\n        /* \"#utility.yul\":663:665   */\n      0x1f\n        /* \"#utility.yul\":656:661   */\n      dup4\n        /* \"#utility.yul\":652:666   */\n      add\n        /* \"#utility.yul\":648:676   */\n      and\n        /* \"#utility.yul\":638:676   */\n      swap1\n      pop\n        /* \"#utility.yul\":580:682   */\n      swap2\n      swap1\n      pop\n      jump\t// out\n        /* \"#utility.yul\":688:868   */\n    tag_55:\n        /* \"#utility.yul\":736:813   */\n      0x4e487b7100000000000000000000000000000000000000000000000000000000\n        /* \"#utility.yul\":733:734   */\n      0x00\n        /* \"#utility.yul\":726:814   */\n      mstore\n        /* \"#utility.yul\":833:837   */\n      0x41\n        /* \"#utility.yul\":830:831   */\n      0x04\n        /* \"#utility.yul\":823:838   */\n      mstore\n        /* \"#utility.yul\":857:861   */\n      0x24\n        /* \"#utility.yul\":854:855   */\n      0x00\n        /* \"#utility.yul\":847:862   */\n      revert\n        /* \"#utility.yul\":874:1155   */\n    tag_138:\n        /* \"#utility.yul\":957:984   */\n      tag_210\n        /* \"#utility.yul\":979:983   */\n      dup3\n        /* \"#utility.yul\":957:984   */\n      tag_137\n      jump\t// in\n    tag_210:\n        /* \"#utility.yul\":949:955   */\n      dup2\n        /* \"#utility.yul\":945:985   */\n      add\n        /* \"#utility.yul\":1087:1093   */\n      dup2\n        /* \"#utility.yul\":1075:1085   */\n      dup2\n        /* \"#utility.yul\":1072:1094   */\n      lt\n        /* \"#utility.yul\":1051:1069   */\n      0xffffffffffffffff\n        /* \"#utility.yul\":1039:1049   */\n      dup3\n        /* \"#utility.yul\":1036:1070   */\n      gt\n        /* \"#utility.yul\":1033:1095   */\n      or\n        /* \"#utility.yul\":1030:1118   */\n      iszero\n      tag_211\n      jumpi\n        /* \"#utility.yul\":1098:1116   */\n      tag_212\n      tag_55\n      jump\t// in\n    tag_212:\n        /* \"#utility.yul\":1030:1118   */\n    tag_211:\n        /* \"#utility.yul\":1138:1148   */\n      dup1\n        /* \"#utility.yul\":1134:1136   */\n      0x40\n        /* \"#utility.yul\":1127:1149   */\n      mstore\n        /* \"#utility.yul\":917:1155   */\n      pop\n        /* \"#utility.yul\":874:1155   */\n      pop\n      pop\n      jump\t// out\n        /* \"#utility.yul\":1161:1290   */\n    tag_139:\n        /* \"#utility.yul\":1195:1201   */\n      0x00\n        /* \"#utility.yul\":1222:1242   */\n      tag_214\n      tag_132\n      jump\t// in\n    tag_214:\n        /* \"#utility.yul\":1212:1242   */\n      swap1\n      pop\n        /* \"#utility.yul\":1251:1284   */\n      tag_215\n        /* \"#utility.yul\":1279:1283   */\n      dup3\n        /* \"#utility.yul\":1271:1277   */\n      dup3\n        /* \"#utility.yul\":1251:1284   */\n      tag_138\n      jump\t// in\n    tag_215:\n        /* \"#utility.yul\":1161:1290   */\n      swap2\n      swap1\n      pop\n      jump\t// out\n        /* \"#utility.yul\":1296:1604   */\n    tag_140:\n        /* \"#utility.yul\":1358:1362   */\n      0x00\n        /* \"#utility.yul\":1448:1466   */\n      0xffffffffffffffff\n        /* \"#utility.yul\":1440:1446   */\n      dup3\n        /* \"#utility.yul\":1437:1467   */\n      gt\n        /* \"#utility.yul\":1434:1490   */\n      iszero\n      tag_217\n      jumpi\n        /* \"#utility.yul\":1470:1488   */\n      tag_218\n      tag_55\n      jump\t// in\n    tag_218:\n        /* \"#utility.yul\":1434:1490   */\n    tag_217:\n        /* \"#utility.yul\":1508:1537   */\n      tag_219\n        /* \"#utility.yul\":1530:1536   */\n      dup3\n        /* \"#utility.yul\":1508:1537   */\n      tag_137\n      jump\t// in\n    tag_219:\n        /* \"#utility.yul\":1500:1537   */\n      swap1\n      pop\n        /* \"#utility.yul\":1592:1596   */\n      0x20\n        /* \"#utility.yul\":1586:1590   */\n      dup2\n        /* \"#utility.yul\":1582:1597   */\n      add\n        /* \"#utility.yul\":1574:1597   */\n      swap1\n      pop\n        /* \"#utility.yul\":1296:1604   */\n      swap2\n      swap1\n      pop\n      jump\t// out\n        /* \"#utility.yul\":1610:1758   */\n    tag_141:\n        /* \"#utility.yul\":1708:1714   */\n      dup3\n        /* \"#utility.yul\":1703:1706   */\n      dup2\n        /* \"#utility.yul\":1698:1701   */\n      dup4\n        /* \"#utility.yul\":1685:1715   */\n      calldatacopy\n        /* \"#utility.yul\":1749:1750   */\n      0x00\n        /* \"#utility.yul\":1740:1746   */\n      dup4\n        /* \"#utility.yul\":1735:1738   */\n      dup4\n        /* \"#utility.yul\":1731:1747   */\n      add\n        /* \"#utility.yul\":1724:1751   */\n      mstore\n        /* \"#utility.yul\":1610:1758   */\n      pop\n      pop\n      pop\n      jump\t// out\n        /* \"#utility.yul\":1764:2189   */\n    tag_142:\n        /* \"#utility.yul\":1842:1847   */\n      0x00\n        /* \"#utility.yul\":1867:1933   */\n      tag_222\n        /* \"#utility.yul\":1883:1932   */\n      tag_223\n        /* \"#utility.yul\":1925:1931   */\n      dup5\n        /* \"#utility.yul\":1883:1932   */\n      tag_140\n      jump\t// in\n    tag_223:\n        /* \"#utility.yul\":1867:1933   */\n      tag_139\n      jump\t// in\n    tag_222:\n        /* \"#utility.yul\":1858:1933   */\n      swap1\n      pop\n        /* \"#utility.yul\":1956:1962   */\n      dup3\n        /* \"#utility.yul\":1949:1954   */\n      dup2\n        /* \"#utility.yul\":1942:1963   */\n      mstore\n        /* \"#utility.yul\":1994:1998   */\n      0x20\n        /* \"#utility.yul\":1987:1992   */\n      dup2\n        /* \"#utility.yul\":1983:1999   */\n      add\n        /* \"#utility.yul\":2032:2035   */\n      dup5\n        /* \"#utility.yul\":2023:2029   */\n      dup5\n        /* \"#utility.yul\":2018:2021   */\n      dup5\n        /* \"#utility.yul\":2014:2030   */\n      add\n        /* \"#utility.yul\":2011:2036   */\n      gt\n        /* \"#utility.yul\":2008:2120   */\n      iszero\n      tag_224\n      jumpi\n        /* \"#utility.yul\":2039:2118   */\n      tag_225\n      tag_136\n      jump\t// in\n    tag_225:\n        /* \"#utility.yul\":2008:2120   */\n    tag_224:\n        /* \"#utility.yul\":2129:2183   */\n      tag_226\n        /* \"#utility.yul\":2176:2182   */\n      dup5\n        /* \"#utility.yul\":2171:2174   */\n      dup3\n        /* \"#utility.yul\":2166:2169   */\n      dup6\n        /* \"#utility.yul\":2129:2183   */\n      tag_141\n      jump\t// in\n    tag_226:\n        /* \"#utility.yul\":1848:2189   */\n      pop\n        /* \"#utility.yul\":1764:2189   */\n      swap4\n      swap3\n      pop\n      pop\n      pop\n      jump\t// out\n        /* \"#utility.yul\":2209:2549   */\n    tag_143:\n        /* \"#utility.yul\":2265:2270   */\n      0x00\n        /* \"#utility.yul\":2314:2317   */\n      dup3\n        /* \"#utility.yul\":2307:2311   */\n      0x1f\n        /* \"#utility.yul\":2299:2305   */\n      dup4\n        /* \"#utility.yul\":2295:2312   */\n      add\n        /* \"#utility.yul\":2291:2318   */\n      slt\n        /* \"#utility.yul\":2281:2403   */\n      tag_228\n      jumpi\n        /* \"#utility.yul\":2322:2401   */\n      tag_229\n      tag_135\n      jump\t// in\n    tag_229:\n        /* \"#utility.yul\":2281:2403   */\n    tag_228:\n        /* \"#utility.yul\":2439:2445   */\n      dup2\n        /* \"#utility.yul\":2426:2446   */\n      calldataload\n        /* \"#utility.yul\":2464:2543   */\n      tag_230\n        /* \"#utility.yul\":2539:2542   */\n      dup5\n        /* \"#utility.yul\":2531:2537   */\n      dup3\n        /* \"#utility.yul\":2524:2528   */\n      0x20\n        /* \"#utility.yul\":2516:2522   */\n      dup7\n        /* \"#utility.yul\":2512:2529   */\n      add\n        /* \"#utility.yul\":2464:2543   */\n      tag_142\n      jump\t// in\n    tag_230:\n        /* \"#utility.yul\":2455:2543   */\n      swap2\n      pop\n        /* \"#utility.yul\":2271:2549   */\n      pop\n        /* \"#utility.yul\":2209:2549   */\n      swap3\n      swap2\n      pop\n      pop\n      jump\t// out\n        /* \"#utility.yul\":2555:2876   */\n    tag_144:\n        /* \"#utility.yul\":2642:2646   */\n      0x00\n        /* \"#utility.yul\":2732:2750   */\n      0xffffffffffffffff\n        /* \"#utility.yul\":2724:2730   */\n      dup3\n        /* \"#utility.yul\":2721:2751   */\n      gt\n        /* \"#utility.yul\":2718:2774   */\n      iszero\n      tag_232\n      jumpi\n        /* \"#utility.yul\":2754:2772   */\n      tag_233\n      tag_55\n      jump\t// in\n    tag_233:\n        /* \"#utility.yul\":2718:2774   */\n    tag_232:\n        /* \"#utility.yul\":2804:2808   */\n      0x20\n        /* \"#utility.yul\":2796:2802   */\n      dup3\n        /* \"#utility.yul\":2792:2809   */\n      mul\n        /* \"#utility.yul\":2784:2809   */\n      swap1\n      pop\n        /* \"#utility.yul\":2864:2868   */\n      0x20\n        /* \"#utility.yul\":2858:2862   */\n      dup2\n        /* \"#utility.yul\":2854:2869   */\n      add\n        /* \"#utility.yul\":2846:2869   */\n      swap1\n      pop\n        /* \"#utility.yul\":2555:2876   */\n      swap2\n      swap1\n      pop\n      jump\t// out\n        /* \"#utility.yul\":2882:2999   */\n    tag_145:\n        /* \"#utility.yul\":2991:2992   */\n      0x00\n        /* \"#utility.yul\":2988:2989   */\n      dup1\n        /* \"#utility.yul\":2981:2993   */\n      revert\n        /* \"#utility.yul\":3021:3966   */\n    tag_146:\n        /* \"#utility.yul\":3127:3132   */\n      0x00\n        /* \"#utility.yul\":3152:3243   */\n      tag_236\n        /* \"#utility.yul\":3168:3242   */\n      tag_237\n        /* \"#utility.yul\":3235:3241   */\n      dup5\n        /* \"#utility.yul\":3168:3242   */\n      tag_144\n      jump\t// in\n    tag_237:\n        /* \"#utility.yul\":3152:3243   */\n      tag_139\n      jump\t// in\n    tag_236:\n        /* \"#utility.yul\":3143:3243   */\n      swap1\n      pop\n        /* \"#utility.yul\":3263:3268   */\n      dup1\n        /* \"#utility.yul\":3292:3298   */\n      dup4\n        /* \"#utility.yul\":3285:3290   */\n      dup3\n        /* \"#utility.yul\":3278:3299   */\n      mstore\n        /* \"#utility.yul\":3326:3330   */\n      0x20\n        /* \"#utility.yul\":3319:3324   */\n      dup3\n        /* \"#utility.yul\":3315:3331   */\n      add\n        /* \"#utility.yul\":3308:3331   */\n      swap1\n      pop\n        /* \"#utility.yul\":3379:3383   */\n      0x20\n        /* \"#utility.yul\":3371:3377   */\n      dup5\n        /* \"#utility.yul\":3367:3384   */\n      mul\n        /* \"#utility.yul\":3359:3365   */\n      dup4\n        /* \"#utility.yul\":3355:3385   */\n      add\n        /* \"#utility.yul\":3408:3411   */\n      dup6\n        /* \"#utility.yul\":3400:3406   */\n      dup2\n        /* \"#utility.yul\":3397:3412   */\n      gt\n        /* \"#utility.yul\":3394:3516   */\n      iszero\n      tag_238\n      jumpi\n        /* \"#utility.yul\":3427:3506   */\n      tag_239\n      tag_145\n      jump\t// in\n    tag_239:\n        /* \"#utility.yul\":3394:3516   */\n    tag_238:\n        /* \"#utility.yul\":3542:3548   */\n      dup4\n        /* \"#utility.yul\":3525:3960   */\n    tag_240:\n        /* \"#utility.yul\":3559:3565   */\n      dup2\n        /* \"#utility.yul\":3554:3557   */\n      dup2\n        /* \"#utility.yul\":3551:3566   */\n      lt\n        /* \"#utility.yul\":3525:3960   */\n      iszero\n      tag_242\n      jumpi\n        /* \"#utility.yul\":3648:3651   */\n      dup1\n        /* \"#utility.yul\":3635:3652   */\n      calldataload\n        /* \"#utility.yul\":3684:3702   */\n      0xffffffffffffffff\n        /* \"#utility.yul\":3671:3682   */\n      dup2\n        /* \"#utility.yul\":3668:3703   */\n      gt\n        /* \"#utility.yul\":3665:3787   */\n      iszero\n      tag_243\n      jumpi\n        /* \"#utility.yul\":3706:3785   */\n      tag_244\n      tag_135\n      jump\t// in\n    tag_244:\n        /* \"#utility.yul\":3665:3787   */\n    tag_243:\n        /* \"#utility.yul\":3830:3841   */\n      dup1\n        /* \"#utility.yul\":3822:3828   */\n      dup7\n        /* \"#utility.yul\":3818:3842   */\n      add\n        /* \"#utility.yul\":3868:3915   */\n      tag_245\n        /* \"#utility.yul\":3911:3914   */\n      dup10\n        /* \"#utility.yul\":3899:3909   */\n      dup3\n        /* \"#utility.yul\":3868:3915   */\n      tag_143\n      jump\t// in\n    tag_245:\n        /* \"#utility.yul\":3863:3866   */\n      dup6\n        /* \"#utility.yul\":3856:3916   */\n      mstore\n        /* \"#utility.yul\":3945:3949   */\n      0x20\n        /* \"#utility.yul\":3940:3943   */\n      dup6\n        /* \"#utility.yul\":3936:3950   */\n      add\n        /* \"#utility.yul\":3929:3950   */\n      swap5\n      pop\n        /* \"#utility.yul\":3601:3960   */\n      pop\n      pop\n        /* \"#utility.yul\":3585:3589   */\n      0x20\n        /* \"#utility.yul\":3580:3583   */\n      dup2\n        /* \"#utility.yul\":3576:3590   */\n      add\n        /* \"#utility.yul\":3569:3590   */\n      swap1\n      pop\n        /* \"#utility.yul\":3525:3960   */\n      jump(tag_240)\n    tag_242:\n        /* \"#utility.yul\":3529:3550   */\n      pop\n        /* \"#utility.yul\":3133:3966   */\n      pop\n      pop\n        /* \"#utility.yul\":3021:3966   */\n      swap4\n      swap3\n      pop\n      pop\n      pop\n      jump\t// out\n        /* \"#utility.yul\":3988:4378   */\n    tag_147:\n        /* \"#utility.yul\":4069:4074   */\n      0x00\n        /* \"#utility.yul\":4118:4121   */\n      dup3\n        /* \"#utility.yul\":4111:4115   */\n      0x1f\n        /* \"#utility.yul\":4103:4109   */\n      dup4\n        /* \"#utility.yul\":4099:4116   */\n      add\n        /* \"#utility.yul\":4095:4122   */\n      slt\n        /* \"#utility.yul\":4085:4207   */\n      tag_247\n      jumpi\n        /* \"#utility.yul\":4126:4205   */\n      tag_248\n      tag_135\n      jump\t// in\n    tag_248:\n        /* \"#utility.yul\":4085:4207   */\n    tag_247:\n        /* \"#utility.yul\":4243:4249   */\n      dup2\n        /* \"#utility.yul\":4230:4250   */\n      calldataload\n        /* \"#utility.yul\":4268:4372   */\n      tag_249\n        /* \"#utility.yul\":4368:4371   */\n      dup5\n        /* \"#utility.yul\":4360:4366   */\n      dup3\n        /* \"#utility.yul\":4353:4357   */\n      0x20\n        /* \"#utility.yul\":4345:4351   */\n      dup7\n        /* \"#utility.yul\":4341:4358   */\n      add\n        /* \"#utility.yul\":4268:4372   */\n      tag_146\n      jump\t// in\n    tag_249:\n        /* \"#utility.yul\":4259:4372   */\n      swap2\n      pop\n        /* \"#utility.yul\":4075:4378   */\n      pop\n        /* \"#utility.yul\":3988:4378   */\n      swap3\n      swap2\n      pop\n      pop\n      jump\t// out\n        /* \"#utility.yul\":4384:5268   */\n    tag_10:\n        /* \"#utility.yul\":4497:4503   */\n      0x00\n        /* \"#utility.yul\":4505:4511   */\n      dup1\n        /* \"#utility.yul\":4554:4556   */\n      0x40\n        /* \"#utility.yul\":4542:4551   */\n      dup4\n        /* \"#utility.yul\":4533:4540   */\n      dup6\n        /* \"#utility.yul\":4529:4552   */\n      sub\n        /* \"#utility.yul\":4525:4557   */\n      slt\n        /* \"#utility.yul\":4522:4641   */\n      iszero\n      tag_251\n      jumpi\n        /* \"#utility.yul\":4560:4639   */\n      tag_252\n      tag_133\n      jump\t// in\n    tag_252:\n        /* \"#utility.yul\":4522:4641   */\n    tag_251:\n        /* \"#utility.yul\":4708:4709   */\n      0x00\n        /* \"#utility.yul\":4697:4706   */\n      dup4\n        /* \"#utility.yul\":4693:4710   */\n      add\n        /* \"#utility.yul\":4680:4711   */\n      calldataload\n        /* \"#utility.yul\":4738:4756   */\n      0xffffffffffffffff\n        /* \"#utility.yul\":4730:4736   */\n      dup2\n        /* \"#utility.yul\":4727:4757   */\n      gt\n        /* \"#utility.yul\":4724:4841   */\n      iszero\n      tag_253\n      jumpi\n        /* \"#utility.yul\":4760:4839   */\n      tag_254\n      tag_134\n      jump\t// in\n    tag_254:\n        /* \"#utility.yul\":4724:4841   */\n    tag_253:\n        /* \"#utility.yul\":4865:4928   */\n      tag_255\n        /* \"#utility.yul\":4920:4927   */\n      dup6\n        /* \"#utility.yul\":4911:4917   */\n      dup3\n        /* \"#utility.yul\":4900:4909   */\n      dup7\n        /* \"#utility.yul\":4896:4918   */\n      add\n        /* \"#utility.yul\":4865:4928   */\n      tag_143\n      jump\t// in\n    tag_255:\n        /* \"#utility.yul\":4855:4928   */\n      swap3\n      pop\n        /* \"#utility.yul\":4651:4938   */\n      pop\n        /* \"#utility.yul\":5005:5007   */\n      0x20\n        /* \"#utility.yul\":4994:5003   */\n      dup4\n        /* \"#utility.yul\":4990:5008   */\n      add\n        /* \"#utility.yul\":4977:5009   */\n      calldataload\n        /* \"#utility.yul\":5036:5054   */\n      0xffffffffffffffff\n        /* \"#utility.yul\":5028:5034   */\n      dup2\n        /* \"#utility.yul\":5025:5055   */\n      gt\n        /* \"#utility.yul\":5022:5139   */\n      iszero\n      tag_256\n      jumpi\n        /* \"#utility.yul\":5058:5137   */\n      tag_257\n      tag_134\n      jump\t// in\n    tag_257:\n        /* \"#utility.yul\":5022:5139   */\n    tag_256:\n        /* \"#utility.yul\":5163:5251   */\n      tag_258\n        /* \"#utility.yul\":5243:5250   */\n      dup6\n        /* \"#utility.yul\":5234:5240   */\n      dup3\n        /* \"#utility.yul\":5223:5232   */\n      dup7\n        /* \"#utility.yul\":5219:5241   */\n      add\n        /* \"#utility.yul\":5163:5251   */\n      tag_147\n      jump\t// in\n    tag_258:\n        /* \"#utility.yul\":5153:5251   */\n      swap2\n      pop\n        /* \"#utility.yul\":4948:5261   */\n      pop\n        /* \"#utility.yul\":4384:5268   */\n      swap3\n      pop\n      swap3\n      swap1\n      pop\n      jump\t// out\n        /* \"#utility.yul\":5274:5351   */\n    tag_148:\n        /* \"#utility.yul\":5311:5318   */\n      0x00\n        /* \"#utility.yul\":5340:5345   */\n      dup2\n        /* \"#utility.yul\":5329:5345   */\n      swap1\n      pop\n        /* \"#utility.yul\":5274:5351   */\n      swap2\n      swap1\n      pop\n      jump\t// out\n        /* \"#utility.yul\":5357:5479   */\n    tag_149:\n        /* \"#utility.yul\":5430:5454   */\n      tag_261\n        /* \"#utility.yul\":5448:5453   */\n      dup2\n        /* \"#utility.yul\":5430:5454   */\n      tag_148\n      jump\t// in\n    tag_261:\n        /* \"#utility.yul\":5423:5428   */\n      dup2\n        /* \"#utility.yul\":5420:5455   */\n      eq\n        /* \"#utility.yul\":5410:5473   */\n      tag_262\n      jumpi\n        /* \"#utility.yul\":5469:5470   */\n      0x00\n        /* \"#utility.yul\":5466:5467   */\n      dup1\n        /* \"#utility.yul\":5459:5471   */\n      revert\n        /* \"#utility.yul\":5410:5473   */\n    tag_262:\n        /* \"#utility.yul\":5357:5479   */\n      pop\n      jump\t// out\n        /* \"#utility.yul\":5485:5624   */\n    tag_150:\n        /* \"#utility.yul\":5531:5536   */\n      0x00\n        /* \"#utility.yul\":5569:5575   */\n      dup2\n        /* \"#utility.yul\":5556:5576   */\n      calldataload\n        /* \"#utility.yul\":5547:5576   */\n      swap1\n      pop\n        /* \"#utility.yul\":5585:5618   */\n      tag_264\n        /* \"#utility.yul\":5612:5617   */\n      dup2\n        /* \"#utility.yul\":5585:5618   */\n      tag_149\n      jump\t// in\n    tag_264:\n        /* \"#utility.yul\":5485:5624   */\n      swap3\n      swap2\n      pop\n      pop\n      jump\t// out\n        /* \"#utility.yul\":5630:5959   */\n    tag_14:\n        /* \"#utility.yul\":5689:5695   */\n      0x00\n        /* \"#utility.yul\":5738:5740   */\n      0x20\n        /* \"#utility.yul\":5726:5735   */\n      dup3\n        /* \"#utility.yul\":5717:5724   */\n      dup5\n        /* \"#utility.yul\":5713:5736   */\n      sub\n        /* \"#utility.yul\":5709:5741   */\n      slt\n        /* \"#utility.yul\":5706:5825   */\n      iszero\n      tag_266\n      jumpi\n        /* \"#utility.yul\":5744:5823   */\n      tag_267\n      tag_133\n      jump\t// in\n    tag_267:\n        /* \"#utility.yul\":5706:5825   */\n    tag_266:\n        /* \"#utility.yul\":5864:5865   */\n      0x00\n        /* \"#utility.yul\":5889:5942   */\n      tag_268\n        /* \"#utility.yul\":5934:5941   */\n      dup5\n        /* \"#utility.yul\":5925:5931   */\n      dup3\n        /* \"#utility.yul\":5914:5923   */\n      dup6\n        /* \"#utility.yul\":5910:5932   */\n      add\n        /* \"#utility.yul\":5889:5942   */\n      tag_150\n      jump\t// in\n    tag_268:\n        /* \"#utility.yul\":5879:5942   */\n      swap2\n      pop\n        /* \"#utility.yul\":5835:5952   */\n      pop\n        /* \"#utility.yul\":5630:5959   */\n      swap3\n      swap2\n      pop\n      pop\n      jump\t// out\n        /* \"#utility.yul\":5965:6079   */\n    tag_151:\n        /* \"#utility.yul\":6032:6038   */\n      0x00\n        /* \"#utility.yul\":6066:6071   */\n      dup2\n        /* \"#utility.yul\":6060:6072   */\n      mload\n        /* \"#utility.yul\":6050:6072   */\n      swap1\n      pop\n        /* \"#utility.yul\":5965:6079   */\n      swap2\n      swap1\n      pop\n      jump\t// out\n        /* \"#utility.yul\":6085:6269   */\n    tag_152:\n        /* \"#utility.yul\":6184:6195   */\n      0x00\n        /* \"#utility.yul\":6218:6224   */\n      dup3\n        /* \"#utility.yul\":6213:6216   */\n      dup3\n        /* \"#utility.yul\":6206:6225   */\n      mstore\n        /* \"#utility.yul\":6258:6262   */\n      0x20\n        /* \"#utility.yul\":6253:6256   */\n      dup3\n        /* \"#utility.yul\":6249:6263   */\n      add\n        /* \"#utility.yul\":6234:6263   */\n      swap1\n      pop\n        /* \"#utility.yul\":6085:6269   */\n      swap3\n      swap2\n      pop\n      pop\n      jump\t// out\n        /* \"#utility.yul\":6275:6407   */\n    tag_153:\n        /* \"#utility.yul\":6342:6346   */\n      0x00\n        /* \"#utility.yul\":6365:6368   */\n      dup2\n        /* \"#utility.yul\":6357:6368   */\n      swap1\n      pop\n        /* \"#utility.yul\":6395:6399   */\n      0x20\n        /* \"#utility.yul\":6390:6393   */\n      dup3\n        /* \"#utility.yul\":6386:6400   */\n      add\n        /* \"#utility.yul\":6378:6400   */\n      swap1\n      pop\n        /* \"#utility.yul\":6275:6407   */\n      swap2\n      swap1\n      pop\n      jump\t// out\n        /* \"#utility.yul\":6413:6521   */\n    tag_154:\n        /* \"#utility.yul\":6490:6514   */\n      tag_273\n        /* \"#utility.yul\":6508:6513   */\n      dup2\n        /* \"#utility.yul\":6490:6514   */\n      tag_148\n      jump\t// in\n    tag_273:\n        /* \"#utility.yul\":6485:6488   */\n      dup3\n        /* \"#utility.yul\":6478:6515   */\n      mstore\n        /* \"#utility.yul\":6413:6521   */\n      pop\n      pop\n      jump\t// out\n        /* \"#utility.yul\":6527:6706   */\n    tag_155:\n        /* \"#utility.yul\":6596:6606   */\n      0x00\n        /* \"#utility.yul\":6617:6663   */\n      tag_275\n        /* \"#utility.yul\":6659:6662   */\n      dup4\n        /* \"#utility.yul\":6651:6657   */\n      dup4\n        /* \"#utility.yul\":6617:6663   */\n      tag_154\n      jump\t// in\n    tag_275:\n        /* \"#utility.yul\":6695:6699   */\n      0x20\n        /* \"#utility.yul\":6690:6693   */\n      dup4\n        /* \"#utility.yul\":6686:6700   */\n      add\n        /* \"#utility.yul\":6672:6700   */\n      swap1\n      pop\n        /* \"#utility.yul\":6527:6706   */\n      swap3\n      swap2\n      pop\n      pop\n      jump\t// out\n        /* \"#utility.yul\":6712:6825   */\n    tag_156:\n        /* \"#utility.yul\":6782:6786   */\n      0x00\n        /* \"#utility.yul\":6814:6818   */\n      0x20\n        /* \"#utility.yul\":6809:6812   */\n      dup3\n        /* \"#utility.yul\":6805:6819   */\n      add\n        /* \"#utility.yul\":6797:6819   */\n      swap1\n      pop\n        /* \"#utility.yul\":6712:6825   */\n      swap2\n      swap1\n      pop\n      jump\t// out\n        /* \"#utility.yul\":6861:7593   */\n    tag_157:\n        /* \"#utility.yul\":6980:6983   */\n      0x00\n        /* \"#utility.yul\":7009:7063   */\n      tag_278\n        /* \"#utility.yul\":7057:7062   */\n      dup3\n        /* \"#utility.yul\":7009:7063   */\n      tag_151\n      jump\t// in\n    tag_278:\n        /* \"#utility.yul\":7079:7165   */\n      tag_279\n        /* \"#utility.yul\":7158:7164   */\n      dup2\n        /* \"#utility.yul\":7153:7156   */\n      dup6\n        /* \"#utility.yul\":7079:7165   */\n      tag_152\n      jump\t// in\n    tag_279:\n        /* \"#utility.yul\":7072:7165   */\n      swap4\n      pop\n        /* \"#utility.yul\":7189:7245   */\n      tag_280\n        /* \"#utility.yul\":7239:7244   */\n      dup4\n        /* \"#utility.yul\":7189:7245   */\n      tag_153\n      jump\t// in\n    tag_280:\n        /* \"#utility.yul\":7268:7275   */\n      dup1\n        /* \"#utility.yul\":7299:7300   */\n      0x00\n        /* \"#utility.yul\":7284:7568   */\n    tag_281:\n        /* \"#utility.yul\":7309:7315   */\n      dup4\n        /* \"#utility.yul\":7306:7307   */\n      dup2\n        /* \"#utility.yul\":7303:7316   */\n      lt\n        /* \"#utility.yul\":7284:7568   */\n      iszero\n      tag_283\n      jumpi\n        /* \"#utility.yul\":7385:7391   */\n      dup2\n        /* \"#utility.yul\":7379:7392   */\n      mload\n        /* \"#utility.yul\":7412:7475   */\n      tag_284\n        /* \"#utility.yul\":7471:7474   */\n      dup9\n        /* \"#utility.yul\":7456:7469   */\n      dup3\n        /* \"#utility.yul\":7412:7475   */\n      tag_155\n      jump\t// in\n    tag_284:\n        /* \"#utility.yul\":7405:7475   */\n      swap8\n      pop\n        /* \"#utility.yul\":7498:7558   */\n      tag_285\n        /* \"#utility.yul\":7551:7557   */\n      dup4\n        /* \"#utility.yul\":7498:7558   */\n      tag_156\n      jump\t// in\n    tag_285:\n        /* \"#utility.yul\":7488:7558   */\n      swap3\n      pop\n        /* \"#utility.yul\":7344:7568   */\n      pop\n        /* \"#utility.yul\":7331:7332   */\n      0x01\n        /* \"#utility.yul\":7328:7329   */\n      dup2\n        /* \"#utility.yul\":7324:7333   */\n      add\n        /* \"#utility.yul\":7319:7333   */\n      swap1\n      pop\n        /* \"#utility.yul\":7284:7568   */\n      jump(tag_281)\n    tag_283:\n        /* \"#utility.yul\":7288:7302   */\n      pop\n        /* \"#utility.yul\":7584:7587   */\n      dup6\n        /* \"#utility.yul\":7577:7587   */\n      swap4\n      pop\n        /* \"#utility.yul\":6985:7593   */\n      pop\n      pop\n      pop\n        /* \"#utility.yul\":6861:7593   */\n      swap3\n      swap2\n      pop\n      pop\n      jump\t// out\n        /* \"#utility.yul\":7599:7972   */\n    tag_17:\n        /* \"#utility.yul\":7742:7746   */\n      0x00\n        /* \"#utility.yul\":7780:7782   */\n      0x20\n        /* \"#utility.yul\":7769:7778   */\n      dup3\n        /* \"#utility.yul\":7765:7783   */\n      add\n        /* \"#utility.yul\":7757:7783   */\n      swap1\n      pop\n        /* \"#utility.yul\":7829:7838   */\n      dup2\n        /* \"#utility.yul\":7823:7827   */\n      dup2\n        /* \"#utility.yul\":7819:7839   */\n      sub\n        /* \"#utility.yul\":7815:7816   */\n      0x00\n        /* \"#utility.yul\":7804:7813   */\n      dup4\n        /* \"#utility.yul\":7800:7817   */\n      add\n        /* \"#utility.yul\":7793:7840   */\n      mstore\n        /* \"#utility.yul\":7857:7965   */\n      tag_287\n        /* \"#utility.yul\":7960:7964   */\n      dup2\n        /* \"#utility.yul\":7951:7957   */\n      dup5\n        /* \"#utility.yul\":7857:7965   */\n      tag_157\n      jump\t// in\n    tag_287:\n        /* \"#utility.yul\":7849:7965   */\n      swap1\n      pop\n        /* \"#utility.yul\":7599:7972   */\n      swap3\n      swap2\n      pop\n      pop\n      jump\t// out\n        /* \"#utility.yul\":7978:8096   */\n    tag_158:\n        /* \"#utility.yul\":8065:8089   */\n      tag_289\n        /* \"#utility.yul\":8083:8088   */\n      dup2\n        /* \"#utility.yul\":8065:8089   */\n      tag_148\n      jump\t// in\n    tag_289:\n        /* \"#utility.yul\":8060:8063   */\n      dup3\n        /* \"#utility.yul\":8053:8090   */\n      mstore\n        /* \"#utility.yul\":7978:8096   */\n      pop\n      pop\n      jump\t// out\n        /* \"#utility.yul\":8102:8201   */\n    tag_159:\n        /* \"#utility.yul\":8154:8160   */\n      0x00\n        /* \"#utility.yul\":8188:8193   */\n      dup2\n        /* \"#utility.yul\":8182:8194   */\n      mload\n        /* \"#utility.yul\":8172:8194   */\n      swap1\n      pop\n        /* \"#utility.yul\":8102:8201   */\n      swap2\n      swap1\n      pop\n      jump\t// out\n        /* \"#utility.yul\":8207:8376   */\n    tag_160:\n        /* \"#utility.yul\":8291:8302   */\n      0x00\n        /* \"#utility.yul\":8325:8331   */\n      dup3\n        /* \"#utility.yul\":8320:8323   */\n      dup3\n        /* \"#utility.yul\":8313:8332   */\n      mstore\n        /* \"#utility.yul\":8365:8369   */\n      0x20\n        /* \"#utility.yul\":8360:8363   */\n      dup3\n        /* \"#utility.yul\":8356:8370   */\n      add\n        /* \"#utility.yul\":8341:8370   */\n      swap1\n      pop\n        /* \"#utility.yul\":8207:8376   */\n      swap3\n      swap2\n      pop\n      pop\n      jump\t// out\n        /* \"#utility.yul\":8382:8521   */\n    tag_161:\n        /* \"#utility.yul\":8471:8477   */\n      dup3\n        /* \"#utility.yul\":8466:8469   */\n      dup2\n        /* \"#utility.yul\":8461:8464   */\n      dup4\n        /* \"#utility.yul\":8455:8478   */\n      mcopy\n        /* \"#utility.yul\":8512:8513   */\n      0x00\n        /* \"#utility.yul\":8503:8509   */\n      dup4\n        /* \"#utility.yul\":8498:8501   */\n      dup4\n        /* \"#utility.yul\":8494:8510   */\n      add\n        /* \"#utility.yul\":8487:8514   */\n      mstore\n        /* \"#utility.yul\":8382:8521   */\n      pop\n      pop\n      pop\n      jump\t// out\n        /* \"#utility.yul\":8527:8904   */\n    tag_162:\n        /* \"#utility.yul\":8615:8618   */\n      0x00\n        /* \"#utility.yul\":8643:8682   */\n      tag_294\n        /* \"#utility.yul\":8676:8681   */\n      dup3\n        /* \"#utility.yul\":8643:8682   */\n      tag_159\n      jump\t// in\n    tag_294:\n        /* \"#utility.yul\":8698:8769   */\n      tag_295\n        /* \"#utility.yul\":8762:8768   */\n      dup2\n        /* \"#utility.yul\":8757:8760   */\n      dup6\n        /* \"#utility.yul\":8698:8769   */\n      tag_160\n      jump\t// in\n    tag_295:\n        /* \"#utility.yul\":8691:8769   */\n      swap4\n      pop\n        /* \"#utility.yul\":8778:8843   */\n      tag_296\n        /* \"#utility.yul\":8836:8842   */\n      dup2\n        /* \"#utility.yul\":8831:8834   */\n      dup6\n        /* \"#utility.yul\":8824:8828   */\n      0x20\n        /* \"#utility.yul\":8817:8822   */\n      dup7\n        /* \"#utility.yul\":8813:8829   */\n      add\n        /* \"#utility.yul\":8778:8843   */\n      tag_161\n      jump\t// in\n    tag_296:\n        /* \"#utility.yul\":8868:8897   */\n      tag_297\n        /* \"#utility.yul\":8890:8896   */\n      dup2\n        /* \"#utility.yul\":8868:8897   */\n      tag_137\n      jump\t// in\n    tag_297:\n        /* \"#utility.yul\":8863:8866   */\n      dup5\n        /* \"#utility.yul\":8859:8898   */\n      add\n        /* \"#utility.yul\":8852:8898   */\n      swap2\n      pop\n        /* \"#utility.yul\":8619:8904   */\n      pop\n        /* \"#utility.yul\":8527:8904   */\n      swap3\n      swap2\n      pop\n      pop\n      jump\t// out\n        /* \"#utility.yul\":8910:9000   */\n    tag_163:\n        /* \"#utility.yul\":8944:8951   */\n      0x00\n        /* \"#utility.yul\":8987:8992   */\n      dup2\n        /* \"#utility.yul\":8980:8993   */\n      iszero\n        /* \"#utility.yul\":8973:8994   */\n      iszero\n        /* \"#utility.yul\":8962:8994   */\n      swap1\n      pop\n        /* \"#utility.yul\":8910:9000   */\n      swap2\n      swap1\n      pop\n      jump\t// out\n        /* \"#utility.yul\":9006:9115   */\n    tag_164:\n        /* \"#utility.yul\":9087:9108   */\n      tag_300\n        /* \"#utility.yul\":9102:9107   */\n      dup2\n        /* \"#utility.yul\":9087:9108   */\n      tag_163\n      jump\t// in\n    tag_300:\n        /* \"#utility.yul\":9082:9085   */\n      dup3\n        /* \"#utility.yul\":9075:9109   */\n      mstore\n        /* \"#utility.yul\":9006:9115   */\n      pop\n      pop\n      jump\t// out\n        /* \"#utility.yul\":9121:9642   */\n    tag_22:\n        /* \"#utility.yul\":9284:9288   */\n      0x00\n        /* \"#utility.yul\":9322:9324   */\n      0x60\n        /* \"#utility.yul\":9311:9320   */\n      dup3\n        /* \"#utility.yul\":9307:9325   */\n      add\n        /* \"#utility.yul\":9299:9325   */\n      swap1\n      pop\n        /* \"#utility.yul\":9335:9406   */\n      tag_302\n        /* \"#utility.yul\":9403:9404   */\n      0x00\n        /* \"#utility.yul\":9392:9401   */\n      dup4\n        /* \"#utility.yul\":9388:9405   */\n      add\n        /* \"#utility.yul\":9379:9385   */\n      dup7\n        /* \"#utility.yul\":9335:9406   */\n      tag_158\n      jump\t// in\n    tag_302:\n        /* \"#utility.yul\":9453:9462   */\n      dup2\n        /* \"#utility.yul\":9447:9451   */\n      dup2\n        /* \"#utility.yul\":9443:9463   */\n      sub\n        /* \"#utility.yul\":9438:9440   */\n      0x20\n        /* \"#utility.yul\":9427:9436   */\n      dup4\n        /* \"#utility.yul\":9423:9441   */\n      add\n        /* \"#utility.yul\":9416:9464   */\n      mstore\n        /* \"#utility.yul\":9481:9559   */\n      tag_303\n        /* \"#utility.yul\":9554:9558   */\n      dup2\n        /* \"#utility.yul\":9545:9551   */\n      dup6\n        /* \"#utility.yul\":9481:9559   */\n      tag_162\n      jump\t// in\n    tag_303:\n        /* \"#utility.yul\":9473:9559   */\n      swap1\n      pop\n        /* \"#utility.yul\":9569:9635   */\n      tag_304\n        /* \"#utility.yul\":9631:9633   */\n      0x40\n        /* \"#utility.yul\":9620:9629   */\n      dup4\n        /* \"#utility.yul\":9616:9634   */\n      add\n        /* \"#utility.yul\":9607:9613   */\n      dup5\n        /* \"#utility.yul\":9569:9635   */\n      tag_164\n      jump\t// in\n    tag_304:\n        /* \"#utility.yul\":9121:9642   */\n      swap5\n      swap4\n      pop\n      pop\n      pop\n      pop\n      jump\t// out\n        /* \"#utility.yul\":9648:10122   */\n    tag_25:\n        /* \"#utility.yul\":9716:9722   */\n      0x00\n        /* \"#utility.yul\":9724:9730   */\n      dup1\n        /* \"#utility.yul\":9773:9775   */\n      0x40\n        /* \"#utility.yul\":9761:9770   */\n      dup4\n        /* \"#utility.yul\":9752:9759   */\n      dup6\n        /* \"#utility.yul\":9748:9771   */\n      sub\n        /* \"#utility.yul\":9744:9776   */\n      slt\n        /* \"#utility.yul\":9741:9860   */\n      iszero\n      tag_306\n      jumpi\n        /* \"#utility.yul\":9779:9858   */\n      tag_307\n      tag_133\n      jump\t// in\n    tag_307:\n        /* \"#utility.yul\":9741:9860   */\n    tag_306:\n        /* \"#utility.yul\":9899:9900   */\n      0x00\n        /* \"#utility.yul\":9924:9977   */\n      tag_308\n        /* \"#utility.yul\":9969:9976   */\n      dup6\n        /* \"#utility.yul\":9960:9966   */\n      dup3\n        /* \"#utility.yul\":9949:9958   */\n      dup7\n        /* \"#utility.yul\":9945:9967   */\n      add\n        /* \"#utility.yul\":9924:9977   */\n      tag_150\n      jump\t// in\n    tag_308:\n        /* \"#utility.yul\":9914:9977   */\n      swap3\n      pop\n        /* \"#utility.yul\":9870:9987   */\n      pop\n        /* \"#utility.yul\":10026:10028   */\n      0x20\n        /* \"#utility.yul\":10052:10105   */\n      tag_309\n        /* \"#utility.yul\":10097:10104   */\n      dup6\n        /* \"#utility.yul\":10088:10094   */\n      dup3\n        /* \"#utility.yul\":10077:10086   */\n      dup7\n        /* \"#utility.yul\":10073:10095   */\n      add\n        /* \"#utility.yul\":10052:10105   */\n      tag_150\n      jump\t// in\n    tag_309:\n        /* \"#utility.yul\":10042:10105   */\n      swap2\n      pop\n        /* \"#utility.yul\":9997:10115   */\n      pop\n        /* \"#utility.yul\":9648:10122   */\n      swap3\n      pop\n      swap3\n      swap1\n      pop\n      jump\t// out\n        /* \"#utility.yul\":10128:10254   */\n    tag_165:\n        /* \"#utility.yul\":10165:10172   */\n      0x00\n        /* \"#utility.yul\":10205:10247   */\n      0xffffffffffffffffffffffffffffffffffffffff\n        /* \"#utility.yul\":10198:10203   */\n      dup3\n        /* \"#utility.yul\":10194:10248   */\n      and\n        /* \"#utility.yul\":10183:10248   */\n      swap1\n      pop\n        /* \"#utility.yul\":10128:10254   */\n      swap2\n      swap1\n      pop\n      jump\t// out\n        /* \"#utility.yul\":10260:10364   */\n    tag_166:\n        /* \"#utility.yul\":10305:10312   */\n      0x00\n        /* \"#utility.yul\":10334:10358   */\n      tag_312\n        /* \"#utility.yul\":10352:10357   */\n      dup3\n        /* \"#utility.yul\":10334:10358   */\n      tag_165\n      jump\t// in\n    tag_312:\n        /* \"#utility.yul\":10323:10358   */\n      swap1\n      pop\n        /* \"#utility.yul\":10260:10364   */\n      swap2\n      swap1\n      pop\n      jump\t// out\n        /* \"#utility.yul\":10370:10512   */\n    tag_167:\n        /* \"#utility.yul\":10473:10505   */\n      tag_314\n        /* \"#utility.yul\":10499:10504   */\n      dup2\n        /* \"#utility.yul\":10473:10505   */\n      tag_166\n      jump\t// in\n    tag_314:\n        /* \"#utility.yul\":10468:10471   */\n      dup3\n        /* \"#utility.yul\":10461:10506   */\n      mstore\n        /* \"#utility.yul\":10370:10512   */\n      pop\n      pop\n      jump\t// out\n        /* \"#utility.yul\":10518:10772   */\n    tag_30:\n        /* \"#utility.yul\":10627:10631   */\n      0x00\n        /* \"#utility.yul\":10665:10667   */\n      0x20\n        /* \"#utility.yul\":10654:10663   */\n      dup3\n        /* \"#utility.yul\":10650:10668   */\n      add\n        /* \"#utility.yul\":10642:10668   */\n      swap1\n      pop\n        /* \"#utility.yul\":10678:10765   */\n      tag_316\n        /* \"#utility.yul\":10762:10763   */\n      0x00\n        /* \"#utility.yul\":10751:10760   */\n      dup4\n        /* \"#utility.yul\":10747:10764   */\n      add\n        /* \"#utility.yul\":10738:10744   */\n      dup5\n        /* \"#utility.yul\":10678:10765   */\n      tag_167\n      jump\t// in\n    tag_316:\n        /* \"#utility.yul\":10518:10772   */\n      swap3\n      swap2\n      pop\n      pop\n      jump\t// out\n        /* \"#utility.yul\":10778:10955   */\n    tag_168:\n        /* \"#utility.yul\":10918:10947   */\n      0x4f6e6c792061646d696e2063616e2063726561746520706f6c6c730000000000\n        /* \"#utility.yul\":10914:10915   */\n      0x00\n        /* \"#utility.yul\":10906:10912   */\n      dup3\n        /* \"#utility.yul\":10902:10916   */\n      add\n        /* \"#utility.yul\":10895:10948   */\n      mstore\n        /* \"#utility.yul\":10778:10955   */\n      pop\n      jump\t// out\n        /* \"#utility.yul\":10961:11327   */\n    tag_169:\n        /* \"#utility.yul\":11103:11106   */\n      0x00\n        /* \"#utility.yul\":11124:11191   */\n      tag_319\n        /* \"#utility.yul\":11188:11190   */\n      0x1b\n        /* \"#utility.yul\":11183:11186   */\n      dup4\n        /* \"#utility.yul\":11124:11191   */\n      tag_160\n      jump\t// in\n    tag_319:\n        /* \"#utility.yul\":11117:11191   */\n      swap2\n      pop\n        /* \"#utility.yul\":11200:11293   */\n      tag_320\n        /* \"#utility.yul\":11289:11292   */\n      dup3\n        /* \"#utility.yul\":11200:11293   */\n      tag_168\n      jump\t// in\n    tag_320:\n        /* \"#utility.yul\":11318:11320   */\n      0x20\n        /* \"#utility.yul\":11313:11316   */\n      dup3\n        /* \"#utility.yul\":11309:11321   */\n      add\n        /* \"#utility.yul\":11302:11321   */\n      swap1\n      pop\n        /* \"#utility.yul\":10961:11327   */\n      swap2\n      swap1\n      pop\n      jump\t// out\n        /* \"#utility.yul\":11333:11752   */\n    tag_34:\n        /* \"#utility.yul\":11499:11503   */\n      0x00\n        /* \"#utility.yul\":11537:11539   */\n      0x20\n        /* \"#utility.yul\":11526:11535   */\n      dup3\n        /* \"#utility.yul\":11522:11540   */\n      add\n        /* \"#utility.yul\":11514:11540   */\n      swap1\n      pop\n        /* \"#utility.yul\":11586:11595   */\n      dup2\n        /* \"#utility.yul\":11580:11584   */\n      dup2\n        /* \"#utility.yul\":11576:11596   */\n      sub\n        /* \"#utility.yul\":11572:11573   */\n      0x00\n        /* \"#utility.yul\":11561:11570   */\n      dup4\n        /* \"#utility.yul\":11557:11574   */\n      add\n        /* \"#utility.yul\":11550:11597   */\n      mstore\n        /* \"#utility.yul\":11614:11745   */\n      tag_322\n        /* \"#utility.yul\":11740:11744   */\n      dup2\n        /* \"#utility.yul\":11614:11745   */\n      tag_169\n      jump\t// in\n    tag_322:\n        /* \"#utility.yul\":11606:11745   */\n      swap1\n      pop\n        /* \"#utility.yul\":11333:11752   */\n      swap2\n      swap1\n      pop\n      jump\t// out\n        /* \"#utility.yul\":11758:11936   */\n    tag_170:\n        /* \"#utility.yul\":11898:11928   */\n      0x4f6e6c792061646d696e2063616e2063726561746520706f6c6c732e00000000\n        /* \"#utility.yul\":11894:11895   */\n      0x00\n        /* \"#utility.yul\":11886:11892   */\n      dup3\n        /* \"#utility.yul\":11882:11896   */\n      add\n        /* \"#utility.yul\":11875:11929   */\n      mstore\n        /* \"#utility.yul\":11758:11936   */\n      pop\n      jump\t// out\n        /* \"#utility.yul\":11942:12308   */\n    tag_171:\n        /* \"#utility.yul\":12084:12087   */\n      0x00\n        /* \"#utility.yul\":12105:12172   */\n      tag_325\n        /* \"#utility.yul\":12169:12171   */\n      0x1c\n        /* \"#utility.yul\":12164:12167   */\n      dup4\n        /* \"#utility.yul\":12105:12172   */\n      tag_160\n      jump\t// in\n    tag_325:\n        /* \"#utility.yul\":12098:12172   */\n      swap2\n      pop\n        /* \"#utility.yul\":12181:12274   */\n      tag_326\n        /* \"#utility.yul\":12270:12273   */\n      dup3\n        /* \"#utility.yul\":12181:12274   */\n      tag_170\n      jump\t// in\n    tag_326:\n        /* \"#utility.yul\":12299:12301   */\n      0x20\n        /* \"#utility.yul\":12294:12297   */\n      dup3\n        /* \"#utility.yul\":12290:12302   */\n      add\n        /* \"#utility.yul\":12283:12302   */\n      swap1\n      pop\n        /* \"#utility.yul\":11942:12308   */\n      swap2\n      swap1\n      pop\n      jump\t// out\n        /* \"#utility.yul\":12314:12733   */\n    tag_38:\n        /* \"#utility.yul\":12480:12484   */\n      0x00\n        /* \"#utility.yul\":12518:12520   */\n      0x20\n        /* \"#utility.yul\":12507:12516   */\n      dup3\n        /* \"#utility.yul\":12503:12521   */\n      add\n        /* \"#utility.yul\":12495:12521   */\n      swap1\n      pop\n        /* \"#utility.yul\":12567:12576   */\n      dup2\n        /* \"#utility.yul\":12561:12565   */\n      dup2\n        /* \"#utility.yul\":12557:12577   */\n      sub\n        /* \"#utility.yul\":12553:12554   */\n      0x00\n        /* \"#utility.yul\":12542:12551   */\n      dup4\n        /* \"#utility.yul\":12538:12555   */\n      add\n        /* \"#utility.yul\":12531:12578   */\n      mstore\n        /* \"#utility.yul\":12595:12726   */\n      tag_328\n        /* \"#utility.yul\":12721:12725   */\n      dup2\n        /* \"#utility.yul\":12595:12726   */\n      tag_171\n      jump\t// in\n    tag_328:\n        /* \"#utility.yul\":12587:12726   */\n      swap1\n      pop\n        /* \"#utility.yul\":12314:12733   */\n      swap2\n      swap1\n      pop\n      jump\t// out\n        /* \"#utility.yul\":12739:12919   */\n    tag_172:\n        /* \"#utility.yul\":12787:12864   */\n      0x4e487b7100000000000000000000000000000000000000000000000000000000\n        /* \"#utility.yul\":12784:12785   */\n      0x00\n        /* \"#utility.yul\":12777:12865   */\n      mstore\n        /* \"#utility.yul\":12884:12888   */\n      0x11\n        /* \"#utility.yul\":12881:12882   */\n      0x04\n        /* \"#utility.yul\":12874:12889   */\n      mstore\n        /* \"#utility.yul\":12908:12912   */\n      0x24\n        /* \"#utility.yul\":12905:12906   */\n      0x00\n        /* \"#utility.yul\":12898:12913   */\n      revert\n        /* \"#utility.yul\":12925:13119   */\n    tag_41:\n        /* \"#utility.yul\":12965:12969   */\n      0x00\n        /* \"#utility.yul\":12985:13005   */\n      tag_331\n        /* \"#utility.yul\":13003:13004   */\n      dup3\n        /* \"#utility.yul\":12985:13005   */\n      tag_148\n      jump\t// in\n    tag_331:\n        /* \"#utility.yul\":12980:13005   */\n      swap2\n      pop\n        /* \"#utility.yul\":13019:13039   */\n      tag_332\n        /* \"#utility.yul\":13037:13038   */\n      dup4\n        /* \"#utility.yul\":13019:13039   */\n      tag_148\n      jump\t// in\n    tag_332:\n        /* \"#utility.yul\":13014:13039   */\n      swap3\n      pop\n        /* \"#utility.yul\":13063:13064   */\n      dup3\n        /* \"#utility.yul\":13060:13061   */\n      dup3\n        /* \"#utility.yul\":13056:13065   */\n      sub\n        /* \"#utility.yul\":13048:13065   */\n      swap1\n      pop\n        /* \"#utility.yul\":13087:13088   */\n      dup2\n        /* \"#utility.yul\":13081:13085   */\n      dup2\n        /* \"#utility.yul\":13078:13089   */\n      gt\n        /* \"#utility.yul\":13075:13112   */\n      iszero\n      tag_333\n      jumpi\n        /* \"#utility.yul\":13092:13110   */\n      tag_334\n      tag_172\n      jump\t// in\n    tag_334:\n        /* \"#utility.yul\":13075:13112   */\n    tag_333:\n        /* \"#utility.yul\":12925:13119   */\n      swap3\n      swap2\n      pop\n      pop\n      jump\t// out\n        /* \"#utility.yul\":13125:13305   */\n    tag_173:\n        /* \"#utility.yul\":13173:13250   */\n      0x4e487b7100000000000000000000000000000000000000000000000000000000\n        /* \"#utility.yul\":13170:13171   */\n      0x00\n        /* \"#utility.yul\":13163:13251   */\n      mstore\n        /* \"#utility.yul\":13270:13274   */\n      0x22\n        /* \"#utility.yul\":13267:13268   */\n      0x04\n        /* \"#utility.yul\":13260:13275   */\n      mstore\n        /* \"#utility.yul\":13294:13298   */\n      0x24\n        /* \"#utility.yul\":13291:13292   */\n      0x00\n        /* \"#utility.yul\":13284:13299   */\n      revert\n        /* \"#utility.yul\":13311:13631   */\n    tag_71:\n        /* \"#utility.yul\":13355:13361   */\n      0x00\n        /* \"#utility.yul\":13392:13393   */\n      0x02\n        /* \"#utility.yul\":13386:13390   */\n      dup3\n        /* \"#utility.yul\":13382:13394   */\n      div\n        /* \"#utility.yul\":13372:13394   */\n      swap1\n      pop\n        /* \"#utility.yul\":13439:13440   */\n      0x01\n        /* \"#utility.yul\":13433:13437   */\n      dup3\n        /* \"#utility.yul\":13429:13441   */\n      and\n        /* \"#utility.yul\":13460:13478   */\n      dup1\n        /* \"#utility.yul\":13450:13531   */\n      tag_337\n      jumpi\n        /* \"#utility.yul\":13516:13520   */\n      0x7f\n        /* \"#utility.yul\":13508:13514   */\n      dup3\n        /* \"#utility.yul\":13504:13521   */\n      and\n        /* \"#utility.yul\":13494:13521   */\n      swap2\n      pop\n        /* \"#utility.yul\":13450:13531   */\n    tag_337:\n        /* \"#utility.yul\":13578:13580   */\n      0x20\n        /* \"#utility.yul\":13570:13576   */\n      dup3\n        /* \"#utility.yul\":13567:13581   */\n      lt\n        /* \"#utility.yul\":13547:13565   */\n      dup2\n        /* \"#utility.yul\":13544:13582   */\n      sub\n        /* \"#utility.yul\":13541:13625   */\n      tag_338\n      jumpi\n        /* \"#utility.yul\":13597:13615   */\n      tag_339\n      tag_173\n      jump\t// in\n    tag_339:\n        /* \"#utility.yul\":13541:13625   */\n    tag_338:\n        /* \"#utility.yul\":13362:13631   */\n      pop\n        /* \"#utility.yul\":13311:13631   */\n      swap2\n      swap1\n      pop\n      jump\t// out\n        /* \"#utility.yul\":13637:13778   */\n    tag_174:\n        /* \"#utility.yul\":13686:13690   */\n      0x00\n        /* \"#utility.yul\":13709:13712   */\n      dup2\n        /* \"#utility.yul\":13701:13712   */\n      swap1\n      pop\n        /* \"#utility.yul\":13732:13735   */\n      dup2\n        /* \"#utility.yul\":13729:13730   */\n      0x00\n        /* \"#utility.yul\":13722:13736   */\n      mstore\n        /* \"#utility.yul\":13766:13770   */\n      0x20\n        /* \"#utility.yul\":13763:13764   */\n      0x00\n        /* \"#utility.yul\":13753:13771   */\n      keccak256\n        /* \"#utility.yul\":13745:13771   */\n      swap1\n      pop\n        /* \"#utility.yul\":13637:13778   */\n      swap2\n      swap1\n      pop\n      jump\t// out\n        /* \"#utility.yul\":13784:13877   */\n    tag_175:\n        /* \"#utility.yul\":13821:13827   */\n      0x00\n        /* \"#utility.yul\":13868:13870   */\n      0x20\n        /* \"#utility.yul\":13863:13865   */\n      0x1f\n        /* \"#utility.yul\":13856:13861   */\n      dup4\n        /* \"#utility.yul\":13852:13866   */\n      add\n        /* \"#utility.yul\":13848:13871   */\n      div\n        /* \"#utility.yul\":13838:13871   */\n      swap1\n      pop\n        /* \"#utility.yul\":13784:13877   */\n      swap2\n      swap1\n      pop\n      jump\t// out\n        /* \"#utility.yul\":13883:13990   */\n    tag_176:\n        /* \"#utility.yul\":13927:13935   */\n      0x00\n        /* \"#utility.yul\":13977:13982   */\n      dup3\n        /* \"#utility.yul\":13971:13975   */\n      dup3\n        /* \"#utility.yul\":13967:13983   */\n      shl\n        /* \"#utility.yul\":13946:13983   */\n      swap1\n      pop\n        /* \"#utility.yul\":13883:13990   */\n      swap3\n      swap2\n      pop\n      pop\n      jump\t// out\n        /* \"#utility.yul\":13996:14389   */\n    tag_177:\n        /* \"#utility.yul\":14065:14071   */\n      0x00\n        /* \"#utility.yul\":14115:14116   */\n      0x08\n        /* \"#utility.yul\":14103:14113   */\n      dup4\n        /* \"#utility.yul\":14099:14117   */\n      mul\n        /* \"#utility.yul\":14138:14235   */\n      tag_344\n        /* \"#utility.yul\":14168:14234   */\n      0xffffffffffffffffffffffffffffffffffffffffffffffffffffffffffffffff\n        /* \"#utility.yul\":14157:14166   */\n      dup3\n        /* \"#utility.yul\":14138:14235   */\n      tag_176\n      jump\t// in\n    tag_344:\n        /* \"#utility.yul\":14256:14295   */\n      tag_345\n        /* \"#utility.yul\":14286:14294   */\n      dup7\n        /* \"#utility.yul\":14275:14284   */\n      dup4\n        /* \"#utility.yul\":14256:14295   */\n      tag_176\n      jump\t// in\n    tag_345:\n        /* \"#utility.yul\":14244:14295   */\n      swap6\n      pop\n        /* \"#utility.yul\":14328:14332   */\n      dup1\n        /* \"#utility.yul\":14324:14333   */\n      not\n        /* \"#utility.yul\":14317:14322   */\n      dup5\n        /* \"#utility.yul\":14313:14334   */\n      and\n        /* \"#utility.yul\":14304:14334   */\n      swap4\n      pop\n        /* \"#utility.yul\":14377:14381   */\n      dup1\n        /* \"#utility.yul\":14367:14375   */\n      dup7\n        /* \"#utility.yul\":14363:14382   */\n      and\n        /* \"#utility.yul\":14356:14361   */\n      dup5\n        /* \"#utility.yul\":14353:14383   */\n      or\n        /* \"#utility.yul\":14343:14383   */\n      swap3\n      pop\n        /* \"#utility.yul\":14072:14389   */\n      pop\n      pop\n        /* \"#utility.yul\":13996:14389   */\n      swap4\n      swap3\n      pop\n      pop\n      pop\n      jump\t// out\n        /* \"#utility.yul\":14395:14455   */\n    tag_178:\n        /* \"#utility.yul\":14423:14426   */\n      0x00\n        /* \"#utility.yul\":14444:14449   */\n      dup2\n        /* \"#utility.yul\":14437:14449   */\n      swap1\n      pop\n        /* \"#utility.yul\":14395:14455   */\n      swap2\n      swap1\n      pop\n      jump\t// out\n        /* \"#utility.yul\":14461:14603   */\n    tag_179:\n        /* \"#utility.yul\":14511:14520   */\n      0x00\n        /* \"#utility.yul\":14544:14597   */\n      tag_348\n        /* \"#utility.yul\":14562:14596   */\n      tag_349\n        /* \"#utility.yul\":14571:14595   */\n      tag_350\n        /* \"#utility.yul\":14589:14594   */\n      dup5\n        /* \"#utility.yul\":14571:14595   */\n      tag_148\n      jump\t// in\n    tag_350:\n        /* \"#utility.yul\":14562:14596   */\n      tag_178\n      jump\t// in\n    tag_349:\n        /* \"#utility.yul\":14544:14597   */\n      tag_148\n      jump\t// in\n    tag_348:\n        /* \"#utility.yul\":14531:14597   */\n      swap1\n      pop\n        /* \"#utility.yul\":14461:14603   */\n      swap2\n      swap1\n      pop\n      jump\t// out\n        /* \"#utility.yul\":14609:14684   */\n    tag_180:\n        /* \"#utility.yul\":14652:14655   */\n      0x00\n        /* \"#utility.yul\":14673:14678   */\n      dup2\n        /* \"#utility.yul\":14666:14678   */\n      swap1\n      pop\n        /* \"#utility.yul\":14609:14684   */\n      swap2\n      swap1\n      pop\n      jump\t// out\n        /* \"#utility.yul\":14690:14959   */\n    tag_181:\n        /* \"#utility.yul\":14800:14839   */\n      tag_353\n        /* \"#utility.yul\":14831:14838   */\n      dup4\n        /* \"#utility.yul\":14800:14839   */\n      tag_179\n      jump\t// in\n    tag_353:\n        /* \"#utility.yul\":14861:14952   */\n      tag_354\n        /* \"#utility.yul\":14910:14951   */\n      tag_355\n        /* \"#utility.yul\":14934:14950   */\n      dup3\n        /* \"#utility.yul\":14910:14951   */\n      tag_180\n      jump\t// in\n    tag_355:\n        /* \"#utility.yul\":14902:14908   */\n      dup5\n        /* \"#utility.yul\":14895:14899   */\n      dup5\n        /* \"#utility.yul\":14889:14900   */\n      sload\n        /* \"#utility.yul\":14861:14952   */\n      tag_177\n      jump\t// in\n    tag_354:\n        /* \"#utility.yul\":14855:14859   */\n      dup3\n        /* \"#utility.yul\":14848:14953   */\n      sstore\n        /* \"#utility.yul\":14766:14959   */\n      pop\n        /* \"#utility.yul\":14690:14959   */\n      pop\n      pop\n      pop\n      jump\t// out\n        /* \"#utility.yul\":14965:15038   */\n    tag_182:\n        /* \"#utility.yul\":15010:15013   */\n      0x00\n        /* \"#utility.yul\":14965:15038   */\n      swap1\n      jump\t// out\n        /* \"#utility.yul\":15044:15233   */\n    tag_183:\n        /* \"#utility.yul\":15121:15153   */\n      tag_358\n      tag_182\n      jump\t// in\n    tag_358:\n        /* \"#utility.yul\":15162:15227   */\n      tag_359\n        /* \"#utility.yul\":15220:15226   */\n      dup2\n        /* \"#utility.yul\":15212:15218   */\n      dup5\n        /* \"#utility.yul\":15206:15210   */\n      dup5\n        /* \"#utility.yul\":15162:15227   */\n      tag_181\n      jump\t// in\n    tag_359:\n        /* \"#utility.yul\":15097:15233   */\n      pop\n        /* \"#utility.yul\":15044:15233   */\n      pop\n      pop\n      jump\t// out\n        /* \"#utility.yul\":15239:15425   */\n    tag_184:\n        /* \"#utility.yul\":15299:15419   */\n    tag_361:\n        /* \"#utility.yul\":15316:15319   */\n      dup2\n        /* \"#utility.yul\":15309:15314   */\n      dup2\n        /* \"#utility.yul\":15306:15320   */\n      lt\n        /* \"#utility.yul\":15299:15419   */\n      iszero\n      tag_363\n      jumpi\n        /* \"#utility.yul\":15370:15409   */\n      tag_364\n        /* \"#utility.yul\":15407:15408   */\n      0x00\n        /* \"#utility.yul\":15400:15405   */\n      dup3\n        /* \"#utility.yul\":15370:15409   */\n      tag_183\n      jump\t// in\n    tag_364:\n        /* \"#utility.yul\":15343:15344   */\n      0x01\n        /* \"#utility.yul\":15336:15341   */\n      dup2\n        /* \"#utility.yul\":15332:15345   */\n      add\n        /* \"#utility.yul\":15323:15345   */\n      swap1\n      pop\n        /* \"#utility.yul\":15299:15419   */\n      jump(tag_361)\n    tag_363:\n        /* \"#utility.yul\":15239:15425   */\n      pop\n      pop\n      jump\t// out\n        /* \"#utility.yul\":15431:15974   */\n    tag_185:\n        /* \"#utility.yul\":15532:15534   */\n      0x1f\n        /* \"#utility.yul\":15527:15530   */\n      dup3\n        /* \"#utility.yul\":15524:15535   */\n      gt\n        /* \"#utility.yul\":15521:15967   */\n      iszero\n      tag_366\n      jumpi\n        /* \"#utility.yul\":15566:15604   */\n      tag_367\n        /* \"#utility.yul\":15598:15603   */\n      dup2\n        /* \"#utility.yul\":15566:15604   */\n      tag_174\n      jump\t// in\n    tag_367:\n        /* \"#utility.yul\":15650:15679   */\n      tag_368\n        /* \"#utility.yul\":15668:15678   */\n      dup5\n        /* \"#utility.yul\":15650:15679   */\n      tag_175\n      jump\t// in\n    tag_368:\n        /* \"#utility.yul\":15640:15648   */\n      dup2\n        /* \"#utility.yul\":15636:15680   */\n      add\n        /* \"#utility.yul\":15833:15835   */\n      0x20\n        /* \"#utility.yul\":15821:15831   */\n      dup6\n        /* \"#utility.yul\":15818:15836   */\n      lt\n        /* \"#utility.yul\":15815:15864   */\n      iszero\n      tag_369\n      jumpi\n        /* \"#utility.yul\":15854:15862   */\n      dup2\n        /* \"#utility.yul\":15839:15862   */\n      swap1\n      pop\n        /* \"#utility.yul\":15815:15864   */\n    tag_369:\n        /* \"#utility.yul\":15877:15957   */\n      tag_370\n        /* \"#utility.yul\":15933:15955   */\n      tag_371\n        /* \"#utility.yul\":15951:15954   */\n      dup6\n        /* \"#utility.yul\":15933:15955   */\n      tag_175\n      jump\t// in\n    tag_371:\n        /* \"#utility.yul\":15923:15931   */\n      dup4\n        /* \"#utility.yul\":15919:15956   */\n      add\n        /* \"#utility.yul\":15906:15917   */\n      dup3\n        /* \"#utility.yul\":15877:15957   */\n      tag_184\n      jump\t// in\n    tag_370:\n        /* \"#utility.yul\":15536:15967   */\n      pop\n      pop\n        /* \"#utility.yul\":15521:15967   */\n    tag_366:\n        /* \"#utility.yul\":15431:15974   */\n      pop\n      pop\n      pop\n      jump\t// out\n        /* \"#utility.yul\":15980:16097   */\n    tag_186:\n        /* \"#utility.yul\":16034:16042   */\n      0x00\n        /* \"#utility.yul\":16084:16089   */\n      dup3\n        /* \"#utility.yul\":16078:16082   */\n      dup3\n        /* \"#utility.yul\":16074:16090   */\n      shr\n        /* \"#utility.yul\":16053:16090   */\n      swap1\n      pop\n        /* \"#utility.yul\":15980:16097   */\n      swap3\n      swap2\n      pop\n      pop\n      jump\t// out\n        /* \"#utility.yul\":16103:16272   */\n    tag_187:\n        /* \"#utility.yul\":16147:16153   */\n      0x00\n        /* \"#utility.yul\":16180:16231   */\n      tag_374\n        /* \"#utility.yul\":16228:16229   */\n      0x00\n        /* \"#utility.yul\":16224:16230   */\n      not\n        /* \"#utility.yul\":16216:16221   */\n      dup5\n        /* \"#utility.yul\":16213:16214   */\n      0x08\n        /* \"#utility.yul\":16209:16222   */\n      mul\n        /* \"#utility.yul\":16180:16231   */\n      tag_186\n      jump\t// in\n    tag_374:\n        /* \"#utility.yul\":16176:16232   */\n      not\n        /* \"#utility.yul\":16261:16265   */\n      dup1\n        /* \"#utility.yul\":16255:16259   */\n      dup4\n        /* \"#utility.yul\":16251:16266   */\n      and\n        /* \"#utility.yul\":16241:16266   */\n      swap2\n      pop\n        /* \"#utility.yul\":16154:16272   */\n      pop\n        /* \"#utility.yul\":16103:16272   */\n      swap3\n      swap2\n      pop\n      pop\n      jump\t// out\n        /* \"#utility.yul\":16277:16572   */\n    tag_188:\n        /* \"#utility.yul\":16353:16357   */\n      0x00\n        /* \"#utility.yul\":16499:16528   */\n      tag_376\n        /* \"#utility.yul\":16524:16527   */\n      dup4\n        /* \"#utility.yul\":16518:16522   */\n      dup4\n        /* \"#utility.yul\":16499:16528   */\n      tag_187\n      jump\t// in\n    tag_376:\n        /* \"#utility.yul\":16491:16528   */\n      swap2\n      pop\n        /* \"#utility.yul\":16561:16564   */\n      dup3\n        /* \"#utility.yul\":16558:16559   */\n      0x02\n        /* \"#utility.yul\":16554:16565   */\n      mul\n        /* \"#utility.yul\":16548:16552   */\n      dup3\n        /* \"#utility.yul\":16545:16566   */\n      or\n        /* \"#utility.yul\":16537:16566   */\n      swap1\n      pop\n        /* \"#utility.yul\":16277:16572   */\n      swap3\n      swap2\n      pop\n      pop\n      jump\t// out\n        /* \"#utility.yul\":16577:17972   */\n    tag_43:\n        /* \"#utility.yul\":16694:16731   */\n      tag_378\n        /* \"#utility.yul\":16727:16730   */\n      dup3\n        /* \"#utility.yul\":16694:16731   */\n      tag_159\n      jump\t// in\n    tag_378:\n        /* \"#utility.yul\":16796:16814   */\n      0xffffffffffffffff\n        /* \"#utility.yul\":16788:16794   */\n      dup2\n        /* \"#utility.yul\":16785:16815   */\n      gt\n        /* \"#utility.yul\":16782:16838   */\n      iszero\n      tag_379\n      jumpi\n        /* \"#utility.yul\":16818:16836   */\n      tag_380\n      tag_55\n      jump\t// in\n    tag_380:\n        /* \"#utility.yul\":16782:16838   */\n    tag_379:\n        /* \"#utility.yul\":16862:16900   */\n      tag_381\n        /* \"#utility.yul\":16894:16898   */\n      dup3\n        /* \"#utility.yul\":16888:16899   */\n      sload\n        /* \"#utility.yul\":16862:16900   */\n      tag_71\n      jump\t// in\n    tag_381:\n        /* \"#utility.yul\":16947:17014   */\n      tag_382\n        /* \"#utility.yul\":17007:17013   */\n      dup3\n        /* \"#utility.yul\":16999:17005   */\n      dup3\n        /* \"#utility.yul\":16993:16997   */\n      dup6\n        /* \"#utility.yul\":16947:17014   */\n      tag_185\n      jump\t// in\n    tag_382:\n        /* \"#utility.yul\":17041:17042   */\n      0x00\n        /* \"#utility.yul\":17065:17069   */\n      0x20\n        /* \"#utility.yul\":17052:17069   */\n      swap1\n      pop\n        /* \"#utility.yul\":17097:17099   */\n      0x1f\n        /* \"#utility.yul\":17089:17095   */\n      dup4\n        /* \"#utility.yul\":17086:17100   */\n      gt\n        /* \"#utility.yul\":17114:17115   */\n      0x01\n        /* \"#utility.yul\":17109:17727   */\n      dup2\n      eq\n      tag_384\n      jumpi\n        /* \"#utility.yul\":17771:17772   */\n      0x00\n        /* \"#utility.yul\":17788:17794   */\n      dup5\n        /* \"#utility.yul\":17785:17862   */\n      iszero\n      tag_385\n      jumpi\n        /* \"#utility.yul\":17837:17846   */\n      dup3\n        /* \"#utility.yul\":17832:17835   */\n      dup8\n        /* \"#utility.yul\":17828:17847   */\n      add\n        /* \"#utility.yul\":17822:17848   */\n      mload\n        /* \"#utility.yul\":17813:17848   */\n      swap1\n      pop\n        /* \"#utility.yul\":17785:17862   */\n    tag_385:\n        /* \"#utility.yul\":17888:17955   */\n      tag_386\n        /* \"#utility.yul\":17948:17954   */\n      dup6\n        /* \"#utility.yul\":17941:17946   */\n      dup3\n        /* \"#utility.yul\":17888:17955   */\n      tag_188\n      jump\t// in\n    tag_386:\n        /* \"#utility.yul\":17882:17886   */\n      dup7\n        /* \"#utility.yul\":17875:17956   */\n      sstore\n        /* \"#utility.yul\":17744:17966   */\n      pop\n        /* \"#utility.yul\":17079:17966   */\n      jump(tag_383)\n        /* \"#utility.yul\":17109:17727   */\n    tag_384:\n        /* \"#utility.yul\":17161:17165   */\n      0x1f\n        /* \"#utility.yul\":17157:17166   */\n      not\n        /* \"#utility.yul\":17149:17155   */\n      dup5\n        /* \"#utility.yul\":17145:17167   */\n      and\n        /* \"#utility.yul\":17195:17232   */\n      tag_387\n        /* \"#utility.yul\":17227:17231   */\n      dup7\n        /* \"#utility.yul\":17195:17232   */\n      tag_174\n      jump\t// in\n    tag_387:\n        /* \"#utility.yul\":17254:17255   */\n      0x00\n        /* \"#utility.yul\":17268:17476   */\n    tag_388:\n        /* \"#utility.yul\":17282:17289   */\n      dup3\n        /* \"#utility.yul\":17279:17280   */\n      dup2\n        /* \"#utility.yul\":17276:17290   */\n      lt\n        /* \"#utility.yul\":17268:17476   */\n      iszero\n      tag_390\n      jumpi\n        /* \"#utility.yul\":17361:17370   */\n      dup5\n        /* \"#utility.yul\":17356:17359   */\n      dup10\n        /* \"#utility.yul\":17352:17371   */\n      add\n        /* \"#utility.yul\":17346:17372   */\n      mload\n        /* \"#utility.yul\":17338:17344   */\n      dup3\n        /* \"#utility.yul\":17331:17373   */\n      sstore\n        /* \"#utility.yul\":17412:17413   */\n      0x01\n        /* \"#utility.yul\":17404:17410   */\n      dup3\n        /* \"#utility.yul\":17400:17414   */\n      add\n        /* \"#utility.yul\":17390:17414   */\n      swap2\n      pop\n        /* \"#utility.yul\":17459:17461   */\n      0x20\n        /* \"#utility.yul\":17448:17457   */\n      dup6\n        /* \"#utility.yul\":17444:17462   */\n      add\n        /* \"#utility.yul\":17431:17462   */\n      swap5\n      pop\n        /* \"#utility.yul\":17305:17309   */\n      0x20\n        /* \"#utility.yul\":17302:17303   */\n      dup2\n        /* \"#utility.yul\":17298:17310   */\n      add\n        /* \"#utility.yul\":17293:17310   */\n      swap1\n      pop\n        /* \"#utility.yul\":17268:17476   */\n      jump(tag_388)\n    tag_390:\n        /* \"#utility.yul\":17504:17510   */\n      dup7\n        /* \"#utility.yul\":17495:17502   */\n      dup4\n        /* \"#utility.yul\":17492:17511   */\n      lt\n        /* \"#utility.yul\":17489:17668   */\n      iszero\n      tag_391\n      jumpi\n        /* \"#utility.yul\":17562:17571   */\n      dup5\n        /* \"#utility.yul\":17557:17560   */\n      dup10\n        /* \"#utility.yul\":17553:17572   */\n      add\n        /* \"#utility.yul\":17547:17573   */\n      mload\n        /* \"#utility.yul\":17605:17653   */\n      tag_392\n        /* \"#utility.yul\":17647:17651   */\n      0x1f\n        /* \"#utility.yul\":17639:17645   */\n      dup10\n        /* \"#utility.yul\":17635:17652   */\n      and\n        /* \"#utility.yul\":17624:17633   */\n      dup3\n        /* \"#utility.yul\":17605:17653   */\n      tag_187\n      jump\t// in\n    tag_392:\n        /* \"#utility.yul\":17597:17603   */\n      dup4\n        /* \"#utility.yul\":17590:17654   */\n      sstore\n        /* \"#utility.yul\":17512:17668   */\n      pop\n        /* \"#utility.yul\":17489:17668   */\n    tag_391:\n        /* \"#utility.yul\":17714:17715   */\n      0x01\n        /* \"#utility.yul\":17710:17711   */\n      0x02\n        /* \"#utility.yul\":17702:17708   */\n      dup9\n        /* \"#utility.yul\":17698:17712   */\n      mul\n        /* \"#utility.yul\":17694:17716   */\n      add\n        /* \"#utility.yul\":17688:17692   */\n      dup9\n        /* \"#utility.yul\":17681:17717   */\n      sstore\n        /* \"#utility.yul\":17116:17727   */\n      pop\n      pop\n      pop\n        /* \"#utility.yul\":17079:17966   */\n    tag_383:\n      pop\n        /* \"#utility.yul\":16669:17972   */\n      pop\n      pop\n      pop\n        /* \"#utility.yul\":16577:17972   */\n      pop\n      pop\n      jump\t// out\n        /* \"#utility.yul\":17978:18401   */\n    tag_47:\n        /* \"#utility.yul\":18119:18123   */\n      0x00\n        /* \"#utility.yul\":18157:18159   */\n      0x40\n        /* \"#utility.yul\":18146:18155   */\n      dup3\n        /* \"#utility.yul\":18142:18160   */\n      add\n        /* \"#utility.yul\":18134:18160   */\n      swap1\n      pop\n        /* \"#utility.yul\":18170:18241   */\n      tag_394\n        /* \"#utility.yul\":18238:18239   */\n      0x00\n        /* \"#utility.yul\":18227:18236   */\n      dup4\n        /* \"#utility.yul\":18223:18240   */\n      add\n        /* \"#utility.yul\":18214:18220   */\n      dup6\n        /* \"#utility.yul\":18170:18241   */\n      tag_158\n      jump\t// in\n    tag_394:\n        /* \"#utility.yul\":18288:18297   */\n      dup2\n        /* \"#utility.yul\":18282:18286   */\n      dup2\n        /* \"#utility.yul\":18278:18298   */\n      sub\n        /* \"#utility.yul\":18273:18275   */\n      0x20\n        /* \"#utility.yul\":18262:18271   */\n      dup4\n        /* \"#utility.yul\":18258:18276   */\n      add\n        /* \"#utility.yul\":18251:18299   */\n      mstore\n        /* \"#utility.yul\":18316:18394   */\n      tag_395\n        /* \"#utility.yul\":18389:18393   */\n      dup2\n        /* \"#utility.yul\":18380:18386   */\n      dup5\n        /* \"#utility.yul\":18316:18394   */\n      tag_162\n      jump\t// in\n    tag_395:\n        /* \"#utility.yul\":18308:18394   */\n      swap1\n      pop\n        /* \"#utility.yul\":17978:18401   */\n      swap4\n      swap3\n      pop\n      pop\n      pop\n      jump\t// out\n        /* \"#utility.yul\":18407:18587   */\n    tag_51:\n        /* \"#utility.yul\":18455:18532   */\n      0x4e487b7100000000000000000000000000000000000000000000000000000000\n        /* \"#utility.yul\":18452:18453   */\n      0x00\n        /* \"#utility.yul\":18445:18533   */\n      mstore\n        /* \"#utility.yul\":18552:18556   */\n      0x32\n        /* \"#utility.yul\":18549:18550   */\n      0x04\n        /* \"#utility.yul\":18542:18557   */\n      mstore\n        /* \"#utility.yul\":18576:18580   */\n      0x24\n        /* \"#utility.yul\":18573:18574   */\n      0x00\n        /* \"#utility.yul\":18566:18581   */\n      revert\n        /* \"#utility.yul\":18593:18767   */\n    tag_189:\n        /* \"#utility.yul\":18733:18759   */\n      0x5468697320706f6c6c206973206e6f74206163746976652e0000000000000000\n        /* \"#utility.yul\":18729:18730   */\n      0x00\n        /* \"#utility.yul\":18721:18727   */\n      dup3\n        /* \"#utility.yul\":18717:18731   */\n      add\n        /* \"#utility.yul\":18710:18760   */\n      mstore\n        /* \"#utility.yul\":18593:18767   */\n      pop\n      jump\t// out\n        /* \"#utility.yul\":18773:19139   */\n    tag_190:\n        /* \"#utility.yul\":18915:18918   */\n      0x00\n        /* \"#utility.yul\":18936:19003   */\n      tag_399\n        /* \"#utility.yul\":19000:19002   */\n      0x18\n        /* \"#utility.yul\":18995:18998   */\n      dup4\n        /* \"#utility.yul\":18936:19003   */\n      tag_160\n      jump\t// in\n    tag_399:\n        /* \"#utility.yul\":18929:19003   */\n      swap2\n      pop\n        /* \"#utility.yul\":19012:19105   */\n      tag_400\n        /* \"#utility.yul\":19101:19104   */\n      dup3\n        /* \"#utility.yul\":19012:19105   */\n      tag_189\n      jump\t// in\n    tag_400:\n        /* \"#utility.yul\":19130:19132   */\n      0x20\n        /* \"#utility.yul\":19125:19128   */\n      dup3\n        /* \"#utility.yul\":19121:19133   */\n      add\n        /* \"#utility.yul\":19114:19133   */\n      swap1\n      pop\n        /* \"#utility.yul\":18773:19139   */\n      swap2\n      swap1\n      pop\n      jump\t// out\n        /* \"#utility.yul\":19145:19564   */\n    tag_82:\n        /* \"#utility.yul\":19311:19315   */\n      0x00\n        /* \"#utility.yul\":19349:19351   */\n      0x20\n        /* \"#utility.yul\":19338:19347   */\n      dup3\n        /* \"#utility.yul\":19334:19352   */\n      add\n        /* \"#utility.yul\":19326:19352   */\n      swap1\n      pop\n        /* \"#utility.yul\":19398:19407   */\n      dup2\n        /* \"#utility.yul\":19392:19396   */\n      dup2\n        /* \"#utility.yul\":19388:19408   */\n      sub\n        /* \"#utility.yul\":19384:19385   */\n      0x00\n        /* \"#utility.yul\":19373:19382   */\n      dup4\n        /* \"#utility.yul\":19369:19386   */\n      add\n        /* \"#utility.yul\":19362:19409   */\n      mstore\n        /* \"#utility.yul\":19426:19557   */\n      tag_402\n        /* \"#utility.yul\":19552:19556   */\n      dup2\n        /* \"#utility.yul\":19426:19557   */\n      tag_190\n      jump\t// in\n    tag_402:\n        /* \"#utility.yul\":19418:19557   */\n      swap1\n      pop\n        /* \"#utility.yul\":19145:19564   */\n      swap2\n      swap1\n      pop\n      jump\t// out\n        /* \"#utility.yul\":19570:19792   */\n    tag_84:\n        /* \"#utility.yul\":19663:19667   */\n      0x00\n        /* \"#utility.yul\":19701:19703   */\n      0x20\n        /* \"#utility.yul\":19690:19699   */\n      dup3\n        /* \"#utility.yul\":19686:19704   */\n      add\n        /* \"#utility.yul\":19678:19704   */\n      swap1\n      pop\n        /* \"#utility.yul\":19714:19785   */\n      tag_404\n        /* \"#utility.yul\":19782:19783   */\n      0x00\n        /* \"#utility.yul\":19771:19780   */\n      dup4\n        /* \"#utility.yul\":19767:19784   */\n      add\n        /* \"#utility.yul\":19758:19764   */\n      dup5\n        /* \"#utility.yul\":19714:19785   */\n      tag_158\n      jump\t// in\n    tag_404:\n        /* \"#utility.yul\":19570:19792   */\n      swap3\n      swap2\n      pop\n      pop\n      jump\t// out\n        /* \"#utility.yul\":19798:19914   */\n    tag_191:\n        /* \"#utility.yul\":19868:19889   */\n      tag_406\n        /* \"#utility.yul\":19883:19888   */\n      dup2\n        /* \"#utility.yul\":19868:19889   */\n      tag_163\n      jump\t// in\n    tag_406:\n        /* \"#utility.yul\":19861:19866   */\n      dup2\n        /* \"#utility.yul\":19858:19890   */\n      eq\n        /* \"#utility.yul\":19848:19908   */\n      tag_407\n      jumpi\n        /* \"#utility.yul\":19904:19905   */\n      0x00\n        /* \"#utility.yul\":19901:19902   */\n      dup1\n        /* \"#utility.yul\":19894:19906   */\n      revert\n        /* \"#utility.yul\":19848:19908   */\n    tag_407:\n        /* \"#utility.yul\":19798:19914   */\n      pop\n      jump\t// out\n        /* \"#utility.yul\":19920:20057   */\n    tag_192:\n        /* \"#utility.yul\":19974:19979   */\n      0x00\n        /* \"#utility.yul\":20005:20011   */\n      dup2\n        /* \"#utility.yul\":19999:20012   */\n      mload\n        /* \"#utility.yul\":19990:20012   */\n      swap1\n      pop\n        /* \"#utility.yul\":20021:20051   */\n      tag_409\n        /* \"#utility.yul\":20045:20050   */\n      dup2\n        /* \"#utility.yul\":20021:20051   */\n      tag_191\n      jump\t// in\n    tag_409:\n        /* \"#utility.yul\":19920:20057   */\n      swap3\n      swap2\n      pop\n      pop\n      jump\t// out\n        /* \"#utility.yul\":20063:20408   */\n    tag_88:\n        /* \"#utility.yul\":20130:20136   */\n      0x00\n        /* \"#utility.yul\":20179:20181   */\n      0x20\n        /* \"#utility.yul\":20167:20176   */\n      dup3\n        /* \"#utility.yul\":20158:20165   */\n      dup5\n        /* \"#utility.yul\":20154:20177   */\n      sub\n        /* \"#utility.yul\":20150:20182   */\n      slt\n        /* \"#utility.yul\":20147:20266   */\n      iszero\n      tag_411\n      jumpi\n        /* \"#utility.yul\":20185:20264   */\n      tag_412\n      tag_133\n      jump\t// in\n    tag_412:\n        /* \"#utility.yul\":20147:20266   */\n    tag_411:\n        /* \"#utility.yul\":20305:20306   */\n      0x00\n        /* \"#utility.yul\":20330:20391   */\n      tag_413\n        /* \"#utility.yul\":20383:20390   */\n      dup5\n        /* \"#utility.yul\":20374:20380   */\n      dup3\n        /* \"#utility.yul\":20363:20372   */\n      dup6\n        /* \"#utility.yul\":20359:20381   */\n      add\n        /* \"#utility.yul\":20330:20391   */\n      tag_192\n      jump\t// in\n    tag_413:\n        /* \"#utility.yul\":20320:20391   */\n      swap2\n      pop\n        /* \"#utility.yul\":20276:20401   */\n      pop\n        /* \"#utility.yul\":20063:20408   */\n      swap3\n      swap2\n      pop\n      pop\n      jump\t// out\n        /* \"#utility.yul\":20414:20593   */\n    tag_193:\n        /* \"#utility.yul\":20554:20585   */\n      0x506f6c6c206973206e6f742063757272656e746c79206163746976652e000000\n        /* \"#utility.yul\":20550:20551   */\n      0x00\n        /* \"#utility.yul\":20542:20548   */\n      dup3\n        /* \"#utility.yul\":20538:20552   */\n      add\n        /* \"#utility.yul\":20531:20586   */\n      mstore\n        /* \"#utility.yul\":20414:20593   */\n      pop\n      jump\t// out\n        /* \"#utility.yul\":20599:20965   */\n    tag_194:\n        /* \"#utility.yul\":20741:20744   */\n      0x00\n        /* \"#utility.yul\":20762:20829   */\n      tag_416\n        /* \"#utility.yul\":20826:20828   */\n      0x1d\n        /* \"#utility.yul\":20821:20824   */\n      dup4\n        /* \"#utility.yul\":20762:20829   */\n      tag_160\n      jump\t// in\n    tag_416:\n        /* \"#utility.yul\":20755:20829   */\n      swap2\n      pop\n        /* \"#utility.yul\":20838:20931   */\n      tag_417\n        /* \"#utility.yul\":20927:20930   */\n      dup3\n        /* \"#utility.yul\":20838:20931   */\n      tag_193\n      jump\t// in\n    tag_417:\n        /* \"#utility.yul\":20956:20958   */\n      0x20\n        /* \"#utility.yul\":20951:20954   */\n      dup3\n        /* \"#utility.yul\":20947:20959   */\n      add\n        /* \"#utility.yul\":20940:20959   */\n      swap1\n      pop\n        /* \"#utility.yul\":20599:20965   */\n      swap2\n      swap1\n      pop\n      jump\t// out\n        /* \"#utility.yul\":20971:21390   */\n    tag_91:\n        /* \"#utility.yul\":21137:21141   */\n      0x00\n        /* \"#utility.yul\":21175:21177   */\n      0x20\n        /* \"#utility.yul\":21164:21173   */\n      dup3\n        /* \"#utility.yul\":21160:21178   */\n      add\n        /* \"#utility.yul\":21152:21178   */\n      swap1\n      pop\n        /* \"#utility.yul\":21224:21233   */\n      dup2\n        /* \"#utility.yul\":21218:21222   */\n      dup2\n        /* \"#utility.yul\":21214:21234   */\n      sub\n        /* \"#utility.yul\":21210:21211   */\n      0x00\n        /* \"#utility.yul\":21199:21208   */\n      dup4\n        /* \"#utility.yul\":21195:21212   */\n      add\n        /* \"#utility.yul\":21188:21235   */\n      mstore\n        /* \"#utility.yul\":21252:21383   */\n      tag_419\n        /* \"#utility.yul\":21378:21382   */\n      dup2\n        /* \"#utility.yul\":21252:21383   */\n      tag_194\n      jump\t// in\n    tag_419:\n        /* \"#utility.yul\":21244:21383   */\n      swap1\n      pop\n        /* \"#utility.yul\":20971:21390   */\n      swap2\n      swap1\n      pop\n      jump\t// out\n        /* \"#utility.yul\":21396:21561   */\n    tag_195:\n        /* \"#utility.yul\":21536:21553   */\n      0x496e76616c6964206f7074696f6e2e0000000000000000000000000000000000\n        /* \"#utility.yul\":21532:21533   */\n      0x00\n        /* \"#utility.yul\":21524:21530   */\n      dup3\n        /* \"#utility.yul\":21520:21534   */\n      add\n        /* \"#utility.yul\":21513:21554   */\n      mstore\n        /* \"#utility.yul\":21396:21561   */\n      pop\n      jump\t// out\n        /* \"#utility.yul\":21567:21933   */\n    tag_196:\n        /* \"#utility.yul\":21709:21712   */\n      0x00\n        /* \"#utility.yul\":21730:21797   */\n      tag_422\n        /* \"#utility.yul\":21794:21796   */\n      0x0f\n        /* \"#utility.yul\":21789:21792   */\n      dup4\n        /* \"#utility.yul\":21730:21797   */\n      tag_160\n      jump\t// in\n    tag_422:\n        /* \"#utility.yul\":21723:21797   */\n      swap2\n      pop\n        /* \"#utility.yul\":21806:21899   */\n      tag_423\n        /* \"#utility.yul\":21895:21898   */\n      dup3\n        /* \"#utility.yul\":21806:21899   */\n      tag_195\n      jump\t// in\n    tag_423:\n        /* \"#utility.yul\":21924:21926   */\n      0x20\n        /* \"#utility.yul\":21919:21922   */\n      dup3\n        /* \"#utility.yul\":21915:21927   */\n      add\n        /* \"#utility.yul\":21908:21927   */\n      swap1\n      pop\n        /* \"#utility.yul\":21567:21933   */\n      swap2\n      swap1\n      pop\n      jump\t// out\n        /* \"#utility.yul\":21939:22358   */\n    tag_97:\n        /* \"#utility.yul\":22105:22109   */\n      0x00\n        /* \"#utility.yul\":22143:22145   */\n      0x20\n        /* \"#utility.yul\":22132:22141   */\n      dup3\n        /* \"#utility.yul\":22128:22146   */\n      add\n        /* \"#utility.yul\":22120:22146   */\n      swap1\n      pop\n        /* \"#utility.yul\":22192:22201   */\n      dup2\n        /* \"#utility.yul\":22186:22190   */\n      dup2\n        /* \"#utility.yul\":22182:22202   */\n      sub\n        /* \"#utility.yul\":22178:22179   */\n      0x00\n        /* \"#utility.yul\":22167:22176   */\n      dup4\n        /* \"#utility.yul\":22163:22180   */\n      add\n        /* \"#utility.yul\":22156:22203   */\n      mstore\n        /* \"#utility.yul\":22220:22351   */\n      tag_425\n        /* \"#utility.yul\":22346:22350   */\n      dup2\n        /* \"#utility.yul\":22220:22351   */\n      tag_196\n      jump\t// in\n    tag_425:\n        /* \"#utility.yul\":22212:22351   */\n      swap1\n      pop\n        /* \"#utility.yul\":21939:22358   */\n      swap2\n      swap1\n      pop\n      jump\t// out\n        /* \"#utility.yul\":22364:22460   */\n    tag_197:\n        /* \"#utility.yul\":22401:22408   */\n      0x00\n        /* \"#utility.yul\":22430:22454   */\n      tag_427\n        /* \"#utility.yul\":22448:22453   */\n      dup3\n        /* \"#utility.yul\":22430:22454   */\n      tag_165\n      jump\t// in\n    tag_427:\n        /* \"#utility.yul\":22419:22454   */\n      swap1\n      pop\n        /* \"#utility.yul\":22364:22460   */\n      swap2\n      swap1\n      pop\n      jump\t// out\n        /* \"#utility.yul\":22466:22584   */\n    tag_198:\n        /* \"#utility.yul\":22553:22577   */\n      tag_429\n        /* \"#utility.yul\":22571:22576   */\n      dup2\n        /* \"#utility.yul\":22553:22577   */\n      tag_197\n      jump\t// in\n    tag_429:\n        /* \"#utility.yul\":22548:22551   */\n      dup3\n        /* \"#utility.yul\":22541:22578   */\n      mstore\n        /* \"#utility.yul\":22466:22584   */\n      pop\n      pop\n      jump\t// out\n        /* \"#utility.yul\":22590:22922   */\n    tag_99:\n        /* \"#utility.yul\":22711:22715   */\n      0x00\n        /* \"#utility.yul\":22749:22751   */\n      0x40\n        /* \"#utility.yul\":22738:22747   */\n      dup3\n        /* \"#utility.yul\":22734:22752   */\n      add\n        /* \"#utility.yul\":22726:22752   */\n      swap1\n      pop\n        /* \"#utility.yul\":22762:22833   */\n      tag_431\n        /* \"#utility.yul\":22830:22831   */\n      0x00\n        /* \"#utility.yul\":22819:22828   */\n      dup4\n        /* \"#utility.yul\":22815:22832   */\n      add\n        /* \"#utility.yul\":22806:22812   */\n      dup6\n        /* \"#utility.yul\":22762:22833   */\n      tag_158\n      jump\t// in\n    tag_431:\n        /* \"#utility.yul\":22843:22915   */\n      tag_432\n        /* \"#utility.yul\":22911:22913   */\n      0x20\n        /* \"#utility.yul\":22900:22909   */\n      dup4\n        /* \"#utility.yul\":22896:22914   */\n      add\n        /* \"#utility.yul\":22887:22893   */\n      dup5\n        /* \"#utility.yul\":22843:22915   */\n      tag_198\n      jump\t// in\n    tag_432:\n        /* \"#utility.yul\":22590:22922   */\n      swap4\n      swap3\n      pop\n      pop\n      pop\n      jump\t// out\n        /* \"#utility.yul\":22928:23151   */\n    tag_199:\n        /* \"#utility.yul\":23068:23102   */\n      0x596f75206861766520616c726561647920766f74656420696e20746869732070\n        /* \"#utility.yul\":23064:23065   */\n      0x00\n        /* \"#utility.yul\":23056:23062   */\n      dup3\n        /* \"#utility.yul\":23052:23066   */\n      add\n        /* \"#utility.yul\":23045:23103   */\n      mstore\n        /* \"#utility.yul\":23137:23143   */\n      0x6f6c6c2e00000000000000000000000000000000000000000000000000000000\n        /* \"#utility.yul\":23132:23134   */\n      0x20\n        /* \"#utility.yul\":23124:23130   */\n      dup3\n        /* \"#utility.yul\":23120:23135   */\n      add\n        /* \"#utility.yul\":23113:23144   */\n      mstore\n        /* \"#utility.yul\":22928:23151   */\n      pop\n      jump\t// out\n        /* \"#utility.yul\":23157:23523   */\n    tag_200:\n        /* \"#utility.yul\":23299:23302   */\n      0x00\n        /* \"#utility.yul\":23320:23387   */\n      tag_435\n        /* \"#utility.yul\":23384:23386   */\n      0x24\n        /* \"#utility.yul\":23379:23382   */\n      dup4\n        /* \"#utility.yul\":23320:23387   */\n      tag_160\n      jump\t// in\n    tag_435:\n        /* \"#utility.yul\":23313:23387   */\n      swap2\n      pop\n        /* \"#utility.yul\":23396:23489   */\n      tag_436\n        /* \"#utility.yul\":23485:23488   */\n      dup3\n        /* \"#utility.yul\":23396:23489   */\n      tag_199\n      jump\t// in\n    tag_436:\n        /* \"#utility.yul\":23514:23516   */\n      0x40\n        /* \"#utility.yul\":23509:23512   */\n      dup3\n        /* \"#utility.yul\":23505:23517   */\n      add\n        /* \"#utility.yul\":23498:23517   */\n      swap1\n      pop\n        /* \"#utility.yul\":23157:23523   */\n      swap2\n      swap1\n      pop\n      jump\t// out\n        /* \"#utility.yul\":23529:23948   */\n    tag_105:\n        /* \"#utility.yul\":23695:23699   */\n      0x00\n        /* \"#utility.yul\":23733:23735   */\n      0x20\n        /* \"#utility.yul\":23722:23731   */\n      dup3\n        /* \"#utility.yul\":23718:23736   */\n      add\n        /* \"#utility.yul\":23710:23736   */\n      swap1\n      pop\n        /* \"#utility.yul\":23782:23791   */\n      dup2\n        /* \"#utility.yul\":23776:23780   */\n      dup2\n        /* \"#utility.yul\":23772:23792   */\n      sub\n        /* \"#utility.yul\":23768:23769   */\n      0x00\n        /* \"#utility.yul\":23757:23766   */\n      dup4\n        /* \"#utility.yul\":23753:23770   */\n      add\n        /* \"#utility.yul\":23746:23793   */\n      mstore\n        /* \"#utility.yul\":23810:23941   */\n      tag_438\n        /* \"#utility.yul\":23936:23940   */\n      dup2\n        /* \"#utility.yul\":23810:23941   */\n      tag_200\n      jump\t// in\n    tag_438:\n        /* \"#utility.yul\":23802:23941   */\n      swap1\n      pop\n        /* \"#utility.yul\":23529:23948   */\n      swap2\n      swap1\n      pop\n      jump\t// out\n        /* \"#utility.yul\":23954:24187   */\n    tag_114:\n        /* \"#utility.yul\":23993:23996   */\n      0x00\n        /* \"#utility.yul\":24016:24040   */\n      tag_440\n        /* \"#utility.yul\":24034:24039   */\n      dup3\n        /* \"#utility.yul\":24016:24040   */\n      tag_148\n      jump\t// in\n    tag_440:\n        /* \"#utility.yul\":24007:24040   */\n      swap2\n      pop\n        /* \"#utility.yul\":24062:24128   */\n      0xffffffffffffffffffffffffffffffffffffffffffffffffffffffffffffffff\n        /* \"#utility.yul\":24055:24060   */\n      dup3\n        /* \"#utility.yul\":24052:24129   */\n      sub\n        /* \"#utility.yul\":24049:24152   */\n      tag_441\n      jumpi\n        /* \"#utility.yul\":24132:24150   */\n      tag_442\n      tag_172\n      jump\t// in\n    tag_442:\n        /* \"#utility.yul\":24049:24152   */\n    tag_441:\n        /* \"#utility.yul\":24179:24180   */\n      0x01\n        /* \"#utility.yul\":24172:24177   */\n      dup3\n        /* \"#utility.yul\":24168:24181   */\n      add\n        /* \"#utility.yul\":24161:24181   */\n      swap1\n      pop\n        /* \"#utility.yul\":23954:24187   */\n      swap2\n      swap1\n      pop\n      jump\t// out\n\n    auxdata: 0xa264697066735822122024aa723c9a126e0c32cd197e632e3014b23a8457b1d120229313ac1007369f4764736f6c63430008190033\n}\n",
				"bytecode": {
					"linkReferences": {},
					"object": "608060405234801561000f575f80fd5b5060405161173338038061173383398181016040528101906100319190610156565b3360015f6101000a81548173ffffffffffffffffffffffffffffffffffffffff021916908373ffffffffffffffffffffffffffffffffffffffff1602179055508160025f6101000a81548173ffffffffffffffffffffffffffffffffffffffff021916908373ffffffffffffffffffffffffffffffffffffffff1602179055508060035f6101000a81548173ffffffffffffffffffffffffffffffffffffffff021916908373ffffffffffffffffffffffffffffffffffffffff1602179055505050610194565b5f80fd5b5f73ffffffffffffffffffffffffffffffffffffffff82169050919050565b5f610125826100fc565b9050919050565b6101358161011b565b811461013f575f80fd5b50565b5f815190506101508161012c565b92915050565b5f806040838503121561016c5761016b6100f8565b5b5f61017985828601610142565b925050602061018a85828601610142565b9150509250929050565b611592806101a15f395ff3fe608060405234801561000f575f80fd5b5060043610610055575f3560e01c80637e3d71c31461005957806381a60c0d14610075578063ac2f0074146100a5578063b384abef146100d7578063f851a440146100f3575b5f80fd5b610073600480360381019061006e9190610b40565b610111565b005b61008f600480360381019061008a9190610be9565b6102ef565b60405161009c9190610ccb565b60405180910390f35b6100bf60048036038101906100ba9190610be9565b6103f9565b6040516100ce93929190610d74565b60405180910390f35b6100f160048036038101906100ec9190610db0565b6104bf565b005b6100fb61081a565b6040516101089190610e2d565b60405180910390f35b60015f9054906101000a900473ffffffffffffffffffffffffffffffffffffffff1673ffffffffffffffffffffffffffffffffffffffff163373ffffffffffffffffffffffffffffffffffffffff16146101a0576040517f08c379a000000000000000000000000000000000000000000000000000000000815260040161019790610e90565b60405180910390fd5b60015f9054906101000a900473ffffffffffffffffffffffffffffffffffffffff1673ffffffffffffffffffffffffffffffffffffffff163373ffffffffffffffffffffffffffffffffffffffff161461022f576040517f08c379a000000000000000000000000000000000000000000000000000000000815260040161022690610ef8565b60405180910390fd5b5f8060018160018154018082558091505003905f5260205f209060050201905060015f805490506102609190610f43565b815f0181905550828160010190816102789190611170565b508181600201908051906020019061029192919061083f565b506001816004015f6101000a81548160ff0219169083151502179055507f65d5ac2bf1bca69566bef1affdfca5bb37b9577fc0b3af4c7c4638225e67b39c815f0154846040516102e292919061123f565b60405180910390a1505050565b60605f8083815481106103055761030461126d565b5b905f5260205f2090600502016002018054905067ffffffffffffffff8111156103315761033061093a565b5b60405190808252806020026020018201604052801561035f5781602001602082028036833780820191505090505b5090505f5b5f84815481106103775761037661126d565b5b905f5260205f209060050201600201805490508110156103ef575f84815481106103a4576103a361126d565b5b905f5260205f2090600502016003015f8281526020019081526020015f20548282815181106103d6576103d561126d565b5b6020026020010181815250508080600101915050610364565b5080915050919050565b5f8181548110610407575f80fd5b905f5260205f2090600502015f91509050805f01549080600101805461042c90610fa3565b80601f016020809104026020016040519081016040528092919081815260200182805461045890610fa3565b80156104a35780601f1061047a576101008083540402835291602001916104a3565b820191905f5260205f20905b81548152906001019060200180831161048657829003601f168201915b505050505090806004015f9054906101000a900460ff16905083565b5f82815481106104d2576104d161126d565b5b905f5260205f2090600502016004015f9054906101000a900460ff1661052d576040517f08c379a0000000000000000000000000000000000000000000000000000000008152600401610524906112e4565b60405180910390fd5b60025f9054906101000a900473ffffffffffffffffffffffffffffffffffffffff1673ffffffffffffffffffffffffffffffffffffffff16632ec15480836040518263ffffffff1660e01b81526004016105879190611302565b602060405180830381865afa1580156105a2573d5f803e3d5ffd5b505050506040513d601f19601f820116820180604052508101906105c69190611345565b610605576040517f08c379a00000000000000000000000000000000000000000000000000000000081526004016105fc906113ba565b60405180910390fd5b5f82815481106106185761061761126d565b5b905f5260205f20906005020160020180549050811061066c576040517f08c379a000000000000000000000000000000000000000000000000000000000815260040161066390611422565b60405180910390fd5b60035f9054906101000a900473ffffffffffffffffffffffffffffffffffffffff1673ffffffffffffffffffffffffffffffffffffffff166377a249e283336040518363ffffffff1660e01b81526004016106c8929190611460565b602060405180830381865afa1580156106e3573d5f803e3d5ffd5b505050506040513d601f19601f820116820180604052508101906107079190611345565b15610747576040517f08c379a000000000000000000000000000000000000000000000000000000000815260040161073e906114f7565b60405180910390fd5b60035f9054906101000a900473ffffffffffffffffffffffffffffffffffffffff1673ffffffffffffffffffffffffffffffffffffffff166389ce58fd83336040518363ffffffff1660e01b81526004016107a3929190611460565b5f604051808303815f87803b1580156107ba575f80fd5b505af11580156107cc573d5f803e3d5ffd5b505050505f82815481106107e3576107e261126d565b5b905f5260205f2090600502016003015f8281526020019081526020015f205f81548092919061081190611515565b91905055505050565b60015f9054906101000a900473ffffffffffffffffffffffffffffffffffffffff1681565b828054828255905f5260205f20908101928215610885579160200282015b828111156108845782518290816108749190611170565b509160200191906001019061085d565b5b5090506108929190610896565b5090565b5b808211156108b5575f81816108ac91906108b9565b50600101610897565b5090565b5080546108c590610fa3565b5f825580601f106108d657506108f3565b601f0160209004905f5260205f20908101906108f291906108f6565b5b50565b5b8082111561090d575f815f9055506001016108f7565b5090565b5f604051905090565b5f80fd5b5f80fd5b5f80fd5b5f80fd5b5f601f19601f8301169050919050565b7f4e487b71000000000000000000000000000000000000000000000000000000005f52604160045260245ffd5b6109708261092a565b810181811067ffffffffffffffff8211171561098f5761098e61093a565b5b80604052505050565b5f6109a1610911565b90506109ad8282610967565b919050565b5f67ffffffffffffffff8211156109cc576109cb61093a565b5b6109d58261092a565b9050602081019050919050565b828183375f83830152505050565b5f610a026109fd846109b2565b610998565b905082815260208101848484011115610a1e57610a1d610926565b5b610a298482856109e2565b509392505050565b5f82601f830112610a4557610a44610922565b5b8135610a558482602086016109f0565b91505092915050565b5f67ffffffffffffffff821115610a7857610a7761093a565b5b602082029050602081019050919050565b5f80fd5b5f610a9f610a9a84610a5e565b610998565b90508083825260208201905060208402830185811115610ac257610ac1610a89565b5b835b81811015610b0957803567ffffffffffffffff811115610ae757610ae6610922565b5b808601610af48982610a31565b85526020850194505050602081019050610ac4565b5050509392505050565b5f82601f830112610b2757610b26610922565b5b8135610b37848260208601610a8d565b91505092915050565b5f8060408385031215610b5657610b5561091a565b5b5f83013567ffffffffffffffff811115610b7357610b7261091e565b5b610b7f85828601610a31565b925050602083013567ffffffffffffffff811115610ba057610b9f61091e565b5b610bac85828601610b13565b9150509250929050565b5f819050919050565b610bc881610bb6565b8114610bd2575f80fd5b50565b5f81359050610be381610bbf565b92915050565b5f60208284031215610bfe57610bfd61091a565b5b5f610c0b84828501610bd5565b91505092915050565b5f81519050919050565b5f82825260208201905092915050565b5f819050602082019050919050565b610c4681610bb6565b82525050565b5f610c578383610c3d565b60208301905092915050565b5f602082019050919050565b5f610c7982610c14565b610c838185610c1e565b9350610c8e83610c2e565b805f5b83811015610cbe578151610ca58882610c4c565b9750610cb083610c63565b925050600181019050610c91565b5085935050505092915050565b5f6020820190508181035f830152610ce38184610c6f565b905092915050565b610cf481610bb6565b82525050565b5f81519050919050565b5f82825260208201905092915050565b8281835e5f83830152505050565b5f610d2c82610cfa565b610d368185610d04565b9350610d46818560208601610d14565b610d4f8161092a565b840191505092915050565b5f8115159050919050565b610d6e81610d5a565b82525050565b5f606082019050610d875f830186610ceb565b8181036020830152610d998185610d22565b9050610da86040830184610d65565b949350505050565b5f8060408385031215610dc657610dc561091a565b5b5f610dd385828601610bd5565b9250506020610de485828601610bd5565b9150509250929050565b5f73ffffffffffffffffffffffffffffffffffffffff82169050919050565b5f610e1782610dee565b9050919050565b610e2781610e0d565b82525050565b5f602082019050610e405f830184610e1e565b92915050565b7f4f6e6c792061646d696e2063616e2063726561746520706f6c6c7300000000005f82015250565b5f610e7a601b83610d04565b9150610e8582610e46565b602082019050919050565b5f6020820190508181035f830152610ea781610e6e565b9050919050565b7f4f6e6c792061646d696e2063616e2063726561746520706f6c6c732e000000005f82015250565b5f610ee2601c83610d04565b9150610eed82610eae565b602082019050919050565b5f6020820190508181035f830152610f0f81610ed6565b9050919050565b7f4e487b71000000000000000000000000000000000000000000000000000000005f52601160045260245ffd5b5f610f4d82610bb6565b9150610f5883610bb6565b9250828203905081811115610f7057610f6f610f16565b5b92915050565b7f4e487b71000000000000000000000000000000000000000000000000000000005f52602260045260245ffd5b5f6002820490506001821680610fba57607f821691505b602082108103610fcd57610fcc610f76565b5b50919050565b5f819050815f5260205f209050919050565b5f6020601f8301049050919050565b5f82821b905092915050565b5f6008830261102f7fffffffffffffffffffffffffffffffffffffffffffffffffffffffffffffffff82610ff4565b6110398683610ff4565b95508019841693508086168417925050509392505050565b5f819050919050565b5f61107461106f61106a84610bb6565b611051565b610bb6565b9050919050565b5f819050919050565b61108d8361105a565b6110a16110998261107b565b848454611000565b825550505050565b5f90565b6110b56110a9565b6110c0818484611084565b505050565b5b818110156110e3576110d85f826110ad565b6001810190506110c6565b5050565b601f821115611128576110f981610fd3565b61110284610fe5565b81016020851015611111578190505b61112561111d85610fe5565b8301826110c5565b50505b505050565b5f82821c905092915050565b5f6111485f198460080261112d565b1980831691505092915050565b5f6111608383611139565b9150826002028217905092915050565b61117982610cfa565b67ffffffffffffffff8111156111925761119161093a565b5b61119c8254610fa3565b6111a78282856110e7565b5f60209050601f8311600181146111d8575f84156111c6578287015190505b6111d08582611155565b865550611237565b601f1984166111e686610fd3565b5f5b8281101561120d578489015182556001820191506020850194506020810190506111e8565b8683101561122a5784890151611226601f891682611139565b8355505b6001600288020188555050505b505050505050565b5f6040820190506112525f830185610ceb565b81810360208301526112648184610d22565b90509392505050565b7f4e487b71000000000000000000000000000000000000000000000000000000005f52603260045260245ffd5b7f5468697320706f6c6c206973206e6f74206163746976652e00000000000000005f82015250565b5f6112ce601883610d04565b91506112d98261129a565b602082019050919050565b5f6020820190508181035f8301526112fb816112c2565b9050919050565b5f6020820190506113155f830184610ceb565b92915050565b61132481610d5a565b811461132e575f80fd5b50565b5f8151905061133f8161131b565b92915050565b5f6020828403121561135a5761135961091a565b5b5f61136784828501611331565b91505092915050565b7f506f6c6c206973206e6f742063757272656e746c79206163746976652e0000005f82015250565b5f6113a4601d83610d04565b91506113af82611370565b602082019050919050565b5f6020820190508181035f8301526113d181611398565b9050919050565b7f496e76616c6964206f7074696f6e2e00000000000000000000000000000000005f82015250565b5f61140c600f83610d04565b9150611417826113d8565b602082019050919050565b5f6020820190508181035f83015261143981611400565b9050919050565b5f61144a82610dee565b9050919050565b61145a81611440565b82525050565b5f6040820190506114735f830185610ceb565b6114806020830184611451565b9392505050565b7f596f75206861766520616c726561647920766f74656420696e207468697320705f8201527f6f6c6c2e00000000000000000000000000000000000000000000000000000000602082015250565b5f6114e1602483610d04565b91506114ec82611487565b604082019050919050565b5f6020820190508181035f83015261150e816114d5565b9050919050565b5f61151f82610bb6565b91507fffffffffffffffffffffffffffffffffffffffffffffffffffffffffffffffff820361155157611550610f16565b5b60018201905091905056fea264697066735822122024aa723c9a126e0c32cd197e632e3014b23a8457b1d120229313ac1007369f4764736f6c63430008190033",
					"opcodes": "PUSH1 0x80 PUSH1 0x40 MSTORE CALLVALUE DUP1 ISZERO PUSH2 0xF JUMPI PUSH0 DUP1 REVERT JUMPDEST POP PUSH1 0x40 MLOAD PUSH2 0x1733 CODESIZE SUB DUP1 PUSH2 0x1733 DUP4 CODECOPY DUP2 DUP2 ADD PUSH1 0x40 MSTORE DUP2 ADD SWAP1 PUSH2 0x31 SWAP2 SWAP1 PUSH2 0x156 JUMP JUMPDEST CALLER PUSH1 0x1 PUSH0 PUSH2 0x100 EXP DUP2 SLOAD DUP2 PUSH20 0xFFFFFFFFFFFFFFFFFFFFFFFFFFFFFFFFFFFFFFFF MUL NOT AND SWAP1 DUP4 PUSH20 0xFFFFFFFFFFFFFFFFFFFFFFFFFFFFFFFFFFFFFFFF AND MUL OR SWAP1 SSTORE POP DUP2 PUSH1 0x2 PUSH0 PUSH2 0x100 EXP DUP2 SLOAD DUP2 PUSH20 0xFFFFFFFFFFFFFFFFFFFFFFFFFFFFFFFFFFFFFFFF MUL NOT AND SWAP1 DUP4 PUSH20 0xFFFFFFFFFFFFFFFFFFFFFFFFFFFFFFFFFFFFFFFF AND MUL OR SWAP1 SSTORE POP DUP1 PUSH1 0x3 PUSH0 PUSH2 0x100 EXP DUP2 SLOAD DUP2 PUSH20 0xFFFFFFFFFFFFFFFFFFFFFFFFFFFFFFFFFFFFFFFF MUL NOT AND SWAP1 DUP4 PUSH20 0xFFFFFFFFFFFFFFFFFFFFFFFFFFFFFFFFFFFFFFFF AND MUL OR SWAP1 SSTORE POP POP POP PUSH2 0x194 JUMP JUMPDEST PUSH0 DUP1 REVERT JUMPDEST PUSH0 PUSH20 0xFFFFFFFFFFFFFFFFFFFFFFFFFFFFFFFFFFFFFFFF DUP3 AND SWAP1 POP SWAP2 SWAP1 POP JUMP JUMPDEST PUSH0 PUSH2 0x125 DUP3 PUSH2 0xFC JUMP JUMPDEST SWAP1 POP SWAP2 SWAP1 POP JUMP JUMPDEST PUSH2 0x135 DUP2 PUSH2 0x11B JUMP JUMPDEST DUP2 EQ PUSH2 0x13F JUMPI PUSH0 DUP1 REVERT JUMPDEST POP JUMP JUMPDEST PUSH0 DUP2 MLOAD SWAP1 POP PUSH2 0x150 DUP2 PUSH2 0x12C JUMP JUMPDEST SWAP3 SWAP2 POP POP JUMP JUMPDEST PUSH0 DUP1 PUSH1 0x40 DUP4 DUP6 SUB SLT ISZERO PUSH2 0x16C JUMPI PUSH2 0x16B PUSH2 0xF8 JUMP JUMPDEST JUMPDEST PUSH0 PUSH2 0x179 DUP6 DUP3 DUP7 ADD PUSH2 0x142 JUMP JUMPDEST SWAP3 POP POP PUSH1 0x20 PUSH2 0x18A DUP6 DUP3 DUP7 ADD PUSH2 0x142 JUMP JUMPDEST SWAP2 POP POP SWAP3 POP SWAP3 SWAP1 POP JUMP JUMPDEST PUSH2 0x1592 DUP1 PUSH2 0x1A1 PUSH0 CODECOPY PUSH0 RETURN INVALID PUSH1 0x80 PUSH1 0x40 MSTORE CALLVALUE DUP1 ISZERO PUSH2 0xF JUMPI PUSH0 DUP1 REVERT JUMPDEST POP PUSH1 0x4 CALLDATASIZE LT PUSH2 0x55 JUMPI PUSH0 CALLDATALOAD PUSH1 0xE0 SHR DUP1 PUSH4 0x7E3D71C3 EQ PUSH2 0x59 JUMPI DUP1 PUSH4 0x81A60C0D EQ PUSH2 0x75 JUMPI DUP1 PUSH4 0xAC2F0074 EQ PUSH2 0xA5 JUMPI DUP1 PUSH4 0xB384ABEF EQ PUSH2 0xD7 JUMPI DUP1 PUSH4 0xF851A440 EQ PUSH2 0xF3 JUMPI JUMPDEST PUSH0 DUP1 REVERT JUMPDEST PUSH2 0x73 PUSH1 0x4 DUP1 CALLDATASIZE SUB DUP2 ADD SWAP1 PUSH2 0x6E SWAP2 SWAP1 PUSH2 0xB40 JUMP JUMPDEST PUSH2 0x111 JUMP JUMPDEST STOP JUMPDEST PUSH2 0x8F PUSH1 0x4 DUP1 CALLDATASIZE SUB DUP2 ADD SWAP1 PUSH2 0x8A SWAP2 SWAP1 PUSH2 0xBE9 JUMP JUMPDEST PUSH2 0x2EF JUMP JUMPDEST PUSH1 0x40 MLOAD PUSH2 0x9C SWAP2 SWAP1 PUSH2 0xCCB JUMP JUMPDEST PUSH1 0x40 MLOAD DUP1 SWAP2 SUB SWAP1 RETURN JUMPDEST PUSH2 0xBF PUSH1 0x4 DUP1 CALLDATASIZE SUB DUP2 ADD SWAP1 PUSH2 0xBA SWAP2 SWAP1 PUSH2 0xBE9 JUMP JUMPDEST PUSH2 0x3F9 JUMP JUMPDEST PUSH1 0x40 MLOAD PUSH2 0xCE SWAP4 SWAP3 SWAP2 SWAP1 PUSH2 0xD74 JUMP JUMPDEST PUSH1 0x40 MLOAD DUP1 SWAP2 SUB SWAP1 RETURN JUMPDEST PUSH2 0xF1 PUSH1 0x4 DUP1 CALLDATASIZE SUB DUP2 ADD SWAP1 PUSH2 0xEC SWAP2 SWAP1 PUSH2 0xDB0 JUMP JUMPDEST PUSH2 0x4BF JUMP JUMPDEST STOP JUMPDEST PUSH2 0xFB PUSH2 0x81A JUMP JUMPDEST PUSH1 0x40 MLOAD PUSH2 0x108 SWAP2 SWAP1 PUSH2 0xE2D JUMP JUMPDEST PUSH1 0x40 MLOAD DUP1 SWAP2 SUB SWAP1 RETURN JUMPDEST PUSH1 0x1 PUSH0 SWAP1 SLOAD SWAP1 PUSH2 0x100 EXP SWAP1 DIV PUSH20 0xFFFFFFFFFFFFFFFFFFFFFFFFFFFFFFFFFFFFFFFF AND PUSH20 0xFFFFFFFFFFFFFFFFFFFFFFFFFFFFFFFFFFFFFFFF AND CALLER PUSH20 0xFFFFFFFFFFFFFFFFFFFFFFFFFFFFFFFFFFFFFFFF AND EQ PUSH2 0x1A0 JUMPI PUSH1 0x40 MLOAD PUSH32 0x8C379A000000000000000000000000000000000000000000000000000000000 DUP2 MSTORE PUSH1 0x4 ADD PUSH2 0x197 SWAP1 PUSH2 0xE90 JUMP JUMPDEST PUSH1 0x40 MLOAD DUP1 SWAP2 SUB SWAP1 REVERT JUMPDEST PUSH1 0x1 PUSH0 SWAP1 SLOAD SWAP1 PUSH2 0x100 EXP SWAP1 DIV PUSH20 0xFFFFFFFFFFFFFFFFFFFFFFFFFFFFFFFFFFFFFFFF AND PUSH20 0xFFFFFFFFFFFFFFFFFFFFFFFFFFFFFFFFFFFFFFFF AND CALLER PUSH20 0xFFFFFFFFFFFFFFFFFFFFFFFFFFFFFFFFFFFFFFFF AND EQ PUSH2 0x22F JUMPI PUSH1 0x40 MLOAD PUSH32 0x8C379A000000000000000000000000000000000000000000000000000000000 DUP2 MSTORE PUSH1 0x4 ADD PUSH2 0x226 SWAP1 PUSH2 0xEF8 JUMP JUMPDEST PUSH1 0x40 MLOAD DUP1 SWAP2 SUB SWAP1 REVERT JUMPDEST PUSH0 DUP1 PUSH1 0x1 DUP2 PUSH1 0x1 DUP2 SLOAD ADD DUP1 DUP3 SSTORE DUP1 SWAP2 POP POP SUB SWAP1 PUSH0 MSTORE PUSH1 0x20 PUSH0 KECCAK256 SWAP1 PUSH1 0x5 MUL ADD SWAP1 POP PUSH1 0x1 PUSH0 DUP1 SLOAD SWAP1 POP PUSH2 0x260 SWAP2 SWAP1 PUSH2 0xF43 JUMP JUMPDEST DUP2 PUSH0 ADD DUP2 SWAP1 SSTORE POP DUP3 DUP2 PUSH1 0x1 ADD SWAP1 DUP2 PUSH2 0x278 SWAP2 SWAP1 PUSH2 0x1170 JUMP JUMPDEST POP DUP2 DUP2 PUSH1 0x2 ADD SWAP1 DUP1 MLOAD SWAP1 PUSH1 0x20 ADD SWAP1 PUSH2 0x291 SWAP3 SWAP2 SWAP1 PUSH2 0x83F JUMP JUMPDEST POP PUSH1 0x1 DUP2 PUSH1 0x4 ADD PUSH0 PUSH2 0x100 EXP DUP2 SLOAD DUP2 PUSH1 0xFF MUL NOT AND SWAP1 DUP4 ISZERO ISZERO MUL OR SWAP1 SSTORE POP PUSH32 0x65D5AC2BF1BCA69566BEF1AFFDFCA5BB37B9577FC0B3AF4C7C4638225E67B39C DUP2 PUSH0 ADD SLOAD DUP5 PUSH1 0x40 MLOAD PUSH2 0x2E2 SWAP3 SWAP2 SWAP1 PUSH2 0x123F JUMP JUMPDEST PUSH1 0x40 MLOAD DUP1 SWAP2 SUB SWAP1 LOG1 POP POP POP JUMP JUMPDEST PUSH1 0x60 PUSH0 DUP1 DUP4 DUP2 SLOAD DUP2 LT PUSH2 0x305 JUMPI PUSH2 0x304 PUSH2 0x126D JUMP JUMPDEST JUMPDEST SWAP1 PUSH0 MSTORE PUSH1 0x20 PUSH0 KECCAK256 SWAP1 PUSH1 0x5 MUL ADD PUSH1 0x2 ADD DUP1 SLOAD SWAP1 POP PUSH8 0xFFFFFFFFFFFFFFFF DUP2 GT ISZERO PUSH2 0x331 JUMPI PUSH2 0x330 PUSH2 0x93A JUMP JUMPDEST JUMPDEST PUSH1 0x40 MLOAD SWAP1 DUP1 DUP3 MSTORE DUP1 PUSH1 0x20 MUL PUSH1 0x20 ADD DUP3 ADD PUSH1 0x40 MSTORE DUP1 ISZERO PUSH2 0x35F JUMPI DUP2 PUSH1 0x20 ADD PUSH1 0x20 DUP3 MUL DUP1 CALLDATASIZE DUP4 CALLDATACOPY DUP1 DUP3 ADD SWAP2 POP POP SWAP1 POP JUMPDEST POP SWAP1 POP PUSH0 JUMPDEST PUSH0 DUP5 DUP2 SLOAD DUP2 LT PUSH2 0x377 JUMPI PUSH2 0x376 PUSH2 0x126D JUMP JUMPDEST JUMPDEST SWAP1 PUSH0 MSTORE PUSH1 0x20 PUSH0 KECCAK256 SWAP1 PUSH1 0x5 MUL ADD PUSH1 0x2 ADD DUP1 SLOAD SWAP1 POP DUP2 LT ISZERO PUSH2 0x3EF JUMPI PUSH0 DUP5 DUP2 SLOAD DUP2 LT PUSH2 0x3A4 JUMPI PUSH2 0x3A3 PUSH2 0x126D JUMP JUMPDEST JUMPDEST SWAP1 PUSH0 MSTORE PUSH1 0x20 PUSH0 KECCAK256 SWAP1 PUSH1 0x5 MUL ADD PUSH1 0x3 ADD PUSH0 DUP3 DUP2 MSTORE PUSH1 0x20 ADD SWAP1 DUP2 MSTORE PUSH1 0x20 ADD PUSH0 KECCAK256 SLOAD DUP3 DUP3 DUP2 MLOAD DUP2 LT PUSH2 0x3D6 JUMPI PUSH2 0x3D5 PUSH2 0x126D JUMP JUMPDEST JUMPDEST PUSH1 0x20 MUL PUSH1 0x20 ADD ADD DUP2 DUP2 MSTORE POP POP DUP1 DUP1 PUSH1 0x1 ADD SWAP2 POP POP PUSH2 0x364 JUMP JUMPDEST POP DUP1 SWAP2 POP POP SWAP2 SWAP1 POP JUMP JUMPDEST PUSH0 DUP2 DUP2 SLOAD DUP2 LT PUSH2 0x407 JUMPI PUSH0 DUP1 REVERT JUMPDEST SWAP1 PUSH0 MSTORE PUSH1 0x20 PUSH0 KECCAK256 SWAP1 PUSH1 0x5 MUL ADD PUSH0 SWAP2 POP SWAP1 POP DUP1 PUSH0 ADD SLOAD SWAP1 DUP1 PUSH1 0x1 ADD DUP1 SLOAD PUSH2 0x42C SWAP1 PUSH2 0xFA3 JUMP JUMPDEST DUP1 PUSH1 0x1F ADD PUSH1 0x20 DUP1 SWAP2 DIV MUL PUSH1 0x20 ADD PUSH1 0x40 MLOAD SWAP1 DUP2 ADD PUSH1 0x40 MSTORE DUP1 SWAP3 SWAP2 SWAP1 DUP2 DUP2 MSTORE PUSH1 0x20 ADD DUP3 DUP1 SLOAD PUSH2 0x458 SWAP1 PUSH2 0xFA3 JUMP JUMPDEST DUP1 ISZERO PUSH2 0x4A3 JUMPI DUP1 PUSH1 0x1F LT PUSH2 0x47A JUMPI PUSH2 0x100 DUP1 DUP4 SLOAD DIV MUL DUP4 MSTORE SWAP2 PUSH1 0x20 ADD SWAP2 PUSH2 0x4A3 JUMP JUMPDEST DUP3 ADD SWAP2 SWAP1 PUSH0 MSTORE PUSH1 0x20 PUSH0 KECCAK256 SWAP1 JUMPDEST DUP2 SLOAD DUP2 MSTORE SWAP1 PUSH1 0x1 ADD SWAP1 PUSH1 0x20 ADD DUP1 DUP4 GT PUSH2 0x486 JUMPI DUP3 SWAP1 SUB PUSH1 0x1F AND DUP3 ADD SWAP2 JUMPDEST POP POP POP POP POP SWAP1 DUP1 PUSH1 0x4 ADD PUSH0 SWAP1 SLOAD SWAP1 PUSH2 0x100 EXP SWAP1 DIV PUSH1 0xFF AND SWAP1 POP DUP4 JUMP JUMPDEST PUSH0 DUP3 DUP2 SLOAD DUP2 LT PUSH2 0x4D2 JUMPI PUSH2 0x4D1 PUSH2 0x126D JUMP JUMPDEST JUMPDEST SWAP1 PUSH0 MSTORE PUSH1 0x20 PUSH0 KECCAK256 SWAP1 PUSH1 0x5 MUL ADD PUSH1 0x4 ADD PUSH0 SWAP1 SLOAD SWAP1 PUSH2 0x100 EXP SWAP1 DIV PUSH1 0xFF AND PUSH2 0x52D JUMPI PUSH1 0x40 MLOAD PUSH32 0x8C379A000000000000000000000000000000000000000000000000000000000 DUP2 MSTORE PUSH1 0x4 ADD PUSH2 0x524 SWAP1 PUSH2 0x12E4 JUMP JUMPDEST PUSH1 0x40 MLOAD DUP1 SWAP2 SUB SWAP1 REVERT JUMPDEST PUSH1 0x2 PUSH0 SWAP1 SLOAD SWAP1 PUSH2 0x100 EXP SWAP1 DIV PUSH20 0xFFFFFFFFFFFFFFFFFFFFFFFFFFFFFFFFFFFFFFFF AND PUSH20 0xFFFFFFFFFFFFFFFFFFFFFFFFFFFFFFFFFFFFFFFF AND PUSH4 0x2EC15480 DUP4 PUSH1 0x40 MLOAD DUP3 PUSH4 0xFFFFFFFF AND PUSH1 0xE0 SHL DUP2 MSTORE PUSH1 0x4 ADD PUSH2 0x587 SWAP2 SWAP1 PUSH2 0x1302 JUMP JUMPDEST PUSH1 0x20 PUSH1 0x40 MLOAD DUP1 DUP4 SUB DUP2 DUP7 GAS STATICCALL ISZERO DUP1 ISZERO PUSH2 0x5A2 JUMPI RETURNDATASIZE PUSH0 DUP1 RETURNDATACOPY RETURNDATASIZE PUSH0 REVERT JUMPDEST POP POP POP POP PUSH1 0x40 MLOAD RETURNDATASIZE PUSH1 0x1F NOT PUSH1 0x1F DUP3 ADD AND DUP3 ADD DUP1 PUSH1 0x40 MSTORE POP DUP2 ADD SWAP1 PUSH2 0x5C6 SWAP2 SWAP1 PUSH2 0x1345 JUMP JUMPDEST PUSH2 0x605 JUMPI PUSH1 0x40 MLOAD PUSH32 0x8C379A000000000000000000000000000000000000000000000000000000000 DUP2 MSTORE PUSH1 0x4 ADD PUSH2 0x5FC SWAP1 PUSH2 0x13BA JUMP JUMPDEST PUSH1 0x40 MLOAD DUP1 SWAP2 SUB SWAP1 REVERT JUMPDEST PUSH0 DUP3 DUP2 SLOAD DUP2 LT PUSH2 0x618 JUMPI PUSH2 0x617 PUSH2 0x126D JUMP JUMPDEST JUMPDEST SWAP1 PUSH0 MSTORE PUSH1 0x20 PUSH0 KECCAK256 SWAP1 PUSH1 0x5 MUL ADD PUSH1 0x2 ADD DUP1 SLOAD SWAP1 POP DUP2 LT PUSH2 0x66C JUMPI PUSH1 0x40 MLOAD PUSH32 0x8C379A000000000000000000000000000000000000000000000000000000000 DUP2 MSTORE PUSH1 0x4 ADD PUSH2 0x663 SWAP1 PUSH2 0x1422 JUMP JUMPDEST PUSH1 0x40 MLOAD DUP1 SWAP2 SUB SWAP1 REVERT JUMPDEST PUSH1 0x3 PUSH0 SWAP1 SLOAD SWAP1 PUSH2 0x100 EXP SWAP1 DIV PUSH20 0xFFFFFFFFFFFFFFFFFFFFFFFFFFFFFFFFFFFFFFFF AND PUSH20 0xFFFFFFFFFFFFFFFFFFFFFFFFFFFFFFFFFFFFFFFF AND PUSH4 0x77A249E2 DUP4 CALLER PUSH1 0x40 MLOAD DUP4 PUSH4 0xFFFFFFFF AND PUSH1 0xE0 SHL DUP2 MSTORE PUSH1 0x4 ADD PUSH2 0x6C8 SWAP3 SWAP2 SWAP1 PUSH2 0x1460 JUMP JUMPDEST PUSH1 0x20 PUSH1 0x40 MLOAD DUP1 DUP4 SUB DUP2 DUP7 GAS STATICCALL ISZERO DUP1 ISZERO PUSH2 0x6E3 JUMPI RETURNDATASIZE PUSH0 DUP1 RETURNDATACOPY RETURNDATASIZE PUSH0 REVERT JUMPDEST POP POP POP POP PUSH1 0x40 MLOAD RETURNDATASIZE PUSH1 0x1F NOT PUSH1 0x1F DUP3 ADD AND DUP3 ADD DUP1 PUSH1 0x40 MSTORE POP DUP2 ADD SWAP1 PUSH2 0x707 SWAP2 SWAP1 PUSH2 0x1345 JUMP JUMPDEST ISZERO PUSH2 0x747 JUMPI PUSH1 0x40 MLOAD PUSH32 0x8C379A000000000000000000000000000000000000000000000000000000000 DUP2 MSTORE PUSH1 0x4 ADD PUSH2 0x73E SWAP1 PUSH2 0x14F7 JUMP JUMPDEST PUSH1 0x40 MLOAD DUP1 SWAP2 SUB SWAP1 REVERT JUMPDEST PUSH1 0x3 PUSH0 SWAP1 SLOAD SWAP1 PUSH2 0x100 EXP SWAP1 DIV PUSH20 0xFFFFFFFFFFFFFFFFFFFFFFFFFFFFFFFFFFFFFFFF AND PUSH20 0xFFFFFFFFFFFFFFFFFFFFFFFFFFFFFFFFFFFFFFFF AND PUSH4 0x89CE58FD DUP4 CALLER PUSH1 0x40 MLOAD DUP4 PUSH4 0xFFFFFFFF AND PUSH1 0xE0 SHL DUP2 MSTORE PUSH1 0x4 ADD PUSH2 0x7A3 SWAP3 SWAP2 SWAP1 PUSH2 0x1460 JUMP JUMPDEST PUSH0 PUSH1 0x40 MLOAD DUP1 DUP4 SUB DUP2 PUSH0 DUP8 DUP1 EXTCODESIZE ISZERO DUP1 ISZERO PUSH2 0x7BA JUMPI PUSH0 DUP1 REVERT JUMPDEST POP GAS CALL ISZERO DUP1 ISZERO PUSH2 0x7CC JUMPI RETURNDATASIZE PUSH0 DUP1 RETURNDATACOPY RETURNDATASIZE PUSH0 REVERT JUMPDEST POP POP POP POP PUSH0 DUP3 DUP2 SLOAD DUP2 LT PUSH2 0x7E3 JUMPI PUSH2 0x7E2 PUSH2 0x126D JUMP JUMPDEST JUMPDEST SWAP1 PUSH0 MSTORE PUSH1 0x20 PUSH0 KECCAK256 SWAP1 PUSH1 0x5 MUL ADD PUSH1 0x3 ADD PUSH0 DUP3 DUP2 MSTORE PUSH1 0x20 ADD SWAP1 DUP2 MSTORE PUSH1 0x20 ADD PUSH0 KECCAK256 PUSH0 DUP2 SLOAD DUP1 SWAP3 SWAP2 SWAP1 PUSH2 0x811 SWAP1 PUSH2 0x1515 JUMP JUMPDEST SWAP2 SWAP1 POP SSTORE POP POP POP JUMP JUMPDEST PUSH1 0x1 PUSH0 SWAP1 SLOAD SWAP1 PUSH2 0x100 EXP SWAP1 DIV PUSH20 0xFFFFFFFFFFFFFFFFFFFFFFFFFFFFFFFFFFFFFFFF AND DUP2 JUMP JUMPDEST DUP3 DUP1 SLOAD DUP3 DUP3 SSTORE SWAP1 PUSH0 MSTORE PUSH1 0x20 PUSH0 KECCAK256 SWAP1 DUP2 ADD SWAP3 DUP3 ISZERO PUSH2 0x885 JUMPI SWAP2 PUSH1 0x20 MUL DUP3 ADD JUMPDEST DUP3 DUP2 GT ISZERO PUSH2 0x884 JUMPI DUP3 MLOAD DUP3 SWAP1 DUP2 PUSH2 0x874 SWAP2 SWAP1 PUSH2 0x1170 JUMP JUMPDEST POP SWAP2 PUSH1 0x20 ADD SWAP2 SWAP1 PUSH1 0x1 ADD SWAP1 PUSH2 0x85D JUMP JUMPDEST JUMPDEST POP SWAP1 POP PUSH2 0x892 SWAP2 SWAP1 PUSH2 0x896 JUMP JUMPDEST POP SWAP1 JUMP JUMPDEST JUMPDEST DUP1 DUP3 GT ISZERO PUSH2 0x8B5 JUMPI PUSH0 DUP2 DUP2 PUSH2 0x8AC SWAP2 SWAP1 PUSH2 0x8B9 JUMP JUMPDEST POP PUSH1 0x1 ADD PUSH2 0x897 JUMP JUMPDEST POP SWAP1 JUMP JUMPDEST POP DUP1 SLOAD PUSH2 0x8C5 SWAP1 PUSH2 0xFA3 JUMP JUMPDEST PUSH0 DUP3 SSTORE DUP1 PUSH1 0x1F LT PUSH2 0x8D6 JUMPI POP PUSH2 0x8F3 JUMP JUMPDEST PUSH1 0x1F ADD PUSH1 0x20 SWAP1 DIV SWAP1 PUSH0 MSTORE PUSH1 0x20 PUSH0 KECCAK256 SWAP1 DUP2 ADD SWAP1 PUSH2 0x8F2 SWAP2 SWAP1 PUSH2 0x8F6 JUMP JUMPDEST JUMPDEST POP JUMP JUMPDEST JUMPDEST DUP1 DUP3 GT ISZERO PUSH2 0x90D JUMPI PUSH0 DUP2 PUSH0 SWAP1 SSTORE POP PUSH1 0x1 ADD PUSH2 0x8F7 JUMP JUMPDEST POP SWAP1 JUMP JUMPDEST PUSH0 PUSH1 0x40 MLOAD SWAP1 POP SWAP1 JUMP JUMPDEST PUSH0 DUP1 REVERT JUMPDEST PUSH0 DUP1 REVERT JUMPDEST PUSH0 DUP1 REVERT JUMPDEST PUSH0 DUP1 REVERT JUMPDEST PUSH0 PUSH1 0x1F NOT PUSH1 0x1F DUP4 ADD AND SWAP1 POP SWAP2 SWAP1 POP JUMP JUMPDEST PUSH32 0x4E487B7100000000000000000000000000000000000000000000000000000000 PUSH0 MSTORE PUSH1 0x41 PUSH1 0x4 MSTORE PUSH1 0x24 PUSH0 REVERT JUMPDEST PUSH2 0x970 DUP3 PUSH2 0x92A JUMP JUMPDEST DUP2 ADD DUP2 DUP2 LT PUSH8 0xFFFFFFFFFFFFFFFF DUP3 GT OR ISZERO PUSH2 0x98F JUMPI PUSH2 0x98E PUSH2 0x93A JUMP JUMPDEST JUMPDEST DUP1 PUSH1 0x40 MSTORE POP POP POP JUMP JUMPDEST PUSH0 PUSH2 0x9A1 PUSH2 0x911 JUMP JUMPDEST SWAP1 POP PUSH2 0x9AD DUP3 DUP3 PUSH2 0x967 JUMP JUMPDEST SWAP2 SWAP1 POP JUMP JUMPDEST PUSH0 PUSH8 0xFFFFFFFFFFFFFFFF DUP3 GT ISZERO PUSH2 0x9CC JUMPI PUSH2 0x9CB PUSH2 0x93A JUMP JUMPDEST JUMPDEST PUSH2 0x9D5 DUP3 PUSH2 0x92A JUMP JUMPDEST SWAP1 POP PUSH1 0x20 DUP2 ADD SWAP1 POP SWAP2 SWAP1 POP JUMP JUMPDEST DUP3 DUP2 DUP4 CALLDATACOPY PUSH0 DUP4 DUP4 ADD MSTORE POP POP POP JUMP JUMPDEST PUSH0 PUSH2 0xA02 PUSH2 0x9FD DUP5 PUSH2 0x9B2 JUMP JUMPDEST PUSH2 0x998 JUMP JUMPDEST SWAP1 POP DUP3 DUP2 MSTORE PUSH1 0x20 DUP2 ADD DUP5 DUP5 DUP5 ADD GT ISZERO PUSH2 0xA1E JUMPI PUSH2 0xA1D PUSH2 0x926 JUMP JUMPDEST JUMPDEST PUSH2 0xA29 DUP5 DUP3 DUP6 PUSH2 0x9E2 JUMP JUMPDEST POP SWAP4 SWAP3 POP POP POP JUMP JUMPDEST PUSH0 DUP3 PUSH1 0x1F DUP4 ADD SLT PUSH2 0xA45 JUMPI PUSH2 0xA44 PUSH2 0x922 JUMP JUMPDEST JUMPDEST DUP2 CALLDATALOAD PUSH2 0xA55 DUP5 DUP3 PUSH1 0x20 DUP7 ADD PUSH2 0x9F0 JUMP JUMPDEST SWAP2 POP POP SWAP3 SWAP2 POP POP JUMP JUMPDEST PUSH0 PUSH8 0xFFFFFFFFFFFFFFFF DUP3 GT ISZERO PUSH2 0xA78 JUMPI PUSH2 0xA77 PUSH2 0x93A JUMP JUMPDEST JUMPDEST PUSH1 0x20 DUP3 MUL SWAP1 POP PUSH1 0x20 DUP2 ADD SWAP1 POP SWAP2 SWAP1 POP JUMP JUMPDEST PUSH0 DUP1 REVERT JUMPDEST PUSH0 PUSH2 0xA9F PUSH2 0xA9A DUP5 PUSH2 0xA5E JUMP JUMPDEST PUSH2 0x998 JUMP JUMPDEST SWAP1 POP DUP1 DUP4 DUP3 MSTORE PUSH1 0x20 DUP3 ADD SWAP1 POP PUSH1 0x20 DUP5 MUL DUP4 ADD DUP6 DUP2 GT ISZERO PUSH2 0xAC2 JUMPI PUSH2 0xAC1 PUSH2 0xA89 JUMP JUMPDEST JUMPDEST DUP4 JUMPDEST DUP2 DUP2 LT ISZERO PUSH2 0xB09 JUMPI DUP1 CALLDATALOAD PUSH8 0xFFFFFFFFFFFFFFFF DUP2 GT ISZERO PUSH2 0xAE7 JUMPI PUSH2 0xAE6 PUSH2 0x922 JUMP JUMPDEST JUMPDEST DUP1 DUP7 ADD PUSH2 0xAF4 DUP10 DUP3 PUSH2 0xA31 JUMP JUMPDEST DUP6 MSTORE PUSH1 0x20 DUP6 ADD SWAP5 POP POP POP PUSH1 0x20 DUP2 ADD SWAP1 POP PUSH2 0xAC4 JUMP JUMPDEST POP POP POP SWAP4 SWAP3 POP POP POP JUMP JUMPDEST PUSH0 DUP3 PUSH1 0x1F DUP4 ADD SLT PUSH2 0xB27 JUMPI PUSH2 0xB26 PUSH2 0x922 JUMP JUMPDEST JUMPDEST DUP2 CALLDATALOAD PUSH2 0xB37 DUP5 DUP3 PUSH1 0x20 DUP7 ADD PUSH2 0xA8D JUMP JUMPDEST SWAP2 POP POP SWAP3 SWAP2 POP POP JUMP JUMPDEST PUSH0 DUP1 PUSH1 0x40 DUP4 DUP6 SUB SLT ISZERO PUSH2 0xB56 JUMPI PUSH2 0xB55 PUSH2 0x91A JUMP JUMPDEST JUMPDEST PUSH0 DUP4 ADD CALLDATALOAD PUSH8 0xFFFFFFFFFFFFFFFF DUP2 GT ISZERO PUSH2 0xB73 JUMPI PUSH2 0xB72 PUSH2 0x91E JUMP JUMPDEST JUMPDEST PUSH2 0xB7F DUP6 DUP3 DUP7 ADD PUSH2 0xA31 JUMP JUMPDEST SWAP3 POP POP PUSH1 0x20 DUP4 ADD CALLDATALOAD PUSH8 0xFFFFFFFFFFFFFFFF DUP2 GT ISZERO PUSH2 0xBA0 JUMPI PUSH2 0xB9F PUSH2 0x91E JUMP JUMPDEST JUMPDEST PUSH2 0xBAC DUP6 DUP3 DUP7 ADD PUSH2 0xB13 JUMP JUMPDEST SWAP2 POP POP SWAP3 POP SWAP3 SWAP1 POP JUMP JUMPDEST PUSH0 DUP2 SWAP1 POP SWAP2 SWAP1 POP JUMP JUMPDEST PUSH2 0xBC8 DUP2 PUSH2 0xBB6 JUMP JUMPDEST DUP2 EQ PUSH2 0xBD2 JUMPI PUSH0 DUP1 REVERT JUMPDEST POP JUMP JUMPDEST PUSH0 DUP2 CALLDATALOAD SWAP1 POP PUSH2 0xBE3 DUP2 PUSH2 0xBBF JUMP JUMPDEST SWAP3 SWAP2 POP POP JUMP JUMPDEST PUSH0 PUSH1 0x20 DUP3 DUP5 SUB SLT ISZERO PUSH2 0xBFE JUMPI PUSH2 0xBFD PUSH2 0x91A JUMP JUMPDEST JUMPDEST PUSH0 PUSH2 0xC0B DUP5 DUP3 DUP6 ADD PUSH2 0xBD5 JUMP JUMPDEST SWAP2 POP POP SWAP3 SWAP2 POP POP JUMP JUMPDEST PUSH0 DUP2 MLOAD SWAP1 POP SWAP2 SWAP1 POP JUMP JUMPDEST PUSH0 DUP3 DUP3 MSTORE PUSH1 0x20 DUP3 ADD SWAP1 POP SWAP3 SWAP2 POP POP JUMP JUMPDEST PUSH0 DUP2 SWAP1 POP PUSH1 0x20 DUP3 ADD SWAP1 POP SWAP2 SWAP1 POP JUMP JUMPDEST PUSH2 0xC46 DUP2 PUSH2 0xBB6 JUMP JUMPDEST DUP3 MSTORE POP POP JUMP JUMPDEST PUSH0 PUSH2 0xC57 DUP4 DUP4 PUSH2 0xC3D JUMP JUMPDEST PUSH1 0x20 DUP4 ADD SWAP1 POP SWAP3 SWAP2 POP POP JUMP JUMPDEST PUSH0 PUSH1 0x20 DUP3 ADD SWAP1 POP SWAP2 SWAP1 POP JUMP JUMPDEST PUSH0 PUSH2 0xC79 DUP3 PUSH2 0xC14 JUMP JUMPDEST PUSH2 0xC83 DUP2 DUP6 PUSH2 0xC1E JUMP JUMPDEST SWAP4 POP PUSH2 0xC8E DUP4 PUSH2 0xC2E JUMP JUMPDEST DUP1 PUSH0 JUMPDEST DUP4 DUP2 LT ISZERO PUSH2 0xCBE JUMPI DUP2 MLOAD PUSH2 0xCA5 DUP9 DUP3 PUSH2 0xC4C JUMP JUMPDEST SWAP8 POP PUSH2 0xCB0 DUP4 PUSH2 0xC63 JUMP JUMPDEST SWAP3 POP POP PUSH1 0x1 DUP2 ADD SWAP1 POP PUSH2 0xC91 JUMP JUMPDEST POP DUP6 SWAP4 POP POP POP POP SWAP3 SWAP2 POP POP JUMP JUMPDEST PUSH0 PUSH1 0x20 DUP3 ADD SWAP1 POP DUP2 DUP2 SUB PUSH0 DUP4 ADD MSTORE PUSH2 0xCE3 DUP2 DUP5 PUSH2 0xC6F JUMP JUMPDEST SWAP1 POP SWAP3 SWAP2 POP POP JUMP JUMPDEST PUSH2 0xCF4 DUP2 PUSH2 0xBB6 JUMP JUMPDEST DUP3 MSTORE POP POP JUMP JUMPDEST PUSH0 DUP2 MLOAD SWAP1 POP SWAP2 SWAP1 POP JUMP JUMPDEST PUSH0 DUP3 DUP3 MSTORE PUSH1 0x20 DUP3 ADD SWAP1 POP SWAP3 SWAP2 POP POP JUMP JUMPDEST DUP3 DUP2 DUP4 MCOPY PUSH0 DUP4 DUP4 ADD MSTORE POP POP POP JUMP JUMPDEST PUSH0 PUSH2 0xD2C DUP3 PUSH2 0xCFA JUMP JUMPDEST PUSH2 0xD36 DUP2 DUP6 PUSH2 0xD04 JUMP JUMPDEST SWAP4 POP PUSH2 0xD46 DUP2 DUP6 PUSH1 0x20 DUP7 ADD PUSH2 0xD14 JUMP JUMPDEST PUSH2 0xD4F DUP2 PUSH2 0x92A JUMP JUMPDEST DUP5 ADD SWAP2 POP POP SWAP3 SWAP2 POP POP JUMP JUMPDEST PUSH0 DUP2 ISZERO ISZERO SWAP1 POP SWAP2 SWAP1 POP JUMP JUMPDEST PUSH2 0xD6E DUP2 PUSH2 0xD5A JUMP JUMPDEST DUP3 MSTORE POP POP JUMP JUMPDEST PUSH0 PUSH1 0x60 DUP3 ADD SWAP1 POP PUSH2 0xD87 PUSH0 DUP4 ADD DUP7 PUSH2 0xCEB JUMP JUMPDEST DUP2 DUP2 SUB PUSH1 0x20 DUP4 ADD MSTORE PUSH2 0xD99 DUP2 DUP6 PUSH2 0xD22 JUMP JUMPDEST SWAP1 POP PUSH2 0xDA8 PUSH1 0x40 DUP4 ADD DUP5 PUSH2 0xD65 JUMP JUMPDEST SWAP5 SWAP4 POP POP POP POP JUMP JUMPDEST PUSH0 DUP1 PUSH1 0x40 DUP4 DUP6 SUB SLT ISZERO PUSH2 0xDC6 JUMPI PUSH2 0xDC5 PUSH2 0x91A JUMP JUMPDEST JUMPDEST PUSH0 PUSH2 0xDD3 DUP6 DUP3 DUP7 ADD PUSH2 0xBD5 JUMP JUMPDEST SWAP3 POP POP PUSH1 0x20 PUSH2 0xDE4 DUP6 DUP3 DUP7 ADD PUSH2 0xBD5 JUMP JUMPDEST SWAP2 POP POP SWAP3 POP SWAP3 SWAP1 POP JUMP JUMPDEST PUSH0 PUSH20 0xFFFFFFFFFFFFFFFFFFFFFFFFFFFFFFFFFFFFFFFF DUP3 AND SWAP1 POP SWAP2 SWAP1 POP JUMP JUMPDEST PUSH0 PUSH2 0xE17 DUP3 PUSH2 0xDEE JUMP JUMPDEST SWAP1 POP SWAP2 SWAP1 POP JUMP JUMPDEST PUSH2 0xE27 DUP2 PUSH2 0xE0D JUMP JUMPDEST DUP3 MSTORE POP POP JUMP JUMPDEST PUSH0 PUSH1 0x20 DUP3 ADD SWAP1 POP PUSH2 0xE40 PUSH0 DUP4 ADD DUP5 PUSH2 0xE1E JUMP JUMPDEST SWAP3 SWAP2 POP POP JUMP JUMPDEST PUSH32 0x4F6E6C792061646D696E2063616E2063726561746520706F6C6C730000000000 PUSH0 DUP3 ADD MSTORE POP JUMP JUMPDEST PUSH0 PUSH2 0xE7A PUSH1 0x1B DUP4 PUSH2 0xD04 JUMP JUMPDEST SWAP2 POP PUSH2 0xE85 DUP3 PUSH2 0xE46 JUMP JUMPDEST PUSH1 0x20 DUP3 ADD SWAP1 POP SWAP2 SWAP1 POP JUMP JUMPDEST PUSH0 PUSH1 0x20 DUP3 ADD SWAP1 POP DUP2 DUP2 SUB PUSH0 DUP4 ADD MSTORE PUSH2 0xEA7 DUP2 PUSH2 0xE6E JUMP JUMPDEST SWAP1 POP SWAP2 SWAP1 POP JUMP JUMPDEST PUSH32 0x4F6E6C792061646D696E2063616E2063726561746520706F6C6C732E00000000 PUSH0 DUP3 ADD MSTORE POP JUMP JUMPDEST PUSH0 PUSH2 0xEE2 PUSH1 0x1C DUP4 PUSH2 0xD04 JUMP JUMPDEST SWAP2 POP PUSH2 0xEED DUP3 PUSH2 0xEAE JUMP JUMPDEST PUSH1 0x20 DUP3 ADD SWAP1 POP SWAP2 SWAP1 POP JUMP JUMPDEST PUSH0 PUSH1 0x20 DUP3 ADD SWAP1 POP DUP2 DUP2 SUB PUSH0 DUP4 ADD MSTORE PUSH2 0xF0F DUP2 PUSH2 0xED6 JUMP JUMPDEST SWAP1 POP SWAP2 SWAP1 POP JUMP JUMPDEST PUSH32 0x4E487B7100000000000000000000000000000000000000000000000000000000 PUSH0 MSTORE PUSH1 0x11 PUSH1 0x4 MSTORE PUSH1 0x24 PUSH0 REVERT JUMPDEST PUSH0 PUSH2 0xF4D DUP3 PUSH2 0xBB6 JUMP JUMPDEST SWAP2 POP PUSH2 0xF58 DUP4 PUSH2 0xBB6 JUMP JUMPDEST SWAP3 POP DUP3 DUP3 SUB SWAP1 POP DUP2 DUP2 GT ISZERO PUSH2 0xF70 JUMPI PUSH2 0xF6F PUSH2 0xF16 JUMP JUMPDEST JUMPDEST SWAP3 SWAP2 POP POP JUMP JUMPDEST PUSH32 0x4E487B7100000000000000000000000000000000000000000000000000000000 PUSH0 MSTORE PUSH1 0x22 PUSH1 0x4 MSTORE PUSH1 0x24 PUSH0 REVERT JUMPDEST PUSH0 PUSH1 0x2 DUP3 DIV SWAP1 POP PUSH1 0x1 DUP3 AND DUP1 PUSH2 0xFBA JUMPI PUSH1 0x7F DUP3 AND SWAP2 POP JUMPDEST PUSH1 0x20 DUP3 LT DUP2 SUB PUSH2 0xFCD JUMPI PUSH2 0xFCC PUSH2 0xF76 JUMP JUMPDEST JUMPDEST POP SWAP2 SWAP1 POP JUMP JUMPDEST PUSH0 DUP2 SWAP1 POP DUP2 PUSH0 MSTORE PUSH1 0x20 PUSH0 KECCAK256 SWAP1 POP SWAP2 SWAP1 POP JUMP JUMPDEST PUSH0 PUSH1 0x20 PUSH1 0x1F DUP4 ADD DIV SWAP1 POP SWAP2 SWAP1 POP JUMP JUMPDEST PUSH0 DUP3 DUP3 SHL SWAP1 POP SWAP3 SWAP2 POP POP JUMP JUMPDEST PUSH0 PUSH1 0x8 DUP4 MUL PUSH2 0x102F PUSH32 0xFFFFFFFFFFFFFFFFFFFFFFFFFFFFFFFFFFFFFFFFFFFFFFFFFFFFFFFFFFFFFFFF DUP3 PUSH2 0xFF4 JUMP JUMPDEST PUSH2 0x1039 DUP7 DUP4 PUSH2 0xFF4 JUMP JUMPDEST SWAP6 POP DUP1 NOT DUP5 AND SWAP4 POP DUP1 DUP7 AND DUP5 OR SWAP3 POP POP POP SWAP4 SWAP3 POP POP POP JUMP JUMPDEST PUSH0 DUP2 SWAP1 POP SWAP2 SWAP1 POP JUMP JUMPDEST PUSH0 PUSH2 0x1074 PUSH2 0x106F PUSH2 0x106A DUP5 PUSH2 0xBB6 JUMP JUMPDEST PUSH2 0x1051 JUMP JUMPDEST PUSH2 0xBB6 JUMP JUMPDEST SWAP1 POP SWAP2 SWAP1 POP JUMP JUMPDEST PUSH0 DUP2 SWAP1 POP SWAP2 SWAP1 POP JUMP JUMPDEST PUSH2 0x108D DUP4 PUSH2 0x105A JUMP JUMPDEST PUSH2 0x10A1 PUSH2 0x1099 DUP3 PUSH2 0x107B JUMP JUMPDEST DUP5 DUP5 SLOAD PUSH2 0x1000 JUMP JUMPDEST DUP3 SSTORE POP POP POP POP JUMP JUMPDEST PUSH0 SWAP1 JUMP JUMPDEST PUSH2 0x10B5 PUSH2 0x10A9 JUMP JUMPDEST PUSH2 0x10C0 DUP2 DUP5 DUP5 PUSH2 0x1084 JUMP JUMPDEST POP POP POP JUMP JUMPDEST JUMPDEST DUP2 DUP2 LT ISZERO PUSH2 0x10E3 JUMPI PUSH2 0x10D8 PUSH0 DUP3 PUSH2 0x10AD JUMP JUMPDEST PUSH1 0x1 DUP2 ADD SWAP1 POP PUSH2 0x10C6 JUMP JUMPDEST POP POP JUMP JUMPDEST PUSH1 0x1F DUP3 GT ISZERO PUSH2 0x1128 JUMPI PUSH2 0x10F9 DUP2 PUSH2 0xFD3 JUMP JUMPDEST PUSH2 0x1102 DUP5 PUSH2 0xFE5 JUMP JUMPDEST DUP2 ADD PUSH1 0x20 DUP6 LT ISZERO PUSH2 0x1111 JUMPI DUP2 SWAP1 POP JUMPDEST PUSH2 0x1125 PUSH2 0x111D DUP6 PUSH2 0xFE5 JUMP JUMPDEST DUP4 ADD DUP3 PUSH2 0x10C5 JUMP JUMPDEST POP POP JUMPDEST POP POP POP JUMP JUMPDEST PUSH0 DUP3 DUP3 SHR SWAP1 POP SWAP3 SWAP2 POP POP JUMP JUMPDEST PUSH0 PUSH2 0x1148 PUSH0 NOT DUP5 PUSH1 0x8 MUL PUSH2 0x112D JUMP JUMPDEST NOT DUP1 DUP4 AND SWAP2 POP POP SWAP3 SWAP2 POP POP JUMP JUMPDEST PUSH0 PUSH2 0x1160 DUP4 DUP4 PUSH2 0x1139 JUMP JUMPDEST SWAP2 POP DUP3 PUSH1 0x2 MUL DUP3 OR SWAP1 POP SWAP3 SWAP2 POP POP JUMP JUMPDEST PUSH2 0x1179 DUP3 PUSH2 0xCFA JUMP JUMPDEST PUSH8 0xFFFFFFFFFFFFFFFF DUP2 GT ISZERO PUSH2 0x1192 JUMPI PUSH2 0x1191 PUSH2 0x93A JUMP JUMPDEST JUMPDEST PUSH2 0x119C DUP3 SLOAD PUSH2 0xFA3 JUMP JUMPDEST PUSH2 0x11A7 DUP3 DUP3 DUP6 PUSH2 0x10E7 JUMP JUMPDEST PUSH0 PUSH1 0x20 SWAP1 POP PUSH1 0x1F DUP4 GT PUSH1 0x1 DUP2 EQ PUSH2 0x11D8 JUMPI PUSH0 DUP5 ISZERO PUSH2 0x11C6 JUMPI DUP3 DUP8 ADD MLOAD SWAP1 POP JUMPDEST PUSH2 0x11D0 DUP6 DUP3 PUSH2 0x1155 JUMP JUMPDEST DUP7 SSTORE POP PUSH2 0x1237 JUMP JUMPDEST PUSH1 0x1F NOT DUP5 AND PUSH2 0x11E6 DUP7 PUSH2 0xFD3 JUMP JUMPDEST PUSH0 JUMPDEST DUP3 DUP2 LT ISZERO PUSH2 0x120D JUMPI DUP5 DUP10 ADD MLOAD DUP3 SSTORE PUSH1 0x1 DUP3 ADD SWAP2 POP PUSH1 0x20 DUP6 ADD SWAP5 POP PUSH1 0x20 DUP2 ADD SWAP1 POP PUSH2 0x11E8 JUMP JUMPDEST DUP7 DUP4 LT ISZERO PUSH2 0x122A JUMPI DUP5 DUP10 ADD MLOAD PUSH2 0x1226 PUSH1 0x1F DUP10 AND DUP3 PUSH2 0x1139 JUMP JUMPDEST DUP4 SSTORE POP JUMPDEST PUSH1 0x1 PUSH1 0x2 DUP9 MUL ADD DUP9 SSTORE POP POP POP JUMPDEST POP POP POP POP POP POP JUMP JUMPDEST PUSH0 PUSH1 0x40 DUP3 ADD SWAP1 POP PUSH2 0x1252 PUSH0 DUP4 ADD DUP6 PUSH2 0xCEB JUMP JUMPDEST DUP2 DUP2 SUB PUSH1 0x20 DUP4 ADD MSTORE PUSH2 0x1264 DUP2 DUP5 PUSH2 0xD22 JUMP JUMPDEST SWAP1 POP SWAP4 SWAP3 POP POP POP JUMP JUMPDEST PUSH32 0x4E487B7100000000000000000000000000000000000000000000000000000000 PUSH0 MSTORE PUSH1 0x32 PUSH1 0x4 MSTORE PUSH1 0x24 PUSH0 REVERT JUMPDEST PUSH32 0x5468697320706F6C6C206973206E6F74206163746976652E0000000000000000 PUSH0 DUP3 ADD MSTORE POP JUMP JUMPDEST PUSH0 PUSH2 0x12CE PUSH1 0x18 DUP4 PUSH2 0xD04 JUMP JUMPDEST SWAP2 POP PUSH2 0x12D9 DUP3 PUSH2 0x129A JUMP JUMPDEST PUSH1 0x20 DUP3 ADD SWAP1 POP SWAP2 SWAP1 POP JUMP JUMPDEST PUSH0 PUSH1 0x20 DUP3 ADD SWAP1 POP DUP2 DUP2 SUB PUSH0 DUP4 ADD MSTORE PUSH2 0x12FB DUP2 PUSH2 0x12C2 JUMP JUMPDEST SWAP1 POP SWAP2 SWAP1 POP JUMP JUMPDEST PUSH0 PUSH1 0x20 DUP3 ADD SWAP1 POP PUSH2 0x1315 PUSH0 DUP4 ADD DUP5 PUSH2 0xCEB JUMP JUMPDEST SWAP3 SWAP2 POP POP JUMP JUMPDEST PUSH2 0x1324 DUP2 PUSH2 0xD5A JUMP JUMPDEST DUP2 EQ PUSH2 0x132E JUMPI PUSH0 DUP1 REVERT JUMPDEST POP JUMP JUMPDEST PUSH0 DUP2 MLOAD SWAP1 POP PUSH2 0x133F DUP2 PUSH2 0x131B JUMP JUMPDEST SWAP3 SWAP2 POP POP JUMP JUMPDEST PUSH0 PUSH1 0x20 DUP3 DUP5 SUB SLT ISZERO PUSH2 0x135A JUMPI PUSH2 0x1359 PUSH2 0x91A JUMP JUMPDEST JUMPDEST PUSH0 PUSH2 0x1367 DUP5 DUP3 DUP6 ADD PUSH2 0x1331 JUMP JUMPDEST SWAP2 POP POP SWAP3 SWAP2 POP POP JUMP JUMPDEST PUSH32 0x506F6C6C206973206E6F742063757272656E746C79206163746976652E000000 PUSH0 DUP3 ADD MSTORE POP JUMP JUMPDEST PUSH0 PUSH2 0x13A4 PUSH1 0x1D DUP4 PUSH2 0xD04 JUMP JUMPDEST SWAP2 POP PUSH2 0x13AF DUP3 PUSH2 0x1370 JUMP JUMPDEST PUSH1 0x20 DUP3 ADD SWAP1 POP SWAP2 SWAP1 POP JUMP JUMPDEST PUSH0 PUSH1 0x20 DUP3 ADD SWAP1 POP DUP2 DUP2 SUB PUSH0 DUP4 ADD MSTORE PUSH2 0x13D1 DUP2 PUSH2 0x1398 JUMP JUMPDEST SWAP1 POP SWAP2 SWAP1 POP JUMP JUMPDEST PUSH32 0x496E76616C6964206F7074696F6E2E0000000000000000000000000000000000 PUSH0 DUP3 ADD MSTORE POP JUMP JUMPDEST PUSH0 PUSH2 0x140C PUSH1 0xF DUP4 PUSH2 0xD04 JUMP JUMPDEST SWAP2 POP PUSH2 0x1417 DUP3 PUSH2 0x13D8 JUMP JUMPDEST PUSH1 0x20 DUP3 ADD SWAP1 POP SWAP2 SWAP1 POP JUMP JUMPDEST PUSH0 PUSH1 0x20 DUP3 ADD SWAP1 POP DUP2 DUP2 SUB PUSH0 DUP4 ADD MSTORE PUSH2 0x1439 DUP2 PUSH2 0x1400 JUMP JUMPDEST SWAP1 POP SWAP2 SWAP1 POP JUMP JUMPDEST PUSH0 PUSH2 0x144A DUP3 PUSH2 0xDEE JUMP JUMPDEST SWAP1 POP SWAP2 SWAP1 POP JUMP JUMPDEST PUSH2 0x145A DUP2 PUSH2 0x1440 JUMP JUMPDEST DUP3 MSTORE POP POP JUMP JUMPDEST PUSH0 PUSH1 0x40 DUP3 ADD SWAP1 POP PUSH2 0x1473 PUSH0 DUP4 ADD DUP6 PUSH2 0xCEB JUMP JUMPDEST PUSH2 0x1480 PUSH1 0x20 DUP4 ADD DUP5 PUSH2 0x1451 JUMP JUMPDEST SWAP4 SWAP3 POP POP POP JUMP JUMPDEST PUSH32 0x596F75206861766520616C726561647920766F74656420696E20746869732070 PUSH0 DUP3 ADD MSTORE PUSH32 0x6F6C6C2E00000000000000000000000000000000000000000000000000000000 PUSH1 0x20 DUP3 ADD MSTORE POP JUMP JUMPDEST PUSH0 PUSH2 0x14E1 PUSH1 0x24 DUP4 PUSH2 0xD04 JUMP JUMPDEST SWAP2 POP PUSH2 0x14EC DUP3 PUSH2 0x1487 JUMP JUMPDEST PUSH1 0x40 DUP3 ADD SWAP1 POP SWAP2 SWAP1 POP JUMP JUMPDEST PUSH0 PUSH1 0x20 DUP3 ADD SWAP1 POP DUP2 DUP2 SUB PUSH0 DUP4 ADD MSTORE PUSH2 0x150E DUP2 PUSH2 0x14D5 JUMP JUMPDEST SWAP1 POP SWAP2 SWAP1 POP JUMP JUMPDEST PUSH0 PUSH2 0x151F DUP3 PUSH2 0xBB6 JUMP JUMPDEST SWAP2 POP PUSH32 0xFFFFFFFFFFFFFFFFFFFFFFFFFFFFFFFFFFFFFFFFFFFFFFFFFFFFFFFFFFFFFFFF DUP3 SUB PUSH2 0x1551 JUMPI PUSH2 0x1550 PUSH2 0xF16 JUMP JUMPDEST JUMPDEST PUSH1 0x1 DUP3 ADD SWAP1 POP SWAP2 SWAP1 POP JUMP INVALID LOG2 PUSH5 0x6970667358 0x22 SLT KECCAK256 0x24 0xAA PUSH19 0x3C9A126E0C32CD197E632E3014B23A8457B1D1 KECCAK256 0x22 SWAP4 SGT 0xAC LT SMOD CALLDATASIZE SWAP16 SELFBALANCE PUSH5 0x736F6C6343 STOP ADDMOD NOT STOP CALLER "
				},
				"gasEstimates": {
					"creation": {
						"codeDepositCost": "1104400",
						"executionCost": "infinite",
						"totalCost": "infinite"
					},
					"external": {
						"admin()": "2574",
						"createPoll(string,string[])": "infinite",
						"getResults(uint256)": "infinite",
						"polls(uint256)": "infinite",
						"vote(uint256,uint256)": "infinite"
					}
				},
				"methodIdentifiers": {
					"admin()": "f851a440",
					"createPoll(string,string[])": "7e3d71c3",
					"getResults(uint256)": "81a60c0d",
					"polls(uint256)": "ac2f0074",
					"vote(uint256,uint256)": "b384abef"
				}
			},
			"storageLayout": {
				"storage": [
					{
						"astId": 109,
						"contract": "contracts/PollVoting.sol:PollVoting",
						"label": "polls",
						"offset": 0,
						"slot": "0",
						"type": "t_array(t_struct(Poll)105_storage)dyn_storage"
					},
					{
						"astId": 111,
						"contract": "contracts/PollVoting.sol:PollVoting",
						"label": "admin",
						"offset": 0,
						"slot": "1",
						"type": "t_address_payable"
					},
					{
						"astId": 114,
						"contract": "contracts/PollVoting.sol:PollVoting",
						"label": "timeManagement",
						"offset": 0,
						"slot": "2",
						"type": "t_contract(PollTimeManagement)87"
					},
					{
						"astId": 117,
						"contract": "contracts/PollVoting.sol:PollVoting",
						"label": "securityContract",
						"offset": 0,
						"slot": "3",
						"type": "t_contract(VotingSecurity)461"
					}
				],
				"types": {
					"t_address_payable": {
						"encoding": "inplace",
						"label": "address payable",
						"numberOfBytes": "20"
					},
					"t_array(t_string_storage)dyn_storage": {
						"base": "t_string_storage",
						"encoding": "dynamic_array",
						"label": "string[]",
						"numberOfBytes": "32"
					},
					"t_array(t_struct(Poll)105_storage)dyn_storage": {
						"base": "t_struct(Poll)105_storage",
						"encoding": "dynamic_array",
						"label": "struct PollVoting.Poll[]",
						"numberOfBytes": "32"
					},
					"t_bool": {
						"encoding": "inplace",
						"label": "bool",
						"numberOfBytes": "1"
					},
					"t_contract(PollTimeManagement)87": {
						"encoding": "inplace",
						"label": "contract PollTimeManagement",
						"numberOfBytes": "20"
					},
					"t_contract(VotingSecurity)461": {
						"encoding": "inplace",
						"label": "contract VotingSecurity",
						"numberOfBytes": "20"
					},
					"t_mapping(t_uint256,t_uint256)": {
						"encoding": "mapping",
						"key": "t_uint256",
						"label": "mapping(uint256 => uint256)",
						"numberOfBytes": "32",
						"value": "t_uint256"
					},
					"t_string_storage": {
						"encoding": "bytes",
						"label": "string",
						"numberOfBytes": "32"
					},
					"t_struct(Poll)105_storage": {
						"encoding": "inplace",
						"label": "struct PollVoting.Poll",
						"members": [
							{
								"astId": 93,
								"contract": "contracts/PollVoting.sol:PollVoting",
								"label": "id",
								"offset": 0,
								"slot": "0",
								"type": "t_uint256"
							},
							{
								"astId": 95,
								"contract": "contracts/PollVoting.sol:PollVoting",
								"label": "question",
								"offset": 0,
								"slot": "1",
								"type": "t_string_storage"
							},
							{
								"astId": 98,
								"contract": "contracts/PollVoting.sol:PollVoting",
								"label": "options",
								"offset": 0,
								"slot": "2",
								"type": "t_array(t_string_storage)dyn_storage"
							},
							{
								"astId": 102,
								"contract": "contracts/PollVoting.sol:PollVoting",
								"label": "votes",
								"offset": 0,
								"slot": "3",
								"type": "t_mapping(t_uint256,t_uint256)"
							},
							{
								"astId": 104,
								"contract": "contracts/PollVoting.sol:PollVoting",
								"label": "active",
								"offset": 0,
								"slot": "4",
								"type": "t_bool"
							}
						],
						"numberOfBytes": "160"
					},
					"t_uint256": {
						"encoding": "inplace",
						"label": "uint256",
						"numberOfBytes": "32"
					}
				}
			},
			"userdoc": {
				"kind": "user",
				"methods": {},
				"version": 1
			}
		}
	}
}