{
	"data": {
		"bytecode": {
			"linkReferences": {},
			"object": "608060405234801562000010575f80fd5b5060405162001c1838038062001c188339818101604052810190620000369190620000ed565b335f806101000a81548173ffffffffffffffffffffffffffffffffffffffff021916908373ffffffffffffffffffffffffffffffffffffffff160217905550620d2f00426200008691906200014a565b600181905550621a5e00426200009d91906200014a565b600281905550806007819055505062000184565b5f80fd5b5f819050919050565b620000c981620000b5565b8114620000d4575f80fd5b50565b5f81519050620000e781620000be565b92915050565b5f60208284031215620001055762000104620000b1565b5b5f6200011484828501620000d7565b91505092915050565b7f4e487b71000000000000000000000000000000000000000000000000000000005f52601160045260245ffd5b5f6200015682620000b5565b91506200016383620000b5565b92508282019050808211156200017e576200017d6200011d565b5b92915050565b611a8680620001925f395ff3fe608060405234801561000f575f80fd5b5060043610610091575f3560e01c8063609ff1bd11610064578063609ff1bd1461011e578063793c5d211461013c5780639ec8b0261461016c578063a3ec138d1461019c578063ddbf695a146101cd57610091565b8063013cf08b146100955780630fb26697146100c85780632e4176cf146100e457806345e5303514610102575b5f80fd5b6100af60048036038101906100aa9190610c20565b6101e9565b6040516100bf9493929190610d6f565b60405180910390f35b6100e260048036038101906100dd9190610ddc565b6102b6565b005b6100ec610429565b6040516100f99190610e59565b60405180910390f35b61011c60048036038101906101179190610fc8565b61044c565b005b6101266105cf565b6040516101339190611022565b60405180910390f35b6101566004803603810190610151919061103b565b61064a565b6040516101639190611066565b60405180910390f35b61018660048036038101906101819190611143565b610803565b6040516101939190611241565b60405180910390f35b6101b660048036038101906101b1919061128b565b61093b565b6040516101c49291906112d0565b60405180910390f35b6101e760048036038101906101e291906112f7565b610967565b005b600681815481106101f8575f80fd5b905f5260205f2090600402015f91509050805f01549080600101805461021d9061137e565b80601f01602080910402602001604051908101604052809291908181526020018280546102499061137e565b80156102945780601f1061026b57610100808354040283529160200191610294565b820191905f5260205f20905b81548152906001019060200180831161027757829003601f168201915b505050505090806002015490806003015f9054906101000a900460ff16905084565b8060028111156102c9576102c8610cfc565b5b600683815481106102dd576102dc6113ae565b5b905f5260205f2090600402016003015f9054906101000a900460ff16600281111561030b5761030a610cfc565b5b1415801561039c57505f600281111561032757610326610cfc565b5b6006838154811061033b5761033a6113ae565b5b905f5260205f2090600402016003015f9054906101000a900460ff16600281111561036957610368610cfc565b5b14801561039a57506001600281111561038557610384610cfc565b5b81600281111561039857610397610cfc565b5b145b155b6103db576040517f08c379a00000000000000000000000000000000000000000000000000000000081526004016103d290611425565b60405180910390fd5b80600683815481106103f0576103ef6113ae565b5b905f5260205f2090600402016003015f6101000a81548160ff021916908360028111156104205761041f610cfc565b5b02179055505050565b5f8054906101000a900473ffffffffffffffffffffffffffffffffffffffff1681565b600154421115610491576040517f08c379a00000000000000000000000000000000000000000000000000000000081526004016104889061148d565b60405180910390fd5b5f801b6005826040516104a491906114e5565b908152602001604051809103902054146104f3576040517f08c379a00000000000000000000000000000000000000000000000000000000081526004016104ea9061156b565b60405180910390fd5b600660405180608001604052808481526020018381526020015f81526020016001600281111561052657610525610cfc565b5b815250908060018154018082558091505060019003905f5260205f2090600402015f909190919091505f820151815f0155602082015181600101908161056c9190611726565b50604082015181600201556060820151816003015f6101000a81548160ff021916908360028111156105a1576105a0610cfc565b5b02179055505050816005826040516105b991906114e5565b9081526020016040518091039020819055505050565b5f805f90505f5b6006805490508110156106455781600682815481106105f8576105f76113ae565b5b905f5260205f2090600402016002015411156106385760068181548110610622576106216113ae565b5b905f5260205f2090600402016002015491508092505b80806001019150506105d6565b505090565b5f813360405160200161065e92919061185a565b6040516020818303038152906040528051906020012090505f73ffffffffffffffffffffffffffffffffffffffff1660045f8381526020019081526020015f205f9054906101000a900473ffffffffffffffffffffffffffffffffffffffff1673ffffffffffffffffffffffffffffffffffffffff1614610714576040517f08c379a000000000000000000000000000000000000000000000000000000000815260040161070b906118cf565b60405180910390fd5b8060035f3373ffffffffffffffffffffffffffffffffffffffff1673ffffffffffffffffffffffffffffffffffffffff1681526020019081526020015f20600101819055505f60035f3373ffffffffffffffffffffffffffffffffffffffff1673ffffffffffffffffffffffffffffffffffffffff1681526020019081526020015f205f015f6101000a81548160ff0219169083151502179055503360045f8381526020019081526020015f205f6101000a81548173ffffffffffffffffffffffffffffffffffffffff021916908373ffffffffffffffffffffffffffffffffffffffff160217905550919050565b60605f825190505f5b600182610819919061191a565b811015610931575f5b60018284610830919061191a565b61083a919061191a565b811015610923578460018261084f919061194d565b815181106108605761085f6113ae565b5b602002602001015185828151811061087b5761087a6113ae565b5b602002602001015111156109165784600182610897919061194d565b815181106108a8576108a76113ae565b5b60200260200101518582815181106108c3576108c26113ae565b5b60200260200101518683815181106108de576108dd6113ae565b5b60200260200101876001856108f3919061194d565b81518110610904576109036113ae565b5b60200260200101828152508281525050505b8080600101915050610822565b50808060010191505061080c565b5082915050919050565b6003602052805f5260405f205f91509050805f015f9054906101000a900460ff16908060010154905082565b3373ffffffffffffffffffffffffffffffffffffffff1660045f8381526020019081526020015f205f9054906101000a900473ffffffffffffffffffffffffffffffffffffffff1673ffffffffffffffffffffffffffffffffffffffff1614610a05576040517f08c379a00000000000000000000000000000000000000000000000000000000081526004016109fc906119ca565b60405180910390fd5b5f151560035f3373ffffffffffffffffffffffffffffffffffffffff1673ffffffffffffffffffffffffffffffffffffffff1681526020019081526020015f205f015f9054906101000a900460ff16151514610a96576040517f08c379a0000000000000000000000000000000000000000000000000000000008152600401610a8d90611a32565b60405180910390fd5b5f5b8251811015610b805760016006848381518110610ab857610ab76113ae565b5b602002602001015181548110610ad157610ad06113ae565b5b905f5260205f2090600402016002015f828254610aee919061194d565b9250508190555060035f3373ffffffffffffffffffffffffffffffffffffffff1673ffffffffffffffffffffffffffffffffffffffff1681526020019081526020015f20600201838281518110610b4857610b476113ae565b5b6020026020010151908060018154018082558091505060019003905f5260205f20015f90919091909150558080600101915050610a98565b50600160035f3373ffffffffffffffffffffffffffffffffffffffff1673ffffffffffffffffffffffffffffffffffffffff1681526020019081526020015f205f015f6101000a81548160ff0219169083151502179055505050565b5f604051905090565b5f80fd5b5f80fd5b5f819050919050565b610bff81610bed565b8114610c09575f80fd5b50565b5f81359050610c1a81610bf6565b92915050565b5f60208284031215610c3557610c34610be5565b5b5f610c4284828501610c0c565b91505092915050565b5f819050919050565b610c5d81610c4b565b82525050565b5f81519050919050565b5f82825260208201905092915050565b5f5b83811015610c9a578082015181840152602081019050610c7f565b5f8484015250505050565b5f601f19601f8301169050919050565b5f610cbf82610c63565b610cc98185610c6d565b9350610cd9818560208601610c7d565b610ce281610ca5565b840191505092915050565b610cf681610bed565b82525050565b7f4e487b71000000000000000000000000000000000000000000000000000000005f52602160045260245ffd5b60038110610d3a57610d39610cfc565b5b50565b5f819050610d4a82610d29565b919050565b5f610d5982610d3d565b9050919050565b610d6981610d4f565b82525050565b5f608082019050610d825f830187610c54565b8181036020830152610d948186610cb5565b9050610da36040830185610ced565b610db06060830184610d60565b95945050505050565b60038110610dc5575f80fd5b50565b5f81359050610dd681610db9565b92915050565b5f8060408385031215610df257610df1610be5565b5b5f610dff85828601610c0c565b9250506020610e1085828601610dc8565b9150509250929050565b5f73ffffffffffffffffffffffffffffffffffffffff82169050919050565b5f610e4382610e1a565b9050919050565b610e5381610e39565b82525050565b5f602082019050610e6c5f830184610e4a565b92915050565b610e7b81610c4b565b8114610e85575f80fd5b50565b5f81359050610e9681610e72565b92915050565b5f80fd5b5f80fd5b7f4e487b71000000000000000000000000000000000000000000000000000000005f52604160045260245ffd5b610eda82610ca5565b810181811067ffffffffffffffff82111715610ef957610ef8610ea4565b5b80604052505050565b5f610f0b610bdc565b9050610f178282610ed1565b919050565b5f67ffffffffffffffff821115610f3657610f35610ea4565b5b610f3f82610ca5565b9050602081019050919050565b828183375f83830152505050565b5f610f6c610f6784610f1c565b610f02565b905082815260208101848484011115610f8857610f87610ea0565b5b610f93848285610f4c565b509392505050565b5f82601f830112610faf57610fae610e9c565b5b8135610fbf848260208601610f5a565b91505092915050565b5f8060408385031215610fde57610fdd610be5565b5b5f610feb85828601610e88565b925050602083013567ffffffffffffffff81111561100c5761100b610be9565b5b61101885828601610f9b565b9150509250929050565b5f6020820190506110355f830184610ced565b92915050565b5f602082840312156110505761104f610be5565b5b5f61105d84828501610e88565b91505092915050565b5f6020820190506110795f830184610c54565b92915050565b5f67ffffffffffffffff82111561109957611098610ea4565b5b602082029050602081019050919050565b5f80fd5b5f6110c06110bb8461107f565b610f02565b905080838252602082019050602084028301858111156110e3576110e26110aa565b5b835b8181101561110c57806110f88882610c0c565b8452602084019350506020810190506110e5565b5050509392505050565b5f82601f83011261112a57611129610e9c565b5b813561113a8482602086016110ae565b91505092915050565b5f6020828403121561115857611157610be5565b5b5f82013567ffffffffffffffff81111561117557611174610be9565b5b61118184828501611116565b91505092915050565b5f81519050919050565b5f82825260208201905092915050565b5f819050602082019050919050565b6111bc81610bed565b82525050565b5f6111cd83836111b3565b60208301905092915050565b5f602082019050919050565b5f6111ef8261118a565b6111f98185611194565b9350611204836111a4565b805f5b8381101561123457815161121b88826111c2565b9750611226836111d9565b925050600181019050611207565b5085935050505092915050565b5f6020820190508181035f83015261125981846111e5565b905092915050565b61126a81610e39565b8114611274575f80fd5b50565b5f8135905061128581611261565b92915050565b5f602082840312156112a05761129f610be5565b5b5f6112ad84828501611277565b91505092915050565b5f8115159050919050565b6112ca816112b6565b82525050565b5f6040820190506112e35f8301856112c1565b6112f06020830184610c54565b9392505050565b5f806040838503121561130d5761130c610be5565b5b5f83013567ffffffffffffffff81111561132a57611329610be9565b5b61133685828601611116565b925050602061134785828601610e88565b9150509250929050565b7f4e487b71000000000000000000000000000000000000000000000000000000005f52602260045260245ffd5b5f600282049050600182168061139557607f821691505b6020821081036113a8576113a7611351565b5b50919050565b7f4e487b71000000000000000000000000000000000000000000000000000000005f52603260045260245ffd5b7f496e76616c6964207374617465000000000000000000000000000000000000005f82015250565b5f61140f600d83610c6d565b915061141a826113db565b602082019050919050565b5f6020820190508181035f83015261143c81611403565b9050919050565b7f526567697374726174696f6e2068617320656e646564000000000000000000005f82015250565b5f611477601683610c6d565b915061148282611443565b602082019050919050565b5f6020820190508181035f8301526114a48161146b565b9050919050565b5f81905092915050565b5f6114bf82610c63565b6114c981856114ab565b93506114d9818560208601610c7d565b80840191505092915050565b5f6114f082846114b5565b915081905092915050565b7f5465616d2068617320616c726561647920726567697374657220612070726f6a5f8201527f6563740000000000000000000000000000000000000000000000000000000000602082015250565b5f611555602383610c6d565b9150611560826114fb565b604082019050919050565b5f6020820190508181035f83015261158281611549565b9050919050565b5f819050815f5260205f209050919050565b5f6020601f8301049050919050565b5f82821b905092915050565b5f600883026115e57fffffffffffffffffffffffffffffffffffffffffffffffffffffffffffffffff826115aa565b6115ef86836115aa565b95508019841693508086168417925050509392505050565b5f819050919050565b5f61162a61162561162084610bed565b611607565b610bed565b9050919050565b5f819050919050565b61164383611610565b61165761164f82611631565b8484546115b6565b825550505050565b5f90565b61166b61165f565b61167681848461163a565b505050565b5b818110156116995761168e5f82611663565b60018101905061167c565b5050565b601f8211156116de576116af81611589565b6116b88461159b565b810160208510156116c7578190505b6116db6116d38561159b565b83018261167b565b50505b505050565b5f82821c905092915050565b5f6116fe5f19846008026116e3565b1980831691505092915050565b5f61171683836116ef565b9150826002028217905092915050565b61172f82610c63565b67ffffffffffffffff81111561174857611747610ea4565b5b611752825461137e565b61175d82828561169d565b5f60209050601f83116001811461178e575f841561177c578287015190505b611786858261170b565b8655506117ed565b601f19841661179c86611589565b5f5b828110156117c35784890151825560018201915060208501945060208101905061179e565b868310156117e057848901516117dc601f8916826116ef565b8355505b6001600288020188555050505b505050505050565b5f819050919050565b61180f61180a82610c4b565b6117f5565b82525050565b5f8160601b9050919050565b5f61182b82611815565b9050919050565b5f61183c82611821565b9050919050565b61185461184f82610e39565b611832565b82525050565b5f61186582856117fe565b6020820191506118758284611843565b6014820191508190509392505050565b7f546f6b656e20686173206265656e20616c7265616479207573656421000000005f82015250565b5f6118b9601c83610c6d565b91506118c482611885565b602082019050919050565b5f6020820190508181035f8301526118e6816118ad565b9050919050565b7f4e487b71000000000000000000000000000000000000000000000000000000005f52601160045260245ffd5b5f61192482610bed565b915061192f83610bed565b9250828203905081811115611947576119466118ed565b5b92915050565b5f61195782610bed565b915061196283610bed565b925082820190508082111561197a576119796118ed565b5b92915050565b7f496e76616c696420746f6b656e000000000000000000000000000000000000005f82015250565b5f6119b4600d83610c6d565b91506119bf82611980565b602082019050919050565b5f6020820190508181035f8301526119e1816119a8565b9050919050565b7f566f7465722068617320616c726561647920766f7465642100000000000000005f82015250565b5f611a1c601883610c6d565b9150611a27826119e8565b602082019050919050565b5f6020820190508181035f830152611a4981611a10565b905091905056fea2646970667358221220cfd0562abafc296c139bb0852e203649871fbcbaf56dbf1648820d8f5ed70c1b64736f6c63430008180033",
			"opcodes": "PUSH1 0x80 PUSH1 0x40 MSTORE CALLVALUE DUP1 ISZERO PUSH3 0x10 JUMPI PUSH0 DUP1 REVERT JUMPDEST POP PUSH1 0x40 MLOAD PUSH3 0x1C18 CODESIZE SUB DUP1 PUSH3 0x1C18 DUP4 CODECOPY DUP2 DUP2 ADD PUSH1 0x40 MSTORE DUP2 ADD SWAP1 PUSH3 0x36 SWAP2 SWAP1 PUSH3 0xED JUMP JUMPDEST CALLER PUSH0 DUP1 PUSH2 0x100 EXP DUP2 SLOAD DUP2 PUSH20 0xFFFFFFFFFFFFFFFFFFFFFFFFFFFFFFFFFFFFFFFF MUL NOT AND SWAP1 DUP4 PUSH20 0xFFFFFFFFFFFFFFFFFFFFFFFFFFFFFFFFFFFFFFFF AND MUL OR SWAP1 SSTORE POP PUSH3 0xD2F00 TIMESTAMP PUSH3 0x86 SWAP2 SWAP1 PUSH3 0x14A JUMP JUMPDEST PUSH1 0x1 DUP2 SWAP1 SSTORE POP PUSH3 0x1A5E00 TIMESTAMP PUSH3 0x9D SWAP2 SWAP1 PUSH3 0x14A JUMP JUMPDEST PUSH1 0x2 DUP2 SWAP1 SSTORE POP DUP1 PUSH1 0x7 DUP2 SWAP1 SSTORE POP POP PUSH3 0x184 JUMP JUMPDEST PUSH0 DUP1 REVERT JUMPDEST PUSH0 DUP2 SWAP1 POP SWAP2 SWAP1 POP JUMP JUMPDEST PUSH3 0xC9 DUP2 PUSH3 0xB5 JUMP JUMPDEST DUP2 EQ PUSH3 0xD4 JUMPI PUSH0 DUP1 REVERT JUMPDEST POP JUMP JUMPDEST PUSH0 DUP2 MLOAD SWAP1 POP PUSH3 0xE7 DUP2 PUSH3 0xBE JUMP JUMPDEST SWAP3 SWAP2 POP POP JUMP JUMPDEST PUSH0 PUSH1 0x20 DUP3 DUP5 SUB SLT ISZERO PUSH3 0x105 JUMPI PUSH3 0x104 PUSH3 0xB1 JUMP JUMPDEST JUMPDEST PUSH0 PUSH3 0x114 DUP5 DUP3 DUP6 ADD PUSH3 0xD7 JUMP JUMPDEST SWAP2 POP POP SWAP3 SWAP2 POP POP JUMP JUMPDEST PUSH32 0x4E487B7100000000000000000000000000000000000000000000000000000000 PUSH0 MSTORE PUSH1 0x11 PUSH1 0x4 MSTORE PUSH1 0x24 PUSH0 REVERT JUMPDEST PUSH0 PUSH3 0x156 DUP3 PUSH3 0xB5 JUMP JUMPDEST SWAP2 POP PUSH3 0x163 DUP4 PUSH3 0xB5 JUMP JUMPDEST SWAP3 POP DUP3 DUP3 ADD SWAP1 POP DUP1 DUP3 GT ISZERO PUSH3 0x17E JUMPI PUSH3 0x17D PUSH3 0x11D JUMP JUMPDEST JUMPDEST SWAP3 SWAP2 POP POP JUMP JUMPDEST PUSH2 0x1A86 DUP1 PUSH3 0x192 PUSH0 CODECOPY PUSH0 RETURN INVALID PUSH1 0x80 PUSH1 0x40 MSTORE CALLVALUE DUP1 ISZERO PUSH2 0xF JUMPI PUSH0 DUP1 REVERT JUMPDEST POP PUSH1 0x4 CALLDATASIZE LT PUSH2 0x91 JUMPI PUSH0 CALLDATALOAD PUSH1 0xE0 SHR DUP1 PUSH4 0x609FF1BD GT PUSH2 0x64 JUMPI DUP1 PUSH4 0x609FF1BD EQ PUSH2 0x11E JUMPI DUP1 PUSH4 0x793C5D21 EQ PUSH2 0x13C JUMPI DUP1 PUSH4 0x9EC8B026 EQ PUSH2 0x16C JUMPI DUP1 PUSH4 0xA3EC138D EQ PUSH2 0x19C JUMPI DUP1 PUSH4 0xDDBF695A EQ PUSH2 0x1CD JUMPI PUSH2 0x91 JUMP JUMPDEST DUP1 PUSH4 0x13CF08B EQ PUSH2 0x95 JUMPI DUP1 PUSH4 0xFB26697 EQ PUSH2 0xC8 JUMPI DUP1 PUSH4 0x2E4176CF EQ PUSH2 0xE4 JUMPI DUP1 PUSH4 0x45E53035 EQ PUSH2 0x102 JUMPI JUMPDEST PUSH0 DUP1 REVERT JUMPDEST PUSH2 0xAF PUSH1 0x4 DUP1 CALLDATASIZE SUB DUP2 ADD SWAP1 PUSH2 0xAA SWAP2 SWAP1 PUSH2 0xC20 JUMP JUMPDEST PUSH2 0x1E9 JUMP JUMPDEST PUSH1 0x40 MLOAD PUSH2 0xBF SWAP5 SWAP4 SWAP3 SWAP2 SWAP1 PUSH2 0xD6F JUMP JUMPDEST PUSH1 0x40 MLOAD DUP1 SWAP2 SUB SWAP1 RETURN JUMPDEST PUSH2 0xE2 PUSH1 0x4 DUP1 CALLDATASIZE SUB DUP2 ADD SWAP1 PUSH2 0xDD SWAP2 SWAP1 PUSH2 0xDDC JUMP JUMPDEST PUSH2 0x2B6 JUMP JUMPDEST STOP JUMPDEST PUSH2 0xEC PUSH2 0x429 JUMP JUMPDEST PUSH1 0x40 MLOAD PUSH2 0xF9 SWAP2 SWAP1 PUSH2 0xE59 JUMP JUMPDEST PUSH1 0x40 MLOAD DUP1 SWAP2 SUB SWAP1 RETURN JUMPDEST PUSH2 0x11C PUSH1 0x4 DUP1 CALLDATASIZE SUB DUP2 ADD SWAP1 PUSH2 0x117 SWAP2 SWAP1 PUSH2 0xFC8 JUMP JUMPDEST PUSH2 0x44C JUMP JUMPDEST STOP JUMPDEST PUSH2 0x126 PUSH2 0x5CF JUMP JUMPDEST PUSH1 0x40 MLOAD PUSH2 0x133 SWAP2 SWAP1 PUSH2 0x1022 JUMP JUMPDEST PUSH1 0x40 MLOAD DUP1 SWAP2 SUB SWAP1 RETURN JUMPDEST PUSH2 0x156 PUSH1 0x4 DUP1 CALLDATASIZE SUB DUP2 ADD SWAP1 PUSH2 0x151 SWAP2 SWAP1 PUSH2 0x103B JUMP JUMPDEST PUSH2 0x64A JUMP JUMPDEST PUSH1 0x40 MLOAD PUSH2 0x163 SWAP2 SWAP1 PUSH2 0x1066 JUMP JUMPDEST PUSH1 0x40 MLOAD DUP1 SWAP2 SUB SWAP1 RETURN JUMPDEST PUSH2 0x186 PUSH1 0x4 DUP1 CALLDATASIZE SUB DUP2 ADD SWAP1 PUSH2 0x181 SWAP2 SWAP1 PUSH2 0x1143 JUMP JUMPDEST PUSH2 0x803 JUMP JUMPDEST PUSH1 0x40 MLOAD PUSH2 0x193 SWAP2 SWAP1 PUSH2 0x1241 JUMP JUMPDEST PUSH1 0x40 MLOAD DUP1 SWAP2 SUB SWAP1 RETURN JUMPDEST PUSH2 0x1B6 PUSH1 0x4 DUP1 CALLDATASIZE SUB DUP2 ADD SWAP1 PUSH2 0x1B1 SWAP2 SWAP1 PUSH2 0x128B JUMP JUMPDEST PUSH2 0x93B JUMP JUMPDEST PUSH1 0x40 MLOAD PUSH2 0x1C4 SWAP3 SWAP2 SWAP1 PUSH2 0x12D0 JUMP JUMPDEST PUSH1 0x40 MLOAD DUP1 SWAP2 SUB SWAP1 RETURN JUMPDEST PUSH2 0x1E7 PUSH1 0x4 DUP1 CALLDATASIZE SUB DUP2 ADD SWAP1 PUSH2 0x1E2 SWAP2 SWAP1 PUSH2 0x12F7 JUMP JUMPDEST PUSH2 0x967 JUMP JUMPDEST STOP JUMPDEST PUSH1 0x6 DUP2 DUP2 SLOAD DUP2 LT PUSH2 0x1F8 JUMPI PUSH0 DUP1 REVERT JUMPDEST SWAP1 PUSH0 MSTORE PUSH1 0x20 PUSH0 KECCAK256 SWAP1 PUSH1 0x4 MUL ADD PUSH0 SWAP2 POP SWAP1 POP DUP1 PUSH0 ADD SLOAD SWAP1 DUP1 PUSH1 0x1 ADD DUP1 SLOAD PUSH2 0x21D SWAP1 PUSH2 0x137E JUMP JUMPDEST DUP1 PUSH1 0x1F ADD PUSH1 0x20 DUP1 SWAP2 DIV MUL PUSH1 0x20 ADD PUSH1 0x40 MLOAD SWAP1 DUP2 ADD PUSH1 0x40 MSTORE DUP1 SWAP3 SWAP2 SWAP1 DUP2 DUP2 MSTORE PUSH1 0x20 ADD DUP3 DUP1 SLOAD PUSH2 0x249 SWAP1 PUSH2 0x137E JUMP JUMPDEST DUP1 ISZERO PUSH2 0x294 JUMPI DUP1 PUSH1 0x1F LT PUSH2 0x26B JUMPI PUSH2 0x100 DUP1 DUP4 SLOAD DIV MUL DUP4 MSTORE SWAP2 PUSH1 0x20 ADD SWAP2 PUSH2 0x294 JUMP JUMPDEST DUP3 ADD SWAP2 SWAP1 PUSH0 MSTORE PUSH1 0x20 PUSH0 KECCAK256 SWAP1 JUMPDEST DUP2 SLOAD DUP2 MSTORE SWAP1 PUSH1 0x1 ADD SWAP1 PUSH1 0x20 ADD DUP1 DUP4 GT PUSH2 0x277 JUMPI DUP3 SWAP1 SUB PUSH1 0x1F AND DUP3 ADD SWAP2 JUMPDEST POP POP POP POP POP SWAP1 DUP1 PUSH1 0x2 ADD SLOAD SWAP1 DUP1 PUSH1 0x3 ADD PUSH0 SWAP1 SLOAD SWAP1 PUSH2 0x100 EXP SWAP1 DIV PUSH1 0xFF AND SWAP1 POP DUP5 JUMP JUMPDEST DUP1 PUSH1 0x2 DUP2 GT ISZERO PUSH2 0x2C9 JUMPI PUSH2 0x2C8 PUSH2 0xCFC JUMP JUMPDEST JUMPDEST PUSH1 0x6 DUP4 DUP2 SLOAD DUP2 LT PUSH2 0x2DD JUMPI PUSH2 0x2DC PUSH2 0x13AE JUMP JUMPDEST JUMPDEST SWAP1 PUSH0 MSTORE PUSH1 0x20 PUSH0 KECCAK256 SWAP1 PUSH1 0x4 MUL ADD PUSH1 0x3 ADD PUSH0 SWAP1 SLOAD SWAP1 PUSH2 0x100 EXP SWAP1 DIV PUSH1 0xFF AND PUSH1 0x2 DUP2 GT ISZERO PUSH2 0x30B JUMPI PUSH2 0x30A PUSH2 0xCFC JUMP JUMPDEST JUMPDEST EQ ISZERO DUP1 ISZERO PUSH2 0x39C JUMPI POP PUSH0 PUSH1 0x2 DUP2 GT ISZERO PUSH2 0x327 JUMPI PUSH2 0x326 PUSH2 0xCFC JUMP JUMPDEST JUMPDEST PUSH1 0x6 DUP4 DUP2 SLOAD DUP2 LT PUSH2 0x33B JUMPI PUSH2 0x33A PUSH2 0x13AE JUMP JUMPDEST JUMPDEST SWAP1 PUSH0 MSTORE PUSH1 0x20 PUSH0 KECCAK256 SWAP1 PUSH1 0x4 MUL ADD PUSH1 0x3 ADD PUSH0 SWAP1 SLOAD SWAP1 PUSH2 0x100 EXP SWAP1 DIV PUSH1 0xFF AND PUSH1 0x2 DUP2 GT ISZERO PUSH2 0x369 JUMPI PUSH2 0x368 PUSH2 0xCFC JUMP JUMPDEST JUMPDEST EQ DUP1 ISZERO PUSH2 0x39A JUMPI POP PUSH1 0x1 PUSH1 0x2 DUP2 GT ISZERO PUSH2 0x385 JUMPI PUSH2 0x384 PUSH2 0xCFC JUMP JUMPDEST JUMPDEST DUP2 PUSH1 0x2 DUP2 GT ISZERO PUSH2 0x398 JUMPI PUSH2 0x397 PUSH2 0xCFC JUMP JUMPDEST JUMPDEST EQ JUMPDEST ISZERO JUMPDEST PUSH2 0x3DB JUMPI PUSH1 0x40 MLOAD PUSH32 0x8C379A000000000000000000000000000000000000000000000000000000000 DUP2 MSTORE PUSH1 0x4 ADD PUSH2 0x3D2 SWAP1 PUSH2 0x1425 JUMP JUMPDEST PUSH1 0x40 MLOAD DUP1 SWAP2 SUB SWAP1 REVERT JUMPDEST DUP1 PUSH1 0x6 DUP4 DUP2 SLOAD DUP2 LT PUSH2 0x3F0 JUMPI PUSH2 0x3EF PUSH2 0x13AE JUMP JUMPDEST JUMPDEST SWAP1 PUSH0 MSTORE PUSH1 0x20 PUSH0 KECCAK256 SWAP1 PUSH1 0x4 MUL ADD PUSH1 0x3 ADD PUSH0 PUSH2 0x100 EXP DUP2 SLOAD DUP2 PUSH1 0xFF MUL NOT AND SWAP1 DUP4 PUSH1 0x2 DUP2 GT ISZERO PUSH2 0x420 JUMPI PUSH2 0x41F PUSH2 0xCFC JUMP JUMPDEST JUMPDEST MUL OR SWAP1 SSTORE POP POP POP JUMP JUMPDEST PUSH0 DUP1 SLOAD SWAP1 PUSH2 0x100 EXP SWAP1 DIV PUSH20 0xFFFFFFFFFFFFFFFFFFFFFFFFFFFFFFFFFFFFFFFF AND DUP2 JUMP JUMPDEST PUSH1 0x1 SLOAD TIMESTAMP GT ISZERO PUSH2 0x491 JUMPI PUSH1 0x40 MLOAD PUSH32 0x8C379A000000000000000000000000000000000000000000000000000000000 DUP2 MSTORE PUSH1 0x4 ADD PUSH2 0x488 SWAP1 PUSH2 0x148D JUMP JUMPDEST PUSH1 0x40 MLOAD DUP1 SWAP2 SUB SWAP1 REVERT JUMPDEST PUSH0 DUP1 SHL PUSH1 0x5 DUP3 PUSH1 0x40 MLOAD PUSH2 0x4A4 SWAP2 SWAP1 PUSH2 0x14E5 JUMP JUMPDEST SWAP1 DUP2 MSTORE PUSH1 0x20 ADD PUSH1 0x40 MLOAD DUP1 SWAP2 SUB SWAP1 KECCAK256 SLOAD EQ PUSH2 0x4F3 JUMPI PUSH1 0x40 MLOAD PUSH32 0x8C379A000000000000000000000000000000000000000000000000000000000 DUP2 MSTORE PUSH1 0x4 ADD PUSH2 0x4EA SWAP1 PUSH2 0x156B JUMP JUMPDEST PUSH1 0x40 MLOAD DUP1 SWAP2 SUB SWAP1 REVERT JUMPDEST PUSH1 0x6 PUSH1 0x40 MLOAD DUP1 PUSH1 0x80 ADD PUSH1 0x40 MSTORE DUP1 DUP5 DUP2 MSTORE PUSH1 0x20 ADD DUP4 DUP2 MSTORE PUSH1 0x20 ADD PUSH0 DUP2 MSTORE PUSH1 0x20 ADD PUSH1 0x1 PUSH1 0x2 DUP2 GT ISZERO PUSH2 0x526 JUMPI PUSH2 0x525 PUSH2 0xCFC JUMP JUMPDEST JUMPDEST DUP2 MSTORE POP SWAP1 DUP1 PUSH1 0x1 DUP2 SLOAD ADD DUP1 DUP3 SSTORE DUP1 SWAP2 POP POP PUSH1 0x1 SWAP1 SUB SWAP1 PUSH0 MSTORE PUSH1 0x20 PUSH0 KECCAK256 SWAP1 PUSH1 0x4 MUL ADD PUSH0 SWAP1 SWAP2 SWAP1 SWAP2 SWAP1 SWAP2 POP PUSH0 DUP3 ADD MLOAD DUP2 PUSH0 ADD SSTORE PUSH1 0x20 DUP3 ADD MLOAD DUP2 PUSH1 0x1 ADD SWAP1 DUP2 PUSH2 0x56C SWAP2 SWAP1 PUSH2 0x1726 JUMP JUMPDEST POP PUSH1 0x40 DUP3 ADD MLOAD DUP2 PUSH1 0x2 ADD SSTORE PUSH1 0x60 DUP3 ADD MLOAD DUP2 PUSH1 0x3 ADD PUSH0 PUSH2 0x100 EXP DUP2 SLOAD DUP2 PUSH1 0xFF MUL NOT AND SWAP1 DUP4 PUSH1 0x2 DUP2 GT ISZERO PUSH2 0x5A1 JUMPI PUSH2 0x5A0 PUSH2 0xCFC JUMP JUMPDEST JUMPDEST MUL OR SWAP1 SSTORE POP POP POP DUP2 PUSH1 0x5 DUP3 PUSH1 0x40 MLOAD PUSH2 0x5B9 SWAP2 SWAP1 PUSH2 0x14E5 JUMP JUMPDEST SWAP1 DUP2 MSTORE PUSH1 0x20 ADD PUSH1 0x40 MLOAD DUP1 SWAP2 SUB SWAP1 KECCAK256 DUP2 SWAP1 SSTORE POP POP POP JUMP JUMPDEST PUSH0 DUP1 PUSH0 SWAP1 POP PUSH0 JUMPDEST PUSH1 0x6 DUP1 SLOAD SWAP1 POP DUP2 LT ISZERO PUSH2 0x645 JUMPI DUP2 PUSH1 0x6 DUP3 DUP2 SLOAD DUP2 LT PUSH2 0x5F8 JUMPI PUSH2 0x5F7 PUSH2 0x13AE JUMP JUMPDEST JUMPDEST SWAP1 PUSH0 MSTORE PUSH1 0x20 PUSH0 KECCAK256 SWAP1 PUSH1 0x4 MUL ADD PUSH1 0x2 ADD SLOAD GT ISZERO PUSH2 0x638 JUMPI PUSH1 0x6 DUP2 DUP2 SLOAD DUP2 LT PUSH2 0x622 JUMPI PUSH2 0x621 PUSH2 0x13AE JUMP JUMPDEST JUMPDEST SWAP1 PUSH0 MSTORE PUSH1 0x20 PUSH0 KECCAK256 SWAP1 PUSH1 0x4 MUL ADD PUSH1 0x2 ADD SLOAD SWAP2 POP DUP1 SWAP3 POP JUMPDEST DUP1 DUP1 PUSH1 0x1 ADD SWAP2 POP POP PUSH2 0x5D6 JUMP JUMPDEST POP POP SWAP1 JUMP JUMPDEST PUSH0 DUP2 CALLER PUSH1 0x40 MLOAD PUSH1 0x20 ADD PUSH2 0x65E SWAP3 SWAP2 SWAP1 PUSH2 0x185A JUMP JUMPDEST PUSH1 0x40 MLOAD PUSH1 0x20 DUP2 DUP4 SUB SUB DUP2 MSTORE SWAP1 PUSH1 0x40 MSTORE DUP1 MLOAD SWAP1 PUSH1 0x20 ADD KECCAK256 SWAP1 POP PUSH0 PUSH20 0xFFFFFFFFFFFFFFFFFFFFFFFFFFFFFFFFFFFFFFFF AND PUSH1 0x4 PUSH0 DUP4 DUP2 MSTORE PUSH1 0x20 ADD SWAP1 DUP2 MSTORE PUSH1 0x20 ADD PUSH0 KECCAK256 PUSH0 SWAP1 SLOAD SWAP1 PUSH2 0x100 EXP SWAP1 DIV PUSH20 0xFFFFFFFFFFFFFFFFFFFFFFFFFFFFFFFFFFFFFFFF AND PUSH20 0xFFFFFFFFFFFFFFFFFFFFFFFFFFFFFFFFFFFFFFFF AND EQ PUSH2 0x714 JUMPI PUSH1 0x40 MLOAD PUSH32 0x8C379A000000000000000000000000000000000000000000000000000000000 DUP2 MSTORE PUSH1 0x4 ADD PUSH2 0x70B SWAP1 PUSH2 0x18CF JUMP JUMPDEST PUSH1 0x40 MLOAD DUP1 SWAP2 SUB SWAP1 REVERT JUMPDEST DUP1 PUSH1 0x3 PUSH0 CALLER PUSH20 0xFFFFFFFFFFFFFFFFFFFFFFFFFFFFFFFFFFFFFFFF AND PUSH20 0xFFFFFFFFFFFFFFFFFFFFFFFFFFFFFFFFFFFFFFFF AND DUP2 MSTORE PUSH1 0x20 ADD SWAP1 DUP2 MSTORE PUSH1 0x20 ADD PUSH0 KECCAK256 PUSH1 0x1 ADD DUP2 SWAP1 SSTORE POP PUSH0 PUSH1 0x3 PUSH0 CALLER PUSH20 0xFFFFFFFFFFFFFFFFFFFFFFFFFFFFFFFFFFFFFFFF AND PUSH20 0xFFFFFFFFFFFFFFFFFFFFFFFFFFFFFFFFFFFFFFFF AND DUP2 MSTORE PUSH1 0x20 ADD SWAP1 DUP2 MSTORE PUSH1 0x20 ADD PUSH0 KECCAK256 PUSH0 ADD PUSH0 PUSH2 0x100 EXP DUP2 SLOAD DUP2 PUSH1 0xFF MUL NOT AND SWAP1 DUP4 ISZERO ISZERO MUL OR SWAP1 SSTORE POP CALLER PUSH1 0x4 PUSH0 DUP4 DUP2 MSTORE PUSH1 0x20 ADD SWAP1 DUP2 MSTORE PUSH1 0x20 ADD PUSH0 KECCAK256 PUSH0 PUSH2 0x100 EXP DUP2 SLOAD DUP2 PUSH20 0xFFFFFFFFFFFFFFFFFFFFFFFFFFFFFFFFFFFFFFFF MUL NOT AND SWAP1 DUP4 PUSH20 0xFFFFFFFFFFFFFFFFFFFFFFFFFFFFFFFFFFFFFFFF AND MUL OR SWAP1 SSTORE POP SWAP2 SWAP1 POP JUMP JUMPDEST PUSH1 0x60 PUSH0 DUP3 MLOAD SWAP1 POP PUSH0 JUMPDEST PUSH1 0x1 DUP3 PUSH2 0x819 SWAP2 SWAP1 PUSH2 0x191A JUMP JUMPDEST DUP2 LT ISZERO PUSH2 0x931 JUMPI PUSH0 JUMPDEST PUSH1 0x1 DUP3 DUP5 PUSH2 0x830 SWAP2 SWAP1 PUSH2 0x191A JUMP JUMPDEST PUSH2 0x83A SWAP2 SWAP1 PUSH2 0x191A JUMP JUMPDEST DUP2 LT ISZERO PUSH2 0x923 JUMPI DUP5 PUSH1 0x1 DUP3 PUSH2 0x84F SWAP2 SWAP1 PUSH2 0x194D JUMP JUMPDEST DUP2 MLOAD DUP2 LT PUSH2 0x860 JUMPI PUSH2 0x85F PUSH2 0x13AE JUMP JUMPDEST JUMPDEST PUSH1 0x20 MUL PUSH1 0x20 ADD ADD MLOAD DUP6 DUP3 DUP2 MLOAD DUP2 LT PUSH2 0x87B JUMPI PUSH2 0x87A PUSH2 0x13AE JUMP JUMPDEST JUMPDEST PUSH1 0x20 MUL PUSH1 0x20 ADD ADD MLOAD GT ISZERO PUSH2 0x916 JUMPI DUP5 PUSH1 0x1 DUP3 PUSH2 0x897 SWAP2 SWAP1 PUSH2 0x194D JUMP JUMPDEST DUP2 MLOAD DUP2 LT PUSH2 0x8A8 JUMPI PUSH2 0x8A7 PUSH2 0x13AE JUMP JUMPDEST JUMPDEST PUSH1 0x20 MUL PUSH1 0x20 ADD ADD MLOAD DUP6 DUP3 DUP2 MLOAD DUP2 LT PUSH2 0x8C3 JUMPI PUSH2 0x8C2 PUSH2 0x13AE JUMP JUMPDEST JUMPDEST PUSH1 0x20 MUL PUSH1 0x20 ADD ADD MLOAD DUP7 DUP4 DUP2 MLOAD DUP2 LT PUSH2 0x8DE JUMPI PUSH2 0x8DD PUSH2 0x13AE JUMP JUMPDEST JUMPDEST PUSH1 0x20 MUL PUSH1 0x20 ADD ADD DUP8 PUSH1 0x1 DUP6 PUSH2 0x8F3 SWAP2 SWAP1 PUSH2 0x194D JUMP JUMPDEST DUP2 MLOAD DUP2 LT PUSH2 0x904 JUMPI PUSH2 0x903 PUSH2 0x13AE JUMP JUMPDEST JUMPDEST PUSH1 0x20 MUL PUSH1 0x20 ADD ADD DUP3 DUP2 MSTORE POP DUP3 DUP2 MSTORE POP POP POP JUMPDEST DUP1 DUP1 PUSH1 0x1 ADD SWAP2 POP POP PUSH2 0x822 JUMP JUMPDEST POP DUP1 DUP1 PUSH1 0x1 ADD SWAP2 POP POP PUSH2 0x80C JUMP JUMPDEST POP DUP3 SWAP2 POP POP SWAP2 SWAP1 POP JUMP JUMPDEST PUSH1 0x3 PUSH1 0x20 MSTORE DUP1 PUSH0 MSTORE PUSH1 0x40 PUSH0 KECCAK256 PUSH0 SWAP2 POP SWAP1 POP DUP1 PUSH0 ADD PUSH0 SWAP1 SLOAD SWAP1 PUSH2 0x100 EXP SWAP1 DIV PUSH1 0xFF AND SWAP1 DUP1 PUSH1 0x1 ADD SLOAD SWAP1 POP DUP3 JUMP JUMPDEST CALLER PUSH20 0xFFFFFFFFFFFFFFFFFFFFFFFFFFFFFFFFFFFFFFFF AND PUSH1 0x4 PUSH0 DUP4 DUP2 MSTORE PUSH1 0x20 ADD SWAP1 DUP2 MSTORE PUSH1 0x20 ADD PUSH0 KECCAK256 PUSH0 SWAP1 SLOAD SWAP1 PUSH2 0x100 EXP SWAP1 DIV PUSH20 0xFFFFFFFFFFFFFFFFFFFFFFFFFFFFFFFFFFFFFFFF AND PUSH20 0xFFFFFFFFFFFFFFFFFFFFFFFFFFFFFFFFFFFFFFFF AND EQ PUSH2 0xA05 JUMPI PUSH1 0x40 MLOAD PUSH32 0x8C379A000000000000000000000000000000000000000000000000000000000 DUP2 MSTORE PUSH1 0x4 ADD PUSH2 0x9FC SWAP1 PUSH2 0x19CA JUMP JUMPDEST PUSH1 0x40 MLOAD DUP1 SWAP2 SUB SWAP1 REVERT JUMPDEST PUSH0 ISZERO ISZERO PUSH1 0x3 PUSH0 CALLER PUSH20 0xFFFFFFFFFFFFFFFFFFFFFFFFFFFFFFFFFFFFFFFF AND PUSH20 0xFFFFFFFFFFFFFFFFFFFFFFFFFFFFFFFFFFFFFFFF AND DUP2 MSTORE PUSH1 0x20 ADD SWAP1 DUP2 MSTORE PUSH1 0x20 ADD PUSH0 KECCAK256 PUSH0 ADD PUSH0 SWAP1 SLOAD SWAP1 PUSH2 0x100 EXP SWAP1 DIV PUSH1 0xFF AND ISZERO ISZERO EQ PUSH2 0xA96 JUMPI PUSH1 0x40 MLOAD PUSH32 0x8C379A000000000000000000000000000000000000000000000000000000000 DUP2 MSTORE PUSH1 0x4 ADD PUSH2 0xA8D SWAP1 PUSH2 0x1A32 JUMP JUMPDEST PUSH1 0x40 MLOAD DUP1 SWAP2 SUB SWAP1 REVERT JUMPDEST PUSH0 JUMPDEST DUP3 MLOAD DUP2 LT ISZERO PUSH2 0xB80 JUMPI PUSH1 0x1 PUSH1 0x6 DUP5 DUP4 DUP2 MLOAD DUP2 LT PUSH2 0xAB8 JUMPI PUSH2 0xAB7 PUSH2 0x13AE JUMP JUMPDEST JUMPDEST PUSH1 0x20 MUL PUSH1 0x20 ADD ADD MLOAD DUP2 SLOAD DUP2 LT PUSH2 0xAD1 JUMPI PUSH2 0xAD0 PUSH2 0x13AE JUMP JUMPDEST JUMPDEST SWAP1 PUSH0 MSTORE PUSH1 0x20 PUSH0 KECCAK256 SWAP1 PUSH1 0x4 MUL ADD PUSH1 0x2 ADD PUSH0 DUP3 DUP3 SLOAD PUSH2 0xAEE SWAP2 SWAP1 PUSH2 0x194D JUMP JUMPDEST SWAP3 POP POP DUP2 SWAP1 SSTORE POP PUSH1 0x3 PUSH0 CALLER PUSH20 0xFFFFFFFFFFFFFFFFFFFFFFFFFFFFFFFFFFFFFFFF AND PUSH20 0xFFFFFFFFFFFFFFFFFFFFFFFFFFFFFFFFFFFFFFFF AND DUP2 MSTORE PUSH1 0x20 ADD SWAP1 DUP2 MSTORE PUSH1 0x20 ADD PUSH0 KECCAK256 PUSH1 0x2 ADD DUP4 DUP3 DUP2 MLOAD DUP2 LT PUSH2 0xB48 JUMPI PUSH2 0xB47 PUSH2 0x13AE JUMP JUMPDEST JUMPDEST PUSH1 0x20 MUL PUSH1 0x20 ADD ADD MLOAD SWAP1 DUP1 PUSH1 0x1 DUP2 SLOAD ADD DUP1 DUP3 SSTORE DUP1 SWAP2 POP POP PUSH1 0x1 SWAP1 SUB SWAP1 PUSH0 MSTORE PUSH1 0x20 PUSH0 KECCAK256 ADD PUSH0 SWAP1 SWAP2 SWAP1 SWAP2 SWAP1 SWAP2 POP SSTORE DUP1 DUP1 PUSH1 0x1 ADD SWAP2 POP POP PUSH2 0xA98 JUMP JUMPDEST POP PUSH1 0x1 PUSH1 0x3 PUSH0 CALLER PUSH20 0xFFFFFFFFFFFFFFFFFFFFFFFFFFFFFFFFFFFFFFFF AND PUSH20 0xFFFFFFFFFFFFFFFFFFFFFFFFFFFFFFFFFFFFFFFF AND DUP2 MSTORE PUSH1 0x20 ADD SWAP1 DUP2 MSTORE PUSH1 0x20 ADD PUSH0 KECCAK256 PUSH0 ADD PUSH0 PUSH2 0x100 EXP DUP2 SLOAD DUP2 PUSH1 0xFF MUL NOT AND SWAP1 DUP4 ISZERO ISZERO MUL OR SWAP1 SSTORE POP POP POP JUMP JUMPDEST PUSH0 PUSH1 0x40 MLOAD SWAP1 POP SWAP1 JUMP JUMPDEST PUSH0 DUP1 REVERT JUMPDEST PUSH0 DUP1 REVERT JUMPDEST PUSH0 DUP2 SWAP1 POP SWAP2 SWAP1 POP JUMP JUMPDEST PUSH2 0xBFF DUP2 PUSH2 0xBED JUMP JUMPDEST DUP2 EQ PUSH2 0xC09 JUMPI PUSH0 DUP1 REVERT JUMPDEST POP JUMP JUMPDEST PUSH0 DUP2 CALLDATALOAD SWAP1 POP PUSH2 0xC1A DUP2 PUSH2 0xBF6 JUMP JUMPDEST SWAP3 SWAP2 POP POP JUMP JUMPDEST PUSH0 PUSH1 0x20 DUP3 DUP5 SUB SLT ISZERO PUSH2 0xC35 JUMPI PUSH2 0xC34 PUSH2 0xBE5 JUMP JUMPDEST JUMPDEST PUSH0 PUSH2 0xC42 DUP5 DUP3 DUP6 ADD PUSH2 0xC0C JUMP JUMPDEST SWAP2 POP POP SWAP3 SWAP2 POP POP JUMP JUMPDEST PUSH0 DUP2 SWAP1 POP SWAP2 SWAP1 POP JUMP JUMPDEST PUSH2 0xC5D DUP2 PUSH2 0xC4B JUMP JUMPDEST DUP3 MSTORE POP POP JUMP JUMPDEST PUSH0 DUP2 MLOAD SWAP1 POP SWAP2 SWAP1 POP JUMP JUMPDEST PUSH0 DUP3 DUP3 MSTORE PUSH1 0x20 DUP3 ADD SWAP1 POP SWAP3 SWAP2 POP POP JUMP JUMPDEST PUSH0 JUMPDEST DUP4 DUP2 LT ISZERO PUSH2 0xC9A JUMPI DUP1 DUP3 ADD MLOAD DUP2 DUP5 ADD MSTORE PUSH1 0x20 DUP2 ADD SWAP1 POP PUSH2 0xC7F JUMP JUMPDEST PUSH0 DUP5 DUP5 ADD MSTORE POP POP POP POP JUMP JUMPDEST PUSH0 PUSH1 0x1F NOT PUSH1 0x1F DUP4 ADD AND SWAP1 POP SWAP2 SWAP1 POP JUMP JUMPDEST PUSH0 PUSH2 0xCBF DUP3 PUSH2 0xC63 JUMP JUMPDEST PUSH2 0xCC9 DUP2 DUP6 PUSH2 0xC6D JUMP JUMPDEST SWAP4 POP PUSH2 0xCD9 DUP2 DUP6 PUSH1 0x20 DUP7 ADD PUSH2 0xC7D JUMP JUMPDEST PUSH2 0xCE2 DUP2 PUSH2 0xCA5 JUMP JUMPDEST DUP5 ADD SWAP2 POP POP SWAP3 SWAP2 POP POP JUMP JUMPDEST PUSH2 0xCF6 DUP2 PUSH2 0xBED JUMP JUMPDEST DUP3 MSTORE POP POP JUMP JUMPDEST PUSH32 0x4E487B7100000000000000000000000000000000000000000000000000000000 PUSH0 MSTORE PUSH1 0x21 PUSH1 0x4 MSTORE PUSH1 0x24 PUSH0 REVERT JUMPDEST PUSH1 0x3 DUP2 LT PUSH2 0xD3A JUMPI PUSH2 0xD39 PUSH2 0xCFC JUMP JUMPDEST JUMPDEST POP JUMP JUMPDEST PUSH0 DUP2 SWAP1 POP PUSH2 0xD4A DUP3 PUSH2 0xD29 JUMP JUMPDEST SWAP2 SWAP1 POP JUMP JUMPDEST PUSH0 PUSH2 0xD59 DUP3 PUSH2 0xD3D JUMP JUMPDEST SWAP1 POP SWAP2 SWAP1 POP JUMP JUMPDEST PUSH2 0xD69 DUP2 PUSH2 0xD4F JUMP JUMPDEST DUP3 MSTORE POP POP JUMP JUMPDEST PUSH0 PUSH1 0x80 DUP3 ADD SWAP1 POP PUSH2 0xD82 PUSH0 DUP4 ADD DUP8 PUSH2 0xC54 JUMP JUMPDEST DUP2 DUP2 SUB PUSH1 0x20 DUP4 ADD MSTORE PUSH2 0xD94 DUP2 DUP7 PUSH2 0xCB5 JUMP JUMPDEST SWAP1 POP PUSH2 0xDA3 PUSH1 0x40 DUP4 ADD DUP6 PUSH2 0xCED JUMP JUMPDEST PUSH2 0xDB0 PUSH1 0x60 DUP4 ADD DUP5 PUSH2 0xD60 JUMP JUMPDEST SWAP6 SWAP5 POP POP POP POP POP JUMP JUMPDEST PUSH1 0x3 DUP2 LT PUSH2 0xDC5 JUMPI PUSH0 DUP1 REVERT JUMPDEST POP JUMP JUMPDEST PUSH0 DUP2 CALLDATALOAD SWAP1 POP PUSH2 0xDD6 DUP2 PUSH2 0xDB9 JUMP JUMPDEST SWAP3 SWAP2 POP POP JUMP JUMPDEST PUSH0 DUP1 PUSH1 0x40 DUP4 DUP6 SUB SLT ISZERO PUSH2 0xDF2 JUMPI PUSH2 0xDF1 PUSH2 0xBE5 JUMP JUMPDEST JUMPDEST PUSH0 PUSH2 0xDFF DUP6 DUP3 DUP7 ADD PUSH2 0xC0C JUMP JUMPDEST SWAP3 POP POP PUSH1 0x20 PUSH2 0xE10 DUP6 DUP3 DUP7 ADD PUSH2 0xDC8 JUMP JUMPDEST SWAP2 POP POP SWAP3 POP SWAP3 SWAP1 POP JUMP JUMPDEST PUSH0 PUSH20 0xFFFFFFFFFFFFFFFFFFFFFFFFFFFFFFFFFFFFFFFF DUP3 AND SWAP1 POP SWAP2 SWAP1 POP JUMP JUMPDEST PUSH0 PUSH2 0xE43 DUP3 PUSH2 0xE1A JUMP JUMPDEST SWAP1 POP SWAP2 SWAP1 POP JUMP JUMPDEST PUSH2 0xE53 DUP2 PUSH2 0xE39 JUMP JUMPDEST DUP3 MSTORE POP POP JUMP JUMPDEST PUSH0 PUSH1 0x20 DUP3 ADD SWAP1 POP PUSH2 0xE6C PUSH0 DUP4 ADD DUP5 PUSH2 0xE4A JUMP JUMPDEST SWAP3 SWAP2 POP POP JUMP JUMPDEST PUSH2 0xE7B DUP2 PUSH2 0xC4B JUMP JUMPDEST DUP2 EQ PUSH2 0xE85 JUMPI PUSH0 DUP1 REVERT JUMPDEST POP JUMP JUMPDEST PUSH0 DUP2 CALLDATALOAD SWAP1 POP PUSH2 0xE96 DUP2 PUSH2 0xE72 JUMP JUMPDEST SWAP3 SWAP2 POP POP JUMP JUMPDEST PUSH0 DUP1 REVERT JUMPDEST PUSH0 DUP1 REVERT JUMPDEST PUSH32 0x4E487B7100000000000000000000000000000000000000000000000000000000 PUSH0 MSTORE PUSH1 0x41 PUSH1 0x4 MSTORE PUSH1 0x24 PUSH0 REVERT JUMPDEST PUSH2 0xEDA DUP3 PUSH2 0xCA5 JUMP JUMPDEST DUP2 ADD DUP2 DUP2 LT PUSH8 0xFFFFFFFFFFFFFFFF DUP3 GT OR ISZERO PUSH2 0xEF9 JUMPI PUSH2 0xEF8 PUSH2 0xEA4 JUMP JUMPDEST JUMPDEST DUP1 PUSH1 0x40 MSTORE POP POP POP JUMP JUMPDEST PUSH0 PUSH2 0xF0B PUSH2 0xBDC JUMP JUMPDEST SWAP1 POP PUSH2 0xF17 DUP3 DUP3 PUSH2 0xED1 JUMP JUMPDEST SWAP2 SWAP1 POP JUMP JUMPDEST PUSH0 PUSH8 0xFFFFFFFFFFFFFFFF DUP3 GT ISZERO PUSH2 0xF36 JUMPI PUSH2 0xF35 PUSH2 0xEA4 JUMP JUMPDEST JUMPDEST PUSH2 0xF3F DUP3 PUSH2 0xCA5 JUMP JUMPDEST SWAP1 POP PUSH1 0x20 DUP2 ADD SWAP1 POP SWAP2 SWAP1 POP JUMP JUMPDEST DUP3 DUP2 DUP4 CALLDATACOPY PUSH0 DUP4 DUP4 ADD MSTORE POP POP POP JUMP JUMPDEST PUSH0 PUSH2 0xF6C PUSH2 0xF67 DUP5 PUSH2 0xF1C JUMP JUMPDEST PUSH2 0xF02 JUMP JUMPDEST SWAP1 POP DUP3 DUP2 MSTORE PUSH1 0x20 DUP2 ADD DUP5 DUP5 DUP5 ADD GT ISZERO PUSH2 0xF88 JUMPI PUSH2 0xF87 PUSH2 0xEA0 JUMP JUMPDEST JUMPDEST PUSH2 0xF93 DUP5 DUP3 DUP6 PUSH2 0xF4C JUMP JUMPDEST POP SWAP4 SWAP3 POP POP POP JUMP JUMPDEST PUSH0 DUP3 PUSH1 0x1F DUP4 ADD SLT PUSH2 0xFAF JUMPI PUSH2 0xFAE PUSH2 0xE9C JUMP JUMPDEST JUMPDEST DUP2 CALLDATALOAD PUSH2 0xFBF DUP5 DUP3 PUSH1 0x20 DUP7 ADD PUSH2 0xF5A JUMP JUMPDEST SWAP2 POP POP SWAP3 SWAP2 POP POP JUMP JUMPDEST PUSH0 DUP1 PUSH1 0x40 DUP4 DUP6 SUB SLT ISZERO PUSH2 0xFDE JUMPI PUSH2 0xFDD PUSH2 0xBE5 JUMP JUMPDEST JUMPDEST PUSH0 PUSH2 0xFEB DUP6 DUP3 DUP7 ADD PUSH2 0xE88 JUMP JUMPDEST SWAP3 POP POP PUSH1 0x20 DUP4 ADD CALLDATALOAD PUSH8 0xFFFFFFFFFFFFFFFF DUP2 GT ISZERO PUSH2 0x100C JUMPI PUSH2 0x100B PUSH2 0xBE9 JUMP JUMPDEST JUMPDEST PUSH2 0x1018 DUP6 DUP3 DUP7 ADD PUSH2 0xF9B JUMP JUMPDEST SWAP2 POP POP SWAP3 POP SWAP3 SWAP1 POP JUMP JUMPDEST PUSH0 PUSH1 0x20 DUP3 ADD SWAP1 POP PUSH2 0x1035 PUSH0 DUP4 ADD DUP5 PUSH2 0xCED JUMP JUMPDEST SWAP3 SWAP2 POP POP JUMP JUMPDEST PUSH0 PUSH1 0x20 DUP3 DUP5 SUB SLT ISZERO PUSH2 0x1050 JUMPI PUSH2 0x104F PUSH2 0xBE5 JUMP JUMPDEST JUMPDEST PUSH0 PUSH2 0x105D DUP5 DUP3 DUP6 ADD PUSH2 0xE88 JUMP JUMPDEST SWAP2 POP POP SWAP3 SWAP2 POP POP JUMP JUMPDEST PUSH0 PUSH1 0x20 DUP3 ADD SWAP1 POP PUSH2 0x1079 PUSH0 DUP4 ADD DUP5 PUSH2 0xC54 JUMP JUMPDEST SWAP3 SWAP2 POP POP JUMP JUMPDEST PUSH0 PUSH8 0xFFFFFFFFFFFFFFFF DUP3 GT ISZERO PUSH2 0x1099 JUMPI PUSH2 0x1098 PUSH2 0xEA4 JUMP JUMPDEST JUMPDEST PUSH1 0x20 DUP3 MUL SWAP1 POP PUSH1 0x20 DUP2 ADD SWAP1 POP SWAP2 SWAP1 POP JUMP JUMPDEST PUSH0 DUP1 REVERT JUMPDEST PUSH0 PUSH2 0x10C0 PUSH2 0x10BB DUP5 PUSH2 0x107F JUMP JUMPDEST PUSH2 0xF02 JUMP JUMPDEST SWAP1 POP DUP1 DUP4 DUP3 MSTORE PUSH1 0x20 DUP3 ADD SWAP1 POP PUSH1 0x20 DUP5 MUL DUP4 ADD DUP6 DUP2 GT ISZERO PUSH2 0x10E3 JUMPI PUSH2 0x10E2 PUSH2 0x10AA JUMP JUMPDEST JUMPDEST DUP4 JUMPDEST DUP2 DUP2 LT ISZERO PUSH2 0x110C JUMPI DUP1 PUSH2 0x10F8 DUP9 DUP3 PUSH2 0xC0C JUMP JUMPDEST DUP5 MSTORE PUSH1 0x20 DUP5 ADD SWAP4 POP POP PUSH1 0x20 DUP2 ADD SWAP1 POP PUSH2 0x10E5 JUMP JUMPDEST POP POP POP SWAP4 SWAP3 POP POP POP JUMP JUMPDEST PUSH0 DUP3 PUSH1 0x1F DUP4 ADD SLT PUSH2 0x112A JUMPI PUSH2 0x1129 PUSH2 0xE9C JUMP JUMPDEST JUMPDEST DUP2 CALLDATALOAD PUSH2 0x113A DUP5 DUP3 PUSH1 0x20 DUP7 ADD PUSH2 0x10AE JUMP JUMPDEST SWAP2 POP POP SWAP3 SWAP2 POP POP JUMP JUMPDEST PUSH0 PUSH1 0x20 DUP3 DUP5 SUB SLT ISZERO PUSH2 0x1158 JUMPI PUSH2 0x1157 PUSH2 0xBE5 JUMP JUMPDEST JUMPDEST PUSH0 DUP3 ADD CALLDATALOAD PUSH8 0xFFFFFFFFFFFFFFFF DUP2 GT ISZERO PUSH2 0x1175 JUMPI PUSH2 0x1174 PUSH2 0xBE9 JUMP JUMPDEST JUMPDEST PUSH2 0x1181 DUP5 DUP3 DUP6 ADD PUSH2 0x1116 JUMP JUMPDEST SWAP2 POP POP SWAP3 SWAP2 POP POP JUMP JUMPDEST PUSH0 DUP2 MLOAD SWAP1 POP SWAP2 SWAP1 POP JUMP JUMPDEST PUSH0 DUP3 DUP3 MSTORE PUSH1 0x20 DUP3 ADD SWAP1 POP SWAP3 SWAP2 POP POP JUMP JUMPDEST PUSH0 DUP2 SWAP1 POP PUSH1 0x20 DUP3 ADD SWAP1 POP SWAP2 SWAP1 POP JUMP JUMPDEST PUSH2 0x11BC DUP2 PUSH2 0xBED JUMP JUMPDEST DUP3 MSTORE POP POP JUMP JUMPDEST PUSH0 PUSH2 0x11CD DUP4 DUP4 PUSH2 0x11B3 JUMP JUMPDEST PUSH1 0x20 DUP4 ADD SWAP1 POP SWAP3 SWAP2 POP POP JUMP JUMPDEST PUSH0 PUSH1 0x20 DUP3 ADD SWAP1 POP SWAP2 SWAP1 POP JUMP JUMPDEST PUSH0 PUSH2 0x11EF DUP3 PUSH2 0x118A JUMP JUMPDEST PUSH2 0x11F9 DUP2 DUP6 PUSH2 0x1194 JUMP JUMPDEST SWAP4 POP PUSH2 0x1204 DUP4 PUSH2 0x11A4 JUMP JUMPDEST DUP1 PUSH0 JUMPDEST DUP4 DUP2 LT ISZERO PUSH2 0x1234 JUMPI DUP2 MLOAD PUSH2 0x121B DUP9 DUP3 PUSH2 0x11C2 JUMP JUMPDEST SWAP8 POP PUSH2 0x1226 DUP4 PUSH2 0x11D9 JUMP JUMPDEST SWAP3 POP POP PUSH1 0x1 DUP2 ADD SWAP1 POP PUSH2 0x1207 JUMP JUMPDEST POP DUP6 SWAP4 POP POP POP POP SWAP3 SWAP2 POP POP JUMP JUMPDEST PUSH0 PUSH1 0x20 DUP3 ADD SWAP1 POP DUP2 DUP2 SUB PUSH0 DUP4 ADD MSTORE PUSH2 0x1259 DUP2 DUP5 PUSH2 0x11E5 JUMP JUMPDEST SWAP1 POP SWAP3 SWAP2 POP POP JUMP JUMPDEST PUSH2 0x126A DUP2 PUSH2 0xE39 JUMP JUMPDEST DUP2 EQ PUSH2 0x1274 JUMPI PUSH0 DUP1 REVERT JUMPDEST POP JUMP JUMPDEST PUSH0 DUP2 CALLDATALOAD SWAP1 POP PUSH2 0x1285 DUP2 PUSH2 0x1261 JUMP JUMPDEST SWAP3 SWAP2 POP POP JUMP JUMPDEST PUSH0 PUSH1 0x20 DUP3 DUP5 SUB SLT ISZERO PUSH2 0x12A0 JUMPI PUSH2 0x129F PUSH2 0xBE5 JUMP JUMPDEST JUMPDEST PUSH0 PUSH2 0x12AD DUP5 DUP3 DUP6 ADD PUSH2 0x1277 JUMP JUMPDEST SWAP2 POP POP SWAP3 SWAP2 POP POP JUMP JUMPDEST PUSH0 DUP2 ISZERO ISZERO SWAP1 POP SWAP2 SWAP1 POP JUMP JUMPDEST PUSH2 0x12CA DUP2 PUSH2 0x12B6 JUMP JUMPDEST DUP3 MSTORE POP POP JUMP JUMPDEST PUSH0 PUSH1 0x40 DUP3 ADD SWAP1 POP PUSH2 0x12E3 PUSH0 DUP4 ADD DUP6 PUSH2 0x12C1 JUMP JUMPDEST PUSH2 0x12F0 PUSH1 0x20 DUP4 ADD DUP5 PUSH2 0xC54 JUMP JUMPDEST SWAP4 SWAP3 POP POP POP JUMP JUMPDEST PUSH0 DUP1 PUSH1 0x40 DUP4 DUP6 SUB SLT ISZERO PUSH2 0x130D JUMPI PUSH2 0x130C PUSH2 0xBE5 JUMP JUMPDEST JUMPDEST PUSH0 DUP4 ADD CALLDATALOAD PUSH8 0xFFFFFFFFFFFFFFFF DUP2 GT ISZERO PUSH2 0x132A JUMPI PUSH2 0x1329 PUSH2 0xBE9 JUMP JUMPDEST JUMPDEST PUSH2 0x1336 DUP6 DUP3 DUP7 ADD PUSH2 0x1116 JUMP JUMPDEST SWAP3 POP POP PUSH1 0x20 PUSH2 0x1347 DUP6 DUP3 DUP7 ADD PUSH2 0xE88 JUMP JUMPDEST SWAP2 POP POP SWAP3 POP SWAP3 SWAP1 POP JUMP JUMPDEST PUSH32 0x4E487B7100000000000000000000000000000000000000000000000000000000 PUSH0 MSTORE PUSH1 0x22 PUSH1 0x4 MSTORE PUSH1 0x24 PUSH0 REVERT JUMPDEST PUSH0 PUSH1 0x2 DUP3 DIV SWAP1 POP PUSH1 0x1 DUP3 AND DUP1 PUSH2 0x1395 JUMPI PUSH1 0x7F DUP3 AND SWAP2 POP JUMPDEST PUSH1 0x20 DUP3 LT DUP2 SUB PUSH2 0x13A8 JUMPI PUSH2 0x13A7 PUSH2 0x1351 JUMP JUMPDEST JUMPDEST POP SWAP2 SWAP1 POP JUMP JUMPDEST PUSH32 0x4E487B7100000000000000000000000000000000000000000000000000000000 PUSH0 MSTORE PUSH1 0x32 PUSH1 0x4 MSTORE PUSH1 0x24 PUSH0 REVERT JUMPDEST PUSH32 0x496E76616C696420737461746500000000000000000000000000000000000000 PUSH0 DUP3 ADD MSTORE POP JUMP JUMPDEST PUSH0 PUSH2 0x140F PUSH1 0xD DUP4 PUSH2 0xC6D JUMP JUMPDEST SWAP2 POP PUSH2 0x141A DUP3 PUSH2 0x13DB JUMP JUMPDEST PUSH1 0x20 DUP3 ADD SWAP1 POP SWAP2 SWAP1 POP JUMP JUMPDEST PUSH0 PUSH1 0x20 DUP3 ADD SWAP1 POP DUP2 DUP2 SUB PUSH0 DUP4 ADD MSTORE PUSH2 0x143C DUP2 PUSH2 0x1403 JUMP JUMPDEST SWAP1 POP SWAP2 SWAP1 POP JUMP JUMPDEST PUSH32 0x526567697374726174696F6E2068617320656E64656400000000000000000000 PUSH0 DUP3 ADD MSTORE POP JUMP JUMPDEST PUSH0 PUSH2 0x1477 PUSH1 0x16 DUP4 PUSH2 0xC6D JUMP JUMPDEST SWAP2 POP PUSH2 0x1482 DUP3 PUSH2 0x1443 JUMP JUMPDEST PUSH1 0x20 DUP3 ADD SWAP1 POP SWAP2 SWAP1 POP JUMP JUMPDEST PUSH0 PUSH1 0x20 DUP3 ADD SWAP1 POP DUP2 DUP2 SUB PUSH0 DUP4 ADD MSTORE PUSH2 0x14A4 DUP2 PUSH2 0x146B JUMP JUMPDEST SWAP1 POP SWAP2 SWAP1 POP JUMP JUMPDEST PUSH0 DUP2 SWAP1 POP SWAP3 SWAP2 POP POP JUMP JUMPDEST PUSH0 PUSH2 0x14BF DUP3 PUSH2 0xC63 JUMP JUMPDEST PUSH2 0x14C9 DUP2 DUP6 PUSH2 0x14AB JUMP JUMPDEST SWAP4 POP PUSH2 0x14D9 DUP2 DUP6 PUSH1 0x20 DUP7 ADD PUSH2 0xC7D JUMP JUMPDEST DUP1 DUP5 ADD SWAP2 POP POP SWAP3 SWAP2 POP POP JUMP JUMPDEST PUSH0 PUSH2 0x14F0 DUP3 DUP5 PUSH2 0x14B5 JUMP JUMPDEST SWAP2 POP DUP2 SWAP1 POP SWAP3 SWAP2 POP POP JUMP JUMPDEST PUSH32 0x5465616D2068617320616C726561647920726567697374657220612070726F6A PUSH0 DUP3 ADD MSTORE PUSH32 0x6563740000000000000000000000000000000000000000000000000000000000 PUSH1 0x20 DUP3 ADD MSTORE POP JUMP JUMPDEST PUSH0 PUSH2 0x1555 PUSH1 0x23 DUP4 PUSH2 0xC6D JUMP JUMPDEST SWAP2 POP PUSH2 0x1560 DUP3 PUSH2 0x14FB JUMP JUMPDEST PUSH1 0x40 DUP3 ADD SWAP1 POP SWAP2 SWAP1 POP JUMP JUMPDEST PUSH0 PUSH1 0x20 DUP3 ADD SWAP1 POP DUP2 DUP2 SUB PUSH0 DUP4 ADD MSTORE PUSH2 0x1582 DUP2 PUSH2 0x1549 JUMP JUMPDEST SWAP1 POP SWAP2 SWAP1 POP JUMP JUMPDEST PUSH0 DUP2 SWAP1 POP DUP2 PUSH0 MSTORE PUSH1 0x20 PUSH0 KECCAK256 SWAP1 POP SWAP2 SWAP1 POP JUMP JUMPDEST PUSH0 PUSH1 0x20 PUSH1 0x1F DUP4 ADD DIV SWAP1 POP SWAP2 SWAP1 POP JUMP JUMPDEST PUSH0 DUP3 DUP3 SHL SWAP1 POP SWAP3 SWAP2 POP POP JUMP JUMPDEST PUSH0 PUSH1 0x8 DUP4 MUL PUSH2 0x15E5 PUSH32 0xFFFFFFFFFFFFFFFFFFFFFFFFFFFFFFFFFFFFFFFFFFFFFFFFFFFFFFFFFFFFFFFF DUP3 PUSH2 0x15AA JUMP JUMPDEST PUSH2 0x15EF DUP7 DUP4 PUSH2 0x15AA JUMP JUMPDEST SWAP6 POP DUP1 NOT DUP5 AND SWAP4 POP DUP1 DUP7 AND DUP5 OR SWAP3 POP POP POP SWAP4 SWAP3 POP POP POP JUMP JUMPDEST PUSH0 DUP2 SWAP1 POP SWAP2 SWAP1 POP JUMP JUMPDEST PUSH0 PUSH2 0x162A PUSH2 0x1625 PUSH2 0x1620 DUP5 PUSH2 0xBED JUMP JUMPDEST PUSH2 0x1607 JUMP JUMPDEST PUSH2 0xBED JUMP JUMPDEST SWAP1 POP SWAP2 SWAP1 POP JUMP JUMPDEST PUSH0 DUP2 SWAP1 POP SWAP2 SWAP1 POP JUMP JUMPDEST PUSH2 0x1643 DUP4 PUSH2 0x1610 JUMP JUMPDEST PUSH2 0x1657 PUSH2 0x164F DUP3 PUSH2 0x1631 JUMP JUMPDEST DUP5 DUP5 SLOAD PUSH2 0x15B6 JUMP JUMPDEST DUP3 SSTORE POP POP POP POP JUMP JUMPDEST PUSH0 SWAP1 JUMP JUMPDEST PUSH2 0x166B PUSH2 0x165F JUMP JUMPDEST PUSH2 0x1676 DUP2 DUP5 DUP5 PUSH2 0x163A JUMP JUMPDEST POP POP POP JUMP JUMPDEST JUMPDEST DUP2 DUP2 LT ISZERO PUSH2 0x1699 JUMPI PUSH2 0x168E PUSH0 DUP3 PUSH2 0x1663 JUMP JUMPDEST PUSH1 0x1 DUP2 ADD SWAP1 POP PUSH2 0x167C JUMP JUMPDEST POP POP JUMP JUMPDEST PUSH1 0x1F DUP3 GT ISZERO PUSH2 0x16DE JUMPI PUSH2 0x16AF DUP2 PUSH2 0x1589 JUMP JUMPDEST PUSH2 0x16B8 DUP5 PUSH2 0x159B JUMP JUMPDEST DUP2 ADD PUSH1 0x20 DUP6 LT ISZERO PUSH2 0x16C7 JUMPI DUP2 SWAP1 POP JUMPDEST PUSH2 0x16DB PUSH2 0x16D3 DUP6 PUSH2 0x159B JUMP JUMPDEST DUP4 ADD DUP3 PUSH2 0x167B JUMP JUMPDEST POP POP JUMPDEST POP POP POP JUMP JUMPDEST PUSH0 DUP3 DUP3 SHR SWAP1 POP SWAP3 SWAP2 POP POP JUMP JUMPDEST PUSH0 PUSH2 0x16FE PUSH0 NOT DUP5 PUSH1 0x8 MUL PUSH2 0x16E3 JUMP JUMPDEST NOT DUP1 DUP4 AND SWAP2 POP POP SWAP3 SWAP2 POP POP JUMP JUMPDEST PUSH0 PUSH2 0x1716 DUP4 DUP4 PUSH2 0x16EF JUMP JUMPDEST SWAP2 POP DUP3 PUSH1 0x2 MUL DUP3 OR SWAP1 POP SWAP3 SWAP2 POP POP JUMP JUMPDEST PUSH2 0x172F DUP3 PUSH2 0xC63 JUMP JUMPDEST PUSH8 0xFFFFFFFFFFFFFFFF DUP2 GT ISZERO PUSH2 0x1748 JUMPI PUSH2 0x1747 PUSH2 0xEA4 JUMP JUMPDEST JUMPDEST PUSH2 0x1752 DUP3 SLOAD PUSH2 0x137E JUMP JUMPDEST PUSH2 0x175D DUP3 DUP3 DUP6 PUSH2 0x169D JUMP JUMPDEST PUSH0 PUSH1 0x20 SWAP1 POP PUSH1 0x1F DUP4 GT PUSH1 0x1 DUP2 EQ PUSH2 0x178E JUMPI PUSH0 DUP5 ISZERO PUSH2 0x177C JUMPI DUP3 DUP8 ADD MLOAD SWAP1 POP JUMPDEST PUSH2 0x1786 DUP6 DUP3 PUSH2 0x170B JUMP JUMPDEST DUP7 SSTORE POP PUSH2 0x17ED JUMP JUMPDEST PUSH1 0x1F NOT DUP5 AND PUSH2 0x179C DUP7 PUSH2 0x1589 JUMP JUMPDEST PUSH0 JUMPDEST DUP3 DUP2 LT ISZERO PUSH2 0x17C3 JUMPI DUP5 DUP10 ADD MLOAD DUP3 SSTORE PUSH1 0x1 DUP3 ADD SWAP2 POP PUSH1 0x20 DUP6 ADD SWAP5 POP PUSH1 0x20 DUP2 ADD SWAP1 POP PUSH2 0x179E JUMP JUMPDEST DUP7 DUP4 LT ISZERO PUSH2 0x17E0 JUMPI DUP5 DUP10 ADD MLOAD PUSH2 0x17DC PUSH1 0x1F DUP10 AND DUP3 PUSH2 0x16EF JUMP JUMPDEST DUP4 SSTORE POP JUMPDEST PUSH1 0x1 PUSH1 0x2 DUP9 MUL ADD DUP9 SSTORE POP POP POP JUMPDEST POP POP POP POP POP POP JUMP JUMPDEST PUSH0 DUP2 SWAP1 POP SWAP2 SWAP1 POP JUMP JUMPDEST PUSH2 0x180F PUSH2 0x180A DUP3 PUSH2 0xC4B JUMP JUMPDEST PUSH2 0x17F5 JUMP JUMPDEST DUP3 MSTORE POP POP JUMP JUMPDEST PUSH0 DUP2 PUSH1 0x60 SHL SWAP1 POP SWAP2 SWAP1 POP JUMP JUMPDEST PUSH0 PUSH2 0x182B DUP3 PUSH2 0x1815 JUMP JUMPDEST SWAP1 POP SWAP2 SWAP1 POP JUMP JUMPDEST PUSH0 PUSH2 0x183C DUP3 PUSH2 0x1821 JUMP JUMPDEST SWAP1 POP SWAP2 SWAP1 POP JUMP JUMPDEST PUSH2 0x1854 PUSH2 0x184F DUP3 PUSH2 0xE39 JUMP JUMPDEST PUSH2 0x1832 JUMP JUMPDEST DUP3 MSTORE POP POP JUMP JUMPDEST PUSH0 PUSH2 0x1865 DUP3 DUP6 PUSH2 0x17FE JUMP JUMPDEST PUSH1 0x20 DUP3 ADD SWAP2 POP PUSH2 0x1875 DUP3 DUP5 PUSH2 0x1843 JUMP JUMPDEST PUSH1 0x14 DUP3 ADD SWAP2 POP DUP2 SWAP1 POP SWAP4 SWAP3 POP POP POP JUMP JUMPDEST PUSH32 0x546F6B656E20686173206265656E20616C726561647920757365642100000000 PUSH0 DUP3 ADD MSTORE POP JUMP JUMPDEST PUSH0 PUSH2 0x18B9 PUSH1 0x1C DUP4 PUSH2 0xC6D JUMP JUMPDEST SWAP2 POP PUSH2 0x18C4 DUP3 PUSH2 0x1885 JUMP JUMPDEST PUSH1 0x20 DUP3 ADD SWAP1 POP SWAP2 SWAP1 POP JUMP JUMPDEST PUSH0 PUSH1 0x20 DUP3 ADD SWAP1 POP DUP2 DUP2 SUB PUSH0 DUP4 ADD MSTORE PUSH2 0x18E6 DUP2 PUSH2 0x18AD JUMP JUMPDEST SWAP1 POP SWAP2 SWAP1 POP JUMP JUMPDEST PUSH32 0x4E487B7100000000000000000000000000000000000000000000000000000000 PUSH0 MSTORE PUSH1 0x11 PUSH1 0x4 MSTORE PUSH1 0x24 PUSH0 REVERT JUMPDEST PUSH0 PUSH2 0x1924 DUP3 PUSH2 0xBED JUMP JUMPDEST SWAP2 POP PUSH2 0x192F DUP4 PUSH2 0xBED JUMP JUMPDEST SWAP3 POP DUP3 DUP3 SUB SWAP1 POP DUP2 DUP2 GT ISZERO PUSH2 0x1947 JUMPI PUSH2 0x1946 PUSH2 0x18ED JUMP JUMPDEST JUMPDEST SWAP3 SWAP2 POP POP JUMP JUMPDEST PUSH0 PUSH2 0x1957 DUP3 PUSH2 0xBED JUMP JUMPDEST SWAP2 POP PUSH2 0x1962 DUP4 PUSH2 0xBED JUMP JUMPDEST SWAP3 POP DUP3 DUP3 ADD SWAP1 POP DUP1 DUP3 GT ISZERO PUSH2 0x197A JUMPI PUSH2 0x1979 PUSH2 0x18ED JUMP JUMPDEST JUMPDEST SWAP3 SWAP2 POP POP JUMP JUMPDEST PUSH32 0x496E76616C696420746F6B656E00000000000000000000000000000000000000 PUSH0 DUP3 ADD MSTORE POP JUMP JUMPDEST PUSH0 PUSH2 0x19B4 PUSH1 0xD DUP4 PUSH2 0xC6D JUMP JUMPDEST SWAP2 POP PUSH2 0x19BF DUP3 PUSH2 0x1980 JUMP JUMPDEST PUSH1 0x20 DUP3 ADD SWAP1 POP SWAP2 SWAP1 POP JUMP JUMPDEST PUSH0 PUSH1 0x20 DUP3 ADD SWAP1 POP DUP2 DUP2 SUB PUSH0 DUP4 ADD MSTORE PUSH2 0x19E1 DUP2 PUSH2 0x19A8 JUMP JUMPDEST SWAP1 POP SWAP2 SWAP1 POP JUMP JUMPDEST PUSH32 0x566F7465722068617320616C726561647920766F746564210000000000000000 PUSH0 DUP3 ADD MSTORE POP JUMP JUMPDEST PUSH0 PUSH2 0x1A1C PUSH1 0x18 DUP4 PUSH2 0xC6D JUMP JUMPDEST SWAP2 POP PUSH2 0x1A27 DUP3 PUSH2 0x19E8 JUMP JUMPDEST PUSH1 0x20 DUP3 ADD SWAP1 POP SWAP2 SWAP1 POP JUMP JUMPDEST PUSH0 PUSH1 0x20 DUP3 ADD SWAP1 POP DUP2 DUP2 SUB PUSH0 DUP4 ADD MSTORE PUSH2 0x1A49 DUP2 PUSH2 0x1A10 JUMP JUMPDEST SWAP1 POP SWAP2 SWAP1 POP JUMP INVALID LOG2 PUSH5 0x6970667358 0x22 SLT KECCAK256 0xCF 0xD0 JUMP 0x2A 0xBA 0xFC 0x29 PUSH13 0x139BB0852E203649871FBCBAF5 PUSH14 0xBF1648820D8F5ED70C1B64736F6C PUSH4 0x43000818 STOP CALLER "
		},
		"gasEstimates": {
			"creation": {
				"codeDepositCost": "1358000",
				"executionCost": "infinite",
				"totalCost": "infinite"
			},
			"external": {
				"chairperson()": "2550",
				"proposals(uint256)": "infinite",
				"registerProposal(bytes32,string)": "infinite",
				"registerVoter(bytes32)": "infinite",
				"setProposalState(uint256,uint8)": "35940",
				"sort(uint256[])": "infinite",
				"vote(uint256[],bytes32)": "infinite",
				"voters(address)": "5133",
				"winningProposal()": "infinite"
			}
		},
		"methodIdentifiers": {
			"chairperson()": "2e4176cf",
			"proposals(uint256)": "013cf08b",
			"registerProposal(bytes32,string)": "45e53035",
			"registerVoter(bytes32)": "793c5d21",
			"setProposalState(uint256,uint8)": "0fb26697",
			"sort(uint256[])": "9ec8b026",
			"vote(uint256[],bytes32)": "ddbf695a",
			"voters(address)": "a3ec138d",
			"winningProposal()": "609ff1bd"
		}
	},
	"abi": [
		{
			"inputs": [
				{
					"internalType": "uint256",
					"name": "argNrReqVotes",
					"type": "uint256"
				}
			],
			"stateMutability": "nonpayable",
			"type": "constructor"
		},
		{
			"inputs": [],
			"name": "chairperson",
			"outputs": [
				{
					"internalType": "address",
					"name": "",
					"type": "address"
				}
			],
			"stateMutability": "view",
			"type": "function"
		},
		{
			"inputs": [
				{
					"internalType": "uint256",
					"name": "",
					"type": "uint256"
				}
			],
			"name": "proposals",
			"outputs": [
				{
					"internalType": "bytes32",
					"name": "projectName",
					"type": "bytes32"
				},
				{
					"internalType": "string",
					"name": "teamName",
					"type": "string"
				},
				{
					"internalType": "uint256",
					"name": "voteCount",
					"type": "uint256"
				},
				{
					"internalType": "enum Voting.State",
					"name": "state",
					"type": "uint8"
				}
			],
			"stateMutability": "view",
			"type": "function"
		},
		{
			"inputs": [
				{
					"internalType": "bytes32",
					"name": "projectName",
					"type": "bytes32"
				},
				{
					"internalType": "string",
					"name": "teamName",
					"type": "string"
				}
			],
			"name": "registerProposal",
			"outputs": [],
			"stateMutability": "nonpayable",
			"type": "function"
		},
		{
			"inputs": [
				{
					"internalType": "bytes32",
					"name": "givenToken",
					"type": "bytes32"
				}
			],
			"name": "registerVoter",
			"outputs": [
				{
					"internalType": "bytes32",
					"name": "generatedToken",
					"type": "bytes32"
				}
			],
			"stateMutability": "nonpayable",
			"type": "function"
		},
		{
			"inputs": [
				{
					"internalType": "uint256",
					"name": "idx",
					"type": "uint256"
				},
				{
					"internalType": "enum Voting.State",
					"name": "state",
					"type": "uint8"
				}
			],
			"name": "setProposalState",
			"outputs": [],
			"stateMutability": "nonpayable",
			"type": "function"
		},
		{
			"inputs": [
				{
					"internalType": "uint256[]",
					"name": "v",
					"type": "uint256[]"
				}
			],
			"name": "sort",
			"outputs": [
				{
					"internalType": "uint256[]",
					"name": "",
					"type": "uint256[]"
				}
			],
			"stateMutability": "pure",
			"type": "function"
		},
		{
			"inputs": [
				{
					"internalType": "uint256[]",
					"name": "votes",
					"type": "uint256[]"
				},
				{
					"internalType": "bytes32",
					"name": "token",
					"type": "bytes32"
				}
			],
			"name": "vote",
			"outputs": [],
			"stateMutability": "nonpayable",
			"type": "function"
		},
		{
			"inputs": [
				{
					"internalType": "address",
					"name": "",
					"type": "address"
				}
			],
			"name": "voters",
			"outputs": [
				{
					"internalType": "bool",
					"name": "voted",
					"type": "bool"
				},
				{
					"internalType": "bytes32",
					"name": "token",
					"type": "bytes32"
				}
			],
			"stateMutability": "view",
			"type": "function"
		},
		{
			"inputs": [],
			"name": "winningProposal",
			"outputs": [
				{
					"internalType": "uint256",
					"name": "winningProposalId",
					"type": "uint256"
				}
			],
			"stateMutability": "view",
			"type": "function"
		}
	]
}